{
  "contractName": "Fight",
  "abi": [
    {
      "inputs": [
        {
          "internalType": "address",
          "name": "_ff",
          "type": "address"
        },
        {
          "internalType": "address",
          "name": "_dev",
          "type": "address"
        },
        {
          "internalType": "address",
          "name": "_dev2",
          "type": "address"
        },
        {
          "internalType": "uint256",
          "name": "_dscs",
          "type": "uint256"
        },
        {
          "internalType": "uint256",
          "name": "_dscs2",
          "type": "uint256"
        },
        {
          "internalType": "uint256",
          "name": "_spotResPrice",
          "type": "uint256"
        },
        {
          "internalType": "address",
          "name": "_fightAdmin",
          "type": "address"
        },
        {
          "internalType": "address",
          "name": "_tc",
          "type": "address"
        },
        {
          "internalType": "address",
          "name": "_influ2",
          "type": "address"
        },
        {
          "internalType": "address",
          "name": "_charity",
          "type": "address"
        },
        {
          "internalType": "address",
          "name": "_lsp",
          "type": "address"
        }
      ],
      "stateMutability": "nonpayable",
      "type": "constructor"
    },
    {
      "inputs": [],
      "name": "FinishFightFirst",
      "type": "error"
    },
    {
      "inputs": [],
      "name": "NotEnoughEther",
      "type": "error"
    },
    {
      "inputs": [],
      "name": "YouHaveToReserveFirst",
      "type": "error"
    },
    {
      "inputs": [
        {
          "internalType": "address",
          "name": "influ1",
          "type": "address"
        },
        {
          "internalType": "uint256",
          "name": "initPrice",
          "type": "uint256"
        },
        {
          "internalType": "uint256",
          "name": "np",
          "type": "uint256"
        },
        {
          "internalType": "uint256",
          "name": "extention",
          "type": "uint256"
        },
        {
          "internalType": "uint256",
          "name": "duration",
          "type": "uint256"
        },
        {
          "internalType": "string[5]",
          "name": "fightTopics",
          "type": "string[5]"
        },
        {
          "internalType": "string",
          "name": "promo1",
          "type": "string"
        },
        {
          "internalType": "string",
          "name": "promo2",
          "type": "string"
        },
        {
          "internalType": "string",
          "name": "shortUrl",
          "type": "string"
        }
      ],
      "name": "addFightData",
      "outputs": [],
      "stateMutability": "nonpayable",
      "type": "function"
    },
    {
      "inputs": [
        {
          "internalType": "uint256",
          "name": "_value",
          "type": "uint256"
        }
      ],
      "name": "stakeingVSlice_C64",
      "outputs": [],
      "stateMutability": "nonpayable",
      "type": "function"
    },
    {
      "inputs": [
        {
          "internalType": "uint256",
          "name": "_value",
          "type": "uint256"
        }
      ],
      "name": "unstakeingVSlice_EK",
      "outputs": [],
      "stateMutability": "nonpayable",
      "type": "function"
    },
    {
      "inputs": [],
      "name": "viewVSliceBalance",
      "outputs": [
        {
          "internalType": "uint256",
          "name": "",
          "type": "uint256"
        }
      ],
      "stateMutability": "view",
      "type": "function"
    },
    {
      "inputs": [
        {
          "internalType": "string",
          "name": "_text",
          "type": "string"
        },
        {
          "internalType": "string",
          "name": "_link",
          "type": "string"
        },
        {
          "internalType": "string",
          "name": "_pic",
          "type": "string"
        },
        {
          "internalType": "string",
          "name": "_mediaType",
          "type": "string"
        }
      ],
      "name": "createSpot_g4A",
      "outputs": [],
      "stateMutability": "payable",
      "type": "function"
    },
    {
      "inputs": [
        {
          "internalType": "uint256",
          "name": "_index",
          "type": "uint256"
        },
        {
          "internalType": "string",
          "name": "_text",
          "type": "string"
        },
        {
          "internalType": "string",
          "name": "_link",
          "type": "string"
        },
        {
          "internalType": "string",
          "name": "_pic",
          "type": "string"
        },
        {
          "internalType": "string",
          "name": "_mediaType",
          "type": "string"
        }
      ],
      "name": "flip_Maf",
      "outputs": [],
      "stateMutability": "payable",
      "type": "function"
    },
    {
      "inputs": [],
      "name": "getSpots",
      "outputs": [
        {
          "components": [
            {
              "internalType": "uint256",
              "name": "SpotNo",
              "type": "uint256"
            },
            {
              "internalType": "uint256",
              "name": "priceOfSpot",
              "type": "uint256"
            },
            {
              "internalType": "uint256",
              "name": "bu",
              "type": "uint256"
            },
            {
              "internalType": "uint256",
              "name": "ru",
              "type": "uint256"
            },
            {
              "internalType": "address",
              "name": "flipper",
              "type": "address"
            },
            {
              "internalType": "address",
              "name": "booker",
              "type": "address"
            },
            {
              "internalType": "string",
              "name": "text",
              "type": "string"
            },
            {
              "internalType": "string",
              "name": "link",
              "type": "string"
            },
            {
              "internalType": "string",
              "name": "pic",
              "type": "string"
            },
            {
              "internalType": "string",
              "name": "mediaType",
              "type": "string"
            }
          ],
          "internalType": "struct Fight.Spots[]",
          "name": "",
          "type": "tuple[]"
        }
      ],
      "stateMutability": "view",
      "type": "function"
    },
    {
      "inputs": [
        {
          "internalType": "uint256",
          "name": "_indx",
          "type": "uint256"
        }
      ],
      "name": "spotReserve_u5k",
      "outputs": [],
      "stateMutability": "payable",
      "type": "function"
    },
    {
      "inputs": [
        {
          "internalType": "uint256",
          "name": "_indx",
          "type": "uint256"
        }
      ],
      "name": "resetspot",
      "outputs": [],
      "stateMutability": "nonpayable",
      "type": "function"
    },
    {
      "inputs": [],
      "name": "makeWithdrawal",
      "outputs": [],
      "stateMutability": "nonpayable",
      "type": "function"
    },
    {
      "inputs": [],
      "name": "makeWithdrawalLSP",
      "outputs": [],
      "stateMutability": "nonpayable",
      "type": "function"
    },
    {
      "inputs": [
        {
          "internalType": "address",
          "name": "_addr",
          "type": "address"
        }
      ],
      "name": "voting1_E7O",
      "outputs": [],
      "stateMutability": "nonpayable",
      "type": "function"
    },
    {
      "inputs": [
        {
          "internalType": "address",
          "name": "_addr",
          "type": "address"
        }
      ],
      "name": "voting2_eoL",
      "outputs": [],
      "stateMutability": "nonpayable",
      "type": "function"
    },
    {
      "inputs": [],
      "name": "getFightData",
      "outputs": [
        {
          "internalType": "address",
          "name": "",
          "type": "address"
        },
        {
          "internalType": "uint256",
          "name": "",
          "type": "uint256"
        },
        {
          "internalType": "uint256",
          "name": "",
          "type": "uint256"
        },
        {
          "internalType": "uint256",
          "name": "",
          "type": "uint256"
        },
        {
          "internalType": "uint256",
          "name": "",
          "type": "uint256"
        },
        {
          "internalType": "string[5]",
          "name": "",
          "type": "string[5]"
        },
        {
          "internalType": "string",
          "name": "",
          "type": "string"
        },
        {
          "internalType": "string",
          "name": "",
          "type": "string"
        },
        {
          "internalType": "string",
          "name": "",
          "type": "string"
        }
      ],
      "stateMutability": "view",
      "type": "function"
    },
    {
      "inputs": [],
      "name": "getFightParams2",
      "outputs": [
        {
          "internalType": "uint256",
          "name": "",
          "type": "uint256"
        },
        {
          "internalType": "uint256",
          "name": "",
          "type": "uint256"
        },
        {
          "internalType": "uint256",
          "name": "",
          "type": "uint256"
        },
        {
          "internalType": "address",
          "name": "",
          "type": "address"
        },
        {
          "internalType": "uint256",
          "name": "",
          "type": "uint256"
        },
        {
          "internalType": "uint256",
          "name": "",
          "type": "uint256"
        },
        {
          "internalType": "uint256",
          "name": "",
          "type": "uint256"
        },
        {
          "internalType": "uint256",
          "name": "",
          "type": "uint256"
        },
        {
          "internalType": "uint256",
          "name": "",
          "type": "uint256"
        }
      ],
      "stateMutability": "view",
      "type": "function"
    },
    {
      "inputs": [],
      "name": "getFightParams",
      "outputs": [
        {
          "internalType": "uint256",
          "name": "",
          "type": "uint256"
        },
        {
          "internalType": "uint256",
          "name": "",
          "type": "uint256"
        },
        {
          "internalType": "uint256",
          "name": "",
          "type": "uint256"
        },
        {
          "internalType": "uint256",
          "name": "",
          "type": "uint256"
        },
        {
          "internalType": "uint256",
          "name": "",
          "type": "uint256"
        },
        {
          "internalType": "uint256",
          "name": "",
          "type": "uint256"
        },
        {
          "internalType": "uint256",
          "name": "",
          "type": "uint256"
        },
        {
          "internalType": "uint256",
          "name": "",
          "type": "uint256"
        },
        {
          "internalType": "uint256",
          "name": "",
          "type": "uint256"
        },
        {
          "internalType": "uint256",
          "name": "",
          "type": "uint256"
        },
        {
          "internalType": "uint256",
          "name": "",
          "type": "uint256"
        },
        {
          "internalType": "uint256",
          "name": "",
          "type": "uint256"
        }
      ],
      "stateMutability": "view",
      "type": "function"
    },
    {
      "inputs": [],
      "name": "showBalance",
      "outputs": [
        {
          "internalType": "uint256",
          "name": "",
          "type": "uint256"
        },
        {
          "internalType": "uint256",
          "name": "",
          "type": "uint256"
        },
        {
          "internalType": "uint256",
          "name": "",
          "type": "uint256"
        },
        {
          "internalType": "address",
          "name": "",
          "type": "address"
        },
        {
          "internalType": "uint256",
          "name": "",
          "type": "uint256"
        },
        {
          "internalType": "uint256",
          "name": "",
          "type": "uint256"
        },
        {
          "internalType": "uint256",
          "name": "",
          "type": "uint256"
        },
        {
          "internalType": "uint256",
          "name": "",
          "type": "uint256"
        },
        {
          "internalType": "uint256",
          "name": "",
          "type": "uint256"
        }
      ],
      "stateMutability": "view",
      "type": "function"
    },
    {
      "inputs": [
        {
          "internalType": "string",
          "name": "_promo1",
          "type": "string"
        },
        {
          "internalType": "string",
          "name": "_promo2",
          "type": "string"
        }
      ],
      "name": "ufp",
      "outputs": [],
      "stateMutability": "nonpayable",
      "type": "function"
    },
    {
      "inputs": [
        {
          "internalType": "uint256",
          "name": "fs",
          "type": "uint256"
        },
        {
          "internalType": "uint256",
          "name": "infs",
          "type": "uint256"
        },
        {
          "internalType": "uint256",
          "name": "scb",
          "type": "uint256"
        },
        {
          "internalType": "uint256",
          "name": "us",
          "type": "uint256"
        },
        {
          "internalType": "uint256",
          "name": "cs",
          "type": "uint256"
        },
        {
          "internalType": "uint256",
          "name": "_iscs",
          "type": "uint256"
        },
        {
          "internalType": "uint256",
          "name": "_uscs",
          "type": "uint256"
        },
        {
          "internalType": "uint256",
          "name": "mu",
          "type": "uint256"
        },
        {
          "internalType": "uint256",
          "name": "sbt",
          "type": "uint256"
        },
        {
          "internalType": "uint256",
          "name": "srt",
          "type": "uint256"
        }
      ],
      "name": "sF",
      "outputs": [],
      "stateMutability": "nonpayable",
      "type": "function"
    }
  ],
  "bytecode": "0x60806040523480156200001157600080fd5b5060405162004d4e38038062004d4e83398181016040528101906200003791906200035d565b89600160006101000a81548173ffffffffffffffffffffffffffffffffffffffff021916908373ffffffffffffffffffffffffffffffffffffffff16021790555088600260006101000a81548173ffffffffffffffffffffffffffffffffffffffff021916908373ffffffffffffffffffffffffffffffffffffffff1602179055508760088190555086600981905550600a60118190555060366012819055506046600c81905550600a600d819055506055600f8190555060056010819055506064600e81905550614e2060138190555061012c60148190555061012c60158190555085600a8190555084600360006101000a81548173ffffffffffffffffffffffffffffffffffffffff021916908373ffffffffffffffffffffffffffffffffffffffff16021790555083600460006101000a81548173ffffffffffffffffffffffffffffffffffffffff021916908373ffffffffffffffffffffffffffffffffffffffff16021790555082600560006101000a81548173ffffffffffffffffffffffffffffffffffffffff021916908373ffffffffffffffffffffffffffffffffffffffff16021790555081600660006101000a81548173ffffffffffffffffffffffffffffffffffffffff021916908373ffffffffffffffffffffffffffffffffffffffff1602179055508a601c60006101000a81548173ffffffffffffffffffffffffffffffffffffffff021916908373ffffffffffffffffffffffffffffffffffffffff16021790555080601860006101000a81548173ffffffffffffffffffffffffffffffffffffffff021916908373ffffffffffffffffffffffffffffffffffffffff16021790555050505050505050505050506200046a565b600080fd5b600073ffffffffffffffffffffffffffffffffffffffff82169050919050565b6000620002ea82620002bd565b9050919050565b620002fc81620002dd565b81146200030857600080fd5b50565b6000815190506200031c81620002f1565b92915050565b6000819050919050565b620003378162000322565b81146200034357600080fd5b50565b60008151905062000357816200032c565b92915050565b60008060008060008060008060008060006101608c8e031215620003865762000385620002b8565b5b6000620003968e828f016200030b565b9b50506020620003a98e828f016200030b565b9a50506040620003bc8e828f016200030b565b9950506060620003cf8e828f0162000346565b9850506080620003e28e828f0162000346565b97505060a0620003f58e828f0162000346565b96505060c0620004088e828f016200030b565b95505060e06200041b8e828f016200030b565b9450506101006200042f8e828f016200030b565b935050610120620004438e828f016200030b565b925050610140620004578e828f016200030b565b9150509295989b509295989b9093969950565b6148d4806200047a6000396000f3fe6080604052600436106101105760003560e01c80637c0ce7ad116100a0578063e7ac9ab411610064578063e7ac9ab414610333578063e8c90e881461034f578063f706cccc14610385578063f9521129146103ae578063fa937571146103d957610110565b80637c0ce7ad1461027b57806381b2d07b146102a4578063a5d7c82f146102d7578063b9bbba18146102ee578063e51c484e1461030a57610110565b80633951b4c9116100e75780633951b4c9146101ac57806344d16475146101c357806347f9ba5e146101ec578063503cfdb7146102155780635eebe2581461024857610110565b8061825e14610115578061ecc81461013e5780630126fe5e146101675780632a6eff1414610190575b600080fd5b34801561012157600080fd5b5061013c60048036038101906101379190613814565b610404565b005b34801561014a57600080fd5b5061016560048036038101906101609190613814565b610593565b005b34801561017357600080fd5b5061018e60048036038101906101899190613987565b610722565b005b6101aa60048036038101906101a59190613a35565b610812565b005b3480156101b857600080fd5b506101c1611248565b005b3480156101cf57600080fd5b506101ea60048036038101906101e59190613b20565b61131b565b005b3480156101f857600080fd5b50610213600480360381019061020e9190613bff565b61142d565b005b34801561022157600080fd5b5061022a611520565b60405161023f99989796959493929190613dd2565b60405180910390f35b34801561025457600080fd5b5061025d611828565b60405161027299989796959493929190613e7b565b60405180910390f35b34801561028757600080fd5b506102a2600480360381019061029d9190613bff565b6118d6565b005b3480156102b057600080fd5b506102b9611acc565b6040516102ce99989796959493929190613e7b565b60405180910390f35b3480156102e357600080fd5b506102ec611c2d565b005b61030860048036038101906103039190613f08565b611ed5565b005b34801561031657600080fd5b50610331600480360381019061032c9190613bff565b61295b565b005b61034d60048036038101906103489190613bff565b612b4f565b005b34801561035b57600080fd5b50610364612d38565b60405161037c9c9b9a99989796959493929190613fdf565b60405180910390f35b34801561039157600080fd5b506103ac60048036038101906103a7919061416d565b612d94565b005b3480156103ba57600080fd5b506103c3613075565b6040516103d091906142a7565b60405180910390f35b3480156103e557600080fd5b506103ee613118565b6040516103fb9190614491565b60405180910390f35b6000601f60008373ffffffffffffffffffffffffffffffffffffffff1673ffffffffffffffffffffffffffffffffffffffff168152602001908152602001600020541480156104f2575060011515600460009054906101000a900473ffffffffffffffffffffffffffffffffffffffff1673ffffffffffffffffffffffffffffffffffffffff16632fee9e7e336040518263ffffffff1660e01b81526004016104ad91906144b3565b602060405180830381865afa1580156104ca573d6000803e3d6000fd5b505050506040513d601f19601f820116820180604052508101906104ee9190614506565b1515145b610531576040517f08c379a000000000000000000000000000000000000000000000000000000000815260040161052890614559565b60405180910390fd5b6001601f60008373ffffffffffffffffffffffffffffffffffffffff1673ffffffffffffffffffffffffffffffffffffffff1681526020019081526020016000208190555060016016600082825461058991906145a8565b9250508190555050565b6000601f60008373ffffffffffffffffffffffffffffffffffffffff1673ffffffffffffffffffffffffffffffffffffffff16815260200190815260200160002054148015610681575060011515600460009054906101000a900473ffffffffffffffffffffffffffffffffffffffff1673ffffffffffffffffffffffffffffffffffffffff16632fee9e7e336040518263ffffffff1660e01b815260040161063c91906144b3565b602060405180830381865afa158015610659573d6000803e3d6000fd5b505050506040513d601f19601f8201168201806040525081019061067d9190614506565b1515145b6106c0576040517f08c379a00000000000000000000000000000000000000000000000000000000081526004016106b790614559565b60405180910390fd5b6001601f60008373ffffffffffffffffffffffffffffffffffffffff1673ffffffffffffffffffffffffffffffffffffffff1681526020019081526020016000208190555060016017600082825461071891906145a8565b9250508190555050565b60006020600081548110610739576107386145fe565b5b90600052602060002090600d020190503373ffffffffffffffffffffffffffffffffffffffff1681600b0160009054906101000a900473ffffffffffffffffffffffffffffffffffffffff1673ffffffffffffffffffffffffffffffffffffffff16146107db576040517f08c379a00000000000000000000000000000000000000000000000000000000081526004016107d290614559565b60405180910390fd5b8181600a0190805190602001906107f39291906135a2565b508281600901908051906020019061080c9291906135a2565b50505050565b60008060218781548110610829576108286145fe565b5b90600052602060002090600a02019050600060206000815481106108505761084f6145fe565b5b90600052602060002090600d02019050428260020154106108a6576040517f08c379a000000000000000000000000000000000000000000000000000000000815260040161089d90614559565b60405180910390fd5b3373ffffffffffffffffffffffffffffffffffffffff168260050160009054906101000a900473ffffffffffffffffffffffffffffffffffffffff1673ffffffffffffffffffffffffffffffffffffffff1614806109075750428260030154105b610946576040517f08c379a000000000000000000000000000000000000000000000000000000000815260040161093d90614559565b60405180910390fd5b42601a54601b5461095791906145a8565b11610997576040517f08c379a000000000000000000000000000000000000000000000000000000000815260040161098e90614559565b60405180910390fd5b816001015434146109d4576040517f8a0d377900000000000000000000000000000000000000000000000000000000815260040160405180910390fd5b60008260010154905060006064836001015460646109f291906145a8565b836109fd919061465c565b610a07919061468d565b90506064600e5482610a19919061468d565b610a23919061465c565b945060006064600c548385610a3891906146e7565b610a42919061468d565b610a4c919061465c565b90506000606485600101546064610a6391906145a8565b8760010154610a72919061468d565b610a7c919061465c565b90508187610a8a91906145a8565b601e60008860040160009054906101000a900473ffffffffffffffffffffffffffffffffffffffff1673ffffffffffffffffffffffffffffffffffffffff1673ffffffffffffffffffffffffffffffffffffffff1681526020019081526020016000206000828254610afc91906145a8565b9250508190555060008288610b1191906145a8565b8760010154610b2091906146e7565b905060026064600d5483610b34919061468d565b610b3e919061465c565b610b48919061465c565b601e600088600b0160009054906101000a900473ffffffffffffffffffffffffffffffffffffffff1673ffffffffffffffffffffffffffffffffffffffff1673ffffffffffffffffffffffffffffffffffffffff1681526020019081526020016000206000828254610bba91906145a8565b9250508190555060026064600d5483610bd3919061468d565b610bdd919061465c565b610be7919061465c565b601e6000600560009054906101000a900473ffffffffffffffffffffffffffffffffffffffff1673ffffffffffffffffffffffffffffffffffffffff1673ffffffffffffffffffffffffffffffffffffffff1681526020019081526020016000206000828254610c5791906145a8565b92505081905550606460105482610c6e919061468d565b610c78919061465c565b601e6000600660009054906101000a900473ffffffffffffffffffffffffffffffffffffffff1673ffffffffffffffffffffffffffffffffffffffff1673ffffffffffffffffffffffffffffffffffffffff1681526020019081526020016000206000828254610ce891906145a8565b925050819055506000602380549050146110095760005b6023805490508110156110035760006022600060238481548110610d2657610d256145fe565b5b9060005260206000200160009054906101000a900473ffffffffffffffffffffffffffffffffffffffff1673ffffffffffffffffffffffffffffffffffffffff1673ffffffffffffffffffffffffffffffffffffffff168152602001908152602001600020905060011515600460009054906101000a900473ffffffffffffffffffffffffffffffffffffffff1673ffffffffffffffffffffffffffffffffffffffff16632fee9e7e60238581548110610de357610de26145fe565b5b9060005260206000200160009054906101000a900473ffffffffffffffffffffffffffffffffffffffff166040518263ffffffff1660e01b8152600401610e2a91906144b3565b602060405180830381865afa158015610e47573d6000803e3d6000fd5b505050506040513d601f19601f82011682018060405250810190610e6b9190614506565b15151415610f415760075481600101546064600f5486610e8b919061468d565b610e95919061465c565b610e9f919061468d565b610ea9919061465c565b601e600060238581548110610ec157610ec06145fe565b5b9060005260206000200160009054906101000a900473ffffffffffffffffffffffffffffffffffffffff1673ffffffffffffffffffffffffffffffffffffffff1673ffffffffffffffffffffffffffffffffffffffff1681526020019081526020016000206000828254610f3591906145a8565b92505081905550610fef565b60075481600101546064600f5486610f59919061468d565b610f63919061465c565b610f6d919061468d565b610f77919061465c565b601e6000600660009054906101000a900473ffffffffffffffffffffffffffffffffffffffff1673ffffffffffffffffffffffffffffffffffffffff1673ffffffffffffffffffffffffffffffffffffffff1681526020019081526020016000206000828254610fe791906145a8565b925050819055505b508080610ffb9061471b565b915050610cff565b5061109b565b6064600f5482611019919061468d565b611023919061465c565b601e6000600660009054906101000a900473ffffffffffffffffffffffffffffffffffffffff1673ffffffffffffffffffffffffffffffffffffffff1673ffffffffffffffffffffffffffffffffffffffff168152602001908152602001600020600082825461109391906145a8565b925050819055505b338760040160006101000a81548173ffffffffffffffffffffffffffffffffffffffff021916908373ffffffffffffffffffffffffffffffffffffffff160217905550818760010181905550601454426110f591906145a8565b87600201819055504287600301819055508b87600601908051906020019061111e9291906135a2565b508a8760070190805190602001906111379291906135a2565b50898760080190805190602001906111509291906135a2565b50888760090190805190602001906111699291906135a2565b5033601960006101000a81548173ffffffffffffffffffffffffffffffffffffffff021916908373ffffffffffffffffffffffffffffffffffffffff1602179055506000601b54426111bb91906146e7565b601a546111c891906146e7565b905062093a80601d54426111dc91906146e7565b11156111ef576000601a81905550611231565b866003015487600201548261120491906145a8565b10611219578660030154601a81905550611230565b86600201548161122991906145a8565b601a819055505b5b42601b819055505050505050505050505050505050565b6000601e60003373ffffffffffffffffffffffffffffffffffffffff1673ffffffffffffffffffffffffffffffffffffffff1681526020019081526020016000205490506000601e60003373ffffffffffffffffffffffffffffffffffffffff1673ffffffffffffffffffffffffffffffffffffffff168152602001908152602001600020819055503373ffffffffffffffffffffffffffffffffffffffff166108fc829081150290604051600060405180830381858888f19350505050158015611317573d6000803e3d6000fd5b5050565b611323613510565b606486888b61133291906145a8565b61133c91906145a8565b14801561136e57506046600954600854868861135891906145a8565b61136291906145a8565b61136c91906145a8565b145b801561137e575061012c60155410155b801561138d57506064600c5411155b801561139c57506064600e5411155b6113db576040517f08c379a00000000000000000000000000000000000000000000000000000000081526004016113d290614559565b60405180910390fd5b89600c8190555088600d8190555087600e8190555086600f8190555085601081905550846011819055508360128190555082601381905550816014819055508060158190555050505050505050505050565b611435613510565b6000602060008154811061144c5761144b6145fe565b5b90600052602060002090600d02019050600060218381548110611472576114716145fe565b5b90600052602060002090600a02019050816000015481600101819055506000816002018190555060008160030181905550604051806020016040528060008152508160060190805190602001906114ca9291906135a2565b50604051806020016040528060008152508160080190805190602001906114f29291906135a2565b506040518060200160405280600081525081600701908051906020019061151a9291906135a2565b50505050565b6000806000806000611530613628565b60608060606000602060008154811061154c5761154b6145fe565b5b90600052602060002090600d0201905080600b0160009054906101000a900473ffffffffffffffffffffffffffffffffffffffff168160000154826001015483600201548460030154856004018660090187600a0188600c0183600580602002604051908101604052809291906000905b828210156116605783820180546115d390614793565b80601f01602080910402602001604051908101604052809291908181526020018280546115ff90614793565b801561164c5780601f106116215761010080835404028352916020019161164c565b820191906000526020600020905b81548152906001019060200180831161162f57829003601f168201915b5050505050815260200190600101906115bd565b50505050935082805461167290614793565b80601f016020809104026020016040519081016040528092919081815260200182805461169e90614793565b80156116eb5780601f106116c0576101008083540402835291602001916116eb565b820191906000526020600020905b8154815290600101906020018083116116ce57829003601f168201915b505050505092508180546116fe90614793565b80601f016020809104026020016040519081016040528092919081815260200182805461172a90614793565b80156117775780601f1061174c57610100808354040283529160200191611777565b820191906000526020600020905b81548152906001019060200180831161175a57829003601f168201915b5050505050915080805461178a90614793565b80601f01602080910402602001604051908101604052809291908181526020018280546117b690614793565b80156118035780601f106117d857610100808354040283529160200191611803565b820191906000526020600020905b8154815290600101906020018083116117e657829003601f168201915b5050505050905099509950995099509950995099509950995050909192939495969798565b600080600080600080600080600080602260003373ffffffffffffffffffffffffffffffffffffffff1673ffffffffffffffffffffffffffffffffffffffff16815260200190815260200160002090508060010154602380549050601d54600660009054906101000a900473ffffffffffffffffffffffffffffffffffffffff16600a54601254601054600f54601a5499509950995099509950995099509950995050909192939495969798565b6023805490506013541161191f576040517f08c379a000000000000000000000000000000000000000000000000000000000815260040161191690614559565b60405180910390fd5b6000602260003373ffffffffffffffffffffffffffffffffffffffff1673ffffffffffffffffffffffffffffffffffffffff16815260200190815260200160002090508181600101600082825461197691906145a8565b92505081905550816007600082825461198f91906145a8565b92505081905550600460009054906101000a900473ffffffffffffffffffffffffffffffffffffffff1673ffffffffffffffffffffffffffffffffffffffff1663d4f4648f83336040518363ffffffff1660e01b81526004016119f39291906147c5565b600060405180830381600087803b158015611a0d57600080fd5b505af1158015611a21573d6000803e3d6000fd5b50505050600081600001541115611a385750611ac9565b6023339080600181540180825580915050600190039060005260206000200160009091909190916101000a81548173ffffffffffffffffffffffffffffffffffffffff021916908373ffffffffffffffffffffffffffffffffffffffff16021790555060006001602380549050611aaf91906146e7565b9050600181611abe91906145a8565b826000018190555050505b50565b6000806000806000806000806000601e60003373ffffffffffffffffffffffffffffffffffffffff1673ffffffffffffffffffffffffffffffffffffffff16815260200190815260200160002054601e6000600660009054906101000a900473ffffffffffffffffffffffffffffffffffffffff1673ffffffffffffffffffffffffffffffffffffffff1673ffffffffffffffffffffffffffffffffffffffff16815260200190815260200160002054601e6000601860009054906101000a900473ffffffffffffffffffffffffffffffffffffffff1673ffffffffffffffffffffffffffffffffffffffff1673ffffffffffffffffffffffffffffffffffffffff16815260200190815260200160002054601960009054906101000a900473ffffffffffffffffffffffffffffffffffffffff16601d54601a54601654601754600754985098509850985098509850985098509850909192939495969798565b3373ffffffffffffffffffffffffffffffffffffffff16601960009054906101000a900473ffffffffffffffffffffffffffffffffffffffff1673ffffffffffffffffffffffffffffffffffffffff16148015611c99575042601a54601b54611c9691906145a8565b11155b611cd8576040517f08c379a0000000000000000000000000000000000000000000000000000000008152600401611ccf90614559565b60405180910390fd5b6000601e6000601860009054906101000a900473ffffffffffffffffffffffffffffffffffffffff1673ffffffffffffffffffffffffffffffffffffffff1673ffffffffffffffffffffffffffffffffffffffff1681526020019081526020016000205490506000601e6000601860009054906101000a900473ffffffffffffffffffffffffffffffffffffffff1673ffffffffffffffffffffffffffffffffffffffff1673ffffffffffffffffffffffffffffffffffffffff168152602001908152602001600020819055506000601a819055503373ffffffffffffffffffffffffffffffffffffffff166108fc829081150290604051600060405180830381858888f19350505050158015611df3573d6000803e3d6000fd5b50600460009054906101000a900473ffffffffffffffffffffffffffffffffffffffff1673ffffffffffffffffffffffffffffffffffffffff16636cbcb4cd600360009054906101000a900473ffffffffffffffffffffffffffffffffffffffff16602380549050601960009054906101000a900473ffffffffffffffffffffffffffffffffffffffff16600b546040518563ffffffff1660e01b8152600401611ea094939291906147ee565b600060405180830381600087803b158015611eba57600080fd5b505af1158015611ece573d6000803e3d6000fd5b5050505050565b60006020600081548110611eec57611eeb6145fe565b5b90600052602060002090600d0201905042601a54601b54611f0d91906145a8565b11611f4d576040517f08c379a0000000000000000000000000000000000000000000000000000000008152600401611f4490614559565b60405180910390fd5b80600001543414611f8a576040517f8a0d377900000000000000000000000000000000000000000000000000000000815260040160405180910390fd5b60646008548260000154611f9e919061468d565b611fa8919061465c565b601e6000600160009054906101000a900473ffffffffffffffffffffffffffffffffffffffff1673ffffffffffffffffffffffffffffffffffffffff1673ffffffffffffffffffffffffffffffffffffffff168152602001908152602001600020600082825461201891906145a8565b9250508190555060646009548260000154612033919061468d565b61203d919061465c565b601e6000600260009054906101000a900473ffffffffffffffffffffffffffffffffffffffff1673ffffffffffffffffffffffffffffffffffffffff1673ffffffffffffffffffffffffffffffffffffffff16815260200190815260200160002060008282546120ad91906145a8565b925050819055506064601e82600001546120c7919061468d565b6120d1919061465c565b601e6000601860009054906101000a900473ffffffffffffffffffffffffffffffffffffffff1673ffffffffffffffffffffffffffffffffffffffff1673ffffffffffffffffffffffffffffffffffffffff168152602001908152602001600020600082825461214191906145a8565b9250508190555060026064601154836000015461215e919061468d565b612168919061465c565b612172919061465c565b601e600083600b0160009054906101000a900473ffffffffffffffffffffffffffffffffffffffff1673ffffffffffffffffffffffffffffffffffffffff1673ffffffffffffffffffffffffffffffffffffffff16815260200190815260200160002060008282546121e491906145a8565b92505081905550600260646011548360000154612201919061468d565b61220b919061465c565b612215919061465c565b601e6000600560009054906101000a900473ffffffffffffffffffffffffffffffffffffffff1673ffffffffffffffffffffffffffffffffffffffff1673ffffffffffffffffffffffffffffffffffffffff168152602001908152602001600020600082825461228591906145a8565b925050819055506000602380549050146125ae5760005b6023805490508110156125a857600060226000602384815481106122c3576122c26145fe565b5b9060005260206000200160009054906101000a900473ffffffffffffffffffffffffffffffffffffffff1673ffffffffffffffffffffffffffffffffffffffff1673ffffffffffffffffffffffffffffffffffffffff168152602001908152602001600020905060011515600460009054906101000a900473ffffffffffffffffffffffffffffffffffffffff1673ffffffffffffffffffffffffffffffffffffffff16632fee9e7e602385815481106123805761237f6145fe565b5b9060005260206000200160009054906101000a900473ffffffffffffffffffffffffffffffffffffffff166040518263ffffffff1660e01b81526004016123c791906144b3565b602060405180830381865afa1580156123e4573d6000803e3d6000fd5b505050506040513d601f19601f820116820180604052508101906124089190614506565b151514156124e25760075481600101546064601254866000015461242c919061468d565b612436919061465c565b612440919061468d565b61244a919061465c565b601e600060238581548110612462576124616145fe565b5b9060005260206000200160009054906101000a900473ffffffffffffffffffffffffffffffffffffffff1673ffffffffffffffffffffffffffffffffffffffff1673ffffffffffffffffffffffffffffffffffffffff16815260200190815260200160002060008282546124d691906145a8565b92505081905550612594565b6007548160010154606460125486600001546124fe919061468d565b612508919061465c565b612512919061468d565b61251c919061465c565b601e6000600660009054906101000a900473ffffffffffffffffffffffffffffffffffffffff1673ffffffffffffffffffffffffffffffffffffffff1673ffffffffffffffffffffffffffffffffffffffff168152602001908152602001600020600082825461258c91906145a8565b925050819055505b5080806125a09061471b565b91505061229c565b50612644565b606460125482600001546125c2919061468d565b6125cc919061465c565b601e6000600660009054906101000a900473ffffffffffffffffffffffffffffffffffffffff1673ffffffffffffffffffffffffffffffffffffffff1673ffffffffffffffffffffffffffffffffffffffff168152602001908152602001600020600082825461263c91906145a8565b925050819055505b600060648260010154836000015461265c919061468d565b612666919061465c565b826000015461267591906145a8565b90506001600b5461268691906145a8565b600b819055506000600b549050600087905060008790506000879050600087905033601960006101000a81548173ffffffffffffffffffffffffffffffffffffffff021916908373ffffffffffffffffffffffffffffffffffffffff1602179055506000601b54426126f891906146e7565b601a5461270591906146e7565b905062093a80601d544261271991906146e7565b111561272c576000601a8190555061276e565b876003015488600201548261274191906145a8565b10612756578760030154601a8190555061276d565b87600201548161276691906145a8565b601a819055505b5b42601b8190555060216040518061014001604052808881526020018981526020016014544261279d91906145a8565b81526020014281526020013373ffffffffffffffffffffffffffffffffffffffff1681526020013373ffffffffffffffffffffffffffffffffffffffff1681526020018781526020018681526020018581526020018481525090806001815401808255809150506001900390600052602060002090600a02016000909190919091506000820151816000015560208201518160010155604082015181600201556060820151816003015560808201518160040160006101000a81548173ffffffffffffffffffffffffffffffffffffffff021916908373ffffffffffffffffffffffffffffffffffffffff16021790555060a08201518160050160006101000a81548173ffffffffffffffffffffffffffffffffffffffff021916908373ffffffffffffffffffffffffffffffffffffffff16021790555060c08201518160060190805190602001906128f19291906135a2565b5060e082015181600701908051906020019061290e9291906135a2565b5061010082015181600801908051906020019061292c9291906135a2565b5061012082015181600901908051906020019061294a9291906135a2565b505050505050505050505050505050565b6000602260003373ffffffffffffffffffffffffffffffffffffffff1673ffffffffffffffffffffffffffffffffffffffff168152602001908152602001600020905081816001015410156129e5576040517f08c379a00000000000000000000000000000000000000000000000000000000081526004016129dc90614559565b60405180910390fd5b818160010160008282546129f991906146e7565b925050819055508160076000828254612a1291906146e7565b92505081905550600460009054906101000a900473ffffffffffffffffffffffffffffffffffffffff1673ffffffffffffffffffffffffffffffffffffffff166361d42f6b83336040518363ffffffff1660e01b8152600401612a769291906147c5565b600060405180830381600087803b158015612a9057600080fd5b505af1158015612aa4573d6000803e3d6000fd5b50505050600081600001541115612abb5750612b4c565b6023339080600181540180825580915050600190039060005260206000200160009091909190916101000a81548173ffffffffffffffffffffffffffffffffffffffff021916908373ffffffffffffffffffffffffffffffffffffffff16021790555060006001602380549050612b3291906146e7565b9050600181612b4191906145a8565b826000018190555050505b50565b600060218281548110612b6557612b646145fe565b5b90600052602060002090600a02019050428160020154108015612b8b5750428160030154105b8015612be757503373ffffffffffffffffffffffffffffffffffffffff168160040160009054906101000a900473ffffffffffffffffffffffffffffffffffffffff1673ffffffffffffffffffffffffffffffffffffffff1614155b612c26576040517f08c379a0000000000000000000000000000000000000000000000000000000008152600401612c1d90614559565b60405180910390fd5b600a543414612c61576040517f8a0d377900000000000000000000000000000000000000000000000000000000815260040160405180910390fd5b600a54601e6000600160009054906101000a900473ffffffffffffffffffffffffffffffffffffffff1673ffffffffffffffffffffffffffffffffffffffff1673ffffffffffffffffffffffffffffffffffffffff1681526020019081526020016000206000828254612cd491906145a8565b9250508190555060155442612ce991906145a8565b8160030181905550338160050160006101000a81548173ffffffffffffffffffffffffffffffffffffffff021916908373ffffffffffffffffffffffffffffffffffffffff1602179055505050565b600080600080600080600080600080600080600c54600d54600e54600f54601054601154601254601354601454601554601a54601b549b509b509b509b509b509b509b509b509b509b509b509b50909192939495969798999a9b565b612d9c613510565b610e108611158015612db1575062093a808511155b8015612dbf57506201518085115b612dfe576040517f08c379a0000000000000000000000000000000000000000000000000000000008152600401612df590614559565b60405180910390fd5b60206040518061012001604052808a8152602001898152602001888152602001878152602001868152602001858152602001848152602001600360009054906101000a900473ffffffffffffffffffffffffffffffffffffffff169b508b73ffffffffffffffffffffffffffffffffffffffff1681526020018381525090806001815401808255809150506001900390600052602060002090600d020160009091909190915060008201518160000155602082015181600101556040820151816002015560608201518160030155608082015181600401906005612ee392919061364f565b5060a0820151816009019080519060200190612f009291906135a2565b5060c082015181600a019080519060200190612f1d9291906135a2565b5060e082015181600b0160006101000a81548173ffffffffffffffffffffffffffffffffffffffff021916908373ffffffffffffffffffffffffffffffffffffffff16021790555061010082015181600c019080519060200190612f829291906135a2565b50505084601a8190555042601b8190555088601960006101000a81548173ffffffffffffffffffffffffffffffffffffffff021916908373ffffffffffffffffffffffffffffffffffffffff160217905550601c60009054906101000a900473ffffffffffffffffffffffffffffffffffffffff1673ffffffffffffffffffffffffffffffffffffffff16635e4505c733306040518363ffffffff1660e01b8152600401613031929190614833565b600060405180830381600087803b15801561304b57600080fd5b505af115801561305f573d6000803e3d6000fd5b5050505042601d81905550505050505050505050565b6000600460009054906101000a900473ffffffffffffffffffffffffffffffffffffffff1673ffffffffffffffffffffffffffffffffffffffff166335703a3a336040518263ffffffff1660e01b81526004016130d291906144b3565b602060405180830381865afa1580156130ef573d6000803e3d6000fd5b505050506040513d601f19601f820116820180604052508101906131139190614871565b905090565b6060600060218054905067ffffffffffffffff81111561313b5761313a61385c565b5b60405190808252806020026020018201604052801561317457816020015b6131616136a2565b8152602001906001900390816131595790505b50905060005b6021805490508110156135085760006021828154811061319d5761319c6145fe565b5b90600052602060002090600a020190508060405180610140016040529081600082015481526020016001820154815260200160028201548152602001600382015481526020016004820160009054906101000a900473ffffffffffffffffffffffffffffffffffffffff1673ffffffffffffffffffffffffffffffffffffffff1673ffffffffffffffffffffffffffffffffffffffff1681526020016005820160009054906101000a900473ffffffffffffffffffffffffffffffffffffffff1673ffffffffffffffffffffffffffffffffffffffff1673ffffffffffffffffffffffffffffffffffffffff16815260200160068201805461329e90614793565b80601f01602080910402602001604051908101604052809291908181526020018280546132ca90614793565b80156133175780601f106132ec57610100808354040283529160200191613317565b820191906000526020600020905b8154815290600101906020018083116132fa57829003601f168201915b5050505050815260200160078201805461333090614793565b80601f016020809104026020016040519081016040528092919081815260200182805461335c90614793565b80156133a95780601f1061337e576101008083540402835291602001916133a9565b820191906000526020600020905b81548152906001019060200180831161338c57829003601f168201915b505050505081526020016008820180546133c290614793565b80601f01602080910402602001604051908101604052809291908181526020018280546133ee90614793565b801561343b5780601f106134105761010080835404028352916020019161343b565b820191906000526020600020905b81548152906001019060200180831161341e57829003601f168201915b5050505050815260200160098201805461345490614793565b80601f016020809104026020016040519081016040528092919081815260200182805461348090614793565b80156134cd5780601f106134a2576101008083540402835291602001916134cd565b820191906000526020600020905b8154815290600101906020018083116134b057829003601f168201915b5050505050815250508383815181106134e9576134e86145fe565b5b60200260200101819052505080806135009061471b565b91505061317a565b508091505090565b600360009054906101000a900473ffffffffffffffffffffffffffffffffffffffff1673ffffffffffffffffffffffffffffffffffffffff163373ffffffffffffffffffffffffffffffffffffffff16146135a0576040517f08c379a000000000000000000000000000000000000000000000000000000000815260040161359790614559565b60405180910390fd5b565b8280546135ae90614793565b90600052602060002090601f0160209004810192826135d05760008555613617565b82601f106135e957805160ff1916838001178555613617565b82800160010185558215613617579182015b828111156136165782518255916020019190600101906135fb565b5b5090506136249190613721565b5090565b6040518060a001604052806005905b60608152602001906001900390816136375790505090565b8260058101928215613691579160200282015b828111156136905782518290805190602001906136809291906135a2565b5091602001919060010190613662565b5b50905061369e919061373e565b5090565b60405180610140016040528060008152602001600081526020016000815260200160008152602001600073ffffffffffffffffffffffffffffffffffffffff168152602001600073ffffffffffffffffffffffffffffffffffffffff168152602001606081526020016060815260200160608152602001606081525090565b5b8082111561373a576000816000905550600101613722565b5090565b5b8082111561375e57600081816137559190613762565b5060010161373f565b5090565b50805461376e90614793565b6000825580601f10613780575061379f565b601f01602090049060005260206000209081019061379e9190613721565b5b50565b6000604051905090565b600080fd5b600080fd5b600073ffffffffffffffffffffffffffffffffffffffff82169050919050565b60006137e1826137b6565b9050919050565b6137f1816137d6565b81146137fc57600080fd5b50565b60008135905061380e816137e8565b92915050565b60006020828403121561382a576138296137ac565b5b6000613838848285016137ff565b91505092915050565b600080fd5b600080fd5b6000601f19601f8301169050919050565b7f4e487b7100000000000000000000000000000000000000000000000000000000600052604160045260246000fd5b6138948261384b565b810181811067ffffffffffffffff821117156138b3576138b261385c565b5b80604052505050565b60006138c66137a2565b90506138d2828261388b565b919050565b600067ffffffffffffffff8211156138f2576138f161385c565b5b6138fb8261384b565b9050602081019050919050565b82818337600083830152505050565b600061392a613925846138d7565b6138bc565b90508281526020810184848401111561394657613945613846565b5b613951848285613908565b509392505050565b600082601f83011261396e5761396d613841565b5b813561397e848260208601613917565b91505092915050565b6000806040838503121561399e5761399d6137ac565b5b600083013567ffffffffffffffff8111156139bc576139bb6137b1565b5b6139c885828601613959565b925050602083013567ffffffffffffffff8111156139e9576139e86137b1565b5b6139f585828601613959565b9150509250929050565b6000819050919050565b613a12816139ff565b8114613a1d57600080fd5b50565b600081359050613a2f81613a09565b92915050565b600080600080600060a08688031215613a5157613a506137ac565b5b6000613a5f88828901613a20565b955050602086013567ffffffffffffffff811115613a8057613a7f6137b1565b5b613a8c88828901613959565b945050604086013567ffffffffffffffff811115613aad57613aac6137b1565b5b613ab988828901613959565b935050606086013567ffffffffffffffff811115613ada57613ad96137b1565b5b613ae688828901613959565b925050608086013567ffffffffffffffff811115613b0757613b066137b1565b5b613b1388828901613959565b9150509295509295909350565b6000806000806000806000806000806101408b8d031215613b4457613b436137ac565b5b6000613b528d828e01613a20565b9a50506020613b638d828e01613a20565b9950506040613b748d828e01613a20565b9850506060613b858d828e01613a20565b9750506080613b968d828e01613a20565b96505060a0613ba78d828e01613a20565b95505060c0613bb88d828e01613a20565b94505060e0613bc98d828e01613a20565b935050610100613bdb8d828e01613a20565b925050610120613bed8d828e01613a20565b9150509295989b9194979a5092959850565b600060208284031215613c1557613c146137ac565b5b6000613c2384828501613a20565b91505092915050565b613c35816137d6565b82525050565b613c44816139ff565b82525050565b600060059050919050565b600081905092915050565b6000819050919050565b600081519050919050565b600082825260208201905092915050565b60005b83811015613ca4578082015181840152602081019050613c89565b83811115613cb3576000848401525b50505050565b6000613cc482613c6a565b613cce8185613c75565b9350613cde818560208601613c86565b613ce78161384b565b840191505092915050565b6000613cfe8383613cb9565b905092915050565b6000602082019050919050565b6000613d1e82613c4a565b613d288185613c55565b935083602082028501613d3a85613c60565b8060005b85811015613d765784840389528151613d578582613cf2565b9450613d6283613d06565b925060208a01995050600181019050613d3e565b50829750879550505050505092915050565b600082825260208201905092915050565b6000613da482613c6a565b613dae8185613d88565b9350613dbe818560208601613c86565b613dc78161384b565b840191505092915050565b600061012082019050613de8600083018c613c2c565b613df5602083018b613c3b565b613e02604083018a613c3b565b613e0f6060830189613c3b565b613e1c6080830188613c3b565b81810360a0830152613e2e8187613d13565b905081810360c0830152613e428186613d99565b905081810360e0830152613e568185613d99565b9050818103610100830152613e6b8184613d99565b90509a9950505050505050505050565b600061012082019050613e91600083018c613c3b565b613e9e602083018b613c3b565b613eab604083018a613c3b565b613eb86060830189613c2c565b613ec56080830188613c3b565b613ed260a0830187613c3b565b613edf60c0830186613c3b565b613eec60e0830185613c3b565b613efa610100830184613c3b565b9a9950505050505050505050565b60008060008060808587031215613f2257613f216137ac565b5b600085013567ffffffffffffffff811115613f4057613f3f6137b1565b5b613f4c87828801613959565b945050602085013567ffffffffffffffff811115613f6d57613f6c6137b1565b5b613f7987828801613959565b935050604085013567ffffffffffffffff811115613f9a57613f996137b1565b5b613fa687828801613959565b925050606085013567ffffffffffffffff811115613fc757613fc66137b1565b5b613fd387828801613959565b91505092959194509250565b600061018082019050613ff5600083018f613c3b565b614002602083018e613c3b565b61400f604083018d613c3b565b61401c606083018c613c3b565b614029608083018b613c3b565b61403660a083018a613c3b565b61404360c0830189613c3b565b61405060e0830188613c3b565b61405e610100830187613c3b565b61406c610120830186613c3b565b61407a610140830185613c3b565b614088610160830184613c3b565b9d9c50505050505050505050505050565b600067ffffffffffffffff8211156140b4576140b361385c565b5b602082029050919050565b600080fd5b60006140d76140d284614099565b6138bc565b905080602084028301858111156140f1576140f06140bf565b5b835b8181101561413857803567ffffffffffffffff81111561411657614115613841565b5b8086016141238982613959565b855260208501945050506020810190506140f3565b5050509392505050565b600082601f83011261415757614156613841565b5b60056141648482856140c4565b91505092915050565b60008060008060008060008060006101208a8c0312156141905761418f6137ac565b5b600061419e8c828d016137ff565b99505060206141af8c828d01613a20565b98505060406141c08c828d01613a20565b97505060606141d18c828d01613a20565b96505060806141e28c828d01613a20565b95505060a08a013567ffffffffffffffff811115614203576142026137b1565b5b61420f8c828d01614142565b94505060c08a013567ffffffffffffffff8111156142305761422f6137b1565b5b61423c8c828d01613959565b93505060e08a013567ffffffffffffffff81111561425d5761425c6137b1565b5b6142698c828d01613959565b9250506101008a013567ffffffffffffffff81111561428b5761428a6137b1565b5b6142978c828d01613959565b9150509295985092959850929598565b60006020820190506142bc6000830184613c3b565b92915050565b600081519050919050565b600082825260208201905092915050565b6000819050602082019050919050565b6142f7816139ff565b82525050565b614306816137d6565b82525050565b60006101408301600083015161432560008601826142ee565b50602083015161433860208601826142ee565b50604083015161434b60408601826142ee565b50606083015161435e60608601826142ee565b50608083015161437160808601826142fd565b5060a083015161438460a08601826142fd565b5060c083015184820360c086015261439c8282613cb9565b91505060e083015184820360e08601526143b68282613cb9565b9150506101008301518482036101008601526143d28282613cb9565b9150506101208301518482036101208601526143ee8282613cb9565b9150508091505092915050565b6000614407838361430c565b905092915050565b6000602082019050919050565b6000614427826142c2565b61443181856142cd565b935083602082028501614443856142de565b8060005b8581101561447f578484038952815161446085826143fb565b945061446b8361440f565b925060208a01995050600181019050614447565b50829750879550505050505092915050565b600060208201905081810360008301526144ab818461441c565b905092915050565b60006020820190506144c86000830184613c2c565b92915050565b60008115159050919050565b6144e3816144ce565b81146144ee57600080fd5b50565b600081519050614500816144da565b92915050565b60006020828403121561451c5761451b6137ac565b5b600061452a848285016144f1565b91505092915050565b50565b6000614543600083613d88565b915061454e82614533565b600082019050919050565b6000602082019050818103600083015261457281614536565b9050919050565b7f4e487b7100000000000000000000000000000000000000000000000000000000600052601160045260246000fd5b60006145b3826139ff565b91506145be836139ff565b9250827fffffffffffffffffffffffffffffffffffffffffffffffffffffffffffffffff038211156145f3576145f2614579565b5b828201905092915050565b7f4e487b7100000000000000000000000000000000000000000000000000000000600052603260045260246000fd5b7f4e487b7100000000000000000000000000000000000000000000000000000000600052601260045260246000fd5b6000614667826139ff565b9150614672836139ff565b9250826146825761468161462d565b5b828204905092915050565b6000614698826139ff565b91506146a3836139ff565b9250817fffffffffffffffffffffffffffffffffffffffffffffffffffffffffffffffff04831182151516156146dc576146db614579565b5b828202905092915050565b60006146f2826139ff565b91506146fd836139ff565b9250828210156147105761470f614579565b5b828203905092915050565b6000614726826139ff565b91507fffffffffffffffffffffffffffffffffffffffffffffffffffffffffffffffff82141561475957614758614579565b5b600182019050919050565b7f4e487b7100000000000000000000000000000000000000000000000000000000600052602260045260246000fd5b600060028204905060018216806147ab57607f821691505b602082108114156147bf576147be614764565b5b50919050565b60006040820190506147da6000830185613c3b565b6147e76020830184613c2c565b9392505050565b60006080820190506148036000830187613c2c565b6148106020830186613c3b565b61481d6040830185613c2c565b61482a6060830184613c3b565b95945050505050565b60006040820190506148486000830185613c2c565b6148556020830184613c2c565b9392505050565b60008151905061486b81613a09565b92915050565b600060208284031215614887576148866137ac565b5b60006148958482850161485c565b9150509291505056fea2646970667358221220bb2ec68b919ae8b66cc4da91e2cc7aa80728e1ab942e75ec97e4d17ebcf84f8464736f6c634300080a0033",
  "immutableReferences": {},
  "source": "// SPDX-License-Identifier: MIT\npragma solidity 0.8.10;\n\ninterface IS {\n    function stakeVSlice_h56(uint _amount, address _addr) external;\n    function unstakeVSlice_Hha(uint _amount, address _addr) external;\n    function addFightToWl (address _fc) external;\n    function fightMint(address _fa, uint _users, address _ls, uint spotCount) external;\n    function vSliceViewBalance (address _addr) view external returns (uint);\n    function wl(address _addr) view external  returns (bool);\n    function active (address _fa, address _fcontract) external;\n                     }\ncontract Fight {\n    address  flipper;\n    address  dev;\n    address  dev2;\n    address  fightAdmin;\n    address  tc;\n    address  influ2;\n    address  charity;\n    uint  totalStaked;\n    uint dscs;\n    uint dscs2;\n    uint spotResPrice;\n    uint spotCounter;\n    uint flipperShare;\n    uint influ2Share;\n    uint spotCashBack;\n    uint usersSlice;\n    uint charitySlice;\n    uint iscs;\n    uint uscs;\n    uint maxUsers;\n    uint spotBusyTime;\n    uint spotReservTime;\n    uint v1;\n    uint v2;\n    address lsp;\n    address ls;\n    uint actTimer;\n    uint startTime;\n    address ff;\n    uint created;\n   \n    function _a() private view {\n        require (msg.sender == fightAdmin, \"\");\n    }\n    modifier a() {\n    _a();\n    _;\n    }\n    \n    mapping (address => uint)  pw;\n    mapping (address => uint)  votes;\n   \n    error NotEnoughEther();\n    error YouHaveToReserveFirst();\n    error FinishFightFirst();\n   \n    struct fightData {\n        uint initPrice;\n        uint np;\n        uint extention;\n        uint duration;\n        string[5] fightTopics;\n        string promo1;\n        string promo2;\n        address influ1;\n        string shortUrl;\n        }  \n        fightData[]  fight;\n     \n    constructor(address _ff, address _dev, address _dev2, uint _dscs,uint _dscs2, uint _spotResPrice, address _fightAdmin, address _tc, address _influ2, address _charity, address _lsp) {\n        dev = _dev;\n        dev2 = _dev2;\n        dscs = _dscs;\n        dscs2 = _dscs2;\n        iscs=10;\n        uscs=54;\n        flipperShare=70;\n        influ2Share=10;\n        usersSlice=85;\n        charitySlice=5;\n        spotCashBack=100;\n        maxUsers=20000;\n        spotBusyTime=300;\n        spotReservTime=300;\n        spotResPrice = _spotResPrice;\n        fightAdmin=_fightAdmin;\n        tc =_tc;\n        influ2 = _influ2;\n        charity = _charity;\n        ff=_ff;\n        lsp=_lsp;\n        \n}\n        \n        function addFightData(  \n        address influ1,\n        uint initPrice,\n        uint np,\n        uint extention,\n        uint duration,\n        string[5] memory fightTopics,\n        string memory promo1,\n        string memory promo2,\n        string memory shortUrl\n        ) public a{\n        require(extention <=3600 && duration<= 604800 && duration > 86400, '');\n        \n       \n        fight.push(fightData(\n        initPrice,\n        np,\n        extention,\n        duration,\n        fightTopics,\n        promo1,\n        promo2,\n        influ1=fightAdmin,\n        shortUrl));\n        actTimer=duration;\n        startTime=block.timestamp;\n        ls=influ1;\n        IS(ff).active (msg.sender, address(this));\n        created=block.timestamp;\n        }\n        \n    struct Spots {\n        uint SpotNo;\n        uint priceOfSpot;\n        uint bu;\n        uint ru;\n        address flipper;\n        address booker;\n        string text;\n        string link;\n        string pic;\n        string mediaType;\n    }\n    Spots []  spots;\n   \n    struct Entry{\n        uint index;\n        uint value;\n                }\n    mapping(address => Entry)  map;\n    address[]  keyList;\n   \n   // Stake Virtual Slice\n    function stakeingVSlice_C64(uint _value) public {\n        require(maxUsers>keyList.length, \"\");\n        Entry storage entry = map[msg.sender];\n        entry.value += _value;\n        totalStaked += _value;\n        IS(tc).stakeVSlice_h56(_value, msg.sender);\n        if(entry.index > 0){\n            return;\n        }else {\n            keyList.push(msg.sender);\n            uint keyListIndex = keyList.length - 1;\n            entry.index = keyListIndex + 1;\n        }\n    }\n\n   //Unstake Virtual Slice\n    function unstakeingVSlice_EK(uint _value) public {\n        Entry storage entry = map[msg.sender];\n        require(entry.value>=_value, \"\");\n        entry.value -= _value;\n        totalStaked -= _value;\n        IS(tc).unstakeVSlice_Hha(_value, msg.sender);\n        if(entry.index > 0){\n            return;\n        }else {\n            keyList.push(msg.sender);\n            uint keyListIndex = keyList.length - 1;\n            entry.index = keyListIndex + 1;\n        }\n    }  \n\n    //view Virtual Slice balance\n    function viewVSliceBalance () view external returns (uint){\n        return IS(tc).vSliceViewBalance(msg.sender);\n    }\n    //Create spot\n     \n    function createSpot_g4A(string memory _text, string memory _link, string memory _pic, string memory _mediaType) external payable {\n        fightData storage m = fight[0];\n        require((startTime+actTimer) > block.timestamp, '');\n        if (msg.value != m.initPrice) revert NotEnoughEther();\n        pw[dev] += (m.initPrice * dscs/100);\n        pw[dev2] += (m.initPrice * dscs2/100);\n        pw[lsp] += (m.initPrice * 30/100);\n        pw[m.influ1] += (m.initPrice * iscs/100)/2;\n        pw[influ2] += (m.initPrice * iscs/100)/2;\n        if (keyList.length!=0) {\n        for (uint i = 0; i < keyList.length; i++)\n        {\n        Entry storage entry = map[keyList[i]];\n        if (IS(tc).wl(keyList[i])==true) {\n        pw[keyList[i]] += ((m.initPrice * uscs/100) * entry.value/totalStaked);}\n        else { pw[charity] += ((m.initPrice * uscs/100) * entry.value/totalStaked); }\n        }\n        } else {pw[charity]+=(m.initPrice * uscs/100);}\n        uint nextPrice = m.initPrice + ((m.initPrice * m.np)/100);\n        spotCounter=spotCounter+1;\n        uint spotN = spotCounter;\n        string memory text = _text;\n        string memory link = _link;\n        string memory pic= _pic;\n        string memory mediaType=_mediaType;\n        ls=msg.sender;\n        //timer start\n        uint timeLeft = actTimer - (block.timestamp-startTime);\n        if (block.timestamp - created > 604800)\n            {actTimer= 0;}\n         else if (timeLeft+m.extention >=m.duration)\n               {actTimer=m.duration;}\n         else {actTimer= timeLeft+ m.extention;}\n                startTime = block.timestamp;\n        //timer end\n        spots.push(Spots(spotN, nextPrice,block.timestamp+spotBusyTime, block.timestamp, msg.sender,msg.sender, text, link, pic, mediaType));\n    \n        \n    }\n\n  //flip\n    \n    function flip_Maf(uint _index, string memory _text, string memory _link, string memory _pic, string memory _mediaType) external payable {\n        uint cb;\n        Spots storage spot = spots[_index];\n        fightData storage m = fight[0];\n        require(spot.bu < block.timestamp, '');\n        require(spot.booker==msg.sender || spot.ru<block.timestamp, '');\n        require((startTime+actTimer) > block.timestamp, '');\n        if (msg.value != spot.priceOfSpot) revert NotEnoughEther();\n        uint currentPrice = spot.priceOfSpot;\n        uint previousPrice = ((currentPrice / ((100 + m.np)))*100);\n        cb= ((previousPrice * spotCashBack)/100);\n        uint exFlipperProfit = ((currentPrice - previousPrice) * flipperShare)/100;\n        uint nextPrice = ((spot.priceOfSpot * ((100 + m.np)))/100);\n        pw[spot.flipper] += (cb + exFlipperProfit);\n        uint toDistro = spot.priceOfSpot - (cb + exFlipperProfit);\n        pw[m.influ1] += (toDistro * influ2Share/100)/2;\n        pw[influ2] += (toDistro * influ2Share/100)/2;\n        pw[charity] += (toDistro * charitySlice/100);\n        if (keyList.length!=0) {\n        for (uint i = 0; i < keyList.length; i++)\n        {\n        Entry storage entry = map[keyList[i]];\n        if (IS(tc).wl(keyList[i])==true) {\n        pw[keyList[i]] += (toDistro * usersSlice/100) * entry.value/totalStaked;}\n        else {pw[charity] += (toDistro * usersSlice/100) * entry.value/totalStaked;}\n        }\n        } else {pw[charity]+=(toDistro * usersSlice/100);}\n        spot.flipper = msg.sender;\n        spot.priceOfSpot = nextPrice;\n        spot.bu = block.timestamp+spotBusyTime;\n        spot.ru=block.timestamp;\n        spot.text = _text;\n        spot.link = _link;\n        spot.pic= _pic;\n        spot.mediaType=_mediaType;\n        ls=msg.sender;\n        //timer start\n        uint timeLeft = actTimer - (block.timestamp-startTime);\n        if (block.timestamp - created > 604800)\n            {actTimer= 0;}\n        else if (timeLeft+m.extention >=m.duration)\n               {actTimer=m.duration;}\n         else {actTimer= timeLeft+ m.extention;}\n        startTime = block.timestamp;\n        //timer end\n    }\n       //Get spots\n    function getSpots() public view returns (Spots[] memory){\n      Spots[]    memory id = new Spots[](spots.length);\n      for (uint i = 0; i < spots.length; i++) {\n          Spots storage spot = spots[i];\n          id[i] = spot;\n      }\n      return id;\n  }\n  \n   //Spot Reservation\n   \n    function spotReserve_u5k(uint _indx) external payable {\n        Spots storage spot = spots[_indx];\n        require(spot.bu<block.timestamp && spot.ru<block.timestamp && spot.flipper != msg.sender, \"\");\n        if (msg.value != spotResPrice) revert NotEnoughEther();\n        pw[dev]+=spotResPrice;\n        spot.ru = block.timestamp+spotReservTime;\n        spot.booker=msg.sender;\n        \n    }\n   //Spot reset\n    function resetspot(uint _indx) external a (){\n        fightData storage m = fight[0];\n        Spots storage spot = spots[_indx];\n        spot.priceOfSpot=m.initPrice;\n        spot.bu=0;\n        spot.ru=0;\n        spot.text='';\n        spot.pic='';\n        spot.link='';\n    }\n   //make withdrawal \n    function makeWithdrawal() public {\n        uint amount = pw[msg.sender];\n        pw[msg.sender] = 0;\n        payable(msg.sender).transfer(amount);\n    }\n    //make withdrawal of Last Spot Pot\n        function makeWithdrawalLSP() public {\n        require(ls==msg.sender && (startTime+actTimer) <= block.timestamp, '');\n        uint amount = pw[lsp];\n        pw[lsp] = 0;\n        actTimer=0;\n        payable(msg.sender).transfer(amount);\n        //minting reward to influencer 1\n        IS(tc).fightMint(fightAdmin, keyList.length, ls, spotCounter);\n    }\n    \n\n\n   //Vote 1\n    function voting1_E7O(address _addr) public {\n        require(votes[_addr]==0 && IS(tc).wl(msg.sender)==true,'');\n        votes[_addr]=1;\n        v1 +=1;\n    }\n   //Vote 2\n    function voting2_eoL(address _addr) public {\n        require(votes[_addr]==0 && IS(tc).wl(msg.sender)==true,'');\n        votes[_addr]=1;\n        v2 +=1;\n\n    }\n  \n    //Get fight data\n    function getFightData () public view returns (address, uint, uint, uint, uint, string[5] memory, string memory ,string memory, string memory) {\n       fightData storage spot = fight[0];\n    return (spot.influ1, spot.initPrice, spot.np, spot.extention, spot.duration, spot.fightTopics, spot.promo1, spot.promo2, spot.shortUrl);}\n\n    // Staked tokens - number of Stakers - voted - fight createdDate\n    function getFightParams2 () view external returns (uint, uint, uint, address, uint, uint, uint, uint, uint) {\n        Entry storage entry = map[msg.sender];\n    return (entry.value, keyList.length, created, charity, spotResPrice, uscs, charitySlice, usersSlice, actTimer);\n    }\n    \n    //Get fights parameters\n    function getFightParams() public view returns (uint, uint, uint, uint, uint, uint, uint , uint , uint, uint,uint, uint) {\n    return (flipperShare,influ2Share,spotCashBack,usersSlice, charitySlice,iscs, uscs, maxUsers,spotBusyTime, spotReservTime, actTimer,startTime);}\n        \n    //Show withrawal balances and votes\n    function showBalance() view external returns (uint, uint, uint, address, uint, uint, uint, uint, uint) {\n    return (pw[msg.sender], pw[charity], pw[lsp],ls, created, actTimer, v1, v2, totalStaked);\n    }\n   \n    //Update fight promo\n    function ufp (string memory _promo1, string memory _promo2) public {\n    fightData storage spot = fight[0];\n    require((spot.influ1==msg.sender) , '');\n    spot.promo2 = _promo2;\n    spot.promo1=_promo1;\n}   \n    //Set fight parameters\n    function sF (uint fs, uint infs, uint scb, uint us, uint cs, uint _iscs, uint _uscs, uint mu, uint sbt, uint srt) public a(){\n    require ((infs+us+cs) == 100 && (_iscs+_uscs+dscs+dscs2) == 70 && spotReservTime >= 300 && flipperShare <=100 && spotCashBack<=100, '');\n    flipperShare = fs;\n    influ2Share = infs;\n    spotCashBack = scb;\n    usersSlice = us;\n    charitySlice = cs;\n    iscs = _iscs;\n    uscs = _uscs;\n    maxUsers=mu;\n    spotBusyTime = sbt;\n    spotReservTime = srt;\n    }\n\n}\n    contract fightFactory {\n    address dev;\n    address dev2;\n    uint  dscs;\n    uint  dscs2;\n    uint  spotResPrice;\n    address  fightAdmin;\n    address  tc;\n    address  lca;\n    address  influ2;\n    address  charity;\n    address lsp;\n \n \n   \n    struct fc {\n        address fightAdmin;\n        address fightContract;\n        bool active;\n    }\n    fc []  fcl;\n    mapping(address => mapping(address =>uint)) index;\n    mapping(address => uint)  fightCount;\n    \n    constructor (address _tc) {\n        dev = msg.sender;\n        lsp=0x52dfA76eDDEF5DC72fb7EcF0e963e7a10Fd6c093;\n        tc= _tc;\n        dscs= 1;\n        dscs2=5;\n        spotResPrice=10000000000000000;\n    }\n //creating a new fight\n    event createNewFight (address indexed fightAddress, address indexed dev2);\n    function createFight(address _dev2, address _influ2, address _charity) external returns(address){\n       fightAdmin= msg.sender;\n       lca = address(new Fight(address(this),dev,_dev2,dscs,dscs2,spotResPrice, fightAdmin, tc, _influ2, _charity, lsp));\n       fcl.push(fc(msg.sender, lca, false));\n       index[msg.sender][lca]=fcl.length-1;\n       fightCount[msg.sender] +=1;\n       IS(tc).addFightToWl(lca);\n       emit createNewFight (lca, _dev2);    \n    return lca;\n    }\n//get fights by admin \n         function getFightsByAdmin(address _owner) public view returns (fc[] memory) {\n        fc[] memory result = new fc[](fightCount[_owner]);\n        uint counter = 0;\n       \n        for (uint i = 0; i < fcl.length; i++) {\n            if (fcl[i].fightAdmin == _owner) {\n                fc storage list = fcl[i];\n                result[counter] = list;\n                counter++;\n            }\n        }\n        return result;\n    }\n    \n       function getAllFights() public view returns (fc[] memory){\n      fc[]    memory id = new fc[](fcl.length);\n      for (uint i = 0; i < fcl.length; i++) {\n          fc storage spot = fcl[i];\n          id[i] = spot;\n      }\n      return id;\n  }\n    \n        function active (address _fa, address _fcontract) external {\n        uint ind = index[_fa][_fcontract];\n         fc storage m = fcl[ind];\n         m.active=true;\n    }\n\n    \n//Set Spot Reservation Price\n    function srp (uint _price) external {\n        require(msg.sender == dev, \"\");\n        spotResPrice = _price;\n    }\n\n    }\n",
  "sourcePath": "/Users/stanislavpavlovic/Desktop/Slice/ee/contracts/fight.sol",
  "compiler": {
    "name": "solc",
    "version": "0.8.10+commit.fc410830.Emscripten.clang"
  },
  "schemaVersion": "3.4.3",
  "updatedAt": "2022-04-10T13:45:22.000Z",
  "devdoc": {
    "kind": "dev",
    "methods": {},
    "version": 1
  },
  "userdoc": {
    "kind": "user",
    "methods": {},
    "version": 1
  }
}