{
  "contractName": "Fight",
  "abi": [
    {
      "inputs": [
        {
          "internalType": "address",
          "name": "_ff",
          "type": "address"
        },
        {
          "internalType": "address",
          "name": "_dev",
          "type": "address"
        },
        {
          "internalType": "address",
          "name": "_dev2",
          "type": "address"
        },
        {
          "internalType": "uint256",
          "name": "_dscs",
          "type": "uint256"
        },
        {
          "internalType": "uint256",
          "name": "_dscs2",
          "type": "uint256"
        },
        {
          "internalType": "uint256",
          "name": "_spotResPrice",
          "type": "uint256"
        },
        {
          "internalType": "address",
          "name": "_fightAdmin",
          "type": "address"
        },
        {
          "internalType": "address",
          "name": "_tc",
          "type": "address"
        },
        {
          "internalType": "address",
          "name": "_influ2",
          "type": "address"
        },
        {
          "internalType": "address",
          "name": "_charity",
          "type": "address"
        },
        {
          "internalType": "address",
          "name": "_lsp",
          "type": "address"
        }
      ],
      "stateMutability": "nonpayable",
      "type": "constructor"
    },
    {
      "inputs": [],
      "name": "FinishFightFirst",
      "type": "error"
    },
    {
      "inputs": [],
      "name": "NotEnoughEther",
      "type": "error"
    },
    {
      "inputs": [],
      "name": "YouHaveToReserveFirst",
      "type": "error"
    },
    {
      "anonymous": false,
      "inputs": [
        {
          "indexed": true,
          "internalType": "address",
          "name": "fightContract",
          "type": "address"
        },
        {
          "indexed": true,
          "internalType": "address",
          "name": "dev2",
          "type": "address"
        }
      ],
      "name": "createSpotEvent",
      "type": "event"
    },
    {
      "anonymous": false,
      "inputs": [
        {
          "indexed": true,
          "internalType": "address",
          "name": "fightContract",
          "type": "address"
        }
      ],
      "name": "fightDataEvent",
      "type": "event"
    },
    {
      "anonymous": false,
      "inputs": [
        {
          "indexed": true,
          "internalType": "address",
          "name": "fightContract",
          "type": "address"
        }
      ],
      "name": "flipSpotEvent",
      "type": "event"
    },
    {
      "anonymous": false,
      "inputs": [
        {
          "indexed": false,
          "internalType": "uint256",
          "name": "amount",
          "type": "uint256"
        },
        {
          "indexed": false,
          "internalType": "uint256",
          "name": "who",
          "type": "uint256"
        }
      ],
      "name": "withdrawals",
      "type": "event"
    },
    {
      "anonymous": false,
      "inputs": [
        {
          "indexed": false,
          "internalType": "address",
          "name": "addr",
          "type": "address"
        },
        {
          "indexed": false,
          "internalType": "uint256",
          "name": "amount",
          "type": "uint256"
        }
      ],
      "name": "withdrawalsLSP",
      "type": "event"
    },
    {
      "inputs": [
        {
          "internalType": "address",
          "name": "influ1",
          "type": "address"
        },
        {
          "internalType": "uint256",
          "name": "initPrice",
          "type": "uint256"
        },
        {
          "internalType": "uint256",
          "name": "np",
          "type": "uint256"
        },
        {
          "internalType": "uint256",
          "name": "extention",
          "type": "uint256"
        },
        {
          "internalType": "uint256",
          "name": "duration",
          "type": "uint256"
        },
        {
          "internalType": "string[5]",
          "name": "fightTopics",
          "type": "string[5]"
        },
        {
          "internalType": "string[3]",
          "name": "fightLocation",
          "type": "string[3]"
        },
        {
          "internalType": "string",
          "name": "promo1",
          "type": "string"
        },
        {
          "internalType": "string",
          "name": "promo2",
          "type": "string"
        },
        {
          "internalType": "string",
          "name": "shortUrl",
          "type": "string"
        }
      ],
      "name": "addFightData",
      "outputs": [],
      "stateMutability": "nonpayable",
      "type": "function"
    },
    {
      "inputs": [
        {
          "internalType": "uint256",
          "name": "_value",
          "type": "uint256"
        }
      ],
      "name": "stakeingVSlice_C64",
      "outputs": [],
      "stateMutability": "nonpayable",
      "type": "function"
    },
    {
      "inputs": [
        {
          "internalType": "uint256",
          "name": "_value",
          "type": "uint256"
        }
      ],
      "name": "unstakeingVSlice_EK",
      "outputs": [],
      "stateMutability": "nonpayable",
      "type": "function"
    },
    {
      "inputs": [],
      "name": "viewVSliceBalance",
      "outputs": [
        {
          "internalType": "uint256",
          "name": "",
          "type": "uint256"
        }
      ],
      "stateMutability": "view",
      "type": "function"
    },
    {
      "inputs": [
        {
          "internalType": "string",
          "name": "_text",
          "type": "string"
        },
        {
          "internalType": "string",
          "name": "_link",
          "type": "string"
        },
        {
          "internalType": "string",
          "name": "_pic",
          "type": "string"
        }
      ],
      "name": "createSpot_g4A",
      "outputs": [],
      "stateMutability": "payable",
      "type": "function"
    },
    {
      "inputs": [
        {
          "internalType": "uint256",
          "name": "_index",
          "type": "uint256"
        },
        {
          "internalType": "string",
          "name": "_text",
          "type": "string"
        },
        {
          "internalType": "string",
          "name": "_link",
          "type": "string"
        },
        {
          "internalType": "string",
          "name": "_pic",
          "type": "string"
        }
      ],
      "name": "flip_Maf",
      "outputs": [],
      "stateMutability": "payable",
      "type": "function"
    },
    {
      "inputs": [],
      "name": "getSpots",
      "outputs": [
        {
          "components": [
            {
              "internalType": "uint256",
              "name": "SpotNo",
              "type": "uint256"
            },
            {
              "internalType": "uint256",
              "name": "priceOfSpot",
              "type": "uint256"
            },
            {
              "internalType": "uint256",
              "name": "bu",
              "type": "uint256"
            },
            {
              "internalType": "uint256",
              "name": "ru",
              "type": "uint256"
            },
            {
              "internalType": "address",
              "name": "flipper",
              "type": "address"
            },
            {
              "internalType": "address",
              "name": "booker",
              "type": "address"
            },
            {
              "internalType": "string",
              "name": "text",
              "type": "string"
            },
            {
              "internalType": "string",
              "name": "link",
              "type": "string"
            },
            {
              "internalType": "string",
              "name": "pic",
              "type": "string"
            }
          ],
          "internalType": "struct Fight.Spots[]",
          "name": "",
          "type": "tuple[]"
        }
      ],
      "stateMutability": "view",
      "type": "function"
    },
    {
      "inputs": [
        {
          "internalType": "uint256",
          "name": "_indx",
          "type": "uint256"
        }
      ],
      "name": "spotReserve_u5k",
      "outputs": [],
      "stateMutability": "payable",
      "type": "function"
    },
    {
      "inputs": [
        {
          "internalType": "uint256",
          "name": "_indx",
          "type": "uint256"
        }
      ],
      "name": "resetspot",
      "outputs": [],
      "stateMutability": "nonpayable",
      "type": "function"
    },
    {
      "inputs": [],
      "name": "makeWithdrawal",
      "outputs": [],
      "stateMutability": "nonpayable",
      "type": "function"
    },
    {
      "inputs": [],
      "name": "makeWithdrawalLSP",
      "outputs": [],
      "stateMutability": "nonpayable",
      "type": "function"
    },
    {
      "inputs": [
        {
          "internalType": "address",
          "name": "_addr",
          "type": "address"
        }
      ],
      "name": "voting1_E7O",
      "outputs": [],
      "stateMutability": "nonpayable",
      "type": "function"
    },
    {
      "inputs": [
        {
          "internalType": "address",
          "name": "_addr",
          "type": "address"
        }
      ],
      "name": "voting2_eoL",
      "outputs": [],
      "stateMutability": "nonpayable",
      "type": "function"
    },
    {
      "inputs": [],
      "name": "getVotes",
      "outputs": [
        {
          "internalType": "uint256",
          "name": "",
          "type": "uint256"
        },
        {
          "internalType": "uint256",
          "name": "",
          "type": "uint256"
        },
        {
          "internalType": "uint256",
          "name": "",
          "type": "uint256"
        }
      ],
      "stateMutability": "view",
      "type": "function"
    },
    {
      "inputs": [],
      "name": "getFightData",
      "outputs": [
        {
          "internalType": "address",
          "name": "",
          "type": "address"
        },
        {
          "internalType": "uint256",
          "name": "",
          "type": "uint256"
        },
        {
          "internalType": "uint256",
          "name": "",
          "type": "uint256"
        },
        {
          "internalType": "uint256",
          "name": "",
          "type": "uint256"
        },
        {
          "internalType": "uint256",
          "name": "",
          "type": "uint256"
        },
        {
          "internalType": "string[5]",
          "name": "",
          "type": "string[5]"
        },
        {
          "internalType": "string[3]",
          "name": "",
          "type": "string[3]"
        },
        {
          "internalType": "string",
          "name": "",
          "type": "string"
        },
        {
          "internalType": "string",
          "name": "",
          "type": "string"
        },
        {
          "internalType": "string",
          "name": "",
          "type": "string"
        }
      ],
      "stateMutability": "view",
      "type": "function"
    },
    {
      "inputs": [],
      "name": "getFightParams2",
      "outputs": [
        {
          "internalType": "uint256",
          "name": "",
          "type": "uint256"
        },
        {
          "internalType": "uint256",
          "name": "",
          "type": "uint256"
        },
        {
          "internalType": "uint256",
          "name": "",
          "type": "uint256"
        },
        {
          "internalType": "address",
          "name": "",
          "type": "address"
        },
        {
          "internalType": "uint256",
          "name": "",
          "type": "uint256"
        },
        {
          "internalType": "uint256",
          "name": "",
          "type": "uint256"
        },
        {
          "internalType": "uint256",
          "name": "",
          "type": "uint256"
        },
        {
          "internalType": "uint256",
          "name": "",
          "type": "uint256"
        },
        {
          "internalType": "uint256",
          "name": "",
          "type": "uint256"
        }
      ],
      "stateMutability": "view",
      "type": "function"
    },
    {
      "inputs": [],
      "name": "getFightParams",
      "outputs": [
        {
          "internalType": "uint256",
          "name": "",
          "type": "uint256"
        },
        {
          "internalType": "uint256",
          "name": "",
          "type": "uint256"
        },
        {
          "internalType": "uint256",
          "name": "",
          "type": "uint256"
        },
        {
          "internalType": "uint256",
          "name": "",
          "type": "uint256"
        },
        {
          "internalType": "uint256",
          "name": "",
          "type": "uint256"
        },
        {
          "internalType": "uint256",
          "name": "",
          "type": "uint256"
        },
        {
          "internalType": "uint256",
          "name": "",
          "type": "uint256"
        },
        {
          "internalType": "uint256",
          "name": "",
          "type": "uint256"
        },
        {
          "internalType": "uint256",
          "name": "",
          "type": "uint256"
        },
        {
          "internalType": "uint256",
          "name": "",
          "type": "uint256"
        },
        {
          "internalType": "uint256",
          "name": "",
          "type": "uint256"
        },
        {
          "internalType": "uint256",
          "name": "",
          "type": "uint256"
        }
      ],
      "stateMutability": "view",
      "type": "function"
    },
    {
      "inputs": [],
      "name": "showBalance",
      "outputs": [
        {
          "internalType": "uint256",
          "name": "",
          "type": "uint256"
        },
        {
          "internalType": "uint256",
          "name": "",
          "type": "uint256"
        },
        {
          "internalType": "uint256",
          "name": "",
          "type": "uint256"
        },
        {
          "internalType": "address",
          "name": "",
          "type": "address"
        },
        {
          "internalType": "uint256",
          "name": "",
          "type": "uint256"
        },
        {
          "internalType": "uint256",
          "name": "",
          "type": "uint256"
        }
      ],
      "stateMutability": "view",
      "type": "function"
    },
    {
      "inputs": [
        {
          "internalType": "string",
          "name": "_promo1",
          "type": "string"
        },
        {
          "internalType": "string",
          "name": "_promo2",
          "type": "string"
        }
      ],
      "name": "ufp",
      "outputs": [],
      "stateMutability": "nonpayable",
      "type": "function"
    },
    {
      "inputs": [
        {
          "internalType": "uint256",
          "name": "fs",
          "type": "uint256"
        },
        {
          "internalType": "uint256",
          "name": "infs",
          "type": "uint256"
        },
        {
          "internalType": "uint256",
          "name": "scb",
          "type": "uint256"
        },
        {
          "internalType": "uint256",
          "name": "us",
          "type": "uint256"
        },
        {
          "internalType": "uint256",
          "name": "cs",
          "type": "uint256"
        },
        {
          "internalType": "uint256",
          "name": "_iscs",
          "type": "uint256"
        },
        {
          "internalType": "uint256",
          "name": "_uscs",
          "type": "uint256"
        },
        {
          "internalType": "uint256",
          "name": "mu",
          "type": "uint256"
        },
        {
          "internalType": "uint256",
          "name": "sbt",
          "type": "uint256"
        },
        {
          "internalType": "uint256",
          "name": "srt",
          "type": "uint256"
        }
      ],
      "name": "sF",
      "outputs": [],
      "stateMutability": "nonpayable",
      "type": "function"
    }
  ],
  "bytecode": "0x60806040523480156200001157600080fd5b5060405162004dec38038062004dec83398181016040528101906200003791906200035c565b89600160006101000a81548173ffffffffffffffffffffffffffffffffffffffff021916908373ffffffffffffffffffffffffffffffffffffffff16021790555088600260006101000a81548173ffffffffffffffffffffffffffffffffffffffff021916908373ffffffffffffffffffffffffffffffffffffffff1602179055508760088190555086600981905550601e6011819055506022601281905550601e600c819055506019600d819055506046600f8190555060056010819055506064600e81905550614e2060138190555061012c601481905550605a60158190555085600a8190555084600360006101000a81548173ffffffffffffffffffffffffffffffffffffffff021916908373ffffffffffffffffffffffffffffffffffffffff16021790555083600460006101000a81548173ffffffffffffffffffffffffffffffffffffffff021916908373ffffffffffffffffffffffffffffffffffffffff16021790555082600560006101000a81548173ffffffffffffffffffffffffffffffffffffffff021916908373ffffffffffffffffffffffffffffffffffffffff16021790555081600660006101000a81548173ffffffffffffffffffffffffffffffffffffffff021916908373ffffffffffffffffffffffffffffffffffffffff1602179055508a601c60006101000a81548173ffffffffffffffffffffffffffffffffffffffff021916908373ffffffffffffffffffffffffffffffffffffffff16021790555080601860006101000a81548173ffffffffffffffffffffffffffffffffffffffff021916908373ffffffffffffffffffffffffffffffffffffffff160217905550505050505050505050505062000469565b600080fd5b600073ffffffffffffffffffffffffffffffffffffffff82169050919050565b6000620002e982620002bc565b9050919050565b620002fb81620002dc565b81146200030757600080fd5b50565b6000815190506200031b81620002f0565b92915050565b6000819050919050565b620003368162000321565b81146200034257600080fd5b50565b60008151905062000356816200032b565b92915050565b60008060008060008060008060008060006101608c8e031215620003855762000384620002b7565b5b6000620003958e828f016200030a565b9b50506020620003a88e828f016200030a565b9a50506040620003bb8e828f016200030a565b9950506060620003ce8e828f0162000345565b9850506080620003e18e828f0162000345565b97505060a0620003f48e828f0162000345565b96505060c0620004078e828f016200030a565b95505060e06200041a8e828f016200030a565b9450506101006200042e8e828f016200030a565b935050610120620004428e828f016200030a565b925050610140620004568e828f016200030a565b9150509295989b509295989b9093969950565b61497380620004796000396000f3fe60806040526004361061011b5760003560e01c80637c0ce7ad116100a0578063e51c484e11610064578063e51c484e14610369578063e7ac9ab414610392578063e8c90e88146103ae578063f9521129146103e4578063fa9375711461040f5761011b565b80637c0ce7ad146102b457806381b2d07b146102dd578063a0ff26bb1461030d578063a5d7c82f14610336578063cb375a801461034d5761011b565b806344d16475116100e757806344d16475146101df57806347f9ba5e146102085780634e3975af14610231578063503cfdb71461024d5780635eebe258146102815761011b565b8061825e14610120578061ecc8146101495780630126fe5e146101725780630dc960151461019b5780633951b4c9146101c8575b600080fd5b34801561012c57600080fd5b50610147600480360381019061014291906136d2565b61043a565b005b34801561015557600080fd5b50610170600480360381019061016b91906136d2565b6105c9565b005b34801561017e57600080fd5b5061019960048036038101906101949190613845565b610758565b005b3480156101a757600080fd5b506101b0610848565b6040516101bf939291906138d6565b60405180910390f35b3480156101d457600080fd5b506101dd610861565b005b3480156101eb57600080fd5b5061020660048036038101906102019190613939565b610a34565b005b34801561021457600080fd5b5061022f600480360381019061022a9190613a18565b610b27565b005b61024b60048036038101906102469190613a45565b610c1a565b005b34801561025957600080fd5b50610262611554565b6040516102789a99989796959493929190613d25565b60405180910390f35b34801561028d57600080fd5b5061029661192c565b6040516102ab99989796959493929190613de4565b60405180910390f35b3480156102c057600080fd5b506102db60048036038101906102d69190613a18565b6119da565b005b3480156102e957600080fd5b506102f2611bd0565b60405161030496959493929190613e71565b60405180910390f35b34801561031957600080fd5b50610334600480360381019061032f9190614075565b611d1a565b005b34801561034257600080fd5b5061034b612050565b005b610367600480360381019061036291906141e0565b612253565b005b34801561037557600080fd5b50610390600480360381019061038b9190613a18565b612b19565b005b6103ac60048036038101906103a79190613a18565b612d0d565b005b3480156103ba57600080fd5b506103c3612ef6565b6040516103db9c9b9a9998979695949392919061429b565b60405180910390f35b3480156103f057600080fd5b506103f9612f52565b6040516104069190614355565b60405180910390f35b34801561041b57600080fd5b50610424612ff5565b6040516104319190614523565b60405180910390f35b6000601f60008373ffffffffffffffffffffffffffffffffffffffff1673ffffffffffffffffffffffffffffffffffffffff16815260200190815260200160002054148015610528575060011515600460009054906101000a900473ffffffffffffffffffffffffffffffffffffffff1673ffffffffffffffffffffffffffffffffffffffff16632fee9e7e336040518263ffffffff1660e01b81526004016104e39190614545565b602060405180830381865afa158015610500573d6000803e3d6000fd5b505050506040513d601f19601f820116820180604052508101906105249190614598565b1515145b610567576040517f08c379a000000000000000000000000000000000000000000000000000000000815260040161055e906145eb565b60405180910390fd5b6001601f60008373ffffffffffffffffffffffffffffffffffffffff1673ffffffffffffffffffffffffffffffffffffffff168152602001908152602001600020819055506001601660008282546105bf919061463a565b9250508190555050565b6000601f60008373ffffffffffffffffffffffffffffffffffffffff1673ffffffffffffffffffffffffffffffffffffffff168152602001908152602001600020541480156106b7575060011515600460009054906101000a900473ffffffffffffffffffffffffffffffffffffffff1673ffffffffffffffffffffffffffffffffffffffff16632fee9e7e336040518263ffffffff1660e01b81526004016106729190614545565b602060405180830381865afa15801561068f573d6000803e3d6000fd5b505050506040513d601f19601f820116820180604052508101906106b39190614598565b1515145b6106f6576040517f08c379a00000000000000000000000000000000000000000000000000000000081526004016106ed906145eb565b60405180910390fd5b6001601f60008373ffffffffffffffffffffffffffffffffffffffff1673ffffffffffffffffffffffffffffffffffffffff1681526020019081526020016000208190555060016017600082825461074e919061463a565b9250508190555050565b6000602060008154811061076f5761076e614690565b5b906000526020600020906010020190503373ffffffffffffffffffffffffffffffffffffffff1681600e0160009054906101000a900473ffffffffffffffffffffffffffffffffffffffff1673ffffffffffffffffffffffffffffffffffffffff1614610811576040517f08c379a0000000000000000000000000000000000000000000000000000000008152600401610808906145eb565b60405180910390fd5b8181600d0190805190602001906108299291906133ed565b508281600c0190805190602001906108429291906133ed565b50505050565b6000806000601654601754600754925092509250909192565b6000601e60003373ffffffffffffffffffffffffffffffffffffffff1673ffffffffffffffffffffffffffffffffffffffff1681526020019081526020016000205490506000601e60003373ffffffffffffffffffffffffffffffffffffffff1673ffffffffffffffffffffffffffffffffffffffff168152602001908152602001600020819055503373ffffffffffffffffffffffffffffffffffffffff166108fc829081150290604051600060405180830381858888f19350505050158015610930573d6000803e3d6000fd5b506000600660009054906101000a900473ffffffffffffffffffffffffffffffffffffffff1673ffffffffffffffffffffffffffffffffffffffff163373ffffffffffffffffffffffffffffffffffffffff16141561099257600190506109f7565b600260009054906101000a900473ffffffffffffffffffffffffffffffffffffffff1673ffffffffffffffffffffffffffffffffffffffff163373ffffffffffffffffffffffffffffffffffffffff1614156109f157600390506109f6565b600490505b5b7f7c1d4e62152e35c067e67c3cdcdc0949bbab739d7f67d5a13586d7e04da8020a8282604051610a289291906146bf565b60405180910390a15050565b610a3c61335b565b606486888b610a4b919061463a565b610a55919061463a565b148015610a87575060466009546008548688610a71919061463a565b610a7b919061463a565b610a85919061463a565b145b8015610a965750603c60155410155b610ad5576040517f08c379a0000000000000000000000000000000000000000000000000000000008152600401610acc906145eb565b60405180910390fd5b89600c8190555088600d8190555087600e8190555086600f8190555085601081905550846011819055508360128190555082601381905550816014819055508060158190555050505050505050505050565b610b2f61335b565b60006020600081548110610b4657610b45614690565b5b90600052602060002090601002019050600060218381548110610b6c57610b6b614690565b5b9060005260206000209060090201905081600001548160010181905550600081600201819055506000816003018190555060405180602001604052806000815250816006019080519060200190610bc49291906133ed565b5060405180602001604052806000815250816008019080519060200190610bec9291906133ed565b5060405180602001604052806000815250816007019080519060200190610c149291906133ed565b50505050565b60006020600081548110610c3157610c30614690565b5b9060005260206000209060100201905042601a54601b54610c52919061463a565b11610c92576040517f08c379a0000000000000000000000000000000000000000000000000000000008152600401610c89906145eb565b60405180910390fd5b80600001543414610ccf576040517f8a0d377900000000000000000000000000000000000000000000000000000000815260040160405180910390fd5b60646008548260000154610ce391906146e8565b610ced9190614771565b601e6000600160009054906101000a900473ffffffffffffffffffffffffffffffffffffffff1673ffffffffffffffffffffffffffffffffffffffff1673ffffffffffffffffffffffffffffffffffffffff1681526020019081526020016000206000828254610d5d919061463a565b9250508190555060646009548260000154610d7891906146e8565b610d829190614771565b601e6000600260009054906101000a900473ffffffffffffffffffffffffffffffffffffffff1673ffffffffffffffffffffffffffffffffffffffff1673ffffffffffffffffffffffffffffffffffffffff1681526020019081526020016000206000828254610df2919061463a565b925050819055506064601e8260000154610e0c91906146e8565b610e169190614771565b601e6000601860009054906101000a900473ffffffffffffffffffffffffffffffffffffffff1673ffffffffffffffffffffffffffffffffffffffff1673ffffffffffffffffffffffffffffffffffffffff1681526020019081526020016000206000828254610e86919061463a565b92505081905550600260646011548360000154610ea391906146e8565b610ead9190614771565b610eb79190614771565b601e600083600e0160009054906101000a900473ffffffffffffffffffffffffffffffffffffffff1673ffffffffffffffffffffffffffffffffffffffff1673ffffffffffffffffffffffffffffffffffffffff1681526020019081526020016000206000828254610f29919061463a565b92505081905550600260646011548360000154610f4691906146e8565b610f509190614771565b610f5a9190614771565b601e6000600560009054906101000a900473ffffffffffffffffffffffffffffffffffffffff1673ffffffffffffffffffffffffffffffffffffffff1673ffffffffffffffffffffffffffffffffffffffff1681526020019081526020016000206000828254610fca919061463a565b925050819055506000602380549050146111565760005b602380549050811015611150576000602260006023848154811061100857611007614690565b5b9060005260206000200160009054906101000a900473ffffffffffffffffffffffffffffffffffffffff1673ffffffffffffffffffffffffffffffffffffffff1673ffffffffffffffffffffffffffffffffffffffff168152602001908152602001600020905060075481600101546064601254866000015461108b91906146e8565b6110959190614771565b61109f91906146e8565b6110a99190614771565b601e6000602385815481106110c1576110c0614690565b5b9060005260206000200160009054906101000a900473ffffffffffffffffffffffffffffffffffffffff1673ffffffffffffffffffffffffffffffffffffffff1673ffffffffffffffffffffffffffffffffffffffff1681526020019081526020016000206000828254611135919061463a565b92505081905550508080611148906147a2565b915050610fe1565b506111ec565b6064601254826000015461116a91906146e8565b6111749190614771565b601e6000600160009054906101000a900473ffffffffffffffffffffffffffffffffffffffff1673ffffffffffffffffffffffffffffffffffffffff1673ffffffffffffffffffffffffffffffffffffffff16815260200190815260200160002060008282546111e4919061463a565b925050819055505b600060648260010154836000015461120491906146e8565b61120e9190614771565b826000015461121d919061463a565b90506001600b5461122e919061463a565b600b819055506000600b54905060008690506000869050600086905033601960006101000a81548173ffffffffffffffffffffffffffffffffffffffff021916908373ffffffffffffffffffffffffffffffffffffffff1602179055506000601b544261129b91906147eb565b601a546112a891906147eb565b905062093a80601d54426112bc91906147eb565b11156112cf576000601a81905550611311565b86600301548760020154826112e4919061463a565b106112f9578660030154601a81905550611310565b866002015481611309919061463a565b601a819055505b5b42601b81905550602160405180610120016040528087815260200188815260200160145442611340919061463a565b81526020014281526020013373ffffffffffffffffffffffffffffffffffffffff1681526020013373ffffffffffffffffffffffffffffffffffffffff1681526020018681526020018581526020018481525090806001815401808255809150506001900390600052602060002090600902016000909190919091506000820151816000015560208201518160010155604082015181600201556060820151816003015560808201518160040160006101000a81548173ffffffffffffffffffffffffffffffffffffffff021916908373ffffffffffffffffffffffffffffffffffffffff16021790555060a08201518160050160006101000a81548173ffffffffffffffffffffffffffffffffffffffff021916908373ffffffffffffffffffffffffffffffffffffffff16021790555060c082015181600601908051906020019061148e9291906133ed565b5060e08201518160070190805190602001906114ab9291906133ed565b506101008201518160080190805190602001906114c99291906133ed565b505050600260009054906101000a900473ffffffffffffffffffffffffffffffffffffffff1673ffffffffffffffffffffffffffffffffffffffff163073ffffffffffffffffffffffffffffffffffffffff167f3bb25606af27fc0d095bee57e38dcccfee45c874307338d4b4cf85d992ce478560405160405180910390a350505050505050505050565b6000806000806000611564613473565b61156c61349a565b60608060606000602060008154811061158857611587614690565b5b9060005260206000209060100201905080600e0160009054906101000a900473ffffffffffffffffffffffffffffffffffffffff168160000154826001015483600201548460030154856004018660090187600c0188600d0189600f0184600580602002604051908101604052809291906000905b828210156116a05783820180546116139061484e565b80601f016020809104026020016040519081016040528092919081815260200182805461163f9061484e565b801561168c5780601f106116615761010080835404028352916020019161168c565b820191906000526020600020905b81548152906001019060200180831161166f57829003601f168201915b5050505050815260200190600101906115fd565b50505050945083600380602002604051908101604052809291906000905b828210156117615783820180546116d49061484e565b80601f01602080910402602001604051908101604052809291908181526020018280546117009061484e565b801561174d5780601f106117225761010080835404028352916020019161174d565b820191906000526020600020905b81548152906001019060200180831161173057829003601f168201915b5050505050815260200190600101906116be565b5050505093508280546117739061484e565b80601f016020809104026020016040519081016040528092919081815260200182805461179f9061484e565b80156117ec5780601f106117c1576101008083540402835291602001916117ec565b820191906000526020600020905b8154815290600101906020018083116117cf57829003601f168201915b505050505092508180546117ff9061484e565b80601f016020809104026020016040519081016040528092919081815260200182805461182b9061484e565b80156118785780601f1061184d57610100808354040283529160200191611878565b820191906000526020600020905b81548152906001019060200180831161185b57829003601f168201915b5050505050915080805461188b9061484e565b80601f01602080910402602001604051908101604052809291908181526020018280546118b79061484e565b80156119045780601f106118d957610100808354040283529160200191611904565b820191906000526020600020905b8154815290600101906020018083116118e757829003601f168201915b505050505090509a509a509a509a509a509a509a509a509a509a505090919293949596979899565b600080600080600080600080600080602260003373ffffffffffffffffffffffffffffffffffffffff1673ffffffffffffffffffffffffffffffffffffffff16815260200190815260200160002090508060010154602380549050601d54600660009054906101000a900473ffffffffffffffffffffffffffffffffffffffff16600a54601254601054600f54601a5499509950995099509950995099509950995050909192939495969798565b60238054905060135411611a23576040517f08c379a0000000000000000000000000000000000000000000000000000000008152600401611a1a906145eb565b60405180910390fd5b600460009054906101000a900473ffffffffffffffffffffffffffffffffffffffff1673ffffffffffffffffffffffffffffffffffffffff1663d4f4648f82336040518363ffffffff1660e01b8152600401611a80929190614880565b600060405180830381600087803b158015611a9a57600080fd5b505af1158015611aae573d6000803e3d6000fd5b505050506000602260003373ffffffffffffffffffffffffffffffffffffffff1673ffffffffffffffffffffffffffffffffffffffff168152602001908152602001600020905081816001016000828254611b09919061463a565b925050819055508160076000828254611b22919061463a565b92505081905550600081600001541115611b3c5750611bcd565b6023339080600181540180825580915050600190039060005260206000200160009091909190916101000a81548173ffffffffffffffffffffffffffffffffffffffff021916908373ffffffffffffffffffffffffffffffffffffffff16021790555060006001602380549050611bb391906147eb565b9050600181611bc2919061463a565b826000018190555050505b50565b600080600080600080601e60003373ffffffffffffffffffffffffffffffffffffffff1673ffffffffffffffffffffffffffffffffffffffff16815260200190815260200160002054601e6000600660009054906101000a900473ffffffffffffffffffffffffffffffffffffffff1673ffffffffffffffffffffffffffffffffffffffff1673ffffffffffffffffffffffffffffffffffffffff16815260200190815260200160002054601e6000601860009054906101000a900473ffffffffffffffffffffffffffffffffffffffff1673ffffffffffffffffffffffffffffffffffffffff1673ffffffffffffffffffffffffffffffffffffffff16815260200190815260200160002054601960009054906101000a900473ffffffffffffffffffffffffffffffffffffffff16601d54601a54955095509550955095509550909192939495565b611d2261335b565b610e108711158015611d37575062093a808611155b611d76576040517f08c379a0000000000000000000000000000000000000000000000000000000008152600401611d6d906145eb565b60405180910390fd5b60206040518061014001604052808b81526020018a8152602001898152602001888152602001878152602001868152602001858152602001848152602001600360009054906101000a900473ffffffffffffffffffffffffffffffffffffffff169c508c73ffffffffffffffffffffffffffffffffffffffff16815260200183815250908060018154018082558091505060019003906000526020600020906010020160009091909190915060008201518160000155602082015181600101556040820151816002015560608201518160030155608082015181600401906005611e619291906134c1565b5060a082015181600901906003611e79929190613514565b5060c082015181600c019080519060200190611e969291906133ed565b5060e082015181600d019080519060200190611eb39291906133ed565b5061010082015181600e0160006101000a81548173ffffffffffffffffffffffffffffffffffffffff021916908373ffffffffffffffffffffffffffffffffffffffff16021790555061012082015181600f019080519060200190611f199291906133ed565b50505085601a8190555042601b8190555089601960006101000a81548173ffffffffffffffffffffffffffffffffffffffff021916908373ffffffffffffffffffffffffffffffffffffffff160217905550601c60009054906101000a900473ffffffffffffffffffffffffffffffffffffffff1673ffffffffffffffffffffffffffffffffffffffff16635e4505c733306040518363ffffffff1660e01b8152600401611fc89291906148a9565b600060405180830381600087803b158015611fe257600080fd5b505af1158015611ff6573d6000803e3d6000fd5b5050505042601d819055503073ffffffffffffffffffffffffffffffffffffffff167ff289b4a41b5728329fc76c351ab52bfe794cfabf7d0e99fb0f618e0b6cf8973260405160405180910390a250505050505050505050565b3373ffffffffffffffffffffffffffffffffffffffff16601960009054906101000a900473ffffffffffffffffffffffffffffffffffffffff1673ffffffffffffffffffffffffffffffffffffffff161480156120bc575042601a54601b546120b9919061463a565b11155b6120fb576040517f08c379a00000000000000000000000000000000000000000000000000000000081526004016120f2906145eb565b60405180910390fd5b6000601e6000601860009054906101000a900473ffffffffffffffffffffffffffffffffffffffff1673ffffffffffffffffffffffffffffffffffffffff1673ffffffffffffffffffffffffffffffffffffffff1681526020019081526020016000205490506000601e6000601860009054906101000a900473ffffffffffffffffffffffffffffffffffffffff1673ffffffffffffffffffffffffffffffffffffffff1673ffffffffffffffffffffffffffffffffffffffff168152602001908152602001600020819055506000601a819055503373ffffffffffffffffffffffffffffffffffffffff166108fc829081150290604051600060405180830381858888f19350505050158015612216573d6000803e3d6000fd5b507f0689651a0bb260f3df1719ec8787eb33bfc21862be592ec196997adccc9dc76d33826040516122489291906148d2565b60405180910390a150565b6000806021868154811061226a57612269614690565b5b906000526020600020906009020190506000602060008154811061229157612290614690565b5b90600052602060002090601002019050428260020154106122e7576040517f08c379a00000000000000000000000000000000000000000000000000000000081526004016122de906145eb565b60405180910390fd5b3373ffffffffffffffffffffffffffffffffffffffff168260050160009054906101000a900473ffffffffffffffffffffffffffffffffffffffff1673ffffffffffffffffffffffffffffffffffffffff1614806123485750428260030154105b612387576040517f08c379a000000000000000000000000000000000000000000000000000000000815260040161237e906145eb565b60405180910390fd5b42601a54601b54612398919061463a565b116123d8576040517f08c379a00000000000000000000000000000000000000000000000000000000081526004016123cf906145eb565b60405180910390fd5b81600101543414612415576040517f8a0d377900000000000000000000000000000000000000000000000000000000815260040160405180910390fd5b6000826001015490506000606483600101546064612433919061463a565b8361243e9190614771565b61244891906146e8565b90506064600e548261245a91906146e8565b6124649190614771565b945060006064600c54838561247991906147eb565b61248391906146e8565b61248d9190614771565b905060006064856001015460646124a4919061463a565b87600101546124b391906146e8565b6124bd9190614771565b905081876124cb919061463a565b601e60008860040160009054906101000a900473ffffffffffffffffffffffffffffffffffffffff1673ffffffffffffffffffffffffffffffffffffffff1673ffffffffffffffffffffffffffffffffffffffff168152602001908152602001600020600082825461253d919061463a565b9250508190555060008288612552919061463a565b876001015461256191906147eb565b905060026064600d548361257591906146e8565b61257f9190614771565b6125899190614771565b601e600088600e0160009054906101000a900473ffffffffffffffffffffffffffffffffffffffff1673ffffffffffffffffffffffffffffffffffffffff1673ffffffffffffffffffffffffffffffffffffffff16815260200190815260200160002060008282546125fb919061463a565b9250508190555060026064600d548361261491906146e8565b61261e9190614771565b6126289190614771565b601e6000600560009054906101000a900473ffffffffffffffffffffffffffffffffffffffff1673ffffffffffffffffffffffffffffffffffffffff1673ffffffffffffffffffffffffffffffffffffffff1681526020019081526020016000206000828254612698919061463a565b925050819055506064601054826126af91906146e8565b6126b99190614771565b601e6000600660009054906101000a900473ffffffffffffffffffffffffffffffffffffffff1673ffffffffffffffffffffffffffffffffffffffff1673ffffffffffffffffffffffffffffffffffffffff1681526020019081526020016000206000828254612729919061463a565b925050819055506000602380549050146128b15760005b6023805490508110156128ab576000602260006023848154811061276757612766614690565b5b9060005260206000200160009054906101000a900473ffffffffffffffffffffffffffffffffffffffff1673ffffffffffffffffffffffffffffffffffffffff1673ffffffffffffffffffffffffffffffffffffffff168152602001908152602001600020905060075481600101546064600f54866127e691906146e8565b6127f09190614771565b6127fa91906146e8565b6128049190614771565b601e60006023858154811061281c5761281b614690565b5b9060005260206000200160009054906101000a900473ffffffffffffffffffffffffffffffffffffffff1673ffffffffffffffffffffffffffffffffffffffff1673ffffffffffffffffffffffffffffffffffffffff1681526020019081526020016000206000828254612890919061463a565b925050819055505080806128a3906147a2565b915050612740565b50612943565b6064600f54826128c191906146e8565b6128cb9190614771565b601e6000600160009054906101000a900473ffffffffffffffffffffffffffffffffffffffff1673ffffffffffffffffffffffffffffffffffffffff1673ffffffffffffffffffffffffffffffffffffffff168152602001908152602001600020600082825461293b919061463a565b925050819055505b338760040160006101000a81548173ffffffffffffffffffffffffffffffffffffffff021916908373ffffffffffffffffffffffffffffffffffffffff1602179055508187600101819055506014544261299d919061463a565b87600201819055504287600301819055508a8760060190805190602001906129c69291906133ed565b50898760070190805190602001906129df9291906133ed565b50888760080190805190602001906129f89291906133ed565b5033601960006101000a81548173ffffffffffffffffffffffffffffffffffffffff021916908373ffffffffffffffffffffffffffffffffffffffff1602179055506000601b5442612a4a91906147eb565b601a54612a5791906147eb565b905062093a80601d5442612a6b91906147eb565b1115612a7e576000601a81905550612ac0565b8660030154876002015482612a93919061463a565b10612aa8578660030154601a81905550612abf565b866002015481612ab8919061463a565b601a819055505b5b42601b819055503073ffffffffffffffffffffffffffffffffffffffff167fcf3438e5e5a168f4995d2cc612749d18b627ab2eb58f320f981cfff9bf5dd3f960405160405180910390a250505050505050505050505050565b6000602260003373ffffffffffffffffffffffffffffffffffffffff1673ffffffffffffffffffffffffffffffffffffffff16815260200190815260200160002090508181600101541015612ba3576040517f08c379a0000000000000000000000000000000000000000000000000000000008152600401612b9a906145eb565b60405180910390fd5b600460009054906101000a900473ffffffffffffffffffffffffffffffffffffffff1673ffffffffffffffffffffffffffffffffffffffff166361d42f6b83336040518363ffffffff1660e01b8152600401612c00929190614880565b600060405180830381600087803b158015612c1a57600080fd5b505af1158015612c2e573d6000803e3d6000fd5b5050505081816001016000828254612c4691906147eb565b925050819055508160076000828254612c5f91906147eb565b92505081905550600081600001541115612c795750612d0a565b6023339080600181540180825580915050600190039060005260206000200160009091909190916101000a81548173ffffffffffffffffffffffffffffffffffffffff021916908373ffffffffffffffffffffffffffffffffffffffff16021790555060006001602380549050612cf091906147eb565b9050600181612cff919061463a565b826000018190555050505b50565b600060218281548110612d2357612d22614690565b5b90600052602060002090600902019050428160020154108015612d495750428160030154105b8015612da557503373ffffffffffffffffffffffffffffffffffffffff168160040160009054906101000a900473ffffffffffffffffffffffffffffffffffffffff1673ffffffffffffffffffffffffffffffffffffffff1614155b612de4576040517f08c379a0000000000000000000000000000000000000000000000000000000008152600401612ddb906145eb565b60405180910390fd5b600a543414612e1f576040517f8a0d377900000000000000000000000000000000000000000000000000000000815260040160405180910390fd5b600a54601e6000600160009054906101000a900473ffffffffffffffffffffffffffffffffffffffff1673ffffffffffffffffffffffffffffffffffffffff1673ffffffffffffffffffffffffffffffffffffffff1681526020019081526020016000206000828254612e92919061463a565b9250508190555060155442612ea7919061463a565b8160030181905550338160050160006101000a81548173ffffffffffffffffffffffffffffffffffffffff021916908373ffffffffffffffffffffffffffffffffffffffff1602179055505050565b600080600080600080600080600080600080600c54600d54600e54600f54601054601154601254601354601454601554601a54601b549b509b509b509b509b509b509b509b509b509b509b509b50909192939495969798999a9b565b6000600460009054906101000a900473ffffffffffffffffffffffffffffffffffffffff1673ffffffffffffffffffffffffffffffffffffffff166335703a3a336040518263ffffffff1660e01b8152600401612faf9190614545565b602060405180830381865afa158015612fcc573d6000803e3d6000fd5b505050506040513d601f19601f82011682018060405250810190612ff09190614910565b905090565b6060600060218054905067ffffffffffffffff8111156130185761301761371a565b5b60405190808252806020026020018201604052801561305157816020015b61303e613567565b8152602001906001900390816130365790505b50905060005b6021805490508110156133535760006021828154811061307a57613079614690565b5b906000526020600020906009020190508060405180610120016040529081600082015481526020016001820154815260200160028201548152602001600382015481526020016004820160009054906101000a900473ffffffffffffffffffffffffffffffffffffffff1673ffffffffffffffffffffffffffffffffffffffff1673ffffffffffffffffffffffffffffffffffffffff1681526020016005820160009054906101000a900473ffffffffffffffffffffffffffffffffffffffff1673ffffffffffffffffffffffffffffffffffffffff1673ffffffffffffffffffffffffffffffffffffffff16815260200160068201805461317b9061484e565b80601f01602080910402602001604051908101604052809291908181526020018280546131a79061484e565b80156131f45780601f106131c9576101008083540402835291602001916131f4565b820191906000526020600020905b8154815290600101906020018083116131d757829003601f168201915b5050505050815260200160078201805461320d9061484e565b80601f01602080910402602001604051908101604052809291908181526020018280546132399061484e565b80156132865780601f1061325b57610100808354040283529160200191613286565b820191906000526020600020905b81548152906001019060200180831161326957829003601f168201915b5050505050815260200160088201805461329f9061484e565b80601f01602080910402602001604051908101604052809291908181526020018280546132cb9061484e565b80156133185780601f106132ed57610100808354040283529160200191613318565b820191906000526020600020905b8154815290600101906020018083116132fb57829003601f168201915b50505050508152505083838151811061333457613333614690565b5b602002602001018190525050808061334b906147a2565b915050613057565b508091505090565b600360009054906101000a900473ffffffffffffffffffffffffffffffffffffffff1673ffffffffffffffffffffffffffffffffffffffff163373ffffffffffffffffffffffffffffffffffffffff16146133eb576040517f08c379a00000000000000000000000000000000000000000000000000000000081526004016133e2906145eb565b60405180910390fd5b565b8280546133f99061484e565b90600052602060002090601f01602090048101928261341b5760008555613462565b82601f1061343457805160ff1916838001178555613462565b82800160010185558215613462579182015b82811115613461578251825591602001919060010190613446565b5b50905061346f91906135df565b5090565b6040518060a001604052806005905b60608152602001906001900390816134825790505090565b60405180606001604052806003905b60608152602001906001900390816134a95790505090565b8260058101928215613503579160200282015b828111156135025782518290805190602001906134f29291906133ed565b50916020019190600101906134d4565b5b50905061351091906135fc565b5090565b8260038101928215613556579160200282015b828111156135555782518290805190602001906135459291906133ed565b5091602001919060010190613527565b5b50905061356391906135fc565b5090565b60405180610120016040528060008152602001600081526020016000815260200160008152602001600073ffffffffffffffffffffffffffffffffffffffff168152602001600073ffffffffffffffffffffffffffffffffffffffff1681526020016060815260200160608152602001606081525090565b5b808211156135f85760008160009055506001016135e0565b5090565b5b8082111561361c57600081816136139190613620565b506001016135fd565b5090565b50805461362c9061484e565b6000825580601f1061363e575061365d565b601f01602090049060005260206000209081019061365c91906135df565b5b50565b6000604051905090565b600080fd5b600080fd5b600073ffffffffffffffffffffffffffffffffffffffff82169050919050565b600061369f82613674565b9050919050565b6136af81613694565b81146136ba57600080fd5b50565b6000813590506136cc816136a6565b92915050565b6000602082840312156136e8576136e761366a565b5b60006136f6848285016136bd565b91505092915050565b600080fd5b600080fd5b6000601f19601f8301169050919050565b7f4e487b7100000000000000000000000000000000000000000000000000000000600052604160045260246000fd5b61375282613709565b810181811067ffffffffffffffff821117156137715761377061371a565b5b80604052505050565b6000613784613660565b90506137908282613749565b919050565b600067ffffffffffffffff8211156137b0576137af61371a565b5b6137b982613709565b9050602081019050919050565b82818337600083830152505050565b60006137e86137e384613795565b61377a565b90508281526020810184848401111561380457613803613704565b5b61380f8482856137c6565b509392505050565b600082601f83011261382c5761382b6136ff565b5b813561383c8482602086016137d5565b91505092915050565b6000806040838503121561385c5761385b61366a565b5b600083013567ffffffffffffffff81111561387a5761387961366f565b5b61388685828601613817565b925050602083013567ffffffffffffffff8111156138a7576138a661366f565b5b6138b385828601613817565b9150509250929050565b6000819050919050565b6138d0816138bd565b82525050565b60006060820190506138eb60008301866138c7565b6138f860208301856138c7565b61390560408301846138c7565b949350505050565b613916816138bd565b811461392157600080fd5b50565b6000813590506139338161390d565b92915050565b6000806000806000806000806000806101408b8d03121561395d5761395c61366a565b5b600061396b8d828e01613924565b9a5050602061397c8d828e01613924565b995050604061398d8d828e01613924565b985050606061399e8d828e01613924565b97505060806139af8d828e01613924565b96505060a06139c08d828e01613924565b95505060c06139d18d828e01613924565b94505060e06139e28d828e01613924565b9350506101006139f48d828e01613924565b925050610120613a068d828e01613924565b9150509295989b9194979a5092959850565b600060208284031215613a2e57613a2d61366a565b5b6000613a3c84828501613924565b91505092915050565b600080600060608486031215613a5e57613a5d61366a565b5b600084013567ffffffffffffffff811115613a7c57613a7b61366f565b5b613a8886828701613817565b935050602084013567ffffffffffffffff811115613aa957613aa861366f565b5b613ab586828701613817565b925050604084013567ffffffffffffffff811115613ad657613ad561366f565b5b613ae286828701613817565b9150509250925092565b613af581613694565b82525050565b600060059050919050565b600081905092915050565b6000819050919050565b600081519050919050565b600082825260208201905092915050565b60005b83811015613b55578082015181840152602081019050613b3a565b83811115613b64576000848401525b50505050565b6000613b7582613b1b565b613b7f8185613b26565b9350613b8f818560208601613b37565b613b9881613709565b840191505092915050565b6000613baf8383613b6a565b905092915050565b6000602082019050919050565b6000613bcf82613afb565b613bd98185613b06565b935083602082028501613beb85613b11565b8060005b85811015613c275784840389528151613c088582613ba3565b9450613c1383613bb7565b925060208a01995050600181019050613bef565b50829750879550505050505092915050565b600060039050919050565b600081905092915050565b6000819050919050565b6000602082019050919050565b6000613c7182613c39565b613c7b8185613c44565b935083602082028501613c8d85613c4f565b8060005b85811015613cc95784840389528151613caa8582613ba3565b9450613cb583613c59565b925060208a01995050600181019050613c91565b50829750879550505050505092915050565b600082825260208201905092915050565b6000613cf782613b1b565b613d018185613cdb565b9350613d11818560208601613b37565b613d1a81613709565b840191505092915050565b600061014082019050613d3b600083018d613aec565b613d48602083018c6138c7565b613d55604083018b6138c7565b613d62606083018a6138c7565b613d6f60808301896138c7565b81810360a0830152613d818188613bc4565b905081810360c0830152613d958187613c66565b905081810360e0830152613da98186613cec565b9050818103610100830152613dbe8185613cec565b9050818103610120830152613dd38184613cec565b90509b9a5050505050505050505050565b600061012082019050613dfa600083018c6138c7565b613e07602083018b6138c7565b613e14604083018a6138c7565b613e216060830189613aec565b613e2e60808301886138c7565b613e3b60a08301876138c7565b613e4860c08301866138c7565b613e5560e08301856138c7565b613e636101008301846138c7565b9a9950505050505050505050565b600060c082019050613e8660008301896138c7565b613e9360208301886138c7565b613ea060408301876138c7565b613ead6060830186613aec565b613eba60808301856138c7565b613ec760a08301846138c7565b979650505050505050565b600067ffffffffffffffff821115613eed57613eec61371a565b5b602082029050919050565b600080fd5b6000613f10613f0b84613ed2565b61377a565b90508060208402830185811115613f2a57613f29613ef8565b5b835b81811015613f7157803567ffffffffffffffff811115613f4f57613f4e6136ff565b5b808601613f5c8982613817565b85526020850194505050602081019050613f2c565b5050509392505050565b600082601f830112613f9057613f8f6136ff565b5b6005613f9d848285613efd565b91505092915050565b600067ffffffffffffffff821115613fc157613fc061371a565b5b602082029050919050565b6000613fdf613fda84613fa6565b61377a565b90508060208402830185811115613ff957613ff8613ef8565b5b835b8181101561404057803567ffffffffffffffff81111561401e5761401d6136ff565b5b80860161402b8982613817565b85526020850194505050602081019050613ffb565b5050509392505050565b600082601f83011261405f5761405e6136ff565b5b600361406c848285613fcc565b91505092915050565b6000806000806000806000806000806101408b8d0312156140995761409861366a565b5b60006140a78d828e016136bd565b9a505060206140b88d828e01613924565b99505060406140c98d828e01613924565b98505060606140da8d828e01613924565b97505060806140eb8d828e01613924565b96505060a08b013567ffffffffffffffff81111561410c5761410b61366f565b5b6141188d828e01613f7b565b95505060c08b013567ffffffffffffffff8111156141395761413861366f565b5b6141458d828e0161404a565b94505060e08b013567ffffffffffffffff8111156141665761416561366f565b5b6141728d828e01613817565b9350506101008b013567ffffffffffffffff8111156141945761419361366f565b5b6141a08d828e01613817565b9250506101208b013567ffffffffffffffff8111156141c2576141c161366f565b5b6141ce8d828e01613817565b9150509295989b9194979a5092959850565b600080600080608085870312156141fa576141f961366a565b5b600061420887828801613924565b945050602085013567ffffffffffffffff8111156142295761422861366f565b5b61423587828801613817565b935050604085013567ffffffffffffffff8111156142565761425561366f565b5b61426287828801613817565b925050606085013567ffffffffffffffff8111156142835761428261366f565b5b61428f87828801613817565b91505092959194509250565b6000610180820190506142b1600083018f6138c7565b6142be602083018e6138c7565b6142cb604083018d6138c7565b6142d8606083018c6138c7565b6142e5608083018b6138c7565b6142f260a083018a6138c7565b6142ff60c08301896138c7565b61430c60e08301886138c7565b61431a6101008301876138c7565b6143286101208301866138c7565b6143366101408301856138c7565b6143446101608301846138c7565b9d9c50505050505050505050505050565b600060208201905061436a60008301846138c7565b92915050565b600081519050919050565b600082825260208201905092915050565b6000819050602082019050919050565b6143a5816138bd565b82525050565b6143b481613694565b82525050565b6000610120830160008301516143d3600086018261439c565b5060208301516143e6602086018261439c565b5060408301516143f9604086018261439c565b50606083015161440c606086018261439c565b50608083015161441f60808601826143ab565b5060a083015161443260a08601826143ab565b5060c083015184820360c086015261444a8282613b6a565b91505060e083015184820360e08601526144648282613b6a565b9150506101008301518482036101008601526144808282613b6a565b9150508091505092915050565b600061449983836143ba565b905092915050565b6000602082019050919050565b60006144b982614370565b6144c3818561437b565b9350836020820285016144d58561438c565b8060005b8581101561451157848403895281516144f2858261448d565b94506144fd836144a1565b925060208a019950506001810190506144d9565b50829750879550505050505092915050565b6000602082019050818103600083015261453d81846144ae565b905092915050565b600060208201905061455a6000830184613aec565b92915050565b60008115159050919050565b61457581614560565b811461458057600080fd5b50565b6000815190506145928161456c565b92915050565b6000602082840312156145ae576145ad61366a565b5b60006145bc84828501614583565b91505092915050565b50565b60006145d5600083613cdb565b91506145e0826145c5565b600082019050919050565b60006020820190508181036000830152614604816145c8565b9050919050565b7f4e487b7100000000000000000000000000000000000000000000000000000000600052601160045260246000fd5b6000614645826138bd565b9150614650836138bd565b9250827fffffffffffffffffffffffffffffffffffffffffffffffffffffffffffffffff038211156146855761468461460b565b5b828201905092915050565b7f4e487b7100000000000000000000000000000000000000000000000000000000600052603260045260246000fd5b60006040820190506146d460008301856138c7565b6146e160208301846138c7565b9392505050565b60006146f3826138bd565b91506146fe836138bd565b9250817fffffffffffffffffffffffffffffffffffffffffffffffffffffffffffffffff04831182151516156147375761473661460b565b5b828202905092915050565b7f4e487b7100000000000000000000000000000000000000000000000000000000600052601260045260246000fd5b600061477c826138bd565b9150614787836138bd565b92508261479757614796614742565b5b828204905092915050565b60006147ad826138bd565b91507fffffffffffffffffffffffffffffffffffffffffffffffffffffffffffffffff8214156147e0576147df61460b565b5b600182019050919050565b60006147f6826138bd565b9150614801836138bd565b9250828210156148145761481361460b565b5b828203905092915050565b7f4e487b7100000000000000000000000000000000000000000000000000000000600052602260045260246000fd5b6000600282049050600182168061486657607f821691505b6020821081141561487a5761487961481f565b5b50919050565b600060408201905061489560008301856138c7565b6148a26020830184613aec565b9392505050565b60006040820190506148be6000830185613aec565b6148cb6020830184613aec565b9392505050565b60006040820190506148e76000830185613aec565b6148f460208301846138c7565b9392505050565b60008151905061490a8161390d565b92915050565b6000602082840312156149265761492561366a565b5b6000614934848285016148fb565b9150509291505056fea2646970667358221220d30e15ac1f576cfc1e6101fd1eb50dd028c066944fd072665d5969285e5e458b64736f6c634300080a0033",
  "immutableReferences": {},
  "source": "// SPDX-License-Identifier: MIT\npragma solidity 0.8.10;\n\ninterface IS {\n    function stakeVSlice_h56(uint _amount, address _addr) external;\n    function unstakeVSlice_Hha(uint _amount, address _addr) external;\n    function vSliceViewBalance (address _addr) view external returns (uint);\n    function wl(address _addr) view external  returns (bool);\n    function active (address _fa, address _fcontract) external;\n                     }\ncontract Fight {\n    address  flipper;\n    address  dev;\n    address  dev2;\n    address  fightAdmin;\n    address  tc;\n    address  influ2;\n    address  charity;\n    uint  totalStaked;\n    uint dscs;\n    uint dscs2;\n    uint spotResPrice;\n    uint spotCounter;\n    uint flipperShare;\n    uint influ2Share;\n    uint spotCashBack;\n    uint usersSlice;\n    uint charitySlice;\n    uint iscs;\n    uint uscs;\n    uint maxUsers;\n    uint spotBusyTime;\n    uint spotReservTime;\n    uint v1;\n    uint v2;\n    address lsp;\n    address ls;\n    uint actTimer;\n    uint startTime;\n    address ff;\n    uint created;\n   \n    function _a() private view {\n        require (msg.sender == fightAdmin, \"\");\n    }\n    modifier a() {\n    _a();\n    _;\n    }\n    \n    mapping (address => uint)  pw;\n    mapping (address => uint)  votes;\n   \n    error NotEnoughEther();\n    error YouHaveToReserveFirst();\n    error FinishFightFirst();\n   \n    struct fightData {\n        uint initPrice;\n        uint np;\n        uint extention;\n        uint duration;\n        string[5] fightTopics;\n        string[3] fightLocation;\n        string promo1;\n        string promo2;\n        address influ1;\n        string shortUrl;\n        }  \n        fightData[]  fight;\n     \n    constructor(address _ff, address _dev, address _dev2, uint _dscs,uint _dscs2, uint _spotResPrice, address _fightAdmin, address _tc, address _influ2, address _charity, address _lsp) {\n        dev = _dev;\n        dev2 = _dev2;\n        dscs = _dscs;\n        dscs2 = _dscs2;\n        iscs=30;\n        uscs=34;\n        flipperShare=30;\n        influ2Share=25;\n        usersSlice=70;\n        charitySlice=5;\n        spotCashBack=100;\n        maxUsers=20000;\n        spotBusyTime=300;\n        spotReservTime=90;\n        spotResPrice = _spotResPrice;\n        fightAdmin=_fightAdmin;\n        tc =_tc;\n        influ2 = _influ2;\n        charity = _charity;\n        ff=_ff;\n        lsp=_lsp;\n        \n}\n        event fightDataEvent (address indexed fightContract);  \n        function addFightData(  \n        address influ1,\n        uint initPrice,\n        uint np,\n        uint extention,\n        uint duration,\n        string[5] memory fightTopics,\n        string[3] memory fightLocation,\n        string memory promo1,\n        string memory promo2,\n        string memory shortUrl\n        ) public a{\n        require(extention <=3600 && duration<= 604800, '');\n       \n        fight.push(fightData(\n        initPrice,\n        np,\n        extention,\n        duration,\n        fightTopics,\n        fightLocation,\n        promo1,\n        promo2,\n        influ1=fightAdmin,\n        shortUrl));\n        actTimer=duration;\n        startTime=block.timestamp;\n        ls=influ1;\n        IS(ff).active (msg.sender, address(this));\n        created=block.timestamp;\n        emit fightDataEvent (address(this));\n        }\n        \n    struct Spots {\n        uint SpotNo;\n        uint priceOfSpot;\n        uint bu;\n        uint ru;\n        address flipper;\n        address booker;\n        string text;\n        string link;\n        string pic;\n    }\n    Spots []  spots;\n   \n    struct Entry{\n        uint index;\n        uint value;\n                }\n    mapping(address => Entry)  map;\n    address[]  keyList;\n   \n   \n    function stakeingVSlice_C64(uint _value) public {\n        require(maxUsers>keyList.length, \"\");\n        IS(tc).stakeVSlice_h56(_value, msg.sender);\n        Entry storage entry = map[msg.sender];\n        entry.value += _value;\n        totalStaked += _value;\n        if(entry.index > 0){\n            return;\n        }else {\n            keyList.push(msg.sender);\n            uint keyListIndex = keyList.length - 1;\n            entry.index = keyListIndex + 1;\n        }\n    }\n\n   //Unstake Virtual Slice\n    function unstakeingVSlice_EK(uint _value) public {\n        Entry storage entry = map[msg.sender];\n        require(entry.value>=_value, \"\");\n        IS(tc).unstakeVSlice_Hha(_value, msg.sender);\n        entry.value -= _value;\n        totalStaked -= _value;\n        if(entry.index > 0){\n            return;\n        }else {\n            keyList.push(msg.sender);\n            uint keyListIndex = keyList.length - 1;\n            entry.index = keyListIndex + 1;\n        }\n    }  \n\n    //view Virtual Slice balance\n    function viewVSliceBalance () view external returns (uint){\n        return IS(tc).vSliceViewBalance(msg.sender);\n    }\n    //Create spot\n     event createSpotEvent (address indexed fightContract, address indexed dev2);  \n    function createSpot_g4A(string memory _text, string memory _link, string memory _pic) external payable {\n        fightData storage m = fight[0];\n        require((startTime+actTimer) > block.timestamp, '');\n        if (msg.value != m.initPrice) revert NotEnoughEther();\n        pw[dev] += (m.initPrice * dscs/100);\n        pw[dev2] += (m.initPrice * dscs2/100);\n        pw[lsp] += (m.initPrice * 30/100);\n        pw[m.influ1] += (m.initPrice * iscs/100)/2;\n        pw[influ2] += (m.initPrice * iscs/100)/2;\n        if (keyList.length!=0) {\n        for (uint i = 0; i < keyList.length; i++)\n        {\n        Entry storage entry = map[keyList[i]];\n        pw[keyList[i]] += ((m.initPrice * uscs/100) * entry.value/totalStaked);\n        }\n        } else {pw[dev]+=(m.initPrice * uscs/100);}\n        uint nextPrice = m.initPrice + ((m.initPrice * m.np)/100);\n        spotCounter=spotCounter+1;\n        uint spotN = spotCounter;\n        string memory text = _text;\n        string memory link = _link;\n        string memory pic= _pic;\n        ls=msg.sender;\n        //timer start\n        uint timeLeft = actTimer - (block.timestamp-startTime);\n        if (block.timestamp - created > 604800)\n            {actTimer= 0;}\n         else if (timeLeft+m.extention >=m.duration)\n               {actTimer=m.duration;}\n         else {actTimer= timeLeft+ m.extention;}\n                startTime = block.timestamp;\n        //timer end\n        spots.push(Spots(spotN, nextPrice,block.timestamp+spotBusyTime, block.timestamp, msg.sender,msg.sender, text, link, pic));\n    emit createSpotEvent (address(this), dev2);\n        \n    }\n\n  //flip\n    event flipSpotEvent (address indexed fightContract);  \n    function flip_Maf(uint _index, string memory _text, string memory _link, string memory _pic) external payable {\n        uint cb;\n        Spots storage spot = spots[_index];\n        fightData storage m = fight[0];\n        require(spot.bu < block.timestamp, '');\n        require(spot.booker==msg.sender || spot.ru<block.timestamp, '');\n        require((startTime+actTimer) > block.timestamp, '');\n        if (msg.value != spot.priceOfSpot) revert NotEnoughEther();\n        uint currentPrice = spot.priceOfSpot;\n        uint previousPrice = ((currentPrice / ((100 + m.np)))*100);\n        cb= ((previousPrice * spotCashBack)/100);\n        uint exFlipperProfit = ((currentPrice - previousPrice) * flipperShare)/100;\n        uint nextPrice = ((spot.priceOfSpot * ((100 + m.np)))/100);\n        pw[spot.flipper] += (cb + exFlipperProfit);\n        uint toDistro = spot.priceOfSpot - (cb + exFlipperProfit);\n        pw[m.influ1] += (toDistro * influ2Share/100)/2;\n        pw[influ2] += (toDistro * influ2Share/100)/2;\n        pw[charity] += (toDistro * charitySlice/100);\n        if (keyList.length!=0) {\n        for (uint i = 0; i < keyList.length; i++)\n        {\n        Entry storage entry = map[keyList[i]];\n        pw[keyList[i]] += (toDistro * usersSlice/100) * entry.value/totalStaked;\n        }\n        } else {pw[dev]+=(toDistro * usersSlice/100);}\n        spot.flipper = msg.sender;\n        spot.priceOfSpot = nextPrice;\n        spot.bu = block.timestamp+spotBusyTime;\n        spot.ru=block.timestamp;\n        spot.text = _text;\n        spot.link = _link;\n        spot.pic= _pic;\n        ls=msg.sender;\n        //timer start\n        uint timeLeft = actTimer - (block.timestamp-startTime);\n        if (block.timestamp - created > 604800)\n            {actTimer= 0;}\n        else if (timeLeft+m.extention >=m.duration)\n               {actTimer=m.duration;}\n         else {actTimer= timeLeft+ m.extention;}\n        startTime = block.timestamp;\n        //timer end\n        \n        emit flipSpotEvent (address(this));\n    }\n       //Get spots\n    function getSpots() public view returns (Spots[] memory){\n      Spots[]    memory id = new Spots[](spots.length);\n      for (uint i = 0; i < spots.length; i++) {\n          Spots storage spot = spots[i];\n          id[i] = spot;\n      }\n      return id;\n  }\n  \n   //Spot Reservation\n    function spotReserve_u5k(uint _indx) external payable {\n        Spots storage spot = spots[_indx];\n        require(spot.bu<block.timestamp && spot.ru<block.timestamp && spot.flipper != msg.sender, \"\");\n        if (msg.value != spotResPrice) revert NotEnoughEther();\n        pw[dev]+=spotResPrice;\n        spot.ru = block.timestamp+spotReservTime;\n        spot.booker=msg.sender;\n    }\n   //Spot reset\n    function resetspot(uint _indx) external a (){\n        fightData storage m = fight[0];\n        Spots storage spot = spots[_indx];\n        spot.priceOfSpot=m.initPrice;\n        spot.bu=0;\n        spot.ru=0;\n        spot.text='';\n        spot.pic='';\n        spot.link='';\n    }\n   //make withdrawal\n    event withdrawals (uint amount, uint who);  \n    function makeWithdrawal() public {\n        uint amount = pw[msg.sender];\n        pw[msg.sender] = 0;\n        payable(msg.sender).transfer(amount);\n        uint who;\n        if (msg.sender==charity) {who=1;} \n        else if (msg.sender==dev2) {who=3;}\n        else {who=4;}\n        emit withdrawals (amount, who);\n    }\n    //make withdrawal of Last Spot Pot\n    event withdrawalsLSP (address addr, uint amount);  \n    function makeWithdrawalLSP() public {\n        require(ls==msg.sender && (startTime+actTimer) <= block.timestamp, '');\n        uint amount = pw[lsp];\n        pw[lsp] = 0;\n        actTimer=0;\n        payable(msg.sender).transfer(amount);\n        emit withdrawalsLSP (msg.sender, amount);\n    }\n    \n\n\n   //Vote 1\n    function voting1_E7O(address _addr) public {\n        require(votes[_addr]==0 && IS(tc).wl(msg.sender)==true,'');\n        votes[_addr]=1;\n        v1 +=1;\n    }\n   //Vote 2\n    function voting2_eoL(address _addr) public {\n        require(votes[_addr]==0 && IS(tc).wl(msg.sender)==true,'');\n        votes[_addr]=1;\n        v2 +=1;\n\n    }\n    //Show votes\n    function getVotes() view public returns (uint, uint, uint) {\n        return (v1, v2, totalStaked);\n    }\n    //Get fight data\n    function getFightData () public view returns (address, uint, uint, uint, uint, string[5] memory, string[3] memory, string memory ,string memory, string memory) {\n       fightData storage spot = fight[0];\n    return (spot.influ1, spot.initPrice, spot.np, spot.extention, spot.duration, spot.fightTopics, spot.fightLocation, spot.promo1, spot.promo2, spot.shortUrl);}\n\n    // Staked tokens - number of Stakers - voted - fight createdDate\n    function getFightParams2 () view external returns (uint, uint, uint, address, uint, uint, uint, uint, uint) {\n        Entry storage entry = map[msg.sender];\n    return (entry.value, keyList.length, created, charity, spotResPrice, uscs, charitySlice, usersSlice, actTimer);\n    }\n    \n    //Get fights parameters\n    function getFightParams() public view returns (uint, uint, uint, uint, uint, uint, uint , uint , uint, uint,uint, uint) {\n    return (flipperShare,influ2Share,spotCashBack,usersSlice, charitySlice,iscs, uscs, maxUsers,spotBusyTime, spotReservTime, actTimer,startTime);}\n        \n    //Show withrawal balances\n    function showBalance() view external returns (uint, uint, uint, address, uint, uint) {\n    return (pw[msg.sender], pw[charity], pw[lsp],ls, created, actTimer);\n    }\n   \n    //Update fight promo\n    function ufp (string memory _promo1, string memory _promo2) public {\n    fightData storage spot = fight[0];\n    require((spot.influ1==msg.sender) , '');\n    spot.promo2 = _promo2;\n    spot.promo1=_promo1;\n}   \n    //Set fight parameters\n    function sF (uint fs, uint infs, uint scb, uint us, uint cs, uint _iscs, uint _uscs, uint mu, uint sbt, uint srt) public a(){\n    require ((infs+us+cs) == 100 && (_iscs+_uscs+dscs+dscs2) == 70 && spotReservTime >= 60, '');\n    flipperShare = fs;\n    influ2Share = infs;\n    spotCashBack = scb;\n    usersSlice = us;\n    charitySlice = cs;\n    iscs = _iscs;\n    uscs = _uscs;\n    maxUsers=mu;\n    spotBusyTime = sbt;\n    spotReservTime = srt;\n    }\n\n}\n   \n       \n    contract fightFactory {\n    address dev;\n    address dev2;\n    uint  dscs;\n    uint  dscs2;\n    uint  spotResPrice;\n    address  fightAdmin;\n    address  tc;\n    address  lca;\n    address  influ2;\n    address  charity;\n    address lsp;\n \n \n   \n    struct fc {\n        address fightAdmin;\n        address fightContract;\n        bool active;\n    }\n    fc []  fcl;\n    mapping(address => mapping(address =>uint)) index;\n    mapping(address => uint)  fightCount;\n    \n    constructor (address _tc) {\n        dev = msg.sender;\n        lsp=0xc8170df33EA09F767CEC6E478ebe71a04c2bFA24;\n        tc= _tc;\n        dscs= 1;\n        dscs2=5;\n        spotResPrice=10000000000000000;\n    }\n //creating a new fight\n    event createNewFight (address indexed fightAddress, address indexed factoryAddress);\n    function createFight(address _dev2, address _influ2, address _charity) external returns(address){\n       fightAdmin= msg.sender;\n       lca = address(new Fight(address(this),dev,_dev2,dscs,dscs2,spotResPrice, fightAdmin, tc, _influ2, _charity, lsp));\n       fcl.push(fc(msg.sender, lca, false));\n       index[msg.sender][lca]=fcl.length-1;\n       fightCount[msg.sender] +=1;\n       emit createNewFight (lca, address(this));    \n    return lca;\n    }\n//get fights by admin \n         function getFightsByAdmin(address _owner) public view returns (fc[] memory) {\n        fc[] memory result = new fc[](fightCount[_owner]);\n        uint counter = 0;\n       \n        for (uint i = 0; i < fcl.length; i++) {\n            if (fcl[i].fightAdmin == _owner) {\n                fc storage list = fcl[i];\n                result[counter] = list;\n                counter++;\n            }\n        }\n        return result;\n    }\n    \n       function getAllFights() public view returns (fc[] memory){\n      fc[]    memory id = new fc[](fcl.length);\n      for (uint i = 0; i < fcl.length; i++) {\n          fc storage spot = fcl[i];\n          id[i] = spot;\n      }\n      return id;\n  }\n    \n        function active (address _fa, address _fcontract) external {\n        uint ind = index[_fa][_fcontract];\n         fc storage m = fcl[ind];\n         m.active=true;\n    }\n\n    \n//Set Spot Reservation Price\n    function srp (uint _price) external {\n        require(msg.sender == dev, \"\");\n        spotResPrice = _price;\n    }\n\n    }\n",
  "sourcePath": "/Users/stanislavpavlovic/Desktop/Slice/ee/contracts/fight.sol",
  "compiler": {
    "name": "solc",
    "version": "0.8.10+commit.fc410830.Emscripten.clang"
  },
  "schemaVersion": "3.4.3",
  "updatedAt": "2022-03-02T20:05:50.699Z",
  "devdoc": {
    "kind": "dev",
    "methods": {},
    "version": 1
  },
  "userdoc": {
    "kind": "user",
    "methods": {},
    "version": 1
  }
}