{
  "contractName": "Fight",
  "abi": [
    {
      "inputs": [
        {
          "internalType": "address",
          "name": "_ff",
          "type": "address"
        },
        {
          "internalType": "address",
          "name": "_dev",
          "type": "address"
        },
        {
          "internalType": "address",
          "name": "_dev2",
          "type": "address"
        },
        {
          "internalType": "uint256",
          "name": "_dscs",
          "type": "uint256"
        },
        {
          "internalType": "uint256",
          "name": "_dscs2",
          "type": "uint256"
        },
        {
          "internalType": "uint256",
          "name": "_spotResPrice",
          "type": "uint256"
        },
        {
          "internalType": "address",
          "name": "_fightAdmin",
          "type": "address"
        },
        {
          "internalType": "address",
          "name": "_tc",
          "type": "address"
        },
        {
          "internalType": "address",
          "name": "_influ2",
          "type": "address"
        },
        {
          "internalType": "address",
          "name": "_charity",
          "type": "address"
        },
        {
          "internalType": "address",
          "name": "_lsp",
          "type": "address"
        }
      ],
      "stateMutability": "nonpayable",
      "type": "constructor"
    },
    {
      "inputs": [],
      "name": "FinishFightFirst",
      "type": "error"
    },
    {
      "inputs": [],
      "name": "NotEnoughEther",
      "type": "error"
    },
    {
      "inputs": [],
      "name": "YouHaveToReserveFirst",
      "type": "error"
    },
    {
      "anonymous": false,
      "inputs": [
        {
          "indexed": true,
          "internalType": "address",
          "name": "fightContract",
          "type": "address"
        },
        {
          "indexed": true,
          "internalType": "address",
          "name": "dev2",
          "type": "address"
        }
      ],
      "name": "createSpotEvent",
      "type": "event"
    },
    {
      "anonymous": false,
      "inputs": [
        {
          "indexed": true,
          "internalType": "address",
          "name": "fightContract",
          "type": "address"
        }
      ],
      "name": "fightDataEvent",
      "type": "event"
    },
    {
      "anonymous": false,
      "inputs": [
        {
          "indexed": true,
          "internalType": "address",
          "name": "fightContract",
          "type": "address"
        }
      ],
      "name": "flipSpotEvent",
      "type": "event"
    },
    {
      "anonymous": false,
      "inputs": [
        {
          "indexed": true,
          "internalType": "address",
          "name": "fightContract",
          "type": "address"
        }
      ],
      "name": "spotR",
      "type": "event"
    },
    {
      "anonymous": false,
      "inputs": [
        {
          "indexed": false,
          "internalType": "uint256",
          "name": "amount",
          "type": "uint256"
        },
        {
          "indexed": false,
          "internalType": "uint256",
          "name": "who",
          "type": "uint256"
        }
      ],
      "name": "withdrawals",
      "type": "event"
    },
    {
      "anonymous": false,
      "inputs": [
        {
          "indexed": false,
          "internalType": "uint256",
          "name": "amount",
          "type": "uint256"
        }
      ],
      "name": "withdrawalsLSP",
      "type": "event"
    },
    {
      "inputs": [
        {
          "internalType": "address",
          "name": "influ1",
          "type": "address"
        },
        {
          "internalType": "uint256",
          "name": "initPrice",
          "type": "uint256"
        },
        {
          "internalType": "uint256",
          "name": "np",
          "type": "uint256"
        },
        {
          "internalType": "uint256",
          "name": "extention",
          "type": "uint256"
        },
        {
          "internalType": "uint256",
          "name": "duration",
          "type": "uint256"
        },
        {
          "internalType": "string[5]",
          "name": "fightTopics",
          "type": "string[5]"
        },
        {
          "internalType": "string[3]",
          "name": "fightLocation",
          "type": "string[3]"
        },
        {
          "internalType": "uint256",
          "name": "totalFollowers",
          "type": "uint256"
        },
        {
          "internalType": "string",
          "name": "promo1",
          "type": "string"
        },
        {
          "internalType": "string",
          "name": "promo2",
          "type": "string"
        }
      ],
      "name": "addFightData",
      "outputs": [],
      "stateMutability": "nonpayable",
      "type": "function"
    },
    {
      "inputs": [
        {
          "internalType": "uint256",
          "name": "_value",
          "type": "uint256"
        }
      ],
      "name": "stakeingVSlice_C64",
      "outputs": [],
      "stateMutability": "nonpayable",
      "type": "function"
    },
    {
      "inputs": [
        {
          "internalType": "uint256",
          "name": "_value",
          "type": "uint256"
        }
      ],
      "name": "unstakeingVSlice_EK",
      "outputs": [],
      "stateMutability": "nonpayable",
      "type": "function"
    },
    {
      "inputs": [],
      "name": "staked",
      "outputs": [
        {
          "internalType": "uint256",
          "name": "",
          "type": "uint256"
        },
        {
          "internalType": "uint256",
          "name": "",
          "type": "uint256"
        },
        {
          "internalType": "uint256",
          "name": "",
          "type": "uint256"
        },
        {
          "internalType": "uint256",
          "name": "",
          "type": "uint256"
        },
        {
          "internalType": "address",
          "name": "",
          "type": "address"
        },
        {
          "internalType": "address",
          "name": "",
          "type": "address"
        }
      ],
      "stateMutability": "view",
      "type": "function"
    },
    {
      "inputs": [],
      "name": "getFightParams",
      "outputs": [
        {
          "internalType": "uint256",
          "name": "",
          "type": "uint256"
        },
        {
          "internalType": "uint256",
          "name": "",
          "type": "uint256"
        },
        {
          "internalType": "uint256",
          "name": "",
          "type": "uint256"
        },
        {
          "internalType": "uint256",
          "name": "",
          "type": "uint256"
        },
        {
          "internalType": "uint256",
          "name": "",
          "type": "uint256"
        },
        {
          "internalType": "uint256",
          "name": "",
          "type": "uint256"
        },
        {
          "internalType": "uint256",
          "name": "",
          "type": "uint256"
        },
        {
          "internalType": "uint256",
          "name": "",
          "type": "uint256"
        },
        {
          "internalType": "uint256",
          "name": "",
          "type": "uint256"
        },
        {
          "internalType": "uint256",
          "name": "",
          "type": "uint256"
        },
        {
          "internalType": "uint256",
          "name": "",
          "type": "uint256"
        },
        {
          "internalType": "uint256",
          "name": "",
          "type": "uint256"
        }
      ],
      "stateMutability": "view",
      "type": "function"
    },
    {
      "inputs": [],
      "name": "viewVSliceBalance",
      "outputs": [
        {
          "internalType": "uint256",
          "name": "",
          "type": "uint256"
        }
      ],
      "stateMutability": "view",
      "type": "function"
    },
    {
      "inputs": [
        {
          "internalType": "string",
          "name": "_text",
          "type": "string"
        },
        {
          "internalType": "string",
          "name": "_link",
          "type": "string"
        },
        {
          "internalType": "string",
          "name": "_pic",
          "type": "string"
        }
      ],
      "name": "createSpot_g4A",
      "outputs": [],
      "stateMutability": "payable",
      "type": "function"
    },
    {
      "inputs": [
        {
          "internalType": "uint256",
          "name": "_index",
          "type": "uint256"
        },
        {
          "internalType": "string",
          "name": "_text",
          "type": "string"
        },
        {
          "internalType": "string",
          "name": "_link",
          "type": "string"
        },
        {
          "internalType": "string",
          "name": "_pic",
          "type": "string"
        }
      ],
      "name": "flip_Maf",
      "outputs": [],
      "stateMutability": "payable",
      "type": "function"
    },
    {
      "inputs": [],
      "name": "getSpots",
      "outputs": [
        {
          "components": [
            {
              "internalType": "uint256",
              "name": "SpotNo",
              "type": "uint256"
            },
            {
              "internalType": "uint256",
              "name": "priceOfSpot",
              "type": "uint256"
            },
            {
              "internalType": "uint256",
              "name": "bu",
              "type": "uint256"
            },
            {
              "internalType": "uint256",
              "name": "ru",
              "type": "uint256"
            },
            {
              "internalType": "address",
              "name": "flipper",
              "type": "address"
            },
            {
              "internalType": "address",
              "name": "booker",
              "type": "address"
            },
            {
              "internalType": "string",
              "name": "text",
              "type": "string"
            },
            {
              "internalType": "string",
              "name": "link",
              "type": "string"
            },
            {
              "internalType": "string",
              "name": "pic",
              "type": "string"
            }
          ],
          "internalType": "struct Fight.Spots[]",
          "name": "",
          "type": "tuple[]"
        }
      ],
      "stateMutability": "view",
      "type": "function"
    },
    {
      "inputs": [
        {
          "internalType": "uint256",
          "name": "_indx",
          "type": "uint256"
        }
      ],
      "name": "spotReserve_u5k",
      "outputs": [],
      "stateMutability": "payable",
      "type": "function"
    },
    {
      "inputs": [
        {
          "internalType": "uint256",
          "name": "_indx",
          "type": "uint256"
        }
      ],
      "name": "resetspot",
      "outputs": [],
      "stateMutability": "nonpayable",
      "type": "function"
    },
    {
      "inputs": [],
      "name": "makeWithdrawal",
      "outputs": [],
      "stateMutability": "nonpayable",
      "type": "function"
    },
    {
      "inputs": [],
      "name": "makeWithdrawalLSP",
      "outputs": [],
      "stateMutability": "nonpayable",
      "type": "function"
    },
    {
      "inputs": [],
      "name": "showBalance",
      "outputs": [
        {
          "internalType": "uint256",
          "name": "",
          "type": "uint256"
        },
        {
          "internalType": "uint256",
          "name": "",
          "type": "uint256"
        }
      ],
      "stateMutability": "view",
      "type": "function"
    },
    {
      "inputs": [],
      "name": "showLastSpotPot",
      "outputs": [
        {
          "internalType": "uint256",
          "name": "",
          "type": "uint256"
        },
        {
          "internalType": "address",
          "name": "",
          "type": "address"
        }
      ],
      "stateMutability": "view",
      "type": "function"
    },
    {
      "inputs": [
        {
          "internalType": "address",
          "name": "_addr",
          "type": "address"
        }
      ],
      "name": "voting1_E7O",
      "outputs": [],
      "stateMutability": "nonpayable",
      "type": "function"
    },
    {
      "inputs": [
        {
          "internalType": "address",
          "name": "_addr",
          "type": "address"
        }
      ],
      "name": "voting2_eoL",
      "outputs": [],
      "stateMutability": "nonpayable",
      "type": "function"
    },
    {
      "inputs": [],
      "name": "getVotes",
      "outputs": [
        {
          "internalType": "uint256",
          "name": "",
          "type": "uint256"
        },
        {
          "internalType": "uint256",
          "name": "",
          "type": "uint256"
        }
      ],
      "stateMutability": "view",
      "type": "function"
    },
    {
      "inputs": [],
      "name": "getFightData",
      "outputs": [
        {
          "internalType": "address",
          "name": "",
          "type": "address"
        },
        {
          "internalType": "uint256",
          "name": "",
          "type": "uint256"
        },
        {
          "internalType": "uint256",
          "name": "",
          "type": "uint256"
        },
        {
          "internalType": "uint256",
          "name": "",
          "type": "uint256"
        },
        {
          "internalType": "uint256",
          "name": "",
          "type": "uint256"
        },
        {
          "internalType": "string[5]",
          "name": "",
          "type": "string[5]"
        },
        {
          "internalType": "string[3]",
          "name": "",
          "type": "string[3]"
        },
        {
          "internalType": "uint256",
          "name": "",
          "type": "uint256"
        },
        {
          "internalType": "string",
          "name": "",
          "type": "string"
        },
        {
          "internalType": "string",
          "name": "",
          "type": "string"
        },
        {
          "internalType": "uint256",
          "name": "",
          "type": "uint256"
        }
      ],
      "stateMutability": "view",
      "type": "function"
    },
    {
      "inputs": [
        {
          "internalType": "string",
          "name": "_promo1",
          "type": "string"
        },
        {
          "internalType": "string",
          "name": "_promo2",
          "type": "string"
        }
      ],
      "name": "ufp",
      "outputs": [],
      "stateMutability": "nonpayable",
      "type": "function"
    },
    {
      "inputs": [
        {
          "internalType": "uint256",
          "name": "fs",
          "type": "uint256"
        },
        {
          "internalType": "uint256",
          "name": "infs",
          "type": "uint256"
        },
        {
          "internalType": "uint256",
          "name": "scb",
          "type": "uint256"
        },
        {
          "internalType": "uint256",
          "name": "us",
          "type": "uint256"
        },
        {
          "internalType": "uint256",
          "name": "cs",
          "type": "uint256"
        },
        {
          "internalType": "uint256",
          "name": "_iscs",
          "type": "uint256"
        },
        {
          "internalType": "uint256",
          "name": "_uscs",
          "type": "uint256"
        },
        {
          "internalType": "uint256",
          "name": "mu",
          "type": "uint256"
        },
        {
          "internalType": "uint256",
          "name": "sbt",
          "type": "uint256"
        },
        {
          "internalType": "uint256",
          "name": "srt",
          "type": "uint256"
        }
      ],
      "name": "sF",
      "outputs": [],
      "stateMutability": "nonpayable",
      "type": "function"
    }
  ],
  "bytecode": "0x60806040523480156200001157600080fd5b5060405162004e4738038062004e4783398181016040528101906200003791906200035b565b89600160006101000a81548173ffffffffffffffffffffffffffffffffffffffff021916908373ffffffffffffffffffffffffffffffffffffffff16021790555088600260006101000a81548173ffffffffffffffffffffffffffffffffffffffff021916908373ffffffffffffffffffffffffffffffffffffffff1602179055508760088190555086600981905550601e6011819055506022601281905550601e600c819055506019600d819055506028600f8190555060056010819055506064600e81905550614e206013819055506078601481905550603c60158190555085600a8190555084600360006101000a81548173ffffffffffffffffffffffffffffffffffffffff021916908373ffffffffffffffffffffffffffffffffffffffff16021790555083600460006101000a81548173ffffffffffffffffffffffffffffffffffffffff021916908373ffffffffffffffffffffffffffffffffffffffff16021790555082600560006101000a81548173ffffffffffffffffffffffffffffffffffffffff021916908373ffffffffffffffffffffffffffffffffffffffff16021790555081600660006101000a81548173ffffffffffffffffffffffffffffffffffffffff021916908373ffffffffffffffffffffffffffffffffffffffff1602179055508a601c60006101000a81548173ffffffffffffffffffffffffffffffffffffffff021916908373ffffffffffffffffffffffffffffffffffffffff16021790555080601860006101000a81548173ffffffffffffffffffffffffffffffffffffffff021916908373ffffffffffffffffffffffffffffffffffffffff160217905550505050505050505050505062000468565b600080fd5b600073ffffffffffffffffffffffffffffffffffffffff82169050919050565b6000620002e882620002bb565b9050919050565b620002fa81620002db565b81146200030657600080fd5b50565b6000815190506200031a81620002ef565b92915050565b6000819050919050565b620003358162000320565b81146200034157600080fd5b50565b60008151905062000355816200032a565b92915050565b60008060008060008060008060008060006101608c8e031215620003845762000383620002b6565b5b6000620003948e828f0162000309565b9b50506020620003a78e828f0162000309565b9a50506040620003ba8e828f0162000309565b9950506060620003cd8e828f0162000344565b9850506080620003e08e828f0162000344565b97505060a0620003f38e828f0162000344565b96505060c0620004068e828f0162000309565b95505060e0620004198e828f0162000309565b9450506101006200042d8e828f0162000309565b935050610120620004418e828f0162000309565b925050610140620004558e828f0162000309565b9150509295989b509295989b9093969950565b6149cf80620004786000396000f3fe6080604052600436106101265760003560e01c8063503cfdb7116100ab578063cb375a801161006f578063cb375a801461037d578063e51c484e14610399578063e7ac9ab4146103c2578063e8c90e88146103de578063f952112914610414578063fa9375711461043f57610126565b8063503cfdb7146102b05780636e4f43e6146102e55780637c0ce7ad1461031157806381b2d07b1461033a578063a5d7c82f1461036657610126565b80633951b4c9116100f25780633951b4c91461020257806344d164751461021957806347f9ba5e146102425780634ccf34961461026b5780634e3975af1461029457610126565b8061825e1461012b578061ecc8146101545780630126fe5e1461017d5780630b76619b146101a65780630dc96015146101d6575b600080fd5b34801561013757600080fd5b50610152600480360381019061014d919061382f565b61046a565b005b34801561016057600080fd5b5061017b6004803603810190610176919061382f565b6105f9565b005b34801561018957600080fd5b506101a4600480360381019061019f91906139a2565b610788565b005b3480156101b257600080fd5b506101bb610878565b6040516101cd96959493929190613a42565b60405180910390f35b3480156101e257600080fd5b506101eb61094b565b6040516101f9929190613aa3565b60405180910390f35b34801561020e57600080fd5b5061021761095c565b005b34801561022557600080fd5b50610240600480360381019061023b9190613af8565b610c11565b005b34801561024e57600080fd5b5061026960048036038101906102649190613bd7565b610d03565b005b34801561027757600080fd5b50610292600480360381019061028d9190613da7565b610df6565b005b6102ae60048036038101906102a99190613ef6565b611119565b005b3480156102bc57600080fd5b506102c5611a53565b6040516102dc9b9a999897969594939291906141c7565b60405180910390f35b3480156102f157600080fd5b506102fa611da7565b60405161030892919061428e565b60405180910390f35b34801561031d57600080fd5b5061033860048036038101906103339190613bd7565b611e37565b005b34801561034657600080fd5b5061034f61202d565b60405161035d929190613aa3565b60405180910390f35b34801561037257600080fd5b5061037b6120da565b005b610397600480360381019061039291906142b7565b6122db565b005b3480156103a557600080fd5b506103c060048036038101906103bb9190613bd7565b612c33565b005b6103dc60048036038101906103d79190613bd7565b612e27565b005b3480156103ea57600080fd5b506103f3613053565b60405161040b9c9b9a99989796959493929190614372565b60405180910390f35b34801561042057600080fd5b506104296130af565b604051610436919061442c565b60405180910390f35b34801561044b57600080fd5b50610454613152565b60405161046191906145fa565b60405180910390f35b6000601f60008373ffffffffffffffffffffffffffffffffffffffff1673ffffffffffffffffffffffffffffffffffffffff16815260200190815260200160002054148015610558575060011515600460009054906101000a900473ffffffffffffffffffffffffffffffffffffffff1673ffffffffffffffffffffffffffffffffffffffff16632fee9e7e336040518263ffffffff1660e01b8152600401610513919061461c565b602060405180830381865afa158015610530573d6000803e3d6000fd5b505050506040513d601f19601f82011682018060405250810190610554919061466f565b1515145b610597576040517f08c379a000000000000000000000000000000000000000000000000000000000815260040161058e906146c2565b60405180910390fd5b6001601f60008373ffffffffffffffffffffffffffffffffffffffff1673ffffffffffffffffffffffffffffffffffffffff168152602001908152602001600020819055506001601660008282546105ef9190614711565b9250508190555050565b6000601f60008373ffffffffffffffffffffffffffffffffffffffff1673ffffffffffffffffffffffffffffffffffffffff168152602001908152602001600020541480156106e7575060011515600460009054906101000a900473ffffffffffffffffffffffffffffffffffffffff1673ffffffffffffffffffffffffffffffffffffffff16632fee9e7e336040518263ffffffff1660e01b81526004016106a2919061461c565b602060405180830381865afa1580156106bf573d6000803e3d6000fd5b505050506040513d601f19601f820116820180604052508101906106e3919061466f565b1515145b610726576040517f08c379a000000000000000000000000000000000000000000000000000000000815260040161071d906146c2565b60405180910390fd5b6001601f60008373ffffffffffffffffffffffffffffffffffffffff1673ffffffffffffffffffffffffffffffffffffffff1681526020019081526020016000208190555060016017600082825461077e9190614711565b9250508190555050565b6000602060008154811061079f5761079e614767565b5b906000526020600020906010020190503373ffffffffffffffffffffffffffffffffffffffff1681600f0160009054906101000a900473ffffffffffffffffffffffffffffffffffffffff1673ffffffffffffffffffffffffffffffffffffffff1614610841576040517f08c379a0000000000000000000000000000000000000000000000000000000008152600401610838906146c2565b60405180910390fd5b8181600e01908051906020019061085992919061354a565b508281600d01908051906020019061087292919061354a565b50505050565b6000806000806000806000602260003373ffffffffffffffffffffffffffffffffffffffff1673ffffffffffffffffffffffffffffffffffffffff16815260200190815260200160002090508060010154602380549050601f60003373ffffffffffffffffffffffffffffffffffffffff1673ffffffffffffffffffffffffffffffffffffffff16815260200190815260200160002054601d5430600660009054906101000a900473ffffffffffffffffffffffffffffffffffffffff1696509650965096509650965050909192939495565b600080601654601754915091509091565b6000602060008154811061097357610972614767565b5b906000526020600020906010020190506000601e60003373ffffffffffffffffffffffffffffffffffffffff1673ffffffffffffffffffffffffffffffffffffffff1681526020019081526020016000205490506000601e60003373ffffffffffffffffffffffffffffffffffffffff1673ffffffffffffffffffffffffffffffffffffffff168152602001908152602001600020819055503373ffffffffffffffffffffffffffffffffffffffff166108fc829081150290604051600060405180830381858888f19350505050158015610a52573d6000803e3d6000fd5b506000600660009054906101000a900473ffffffffffffffffffffffffffffffffffffffff1673ffffffffffffffffffffffffffffffffffffffff163373ffffffffffffffffffffffffffffffffffffffff161415610ab45760019050610bd3565b82600f0160009054906101000a900473ffffffffffffffffffffffffffffffffffffffff1673ffffffffffffffffffffffffffffffffffffffff163373ffffffffffffffffffffffffffffffffffffffff161480610b5f5750600560009054906101000a900473ffffffffffffffffffffffffffffffffffffffff1673ffffffffffffffffffffffffffffffffffffffff163373ffffffffffffffffffffffffffffffffffffffff16145b15610b6d5760029050610bd2565b600260009054906101000a900473ffffffffffffffffffffffffffffffffffffffff1673ffffffffffffffffffffffffffffffffffffffff163373ffffffffffffffffffffffffffffffffffffffff161415610bcc5760039050610bd1565b600490505b5b5b7f7c1d4e62152e35c067e67c3cdcdc0949bbab739d7f67d5a13586d7e04da8020a8282604051610c04929190613aa3565b60405180910390a1505050565b610c196134b8565b604686888b610c289190614711565b610c329190614711565b148015610c64575060466009546008548688610c4e9190614711565b610c589190614711565b610c629190614711565b145b8015610c725750605a601554115b610cb1576040517f08c379a0000000000000000000000000000000000000000000000000000000008152600401610ca8906146c2565b60405180910390fd5b89600c8190555088600d8190555087600e8190555086600f8190555085601081905550846011819055508360128190555082601381905550816014819055508060158190555050505050505050505050565b610d0b6134b8565b60006020600081548110610d2257610d21614767565b5b90600052602060002090601002019050600060218381548110610d4857610d47614767565b5b9060005260206000209060090201905081600101548160010181905550600081600201819055506000816003018190555060405180602001604052806000815250816006019080519060200190610da092919061354a565b5060405180602001604052806000815250816008019080519060200190610dc892919061354a565b5060405180602001604052806000815250816007019080519060200190610df092919061354a565b50505050565b610dfe6134b8565b610e108711158015610e13575062093a808611155b610e52576040517f08c379a0000000000000000000000000000000000000000000000000000000008152600401610e49906146c2565b60405180910390fd5b60206040518061014001604052808581526020018b81526020018a8152602001898152602001888152602001878152602001868152602001848152602001838152602001600360009054906101000a900473ffffffffffffffffffffffffffffffffffffffff169c508c73ffffffffffffffffffffffffffffffffffffffff168152509080600181540180825580915050600190039060005260206000209060100201600090919091909150600082015181600001556020820151816001015560408201518160020155606082015181600301556080820151816004015560a082015181600501906005610f479291906135d0565b5060c082015181600a01906003610f5f929190613623565b5060e082015181600d019080519060200190610f7c92919061354a565b5061010082015181600e019080519060200190610f9a92919061354a565b5061012082015181600f0160006101000a81548173ffffffffffffffffffffffffffffffffffffffff021916908373ffffffffffffffffffffffffffffffffffffffff160217905550505085601a8190555042601b8190555089601960006101000a81548173ffffffffffffffffffffffffffffffffffffffff021916908373ffffffffffffffffffffffffffffffffffffffff160217905550601c60009054906101000a900473ffffffffffffffffffffffffffffffffffffffff1673ffffffffffffffffffffffffffffffffffffffff16635e4505c733306040518363ffffffff1660e01b8152600401611091929190614796565b600060405180830381600087803b1580156110ab57600080fd5b505af11580156110bf573d6000803e3d6000fd5b5050505042601d819055503073ffffffffffffffffffffffffffffffffffffffff167ff289b4a41b5728329fc76c351ab52bfe794cfabf7d0e99fb0f618e0b6cf8973260405160405180910390a250505050505050505050565b600060206000815481106111305761112f614767565b5b9060005260206000209060100201905042601a54601b546111519190614711565b11611191576040517f08c379a0000000000000000000000000000000000000000000000000000000008152600401611188906146c2565b60405180910390fd5b806001015434146111ce576040517f8a0d377900000000000000000000000000000000000000000000000000000000815260040160405180910390fd5b606460085482600101546111e291906147bf565b6111ec9190614848565b601e6000600160009054906101000a900473ffffffffffffffffffffffffffffffffffffffff1673ffffffffffffffffffffffffffffffffffffffff1673ffffffffffffffffffffffffffffffffffffffff168152602001908152602001600020600082825461125c9190614711565b925050819055506064600954826001015461127791906147bf565b6112819190614848565b601e6000600260009054906101000a900473ffffffffffffffffffffffffffffffffffffffff1673ffffffffffffffffffffffffffffffffffffffff1673ffffffffffffffffffffffffffffffffffffffff16815260200190815260200160002060008282546112f19190614711565b925050819055506064601e826001015461130b91906147bf565b6113159190614848565b601e6000601860009054906101000a900473ffffffffffffffffffffffffffffffffffffffff1673ffffffffffffffffffffffffffffffffffffffff1673ffffffffffffffffffffffffffffffffffffffff16815260200190815260200160002060008282546113859190614711565b925050819055506002606460115483600101546113a291906147bf565b6113ac9190614848565b6113b69190614848565b601e600083600f0160009054906101000a900473ffffffffffffffffffffffffffffffffffffffff1673ffffffffffffffffffffffffffffffffffffffff1673ffffffffffffffffffffffffffffffffffffffff16815260200190815260200160002060008282546114289190614711565b9250508190555060026064601154836001015461144591906147bf565b61144f9190614848565b6114599190614848565b601e6000600560009054906101000a900473ffffffffffffffffffffffffffffffffffffffff1673ffffffffffffffffffffffffffffffffffffffff1673ffffffffffffffffffffffffffffffffffffffff16815260200190815260200160002060008282546114c99190614711565b925050819055506000602380549050146116555760005b60238054905081101561164f576000602260006023848154811061150757611506614767565b5b9060005260206000200160009054906101000a900473ffffffffffffffffffffffffffffffffffffffff1673ffffffffffffffffffffffffffffffffffffffff1673ffffffffffffffffffffffffffffffffffffffff168152602001908152602001600020905060075481600101546064601254866001015461158a91906147bf565b6115949190614848565b61159e91906147bf565b6115a89190614848565b601e6000602385815481106115c0576115bf614767565b5b9060005260206000200160009054906101000a900473ffffffffffffffffffffffffffffffffffffffff1673ffffffffffffffffffffffffffffffffffffffff1673ffffffffffffffffffffffffffffffffffffffff16815260200190815260200160002060008282546116349190614711565b9250508190555050808061164790614879565b9150506114e0565b506116eb565b6064601254826001015461166991906147bf565b6116739190614848565b601e6000600160009054906101000a900473ffffffffffffffffffffffffffffffffffffffff1673ffffffffffffffffffffffffffffffffffffffff1673ffffffffffffffffffffffffffffffffffffffff16815260200190815260200160002060008282546116e39190614711565b925050819055505b600060648260020154836001015461170391906147bf565b61170d9190614848565b826001015461171c9190614711565b90506001600b5461172d9190614711565b600b819055506000600b54905060008690506000869050600086905033601960006101000a81548173ffffffffffffffffffffffffffffffffffffffff021916908373ffffffffffffffffffffffffffffffffffffffff1602179055506000601b544261179a91906148c2565b601a546117a791906148c2565b905062093a80601d54426117bb91906148c2565b11156117ce576000601a81905550611810565b86600401548760030154826117e39190614711565b106117f8578660040154601a8190555061180f565b8660030154816118089190614711565b601a819055505b5b42601b8190555060216040518061012001604052808781526020018881526020016014544261183f9190614711565b81526020014281526020013373ffffffffffffffffffffffffffffffffffffffff1681526020013373ffffffffffffffffffffffffffffffffffffffff1681526020018681526020018581526020018481525090806001815401808255809150506001900390600052602060002090600902016000909190919091506000820151816000015560208201518160010155604082015181600201556060820151816003015560808201518160040160006101000a81548173ffffffffffffffffffffffffffffffffffffffff021916908373ffffffffffffffffffffffffffffffffffffffff16021790555060a08201518160050160006101000a81548173ffffffffffffffffffffffffffffffffffffffff021916908373ffffffffffffffffffffffffffffffffffffffff16021790555060c082015181600601908051906020019061198d92919061354a565b5060e08201518160070190805190602001906119aa92919061354a565b506101008201518160080190805190602001906119c892919061354a565b505050600260009054906101000a900473ffffffffffffffffffffffffffffffffffffffff1673ffffffffffffffffffffffffffffffffffffffff163073ffffffffffffffffffffffffffffffffffffffff167f3bb25606af27fc0d095bee57e38dcccfee45c874307338d4b4cf85d992ce478560405160405180910390a350505050505050505050565b6000806000806000611a63613676565b611a6b61369d565b60006060806000806020600081548110611a8857611a87614767565b5b9060005260206000209060100201905080600f0160009054906101000a900473ffffffffffffffffffffffffffffffffffffffff1681600101548260020154836003015484600401548560050186600a01876000015488600d0189600e01600a5485600580602002604051908101604052809291906000905b82821015611ba4578382018054611b1790614925565b80601f0160208091040260200160405190810160405280929190818152602001828054611b4390614925565b8015611b905780601f10611b6557610100808354040283529160200191611b90565b820191906000526020600020905b815481529060010190602001808311611b7357829003601f168201915b505050505081526020019060010190611b01565b50505050955084600380602002604051908101604052809291906000905b82821015611c65578382018054611bd890614925565b80601f0160208091040260200160405190810160405280929190818152602001828054611c0490614925565b8015611c515780601f10611c2657610100808354040283529160200191611c51565b820191906000526020600020905b815481529060010190602001808311611c3457829003601f168201915b505050505081526020019060010190611bc2565b505050509450828054611c7790614925565b80601f0160208091040260200160405190810160405280929190818152602001828054611ca390614925565b8015611cf05780601f10611cc557610100808354040283529160200191611cf0565b820191906000526020600020905b815481529060010190602001808311611cd357829003601f168201915b50505050509250818054611d0390614925565b80601f0160208091040260200160405190810160405280929190818152602001828054611d2f90614925565b8015611d7c5780601f10611d5157610100808354040283529160200191611d7c565b820191906000526020600020905b815481529060010190602001808311611d5f57829003601f168201915b505050505091509b509b509b509b509b509b509b509b509b509b509b5050909192939495969798999a565b600080601e6000601860009054906101000a900473ffffffffffffffffffffffffffffffffffffffff1673ffffffffffffffffffffffffffffffffffffffff1673ffffffffffffffffffffffffffffffffffffffff16815260200190815260200160002054601960009054906101000a900473ffffffffffffffffffffffffffffffffffffffff16915091509091565b60238054905060135411611e80576040517f08c379a0000000000000000000000000000000000000000000000000000000008152600401611e77906146c2565b60405180910390fd5b600460009054906101000a900473ffffffffffffffffffffffffffffffffffffffff1673ffffffffffffffffffffffffffffffffffffffff1663d4f4648f82336040518363ffffffff1660e01b8152600401611edd92919061428e565b600060405180830381600087803b158015611ef757600080fd5b505af1158015611f0b573d6000803e3d6000fd5b505050506000602260003373ffffffffffffffffffffffffffffffffffffffff1673ffffffffffffffffffffffffffffffffffffffff168152602001908152602001600020905081816001016000828254611f669190614711565b925050819055508160076000828254611f7f9190614711565b92505081905550600081600001541115611f99575061202a565b6023339080600181540180825580915050600190039060005260206000200160009091909190916101000a81548173ffffffffffffffffffffffffffffffffffffffff021916908373ffffffffffffffffffffffffffffffffffffffff1602179055506000600160238054905061201091906148c2565b905060018161201f9190614711565b826000018190555050505b50565b600080601e60003373ffffffffffffffffffffffffffffffffffffffff1673ffffffffffffffffffffffffffffffffffffffff16815260200190815260200160002054601e6000600660009054906101000a900473ffffffffffffffffffffffffffffffffffffffff1673ffffffffffffffffffffffffffffffffffffffff1673ffffffffffffffffffffffffffffffffffffffff16815260200190815260200160002054915091509091565b3373ffffffffffffffffffffffffffffffffffffffff16601960009054906101000a900473ffffffffffffffffffffffffffffffffffffffff1673ffffffffffffffffffffffffffffffffffffffff16148015612146575042601a54601b546121439190614711565b11155b612185576040517f08c379a000000000000000000000000000000000000000000000000000000000815260040161217c906146c2565b60405180910390fd5b6000601e6000601860009054906101000a900473ffffffffffffffffffffffffffffffffffffffff1673ffffffffffffffffffffffffffffffffffffffff1673ffffffffffffffffffffffffffffffffffffffff1681526020019081526020016000205490506000601e6000601860009054906101000a900473ffffffffffffffffffffffffffffffffffffffff1673ffffffffffffffffffffffffffffffffffffffff1673ffffffffffffffffffffffffffffffffffffffff168152602001908152602001600020819055506000601a819055503373ffffffffffffffffffffffffffffffffffffffff166108fc829081150290604051600060405180830381858888f193505050501580156122a0573d6000803e3d6000fd5b507fa6e06c51167339b9e7407a701ac790f56c8c9599ba13994ccc80bca4f2a8523e816040516122d0919061442c565b60405180910390a150565b600080602186815481106122f2576122f1614767565b5b906000526020600020906009020190506000602060008154811061231957612318614767565b5b906000526020600020906010020190504282600201541061236f576040517f08c379a0000000000000000000000000000000000000000000000000000000008152600401612366906146c2565b60405180910390fd5b3373ffffffffffffffffffffffffffffffffffffffff168260050160009054906101000a900473ffffffffffffffffffffffffffffffffffffffff1673ffffffffffffffffffffffffffffffffffffffff1614806123d05750428260030154105b61240f576040517f08c379a0000000000000000000000000000000000000000000000000000000008152600401612406906146c2565b60405180910390fd5b428160040154601b546124229190614711565b11612462576040517f08c379a0000000000000000000000000000000000000000000000000000000008152600401612459906146c2565b60405180910390fd5b8160010154341461249f576040517f8a0d377900000000000000000000000000000000000000000000000000000000815260040160405180910390fd5b60008260010154905060006064836002015460646124bd9190614711565b836124c89190614848565b6124d291906147bf565b90506064600e54826124e491906147bf565b6124ee9190614848565b945060006064600c54838561250391906148c2565b61250d91906147bf565b6125179190614848565b9050600060648560020154606461252e9190614711565b876001015461253d91906147bf565b6125479190614848565b905081876125559190614711565b601e60008860040160009054906101000a900473ffffffffffffffffffffffffffffffffffffffff1673ffffffffffffffffffffffffffffffffffffffff1673ffffffffffffffffffffffffffffffffffffffff16815260200190815260200160002060008282546125c79190614711565b92505081905550600082886125dc9190614711565b87600101546125eb91906148c2565b905060026064600d54836125ff91906147bf565b6126099190614848565b6126139190614848565b601e600088600f0160009054906101000a900473ffffffffffffffffffffffffffffffffffffffff1673ffffffffffffffffffffffffffffffffffffffff1673ffffffffffffffffffffffffffffffffffffffff16815260200190815260200160002060008282546126859190614711565b9250508190555060026064600d548361269e91906147bf565b6126a89190614848565b6126b29190614848565b601e6000600560009054906101000a900473ffffffffffffffffffffffffffffffffffffffff1673ffffffffffffffffffffffffffffffffffffffff1673ffffffffffffffffffffffffffffffffffffffff16815260200190815260200160002060008282546127229190614711565b9250508190555060646010548261273991906147bf565b6127439190614848565b601e6000600660009054906101000a900473ffffffffffffffffffffffffffffffffffffffff1673ffffffffffffffffffffffffffffffffffffffff1673ffffffffffffffffffffffffffffffffffffffff16815260200190815260200160002060008282546127b39190614711565b925050819055506064601e826127c991906147bf565b6127d39190614848565b601e6000601860009054906101000a900473ffffffffffffffffffffffffffffffffffffffff1673ffffffffffffffffffffffffffffffffffffffff1673ffffffffffffffffffffffffffffffffffffffff16815260200190815260200160002060008282546128439190614711565b925050819055506000602380549050146129cb5760005b6023805490508110156129c5576000602260006023848154811061288157612880614767565b5b9060005260206000200160009054906101000a900473ffffffffffffffffffffffffffffffffffffffff1673ffffffffffffffffffffffffffffffffffffffff1673ffffffffffffffffffffffffffffffffffffffff168152602001908152602001600020905060075481600101546064600f548661290091906147bf565b61290a9190614848565b61291491906147bf565b61291e9190614848565b601e60006023858154811061293657612935614767565b5b9060005260206000200160009054906101000a900473ffffffffffffffffffffffffffffffffffffffff1673ffffffffffffffffffffffffffffffffffffffff1673ffffffffffffffffffffffffffffffffffffffff16815260200190815260200160002060008282546129aa9190614711565b925050819055505080806129bd90614879565b91505061285a565b50612a5d565b6064600f54826129db91906147bf565b6129e59190614848565b601e6000600160009054906101000a900473ffffffffffffffffffffffffffffffffffffffff1673ffffffffffffffffffffffffffffffffffffffff1673ffffffffffffffffffffffffffffffffffffffff1681526020019081526020016000206000828254612a559190614711565b925050819055505b338760040160006101000a81548173ffffffffffffffffffffffffffffffffffffffff021916908373ffffffffffffffffffffffffffffffffffffffff16021790555081876001018190555060145442612ab79190614711565b87600201819055504287600301819055508a876006019080519060200190612ae092919061354a565b5089876007019080519060200190612af992919061354a565b5088876008019080519060200190612b1292919061354a565b5033601960006101000a81548173ffffffffffffffffffffffffffffffffffffffff021916908373ffffffffffffffffffffffffffffffffffffffff1602179055506000601b5442612b6491906148c2565b601a54612b7191906148c2565b905062093a80601d5442612b8591906148c2565b1115612b98576000601a81905550612bda565b8660040154876003015482612bad9190614711565b10612bc2578660040154601a81905550612bd9565b866003015481612bd29190614711565b601a819055505b5b42601b819055503073ffffffffffffffffffffffffffffffffffffffff167fcf3438e5e5a168f4995d2cc612749d18b627ab2eb58f320f981cfff9bf5dd3f960405160405180910390a250505050505050505050505050565b6000602260003373ffffffffffffffffffffffffffffffffffffffff1673ffffffffffffffffffffffffffffffffffffffff16815260200190815260200160002090508181600101541015612cbd576040517f08c379a0000000000000000000000000000000000000000000000000000000008152600401612cb4906146c2565b60405180910390fd5b600460009054906101000a900473ffffffffffffffffffffffffffffffffffffffff1673ffffffffffffffffffffffffffffffffffffffff166361d42f6b83336040518363ffffffff1660e01b8152600401612d1a92919061428e565b600060405180830381600087803b158015612d3457600080fd5b505af1158015612d48573d6000803e3d6000fd5b5050505081816001016000828254612d6091906148c2565b925050819055508160076000828254612d7991906148c2565b92505081905550600081600001541115612d935750612e24565b6023339080600181540180825580915050600190039060005260206000200160009091909190916101000a81548173ffffffffffffffffffffffffffffffffffffffff021916908373ffffffffffffffffffffffffffffffffffffffff16021790555060006001602380549050612e0a91906148c2565b9050600181612e199190614711565b826000018190555050505b50565b600060218281548110612e3d57612e3c614767565b5b90600052602060002090600902019050428160020154108015612e635750428160030154105b8015612ebf57503373ffffffffffffffffffffffffffffffffffffffff168160040160009054906101000a900473ffffffffffffffffffffffffffffffffffffffff1673ffffffffffffffffffffffffffffffffffffffff1614155b612efe576040517f08c379a0000000000000000000000000000000000000000000000000000000008152600401612ef5906146c2565b60405180910390fd5b600a543414612f39576040517f8a0d377900000000000000000000000000000000000000000000000000000000815260040160405180910390fd5b600a54601e6000600160009054906101000a900473ffffffffffffffffffffffffffffffffffffffff1673ffffffffffffffffffffffffffffffffffffffff1673ffffffffffffffffffffffffffffffffffffffff1681526020019081526020016000206000828254612fac9190614711565b9250508190555060155442612fc19190614711565b8160030181905550338160050160006101000a81548173ffffffffffffffffffffffffffffffffffffffff021916908373ffffffffffffffffffffffffffffffffffffffff1602179055503073ffffffffffffffffffffffffffffffffffffffff167fe70fd5f4c6fe540496d50db6590910c3d15ab59dcf70213b05d73c34fbf4020560405160405180910390a25050565b600080600080600080600080600080600080600c54600d54600e54600f54601054601154601254601354601454601554601a54601b549b509b509b509b509b509b509b509b509b509b509b509b50909192939495969798999a9b565b6000600460009054906101000a900473ffffffffffffffffffffffffffffffffffffffff1673ffffffffffffffffffffffffffffffffffffffff166335703a3a336040518263ffffffff1660e01b815260040161310c919061461c565b602060405180830381865afa158015613129573d6000803e3d6000fd5b505050506040513d601f19601f8201168201806040525081019061314d919061496c565b905090565b6060600060218054905067ffffffffffffffff81111561317557613174613877565b5b6040519080825280602002602001820160405280156131ae57816020015b61319b6136c4565b8152602001906001900390816131935790505b50905060005b6021805490508110156134b0576000602182815481106131d7576131d6614767565b5b906000526020600020906009020190508060405180610120016040529081600082015481526020016001820154815260200160028201548152602001600382015481526020016004820160009054906101000a900473ffffffffffffffffffffffffffffffffffffffff1673ffffffffffffffffffffffffffffffffffffffff1673ffffffffffffffffffffffffffffffffffffffff1681526020016005820160009054906101000a900473ffffffffffffffffffffffffffffffffffffffff1673ffffffffffffffffffffffffffffffffffffffff1673ffffffffffffffffffffffffffffffffffffffff1681526020016006820180546132d890614925565b80601f016020809104026020016040519081016040528092919081815260200182805461330490614925565b80156133515780601f1061332657610100808354040283529160200191613351565b820191906000526020600020905b81548152906001019060200180831161333457829003601f168201915b5050505050815260200160078201805461336a90614925565b80601f016020809104026020016040519081016040528092919081815260200182805461339690614925565b80156133e35780601f106133b8576101008083540402835291602001916133e3565b820191906000526020600020905b8154815290600101906020018083116133c657829003601f168201915b505050505081526020016008820180546133fc90614925565b80601f016020809104026020016040519081016040528092919081815260200182805461342890614925565b80156134755780601f1061344a57610100808354040283529160200191613475565b820191906000526020600020905b81548152906001019060200180831161345857829003601f168201915b50505050508152505083838151811061349157613490614767565b5b60200260200101819052505080806134a890614879565b9150506131b4565b508091505090565b600360009054906101000a900473ffffffffffffffffffffffffffffffffffffffff1673ffffffffffffffffffffffffffffffffffffffff163373ffffffffffffffffffffffffffffffffffffffff1614613548576040517f08c379a000000000000000000000000000000000000000000000000000000000815260040161353f906146c2565b60405180910390fd5b565b82805461355690614925565b90600052602060002090601f01602090048101928261357857600085556135bf565b82601f1061359157805160ff19168380011785556135bf565b828001600101855582156135bf579182015b828111156135be5782518255916020019190600101906135a3565b5b5090506135cc919061373c565b5090565b8260058101928215613612579160200282015b8281111561361157825182908051906020019061360192919061354a565b50916020019190600101906135e3565b5b50905061361f9190613759565b5090565b8260038101928215613665579160200282015b8281111561366457825182908051906020019061365492919061354a565b5091602001919060010190613636565b5b5090506136729190613759565b5090565b6040518060a001604052806005905b60608152602001906001900390816136855790505090565b60405180606001604052806003905b60608152602001906001900390816136ac5790505090565b60405180610120016040528060008152602001600081526020016000815260200160008152602001600073ffffffffffffffffffffffffffffffffffffffff168152602001600073ffffffffffffffffffffffffffffffffffffffff1681526020016060815260200160608152602001606081525090565b5b8082111561375557600081600090555060010161373d565b5090565b5b808211156137795760008181613770919061377d565b5060010161375a565b5090565b50805461378990614925565b6000825580601f1061379b57506137ba565b601f0160209004906000526020600020908101906137b9919061373c565b5b50565b6000604051905090565b600080fd5b600080fd5b600073ffffffffffffffffffffffffffffffffffffffff82169050919050565b60006137fc826137d1565b9050919050565b61380c816137f1565b811461381757600080fd5b50565b60008135905061382981613803565b92915050565b600060208284031215613845576138446137c7565b5b60006138538482850161381a565b91505092915050565b600080fd5b600080fd5b6000601f19601f8301169050919050565b7f4e487b7100000000000000000000000000000000000000000000000000000000600052604160045260246000fd5b6138af82613866565b810181811067ffffffffffffffff821117156138ce576138cd613877565b5b80604052505050565b60006138e16137bd565b90506138ed82826138a6565b919050565b600067ffffffffffffffff82111561390d5761390c613877565b5b61391682613866565b9050602081019050919050565b82818337600083830152505050565b6000613945613940846138f2565b6138d7565b90508281526020810184848401111561396157613960613861565b5b61396c848285613923565b509392505050565b600082601f8301126139895761398861385c565b5b8135613999848260208601613932565b91505092915050565b600080604083850312156139b9576139b86137c7565b5b600083013567ffffffffffffffff8111156139d7576139d66137cc565b5b6139e385828601613974565b925050602083013567ffffffffffffffff811115613a0457613a036137cc565b5b613a1085828601613974565b9150509250929050565b6000819050919050565b613a2d81613a1a565b82525050565b613a3c816137f1565b82525050565b600060c082019050613a576000830189613a24565b613a646020830188613a24565b613a716040830187613a24565b613a7e6060830186613a24565b613a8b6080830185613a33565b613a9860a0830184613a33565b979650505050505050565b6000604082019050613ab86000830185613a24565b613ac56020830184613a24565b9392505050565b613ad581613a1a565b8114613ae057600080fd5b50565b600081359050613af281613acc565b92915050565b6000806000806000806000806000806101408b8d031215613b1c57613b1b6137c7565b5b6000613b2a8d828e01613ae3565b9a50506020613b3b8d828e01613ae3565b9950506040613b4c8d828e01613ae3565b9850506060613b5d8d828e01613ae3565b9750506080613b6e8d828e01613ae3565b96505060a0613b7f8d828e01613ae3565b95505060c0613b908d828e01613ae3565b94505060e0613ba18d828e01613ae3565b935050610100613bb38d828e01613ae3565b925050610120613bc58d828e01613ae3565b9150509295989b9194979a5092959850565b600060208284031215613bed57613bec6137c7565b5b6000613bfb84828501613ae3565b91505092915050565b600067ffffffffffffffff821115613c1f57613c1e613877565b5b602082029050919050565b600080fd5b6000613c42613c3d84613c04565b6138d7565b90508060208402830185811115613c5c57613c5b613c2a565b5b835b81811015613ca357803567ffffffffffffffff811115613c8157613c8061385c565b5b808601613c8e8982613974565b85526020850194505050602081019050613c5e565b5050509392505050565b600082601f830112613cc257613cc161385c565b5b6005613ccf848285613c2f565b91505092915050565b600067ffffffffffffffff821115613cf357613cf2613877565b5b602082029050919050565b6000613d11613d0c84613cd8565b6138d7565b90508060208402830185811115613d2b57613d2a613c2a565b5b835b81811015613d7257803567ffffffffffffffff811115613d5057613d4f61385c565b5b808601613d5d8982613974565b85526020850194505050602081019050613d2d565b5050509392505050565b600082601f830112613d9157613d9061385c565b5b6003613d9e848285613cfe565b91505092915050565b6000806000806000806000806000806101408b8d031215613dcb57613dca6137c7565b5b6000613dd98d828e0161381a565b9a50506020613dea8d828e01613ae3565b9950506040613dfb8d828e01613ae3565b9850506060613e0c8d828e01613ae3565b9750506080613e1d8d828e01613ae3565b96505060a08b013567ffffffffffffffff811115613e3e57613e3d6137cc565b5b613e4a8d828e01613cad565b95505060c08b013567ffffffffffffffff811115613e6b57613e6a6137cc565b5b613e778d828e01613d7c565b94505060e0613e888d828e01613ae3565b9350506101008b013567ffffffffffffffff811115613eaa57613ea96137cc565b5b613eb68d828e01613974565b9250506101208b013567ffffffffffffffff811115613ed857613ed76137cc565b5b613ee48d828e01613974565b9150509295989b9194979a5092959850565b600080600060608486031215613f0f57613f0e6137c7565b5b600084013567ffffffffffffffff811115613f2d57613f2c6137cc565b5b613f3986828701613974565b935050602084013567ffffffffffffffff811115613f5a57613f596137cc565b5b613f6686828701613974565b925050604084013567ffffffffffffffff811115613f8757613f866137cc565b5b613f9386828701613974565b9150509250925092565b600060059050919050565b600081905092915050565b6000819050919050565b600081519050919050565b600082825260208201905092915050565b60005b83811015613ff7578082015181840152602081019050613fdc565b83811115614006576000848401525b50505050565b600061401782613fbd565b6140218185613fc8565b9350614031818560208601613fd9565b61403a81613866565b840191505092915050565b6000614051838361400c565b905092915050565b6000602082019050919050565b600061407182613f9d565b61407b8185613fa8565b93508360208202850161408d85613fb3565b8060005b858110156140c957848403895281516140aa8582614045565b94506140b583614059565b925060208a01995050600181019050614091565b50829750879550505050505092915050565b600060039050919050565b600081905092915050565b6000819050919050565b6000602082019050919050565b6000614113826140db565b61411d81856140e6565b93508360208202850161412f856140f1565b8060005b8581101561416b578484038952815161414c8582614045565b9450614157836140fb565b925060208a01995050600181019050614133565b50829750879550505050505092915050565b600082825260208201905092915050565b600061419982613fbd565b6141a3818561417d565b93506141b3818560208601613fd9565b6141bc81613866565b840191505092915050565b6000610160820190506141dd600083018e613a33565b6141ea602083018d613a24565b6141f7604083018c613a24565b614204606083018b613a24565b614211608083018a613a24565b81810360a08301526142238189614066565b905081810360c08301526142378188614108565b905061424660e0830187613a24565b818103610100830152614259818661418e565b905081810361012083015261426e818561418e565b905061427e610140830184613a24565b9c9b505050505050505050505050565b60006040820190506142a36000830185613a24565b6142b06020830184613a33565b9392505050565b600080600080608085870312156142d1576142d06137c7565b5b60006142df87828801613ae3565b945050602085013567ffffffffffffffff811115614300576142ff6137cc565b5b61430c87828801613974565b935050604085013567ffffffffffffffff81111561432d5761432c6137cc565b5b61433987828801613974565b925050606085013567ffffffffffffffff81111561435a576143596137cc565b5b61436687828801613974565b91505092959194509250565b600061018082019050614388600083018f613a24565b614395602083018e613a24565b6143a2604083018d613a24565b6143af606083018c613a24565b6143bc608083018b613a24565b6143c960a083018a613a24565b6143d660c0830189613a24565b6143e360e0830188613a24565b6143f1610100830187613a24565b6143ff610120830186613a24565b61440d610140830185613a24565b61441b610160830184613a24565b9d9c50505050505050505050505050565b60006020820190506144416000830184613a24565b92915050565b600081519050919050565b600082825260208201905092915050565b6000819050602082019050919050565b61447c81613a1a565b82525050565b61448b816137f1565b82525050565b6000610120830160008301516144aa6000860182614473565b5060208301516144bd6020860182614473565b5060408301516144d06040860182614473565b5060608301516144e36060860182614473565b5060808301516144f66080860182614482565b5060a083015161450960a0860182614482565b5060c083015184820360c0860152614521828261400c565b91505060e083015184820360e086015261453b828261400c565b915050610100830151848203610100860152614557828261400c565b9150508091505092915050565b60006145708383614491565b905092915050565b6000602082019050919050565b600061459082614447565b61459a8185614452565b9350836020820285016145ac85614463565b8060005b858110156145e857848403895281516145c98582614564565b94506145d483614578565b925060208a019950506001810190506145b0565b50829750879550505050505092915050565b600060208201905081810360008301526146148184614585565b905092915050565b60006020820190506146316000830184613a33565b92915050565b60008115159050919050565b61464c81614637565b811461465757600080fd5b50565b60008151905061466981614643565b92915050565b600060208284031215614685576146846137c7565b5b60006146938482850161465a565b91505092915050565b50565b60006146ac60008361417d565b91506146b78261469c565b600082019050919050565b600060208201905081810360008301526146db8161469f565b9050919050565b7f4e487b7100000000000000000000000000000000000000000000000000000000600052601160045260246000fd5b600061471c82613a1a565b915061472783613a1a565b9250827fffffffffffffffffffffffffffffffffffffffffffffffffffffffffffffffff0382111561475c5761475b6146e2565b5b828201905092915050565b7f4e487b7100000000000000000000000000000000000000000000000000000000600052603260045260246000fd5b60006040820190506147ab6000830185613a33565b6147b86020830184613a33565b9392505050565b60006147ca82613a1a565b91506147d583613a1a565b9250817fffffffffffffffffffffffffffffffffffffffffffffffffffffffffffffffff048311821515161561480e5761480d6146e2565b5b828202905092915050565b7f4e487b7100000000000000000000000000000000000000000000000000000000600052601260045260246000fd5b600061485382613a1a565b915061485e83613a1a565b92508261486e5761486d614819565b5b828204905092915050565b600061488482613a1a565b91507fffffffffffffffffffffffffffffffffffffffffffffffffffffffffffffffff8214156148b7576148b66146e2565b5b600182019050919050565b60006148cd82613a1a565b91506148d883613a1a565b9250828210156148eb576148ea6146e2565b5b828203905092915050565b7f4e487b7100000000000000000000000000000000000000000000000000000000600052602260045260246000fd5b6000600282049050600182168061493d57607f821691505b60208210811415614951576149506148f6565b5b50919050565b60008151905061496681613acc565b92915050565b600060208284031215614982576149816137c7565b5b600061499084828501614957565b9150509291505056fea264697066735822122071ee35d26dd20c25224d4c89cc4b36e3f0643deaf48d45e29b3c3b8defb5b45964736f6c634300080a0033",
  "immutableReferences": {},
  "source": "// SPDX-License-Identifier: MIT\npragma solidity 0.8.10;\n\ninterface IS {\n    function stakeVSlice_h56(uint _amount, address _addr) external;\n    function unstakeVSlice_Hha(uint _amount, address _addr) external;\n    function vSliceViewBalance (address _addr) view external returns (uint);\n    function wl(address _addr) view external  returns (bool);\n    function active (address _fa, address _fcontract) external;\n                     }\ncontract Fight {\n    address  flipper;\n    address  dev;\n    address  dev2;\n    address  fightAdmin;\n    address  tc;\n    address  influ2;\n    address  charity;\n    uint  totalStaked;\n    uint dscs;\n    uint dscs2;\n    uint spotResPrice;\n    uint spotCounter;\n    uint flipperShare;\n    uint influ2Share;\n    uint spotCashBack;\n    uint usersSlice;\n    uint charitySlice;\n    uint iscs;\n    uint uscs;\n    uint maxUsers;\n    uint spotBusyTime;\n    uint spotReservTime;\n    uint v1;\n    uint v2;\n    address lsp;\n    address ls;\n    uint actTimer;\n    uint startTime;\n    address ff;\n    uint created;\n   \n    function _a() private view {\n        require (msg.sender == fightAdmin, \"\");\n    }\n    modifier a() {\n    _a();\n    _;\n    }\n    \n    mapping (address => uint)  pw;\n    mapping (address => uint)  votes;\n   \n    error NotEnoughEther();\n    error YouHaveToReserveFirst();\n    error FinishFightFirst();\n   \n    struct fightData {\n        uint totalFollowers;\n        uint initPrice;\n        uint np;\n        uint extention;\n        uint duration;\n        string[5] fightTopics;\n        string[3] fightLocation;\n        string promo1;\n        string promo2;\n        address influ1;\n        }  \n        fightData[]  fight;\n     \n    constructor(address _ff, address _dev, address _dev2, uint _dscs,uint _dscs2, uint _spotResPrice, address _fightAdmin, address _tc, address _influ2, address _charity, address _lsp) {\n        dev = _dev;\n        dev2 = _dev2;\n        dscs = _dscs;\n        dscs2 = _dscs2;\n        iscs=30;\n        uscs=34;\n        flipperShare=30;\n        influ2Share=25;\n        usersSlice=40;\n        charitySlice=5;\n        spotCashBack=100;\n        maxUsers=20000;\n        spotBusyTime=120;\n        spotReservTime=60;\n        spotResPrice = _spotResPrice;\n        fightAdmin=_fightAdmin;\n        tc =_tc;\n        influ2 = _influ2;\n        charity = _charity;\n        ff=_ff;\n        lsp=_lsp;\n        \n}\n        event fightDataEvent (address indexed fightContract);  \n        function addFightData(  \n        address influ1,\n        uint initPrice,\n        uint np,\n        uint extention,\n        uint duration,\n        string[5] memory fightTopics,\n        string[3] memory fightLocation,\n        uint totalFollowers,\n        string memory promo1,\n        string memory promo2\n        ) public a{\n        require(extention <=3600 && duration<= 604800, '');\n       \n        fight.push(fightData(\n        totalFollowers,\n        initPrice,\n        np,\n        extention,\n        duration,\n        fightTopics,\n        fightLocation,\n        promo1,\n        promo2,\n        influ1=fightAdmin));\n        actTimer=duration;\n        startTime=block.timestamp;\n        ls=influ1;\n        IS(ff).active (msg.sender, address(this));\n        created=block.timestamp;\n        emit fightDataEvent (address(this));\n        }\n        \n    struct Spots {\n        uint SpotNo;\n        uint priceOfSpot;\n        uint bu;\n        uint ru;\n        address flipper;\n        address booker;\n        string text;\n        string link;\n        string pic;\n    }\n    Spots []  spots;\n   \n    struct Entry{\n        uint index;\n        uint value;\n                }\n    mapping(address => Entry)  map;\n    address[]  keyList;\n   \n   \n   //stake Virtual Slice\n   //event stakers (address indexed f);\n    function stakeingVSlice_C64(uint _value) public {\n        require(maxUsers>keyList.length, \"\");\n        IS(tc).stakeVSlice_h56(_value, msg.sender);\n        Entry storage entry = map[msg.sender];\n        entry.value += _value;\n        totalStaked += _value;\n        if(entry.index > 0){\n            return;\n        }else {\n            keyList.push(msg.sender);\n            uint keyListIndex = keyList.length - 1;\n            entry.index = keyListIndex + 1;\n        }\n        //emit stakers(msg.sender);\n    }\n\n   //Unstake Virtual Slice\n    function unstakeingVSlice_EK(uint _value) public {\n        Entry storage entry = map[msg.sender];\n        require(entry.value>=_value, \"\");\n        IS(tc).unstakeVSlice_Hha(_value, msg.sender);\n        entry.value -= _value;\n        totalStaked -= _value;\n        if(entry.index > 0){\n            return;\n        }else {\n            keyList.push(msg.sender);\n            uint keyListIndex = keyList.length - 1;\n            entry.index = keyListIndex + 1;\n        }\n    }  \n    // Staked tokens - number of Stakers - voted - fight createdDate\n    function staked () view external returns (uint, uint, uint,uint, address, address) {\n        Entry storage entry = map[msg.sender];\n    return (entry.value, keyList.length, votes[msg.sender],created, address(this), charity);\n    }\n    \n    //Get fights parameters\n    function getFightParams() public view returns (uint, uint, uint, uint, uint, uint, uint , uint , uint, uint,uint, uint) {\n    return (flipperShare,influ2Share,spotCashBack,usersSlice, charitySlice,iscs, uscs, maxUsers,spotBusyTime, spotReservTime, actTimer,startTime);}\n    //Spot reservation price\n    \n    //view Virtual Slice balance\n    function viewVSliceBalance () view external returns (uint){\n        return IS(tc).vSliceViewBalance(msg.sender);\n    }\n    //Create spot\n     event createSpotEvent (address indexed fightContract, address indexed dev2);  \n    function createSpot_g4A(string memory _text, string memory _link, string memory _pic) external payable {\n        fightData storage m = fight[0];\n        require((startTime+actTimer) > block.timestamp, '');\n        if (msg.value != m.initPrice) revert NotEnoughEther();\n        pw[dev] += (m.initPrice * dscs/100);\n        pw[dev2] += (m.initPrice * dscs2/100);\n        pw[lsp] += (m.initPrice * 30/100);\n        pw[m.influ1] += (m.initPrice * iscs/100)/2;\n        pw[influ2] += (m.initPrice * iscs/100)/2;\n        if (keyList.length!=0) {\n        for (uint i = 0; i < keyList.length; i++)\n        {\n        Entry storage entry = map[keyList[i]];\n        pw[keyList[i]] += ((m.initPrice * uscs/100) * entry.value/totalStaked);\n        }\n        } else {pw[dev]+=(m.initPrice * uscs/100);}\n        uint nextPrice = m.initPrice + ((m.initPrice * m.np)/100);\n        spotCounter=spotCounter+1;\n        uint spotN = spotCounter;\n        string memory text = _text;\n        string memory link = _link;\n        string memory pic= _pic;\n        ls=msg.sender;\n        //timer start\n        uint timeLeft = actTimer - (block.timestamp-startTime);\n        if (block.timestamp - created >604800)\n            {actTimer= 0;}\n         else if (timeLeft+m.extention >=m.duration)\n               {actTimer=m.duration;}\n         else {actTimer= timeLeft+ m.extention;}\n                startTime = block.timestamp;\n        //timer end\n        spots.push(Spots(spotN, nextPrice,block.timestamp+spotBusyTime, block.timestamp, msg.sender,msg.sender, text, link, pic));\n    emit createSpotEvent (address(this), dev2);\n        \n    }\n\n  //flip\n    event flipSpotEvent (address indexed fightContract);  \n    function flip_Maf(uint _index, string memory _text, string memory _link, string memory _pic) external payable {\n        uint cb;\n        Spots storage spot = spots[_index];\n        fightData storage m = fight[0];\n        require(spot.bu < block.timestamp, '');\n        require(spot.booker==msg.sender || spot.ru<block.timestamp, '');\n        require((startTime+m.duration) > block.timestamp, '');\n        if (msg.value != spot.priceOfSpot) revert NotEnoughEther();\n        uint currentPrice = spot.priceOfSpot;\n        uint previousPrice = ((currentPrice / ((100 + m.np)))*100);\n        cb= ((previousPrice * spotCashBack)/100);\n        uint exFlipperProfit = ((currentPrice - previousPrice) * flipperShare)/100;\n        uint nextPrice = ((spot.priceOfSpot * ((100 + m.np)))/100);\n        pw[spot.flipper] += (cb + exFlipperProfit);\n        uint toDistro = spot.priceOfSpot - (cb + exFlipperProfit);\n        pw[m.influ1] += (toDistro * influ2Share/100)/2;\n        pw[influ2] += (toDistro * influ2Share/100)/2;\n        pw[charity] += (toDistro * charitySlice/100);\n        pw[lsp] += (toDistro * 30/100);\n        if (keyList.length!=0) {\n        for (uint i = 0; i < keyList.length; i++)\n        {\n        Entry storage entry = map[keyList[i]];\n        pw[keyList[i]] += (toDistro * usersSlice/100) * entry.value/totalStaked;\n        }\n        } else {pw[dev]+=(toDistro * usersSlice/100);}\n        spot.flipper = msg.sender;\n        spot.priceOfSpot = nextPrice;\n        spot.bu = block.timestamp+spotBusyTime;\n        spot.ru=block.timestamp;\n        spot.text = _text;\n        spot.link = _link;\n        spot.pic= _pic;\n        ls=msg.sender;\n        //timer start\n        uint timeLeft = actTimer - (block.timestamp-startTime);\n        if (block.timestamp - created >604800)\n            {actTimer= 0;}\n        else if (timeLeft+m.extention >=m.duration)\n               {actTimer=m.duration;}\n         else {actTimer= timeLeft+ m.extention;}\n        startTime = block.timestamp;\n        //timer end\n        \n        emit flipSpotEvent (address(this));\n    }\n       //Get spots\n    function getSpots() public view returns (Spots[] memory){\n      Spots[]    memory id = new Spots[](spots.length);\n      for (uint i = 0; i < spots.length; i++) {\n          Spots storage spot = spots[i];\n          id[i] = spot;\n      }\n      return id;\n  }\n  \n   //Spot Reservation\n    event spotR (address indexed fightContract); \n    function spotReserve_u5k(uint _indx) external payable {\n        Spots storage spot = spots[_indx];\n        require(spot.bu<block.timestamp && spot.ru<block.timestamp && spot.flipper != msg.sender, \"\");\n        if (msg.value != spotResPrice) revert NotEnoughEther();\n        pw[dev]+=spotResPrice;\n        spot.ru = block.timestamp+spotReservTime;\n        spot.booker=msg.sender;\n        emit spotR (address(this));\n    }\n   //Spot reset\n   //event reset (address indexed fightContract);\n    function resetspot(uint _indx) external a (){\n        fightData storage m = fight[0];\n        Spots storage spot = spots[_indx];\n        spot.priceOfSpot=m.initPrice;\n        spot.bu=0;\n        spot.ru=0;\n        spot.text='';\n        spot.pic='';\n        spot.link='';\n        //emit reset (address(this));\n    }\n   //make withdrawal\n    event withdrawals (uint amount, uint who);  \n    function makeWithdrawal() public {\n        fightData storage m = fight[0];\n        uint amount = pw[msg.sender];\n        pw[msg.sender] = 0;\n        payable(msg.sender).transfer(amount);\n        uint who;\n        if (msg.sender==charity) {who=1;} \n        else if (msg.sender==m.influ1 || msg.sender ==influ2) {who=2;} \n        else if (msg.sender==dev2) {who=3;}\n        else {who=4;}\n        emit withdrawals (amount, who);\n    }\n    //make withdrawal of Last Spot Pot\n    event withdrawalsLSP (uint amount);  \n    function makeWithdrawalLSP() public {\n        require(ls==msg.sender && (startTime+actTimer) <= block.timestamp, '');\n        uint amount = pw[lsp];\n        pw[lsp] = 0;\n        actTimer=0;\n        payable(msg.sender).transfer(amount);\n        emit withdrawalsLSP (amount);\n    }\n    \n    //Show withrawal balance of stakers and charity\n    function showBalance () view external returns (uint, uint) {\n    return (pw[msg.sender], pw[charity]);\n    }\n    //Show lsp and lsp balance\n     function showLastSpotPot () view external returns (uint, address) {\n    return (pw[lsp],ls);\n    }\n\n   //Vote 1\n    function voting1_E7O(address _addr) public {\n        require(votes[_addr]==0 && IS(tc).wl(msg.sender)==true,'');\n        votes[_addr]=1;\n        v1 +=1;\n    }\n   //Vote 2\n    function voting2_eoL(address _addr) public {\n        require(votes[_addr]==0 && IS(tc).wl(msg.sender)==true,'');\n        votes[_addr]=1;\n        v2 +=1;\n\n    }\n    //Show votes\n    function getVotes() view public returns (uint, uint) {\n        return (v1, v2);\n    }\n//Get fight data\n    function getFightData () public view returns (address, uint, uint, uint, uint, string[5] memory, string[3] memory, uint, string memory ,string memory, uint) {\n       fightData storage spot = fight[0];\n    return (spot.influ1, spot.initPrice, spot.np, spot.extention, spot.duration, spot.fightTopics, spot.fightLocation, spot.totalFollowers, spot.promo1, spot.promo2, spotResPrice);}\n\n   \n//Update fight promo\n    function ufp (string memory _promo1, string memory _promo2) public {\n    fightData storage spot = fight[0];\n    require((spot.influ1==msg.sender) , '');\n    spot.promo2 = _promo2;\n    spot.promo1=_promo1;\n}   \n//Set fight parameters\n    function sF (uint fs, uint infs, uint scb, uint us, uint cs, uint _iscs, uint _uscs, uint mu, uint sbt, uint srt) public a(){\n    require ((infs+us+cs) == 70 && (_iscs+_uscs+dscs+dscs2) == 70 && spotReservTime > 90, '');\n    flipperShare = fs;\n    influ2Share = infs;\n    spotCashBack = scb;\n    usersSlice = us;\n    charitySlice = cs;\n    iscs = _iscs;\n    uscs = _uscs;\n    maxUsers=mu;\n    spotBusyTime = sbt;\n    spotReservTime = srt;\n    }\n\n}\n   \n       \n    contract fightFactory {\n    address dev;\n    address dev2;\n    uint  dscs;\n    uint  dscs2;\n    uint  spotResPrice;\n    address  fightAdmin;\n    address  tc;\n    address  lca;\n    address  influ2;\n    address  charity;\n    address lsp;\n \n \n   \n    struct fc {\n        address fightAdmin;\n        address fightContract;\n        bool active;\n    }\n    fc []  fcl;\n    mapping(address => mapping(address =>uint)) index;\n    mapping(address => uint)  fightCount;\n    \n    constructor (address _tc) {\n        dev = msg.sender;\n        lsp=0xc8170df33EA09F767CEC6E478ebe71a04c2bFA24;\n        tc= _tc;\n        dscs= 1;\n        dscs2=5;\n        spotResPrice=1000000000000000000;\n    }\n //creating a new fight\n    event createNewFight (address indexed fightAddress, address indexed factoryAddress);\n    function createFight(address _dev2, address _influ2, address _charity) external returns(address){\n       fightAdmin= msg.sender;\n       lca = address(new Fight(address(this),dev,_dev2,dscs,dscs2,spotResPrice, fightAdmin, tc, _influ2, _charity, lsp));\n       fcl.push(fc(msg.sender, lca, false));\n       index[msg.sender][lca]=fcl.length-1;\n       fightCount[msg.sender] +=1;\n       emit createNewFight (lca, address(this));    \n    return lca;\n    }\n//get fights by admin \n         function getFightsByAdmin(address _owner) public view returns (fc[] memory) {\n        fc[] memory result = new fc[](fightCount[_owner]);\n        uint counter = 0;\n       \n        for (uint i = 0; i < fcl.length; i++) {\n            if (fcl[i].fightAdmin == _owner) {\n                fc storage list = fcl[i];\n                result[counter] = list;\n                counter++;\n            }\n        }\n        return result;\n    }\n    \n       function getAllFights() public view returns (fc[] memory){\n      fc[]    memory id = new fc[](fcl.length);\n      for (uint i = 0; i < fcl.length; i++) {\n          fc storage spot = fcl[i];\n          id[i] = spot;\n      }\n      return id;\n  }\n    \n        function active (address _fa, address _fcontract) external {\n        uint ind = index[_fa][_fcontract];\n         fc storage m = fcl[ind];\n         m.active=true;\n    }\n\n    \n//Set Spot Reservation Price\n    function srp (uint _price) external {\n        require(msg.sender == dev, \"\");\n        spotResPrice = _price;\n    }\n\n    }\n",
  "sourcePath": "/Users/stanislavpavlovic/Desktop/Slice/ee/contracts/fight.sol",
  "compiler": {
    "name": "solc",
    "version": "0.8.10+commit.fc410830.Emscripten.clang"
  },
  "schemaVersion": "3.4.3",
  "updatedAt": "2022-01-31T18:35:17.827Z",
  "devdoc": {
    "kind": "dev",
    "methods": {},
    "version": 1
  },
  "userdoc": {
    "kind": "user",
    "methods": {},
    "version": 1
  }
}