{
  "contractName": "fightFactory",
  "abi": [
    {
      "inputs": [
        {
          "internalType": "address",
          "name": "_tc",
          "type": "address"
        }
      ],
      "stateMutability": "nonpayable",
      "type": "constructor"
    },
    {
      "anonymous": false,
      "inputs": [
        {
          "indexed": true,
          "internalType": "address",
          "name": "fightAddress",
          "type": "address"
        },
        {
          "indexed": true,
          "internalType": "address",
          "name": "factoryAddress",
          "type": "address"
        }
      ],
      "name": "createNewFight",
      "type": "event"
    },
    {
      "inputs": [
        {
          "internalType": "address",
          "name": "_dev2",
          "type": "address"
        },
        {
          "internalType": "address",
          "name": "_influ2",
          "type": "address"
        },
        {
          "internalType": "address",
          "name": "_charity",
          "type": "address"
        }
      ],
      "name": "createFight",
      "outputs": [
        {
          "internalType": "address",
          "name": "",
          "type": "address"
        }
      ],
      "stateMutability": "nonpayable",
      "type": "function"
    },
    {
      "inputs": [
        {
          "internalType": "address",
          "name": "_owner",
          "type": "address"
        }
      ],
      "name": "getFightsByAdmin",
      "outputs": [
        {
          "components": [
            {
              "internalType": "address",
              "name": "fightAdmin",
              "type": "address"
            },
            {
              "internalType": "address",
              "name": "fightContract",
              "type": "address"
            },
            {
              "internalType": "bool",
              "name": "active",
              "type": "bool"
            }
          ],
          "internalType": "struct fightFactory.fc[]",
          "name": "",
          "type": "tuple[]"
        }
      ],
      "stateMutability": "view",
      "type": "function",
      "constant": true
    },
    {
      "inputs": [],
      "name": "getAllFights",
      "outputs": [
        {
          "components": [
            {
              "internalType": "address",
              "name": "fightAdmin",
              "type": "address"
            },
            {
              "internalType": "address",
              "name": "fightContract",
              "type": "address"
            },
            {
              "internalType": "bool",
              "name": "active",
              "type": "bool"
            }
          ],
          "internalType": "struct fightFactory.fc[]",
          "name": "",
          "type": "tuple[]"
        }
      ],
      "stateMutability": "view",
      "type": "function",
      "constant": true
    },
    {
      "inputs": [
        {
          "internalType": "address",
          "name": "_fa",
          "type": "address"
        },
        {
          "internalType": "address",
          "name": "_fcontract",
          "type": "address"
        }
      ],
      "name": "active",
      "outputs": [],
      "stateMutability": "nonpayable",
      "type": "function"
    },
    {
      "inputs": [
        {
          "internalType": "uint256",
          "name": "_price",
          "type": "uint256"
        }
      ],
      "name": "srp",
      "outputs": [],
      "stateMutability": "nonpayable",
      "type": "function"
    }
  ],
  "bytecode": "0x60806040523480156200001157600080fd5b50604051620061a6380380620061a683398181016040528101906200003791906200019d565b336000806101000a81548173ffffffffffffffffffffffffffffffffffffffff021916908373ffffffffffffffffffffffffffffffffffffffff16021790555073c8170df33ea09f767cec6e478ebe71a04c2bfa24600a60006101000a81548173ffffffffffffffffffffffffffffffffffffffff021916908373ffffffffffffffffffffffffffffffffffffffff16021790555080600660006101000a81548173ffffffffffffffffffffffffffffffffffffffff021916908373ffffffffffffffffffffffffffffffffffffffff16021790555060016002819055506005600381905550670de0b6b3a764000060048190555050620001cf565b600080fd5b600073ffffffffffffffffffffffffffffffffffffffff82169050919050565b6000620001658262000138565b9050919050565b620001778162000158565b81146200018357600080fd5b50565b60008151905062000197816200016c565b92915050565b600060208284031215620001b657620001b562000133565b5b6000620001c68482850162000186565b91505092915050565b615fc780620001df6000396000f3fe60806040523480156200001157600080fd5b50600436106200005e5760003560e01c806352fcdd791462000063578063574a934e14620000995780635e4505c714620000cf578063669aa70114620000ef57806392e614731462000111575b600080fd5b6200008160048036038101906200007b919062000bec565b62000131565b60405162000090919062000c59565b60405180910390f35b620000b76004803603810190620000b1919062000c76565b6200058b565b604051620000c6919062000ddb565b60405180910390f35b620000ed6004803603810190620000e7919062000dff565b6200080a565b005b620000f9620008d7565b60405162000108919062000ddb565b60405180910390f35b6200012f600480360381019062000129919062000e81565b62000a8a565b005b600033600560006101000a81548173ffffffffffffffffffffffffffffffffffffffff021916908373ffffffffffffffffffffffffffffffffffffffff1602179055503060008054906101000a900473ffffffffffffffffffffffffffffffffffffffff1685600254600354600454600560009054906101000a900473ffffffffffffffffffffffffffffffffffffffff16600660009054906101000a900473ffffffffffffffffffffffffffffffffffffffff168a8a600a60009054906101000a900473ffffffffffffffffffffffffffffffffffffffff16604051620002199062000b25565b6200022f9b9a9998979695949392919062000ec4565b604051809103906000f0801580156200024c573d6000803e3d6000fd5b50600760006101000a81548173ffffffffffffffffffffffffffffffffffffffff021916908373ffffffffffffffffffffffffffffffffffffffff160217905550600b60405180606001604052803373ffffffffffffffffffffffffffffffffffffffff168152602001600760009054906101000a900473ffffffffffffffffffffffffffffffffffffffff1673ffffffffffffffffffffffffffffffffffffffff16815260200160001515815250908060018154018082558091505060019003906000526020600020906002020160009091909190915060008201518160000160006101000a81548173ffffffffffffffffffffffffffffffffffffffff021916908373ffffffffffffffffffffffffffffffffffffffff16021790555060208201518160010160006101000a81548173ffffffffffffffffffffffffffffffffffffffff021916908373ffffffffffffffffffffffffffffffffffffffff16021790555060408201518160010160146101000a81548160ff02191690831515021790555050506001600b80549050620003e8919062000fb4565b600c60003373ffffffffffffffffffffffffffffffffffffffff1673ffffffffffffffffffffffffffffffffffffffff1681526020019081526020016000206000600760009054906101000a900473ffffffffffffffffffffffffffffffffffffffff1673ffffffffffffffffffffffffffffffffffffffff1673ffffffffffffffffffffffffffffffffffffffff168152602001908152602001600020819055506001600d60003373ffffffffffffffffffffffffffffffffffffffff1673ffffffffffffffffffffffffffffffffffffffff1681526020019081526020016000206000828254620004dc919062000fef565b925050819055503073ffffffffffffffffffffffffffffffffffffffff16600760009054906101000a900473ffffffffffffffffffffffffffffffffffffffff1673ffffffffffffffffffffffffffffffffffffffff167f4f4adcad990325b7d6e5674f5840f14e6dede2529a4b59a2ae2426923f9397d560405160405180910390a3600760009054906101000a900473ffffffffffffffffffffffffffffffffffffffff1690509392505050565b60606000600d60008473ffffffffffffffffffffffffffffffffffffffff1673ffffffffffffffffffffffffffffffffffffffff1681526020019081526020016000205467ffffffffffffffff811115620005eb57620005ea6200104c565b5b6040519080825280602002602001820160405280156200062857816020015b6200061462000b33565b8152602001906001900390816200060a5790505b5090506000805b600b80549050811015620007ff578473ffffffffffffffffffffffffffffffffffffffff16600b82815481106200066b576200066a6200107b565b5b906000526020600020906002020160000160009054906101000a900473ffffffffffffffffffffffffffffffffffffffff1673ffffffffffffffffffffffffffffffffffffffff161415620007e9576000600b8281548110620006d357620006d26200107b565b5b90600052602060002090600202019050806040518060600160405290816000820160009054906101000a900473ffffffffffffffffffffffffffffffffffffffff1673ffffffffffffffffffffffffffffffffffffffff1673ffffffffffffffffffffffffffffffffffffffff1681526020016001820160009054906101000a900473ffffffffffffffffffffffffffffffffffffffff1673ffffffffffffffffffffffffffffffffffffffff1673ffffffffffffffffffffffffffffffffffffffff1681526020016001820160149054906101000a900460ff161515151581525050848481518110620007cc57620007cb6200107b565b5b60200260200101819052508280620007e490620010aa565b935050505b8080620007f690620010aa565b9150506200062f565b508192505050919050565b6000600c60008473ffffffffffffffffffffffffffffffffffffffff1673ffffffffffffffffffffffffffffffffffffffff16815260200190815260200160002060008373ffffffffffffffffffffffffffffffffffffffff1673ffffffffffffffffffffffffffffffffffffffff1681526020019081526020016000205490506000600b8281548110620008a457620008a36200107b565b5b9060005260206000209060020201905060018160010160146101000a81548160ff02191690831515021790555050505050565b60606000600b8054905067ffffffffffffffff811115620008fd57620008fc6200104c565b5b6040519080825280602002602001820160405280156200093a57816020015b6200092662000b33565b8152602001906001900390816200091c5790505b50905060005b600b8054905081101562000a82576000600b82815481106200096757620009666200107b565b5b90600052602060002090600202019050806040518060600160405290816000820160009054906101000a900473ffffffffffffffffffffffffffffffffffffffff1673ffffffffffffffffffffffffffffffffffffffff1673ffffffffffffffffffffffffffffffffffffffff1681526020016001820160009054906101000a900473ffffffffffffffffffffffffffffffffffffffff1673ffffffffffffffffffffffffffffffffffffffff1673ffffffffffffffffffffffffffffffffffffffff1681526020016001820160149054906101000a900460ff16151515158152505083838151811062000a605762000a5f6200107b565b5b602002602001018190525050808062000a7990620010aa565b91505062000940565b508091505090565b60008054906101000a900473ffffffffffffffffffffffffffffffffffffffff1673ffffffffffffffffffffffffffffffffffffffff163373ffffffffffffffffffffffffffffffffffffffff161462000b1b576040517f08c379a000000000000000000000000000000000000000000000000000000000815260040162000b129062001133565b60405180910390fd5b8060048190555050565b614e3c806200115683390190565b6040518060600160405280600073ffffffffffffffffffffffffffffffffffffffff168152602001600073ffffffffffffffffffffffffffffffffffffffff1681526020016000151581525090565b600080fd5b600073ffffffffffffffffffffffffffffffffffffffff82169050919050565b600062000bb48262000b87565b9050919050565b62000bc68162000ba7565b811462000bd257600080fd5b50565b60008135905062000be68162000bbb565b92915050565b60008060006060848603121562000c085762000c0762000b82565b5b600062000c188682870162000bd5565b935050602062000c2b8682870162000bd5565b925050604062000c3e8682870162000bd5565b9150509250925092565b62000c538162000ba7565b82525050565b600060208201905062000c70600083018462000c48565b92915050565b60006020828403121562000c8f5762000c8e62000b82565b5b600062000c9f8482850162000bd5565b91505092915050565b600081519050919050565b600082825260208201905092915050565b6000819050602082019050919050565b62000cdf8162000ba7565b82525050565b60008115159050919050565b62000cfc8162000ce5565b82525050565b60608201600082015162000d1a600085018262000cd4565b50602082015162000d2f602085018262000cd4565b50604082015162000d44604085018262000cf1565b50505050565b600062000d58838362000d02565b60608301905092915050565b6000602082019050919050565b600062000d7e8262000ca8565b62000d8a818562000cb3565b935062000d978362000cc4565b8060005b8381101562000dce57815162000db2888262000d4a565b975062000dbf8362000d64565b92505060018101905062000d9b565b5085935050505092915050565b6000602082019050818103600083015262000df7818462000d71565b905092915050565b6000806040838503121562000e195762000e1862000b82565b5b600062000e298582860162000bd5565b925050602062000e3c8582860162000bd5565b9150509250929050565b6000819050919050565b62000e5b8162000e46565b811462000e6757600080fd5b50565b60008135905062000e7b8162000e50565b92915050565b60006020828403121562000e9a5762000e9962000b82565b5b600062000eaa8482850162000e6a565b91505092915050565b62000ebe8162000e46565b82525050565b60006101608201905062000edc600083018e62000c48565b62000eeb602083018d62000c48565b62000efa604083018c62000c48565b62000f09606083018b62000eb3565b62000f18608083018a62000eb3565b62000f2760a083018962000eb3565b62000f3660c083018862000c48565b62000f4560e083018762000c48565b62000f5561010083018662000c48565b62000f6561012083018562000c48565b62000f7561014083018462000c48565b9c9b505050505050505050505050565b7f4e487b7100000000000000000000000000000000000000000000000000000000600052601160045260246000fd5b600062000fc18262000e46565b915062000fce8362000e46565b92508282101562000fe45762000fe362000f85565b5b828203905092915050565b600062000ffc8262000e46565b9150620010098362000e46565b9250827fffffffffffffffffffffffffffffffffffffffffffffffffffffffffffffffff0382111562001041576200104062000f85565b5b828201905092915050565b7f4e487b7100000000000000000000000000000000000000000000000000000000600052604160045260246000fd5b7f4e487b7100000000000000000000000000000000000000000000000000000000600052603260045260246000fd5b6000620010b78262000e46565b91507fffffffffffffffffffffffffffffffffffffffffffffffffffffffffffffffff821415620010ed57620010ec62000f85565b5b600182019050919050565b600082825260208201905092915050565b50565b60006200111b600083620010f8565b9150620011288262001109565b600082019050919050565b600060208201905081810360008301526200114e816200110c565b905091905056fe60806040523480156200001157600080fd5b5060405162004e3c38038062004e3c83398181016040528101906200003791906200035c565b89600160006101000a81548173ffffffffffffffffffffffffffffffffffffffff021916908373ffffffffffffffffffffffffffffffffffffffff16021790555088600260006101000a81548173ffffffffffffffffffffffffffffffffffffffff021916908373ffffffffffffffffffffffffffffffffffffffff1602179055508760088190555086600981905550601e6011819055506022601281905550601e600c819055506019600d819055506028600f8190555060056010819055506064600e81905550614e2060138190555061012c601481905550605a60158190555085600a8190555084600360006101000a81548173ffffffffffffffffffffffffffffffffffffffff021916908373ffffffffffffffffffffffffffffffffffffffff16021790555083600460006101000a81548173ffffffffffffffffffffffffffffffffffffffff021916908373ffffffffffffffffffffffffffffffffffffffff16021790555082600560006101000a81548173ffffffffffffffffffffffffffffffffffffffff021916908373ffffffffffffffffffffffffffffffffffffffff16021790555081600660006101000a81548173ffffffffffffffffffffffffffffffffffffffff021916908373ffffffffffffffffffffffffffffffffffffffff1602179055508a601c60006101000a81548173ffffffffffffffffffffffffffffffffffffffff021916908373ffffffffffffffffffffffffffffffffffffffff16021790555080601860006101000a81548173ffffffffffffffffffffffffffffffffffffffff021916908373ffffffffffffffffffffffffffffffffffffffff160217905550505050505050505050505062000469565b600080fd5b600073ffffffffffffffffffffffffffffffffffffffff82169050919050565b6000620002e982620002bc565b9050919050565b620002fb81620002dc565b81146200030757600080fd5b50565b6000815190506200031b81620002f0565b92915050565b6000819050919050565b620003368162000321565b81146200034257600080fd5b50565b60008151905062000356816200032b565b92915050565b60008060008060008060008060008060006101608c8e031215620003855762000384620002b7565b5b6000620003958e828f016200030a565b9b50506020620003a88e828f016200030a565b9a50506040620003bb8e828f016200030a565b9950506060620003ce8e828f0162000345565b9850506080620003e18e828f0162000345565b97505060a0620003f48e828f0162000345565b96505060c0620004078e828f016200030a565b95505060e06200041a8e828f016200030a565b9450506101006200042e8e828f016200030a565b935050610120620004428e828f016200030a565b925050610140620004568e828f016200030a565b9150509295989b509295989b9093969950565b6149c380620004796000396000f3fe60806040526004361061011b5760003560e01c80637c0ce7ad116100a0578063e51c484e11610064578063e51c484e14610368578063e7ac9ab414610391578063e8c90e88146103ad578063f9521129146103e3578063fa9375711461040e5761011b565b80637c0ce7ad146102b357806381b2d07b146102dc578063a0ff26bb1461030c578063a5d7c82f14610335578063cb375a801461034c5761011b565b806344d16475116100e757806344d16475146101de57806347f9ba5e146102075780634e3975af14610230578063503cfdb71461024c5780635eebe258146102805761011b565b8061825e14610120578061ecc8146101495780630126fe5e146101725780630dc960151461019b5780633951b4c9146101c7575b600080fd5b34801561012c57600080fd5b5061014760048036038101906101429190613759565b610439565b005b34801561015557600080fd5b50610170600480360381019061016b9190613759565b6105c8565b005b34801561017e57600080fd5b50610199600480360381019061019491906138cc565b610757565b005b3480156101a757600080fd5b506101b0610847565b6040516101be92919061395d565b60405180910390f35b3480156101d357600080fd5b506101dc610858565b005b3480156101ea57600080fd5b50610205600480360381019061020091906139b2565b610a2b565b005b34801561021357600080fd5b5061022e60048036038101906102299190613a91565b610b1e565b005b61024a60048036038101906102459190613abe565b610c11565b005b34801561025857600080fd5b5061026161154b565b6040516102779a99989796959493929190613d9e565b60405180910390f35b34801561028c57600080fd5b50610295611923565b6040516102aa99989796959493929190613e5d565b60405180910390f35b3480156102bf57600080fd5b506102da60048036038101906102d59190613a91565b6119d1565b005b3480156102e857600080fd5b506102f1611bc7565b60405161030396959493929190613eea565b60405180910390f35b34801561031857600080fd5b50610333600480360381019061032e91906140ee565b611d11565b005b34801561034157600080fd5b5061034a612047565b005b61036660048036038101906103619190614259565b61224a565b005b34801561037457600080fd5b5061038f600480360381019061038a9190613a91565b612ba0565b005b6103ab60048036038101906103a69190613a91565b612d94565b005b3480156103b957600080fd5b506103c2612f7d565b6040516103da9c9b9a99989796959493929190614314565b60405180910390f35b3480156103ef57600080fd5b506103f8612fd9565b60405161040591906143ce565b60405180910390f35b34801561041a57600080fd5b5061042361307c565b604051610430919061459c565b60405180910390f35b6000601f60008373ffffffffffffffffffffffffffffffffffffffff1673ffffffffffffffffffffffffffffffffffffffff16815260200190815260200160002054148015610527575060011515600460009054906101000a900473ffffffffffffffffffffffffffffffffffffffff1673ffffffffffffffffffffffffffffffffffffffff16632fee9e7e336040518263ffffffff1660e01b81526004016104e291906145be565b602060405180830381865afa1580156104ff573d6000803e3d6000fd5b505050506040513d601f19601f820116820180604052508101906105239190614611565b1515145b610566576040517f08c379a000000000000000000000000000000000000000000000000000000000815260040161055d90614664565b60405180910390fd5b6001601f60008373ffffffffffffffffffffffffffffffffffffffff1673ffffffffffffffffffffffffffffffffffffffff168152602001908152602001600020819055506001601660008282546105be91906146b3565b9250508190555050565b6000601f60008373ffffffffffffffffffffffffffffffffffffffff1673ffffffffffffffffffffffffffffffffffffffff168152602001908152602001600020541480156106b6575060011515600460009054906101000a900473ffffffffffffffffffffffffffffffffffffffff1673ffffffffffffffffffffffffffffffffffffffff16632fee9e7e336040518263ffffffff1660e01b815260040161067191906145be565b602060405180830381865afa15801561068e573d6000803e3d6000fd5b505050506040513d601f19601f820116820180604052508101906106b29190614611565b1515145b6106f5576040517f08c379a00000000000000000000000000000000000000000000000000000000081526004016106ec90614664565b60405180910390fd5b6001601f60008373ffffffffffffffffffffffffffffffffffffffff1673ffffffffffffffffffffffffffffffffffffffff1681526020019081526020016000208190555060016017600082825461074d91906146b3565b9250508190555050565b6000602060008154811061076e5761076d614709565b5b906000526020600020906010020190503373ffffffffffffffffffffffffffffffffffffffff1681600e0160009054906101000a900473ffffffffffffffffffffffffffffffffffffffff1673ffffffffffffffffffffffffffffffffffffffff1614610810576040517f08c379a000000000000000000000000000000000000000000000000000000000815260040161080790614664565b60405180910390fd5b8181600d019080519060200190610828929190613474565b508281600c019080519060200190610841929190613474565b50505050565b600080601654601754915091509091565b6000601e60003373ffffffffffffffffffffffffffffffffffffffff1673ffffffffffffffffffffffffffffffffffffffff1681526020019081526020016000205490506000601e60003373ffffffffffffffffffffffffffffffffffffffff1673ffffffffffffffffffffffffffffffffffffffff168152602001908152602001600020819055503373ffffffffffffffffffffffffffffffffffffffff166108fc829081150290604051600060405180830381858888f19350505050158015610927573d6000803e3d6000fd5b506000600660009054906101000a900473ffffffffffffffffffffffffffffffffffffffff1673ffffffffffffffffffffffffffffffffffffffff163373ffffffffffffffffffffffffffffffffffffffff16141561098957600190506109ee565b600260009054906101000a900473ffffffffffffffffffffffffffffffffffffffff1673ffffffffffffffffffffffffffffffffffffffff163373ffffffffffffffffffffffffffffffffffffffff1614156109e857600390506109ed565b600490505b5b7f7c1d4e62152e35c067e67c3cdcdc0949bbab739d7f67d5a13586d7e04da8020a8282604051610a1f92919061395d565b60405180910390a15050565b610a336133e2565b604686888b610a4291906146b3565b610a4c91906146b3565b148015610a7e575060466009546008548688610a6891906146b3565b610a7291906146b3565b610a7c91906146b3565b145b8015610a8d5750603c60155410155b610acc576040517f08c379a0000000000000000000000000000000000000000000000000000000008152600401610ac390614664565b60405180910390fd5b89600c8190555088600d8190555087600e8190555086600f8190555085601081905550846011819055508360128190555082601381905550816014819055508060158190555050505050505050505050565b610b266133e2565b60006020600081548110610b3d57610b3c614709565b5b90600052602060002090601002019050600060218381548110610b6357610b62614709565b5b9060005260206000209060090201905081600001548160010181905550600081600201819055506000816003018190555060405180602001604052806000815250816006019080519060200190610bbb929190613474565b5060405180602001604052806000815250816008019080519060200190610be3929190613474565b5060405180602001604052806000815250816007019080519060200190610c0b929190613474565b50505050565b60006020600081548110610c2857610c27614709565b5b9060005260206000209060100201905042601a54601b54610c4991906146b3565b11610c89576040517f08c379a0000000000000000000000000000000000000000000000000000000008152600401610c8090614664565b60405180910390fd5b80600001543414610cc6576040517f8a0d377900000000000000000000000000000000000000000000000000000000815260040160405180910390fd5b60646008548260000154610cda9190614738565b610ce491906147c1565b601e6000600160009054906101000a900473ffffffffffffffffffffffffffffffffffffffff1673ffffffffffffffffffffffffffffffffffffffff1673ffffffffffffffffffffffffffffffffffffffff1681526020019081526020016000206000828254610d5491906146b3565b9250508190555060646009548260000154610d6f9190614738565b610d7991906147c1565b601e6000600260009054906101000a900473ffffffffffffffffffffffffffffffffffffffff1673ffffffffffffffffffffffffffffffffffffffff1673ffffffffffffffffffffffffffffffffffffffff1681526020019081526020016000206000828254610de991906146b3565b925050819055506064601e8260000154610e039190614738565b610e0d91906147c1565b601e6000601860009054906101000a900473ffffffffffffffffffffffffffffffffffffffff1673ffffffffffffffffffffffffffffffffffffffff1673ffffffffffffffffffffffffffffffffffffffff1681526020019081526020016000206000828254610e7d91906146b3565b92505081905550600260646011548360000154610e9a9190614738565b610ea491906147c1565b610eae91906147c1565b601e600083600e0160009054906101000a900473ffffffffffffffffffffffffffffffffffffffff1673ffffffffffffffffffffffffffffffffffffffff1673ffffffffffffffffffffffffffffffffffffffff1681526020019081526020016000206000828254610f2091906146b3565b92505081905550600260646011548360000154610f3d9190614738565b610f4791906147c1565b610f5191906147c1565b601e6000600560009054906101000a900473ffffffffffffffffffffffffffffffffffffffff1673ffffffffffffffffffffffffffffffffffffffff1673ffffffffffffffffffffffffffffffffffffffff1681526020019081526020016000206000828254610fc191906146b3565b9250508190555060006023805490501461114d5760005b6023805490508110156111475760006022600060238481548110610fff57610ffe614709565b5b9060005260206000200160009054906101000a900473ffffffffffffffffffffffffffffffffffffffff1673ffffffffffffffffffffffffffffffffffffffff1673ffffffffffffffffffffffffffffffffffffffff16815260200190815260200160002090506007548160010154606460125486600001546110829190614738565b61108c91906147c1565b6110969190614738565b6110a091906147c1565b601e6000602385815481106110b8576110b7614709565b5b9060005260206000200160009054906101000a900473ffffffffffffffffffffffffffffffffffffffff1673ffffffffffffffffffffffffffffffffffffffff1673ffffffffffffffffffffffffffffffffffffffff168152602001908152602001600020600082825461112c91906146b3565b9250508190555050808061113f906147f2565b915050610fd8565b506111e3565b606460125482600001546111619190614738565b61116b91906147c1565b601e6000600160009054906101000a900473ffffffffffffffffffffffffffffffffffffffff1673ffffffffffffffffffffffffffffffffffffffff1673ffffffffffffffffffffffffffffffffffffffff16815260200190815260200160002060008282546111db91906146b3565b925050819055505b60006064826001015483600001546111fb9190614738565b61120591906147c1565b826000015461121491906146b3565b90506001600b5461122591906146b3565b600b819055506000600b54905060008690506000869050600086905033601960006101000a81548173ffffffffffffffffffffffffffffffffffffffff021916908373ffffffffffffffffffffffffffffffffffffffff1602179055506000601b5442611292919061483b565b601a5461129f919061483b565b905062093a80601d54426112b3919061483b565b11156112c6576000601a81905550611308565b86600301548760020154826112db91906146b3565b106112f0578660030154601a81905550611307565b86600201548161130091906146b3565b601a819055505b5b42601b8190555060216040518061012001604052808781526020018881526020016014544261133791906146b3565b81526020014281526020013373ffffffffffffffffffffffffffffffffffffffff1681526020013373ffffffffffffffffffffffffffffffffffffffff1681526020018681526020018581526020018481525090806001815401808255809150506001900390600052602060002090600902016000909190919091506000820151816000015560208201518160010155604082015181600201556060820151816003015560808201518160040160006101000a81548173ffffffffffffffffffffffffffffffffffffffff021916908373ffffffffffffffffffffffffffffffffffffffff16021790555060a08201518160050160006101000a81548173ffffffffffffffffffffffffffffffffffffffff021916908373ffffffffffffffffffffffffffffffffffffffff16021790555060c0820151816006019080519060200190611485929190613474565b5060e08201518160070190805190602001906114a2929190613474565b506101008201518160080190805190602001906114c0929190613474565b505050600260009054906101000a900473ffffffffffffffffffffffffffffffffffffffff1673ffffffffffffffffffffffffffffffffffffffff163073ffffffffffffffffffffffffffffffffffffffff167f3bb25606af27fc0d095bee57e38dcccfee45c874307338d4b4cf85d992ce478560405160405180910390a350505050505050505050565b600080600080600061155b6134fa565b611563613521565b60608060606000602060008154811061157f5761157e614709565b5b9060005260206000209060100201905080600e0160009054906101000a900473ffffffffffffffffffffffffffffffffffffffff168160000154826001015483600201548460030154856004018660090187600c0188600d0189600f0184600580602002604051908101604052809291906000905b8282101561169757838201805461160a9061489e565b80601f01602080910402602001604051908101604052809291908181526020018280546116369061489e565b80156116835780601f1061165857610100808354040283529160200191611683565b820191906000526020600020905b81548152906001019060200180831161166657829003601f168201915b5050505050815260200190600101906115f4565b50505050945083600380602002604051908101604052809291906000905b828210156117585783820180546116cb9061489e565b80601f01602080910402602001604051908101604052809291908181526020018280546116f79061489e565b80156117445780601f1061171957610100808354040283529160200191611744565b820191906000526020600020905b81548152906001019060200180831161172757829003601f168201915b5050505050815260200190600101906116b5565b50505050935082805461176a9061489e565b80601f01602080910402602001604051908101604052809291908181526020018280546117969061489e565b80156117e35780601f106117b8576101008083540402835291602001916117e3565b820191906000526020600020905b8154815290600101906020018083116117c657829003601f168201915b505050505092508180546117f69061489e565b80601f01602080910402602001604051908101604052809291908181526020018280546118229061489e565b801561186f5780601f106118445761010080835404028352916020019161186f565b820191906000526020600020905b81548152906001019060200180831161185257829003601f168201915b505050505091508080546118829061489e565b80601f01602080910402602001604051908101604052809291908181526020018280546118ae9061489e565b80156118fb5780601f106118d0576101008083540402835291602001916118fb565b820191906000526020600020905b8154815290600101906020018083116118de57829003601f168201915b505050505090509a509a509a509a509a509a509a509a509a509a505090919293949596979899565b600080600080600080600080600080602260003373ffffffffffffffffffffffffffffffffffffffff1673ffffffffffffffffffffffffffffffffffffffff16815260200190815260200160002090508060010154602380549050601d54600660009054906101000a900473ffffffffffffffffffffffffffffffffffffffff16600a54601254601054600f54601a5499509950995099509950995099509950995050909192939495969798565b60238054905060135411611a1a576040517f08c379a0000000000000000000000000000000000000000000000000000000008152600401611a1190614664565b60405180910390fd5b600460009054906101000a900473ffffffffffffffffffffffffffffffffffffffff1673ffffffffffffffffffffffffffffffffffffffff1663d4f4648f82336040518363ffffffff1660e01b8152600401611a779291906148d0565b600060405180830381600087803b158015611a9157600080fd5b505af1158015611aa5573d6000803e3d6000fd5b505050506000602260003373ffffffffffffffffffffffffffffffffffffffff1673ffffffffffffffffffffffffffffffffffffffff168152602001908152602001600020905081816001016000828254611b0091906146b3565b925050819055508160076000828254611b1991906146b3565b92505081905550600081600001541115611b335750611bc4565b6023339080600181540180825580915050600190039060005260206000200160009091909190916101000a81548173ffffffffffffffffffffffffffffffffffffffff021916908373ffffffffffffffffffffffffffffffffffffffff16021790555060006001602380549050611baa919061483b565b9050600181611bb991906146b3565b826000018190555050505b50565b600080600080600080601e60003373ffffffffffffffffffffffffffffffffffffffff1673ffffffffffffffffffffffffffffffffffffffff16815260200190815260200160002054601e6000600660009054906101000a900473ffffffffffffffffffffffffffffffffffffffff1673ffffffffffffffffffffffffffffffffffffffff1673ffffffffffffffffffffffffffffffffffffffff16815260200190815260200160002054601e6000601860009054906101000a900473ffffffffffffffffffffffffffffffffffffffff1673ffffffffffffffffffffffffffffffffffffffff1673ffffffffffffffffffffffffffffffffffffffff16815260200190815260200160002054601960009054906101000a900473ffffffffffffffffffffffffffffffffffffffff16601d54601a54955095509550955095509550909192939495565b611d196133e2565b610e108711158015611d2e575062093a808611155b611d6d576040517f08c379a0000000000000000000000000000000000000000000000000000000008152600401611d6490614664565b60405180910390fd5b60206040518061014001604052808b81526020018a8152602001898152602001888152602001878152602001868152602001858152602001848152602001600360009054906101000a900473ffffffffffffffffffffffffffffffffffffffff169c508c73ffffffffffffffffffffffffffffffffffffffff16815260200183815250908060018154018082558091505060019003906000526020600020906010020160009091909190915060008201518160000155602082015181600101556040820151816002015560608201518160030155608082015181600401906005611e58929190613548565b5060a082015181600901906003611e7092919061359b565b5060c082015181600c019080519060200190611e8d929190613474565b5060e082015181600d019080519060200190611eaa929190613474565b5061010082015181600e0160006101000a81548173ffffffffffffffffffffffffffffffffffffffff021916908373ffffffffffffffffffffffffffffffffffffffff16021790555061012082015181600f019080519060200190611f10929190613474565b50505085601a8190555042601b8190555089601960006101000a81548173ffffffffffffffffffffffffffffffffffffffff021916908373ffffffffffffffffffffffffffffffffffffffff160217905550601c60009054906101000a900473ffffffffffffffffffffffffffffffffffffffff1673ffffffffffffffffffffffffffffffffffffffff16635e4505c733306040518363ffffffff1660e01b8152600401611fbf9291906148f9565b600060405180830381600087803b158015611fd957600080fd5b505af1158015611fed573d6000803e3d6000fd5b5050505042601d819055503073ffffffffffffffffffffffffffffffffffffffff167ff289b4a41b5728329fc76c351ab52bfe794cfabf7d0e99fb0f618e0b6cf8973260405160405180910390a250505050505050505050565b3373ffffffffffffffffffffffffffffffffffffffff16601960009054906101000a900473ffffffffffffffffffffffffffffffffffffffff1673ffffffffffffffffffffffffffffffffffffffff161480156120b3575042601a54601b546120b091906146b3565b11155b6120f2576040517f08c379a00000000000000000000000000000000000000000000000000000000081526004016120e990614664565b60405180910390fd5b6000601e6000601860009054906101000a900473ffffffffffffffffffffffffffffffffffffffff1673ffffffffffffffffffffffffffffffffffffffff1673ffffffffffffffffffffffffffffffffffffffff1681526020019081526020016000205490506000601e6000601860009054906101000a900473ffffffffffffffffffffffffffffffffffffffff1673ffffffffffffffffffffffffffffffffffffffff1673ffffffffffffffffffffffffffffffffffffffff168152602001908152602001600020819055506000601a819055503373ffffffffffffffffffffffffffffffffffffffff166108fc829081150290604051600060405180830381858888f1935050505015801561220d573d6000803e3d6000fd5b507f0689651a0bb260f3df1719ec8787eb33bfc21862be592ec196997adccc9dc76d338260405161223f929190614922565b60405180910390a150565b6000806021868154811061226157612260614709565b5b906000526020600020906009020190506000602060008154811061228857612287614709565b5b90600052602060002090601002019050428260020154106122de576040517f08c379a00000000000000000000000000000000000000000000000000000000081526004016122d590614664565b60405180910390fd5b3373ffffffffffffffffffffffffffffffffffffffff168260050160009054906101000a900473ffffffffffffffffffffffffffffffffffffffff1673ffffffffffffffffffffffffffffffffffffffff16148061233f5750428260030154105b61237e576040517f08c379a000000000000000000000000000000000000000000000000000000000815260040161237590614664565b60405180910390fd5b42601a54601b5461238f91906146b3565b116123cf576040517f08c379a00000000000000000000000000000000000000000000000000000000081526004016123c690614664565b60405180910390fd5b8160010154341461240c576040517f8a0d377900000000000000000000000000000000000000000000000000000000815260040160405180910390fd5b600082600101549050600060648360010154606461242a91906146b3565b8361243591906147c1565b61243f9190614738565b90506064600e54826124519190614738565b61245b91906147c1565b945060006064600c548385612470919061483b565b61247a9190614738565b61248491906147c1565b9050600060648560010154606461249b91906146b3565b87600101546124aa9190614738565b6124b491906147c1565b905081876124c291906146b3565b601e60008860040160009054906101000a900473ffffffffffffffffffffffffffffffffffffffff1673ffffffffffffffffffffffffffffffffffffffff1673ffffffffffffffffffffffffffffffffffffffff168152602001908152602001600020600082825461253491906146b3565b925050819055506000828861254991906146b3565b8760010154612558919061483b565b905060026064600d548361256c9190614738565b61257691906147c1565b61258091906147c1565b601e600088600e0160009054906101000a900473ffffffffffffffffffffffffffffffffffffffff1673ffffffffffffffffffffffffffffffffffffffff1673ffffffffffffffffffffffffffffffffffffffff16815260200190815260200160002060008282546125f291906146b3565b9250508190555060026064600d548361260b9190614738565b61261591906147c1565b61261f91906147c1565b601e6000600560009054906101000a900473ffffffffffffffffffffffffffffffffffffffff1673ffffffffffffffffffffffffffffffffffffffff1673ffffffffffffffffffffffffffffffffffffffff168152602001908152602001600020600082825461268f91906146b3565b925050819055506064601054826126a69190614738565b6126b091906147c1565b601e6000600660009054906101000a900473ffffffffffffffffffffffffffffffffffffffff1673ffffffffffffffffffffffffffffffffffffffff1673ffffffffffffffffffffffffffffffffffffffff168152602001908152602001600020600082825461272091906146b3565b925050819055506064601e826127369190614738565b61274091906147c1565b601e6000601860009054906101000a900473ffffffffffffffffffffffffffffffffffffffff1673ffffffffffffffffffffffffffffffffffffffff1673ffffffffffffffffffffffffffffffffffffffff16815260200190815260200160002060008282546127b091906146b3565b925050819055506000602380549050146129385760005b60238054905081101561293257600060226000602384815481106127ee576127ed614709565b5b9060005260206000200160009054906101000a900473ffffffffffffffffffffffffffffffffffffffff1673ffffffffffffffffffffffffffffffffffffffff1673ffffffffffffffffffffffffffffffffffffffff168152602001908152602001600020905060075481600101546064600f548661286d9190614738565b61287791906147c1565b6128819190614738565b61288b91906147c1565b601e6000602385815481106128a3576128a2614709565b5b9060005260206000200160009054906101000a900473ffffffffffffffffffffffffffffffffffffffff1673ffffffffffffffffffffffffffffffffffffffff1673ffffffffffffffffffffffffffffffffffffffff168152602001908152602001600020600082825461291791906146b3565b9250508190555050808061292a906147f2565b9150506127c7565b506129ca565b6064600f54826129489190614738565b61295291906147c1565b601e6000600160009054906101000a900473ffffffffffffffffffffffffffffffffffffffff1673ffffffffffffffffffffffffffffffffffffffff1673ffffffffffffffffffffffffffffffffffffffff16815260200190815260200160002060008282546129c291906146b3565b925050819055505b338760040160006101000a81548173ffffffffffffffffffffffffffffffffffffffff021916908373ffffffffffffffffffffffffffffffffffffffff16021790555081876001018190555060145442612a2491906146b3565b87600201819055504287600301819055508a876006019080519060200190612a4d929190613474565b5089876007019080519060200190612a66929190613474565b5088876008019080519060200190612a7f929190613474565b5033601960006101000a81548173ffffffffffffffffffffffffffffffffffffffff021916908373ffffffffffffffffffffffffffffffffffffffff1602179055506000601b5442612ad1919061483b565b601a54612ade919061483b565b905062093a80601d5442612af2919061483b565b1115612b05576000601a81905550612b47565b8660030154876002015482612b1a91906146b3565b10612b2f578660030154601a81905550612b46565b866002015481612b3f91906146b3565b601a819055505b5b42601b819055503073ffffffffffffffffffffffffffffffffffffffff167fcf3438e5e5a168f4995d2cc612749d18b627ab2eb58f320f981cfff9bf5dd3f960405160405180910390a250505050505050505050505050565b6000602260003373ffffffffffffffffffffffffffffffffffffffff1673ffffffffffffffffffffffffffffffffffffffff16815260200190815260200160002090508181600101541015612c2a576040517f08c379a0000000000000000000000000000000000000000000000000000000008152600401612c2190614664565b60405180910390fd5b600460009054906101000a900473ffffffffffffffffffffffffffffffffffffffff1673ffffffffffffffffffffffffffffffffffffffff166361d42f6b83336040518363ffffffff1660e01b8152600401612c879291906148d0565b600060405180830381600087803b158015612ca157600080fd5b505af1158015612cb5573d6000803e3d6000fd5b5050505081816001016000828254612ccd919061483b565b925050819055508160076000828254612ce6919061483b565b92505081905550600081600001541115612d005750612d91565b6023339080600181540180825580915050600190039060005260206000200160009091909190916101000a81548173ffffffffffffffffffffffffffffffffffffffff021916908373ffffffffffffffffffffffffffffffffffffffff16021790555060006001602380549050612d77919061483b565b9050600181612d8691906146b3565b826000018190555050505b50565b600060218281548110612daa57612da9614709565b5b90600052602060002090600902019050428160020154108015612dd05750428160030154105b8015612e2c57503373ffffffffffffffffffffffffffffffffffffffff168160040160009054906101000a900473ffffffffffffffffffffffffffffffffffffffff1673ffffffffffffffffffffffffffffffffffffffff1614155b612e6b576040517f08c379a0000000000000000000000000000000000000000000000000000000008152600401612e6290614664565b60405180910390fd5b600a543414612ea6576040517f8a0d377900000000000000000000000000000000000000000000000000000000815260040160405180910390fd5b600a54601e6000600160009054906101000a900473ffffffffffffffffffffffffffffffffffffffff1673ffffffffffffffffffffffffffffffffffffffff1673ffffffffffffffffffffffffffffffffffffffff1681526020019081526020016000206000828254612f1991906146b3565b9250508190555060155442612f2e91906146b3565b8160030181905550338160050160006101000a81548173ffffffffffffffffffffffffffffffffffffffff021916908373ffffffffffffffffffffffffffffffffffffffff1602179055505050565b600080600080600080600080600080600080600c54600d54600e54600f54601054601154601254601354601454601554601a54601b549b509b509b509b509b509b509b509b509b509b509b509b50909192939495969798999a9b565b6000600460009054906101000a900473ffffffffffffffffffffffffffffffffffffffff1673ffffffffffffffffffffffffffffffffffffffff166335703a3a336040518263ffffffff1660e01b815260040161303691906145be565b602060405180830381865afa158015613053573d6000803e3d6000fd5b505050506040513d601f19601f820116820180604052508101906130779190614960565b905090565b6060600060218054905067ffffffffffffffff81111561309f5761309e6137a1565b5b6040519080825280602002602001820160405280156130d857816020015b6130c56135ee565b8152602001906001900390816130bd5790505b50905060005b6021805490508110156133da5760006021828154811061310157613100614709565b5b906000526020600020906009020190508060405180610120016040529081600082015481526020016001820154815260200160028201548152602001600382015481526020016004820160009054906101000a900473ffffffffffffffffffffffffffffffffffffffff1673ffffffffffffffffffffffffffffffffffffffff1673ffffffffffffffffffffffffffffffffffffffff1681526020016005820160009054906101000a900473ffffffffffffffffffffffffffffffffffffffff1673ffffffffffffffffffffffffffffffffffffffff1673ffffffffffffffffffffffffffffffffffffffff1681526020016006820180546132029061489e565b80601f016020809104026020016040519081016040528092919081815260200182805461322e9061489e565b801561327b5780601f106132505761010080835404028352916020019161327b565b820191906000526020600020905b81548152906001019060200180831161325e57829003601f168201915b505050505081526020016007820180546132949061489e565b80601f01602080910402602001604051908101604052809291908181526020018280546132c09061489e565b801561330d5780601f106132e25761010080835404028352916020019161330d565b820191906000526020600020905b8154815290600101906020018083116132f057829003601f168201915b505050505081526020016008820180546133269061489e565b80601f01602080910402602001604051908101604052809291908181526020018280546133529061489e565b801561339f5780601f106133745761010080835404028352916020019161339f565b820191906000526020600020905b81548152906001019060200180831161338257829003601f168201915b5050505050815250508383815181106133bb576133ba614709565b5b60200260200101819052505080806133d2906147f2565b9150506130de565b508091505090565b600360009054906101000a900473ffffffffffffffffffffffffffffffffffffffff1673ffffffffffffffffffffffffffffffffffffffff163373ffffffffffffffffffffffffffffffffffffffff1614613472576040517f08c379a000000000000000000000000000000000000000000000000000000000815260040161346990614664565b60405180910390fd5b565b8280546134809061489e565b90600052602060002090601f0160209004810192826134a257600085556134e9565b82601f106134bb57805160ff19168380011785556134e9565b828001600101855582156134e9579182015b828111156134e85782518255916020019190600101906134cd565b5b5090506134f69190613666565b5090565b6040518060a001604052806005905b60608152602001906001900390816135095790505090565b60405180606001604052806003905b60608152602001906001900390816135305790505090565b826005810192821561358a579160200282015b82811115613589578251829080519060200190613579929190613474565b509160200191906001019061355b565b5b5090506135979190613683565b5090565b82600381019282156135dd579160200282015b828111156135dc5782518290805190602001906135cc929190613474565b50916020019190600101906135ae565b5b5090506135ea9190613683565b5090565b60405180610120016040528060008152602001600081526020016000815260200160008152602001600073ffffffffffffffffffffffffffffffffffffffff168152602001600073ffffffffffffffffffffffffffffffffffffffff1681526020016060815260200160608152602001606081525090565b5b8082111561367f576000816000905550600101613667565b5090565b5b808211156136a3576000818161369a91906136a7565b50600101613684565b5090565b5080546136b39061489e565b6000825580601f106136c557506136e4565b601f0160209004906000526020600020908101906136e39190613666565b5b50565b6000604051905090565b600080fd5b600080fd5b600073ffffffffffffffffffffffffffffffffffffffff82169050919050565b6000613726826136fb565b9050919050565b6137368161371b565b811461374157600080fd5b50565b6000813590506137538161372d565b92915050565b60006020828403121561376f5761376e6136f1565b5b600061377d84828501613744565b91505092915050565b600080fd5b600080fd5b6000601f19601f8301169050919050565b7f4e487b7100000000000000000000000000000000000000000000000000000000600052604160045260246000fd5b6137d982613790565b810181811067ffffffffffffffff821117156137f8576137f76137a1565b5b80604052505050565b600061380b6136e7565b905061381782826137d0565b919050565b600067ffffffffffffffff821115613837576138366137a1565b5b61384082613790565b9050602081019050919050565b82818337600083830152505050565b600061386f61386a8461381c565b613801565b90508281526020810184848401111561388b5761388a61378b565b5b61389684828561384d565b509392505050565b600082601f8301126138b3576138b2613786565b5b81356138c384826020860161385c565b91505092915050565b600080604083850312156138e3576138e26136f1565b5b600083013567ffffffffffffffff811115613901576139006136f6565b5b61390d8582860161389e565b925050602083013567ffffffffffffffff81111561392e5761392d6136f6565b5b61393a8582860161389e565b9150509250929050565b6000819050919050565b61395781613944565b82525050565b6000604082019050613972600083018561394e565b61397f602083018461394e565b9392505050565b61398f81613944565b811461399a57600080fd5b50565b6000813590506139ac81613986565b92915050565b6000806000806000806000806000806101408b8d0312156139d6576139d56136f1565b5b60006139e48d828e0161399d565b9a505060206139f58d828e0161399d565b9950506040613a068d828e0161399d565b9850506060613a178d828e0161399d565b9750506080613a288d828e0161399d565b96505060a0613a398d828e0161399d565b95505060c0613a4a8d828e0161399d565b94505060e0613a5b8d828e0161399d565b935050610100613a6d8d828e0161399d565b925050610120613a7f8d828e0161399d565b9150509295989b9194979a5092959850565b600060208284031215613aa757613aa66136f1565b5b6000613ab58482850161399d565b91505092915050565b600080600060608486031215613ad757613ad66136f1565b5b600084013567ffffffffffffffff811115613af557613af46136f6565b5b613b018682870161389e565b935050602084013567ffffffffffffffff811115613b2257613b216136f6565b5b613b2e8682870161389e565b925050604084013567ffffffffffffffff811115613b4f57613b4e6136f6565b5b613b5b8682870161389e565b9150509250925092565b613b6e8161371b565b82525050565b600060059050919050565b600081905092915050565b6000819050919050565b600081519050919050565b600082825260208201905092915050565b60005b83811015613bce578082015181840152602081019050613bb3565b83811115613bdd576000848401525b50505050565b6000613bee82613b94565b613bf88185613b9f565b9350613c08818560208601613bb0565b613c1181613790565b840191505092915050565b6000613c288383613be3565b905092915050565b6000602082019050919050565b6000613c4882613b74565b613c528185613b7f565b935083602082028501613c6485613b8a565b8060005b85811015613ca05784840389528151613c818582613c1c565b9450613c8c83613c30565b925060208a01995050600181019050613c68565b50829750879550505050505092915050565b600060039050919050565b600081905092915050565b6000819050919050565b6000602082019050919050565b6000613cea82613cb2565b613cf48185613cbd565b935083602082028501613d0685613cc8565b8060005b85811015613d425784840389528151613d238582613c1c565b9450613d2e83613cd2565b925060208a01995050600181019050613d0a565b50829750879550505050505092915050565b600082825260208201905092915050565b6000613d7082613b94565b613d7a8185613d54565b9350613d8a818560208601613bb0565b613d9381613790565b840191505092915050565b600061014082019050613db4600083018d613b65565b613dc1602083018c61394e565b613dce604083018b61394e565b613ddb606083018a61394e565b613de8608083018961394e565b81810360a0830152613dfa8188613c3d565b905081810360c0830152613e0e8187613cdf565b905081810360e0830152613e228186613d65565b9050818103610100830152613e378185613d65565b9050818103610120830152613e4c8184613d65565b90509b9a5050505050505050505050565b600061012082019050613e73600083018c61394e565b613e80602083018b61394e565b613e8d604083018a61394e565b613e9a6060830189613b65565b613ea7608083018861394e565b613eb460a083018761394e565b613ec160c083018661394e565b613ece60e083018561394e565b613edc61010083018461394e565b9a9950505050505050505050565b600060c082019050613eff600083018961394e565b613f0c602083018861394e565b613f19604083018761394e565b613f266060830186613b65565b613f33608083018561394e565b613f4060a083018461394e565b979650505050505050565b600067ffffffffffffffff821115613f6657613f656137a1565b5b602082029050919050565b600080fd5b6000613f89613f8484613f4b565b613801565b90508060208402830185811115613fa357613fa2613f71565b5b835b81811015613fea57803567ffffffffffffffff811115613fc857613fc7613786565b5b808601613fd5898261389e565b85526020850194505050602081019050613fa5565b5050509392505050565b600082601f83011261400957614008613786565b5b6005614016848285613f76565b91505092915050565b600067ffffffffffffffff82111561403a576140396137a1565b5b602082029050919050565b60006140586140538461401f565b613801565b9050806020840283018581111561407257614071613f71565b5b835b818110156140b957803567ffffffffffffffff81111561409757614096613786565b5b8086016140a4898261389e565b85526020850194505050602081019050614074565b5050509392505050565b600082601f8301126140d8576140d7613786565b5b60036140e5848285614045565b91505092915050565b6000806000806000806000806000806101408b8d031215614112576141116136f1565b5b60006141208d828e01613744565b9a505060206141318d828e0161399d565b99505060406141428d828e0161399d565b98505060606141538d828e0161399d565b97505060806141648d828e0161399d565b96505060a08b013567ffffffffffffffff811115614185576141846136f6565b5b6141918d828e01613ff4565b95505060c08b013567ffffffffffffffff8111156141b2576141b16136f6565b5b6141be8d828e016140c3565b94505060e08b013567ffffffffffffffff8111156141df576141de6136f6565b5b6141eb8d828e0161389e565b9350506101008b013567ffffffffffffffff81111561420d5761420c6136f6565b5b6142198d828e0161389e565b9250506101208b013567ffffffffffffffff81111561423b5761423a6136f6565b5b6142478d828e0161389e565b9150509295989b9194979a5092959850565b60008060008060808587031215614273576142726136f1565b5b60006142818782880161399d565b945050602085013567ffffffffffffffff8111156142a2576142a16136f6565b5b6142ae8782880161389e565b935050604085013567ffffffffffffffff8111156142cf576142ce6136f6565b5b6142db8782880161389e565b925050606085013567ffffffffffffffff8111156142fc576142fb6136f6565b5b6143088782880161389e565b91505092959194509250565b60006101808201905061432a600083018f61394e565b614337602083018e61394e565b614344604083018d61394e565b614351606083018c61394e565b61435e608083018b61394e565b61436b60a083018a61394e565b61437860c083018961394e565b61438560e083018861394e565b61439361010083018761394e565b6143a161012083018661394e565b6143af61014083018561394e565b6143bd61016083018461394e565b9d9c50505050505050505050505050565b60006020820190506143e3600083018461394e565b92915050565b600081519050919050565b600082825260208201905092915050565b6000819050602082019050919050565b61441e81613944565b82525050565b61442d8161371b565b82525050565b60006101208301600083015161444c6000860182614415565b50602083015161445f6020860182614415565b5060408301516144726040860182614415565b5060608301516144856060860182614415565b5060808301516144986080860182614424565b5060a08301516144ab60a0860182614424565b5060c083015184820360c08601526144c38282613be3565b91505060e083015184820360e08601526144dd8282613be3565b9150506101008301518482036101008601526144f98282613be3565b9150508091505092915050565b60006145128383614433565b905092915050565b6000602082019050919050565b6000614532826143e9565b61453c81856143f4565b93508360208202850161454e85614405565b8060005b8581101561458a578484038952815161456b8582614506565b94506145768361451a565b925060208a01995050600181019050614552565b50829750879550505050505092915050565b600060208201905081810360008301526145b68184614527565b905092915050565b60006020820190506145d36000830184613b65565b92915050565b60008115159050919050565b6145ee816145d9565b81146145f957600080fd5b50565b60008151905061460b816145e5565b92915050565b600060208284031215614627576146266136f1565b5b6000614635848285016145fc565b91505092915050565b50565b600061464e600083613d54565b91506146598261463e565b600082019050919050565b6000602082019050818103600083015261467d81614641565b9050919050565b7f4e487b7100000000000000000000000000000000000000000000000000000000600052601160045260246000fd5b60006146be82613944565b91506146c983613944565b9250827fffffffffffffffffffffffffffffffffffffffffffffffffffffffffffffffff038211156146fe576146fd614684565b5b828201905092915050565b7f4e487b7100000000000000000000000000000000000000000000000000000000600052603260045260246000fd5b600061474382613944565b915061474e83613944565b9250817fffffffffffffffffffffffffffffffffffffffffffffffffffffffffffffffff048311821515161561478757614786614684565b5b828202905092915050565b7f4e487b7100000000000000000000000000000000000000000000000000000000600052601260045260246000fd5b60006147cc82613944565b91506147d783613944565b9250826147e7576147e6614792565b5b828204905092915050565b60006147fd82613944565b91507fffffffffffffffffffffffffffffffffffffffffffffffffffffffffffffffff8214156148305761482f614684565b5b600182019050919050565b600061484682613944565b915061485183613944565b92508282101561486457614863614684565b5b828203905092915050565b7f4e487b7100000000000000000000000000000000000000000000000000000000600052602260045260246000fd5b600060028204905060018216806148b657607f821691505b602082108114156148ca576148c961486f565b5b50919050565b60006040820190506148e5600083018561394e565b6148f26020830184613b65565b9392505050565b600060408201905061490e6000830185613b65565b61491b6020830184613b65565b9392505050565b60006040820190506149376000830185613b65565b614944602083018461394e565b9392505050565b60008151905061495a81613986565b92915050565b600060208284031215614976576149756136f1565b5b60006149848482850161494b565b9150509291505056fea2646970667358221220ae1bcd2a1c6bbae462e254845682d6a81e7666c7dbdaa1aec331ab4695c2105464736f6c634300080a0033a26469706673582212203a141b99874d1eec58e1cdb84e9340273e9806aa65a093b021ace0afe5cd134864736f6c634300080a0033",
  "immutableReferences": {},
  "source": "// SPDX-License-Identifier: MIT\npragma solidity 0.8.10;\n\ninterface IS {\n    function stakeVSlice_h56(uint _amount, address _addr) external;\n    function unstakeVSlice_Hha(uint _amount, address _addr) external;\n    function vSliceViewBalance (address _addr) view external returns (uint);\n    function wl(address _addr) view external  returns (bool);\n    function active (address _fa, address _fcontract) external;\n                     }\ncontract Fight {\n    address  flipper;\n    address  dev;\n    address  dev2;\n    address  fightAdmin;\n    address  tc;\n    address  influ2;\n    address  charity;\n    uint  totalStaked;\n    uint dscs;\n    uint dscs2;\n    uint spotResPrice;\n    uint spotCounter;\n    uint flipperShare;\n    uint influ2Share;\n    uint spotCashBack;\n    uint usersSlice;\n    uint charitySlice;\n    uint iscs;\n    uint uscs;\n    uint maxUsers;\n    uint spotBusyTime;\n    uint spotReservTime;\n    uint v1;\n    uint v2;\n    address lsp;\n    address ls;\n    uint actTimer;\n    uint startTime;\n    address ff;\n    uint created;\n   \n    function _a() private view {\n        require (msg.sender == fightAdmin, \"\");\n    }\n    modifier a() {\n    _a();\n    _;\n    }\n    \n    mapping (address => uint)  pw;\n    mapping (address => uint)  votes;\n   \n    error NotEnoughEther();\n    error YouHaveToReserveFirst();\n    error FinishFightFirst();\n   \n    struct fightData {\n        uint initPrice;\n        uint np;\n        uint extention;\n        uint duration;\n        string[5] fightTopics;\n        string[3] fightLocation;\n        string promo1;\n        string promo2;\n        address influ1;\n        string shortUrl;\n        }  \n        fightData[]  fight;\n     \n    constructor(address _ff, address _dev, address _dev2, uint _dscs,uint _dscs2, uint _spotResPrice, address _fightAdmin, address _tc, address _influ2, address _charity, address _lsp) {\n        dev = _dev;\n        dev2 = _dev2;\n        dscs = _dscs;\n        dscs2 = _dscs2;\n        iscs=30;\n        uscs=34;\n        flipperShare=30;\n        influ2Share=25;\n        usersSlice=40;\n        charitySlice=5;\n        spotCashBack=100;\n        maxUsers=20000;\n        spotBusyTime=300;\n        spotReservTime=90;\n        spotResPrice = _spotResPrice;\n        fightAdmin=_fightAdmin;\n        tc =_tc;\n        influ2 = _influ2;\n        charity = _charity;\n        ff=_ff;\n        lsp=_lsp;\n        \n}\n        event fightDataEvent (address indexed fightContract);  \n        function addFightData(  \n        address influ1,\n        uint initPrice,\n        uint np,\n        uint extention,\n        uint duration,\n        string[5] memory fightTopics,\n        string[3] memory fightLocation,\n        string memory promo1,\n        string memory promo2,\n        string memory shortUrl\n        ) public a{\n        require(extention <=3600 && duration<= 604800, '');\n       \n        fight.push(fightData(\n        initPrice,\n        np,\n        extention,\n        duration,\n        fightTopics,\n        fightLocation,\n        promo1,\n        promo2,\n        influ1=fightAdmin,\n        shortUrl));\n        actTimer=duration;\n        startTime=block.timestamp;\n        ls=influ1;\n        IS(ff).active (msg.sender, address(this));\n        created=block.timestamp;\n        emit fightDataEvent (address(this));\n        }\n        \n    struct Spots {\n        uint SpotNo;\n        uint priceOfSpot;\n        uint bu;\n        uint ru;\n        address flipper;\n        address booker;\n        string text;\n        string link;\n        string pic;\n    }\n    Spots []  spots;\n   \n    struct Entry{\n        uint index;\n        uint value;\n                }\n    mapping(address => Entry)  map;\n    address[]  keyList;\n   \n   \n   //stake Virtual Slice\n   //event stakers (address indexed f);\n    function stakeingVSlice_C64(uint _value) public {\n        require(maxUsers>keyList.length, \"\");\n        IS(tc).stakeVSlice_h56(_value, msg.sender);\n        Entry storage entry = map[msg.sender];\n        entry.value += _value;\n        totalStaked += _value;\n        if(entry.index > 0){\n            return;\n        }else {\n            keyList.push(msg.sender);\n            uint keyListIndex = keyList.length - 1;\n            entry.index = keyListIndex + 1;\n        }\n        //emit stakers(msg.sender);\n    }\n\n   //Unstake Virtual Slice\n    function unstakeingVSlice_EK(uint _value) public {\n        Entry storage entry = map[msg.sender];\n        require(entry.value>=_value, \"\");\n        IS(tc).unstakeVSlice_Hha(_value, msg.sender);\n        entry.value -= _value;\n        totalStaked -= _value;\n        if(entry.index > 0){\n            return;\n        }else {\n            keyList.push(msg.sender);\n            uint keyListIndex = keyList.length - 1;\n            entry.index = keyListIndex + 1;\n        }\n    }  \n\n    //view Virtual Slice balance\n    function viewVSliceBalance () view external returns (uint){\n        return IS(tc).vSliceViewBalance(msg.sender);\n    }\n    //Create spot\n     event createSpotEvent (address indexed fightContract, address indexed dev2);  \n    function createSpot_g4A(string memory _text, string memory _link, string memory _pic) external payable {\n        fightData storage m = fight[0];\n        require((startTime+actTimer) > block.timestamp, '');\n        if (msg.value != m.initPrice) revert NotEnoughEther();\n        pw[dev] += (m.initPrice * dscs/100);\n        pw[dev2] += (m.initPrice * dscs2/100);\n        pw[lsp] += (m.initPrice * 30/100);\n        pw[m.influ1] += (m.initPrice * iscs/100)/2;\n        pw[influ2] += (m.initPrice * iscs/100)/2;\n        if (keyList.length!=0) {\n        for (uint i = 0; i < keyList.length; i++)\n        {\n        Entry storage entry = map[keyList[i]];\n        pw[keyList[i]] += ((m.initPrice * uscs/100) * entry.value/totalStaked);\n        }\n        } else {pw[dev]+=(m.initPrice * uscs/100);}\n        uint nextPrice = m.initPrice + ((m.initPrice * m.np)/100);\n        spotCounter=spotCounter+1;\n        uint spotN = spotCounter;\n        string memory text = _text;\n        string memory link = _link;\n        string memory pic= _pic;\n        ls=msg.sender;\n        //timer start\n        uint timeLeft = actTimer - (block.timestamp-startTime);\n        if (block.timestamp - created > 604800)\n            {actTimer= 0;}\n         else if (timeLeft+m.extention >=m.duration)\n               {actTimer=m.duration;}\n         else {actTimer= timeLeft+ m.extention;}\n                startTime = block.timestamp;\n        //timer end\n        spots.push(Spots(spotN, nextPrice,block.timestamp+spotBusyTime, block.timestamp, msg.sender,msg.sender, text, link, pic));\n    emit createSpotEvent (address(this), dev2);\n        \n    }\n\n  //flip\n    event flipSpotEvent (address indexed fightContract);  \n    function flip_Maf(uint _index, string memory _text, string memory _link, string memory _pic) external payable {\n        uint cb;\n        Spots storage spot = spots[_index];\n        fightData storage m = fight[0];\n        require(spot.bu < block.timestamp, '');\n        require(spot.booker==msg.sender || spot.ru<block.timestamp, '');\n        require((startTime+actTimer) > block.timestamp, '');\n        if (msg.value != spot.priceOfSpot) revert NotEnoughEther();\n        uint currentPrice = spot.priceOfSpot;\n        uint previousPrice = ((currentPrice / ((100 + m.np)))*100);\n        cb= ((previousPrice * spotCashBack)/100);\n        uint exFlipperProfit = ((currentPrice - previousPrice) * flipperShare)/100;\n        uint nextPrice = ((spot.priceOfSpot * ((100 + m.np)))/100);\n        pw[spot.flipper] += (cb + exFlipperProfit);\n        uint toDistro = spot.priceOfSpot - (cb + exFlipperProfit);\n        pw[m.influ1] += (toDistro * influ2Share/100)/2;\n        pw[influ2] += (toDistro * influ2Share/100)/2;\n        pw[charity] += (toDistro * charitySlice/100);\n        pw[lsp] += (toDistro * 30/100);\n        if (keyList.length!=0) {\n        for (uint i = 0; i < keyList.length; i++)\n        {\n        Entry storage entry = map[keyList[i]];\n        pw[keyList[i]] += (toDistro * usersSlice/100) * entry.value/totalStaked;\n        }\n        } else {pw[dev]+=(toDistro * usersSlice/100);}\n        spot.flipper = msg.sender;\n        spot.priceOfSpot = nextPrice;\n        spot.bu = block.timestamp+spotBusyTime;\n        spot.ru=block.timestamp;\n        spot.text = _text;\n        spot.link = _link;\n        spot.pic= _pic;\n        ls=msg.sender;\n        //timer start\n        uint timeLeft = actTimer - (block.timestamp-startTime);\n        if (block.timestamp - created > 604800)\n            {actTimer= 0;}\n        else if (timeLeft+m.extention >=m.duration)\n               {actTimer=m.duration;}\n         else {actTimer= timeLeft+ m.extention;}\n        startTime = block.timestamp;\n        //timer end\n        \n        emit flipSpotEvent (address(this));\n    }\n       //Get spots\n    function getSpots() public view returns (Spots[] memory){\n      Spots[]    memory id = new Spots[](spots.length);\n      for (uint i = 0; i < spots.length; i++) {\n          Spots storage spot = spots[i];\n          id[i] = spot;\n      }\n      return id;\n  }\n  \n   //Spot Reservation\n    function spotReserve_u5k(uint _indx) external payable {\n        Spots storage spot = spots[_indx];\n        require(spot.bu<block.timestamp && spot.ru<block.timestamp && spot.flipper != msg.sender, \"\");\n        if (msg.value != spotResPrice) revert NotEnoughEther();\n        pw[dev]+=spotResPrice;\n        spot.ru = block.timestamp+spotReservTime;\n        spot.booker=msg.sender;\n    }\n   //Spot reset\n    function resetspot(uint _indx) external a (){\n        fightData storage m = fight[0];\n        Spots storage spot = spots[_indx];\n        spot.priceOfSpot=m.initPrice;\n        spot.bu=0;\n        spot.ru=0;\n        spot.text='';\n        spot.pic='';\n        spot.link='';\n    }\n   //make withdrawal\n    event withdrawals (uint amount, uint who);  \n    function makeWithdrawal() public {\n        uint amount = pw[msg.sender];\n        pw[msg.sender] = 0;\n        payable(msg.sender).transfer(amount);\n        uint who;\n        if (msg.sender==charity) {who=1;} \n        else if (msg.sender==dev2) {who=3;}\n        else {who=4;}\n        emit withdrawals (amount, who);\n    }\n    //make withdrawal of Last Spot Pot\n    event withdrawalsLSP (address addr, uint amount);  \n    function makeWithdrawalLSP() public {\n        require(ls==msg.sender && (startTime+actTimer) <= block.timestamp, '');\n        uint amount = pw[lsp];\n        pw[lsp] = 0;\n        actTimer=0;\n        payable(msg.sender).transfer(amount);\n        emit withdrawalsLSP (msg.sender, amount);\n    }\n    \n\n\n   //Vote 1\n    function voting1_E7O(address _addr) public {\n        require(votes[_addr]==0 && IS(tc).wl(msg.sender)==true,'');\n        votes[_addr]=1;\n        v1 +=1;\n    }\n   //Vote 2\n    function voting2_eoL(address _addr) public {\n        require(votes[_addr]==0 && IS(tc).wl(msg.sender)==true,'');\n        votes[_addr]=1;\n        v2 +=1;\n\n    }\n    //Show votes\n    function getVotes() view public returns (uint, uint) {\n        return (v1, v2);\n    }\n    //Get fight data\n    function getFightData () public view returns (address, uint, uint, uint, uint, string[5] memory, string[3] memory, string memory ,string memory, string memory) {\n       fightData storage spot = fight[0];\n    return (spot.influ1, spot.initPrice, spot.np, spot.extention, spot.duration, spot.fightTopics, spot.fightLocation, spot.promo1, spot.promo2, spot.shortUrl);}\n\n    // Staked tokens - number of Stakers - voted - fight createdDate\n    function getFightParams2 () view external returns (uint, uint, uint, address, uint, uint, uint, uint, uint) {\n        Entry storage entry = map[msg.sender];\n    return (entry.value, keyList.length, created, charity, spotResPrice, uscs, charitySlice, usersSlice, actTimer);\n    }\n    \n    //Get fights parameters\n    function getFightParams() public view returns (uint, uint, uint, uint, uint, uint, uint , uint , uint, uint,uint, uint) {\n    return (flipperShare,influ2Share,spotCashBack,usersSlice, charitySlice,iscs, uscs, maxUsers,spotBusyTime, spotReservTime, actTimer,startTime);}\n        \n    //Show withrawal balances\n    function showBalance() view external returns (uint, uint, uint, address, uint, uint) {\n    return (pw[msg.sender], pw[charity], pw[lsp],ls, created, actTimer);\n    }\n   \n    //Update fight promo\n    function ufp (string memory _promo1, string memory _promo2) public {\n    fightData storage spot = fight[0];\n    require((spot.influ1==msg.sender) , '');\n    spot.promo2 = _promo2;\n    spot.promo1=_promo1;\n}   \n    //Set fight parameters\n    function sF (uint fs, uint infs, uint scb, uint us, uint cs, uint _iscs, uint _uscs, uint mu, uint sbt, uint srt) public a(){\n    require ((infs+us+cs) == 70 && (_iscs+_uscs+dscs+dscs2) == 70 && spotReservTime >= 60, '');\n    flipperShare = fs;\n    influ2Share = infs;\n    spotCashBack = scb;\n    usersSlice = us;\n    charitySlice = cs;\n    iscs = _iscs;\n    uscs = _uscs;\n    maxUsers=mu;\n    spotBusyTime = sbt;\n    spotReservTime = srt;\n    }\n\n}\n   \n       \n    contract fightFactory {\n    address dev;\n    address dev2;\n    uint  dscs;\n    uint  dscs2;\n    uint  spotResPrice;\n    address  fightAdmin;\n    address  tc;\n    address  lca;\n    address  influ2;\n    address  charity;\n    address lsp;\n \n \n   \n    struct fc {\n        address fightAdmin;\n        address fightContract;\n        bool active;\n    }\n    fc []  fcl;\n    mapping(address => mapping(address =>uint)) index;\n    mapping(address => uint)  fightCount;\n    \n    constructor (address _tc) {\n        dev = msg.sender;\n        lsp=0xc8170df33EA09F767CEC6E478ebe71a04c2bFA24;\n        tc= _tc;\n        dscs= 1;\n        dscs2=5;\n        spotResPrice=1000000000000000000;\n    }\n //creating a new fight\n    event createNewFight (address indexed fightAddress, address indexed factoryAddress);\n    function createFight(address _dev2, address _influ2, address _charity) external returns(address){\n       fightAdmin= msg.sender;\n       lca = address(new Fight(address(this),dev,_dev2,dscs,dscs2,spotResPrice, fightAdmin, tc, _influ2, _charity, lsp));\n       fcl.push(fc(msg.sender, lca, false));\n       index[msg.sender][lca]=fcl.length-1;\n       fightCount[msg.sender] +=1;\n       emit createNewFight (lca, address(this));    \n    return lca;\n    }\n//get fights by admin \n         function getFightsByAdmin(address _owner) public view returns (fc[] memory) {\n        fc[] memory result = new fc[](fightCount[_owner]);\n        uint counter = 0;\n       \n        for (uint i = 0; i < fcl.length; i++) {\n            if (fcl[i].fightAdmin == _owner) {\n                fc storage list = fcl[i];\n                result[counter] = list;\n                counter++;\n            }\n        }\n        return result;\n    }\n    \n       function getAllFights() public view returns (fc[] memory){\n      fc[]    memory id = new fc[](fcl.length);\n      for (uint i = 0; i < fcl.length; i++) {\n          fc storage spot = fcl[i];\n          id[i] = spot;\n      }\n      return id;\n  }\n    \n        function active (address _fa, address _fcontract) external {\n        uint ind = index[_fa][_fcontract];\n         fc storage m = fcl[ind];\n         m.active=true;\n    }\n\n    \n//Set Spot Reservation Price\n    function srp (uint _price) external {\n        require(msg.sender == dev, \"\");\n        spotResPrice = _price;\n    }\n\n    }\n",
  "sourcePath": "/Users/stanislavpavlovic/Desktop/Slice/ee/contracts/fight.sol",
  "compiler": {
    "name": "solc",
    "version": "0.8.10+commit.fc410830.Emscripten.clang"
  },
  "schemaVersion": "3.4.3",
  "updatedAt": "2022-02-17T18:40:19.595Z",
  "networkType": "ethereum",
  "devdoc": {
    "kind": "dev",
    "methods": {},
    "version": 1
  },
  "userdoc": {
    "kind": "user",
    "methods": {},
    "version": 1
  }
}