{
  "contractName": "Fight",
  "abi": [
    {
      "inputs": [
        {
          "internalType": "address",
          "name": "_ff",
          "type": "address"
        },
        {
          "internalType": "address",
          "name": "_dev",
          "type": "address"
        },
        {
          "internalType": "address",
          "name": "_dev2",
          "type": "address"
        },
        {
          "internalType": "uint256",
          "name": "_dscs",
          "type": "uint256"
        },
        {
          "internalType": "uint256",
          "name": "_dscs2",
          "type": "uint256"
        },
        {
          "internalType": "uint256",
          "name": "_spotResPrice",
          "type": "uint256"
        },
        {
          "internalType": "address",
          "name": "_fightAdmin",
          "type": "address"
        },
        {
          "internalType": "address",
          "name": "_tc",
          "type": "address"
        },
        {
          "internalType": "address",
          "name": "_influ2",
          "type": "address"
        },
        {
          "internalType": "address",
          "name": "_charity",
          "type": "address"
        },
        {
          "internalType": "address",
          "name": "_lsp",
          "type": "address"
        }
      ],
      "stateMutability": "nonpayable",
      "type": "constructor"
    },
    {
      "inputs": [],
      "name": "FinishFightFirst",
      "type": "error"
    },
    {
      "inputs": [],
      "name": "NotEnoughEther",
      "type": "error"
    },
    {
      "inputs": [],
      "name": "YouHaveToReserveFirst",
      "type": "error"
    },
    {
      "anonymous": false,
      "inputs": [
        {
          "indexed": true,
          "internalType": "address",
          "name": "fightContract",
          "type": "address"
        },
        {
          "indexed": true,
          "internalType": "address",
          "name": "dev2",
          "type": "address"
        }
      ],
      "name": "createSpotEvent",
      "type": "event"
    },
    {
      "anonymous": false,
      "inputs": [
        {
          "indexed": true,
          "internalType": "address",
          "name": "fightContract",
          "type": "address"
        }
      ],
      "name": "flipSpotEvent",
      "type": "event"
    },
    {
      "anonymous": false,
      "inputs": [
        {
          "indexed": false,
          "internalType": "address",
          "name": "fightContract",
          "type": "address"
        }
      ],
      "name": "reservation",
      "type": "event"
    },
    {
      "anonymous": false,
      "inputs": [
        {
          "indexed": false,
          "internalType": "address",
          "name": "addr",
          "type": "address"
        },
        {
          "indexed": false,
          "internalType": "uint256",
          "name": "amount",
          "type": "uint256"
        }
      ],
      "name": "withdrawalsLSP",
      "type": "event"
    },
    {
      "inputs": [
        {
          "internalType": "address",
          "name": "influ1",
          "type": "address"
        },
        {
          "internalType": "uint256",
          "name": "initPrice",
          "type": "uint256"
        },
        {
          "internalType": "uint256",
          "name": "np",
          "type": "uint256"
        },
        {
          "internalType": "uint256",
          "name": "extention",
          "type": "uint256"
        },
        {
          "internalType": "uint256",
          "name": "duration",
          "type": "uint256"
        },
        {
          "internalType": "string[5]",
          "name": "fightTopics",
          "type": "string[5]"
        },
        {
          "internalType": "string",
          "name": "promo1",
          "type": "string"
        },
        {
          "internalType": "string",
          "name": "promo2",
          "type": "string"
        },
        {
          "internalType": "string",
          "name": "shortUrl",
          "type": "string"
        }
      ],
      "name": "addFightData",
      "outputs": [],
      "stateMutability": "nonpayable",
      "type": "function"
    },
    {
      "inputs": [
        {
          "internalType": "uint256",
          "name": "_value",
          "type": "uint256"
        }
      ],
      "name": "stakeingVSlice_C64",
      "outputs": [],
      "stateMutability": "nonpayable",
      "type": "function"
    },
    {
      "inputs": [
        {
          "internalType": "uint256",
          "name": "_value",
          "type": "uint256"
        }
      ],
      "name": "unstakeingVSlice_EK",
      "outputs": [],
      "stateMutability": "nonpayable",
      "type": "function"
    },
    {
      "inputs": [],
      "name": "viewVSliceBalance",
      "outputs": [
        {
          "internalType": "uint256",
          "name": "",
          "type": "uint256"
        }
      ],
      "stateMutability": "view",
      "type": "function"
    },
    {
      "inputs": [
        {
          "internalType": "string",
          "name": "_text",
          "type": "string"
        },
        {
          "internalType": "string",
          "name": "_link",
          "type": "string"
        },
        {
          "internalType": "string",
          "name": "_pic",
          "type": "string"
        },
        {
          "internalType": "string",
          "name": "_mediaType",
          "type": "string"
        }
      ],
      "name": "createSpot_g4A",
      "outputs": [],
      "stateMutability": "payable",
      "type": "function"
    },
    {
      "inputs": [
        {
          "internalType": "uint256",
          "name": "_index",
          "type": "uint256"
        },
        {
          "internalType": "string",
          "name": "_text",
          "type": "string"
        },
        {
          "internalType": "string",
          "name": "_link",
          "type": "string"
        },
        {
          "internalType": "string",
          "name": "_pic",
          "type": "string"
        },
        {
          "internalType": "string",
          "name": "_mediaType",
          "type": "string"
        }
      ],
      "name": "flip_Maf",
      "outputs": [],
      "stateMutability": "payable",
      "type": "function"
    },
    {
      "inputs": [],
      "name": "getSpots",
      "outputs": [
        {
          "components": [
            {
              "internalType": "uint256",
              "name": "SpotNo",
              "type": "uint256"
            },
            {
              "internalType": "uint256",
              "name": "priceOfSpot",
              "type": "uint256"
            },
            {
              "internalType": "uint256",
              "name": "bu",
              "type": "uint256"
            },
            {
              "internalType": "uint256",
              "name": "ru",
              "type": "uint256"
            },
            {
              "internalType": "address",
              "name": "flipper",
              "type": "address"
            },
            {
              "internalType": "address",
              "name": "booker",
              "type": "address"
            },
            {
              "internalType": "string",
              "name": "text",
              "type": "string"
            },
            {
              "internalType": "string",
              "name": "link",
              "type": "string"
            },
            {
              "internalType": "string",
              "name": "pic",
              "type": "string"
            },
            {
              "internalType": "string",
              "name": "mediaType",
              "type": "string"
            }
          ],
          "internalType": "struct Fight.Spots[]",
          "name": "",
          "type": "tuple[]"
        }
      ],
      "stateMutability": "view",
      "type": "function"
    },
    {
      "inputs": [
        {
          "internalType": "uint256",
          "name": "_indx",
          "type": "uint256"
        }
      ],
      "name": "spotReserve_u5k",
      "outputs": [],
      "stateMutability": "payable",
      "type": "function"
    },
    {
      "inputs": [
        {
          "internalType": "uint256",
          "name": "_indx",
          "type": "uint256"
        }
      ],
      "name": "resetspot",
      "outputs": [],
      "stateMutability": "nonpayable",
      "type": "function"
    },
    {
      "inputs": [],
      "name": "makeWithdrawal",
      "outputs": [],
      "stateMutability": "nonpayable",
      "type": "function"
    },
    {
      "inputs": [],
      "name": "makeWithdrawalLSP",
      "outputs": [],
      "stateMutability": "nonpayable",
      "type": "function"
    },
    {
      "inputs": [
        {
          "internalType": "address",
          "name": "_addr",
          "type": "address"
        }
      ],
      "name": "voting1_E7O",
      "outputs": [],
      "stateMutability": "nonpayable",
      "type": "function"
    },
    {
      "inputs": [
        {
          "internalType": "address",
          "name": "_addr",
          "type": "address"
        }
      ],
      "name": "voting2_eoL",
      "outputs": [],
      "stateMutability": "nonpayable",
      "type": "function"
    },
    {
      "inputs": [],
      "name": "getVotes",
      "outputs": [
        {
          "internalType": "uint256",
          "name": "",
          "type": "uint256"
        },
        {
          "internalType": "uint256",
          "name": "",
          "type": "uint256"
        },
        {
          "internalType": "uint256",
          "name": "",
          "type": "uint256"
        }
      ],
      "stateMutability": "view",
      "type": "function"
    },
    {
      "inputs": [],
      "name": "getFightData",
      "outputs": [
        {
          "internalType": "address",
          "name": "",
          "type": "address"
        },
        {
          "internalType": "uint256",
          "name": "",
          "type": "uint256"
        },
        {
          "internalType": "uint256",
          "name": "",
          "type": "uint256"
        },
        {
          "internalType": "uint256",
          "name": "",
          "type": "uint256"
        },
        {
          "internalType": "uint256",
          "name": "",
          "type": "uint256"
        },
        {
          "internalType": "string[5]",
          "name": "",
          "type": "string[5]"
        },
        {
          "internalType": "string",
          "name": "",
          "type": "string"
        },
        {
          "internalType": "string",
          "name": "",
          "type": "string"
        },
        {
          "internalType": "string",
          "name": "",
          "type": "string"
        }
      ],
      "stateMutability": "view",
      "type": "function"
    },
    {
      "inputs": [],
      "name": "getFightParams2",
      "outputs": [
        {
          "internalType": "uint256",
          "name": "",
          "type": "uint256"
        },
        {
          "internalType": "uint256",
          "name": "",
          "type": "uint256"
        },
        {
          "internalType": "uint256",
          "name": "",
          "type": "uint256"
        },
        {
          "internalType": "address",
          "name": "",
          "type": "address"
        },
        {
          "internalType": "uint256",
          "name": "",
          "type": "uint256"
        },
        {
          "internalType": "uint256",
          "name": "",
          "type": "uint256"
        },
        {
          "internalType": "uint256",
          "name": "",
          "type": "uint256"
        },
        {
          "internalType": "uint256",
          "name": "",
          "type": "uint256"
        },
        {
          "internalType": "uint256",
          "name": "",
          "type": "uint256"
        }
      ],
      "stateMutability": "view",
      "type": "function"
    },
    {
      "inputs": [],
      "name": "getFightParams",
      "outputs": [
        {
          "internalType": "uint256",
          "name": "",
          "type": "uint256"
        },
        {
          "internalType": "uint256",
          "name": "",
          "type": "uint256"
        },
        {
          "internalType": "uint256",
          "name": "",
          "type": "uint256"
        },
        {
          "internalType": "uint256",
          "name": "",
          "type": "uint256"
        },
        {
          "internalType": "uint256",
          "name": "",
          "type": "uint256"
        },
        {
          "internalType": "uint256",
          "name": "",
          "type": "uint256"
        },
        {
          "internalType": "uint256",
          "name": "",
          "type": "uint256"
        },
        {
          "internalType": "uint256",
          "name": "",
          "type": "uint256"
        },
        {
          "internalType": "uint256",
          "name": "",
          "type": "uint256"
        },
        {
          "internalType": "uint256",
          "name": "",
          "type": "uint256"
        },
        {
          "internalType": "uint256",
          "name": "",
          "type": "uint256"
        },
        {
          "internalType": "uint256",
          "name": "",
          "type": "uint256"
        }
      ],
      "stateMutability": "view",
      "type": "function"
    },
    {
      "inputs": [],
      "name": "showBalance",
      "outputs": [
        {
          "internalType": "uint256",
          "name": "",
          "type": "uint256"
        },
        {
          "internalType": "uint256",
          "name": "",
          "type": "uint256"
        },
        {
          "internalType": "uint256",
          "name": "",
          "type": "uint256"
        },
        {
          "internalType": "address",
          "name": "",
          "type": "address"
        },
        {
          "internalType": "uint256",
          "name": "",
          "type": "uint256"
        },
        {
          "internalType": "uint256",
          "name": "",
          "type": "uint256"
        }
      ],
      "stateMutability": "view",
      "type": "function"
    },
    {
      "inputs": [
        {
          "internalType": "string",
          "name": "_promo1",
          "type": "string"
        },
        {
          "internalType": "string",
          "name": "_promo2",
          "type": "string"
        }
      ],
      "name": "ufp",
      "outputs": [],
      "stateMutability": "nonpayable",
      "type": "function"
    },
    {
      "inputs": [
        {
          "internalType": "uint256",
          "name": "fs",
          "type": "uint256"
        },
        {
          "internalType": "uint256",
          "name": "infs",
          "type": "uint256"
        },
        {
          "internalType": "uint256",
          "name": "scb",
          "type": "uint256"
        },
        {
          "internalType": "uint256",
          "name": "us",
          "type": "uint256"
        },
        {
          "internalType": "uint256",
          "name": "cs",
          "type": "uint256"
        },
        {
          "internalType": "uint256",
          "name": "_iscs",
          "type": "uint256"
        },
        {
          "internalType": "uint256",
          "name": "_uscs",
          "type": "uint256"
        },
        {
          "internalType": "uint256",
          "name": "mu",
          "type": "uint256"
        },
        {
          "internalType": "uint256",
          "name": "sbt",
          "type": "uint256"
        },
        {
          "internalType": "uint256",
          "name": "srt",
          "type": "uint256"
        }
      ],
      "name": "sF",
      "outputs": [],
      "stateMutability": "nonpayable",
      "type": "function"
    }
  ],
  "bytecode": "0x60806040523480156200001157600080fd5b5060405162004e4438038062004e4483398181016040528101906200003791906200035d565b89600160006101000a81548173ffffffffffffffffffffffffffffffffffffffff021916908373ffffffffffffffffffffffffffffffffffffffff16021790555088600260006101000a81548173ffffffffffffffffffffffffffffffffffffffff021916908373ffffffffffffffffffffffffffffffffffffffff1602179055508760088190555086600981905550600a60118190555060366012819055506046600c81905550600a600d819055506055600f8190555060056010819055506064600e81905550614e2060138190555061012c60148190555061012c60158190555085600a8190555084600360006101000a81548173ffffffffffffffffffffffffffffffffffffffff021916908373ffffffffffffffffffffffffffffffffffffffff16021790555083600460006101000a81548173ffffffffffffffffffffffffffffffffffffffff021916908373ffffffffffffffffffffffffffffffffffffffff16021790555082600560006101000a81548173ffffffffffffffffffffffffffffffffffffffff021916908373ffffffffffffffffffffffffffffffffffffffff16021790555081600660006101000a81548173ffffffffffffffffffffffffffffffffffffffff021916908373ffffffffffffffffffffffffffffffffffffffff1602179055508a601c60006101000a81548173ffffffffffffffffffffffffffffffffffffffff021916908373ffffffffffffffffffffffffffffffffffffffff16021790555080601860006101000a81548173ffffffffffffffffffffffffffffffffffffffff021916908373ffffffffffffffffffffffffffffffffffffffff16021790555050505050505050505050506200046a565b600080fd5b600073ffffffffffffffffffffffffffffffffffffffff82169050919050565b6000620002ea82620002bd565b9050919050565b620002fc81620002dd565b81146200030857600080fd5b50565b6000815190506200031c81620002f1565b92915050565b6000819050919050565b620003378162000322565b81146200034357600080fd5b50565b60008151905062000357816200032c565b92915050565b60008060008060008060008060008060006101608c8e031215620003865762000385620002b8565b5b6000620003968e828f016200030b565b9b50506020620003a98e828f016200030b565b9a50506040620003bc8e828f016200030b565b9950506060620003cf8e828f0162000346565b9850506080620003e28e828f0162000346565b97505060a0620003f58e828f0162000346565b96505060c0620004088e828f016200030b565b95505060e06200041b8e828f016200030b565b9450506101006200042f8e828f016200030b565b935050610120620004438e828f016200030b565b925050610140620004578e828f016200030b565b9150509295989b509295989b9093969950565b6149ca806200047a6000396000f3fe60806040526004361061011b5760003560e01c80637c0ce7ad116100a0578063e7ac9ab411610064578063e7ac9ab414610368578063e8c90e8814610384578063f706cccc146103ba578063f9521129146103e3578063fa9375711461040e5761011b565b80637c0ce7ad146102b357806381b2d07b146102dc578063a5d7c82f1461030c578063b9bbba1814610323578063e51c484e1461033f5761011b565b80633951b4c9116100e75780633951b4c9146101e457806344d16475146101fb57806347f9ba5e14610224578063503cfdb71461024d5780635eebe258146102805761011b565b8061825e14610120578061ecc8146101495780630126fe5e146101725780630dc960151461019b5780632a6eff14146101c8575b600080fd5b34801561012c57600080fd5b506101476004803603810190610142919061388e565b610439565b005b34801561015557600080fd5b50610170600480360381019061016b919061388e565b6105c8565b005b34801561017e57600080fd5b5061019960048036038101906101949190613a01565b610757565b005b3480156101a757600080fd5b506101b0610847565b6040516101bf93929190613a92565b60405180910390f35b6101e260048036038101906101dd9190613af5565b610860565b005b3480156101f057600080fd5b506101f96112d9565b005b34801561020757600080fd5b50610222600480360381019061021d9190613be0565b6113ac565b005b34801561023057600080fd5b5061024b60048036038101906102469190613cbf565b6114be565b005b34801561025957600080fd5b506102626115b1565b60405161027799989796959493929190613e83565b60405180910390f35b34801561028c57600080fd5b506102956118b9565b6040516102aa99989796959493929190613f2c565b60405180910390f35b3480156102bf57600080fd5b506102da60048036038101906102d59190613cbf565b611967565b005b3480156102e857600080fd5b506102f1611b5d565b60405161030396959493929190613fb9565b60405180910390f35b34801561031857600080fd5b50610321611ca7565b005b61033d6004803603810190610338919061401a565b611eaa565b005b34801561034b57600080fd5b5061036660048036038101906103619190613cbf565b6129ac565b005b610382600480360381019061037d9190613cbf565b612ba0565b005b34801561039057600080fd5b50610399612dc0565b6040516103b19c9b9a999897969594939291906140f1565b60405180910390f35b3480156103c657600080fd5b506103e160048036038101906103dc919061427f565b612e1c565b005b3480156103ef57600080fd5b506103f86130ef565b60405161040591906143b9565b60405180910390f35b34801561041a57600080fd5b50610423613192565b60405161043091906145a3565b60405180910390f35b6000601f60008373ffffffffffffffffffffffffffffffffffffffff1673ffffffffffffffffffffffffffffffffffffffff16815260200190815260200160002054148015610527575060011515600460009054906101000a900473ffffffffffffffffffffffffffffffffffffffff1673ffffffffffffffffffffffffffffffffffffffff16632fee9e7e336040518263ffffffff1660e01b81526004016104e291906145c5565b602060405180830381865afa1580156104ff573d6000803e3d6000fd5b505050506040513d601f19601f820116820180604052508101906105239190614618565b1515145b610566576040517f08c379a000000000000000000000000000000000000000000000000000000000815260040161055d9061466b565b60405180910390fd5b6001601f60008373ffffffffffffffffffffffffffffffffffffffff1673ffffffffffffffffffffffffffffffffffffffff168152602001908152602001600020819055506001601660008282546105be91906146ba565b9250508190555050565b6000601f60008373ffffffffffffffffffffffffffffffffffffffff1673ffffffffffffffffffffffffffffffffffffffff168152602001908152602001600020541480156106b6575060011515600460009054906101000a900473ffffffffffffffffffffffffffffffffffffffff1673ffffffffffffffffffffffffffffffffffffffff16632fee9e7e336040518263ffffffff1660e01b815260040161067191906145c5565b602060405180830381865afa15801561068e573d6000803e3d6000fd5b505050506040513d601f19601f820116820180604052508101906106b29190614618565b1515145b6106f5576040517f08c379a00000000000000000000000000000000000000000000000000000000081526004016106ec9061466b565b60405180910390fd5b6001601f60008373ffffffffffffffffffffffffffffffffffffffff1673ffffffffffffffffffffffffffffffffffffffff1681526020019081526020016000208190555060016017600082825461074d91906146ba565b9250508190555050565b6000602060008154811061076e5761076d614710565b5b90600052602060002090600d020190503373ffffffffffffffffffffffffffffffffffffffff1681600b0160009054906101000a900473ffffffffffffffffffffffffffffffffffffffff1673ffffffffffffffffffffffffffffffffffffffff1614610810576040517f08c379a00000000000000000000000000000000000000000000000000000000081526004016108079061466b565b60405180910390fd5b8181600a01908051906020019061082892919061361c565b508281600901908051906020019061084192919061361c565b50505050565b6000806000601654601754600754925092509250909192565b6000806021878154811061087757610876614710565b5b90600052602060002090600a020190506000602060008154811061089e5761089d614710565b5b90600052602060002090600d02019050428260020154106108f4576040517f08c379a00000000000000000000000000000000000000000000000000000000081526004016108eb9061466b565b60405180910390fd5b3373ffffffffffffffffffffffffffffffffffffffff168260050160009054906101000a900473ffffffffffffffffffffffffffffffffffffffff1673ffffffffffffffffffffffffffffffffffffffff1614806109555750428260030154105b610994576040517f08c379a000000000000000000000000000000000000000000000000000000000815260040161098b9061466b565b60405180910390fd5b42601a54601b546109a591906146ba565b116109e5576040517f08c379a00000000000000000000000000000000000000000000000000000000081526004016109dc9061466b565b60405180910390fd5b81600101543414610a22576040517f8a0d377900000000000000000000000000000000000000000000000000000000815260040160405180910390fd5b6000826001015490506000606483600101546064610a4091906146ba565b83610a4b919061476e565b610a55919061479f565b90506064600e5482610a67919061479f565b610a71919061476e565b945060006064600c548385610a8691906147f9565b610a90919061479f565b610a9a919061476e565b90506000606485600101546064610ab191906146ba565b8760010154610ac0919061479f565b610aca919061476e565b90508187610ad891906146ba565b601e60008860040160009054906101000a900473ffffffffffffffffffffffffffffffffffffffff1673ffffffffffffffffffffffffffffffffffffffff1673ffffffffffffffffffffffffffffffffffffffff1681526020019081526020016000206000828254610b4a91906146ba565b9250508190555060008288610b5f91906146ba565b8760010154610b6e91906147f9565b905060026064600d5483610b82919061479f565b610b8c919061476e565b610b96919061476e565b601e600088600b0160009054906101000a900473ffffffffffffffffffffffffffffffffffffffff1673ffffffffffffffffffffffffffffffffffffffff1673ffffffffffffffffffffffffffffffffffffffff1681526020019081526020016000206000828254610c0891906146ba565b9250508190555060026064600d5483610c21919061479f565b610c2b919061476e565b610c35919061476e565b601e6000600560009054906101000a900473ffffffffffffffffffffffffffffffffffffffff1673ffffffffffffffffffffffffffffffffffffffff1673ffffffffffffffffffffffffffffffffffffffff1681526020019081526020016000206000828254610ca591906146ba565b92505081905550606460105482610cbc919061479f565b610cc6919061476e565b601e6000600660009054906101000a900473ffffffffffffffffffffffffffffffffffffffff1673ffffffffffffffffffffffffffffffffffffffff1673ffffffffffffffffffffffffffffffffffffffff1681526020019081526020016000206000828254610d3691906146ba565b925050819055506000602380549050146110575760005b6023805490508110156110515760006022600060238481548110610d7457610d73614710565b5b9060005260206000200160009054906101000a900473ffffffffffffffffffffffffffffffffffffffff1673ffffffffffffffffffffffffffffffffffffffff1673ffffffffffffffffffffffffffffffffffffffff168152602001908152602001600020905060011515600460009054906101000a900473ffffffffffffffffffffffffffffffffffffffff1673ffffffffffffffffffffffffffffffffffffffff16632fee9e7e60238581548110610e3157610e30614710565b5b9060005260206000200160009054906101000a900473ffffffffffffffffffffffffffffffffffffffff166040518263ffffffff1660e01b8152600401610e7891906145c5565b602060405180830381865afa158015610e95573d6000803e3d6000fd5b505050506040513d601f19601f82011682018060405250810190610eb99190614618565b15151415610f8f5760075481600101546064600f5486610ed9919061479f565b610ee3919061476e565b610eed919061479f565b610ef7919061476e565b601e600060238581548110610f0f57610f0e614710565b5b9060005260206000200160009054906101000a900473ffffffffffffffffffffffffffffffffffffffff1673ffffffffffffffffffffffffffffffffffffffff1673ffffffffffffffffffffffffffffffffffffffff1681526020019081526020016000206000828254610f8391906146ba565b9250508190555061103d565b60075481600101546064600f5486610fa7919061479f565b610fb1919061476e565b610fbb919061479f565b610fc5919061476e565b601e6000600660009054906101000a900473ffffffffffffffffffffffffffffffffffffffff1673ffffffffffffffffffffffffffffffffffffffff1673ffffffffffffffffffffffffffffffffffffffff168152602001908152602001600020600082825461103591906146ba565b925050819055505b5080806110499061482d565b915050610d4d565b506110e9565b6064600f5482611067919061479f565b611071919061476e565b601e6000600660009054906101000a900473ffffffffffffffffffffffffffffffffffffffff1673ffffffffffffffffffffffffffffffffffffffff1673ffffffffffffffffffffffffffffffffffffffff16815260200190815260200160002060008282546110e191906146ba565b925050819055505b338760040160006101000a81548173ffffffffffffffffffffffffffffffffffffffff021916908373ffffffffffffffffffffffffffffffffffffffff1602179055508187600101819055506014544261114391906146ba565b87600201819055504287600301819055508b87600601908051906020019061116c92919061361c565b508a87600701908051906020019061118592919061361c565b508987600801908051906020019061119e92919061361c565b50888760090190805190602001906111b792919061361c565b5033601960006101000a81548173ffffffffffffffffffffffffffffffffffffffff021916908373ffffffffffffffffffffffffffffffffffffffff1602179055506000601b544261120991906147f9565b601a5461121691906147f9565b905062093a80601d544261122a91906147f9565b111561123d576000601a8190555061127f565b866003015487600201548261125291906146ba565b10611267578660030154601a8190555061127e565b86600201548161127791906146ba565b601a819055505b5b42601b819055503073ffffffffffffffffffffffffffffffffffffffff167fcf3438e5e5a168f4995d2cc612749d18b627ab2eb58f320f981cfff9bf5dd3f960405160405180910390a25050505050505050505050505050565b6000601e60003373ffffffffffffffffffffffffffffffffffffffff1673ffffffffffffffffffffffffffffffffffffffff1681526020019081526020016000205490506000601e60003373ffffffffffffffffffffffffffffffffffffffff1673ffffffffffffffffffffffffffffffffffffffff168152602001908152602001600020819055503373ffffffffffffffffffffffffffffffffffffffff166108fc829081150290604051600060405180830381858888f193505050501580156113a8573d6000803e3d6000fd5b5050565b6113b461358a565b606486888b6113c391906146ba565b6113cd91906146ba565b1480156113ff5750604660095460085486886113e991906146ba565b6113f391906146ba565b6113fd91906146ba565b145b801561140f575061012c60155410155b801561141e57506064600c5411155b801561142d57506064600e5411155b61146c576040517f08c379a00000000000000000000000000000000000000000000000000000000081526004016114639061466b565b60405180910390fd5b89600c8190555088600d8190555087600e8190555086600f8190555085601081905550846011819055508360128190555082601381905550816014819055508060158190555050505050505050505050565b6114c661358a565b600060206000815481106114dd576114dc614710565b5b90600052602060002090600d0201905060006021838154811061150357611502614710565b5b90600052602060002090600a020190508160000154816001018190555060008160020181905550600081600301819055506040518060200160405280600081525081600601908051906020019061155b92919061361c565b506040518060200160405280600081525081600801908051906020019061158392919061361c565b50604051806020016040528060008152508160070190805190602001906115ab92919061361c565b50505050565b60008060008060006115c16136a2565b6060806060600060206000815481106115dd576115dc614710565b5b90600052602060002090600d0201905080600b0160009054906101000a900473ffffffffffffffffffffffffffffffffffffffff168160000154826001015483600201548460030154856004018660090187600a0188600c0183600580602002604051908101604052809291906000905b828210156116f1578382018054611664906148a5565b80601f0160208091040260200160405190810160405280929190818152602001828054611690906148a5565b80156116dd5780601f106116b2576101008083540402835291602001916116dd565b820191906000526020600020905b8154815290600101906020018083116116c057829003601f168201915b50505050508152602001906001019061164e565b505050509350828054611703906148a5565b80601f016020809104026020016040519081016040528092919081815260200182805461172f906148a5565b801561177c5780601f106117515761010080835404028352916020019161177c565b820191906000526020600020905b81548152906001019060200180831161175f57829003601f168201915b5050505050925081805461178f906148a5565b80601f01602080910402602001604051908101604052809291908181526020018280546117bb906148a5565b80156118085780601f106117dd57610100808354040283529160200191611808565b820191906000526020600020905b8154815290600101906020018083116117eb57829003601f168201915b5050505050915080805461181b906148a5565b80601f0160208091040260200160405190810160405280929190818152602001828054611847906148a5565b80156118945780601f1061186957610100808354040283529160200191611894565b820191906000526020600020905b81548152906001019060200180831161187757829003601f168201915b5050505050905099509950995099509950995099509950995050909192939495969798565b600080600080600080600080600080602260003373ffffffffffffffffffffffffffffffffffffffff1673ffffffffffffffffffffffffffffffffffffffff16815260200190815260200160002090508060010154602380549050601d54600660009054906101000a900473ffffffffffffffffffffffffffffffffffffffff16600a54601254601054600f54601a5499509950995099509950995099509950995050909192939495969798565b602380549050601354116119b0576040517f08c379a00000000000000000000000000000000000000000000000000000000081526004016119a79061466b565b60405180910390fd5b600460009054906101000a900473ffffffffffffffffffffffffffffffffffffffff1673ffffffffffffffffffffffffffffffffffffffff1663d4f4648f82336040518363ffffffff1660e01b8152600401611a0d9291906148d7565b600060405180830381600087803b158015611a2757600080fd5b505af1158015611a3b573d6000803e3d6000fd5b505050506000602260003373ffffffffffffffffffffffffffffffffffffffff1673ffffffffffffffffffffffffffffffffffffffff168152602001908152602001600020905081816001016000828254611a9691906146ba565b925050819055508160076000828254611aaf91906146ba565b92505081905550600081600001541115611ac95750611b5a565b6023339080600181540180825580915050600190039060005260206000200160009091909190916101000a81548173ffffffffffffffffffffffffffffffffffffffff021916908373ffffffffffffffffffffffffffffffffffffffff16021790555060006001602380549050611b4091906147f9565b9050600181611b4f91906146ba565b826000018190555050505b50565b600080600080600080601e60003373ffffffffffffffffffffffffffffffffffffffff1673ffffffffffffffffffffffffffffffffffffffff16815260200190815260200160002054601e6000600660009054906101000a900473ffffffffffffffffffffffffffffffffffffffff1673ffffffffffffffffffffffffffffffffffffffff1673ffffffffffffffffffffffffffffffffffffffff16815260200190815260200160002054601e6000601860009054906101000a900473ffffffffffffffffffffffffffffffffffffffff1673ffffffffffffffffffffffffffffffffffffffff1673ffffffffffffffffffffffffffffffffffffffff16815260200190815260200160002054601960009054906101000a900473ffffffffffffffffffffffffffffffffffffffff16601d54601a54955095509550955095509550909192939495565b3373ffffffffffffffffffffffffffffffffffffffff16601960009054906101000a900473ffffffffffffffffffffffffffffffffffffffff1673ffffffffffffffffffffffffffffffffffffffff16148015611d13575042601a54601b54611d1091906146ba565b11155b611d52576040517f08c379a0000000000000000000000000000000000000000000000000000000008152600401611d499061466b565b60405180910390fd5b6000601e6000601860009054906101000a900473ffffffffffffffffffffffffffffffffffffffff1673ffffffffffffffffffffffffffffffffffffffff1673ffffffffffffffffffffffffffffffffffffffff1681526020019081526020016000205490506000601e6000601860009054906101000a900473ffffffffffffffffffffffffffffffffffffffff1673ffffffffffffffffffffffffffffffffffffffff1673ffffffffffffffffffffffffffffffffffffffff168152602001908152602001600020819055506000601a819055503373ffffffffffffffffffffffffffffffffffffffff166108fc829081150290604051600060405180830381858888f19350505050158015611e6d573d6000803e3d6000fd5b507f0689651a0bb260f3df1719ec8787eb33bfc21862be592ec196997adccc9dc76d3382604051611e9f929190614900565b60405180910390a150565b60006020600081548110611ec157611ec0614710565b5b90600052602060002090600d0201905042601a54601b54611ee291906146ba565b11611f22576040517f08c379a0000000000000000000000000000000000000000000000000000000008152600401611f199061466b565b60405180910390fd5b80600001543414611f5f576040517f8a0d377900000000000000000000000000000000000000000000000000000000815260040160405180910390fd5b60646008548260000154611f73919061479f565b611f7d919061476e565b601e6000600160009054906101000a900473ffffffffffffffffffffffffffffffffffffffff1673ffffffffffffffffffffffffffffffffffffffff1673ffffffffffffffffffffffffffffffffffffffff1681526020019081526020016000206000828254611fed91906146ba565b9250508190555060646009548260000154612008919061479f565b612012919061476e565b601e6000600260009054906101000a900473ffffffffffffffffffffffffffffffffffffffff1673ffffffffffffffffffffffffffffffffffffffff1673ffffffffffffffffffffffffffffffffffffffff168152602001908152602001600020600082825461208291906146ba565b925050819055506064601e826000015461209c919061479f565b6120a6919061476e565b601e6000601860009054906101000a900473ffffffffffffffffffffffffffffffffffffffff1673ffffffffffffffffffffffffffffffffffffffff1673ffffffffffffffffffffffffffffffffffffffff168152602001908152602001600020600082825461211691906146ba565b92505081905550600260646011548360000154612133919061479f565b61213d919061476e565b612147919061476e565b601e600083600b0160009054906101000a900473ffffffffffffffffffffffffffffffffffffffff1673ffffffffffffffffffffffffffffffffffffffff1673ffffffffffffffffffffffffffffffffffffffff16815260200190815260200160002060008282546121b991906146ba565b925050819055506002606460115483600001546121d6919061479f565b6121e0919061476e565b6121ea919061476e565b601e6000600560009054906101000a900473ffffffffffffffffffffffffffffffffffffffff1673ffffffffffffffffffffffffffffffffffffffff1673ffffffffffffffffffffffffffffffffffffffff168152602001908152602001600020600082825461225a91906146ba565b925050819055506000602380549050146125835760005b60238054905081101561257d576000602260006023848154811061229857612297614710565b5b9060005260206000200160009054906101000a900473ffffffffffffffffffffffffffffffffffffffff1673ffffffffffffffffffffffffffffffffffffffff1673ffffffffffffffffffffffffffffffffffffffff168152602001908152602001600020905060011515600460009054906101000a900473ffffffffffffffffffffffffffffffffffffffff1673ffffffffffffffffffffffffffffffffffffffff16632fee9e7e6023858154811061235557612354614710565b5b9060005260206000200160009054906101000a900473ffffffffffffffffffffffffffffffffffffffff166040518263ffffffff1660e01b815260040161239c91906145c5565b602060405180830381865afa1580156123b9573d6000803e3d6000fd5b505050506040513d601f19601f820116820180604052508101906123dd9190614618565b151514156124b757600754816001015460646012548660000154612401919061479f565b61240b919061476e565b612415919061479f565b61241f919061476e565b601e60006023858154811061243757612436614710565b5b9060005260206000200160009054906101000a900473ffffffffffffffffffffffffffffffffffffffff1673ffffffffffffffffffffffffffffffffffffffff1673ffffffffffffffffffffffffffffffffffffffff16815260200190815260200160002060008282546124ab91906146ba565b92505081905550612569565b6007548160010154606460125486600001546124d3919061479f565b6124dd919061476e565b6124e7919061479f565b6124f1919061476e565b601e6000600660009054906101000a900473ffffffffffffffffffffffffffffffffffffffff1673ffffffffffffffffffffffffffffffffffffffff1673ffffffffffffffffffffffffffffffffffffffff168152602001908152602001600020600082825461256191906146ba565b925050819055505b5080806125759061482d565b915050612271565b50612619565b60646012548260000154612597919061479f565b6125a1919061476e565b601e6000600660009054906101000a900473ffffffffffffffffffffffffffffffffffffffff1673ffffffffffffffffffffffffffffffffffffffff1673ffffffffffffffffffffffffffffffffffffffff168152602001908152602001600020600082825461261191906146ba565b925050819055505b6000606482600101548360000154612631919061479f565b61263b919061476e565b826000015461264a91906146ba565b90506001600b5461265b91906146ba565b600b819055506000600b549050600087905060008790506000879050600087905033601960006101000a81548173ffffffffffffffffffffffffffffffffffffffff021916908373ffffffffffffffffffffffffffffffffffffffff1602179055506000601b54426126cd91906147f9565b601a546126da91906147f9565b905062093a80601d54426126ee91906147f9565b1115612701576000601a81905550612743565b876003015488600201548261271691906146ba565b1061272b578760030154601a81905550612742565b87600201548161273b91906146ba565b601a819055505b5b42601b8190555060216040518061014001604052808881526020018981526020016014544261277291906146ba565b81526020014281526020013373ffffffffffffffffffffffffffffffffffffffff1681526020013373ffffffffffffffffffffffffffffffffffffffff1681526020018781526020018681526020018581526020018481525090806001815401808255809150506001900390600052602060002090600a02016000909190919091506000820151816000015560208201518160010155604082015181600201556060820151816003015560808201518160040160006101000a81548173ffffffffffffffffffffffffffffffffffffffff021916908373ffffffffffffffffffffffffffffffffffffffff16021790555060a08201518160050160006101000a81548173ffffffffffffffffffffffffffffffffffffffff021916908373ffffffffffffffffffffffffffffffffffffffff16021790555060c08201518160060190805190602001906128c692919061361c565b5060e08201518160070190805190602001906128e392919061361c565b5061010082015181600801908051906020019061290192919061361c565b5061012082015181600901908051906020019061291f92919061361c565b505050600260009054906101000a900473ffffffffffffffffffffffffffffffffffffffff1673ffffffffffffffffffffffffffffffffffffffff163073ffffffffffffffffffffffffffffffffffffffff167f3bb25606af27fc0d095bee57e38dcccfee45c874307338d4b4cf85d992ce478560405160405180910390a3505050505050505050505050565b6000602260003373ffffffffffffffffffffffffffffffffffffffff1673ffffffffffffffffffffffffffffffffffffffff16815260200190815260200160002090508181600101541015612a36576040517f08c379a0000000000000000000000000000000000000000000000000000000008152600401612a2d9061466b565b60405180910390fd5b600460009054906101000a900473ffffffffffffffffffffffffffffffffffffffff1673ffffffffffffffffffffffffffffffffffffffff166361d42f6b83336040518363ffffffff1660e01b8152600401612a939291906148d7565b600060405180830381600087803b158015612aad57600080fd5b505af1158015612ac1573d6000803e3d6000fd5b5050505081816001016000828254612ad991906147f9565b925050819055508160076000828254612af291906147f9565b92505081905550600081600001541115612b0c5750612b9d565b6023339080600181540180825580915050600190039060005260206000200160009091909190916101000a81548173ffffffffffffffffffffffffffffffffffffffff021916908373ffffffffffffffffffffffffffffffffffffffff16021790555060006001602380549050612b8391906147f9565b9050600181612b9291906146ba565b826000018190555050505b50565b600060218281548110612bb657612bb5614710565b5b90600052602060002090600a02019050428160020154108015612bdc5750428160030154105b8015612c3857503373ffffffffffffffffffffffffffffffffffffffff168160040160009054906101000a900473ffffffffffffffffffffffffffffffffffffffff1673ffffffffffffffffffffffffffffffffffffffff1614155b612c77576040517f08c379a0000000000000000000000000000000000000000000000000000000008152600401612c6e9061466b565b60405180910390fd5b600a543414612cb2576040517f8a0d377900000000000000000000000000000000000000000000000000000000815260040160405180910390fd5b600a54601e6000600160009054906101000a900473ffffffffffffffffffffffffffffffffffffffff1673ffffffffffffffffffffffffffffffffffffffff1673ffffffffffffffffffffffffffffffffffffffff1681526020019081526020016000206000828254612d2591906146ba565b9250508190555060155442612d3a91906146ba565b8160030181905550338160050160006101000a81548173ffffffffffffffffffffffffffffffffffffffff021916908373ffffffffffffffffffffffffffffffffffffffff1602179055507fef964f3b612028ef1c533b1bcb531ea1677191b3ae235167b4f184c9833f4bf330604051612db491906145c5565b60405180910390a15050565b600080600080600080600080600080600080600c54600d54600e54600f54601054601154601254601354601454601554601a54601b549b509b509b509b509b509b509b509b509b509b509b509b50909192939495969798999a9b565b612e2461358a565b610e108611158015612e39575062093a808511155b612e78576040517f08c379a0000000000000000000000000000000000000000000000000000000008152600401612e6f9061466b565b60405180910390fd5b60206040518061012001604052808a8152602001898152602001888152602001878152602001868152602001858152602001848152602001600360009054906101000a900473ffffffffffffffffffffffffffffffffffffffff169b508b73ffffffffffffffffffffffffffffffffffffffff1681526020018381525090806001815401808255809150506001900390600052602060002090600d020160009091909190915060008201518160000155602082015181600101556040820151816002015560608201518160030155608082015181600401906005612f5d9291906136c9565b5060a0820151816009019080519060200190612f7a92919061361c565b5060c082015181600a019080519060200190612f9792919061361c565b5060e082015181600b0160006101000a81548173ffffffffffffffffffffffffffffffffffffffff021916908373ffffffffffffffffffffffffffffffffffffffff16021790555061010082015181600c019080519060200190612ffc92919061361c565b50505084601a8190555042601b8190555088601960006101000a81548173ffffffffffffffffffffffffffffffffffffffff021916908373ffffffffffffffffffffffffffffffffffffffff160217905550601c60009054906101000a900473ffffffffffffffffffffffffffffffffffffffff1673ffffffffffffffffffffffffffffffffffffffff16635e4505c733306040518363ffffffff1660e01b81526004016130ab929190614929565b600060405180830381600087803b1580156130c557600080fd5b505af11580156130d9573d6000803e3d6000fd5b5050505042601d81905550505050505050505050565b6000600460009054906101000a900473ffffffffffffffffffffffffffffffffffffffff1673ffffffffffffffffffffffffffffffffffffffff166335703a3a336040518263ffffffff1660e01b815260040161314c91906145c5565b602060405180830381865afa158015613169573d6000803e3d6000fd5b505050506040513d601f19601f8201168201806040525081019061318d9190614967565b905090565b6060600060218054905067ffffffffffffffff8111156131b5576131b46138d6565b5b6040519080825280602002602001820160405280156131ee57816020015b6131db61371c565b8152602001906001900390816131d35790505b50905060005b6021805490508110156135825760006021828154811061321757613216614710565b5b90600052602060002090600a020190508060405180610140016040529081600082015481526020016001820154815260200160028201548152602001600382015481526020016004820160009054906101000a900473ffffffffffffffffffffffffffffffffffffffff1673ffffffffffffffffffffffffffffffffffffffff1673ffffffffffffffffffffffffffffffffffffffff1681526020016005820160009054906101000a900473ffffffffffffffffffffffffffffffffffffffff1673ffffffffffffffffffffffffffffffffffffffff1673ffffffffffffffffffffffffffffffffffffffff168152602001600682018054613318906148a5565b80601f0160208091040260200160405190810160405280929190818152602001828054613344906148a5565b80156133915780601f1061336657610100808354040283529160200191613391565b820191906000526020600020905b81548152906001019060200180831161337457829003601f168201915b505050505081526020016007820180546133aa906148a5565b80601f01602080910402602001604051908101604052809291908181526020018280546133d6906148a5565b80156134235780601f106133f857610100808354040283529160200191613423565b820191906000526020600020905b81548152906001019060200180831161340657829003601f168201915b5050505050815260200160088201805461343c906148a5565b80601f0160208091040260200160405190810160405280929190818152602001828054613468906148a5565b80156134b55780601f1061348a576101008083540402835291602001916134b5565b820191906000526020600020905b81548152906001019060200180831161349857829003601f168201915b505050505081526020016009820180546134ce906148a5565b80601f01602080910402602001604051908101604052809291908181526020018280546134fa906148a5565b80156135475780601f1061351c57610100808354040283529160200191613547565b820191906000526020600020905b81548152906001019060200180831161352a57829003601f168201915b50505050508152505083838151811061356357613562614710565b5b602002602001018190525050808061357a9061482d565b9150506131f4565b508091505090565b600360009054906101000a900473ffffffffffffffffffffffffffffffffffffffff1673ffffffffffffffffffffffffffffffffffffffff163373ffffffffffffffffffffffffffffffffffffffff161461361a576040517f08c379a00000000000000000000000000000000000000000000000000000000081526004016136119061466b565b60405180910390fd5b565b828054613628906148a5565b90600052602060002090601f01602090048101928261364a5760008555613691565b82601f1061366357805160ff1916838001178555613691565b82800160010185558215613691579182015b82811115613690578251825591602001919060010190613675565b5b50905061369e919061379b565b5090565b6040518060a001604052806005905b60608152602001906001900390816136b15790505090565b826005810192821561370b579160200282015b8281111561370a5782518290805190602001906136fa92919061361c565b50916020019190600101906136dc565b5b50905061371891906137b8565b5090565b60405180610140016040528060008152602001600081526020016000815260200160008152602001600073ffffffffffffffffffffffffffffffffffffffff168152602001600073ffffffffffffffffffffffffffffffffffffffff168152602001606081526020016060815260200160608152602001606081525090565b5b808211156137b457600081600090555060010161379c565b5090565b5b808211156137d857600081816137cf91906137dc565b506001016137b9565b5090565b5080546137e8906148a5565b6000825580601f106137fa5750613819565b601f016020900490600052602060002090810190613818919061379b565b5b50565b6000604051905090565b600080fd5b600080fd5b600073ffffffffffffffffffffffffffffffffffffffff82169050919050565b600061385b82613830565b9050919050565b61386b81613850565b811461387657600080fd5b50565b60008135905061388881613862565b92915050565b6000602082840312156138a4576138a3613826565b5b60006138b284828501613879565b91505092915050565b600080fd5b600080fd5b6000601f19601f8301169050919050565b7f4e487b7100000000000000000000000000000000000000000000000000000000600052604160045260246000fd5b61390e826138c5565b810181811067ffffffffffffffff8211171561392d5761392c6138d6565b5b80604052505050565b600061394061381c565b905061394c8282613905565b919050565b600067ffffffffffffffff82111561396c5761396b6138d6565b5b613975826138c5565b9050602081019050919050565b82818337600083830152505050565b60006139a461399f84613951565b613936565b9050828152602081018484840111156139c0576139bf6138c0565b5b6139cb848285613982565b509392505050565b600082601f8301126139e8576139e76138bb565b5b81356139f8848260208601613991565b91505092915050565b60008060408385031215613a1857613a17613826565b5b600083013567ffffffffffffffff811115613a3657613a3561382b565b5b613a42858286016139d3565b925050602083013567ffffffffffffffff811115613a6357613a6261382b565b5b613a6f858286016139d3565b9150509250929050565b6000819050919050565b613a8c81613a79565b82525050565b6000606082019050613aa76000830186613a83565b613ab46020830185613a83565b613ac16040830184613a83565b949350505050565b613ad281613a79565b8114613add57600080fd5b50565b600081359050613aef81613ac9565b92915050565b600080600080600060a08688031215613b1157613b10613826565b5b6000613b1f88828901613ae0565b955050602086013567ffffffffffffffff811115613b4057613b3f61382b565b5b613b4c888289016139d3565b945050604086013567ffffffffffffffff811115613b6d57613b6c61382b565b5b613b79888289016139d3565b935050606086013567ffffffffffffffff811115613b9a57613b9961382b565b5b613ba6888289016139d3565b925050608086013567ffffffffffffffff811115613bc757613bc661382b565b5b613bd3888289016139d3565b9150509295509295909350565b6000806000806000806000806000806101408b8d031215613c0457613c03613826565b5b6000613c128d828e01613ae0565b9a50506020613c238d828e01613ae0565b9950506040613c348d828e01613ae0565b9850506060613c458d828e01613ae0565b9750506080613c568d828e01613ae0565b96505060a0613c678d828e01613ae0565b95505060c0613c788d828e01613ae0565b94505060e0613c898d828e01613ae0565b935050610100613c9b8d828e01613ae0565b925050610120613cad8d828e01613ae0565b9150509295989b9194979a5092959850565b600060208284031215613cd557613cd4613826565b5b6000613ce384828501613ae0565b91505092915050565b613cf581613850565b82525050565b600060059050919050565b600081905092915050565b6000819050919050565b600081519050919050565b600082825260208201905092915050565b60005b83811015613d55578082015181840152602081019050613d3a565b83811115613d64576000848401525b50505050565b6000613d7582613d1b565b613d7f8185613d26565b9350613d8f818560208601613d37565b613d98816138c5565b840191505092915050565b6000613daf8383613d6a565b905092915050565b6000602082019050919050565b6000613dcf82613cfb565b613dd98185613d06565b935083602082028501613deb85613d11565b8060005b85811015613e275784840389528151613e088582613da3565b9450613e1383613db7565b925060208a01995050600181019050613def565b50829750879550505050505092915050565b600082825260208201905092915050565b6000613e5582613d1b565b613e5f8185613e39565b9350613e6f818560208601613d37565b613e78816138c5565b840191505092915050565b600061012082019050613e99600083018c613cec565b613ea6602083018b613a83565b613eb3604083018a613a83565b613ec06060830189613a83565b613ecd6080830188613a83565b81810360a0830152613edf8187613dc4565b905081810360c0830152613ef38186613e4a565b905081810360e0830152613f078185613e4a565b9050818103610100830152613f1c8184613e4a565b90509a9950505050505050505050565b600061012082019050613f42600083018c613a83565b613f4f602083018b613a83565b613f5c604083018a613a83565b613f696060830189613cec565b613f766080830188613a83565b613f8360a0830187613a83565b613f9060c0830186613a83565b613f9d60e0830185613a83565b613fab610100830184613a83565b9a9950505050505050505050565b600060c082019050613fce6000830189613a83565b613fdb6020830188613a83565b613fe86040830187613a83565b613ff56060830186613cec565b6140026080830185613a83565b61400f60a0830184613a83565b979650505050505050565b6000806000806080858703121561403457614033613826565b5b600085013567ffffffffffffffff8111156140525761405161382b565b5b61405e878288016139d3565b945050602085013567ffffffffffffffff81111561407f5761407e61382b565b5b61408b878288016139d3565b935050604085013567ffffffffffffffff8111156140ac576140ab61382b565b5b6140b8878288016139d3565b925050606085013567ffffffffffffffff8111156140d9576140d861382b565b5b6140e5878288016139d3565b91505092959194509250565b600061018082019050614107600083018f613a83565b614114602083018e613a83565b614121604083018d613a83565b61412e606083018c613a83565b61413b608083018b613a83565b61414860a083018a613a83565b61415560c0830189613a83565b61416260e0830188613a83565b614170610100830187613a83565b61417e610120830186613a83565b61418c610140830185613a83565b61419a610160830184613a83565b9d9c50505050505050505050505050565b600067ffffffffffffffff8211156141c6576141c56138d6565b5b602082029050919050565b600080fd5b60006141e96141e4846141ab565b613936565b90508060208402830185811115614203576142026141d1565b5b835b8181101561424a57803567ffffffffffffffff811115614228576142276138bb565b5b80860161423589826139d3565b85526020850194505050602081019050614205565b5050509392505050565b600082601f830112614269576142686138bb565b5b60056142768482856141d6565b91505092915050565b60008060008060008060008060006101208a8c0312156142a2576142a1613826565b5b60006142b08c828d01613879565b99505060206142c18c828d01613ae0565b98505060406142d28c828d01613ae0565b97505060606142e38c828d01613ae0565b96505060806142f48c828d01613ae0565b95505060a08a013567ffffffffffffffff8111156143155761431461382b565b5b6143218c828d01614254565b94505060c08a013567ffffffffffffffff8111156143425761434161382b565b5b61434e8c828d016139d3565b93505060e08a013567ffffffffffffffff81111561436f5761436e61382b565b5b61437b8c828d016139d3565b9250506101008a013567ffffffffffffffff81111561439d5761439c61382b565b5b6143a98c828d016139d3565b9150509295985092959850929598565b60006020820190506143ce6000830184613a83565b92915050565b600081519050919050565b600082825260208201905092915050565b6000819050602082019050919050565b61440981613a79565b82525050565b61441881613850565b82525050565b6000610140830160008301516144376000860182614400565b50602083015161444a6020860182614400565b50604083015161445d6040860182614400565b5060608301516144706060860182614400565b506080830151614483608086018261440f565b5060a083015161449660a086018261440f565b5060c083015184820360c08601526144ae8282613d6a565b91505060e083015184820360e08601526144c88282613d6a565b9150506101008301518482036101008601526144e48282613d6a565b9150506101208301518482036101208601526145008282613d6a565b9150508091505092915050565b6000614519838361441e565b905092915050565b6000602082019050919050565b6000614539826143d4565b61454381856143df565b935083602082028501614555856143f0565b8060005b858110156145915784840389528151614572858261450d565b945061457d83614521565b925060208a01995050600181019050614559565b50829750879550505050505092915050565b600060208201905081810360008301526145bd818461452e565b905092915050565b60006020820190506145da6000830184613cec565b92915050565b60008115159050919050565b6145f5816145e0565b811461460057600080fd5b50565b600081519050614612816145ec565b92915050565b60006020828403121561462e5761462d613826565b5b600061463c84828501614603565b91505092915050565b50565b6000614655600083613e39565b915061466082614645565b600082019050919050565b6000602082019050818103600083015261468481614648565b9050919050565b7f4e487b7100000000000000000000000000000000000000000000000000000000600052601160045260246000fd5b60006146c582613a79565b91506146d083613a79565b9250827fffffffffffffffffffffffffffffffffffffffffffffffffffffffffffffffff038211156147055761470461468b565b5b828201905092915050565b7f4e487b7100000000000000000000000000000000000000000000000000000000600052603260045260246000fd5b7f4e487b7100000000000000000000000000000000000000000000000000000000600052601260045260246000fd5b600061477982613a79565b915061478483613a79565b9250826147945761479361473f565b5b828204905092915050565b60006147aa82613a79565b91506147b583613a79565b9250817fffffffffffffffffffffffffffffffffffffffffffffffffffffffffffffffff04831182151516156147ee576147ed61468b565b5b828202905092915050565b600061480482613a79565b915061480f83613a79565b9250828210156148225761482161468b565b5b828203905092915050565b600061483882613a79565b91507fffffffffffffffffffffffffffffffffffffffffffffffffffffffffffffffff82141561486b5761486a61468b565b5b600182019050919050565b7f4e487b7100000000000000000000000000000000000000000000000000000000600052602260045260246000fd5b600060028204905060018216806148bd57607f821691505b602082108114156148d1576148d0614876565b5b50919050565b60006040820190506148ec6000830185613a83565b6148f96020830184613cec565b9392505050565b60006040820190506149156000830185613cec565b6149226020830184613a83565b9392505050565b600060408201905061493e6000830185613cec565b61494b6020830184613cec565b9392505050565b60008151905061496181613ac9565b92915050565b60006020828403121561497d5761497c613826565b5b600061498b84828501614952565b9150509291505056fea26469706673582212204452f67f020d9553282ad7c6e3b66cc8f5f1be1a1ebf18428d681303cd70a46464736f6c634300080a0033",
  "immutableReferences": {},
  "source": "// SPDX-License-Identifier: MIT\npragma solidity 0.8.10;\n\ninterface IS {\n    function stakeVSlice_h56(uint _amount, address _addr) external;\n    function unstakeVSlice_Hha(uint _amount, address _addr) external;\n    function vSliceViewBalance (address _addr) view external returns (uint);\n    function wl(address _addr) view external  returns (bool);\n    function active (address _fa, address _fcontract) external;\n                     }\ncontract Fight {\n    address  flipper;\n    address  dev;\n    address  dev2;\n    address  fightAdmin;\n    address  tc;\n    address  influ2;\n    address  charity;\n    uint  totalStaked;\n    uint dscs;\n    uint dscs2;\n    uint spotResPrice;\n    uint spotCounter;\n    uint flipperShare;\n    uint influ2Share;\n    uint spotCashBack;\n    uint usersSlice;\n    uint charitySlice;\n    uint iscs;\n    uint uscs;\n    uint maxUsers;\n    uint spotBusyTime;\n    uint spotReservTime;\n    uint v1;\n    uint v2;\n    address lsp;\n    address ls;\n    uint actTimer;\n    uint startTime;\n    address ff;\n    uint created;\n   \n    function _a() private view {\n        require (msg.sender == fightAdmin, \"\");\n    }\n    modifier a() {\n    _a();\n    _;\n    }\n    \n    mapping (address => uint)  pw;\n    mapping (address => uint)  votes;\n   \n    error NotEnoughEther();\n    error YouHaveToReserveFirst();\n    error FinishFightFirst();\n   \n    struct fightData {\n        uint initPrice;\n        uint np;\n        uint extention;\n        uint duration;\n        string[5] fightTopics;\n        string promo1;\n        string promo2;\n        address influ1;\n        string shortUrl;\n        }  \n        fightData[]  fight;\n     \n    constructor(address _ff, address _dev, address _dev2, uint _dscs,uint _dscs2, uint _spotResPrice, address _fightAdmin, address _tc, address _influ2, address _charity, address _lsp) {\n        dev = _dev;\n        dev2 = _dev2;\n        dscs = _dscs;\n        dscs2 = _dscs2;\n        iscs=10;\n        uscs=54;\n        flipperShare=70;\n        influ2Share=10;\n        usersSlice=85;\n        charitySlice=5;\n        spotCashBack=100;\n        maxUsers=20000;\n        spotBusyTime=300;\n        spotReservTime=300;\n        spotResPrice = _spotResPrice;\n        fightAdmin=_fightAdmin;\n        tc =_tc;\n        influ2 = _influ2;\n        charity = _charity;\n        ff=_ff;\n        lsp=_lsp;\n        \n}\n        //event fightDataEvent (address indexed fightContract);  \n        function addFightData(  \n        address influ1,\n        uint initPrice,\n        uint np,\n        uint extention,\n        uint duration,\n        string[5] memory fightTopics,\n        string memory promo1,\n        string memory promo2,\n        string memory shortUrl\n        ) public a{\n        require(extention <=3600 && duration<= 604800, '');\n       \n        fight.push(fightData(\n        initPrice,\n        np,\n        extention,\n        duration,\n        fightTopics,\n        promo1,\n        promo2,\n        influ1=fightAdmin,\n        shortUrl));\n        actTimer=duration;\n        startTime=block.timestamp;\n        ls=influ1;\n        IS(ff).active (msg.sender, address(this));\n        created=block.timestamp;\n        //emit fightDataEvent (address(this));\n        }\n        \n    struct Spots {\n        uint SpotNo;\n        uint priceOfSpot;\n        uint bu;\n        uint ru;\n        address flipper;\n        address booker;\n        string text;\n        string link;\n        string pic;\n        string mediaType;\n    }\n    Spots []  spots;\n   \n    struct Entry{\n        uint index;\n        uint value;\n                }\n    mapping(address => Entry)  map;\n    address[]  keyList;\n   \n   // Stake Virtual Slice\n    function stakeingVSlice_C64(uint _value) public {\n        require(maxUsers>keyList.length, \"\");\n        IS(tc).stakeVSlice_h56(_value, msg.sender);\n        Entry storage entry = map[msg.sender];\n        entry.value += _value;\n        totalStaked += _value;\n        if(entry.index > 0){\n            return;\n        }else {\n            keyList.push(msg.sender);\n            uint keyListIndex = keyList.length - 1;\n            entry.index = keyListIndex + 1;\n        }\n    }\n\n   //Unstake Virtual Slice\n    function unstakeingVSlice_EK(uint _value) public {\n        Entry storage entry = map[msg.sender];\n        require(entry.value>=_value, \"\");\n        IS(tc).unstakeVSlice_Hha(_value, msg.sender);\n        entry.value -= _value;\n        totalStaked -= _value;\n        if(entry.index > 0){\n            return;\n        }else {\n            keyList.push(msg.sender);\n            uint keyListIndex = keyList.length - 1;\n            entry.index = keyListIndex + 1;\n        }\n    }  \n\n    //view Virtual Slice balance\n    function viewVSliceBalance () view external returns (uint){\n        return IS(tc).vSliceViewBalance(msg.sender);\n    }\n    //Create spot\n     event createSpotEvent (address indexed fightContract, address indexed dev2);  \n    function createSpot_g4A(string memory _text, string memory _link, string memory _pic, string memory _mediaType) external payable {\n        fightData storage m = fight[0];\n        require((startTime+actTimer) > block.timestamp, '');\n        if (msg.value != m.initPrice) revert NotEnoughEther();\n        pw[dev] += (m.initPrice * dscs/100);\n        pw[dev2] += (m.initPrice * dscs2/100);\n        pw[lsp] += (m.initPrice * 30/100);\n        pw[m.influ1] += (m.initPrice * iscs/100)/2;\n        pw[influ2] += (m.initPrice * iscs/100)/2;\n        if (keyList.length!=0) {\n        for (uint i = 0; i < keyList.length; i++)\n        {\n        Entry storage entry = map[keyList[i]];\n        if (IS(tc).wl(keyList[i])==true) {\n        pw[keyList[i]] += ((m.initPrice * uscs/100) * entry.value/totalStaked);}\n        else { pw[charity] += ((m.initPrice * uscs/100) * entry.value/totalStaked); }\n        }\n        } else {pw[charity]+=(m.initPrice * uscs/100);}\n        uint nextPrice = m.initPrice + ((m.initPrice * m.np)/100);\n        spotCounter=spotCounter+1;\n        uint spotN = spotCounter;\n        string memory text = _text;\n        string memory link = _link;\n        string memory pic= _pic;\n        string memory mediaType=_mediaType;\n        ls=msg.sender;\n        //timer start\n        uint timeLeft = actTimer - (block.timestamp-startTime);\n        if (block.timestamp - created > 604800)\n            {actTimer= 0;}\n         else if (timeLeft+m.extention >=m.duration)\n               {actTimer=m.duration;}\n         else {actTimer= timeLeft+ m.extention;}\n                startTime = block.timestamp;\n        //timer end\n        spots.push(Spots(spotN, nextPrice,block.timestamp+spotBusyTime, block.timestamp, msg.sender,msg.sender, text, link, pic, mediaType));\n    emit createSpotEvent (address(this), dev2);\n        \n    }\n\n  //flip\n    event flipSpotEvent (address indexed fightContract);  \n    function flip_Maf(uint _index, string memory _text, string memory _link, string memory _pic, string memory _mediaType) external payable {\n        uint cb;\n        Spots storage spot = spots[_index];\n        fightData storage m = fight[0];\n        require(spot.bu < block.timestamp, '');\n        require(spot.booker==msg.sender || spot.ru<block.timestamp, '');\n        require((startTime+actTimer) > block.timestamp, '');\n        if (msg.value != spot.priceOfSpot) revert NotEnoughEther();\n        uint currentPrice = spot.priceOfSpot;\n        uint previousPrice = ((currentPrice / ((100 + m.np)))*100);\n        cb= ((previousPrice * spotCashBack)/100);\n        uint exFlipperProfit = ((currentPrice - previousPrice) * flipperShare)/100;\n        uint nextPrice = ((spot.priceOfSpot * ((100 + m.np)))/100);\n        pw[spot.flipper] += (cb + exFlipperProfit);\n        uint toDistro = spot.priceOfSpot - (cb + exFlipperProfit);\n        pw[m.influ1] += (toDistro * influ2Share/100)/2;\n        pw[influ2] += (toDistro * influ2Share/100)/2;\n        pw[charity] += (toDistro * charitySlice/100);\n        if (keyList.length!=0) {\n        for (uint i = 0; i < keyList.length; i++)\n        {\n        Entry storage entry = map[keyList[i]];\n        if (IS(tc).wl(keyList[i])==true) {\n        pw[keyList[i]] += (toDistro * usersSlice/100) * entry.value/totalStaked;}\n        else {pw[charity] += (toDistro * usersSlice/100) * entry.value/totalStaked;}\n        }\n        } else {pw[charity]+=(toDistro * usersSlice/100);}\n        spot.flipper = msg.sender;\n        spot.priceOfSpot = nextPrice;\n        spot.bu = block.timestamp+spotBusyTime;\n        spot.ru=block.timestamp;\n        spot.text = _text;\n        spot.link = _link;\n        spot.pic= _pic;\n        spot.mediaType=_mediaType;\n        ls=msg.sender;\n        //timer start\n        uint timeLeft = actTimer - (block.timestamp-startTime);\n        if (block.timestamp - created > 604800)\n            {actTimer= 0;}\n        else if (timeLeft+m.extention >=m.duration)\n               {actTimer=m.duration;}\n         else {actTimer= timeLeft+ m.extention;}\n        startTime = block.timestamp;\n        //timer end\n        \n        emit flipSpotEvent (address(this));\n    }\n       //Get spots\n    function getSpots() public view returns (Spots[] memory){\n      Spots[]    memory id = new Spots[](spots.length);\n      for (uint i = 0; i < spots.length; i++) {\n          Spots storage spot = spots[i];\n          id[i] = spot;\n      }\n      return id;\n  }\n  \n   //Spot Reservation\n   event reservation (address fightContract);\n    function spotReserve_u5k(uint _indx) external payable {\n        Spots storage spot = spots[_indx];\n        require(spot.bu<block.timestamp && spot.ru<block.timestamp && spot.flipper != msg.sender, \"\");\n        if (msg.value != spotResPrice) revert NotEnoughEther();\n        pw[dev]+=spotResPrice;\n        spot.ru = block.timestamp+spotReservTime;\n        spot.booker=msg.sender;\n        emit reservation (address(this));\n    }\n   //Spot reset\n    function resetspot(uint _indx) external a (){\n        fightData storage m = fight[0];\n        Spots storage spot = spots[_indx];\n        spot.priceOfSpot=m.initPrice;\n        spot.bu=0;\n        spot.ru=0;\n        spot.text='';\n        spot.pic='';\n        spot.link='';\n    }\n   //make withdrawal \n    function makeWithdrawal() public {\n        uint amount = pw[msg.sender];\n        pw[msg.sender] = 0;\n        payable(msg.sender).transfer(amount);\n    }\n    //make withdrawal of Last Spot Pot\n    event withdrawalsLSP (address addr, uint amount);  \n    function makeWithdrawalLSP() public {\n        require(ls==msg.sender && (startTime+actTimer) <= block.timestamp, '');\n        uint amount = pw[lsp];\n        pw[lsp] = 0;\n        actTimer=0;\n        payable(msg.sender).transfer(amount);\n       emit withdrawalsLSP (msg.sender, amount);\n    }\n    \n\n\n   //Vote 1\n    function voting1_E7O(address _addr) public {\n        require(votes[_addr]==0 && IS(tc).wl(msg.sender)==true,'');\n        votes[_addr]=1;\n        v1 +=1;\n    }\n   //Vote 2\n    function voting2_eoL(address _addr) public {\n        require(votes[_addr]==0 && IS(tc).wl(msg.sender)==true,'');\n        votes[_addr]=1;\n        v2 +=1;\n\n    }\n    //Show votes\n    function getVotes() view public returns (uint, uint, uint) {\n        return (v1, v2, totalStaked);\n    }\n    //Get fight data\n    function getFightData () public view returns (address, uint, uint, uint, uint, string[5] memory, string memory ,string memory, string memory) {\n       fightData storage spot = fight[0];\n    return (spot.influ1, spot.initPrice, spot.np, spot.extention, spot.duration, spot.fightTopics, spot.promo1, spot.promo2, spot.shortUrl);}\n\n    // Staked tokens - number of Stakers - voted - fight createdDate\n    function getFightParams2 () view external returns (uint, uint, uint, address, uint, uint, uint, uint, uint) {\n        Entry storage entry = map[msg.sender];\n    return (entry.value, keyList.length, created, charity, spotResPrice, uscs, charitySlice, usersSlice, actTimer);\n    }\n    \n    //Get fights parameters\n    function getFightParams() public view returns (uint, uint, uint, uint, uint, uint, uint , uint , uint, uint,uint, uint) {\n    return (flipperShare,influ2Share,spotCashBack,usersSlice, charitySlice,iscs, uscs, maxUsers,spotBusyTime, spotReservTime, actTimer,startTime);}\n        \n    //Show withrawal balances\n    function showBalance() view external returns (uint, uint, uint, address, uint, uint) {\n    return (pw[msg.sender], pw[charity], pw[lsp],ls, created, actTimer);\n    }\n   \n    //Update fight promo\n    function ufp (string memory _promo1, string memory _promo2) public {\n    fightData storage spot = fight[0];\n    require((spot.influ1==msg.sender) , '');\n    spot.promo2 = _promo2;\n    spot.promo1=_promo1;\n}   \n    //Set fight parameters\n    function sF (uint fs, uint infs, uint scb, uint us, uint cs, uint _iscs, uint _uscs, uint mu, uint sbt, uint srt) public a(){\n    require ((infs+us+cs) == 100 && (_iscs+_uscs+dscs+dscs2) == 70 && spotReservTime >= 300 && flipperShare <=100 && spotCashBack<=100, '');\n    flipperShare = fs;\n    influ2Share = infs;\n    spotCashBack = scb;\n    usersSlice = us;\n    charitySlice = cs;\n    iscs = _iscs;\n    uscs = _uscs;\n    maxUsers=mu;\n    spotBusyTime = sbt;\n    spotReservTime = srt;\n    }\n\n}\n   \n       \n    contract fightFactory {\n    address dev;\n    address dev2;\n    uint  dscs;\n    uint  dscs2;\n    uint  spotResPrice;\n    address  fightAdmin;\n    address  tc;\n    address  lca;\n    address  influ2;\n    address  charity;\n    address lsp;\n \n \n   \n    struct fc {\n        address fightAdmin;\n        address fightContract;\n        bool active;\n    }\n    fc []  fcl;\n    mapping(address => mapping(address =>uint)) index;\n    mapping(address => uint)  fightCount;\n    \n    constructor (address _tc) {\n        dev = msg.sender;\n        lsp=0x52dfA76eDDEF5DC72fb7EcF0e963e7a10Fd6c093;\n        tc= _tc;\n        dscs= 1;\n        dscs2=5;\n        spotResPrice=10000000000000000;\n    }\n //creating a new fight\n    event createNewFight (address indexed fightAddress, address indexed factoryAddress);\n    function createFight(address _dev2, address _influ2, address _charity) external returns(address){\n       fightAdmin= msg.sender;\n       lca = address(new Fight(address(this),dev,_dev2,dscs,dscs2,spotResPrice, fightAdmin, tc, _influ2, _charity, lsp));\n       fcl.push(fc(msg.sender, lca, false));\n       index[msg.sender][lca]=fcl.length-1;\n       fightCount[msg.sender] +=1;\n       emit createNewFight (lca, address(this));    \n    return lca;\n    }\n//get fights by admin \n         function getFightsByAdmin(address _owner) public view returns (fc[] memory) {\n        fc[] memory result = new fc[](fightCount[_owner]);\n        uint counter = 0;\n       \n        for (uint i = 0; i < fcl.length; i++) {\n            if (fcl[i].fightAdmin == _owner) {\n                fc storage list = fcl[i];\n                result[counter] = list;\n                counter++;\n            }\n        }\n        return result;\n    }\n    \n       function getAllFights() public view returns (fc[] memory){\n      fc[]    memory id = new fc[](fcl.length);\n      for (uint i = 0; i < fcl.length; i++) {\n          fc storage spot = fcl[i];\n          id[i] = spot;\n      }\n      return id;\n  }\n    \n        function active (address _fa, address _fcontract) external {\n        uint ind = index[_fa][_fcontract];\n         fc storage m = fcl[ind];\n         m.active=true;\n    }\n\n    \n//Set Spot Reservation Price\n    function srp (uint _price) external {\n        require(msg.sender == dev, \"\");\n        spotResPrice = _price;\n    }\n\n    }\n",
  "sourcePath": "/Users/stanislavpavlovic/Desktop/Slice/ee/contracts/fight.sol",
  "compiler": {
    "name": "solc",
    "version": "0.8.10+commit.fc410830.Emscripten.clang"
  },
  "schemaVersion": "3.4.3",
  "updatedAt": "2022-03-27T07:50:40.688Z",
  "devdoc": {
    "kind": "dev",
    "methods": {},
    "version": 1
  },
  "userdoc": {
    "kind": "user",
    "methods": {},
    "version": 1
  }
}