{
  "contractName": "fightFactory",
  "abi": [
    {
      "inputs": [
        {
          "internalType": "address",
          "name": "_tc",
          "type": "address"
        }
      ],
      "stateMutability": "nonpayable",
      "type": "constructor"
    },
    {
      "anonymous": false,
      "inputs": [
        {
          "indexed": true,
          "internalType": "address",
          "name": "fightAddress",
          "type": "address"
        },
        {
          "indexed": true,
          "internalType": "address",
          "name": "factoryAddress",
          "type": "address"
        }
      ],
      "name": "createNewFight",
      "type": "event"
    },
    {
      "inputs": [
        {
          "internalType": "address",
          "name": "_dev2",
          "type": "address"
        },
        {
          "internalType": "address",
          "name": "_influ2",
          "type": "address"
        },
        {
          "internalType": "address",
          "name": "_charity",
          "type": "address"
        }
      ],
      "name": "createFight",
      "outputs": [
        {
          "internalType": "address",
          "name": "",
          "type": "address"
        }
      ],
      "stateMutability": "nonpayable",
      "type": "function"
    },
    {
      "inputs": [
        {
          "internalType": "address",
          "name": "_owner",
          "type": "address"
        }
      ],
      "name": "getFightsByAdmin",
      "outputs": [
        {
          "components": [
            {
              "internalType": "address",
              "name": "fightAdmin",
              "type": "address"
            },
            {
              "internalType": "address",
              "name": "fightContract",
              "type": "address"
            },
            {
              "internalType": "bool",
              "name": "active",
              "type": "bool"
            }
          ],
          "internalType": "struct fightFactory.fc[]",
          "name": "",
          "type": "tuple[]"
        }
      ],
      "stateMutability": "view",
      "type": "function",
      "constant": true
    },
    {
      "inputs": [],
      "name": "getAllFights",
      "outputs": [
        {
          "components": [
            {
              "internalType": "address",
              "name": "fightAdmin",
              "type": "address"
            },
            {
              "internalType": "address",
              "name": "fightContract",
              "type": "address"
            },
            {
              "internalType": "bool",
              "name": "active",
              "type": "bool"
            }
          ],
          "internalType": "struct fightFactory.fc[]",
          "name": "",
          "type": "tuple[]"
        }
      ],
      "stateMutability": "view",
      "type": "function",
      "constant": true
    },
    {
      "inputs": [
        {
          "internalType": "address",
          "name": "_fa",
          "type": "address"
        },
        {
          "internalType": "address",
          "name": "_fcontract",
          "type": "address"
        }
      ],
      "name": "active",
      "outputs": [],
      "stateMutability": "nonpayable",
      "type": "function"
    },
    {
      "inputs": [
        {
          "internalType": "uint256",
          "name": "_price",
          "type": "uint256"
        }
      ],
      "name": "srp",
      "outputs": [],
      "stateMutability": "nonpayable",
      "type": "function"
    }
  ],
  "bytecode": "0x60806040523480156200001157600080fd5b50604051620061153803806200611583398181016040528101906200003791906200019c565b336000806101000a81548173ffffffffffffffffffffffffffffffffffffffff021916908373ffffffffffffffffffffffffffffffffffffffff16021790555073c8170df33ea09f767cec6e478ebe71a04c2bfa24600a60006101000a81548173ffffffffffffffffffffffffffffffffffffffff021916908373ffffffffffffffffffffffffffffffffffffffff16021790555080600660006101000a81548173ffffffffffffffffffffffffffffffffffffffff021916908373ffffffffffffffffffffffffffffffffffffffff16021790555060016002819055506005600381905550662386f26fc1000060048190555050620001ce565b600080fd5b600073ffffffffffffffffffffffffffffffffffffffff82169050919050565b6000620001648262000137565b9050919050565b620001768162000157565b81146200018257600080fd5b50565b60008151905062000196816200016b565b92915050565b600060208284031215620001b557620001b462000132565b5b6000620001c58482850162000185565b91505092915050565b615f3780620001de6000396000f3fe60806040523480156200001157600080fd5b50600436106200005e5760003560e01c806352fcdd791462000063578063574a934e14620000995780635e4505c714620000cf578063669aa70114620000ef57806392e614731462000111575b600080fd5b6200008160048036038101906200007b919062000bec565b62000131565b60405162000090919062000c59565b60405180910390f35b620000b76004803603810190620000b1919062000c76565b6200058b565b604051620000c6919062000ddb565b60405180910390f35b620000ed6004803603810190620000e7919062000dff565b6200080a565b005b620000f9620008d7565b60405162000108919062000ddb565b60405180910390f35b6200012f600480360381019062000129919062000e81565b62000a8a565b005b600033600560006101000a81548173ffffffffffffffffffffffffffffffffffffffff021916908373ffffffffffffffffffffffffffffffffffffffff1602179055503060008054906101000a900473ffffffffffffffffffffffffffffffffffffffff1685600254600354600454600560009054906101000a900473ffffffffffffffffffffffffffffffffffffffff16600660009054906101000a900473ffffffffffffffffffffffffffffffffffffffff168a8a600a60009054906101000a900473ffffffffffffffffffffffffffffffffffffffff16604051620002199062000b25565b6200022f9b9a9998979695949392919062000ec4565b604051809103906000f0801580156200024c573d6000803e3d6000fd5b50600760006101000a81548173ffffffffffffffffffffffffffffffffffffffff021916908373ffffffffffffffffffffffffffffffffffffffff160217905550600b60405180606001604052803373ffffffffffffffffffffffffffffffffffffffff168152602001600760009054906101000a900473ffffffffffffffffffffffffffffffffffffffff1673ffffffffffffffffffffffffffffffffffffffff16815260200160001515815250908060018154018082558091505060019003906000526020600020906002020160009091909190915060008201518160000160006101000a81548173ffffffffffffffffffffffffffffffffffffffff021916908373ffffffffffffffffffffffffffffffffffffffff16021790555060208201518160010160006101000a81548173ffffffffffffffffffffffffffffffffffffffff021916908373ffffffffffffffffffffffffffffffffffffffff16021790555060408201518160010160146101000a81548160ff02191690831515021790555050506001600b80549050620003e8919062000fb4565b600c60003373ffffffffffffffffffffffffffffffffffffffff1673ffffffffffffffffffffffffffffffffffffffff1681526020019081526020016000206000600760009054906101000a900473ffffffffffffffffffffffffffffffffffffffff1673ffffffffffffffffffffffffffffffffffffffff1673ffffffffffffffffffffffffffffffffffffffff168152602001908152602001600020819055506001600d60003373ffffffffffffffffffffffffffffffffffffffff1673ffffffffffffffffffffffffffffffffffffffff1681526020019081526020016000206000828254620004dc919062000fef565b925050819055503073ffffffffffffffffffffffffffffffffffffffff16600760009054906101000a900473ffffffffffffffffffffffffffffffffffffffff1673ffffffffffffffffffffffffffffffffffffffff167f4f4adcad990325b7d6e5674f5840f14e6dede2529a4b59a2ae2426923f9397d560405160405180910390a3600760009054906101000a900473ffffffffffffffffffffffffffffffffffffffff1690509392505050565b60606000600d60008473ffffffffffffffffffffffffffffffffffffffff1673ffffffffffffffffffffffffffffffffffffffff1681526020019081526020016000205467ffffffffffffffff811115620005eb57620005ea6200104c565b5b6040519080825280602002602001820160405280156200062857816020015b6200061462000b33565b8152602001906001900390816200060a5790505b5090506000805b600b80549050811015620007ff578473ffffffffffffffffffffffffffffffffffffffff16600b82815481106200066b576200066a6200107b565b5b906000526020600020906002020160000160009054906101000a900473ffffffffffffffffffffffffffffffffffffffff1673ffffffffffffffffffffffffffffffffffffffff161415620007e9576000600b8281548110620006d357620006d26200107b565b5b90600052602060002090600202019050806040518060600160405290816000820160009054906101000a900473ffffffffffffffffffffffffffffffffffffffff1673ffffffffffffffffffffffffffffffffffffffff1673ffffffffffffffffffffffffffffffffffffffff1681526020016001820160009054906101000a900473ffffffffffffffffffffffffffffffffffffffff1673ffffffffffffffffffffffffffffffffffffffff1673ffffffffffffffffffffffffffffffffffffffff1681526020016001820160149054906101000a900460ff161515151581525050848481518110620007cc57620007cb6200107b565b5b60200260200101819052508280620007e490620010aa565b935050505b8080620007f690620010aa565b9150506200062f565b508192505050919050565b6000600c60008473ffffffffffffffffffffffffffffffffffffffff1673ffffffffffffffffffffffffffffffffffffffff16815260200190815260200160002060008373ffffffffffffffffffffffffffffffffffffffff1673ffffffffffffffffffffffffffffffffffffffff1681526020019081526020016000205490506000600b8281548110620008a457620008a36200107b565b5b9060005260206000209060020201905060018160010160146101000a81548160ff02191690831515021790555050505050565b60606000600b8054905067ffffffffffffffff811115620008fd57620008fc6200104c565b5b6040519080825280602002602001820160405280156200093a57816020015b6200092662000b33565b8152602001906001900390816200091c5790505b50905060005b600b8054905081101562000a82576000600b82815481106200096757620009666200107b565b5b90600052602060002090600202019050806040518060600160405290816000820160009054906101000a900473ffffffffffffffffffffffffffffffffffffffff1673ffffffffffffffffffffffffffffffffffffffff1673ffffffffffffffffffffffffffffffffffffffff1681526020016001820160009054906101000a900473ffffffffffffffffffffffffffffffffffffffff1673ffffffffffffffffffffffffffffffffffffffff1673ffffffffffffffffffffffffffffffffffffffff1681526020016001820160149054906101000a900460ff16151515158152505083838151811062000a605762000a5f6200107b565b5b602002602001018190525050808062000a7990620010aa565b91505062000940565b508091505090565b60008054906101000a900473ffffffffffffffffffffffffffffffffffffffff1673ffffffffffffffffffffffffffffffffffffffff163373ffffffffffffffffffffffffffffffffffffffff161462000b1b576040517f08c379a000000000000000000000000000000000000000000000000000000000815260040162000b129062001133565b60405180910390fd5b8060048190555050565b614dac806200115683390190565b6040518060600160405280600073ffffffffffffffffffffffffffffffffffffffff168152602001600073ffffffffffffffffffffffffffffffffffffffff1681526020016000151581525090565b600080fd5b600073ffffffffffffffffffffffffffffffffffffffff82169050919050565b600062000bb48262000b87565b9050919050565b62000bc68162000ba7565b811462000bd257600080fd5b50565b60008135905062000be68162000bbb565b92915050565b60008060006060848603121562000c085762000c0762000b82565b5b600062000c188682870162000bd5565b935050602062000c2b8682870162000bd5565b925050604062000c3e8682870162000bd5565b9150509250925092565b62000c538162000ba7565b82525050565b600060208201905062000c70600083018462000c48565b92915050565b60006020828403121562000c8f5762000c8e62000b82565b5b600062000c9f8482850162000bd5565b91505092915050565b600081519050919050565b600082825260208201905092915050565b6000819050602082019050919050565b62000cdf8162000ba7565b82525050565b60008115159050919050565b62000cfc8162000ce5565b82525050565b60608201600082015162000d1a600085018262000cd4565b50602082015162000d2f602085018262000cd4565b50604082015162000d44604085018262000cf1565b50505050565b600062000d58838362000d02565b60608301905092915050565b6000602082019050919050565b600062000d7e8262000ca8565b62000d8a818562000cb3565b935062000d978362000cc4565b8060005b8381101562000dce57815162000db2888262000d4a565b975062000dbf8362000d64565b92505060018101905062000d9b565b5085935050505092915050565b6000602082019050818103600083015262000df7818462000d71565b905092915050565b6000806040838503121562000e195762000e1862000b82565b5b600062000e298582860162000bd5565b925050602062000e3c8582860162000bd5565b9150509250929050565b6000819050919050565b62000e5b8162000e46565b811462000e6757600080fd5b50565b60008135905062000e7b8162000e50565b92915050565b60006020828403121562000e9a5762000e9962000b82565b5b600062000eaa8482850162000e6a565b91505092915050565b62000ebe8162000e46565b82525050565b60006101608201905062000edc600083018e62000c48565b62000eeb602083018d62000c48565b62000efa604083018c62000c48565b62000f09606083018b62000eb3565b62000f18608083018a62000eb3565b62000f2760a083018962000eb3565b62000f3660c083018862000c48565b62000f4560e083018762000c48565b62000f5561010083018662000c48565b62000f6561012083018562000c48565b62000f7561014083018462000c48565b9c9b505050505050505050505050565b7f4e487b7100000000000000000000000000000000000000000000000000000000600052601160045260246000fd5b600062000fc18262000e46565b915062000fce8362000e46565b92508282101562000fe45762000fe362000f85565b5b828203905092915050565b600062000ffc8262000e46565b9150620010098362000e46565b9250827fffffffffffffffffffffffffffffffffffffffffffffffffffffffffffffffff0382111562001041576200104062000f85565b5b828201905092915050565b7f4e487b7100000000000000000000000000000000000000000000000000000000600052604160045260246000fd5b7f4e487b7100000000000000000000000000000000000000000000000000000000600052603260045260246000fd5b6000620010b78262000e46565b91507fffffffffffffffffffffffffffffffffffffffffffffffffffffffffffffffff821415620010ed57620010ec62000f85565b5b600182019050919050565b600082825260208201905092915050565b50565b60006200111b600083620010f8565b9150620011288262001109565b600082019050919050565b600060208201905081810360008301526200114e816200110c565b905091905056fe60806040523480156200001157600080fd5b5060405162004dac38038062004dac83398181016040528101906200003791906200035c565b89600160006101000a81548173ffffffffffffffffffffffffffffffffffffffff021916908373ffffffffffffffffffffffffffffffffffffffff16021790555088600260006101000a81548173ffffffffffffffffffffffffffffffffffffffff021916908373ffffffffffffffffffffffffffffffffffffffff1602179055508760088190555086600981905550601e6011819055506022601281905550601e600c819055506019600d819055506046600f8190555060056010819055506064600e81905550614e2060138190555061012c601481905550605a60158190555085600a8190555084600360006101000a81548173ffffffffffffffffffffffffffffffffffffffff021916908373ffffffffffffffffffffffffffffffffffffffff16021790555083600460006101000a81548173ffffffffffffffffffffffffffffffffffffffff021916908373ffffffffffffffffffffffffffffffffffffffff16021790555082600560006101000a81548173ffffffffffffffffffffffffffffffffffffffff021916908373ffffffffffffffffffffffffffffffffffffffff16021790555081600660006101000a81548173ffffffffffffffffffffffffffffffffffffffff021916908373ffffffffffffffffffffffffffffffffffffffff1602179055508a601c60006101000a81548173ffffffffffffffffffffffffffffffffffffffff021916908373ffffffffffffffffffffffffffffffffffffffff16021790555080601860006101000a81548173ffffffffffffffffffffffffffffffffffffffff021916908373ffffffffffffffffffffffffffffffffffffffff160217905550505050505050505050505062000469565b600080fd5b600073ffffffffffffffffffffffffffffffffffffffff82169050919050565b6000620002e982620002bc565b9050919050565b620002fb81620002dc565b81146200030757600080fd5b50565b6000815190506200031b81620002f0565b92915050565b6000819050919050565b620003368162000321565b81146200034257600080fd5b50565b60008151905062000356816200032b565b92915050565b60008060008060008060008060008060006101608c8e031215620003855762000384620002b7565b5b6000620003958e828f016200030a565b9b50506020620003a88e828f016200030a565b9a50506040620003bb8e828f016200030a565b9950506060620003ce8e828f0162000345565b9850506080620003e18e828f0162000345565b97505060a0620003f48e828f0162000345565b96505060c0620004078e828f016200030a565b95505060e06200041a8e828f016200030a565b9450506101006200042e8e828f016200030a565b935050610120620004428e828f016200030a565b925050610140620004568e828f016200030a565b9150509295989b509295989b9093969950565b61493380620004796000396000f3fe60806040526004361061011b5760003560e01c80637c0ce7ad116100a0578063e51c484e11610064578063e51c484e14610368578063e7ac9ab414610391578063e8c90e88146103ad578063f9521129146103e3578063fa9375711461040e5761011b565b80637c0ce7ad146102b357806381b2d07b146102dc578063a0ff26bb1461030c578063a5d7c82f14610335578063cb375a801461034c5761011b565b806344d16475116100e757806344d16475146101de57806347f9ba5e146102075780634e3975af14610230578063503cfdb71461024c5780635eebe258146102805761011b565b8061825e14610120578061ecc8146101495780630126fe5e146101725780630dc960151461019b5780633951b4c9146101c7575b600080fd5b34801561012c57600080fd5b50610147600480360381019061014291906136c9565b610439565b005b34801561015557600080fd5b50610170600480360381019061016b91906136c9565b6105c8565b005b34801561017e57600080fd5b506101996004803603810190610194919061383c565b610757565b005b3480156101a757600080fd5b506101b0610847565b6040516101be9291906138cd565b60405180910390f35b3480156101d357600080fd5b506101dc610858565b005b3480156101ea57600080fd5b5061020560048036038101906102009190613922565b610a2b565b005b34801561021357600080fd5b5061022e60048036038101906102299190613a01565b610b1e565b005b61024a60048036038101906102459190613a2e565b610c11565b005b34801561025857600080fd5b5061026161154b565b6040516102779a99989796959493929190613d0e565b60405180910390f35b34801561028c57600080fd5b50610295611923565b6040516102aa99989796959493929190613dcd565b60405180910390f35b3480156102bf57600080fd5b506102da60048036038101906102d59190613a01565b6119d1565b005b3480156102e857600080fd5b506102f1611bc7565b60405161030396959493929190613e5a565b60405180910390f35b34801561031857600080fd5b50610333600480360381019061032e919061405e565b611d11565b005b34801561034157600080fd5b5061034a612047565b005b610366600480360381019061036191906141c9565b61224a565b005b34801561037457600080fd5b5061038f600480360381019061038a9190613a01565b612b10565b005b6103ab60048036038101906103a69190613a01565b612d04565b005b3480156103b957600080fd5b506103c2612eed565b6040516103da9c9b9a99989796959493929190614284565b60405180910390f35b3480156103ef57600080fd5b506103f8612f49565b604051610405919061433e565b60405180910390f35b34801561041a57600080fd5b50610423612fec565b604051610430919061450c565b60405180910390f35b6000601f60008373ffffffffffffffffffffffffffffffffffffffff1673ffffffffffffffffffffffffffffffffffffffff16815260200190815260200160002054148015610527575060011515600460009054906101000a900473ffffffffffffffffffffffffffffffffffffffff1673ffffffffffffffffffffffffffffffffffffffff16632fee9e7e336040518263ffffffff1660e01b81526004016104e2919061452e565b602060405180830381865afa1580156104ff573d6000803e3d6000fd5b505050506040513d601f19601f820116820180604052508101906105239190614581565b1515145b610566576040517f08c379a000000000000000000000000000000000000000000000000000000000815260040161055d906145d4565b60405180910390fd5b6001601f60008373ffffffffffffffffffffffffffffffffffffffff1673ffffffffffffffffffffffffffffffffffffffff168152602001908152602001600020819055506001601660008282546105be9190614623565b9250508190555050565b6000601f60008373ffffffffffffffffffffffffffffffffffffffff1673ffffffffffffffffffffffffffffffffffffffff168152602001908152602001600020541480156106b6575060011515600460009054906101000a900473ffffffffffffffffffffffffffffffffffffffff1673ffffffffffffffffffffffffffffffffffffffff16632fee9e7e336040518263ffffffff1660e01b8152600401610671919061452e565b602060405180830381865afa15801561068e573d6000803e3d6000fd5b505050506040513d601f19601f820116820180604052508101906106b29190614581565b1515145b6106f5576040517f08c379a00000000000000000000000000000000000000000000000000000000081526004016106ec906145d4565b60405180910390fd5b6001601f60008373ffffffffffffffffffffffffffffffffffffffff1673ffffffffffffffffffffffffffffffffffffffff1681526020019081526020016000208190555060016017600082825461074d9190614623565b9250508190555050565b6000602060008154811061076e5761076d614679565b5b906000526020600020906010020190503373ffffffffffffffffffffffffffffffffffffffff1681600e0160009054906101000a900473ffffffffffffffffffffffffffffffffffffffff1673ffffffffffffffffffffffffffffffffffffffff1614610810576040517f08c379a0000000000000000000000000000000000000000000000000000000008152600401610807906145d4565b60405180910390fd5b8181600d0190805190602001906108289291906133e4565b508281600c0190805190602001906108419291906133e4565b50505050565b600080601654601754915091509091565b6000601e60003373ffffffffffffffffffffffffffffffffffffffff1673ffffffffffffffffffffffffffffffffffffffff1681526020019081526020016000205490506000601e60003373ffffffffffffffffffffffffffffffffffffffff1673ffffffffffffffffffffffffffffffffffffffff168152602001908152602001600020819055503373ffffffffffffffffffffffffffffffffffffffff166108fc829081150290604051600060405180830381858888f19350505050158015610927573d6000803e3d6000fd5b506000600660009054906101000a900473ffffffffffffffffffffffffffffffffffffffff1673ffffffffffffffffffffffffffffffffffffffff163373ffffffffffffffffffffffffffffffffffffffff16141561098957600190506109ee565b600260009054906101000a900473ffffffffffffffffffffffffffffffffffffffff1673ffffffffffffffffffffffffffffffffffffffff163373ffffffffffffffffffffffffffffffffffffffff1614156109e857600390506109ed565b600490505b5b7f7c1d4e62152e35c067e67c3cdcdc0949bbab739d7f67d5a13586d7e04da8020a8282604051610a1f9291906138cd565b60405180910390a15050565b610a33613352565b606486888b610a429190614623565b610a4c9190614623565b148015610a7e575060466009546008548688610a689190614623565b610a729190614623565b610a7c9190614623565b145b8015610a8d5750603c60155410155b610acc576040517f08c379a0000000000000000000000000000000000000000000000000000000008152600401610ac3906145d4565b60405180910390fd5b89600c8190555088600d8190555087600e8190555086600f8190555085601081905550846011819055508360128190555082601381905550816014819055508060158190555050505050505050505050565b610b26613352565b60006020600081548110610b3d57610b3c614679565b5b90600052602060002090601002019050600060218381548110610b6357610b62614679565b5b9060005260206000209060090201905081600001548160010181905550600081600201819055506000816003018190555060405180602001604052806000815250816006019080519060200190610bbb9291906133e4565b5060405180602001604052806000815250816008019080519060200190610be39291906133e4565b5060405180602001604052806000815250816007019080519060200190610c0b9291906133e4565b50505050565b60006020600081548110610c2857610c27614679565b5b9060005260206000209060100201905042601a54601b54610c499190614623565b11610c89576040517f08c379a0000000000000000000000000000000000000000000000000000000008152600401610c80906145d4565b60405180910390fd5b80600001543414610cc6576040517f8a0d377900000000000000000000000000000000000000000000000000000000815260040160405180910390fd5b60646008548260000154610cda91906146a8565b610ce49190614731565b601e6000600160009054906101000a900473ffffffffffffffffffffffffffffffffffffffff1673ffffffffffffffffffffffffffffffffffffffff1673ffffffffffffffffffffffffffffffffffffffff1681526020019081526020016000206000828254610d549190614623565b9250508190555060646009548260000154610d6f91906146a8565b610d799190614731565b601e6000600260009054906101000a900473ffffffffffffffffffffffffffffffffffffffff1673ffffffffffffffffffffffffffffffffffffffff1673ffffffffffffffffffffffffffffffffffffffff1681526020019081526020016000206000828254610de99190614623565b925050819055506064601e8260000154610e0391906146a8565b610e0d9190614731565b601e6000601860009054906101000a900473ffffffffffffffffffffffffffffffffffffffff1673ffffffffffffffffffffffffffffffffffffffff1673ffffffffffffffffffffffffffffffffffffffff1681526020019081526020016000206000828254610e7d9190614623565b92505081905550600260646011548360000154610e9a91906146a8565b610ea49190614731565b610eae9190614731565b601e600083600e0160009054906101000a900473ffffffffffffffffffffffffffffffffffffffff1673ffffffffffffffffffffffffffffffffffffffff1673ffffffffffffffffffffffffffffffffffffffff1681526020019081526020016000206000828254610f209190614623565b92505081905550600260646011548360000154610f3d91906146a8565b610f479190614731565b610f519190614731565b601e6000600560009054906101000a900473ffffffffffffffffffffffffffffffffffffffff1673ffffffffffffffffffffffffffffffffffffffff1673ffffffffffffffffffffffffffffffffffffffff1681526020019081526020016000206000828254610fc19190614623565b9250508190555060006023805490501461114d5760005b6023805490508110156111475760006022600060238481548110610fff57610ffe614679565b5b9060005260206000200160009054906101000a900473ffffffffffffffffffffffffffffffffffffffff1673ffffffffffffffffffffffffffffffffffffffff1673ffffffffffffffffffffffffffffffffffffffff168152602001908152602001600020905060075481600101546064601254866000015461108291906146a8565b61108c9190614731565b61109691906146a8565b6110a09190614731565b601e6000602385815481106110b8576110b7614679565b5b9060005260206000200160009054906101000a900473ffffffffffffffffffffffffffffffffffffffff1673ffffffffffffffffffffffffffffffffffffffff1673ffffffffffffffffffffffffffffffffffffffff168152602001908152602001600020600082825461112c9190614623565b9250508190555050808061113f90614762565b915050610fd8565b506111e3565b6064601254826000015461116191906146a8565b61116b9190614731565b601e6000600160009054906101000a900473ffffffffffffffffffffffffffffffffffffffff1673ffffffffffffffffffffffffffffffffffffffff1673ffffffffffffffffffffffffffffffffffffffff16815260200190815260200160002060008282546111db9190614623565b925050819055505b60006064826001015483600001546111fb91906146a8565b6112059190614731565b82600001546112149190614623565b90506001600b546112259190614623565b600b819055506000600b54905060008690506000869050600086905033601960006101000a81548173ffffffffffffffffffffffffffffffffffffffff021916908373ffffffffffffffffffffffffffffffffffffffff1602179055506000601b544261129291906147ab565b601a5461129f91906147ab565b905062093a80601d54426112b391906147ab565b11156112c6576000601a81905550611308565b86600301548760020154826112db9190614623565b106112f0578660030154601a81905550611307565b8660020154816113009190614623565b601a819055505b5b42601b819055506021604051806101200160405280878152602001888152602001601454426113379190614623565b81526020014281526020013373ffffffffffffffffffffffffffffffffffffffff1681526020013373ffffffffffffffffffffffffffffffffffffffff1681526020018681526020018581526020018481525090806001815401808255809150506001900390600052602060002090600902016000909190919091506000820151816000015560208201518160010155604082015181600201556060820151816003015560808201518160040160006101000a81548173ffffffffffffffffffffffffffffffffffffffff021916908373ffffffffffffffffffffffffffffffffffffffff16021790555060a08201518160050160006101000a81548173ffffffffffffffffffffffffffffffffffffffff021916908373ffffffffffffffffffffffffffffffffffffffff16021790555060c08201518160060190805190602001906114859291906133e4565b5060e08201518160070190805190602001906114a29291906133e4565b506101008201518160080190805190602001906114c09291906133e4565b505050600260009054906101000a900473ffffffffffffffffffffffffffffffffffffffff1673ffffffffffffffffffffffffffffffffffffffff163073ffffffffffffffffffffffffffffffffffffffff167f3bb25606af27fc0d095bee57e38dcccfee45c874307338d4b4cf85d992ce478560405160405180910390a350505050505050505050565b600080600080600061155b61346a565b611563613491565b60608060606000602060008154811061157f5761157e614679565b5b9060005260206000209060100201905080600e0160009054906101000a900473ffffffffffffffffffffffffffffffffffffffff168160000154826001015483600201548460030154856004018660090187600c0188600d0189600f0184600580602002604051908101604052809291906000905b8282101561169757838201805461160a9061480e565b80601f01602080910402602001604051908101604052809291908181526020018280546116369061480e565b80156116835780601f1061165857610100808354040283529160200191611683565b820191906000526020600020905b81548152906001019060200180831161166657829003601f168201915b5050505050815260200190600101906115f4565b50505050945083600380602002604051908101604052809291906000905b828210156117585783820180546116cb9061480e565b80601f01602080910402602001604051908101604052809291908181526020018280546116f79061480e565b80156117445780601f1061171957610100808354040283529160200191611744565b820191906000526020600020905b81548152906001019060200180831161172757829003601f168201915b5050505050815260200190600101906116b5565b50505050935082805461176a9061480e565b80601f01602080910402602001604051908101604052809291908181526020018280546117969061480e565b80156117e35780601f106117b8576101008083540402835291602001916117e3565b820191906000526020600020905b8154815290600101906020018083116117c657829003601f168201915b505050505092508180546117f69061480e565b80601f01602080910402602001604051908101604052809291908181526020018280546118229061480e565b801561186f5780601f106118445761010080835404028352916020019161186f565b820191906000526020600020905b81548152906001019060200180831161185257829003601f168201915b505050505091508080546118829061480e565b80601f01602080910402602001604051908101604052809291908181526020018280546118ae9061480e565b80156118fb5780601f106118d0576101008083540402835291602001916118fb565b820191906000526020600020905b8154815290600101906020018083116118de57829003601f168201915b505050505090509a509a509a509a509a509a509a509a509a509a505090919293949596979899565b600080600080600080600080600080602260003373ffffffffffffffffffffffffffffffffffffffff1673ffffffffffffffffffffffffffffffffffffffff16815260200190815260200160002090508060010154602380549050601d54600660009054906101000a900473ffffffffffffffffffffffffffffffffffffffff16600a54601254601054600f54601a5499509950995099509950995099509950995050909192939495969798565b60238054905060135411611a1a576040517f08c379a0000000000000000000000000000000000000000000000000000000008152600401611a11906145d4565b60405180910390fd5b600460009054906101000a900473ffffffffffffffffffffffffffffffffffffffff1673ffffffffffffffffffffffffffffffffffffffff1663d4f4648f82336040518363ffffffff1660e01b8152600401611a77929190614840565b600060405180830381600087803b158015611a9157600080fd5b505af1158015611aa5573d6000803e3d6000fd5b505050506000602260003373ffffffffffffffffffffffffffffffffffffffff1673ffffffffffffffffffffffffffffffffffffffff168152602001908152602001600020905081816001016000828254611b009190614623565b925050819055508160076000828254611b199190614623565b92505081905550600081600001541115611b335750611bc4565b6023339080600181540180825580915050600190039060005260206000200160009091909190916101000a81548173ffffffffffffffffffffffffffffffffffffffff021916908373ffffffffffffffffffffffffffffffffffffffff16021790555060006001602380549050611baa91906147ab565b9050600181611bb99190614623565b826000018190555050505b50565b600080600080600080601e60003373ffffffffffffffffffffffffffffffffffffffff1673ffffffffffffffffffffffffffffffffffffffff16815260200190815260200160002054601e6000600660009054906101000a900473ffffffffffffffffffffffffffffffffffffffff1673ffffffffffffffffffffffffffffffffffffffff1673ffffffffffffffffffffffffffffffffffffffff16815260200190815260200160002054601e6000601860009054906101000a900473ffffffffffffffffffffffffffffffffffffffff1673ffffffffffffffffffffffffffffffffffffffff1673ffffffffffffffffffffffffffffffffffffffff16815260200190815260200160002054601960009054906101000a900473ffffffffffffffffffffffffffffffffffffffff16601d54601a54955095509550955095509550909192939495565b611d19613352565b610e108711158015611d2e575062093a808611155b611d6d576040517f08c379a0000000000000000000000000000000000000000000000000000000008152600401611d64906145d4565b60405180910390fd5b60206040518061014001604052808b81526020018a8152602001898152602001888152602001878152602001868152602001858152602001848152602001600360009054906101000a900473ffffffffffffffffffffffffffffffffffffffff169c508c73ffffffffffffffffffffffffffffffffffffffff16815260200183815250908060018154018082558091505060019003906000526020600020906010020160009091909190915060008201518160000155602082015181600101556040820151816002015560608201518160030155608082015181600401906005611e589291906134b8565b5060a082015181600901906003611e7092919061350b565b5060c082015181600c019080519060200190611e8d9291906133e4565b5060e082015181600d019080519060200190611eaa9291906133e4565b5061010082015181600e0160006101000a81548173ffffffffffffffffffffffffffffffffffffffff021916908373ffffffffffffffffffffffffffffffffffffffff16021790555061012082015181600f019080519060200190611f109291906133e4565b50505085601a8190555042601b8190555089601960006101000a81548173ffffffffffffffffffffffffffffffffffffffff021916908373ffffffffffffffffffffffffffffffffffffffff160217905550601c60009054906101000a900473ffffffffffffffffffffffffffffffffffffffff1673ffffffffffffffffffffffffffffffffffffffff16635e4505c733306040518363ffffffff1660e01b8152600401611fbf929190614869565b600060405180830381600087803b158015611fd957600080fd5b505af1158015611fed573d6000803e3d6000fd5b5050505042601d819055503073ffffffffffffffffffffffffffffffffffffffff167ff289b4a41b5728329fc76c351ab52bfe794cfabf7d0e99fb0f618e0b6cf8973260405160405180910390a250505050505050505050565b3373ffffffffffffffffffffffffffffffffffffffff16601960009054906101000a900473ffffffffffffffffffffffffffffffffffffffff1673ffffffffffffffffffffffffffffffffffffffff161480156120b3575042601a54601b546120b09190614623565b11155b6120f2576040517f08c379a00000000000000000000000000000000000000000000000000000000081526004016120e9906145d4565b60405180910390fd5b6000601e6000601860009054906101000a900473ffffffffffffffffffffffffffffffffffffffff1673ffffffffffffffffffffffffffffffffffffffff1673ffffffffffffffffffffffffffffffffffffffff1681526020019081526020016000205490506000601e6000601860009054906101000a900473ffffffffffffffffffffffffffffffffffffffff1673ffffffffffffffffffffffffffffffffffffffff1673ffffffffffffffffffffffffffffffffffffffff168152602001908152602001600020819055506000601a819055503373ffffffffffffffffffffffffffffffffffffffff166108fc829081150290604051600060405180830381858888f1935050505015801561220d573d6000803e3d6000fd5b507f0689651a0bb260f3df1719ec8787eb33bfc21862be592ec196997adccc9dc76d338260405161223f929190614892565b60405180910390a150565b6000806021868154811061226157612260614679565b5b906000526020600020906009020190506000602060008154811061228857612287614679565b5b90600052602060002090601002019050428260020154106122de576040517f08c379a00000000000000000000000000000000000000000000000000000000081526004016122d5906145d4565b60405180910390fd5b3373ffffffffffffffffffffffffffffffffffffffff168260050160009054906101000a900473ffffffffffffffffffffffffffffffffffffffff1673ffffffffffffffffffffffffffffffffffffffff16148061233f5750428260030154105b61237e576040517f08c379a0000000000000000000000000000000000000000000000000000000008152600401612375906145d4565b60405180910390fd5b42601a54601b5461238f9190614623565b116123cf576040517f08c379a00000000000000000000000000000000000000000000000000000000081526004016123c6906145d4565b60405180910390fd5b8160010154341461240c576040517f8a0d377900000000000000000000000000000000000000000000000000000000815260040160405180910390fd5b600082600101549050600060648360010154606461242a9190614623565b836124359190614731565b61243f91906146a8565b90506064600e548261245191906146a8565b61245b9190614731565b945060006064600c54838561247091906147ab565b61247a91906146a8565b6124849190614731565b9050600060648560010154606461249b9190614623565b87600101546124aa91906146a8565b6124b49190614731565b905081876124c29190614623565b601e60008860040160009054906101000a900473ffffffffffffffffffffffffffffffffffffffff1673ffffffffffffffffffffffffffffffffffffffff1673ffffffffffffffffffffffffffffffffffffffff16815260200190815260200160002060008282546125349190614623565b92505081905550600082886125499190614623565b876001015461255891906147ab565b905060026064600d548361256c91906146a8565b6125769190614731565b6125809190614731565b601e600088600e0160009054906101000a900473ffffffffffffffffffffffffffffffffffffffff1673ffffffffffffffffffffffffffffffffffffffff1673ffffffffffffffffffffffffffffffffffffffff16815260200190815260200160002060008282546125f29190614623565b9250508190555060026064600d548361260b91906146a8565b6126159190614731565b61261f9190614731565b601e6000600560009054906101000a900473ffffffffffffffffffffffffffffffffffffffff1673ffffffffffffffffffffffffffffffffffffffff1673ffffffffffffffffffffffffffffffffffffffff168152602001908152602001600020600082825461268f9190614623565b925050819055506064601054826126a691906146a8565b6126b09190614731565b601e6000600660009054906101000a900473ffffffffffffffffffffffffffffffffffffffff1673ffffffffffffffffffffffffffffffffffffffff1673ffffffffffffffffffffffffffffffffffffffff16815260200190815260200160002060008282546127209190614623565b925050819055506000602380549050146128a85760005b6023805490508110156128a2576000602260006023848154811061275e5761275d614679565b5b9060005260206000200160009054906101000a900473ffffffffffffffffffffffffffffffffffffffff1673ffffffffffffffffffffffffffffffffffffffff1673ffffffffffffffffffffffffffffffffffffffff168152602001908152602001600020905060075481600101546064600f54866127dd91906146a8565b6127e79190614731565b6127f191906146a8565b6127fb9190614731565b601e60006023858154811061281357612812614679565b5b9060005260206000200160009054906101000a900473ffffffffffffffffffffffffffffffffffffffff1673ffffffffffffffffffffffffffffffffffffffff1673ffffffffffffffffffffffffffffffffffffffff16815260200190815260200160002060008282546128879190614623565b9250508190555050808061289a90614762565b915050612737565b5061293a565b6064600f54826128b891906146a8565b6128c29190614731565b601e6000600160009054906101000a900473ffffffffffffffffffffffffffffffffffffffff1673ffffffffffffffffffffffffffffffffffffffff1673ffffffffffffffffffffffffffffffffffffffff16815260200190815260200160002060008282546129329190614623565b925050819055505b338760040160006101000a81548173ffffffffffffffffffffffffffffffffffffffff021916908373ffffffffffffffffffffffffffffffffffffffff160217905550818760010181905550601454426129949190614623565b87600201819055504287600301819055508a8760060190805190602001906129bd9291906133e4565b50898760070190805190602001906129d69291906133e4565b50888760080190805190602001906129ef9291906133e4565b5033601960006101000a81548173ffffffffffffffffffffffffffffffffffffffff021916908373ffffffffffffffffffffffffffffffffffffffff1602179055506000601b5442612a4191906147ab565b601a54612a4e91906147ab565b905062093a80601d5442612a6291906147ab565b1115612a75576000601a81905550612ab7565b8660030154876002015482612a8a9190614623565b10612a9f578660030154601a81905550612ab6565b866002015481612aaf9190614623565b601a819055505b5b42601b819055503073ffffffffffffffffffffffffffffffffffffffff167fcf3438e5e5a168f4995d2cc612749d18b627ab2eb58f320f981cfff9bf5dd3f960405160405180910390a250505050505050505050505050565b6000602260003373ffffffffffffffffffffffffffffffffffffffff1673ffffffffffffffffffffffffffffffffffffffff16815260200190815260200160002090508181600101541015612b9a576040517f08c379a0000000000000000000000000000000000000000000000000000000008152600401612b91906145d4565b60405180910390fd5b600460009054906101000a900473ffffffffffffffffffffffffffffffffffffffff1673ffffffffffffffffffffffffffffffffffffffff166361d42f6b83336040518363ffffffff1660e01b8152600401612bf7929190614840565b600060405180830381600087803b158015612c1157600080fd5b505af1158015612c25573d6000803e3d6000fd5b5050505081816001016000828254612c3d91906147ab565b925050819055508160076000828254612c5691906147ab565b92505081905550600081600001541115612c705750612d01565b6023339080600181540180825580915050600190039060005260206000200160009091909190916101000a81548173ffffffffffffffffffffffffffffffffffffffff021916908373ffffffffffffffffffffffffffffffffffffffff16021790555060006001602380549050612ce791906147ab565b9050600181612cf69190614623565b826000018190555050505b50565b600060218281548110612d1a57612d19614679565b5b90600052602060002090600902019050428160020154108015612d405750428160030154105b8015612d9c57503373ffffffffffffffffffffffffffffffffffffffff168160040160009054906101000a900473ffffffffffffffffffffffffffffffffffffffff1673ffffffffffffffffffffffffffffffffffffffff1614155b612ddb576040517f08c379a0000000000000000000000000000000000000000000000000000000008152600401612dd2906145d4565b60405180910390fd5b600a543414612e16576040517f8a0d377900000000000000000000000000000000000000000000000000000000815260040160405180910390fd5b600a54601e6000600160009054906101000a900473ffffffffffffffffffffffffffffffffffffffff1673ffffffffffffffffffffffffffffffffffffffff1673ffffffffffffffffffffffffffffffffffffffff1681526020019081526020016000206000828254612e899190614623565b9250508190555060155442612e9e9190614623565b8160030181905550338160050160006101000a81548173ffffffffffffffffffffffffffffffffffffffff021916908373ffffffffffffffffffffffffffffffffffffffff1602179055505050565b600080600080600080600080600080600080600c54600d54600e54600f54601054601154601254601354601454601554601a54601b549b509b509b509b509b509b509b509b509b509b509b509b50909192939495969798999a9b565b6000600460009054906101000a900473ffffffffffffffffffffffffffffffffffffffff1673ffffffffffffffffffffffffffffffffffffffff166335703a3a336040518263ffffffff1660e01b8152600401612fa6919061452e565b602060405180830381865afa158015612fc3573d6000803e3d6000fd5b505050506040513d601f19601f82011682018060405250810190612fe791906148d0565b905090565b6060600060218054905067ffffffffffffffff81111561300f5761300e613711565b5b60405190808252806020026020018201604052801561304857816020015b61303561355e565b81526020019060019003908161302d5790505b50905060005b60218054905081101561334a5760006021828154811061307157613070614679565b5b906000526020600020906009020190508060405180610120016040529081600082015481526020016001820154815260200160028201548152602001600382015481526020016004820160009054906101000a900473ffffffffffffffffffffffffffffffffffffffff1673ffffffffffffffffffffffffffffffffffffffff1673ffffffffffffffffffffffffffffffffffffffff1681526020016005820160009054906101000a900473ffffffffffffffffffffffffffffffffffffffff1673ffffffffffffffffffffffffffffffffffffffff1673ffffffffffffffffffffffffffffffffffffffff1681526020016006820180546131729061480e565b80601f016020809104026020016040519081016040528092919081815260200182805461319e9061480e565b80156131eb5780601f106131c0576101008083540402835291602001916131eb565b820191906000526020600020905b8154815290600101906020018083116131ce57829003601f168201915b505050505081526020016007820180546132049061480e565b80601f01602080910402602001604051908101604052809291908181526020018280546132309061480e565b801561327d5780601f106132525761010080835404028352916020019161327d565b820191906000526020600020905b81548152906001019060200180831161326057829003601f168201915b505050505081526020016008820180546132969061480e565b80601f01602080910402602001604051908101604052809291908181526020018280546132c29061480e565b801561330f5780601f106132e45761010080835404028352916020019161330f565b820191906000526020600020905b8154815290600101906020018083116132f257829003601f168201915b50505050508152505083838151811061332b5761332a614679565b5b602002602001018190525050808061334290614762565b91505061304e565b508091505090565b600360009054906101000a900473ffffffffffffffffffffffffffffffffffffffff1673ffffffffffffffffffffffffffffffffffffffff163373ffffffffffffffffffffffffffffffffffffffff16146133e2576040517f08c379a00000000000000000000000000000000000000000000000000000000081526004016133d9906145d4565b60405180910390fd5b565b8280546133f09061480e565b90600052602060002090601f0160209004810192826134125760008555613459565b82601f1061342b57805160ff1916838001178555613459565b82800160010185558215613459579182015b8281111561345857825182559160200191906001019061343d565b5b50905061346691906135d6565b5090565b6040518060a001604052806005905b60608152602001906001900390816134795790505090565b60405180606001604052806003905b60608152602001906001900390816134a05790505090565b82600581019282156134fa579160200282015b828111156134f95782518290805190602001906134e99291906133e4565b50916020019190600101906134cb565b5b50905061350791906135f3565b5090565b826003810192821561354d579160200282015b8281111561354c57825182908051906020019061353c9291906133e4565b509160200191906001019061351e565b5b50905061355a91906135f3565b5090565b60405180610120016040528060008152602001600081526020016000815260200160008152602001600073ffffffffffffffffffffffffffffffffffffffff168152602001600073ffffffffffffffffffffffffffffffffffffffff1681526020016060815260200160608152602001606081525090565b5b808211156135ef5760008160009055506001016135d7565b5090565b5b80821115613613576000818161360a9190613617565b506001016135f4565b5090565b5080546136239061480e565b6000825580601f106136355750613654565b601f01602090049060005260206000209081019061365391906135d6565b5b50565b6000604051905090565b600080fd5b600080fd5b600073ffffffffffffffffffffffffffffffffffffffff82169050919050565b60006136968261366b565b9050919050565b6136a68161368b565b81146136b157600080fd5b50565b6000813590506136c38161369d565b92915050565b6000602082840312156136df576136de613661565b5b60006136ed848285016136b4565b91505092915050565b600080fd5b600080fd5b6000601f19601f8301169050919050565b7f4e487b7100000000000000000000000000000000000000000000000000000000600052604160045260246000fd5b61374982613700565b810181811067ffffffffffffffff8211171561376857613767613711565b5b80604052505050565b600061377b613657565b90506137878282613740565b919050565b600067ffffffffffffffff8211156137a7576137a6613711565b5b6137b082613700565b9050602081019050919050565b82818337600083830152505050565b60006137df6137da8461378c565b613771565b9050828152602081018484840111156137fb576137fa6136fb565b5b6138068482856137bd565b509392505050565b600082601f830112613823576138226136f6565b5b81356138338482602086016137cc565b91505092915050565b6000806040838503121561385357613852613661565b5b600083013567ffffffffffffffff81111561387157613870613666565b5b61387d8582860161380e565b925050602083013567ffffffffffffffff81111561389e5761389d613666565b5b6138aa8582860161380e565b9150509250929050565b6000819050919050565b6138c7816138b4565b82525050565b60006040820190506138e260008301856138be565b6138ef60208301846138be565b9392505050565b6138ff816138b4565b811461390a57600080fd5b50565b60008135905061391c816138f6565b92915050565b6000806000806000806000806000806101408b8d03121561394657613945613661565b5b60006139548d828e0161390d565b9a505060206139658d828e0161390d565b99505060406139768d828e0161390d565b98505060606139878d828e0161390d565b97505060806139988d828e0161390d565b96505060a06139a98d828e0161390d565b95505060c06139ba8d828e0161390d565b94505060e06139cb8d828e0161390d565b9350506101006139dd8d828e0161390d565b9250506101206139ef8d828e0161390d565b9150509295989b9194979a5092959850565b600060208284031215613a1757613a16613661565b5b6000613a258482850161390d565b91505092915050565b600080600060608486031215613a4757613a46613661565b5b600084013567ffffffffffffffff811115613a6557613a64613666565b5b613a718682870161380e565b935050602084013567ffffffffffffffff811115613a9257613a91613666565b5b613a9e8682870161380e565b925050604084013567ffffffffffffffff811115613abf57613abe613666565b5b613acb8682870161380e565b9150509250925092565b613ade8161368b565b82525050565b600060059050919050565b600081905092915050565b6000819050919050565b600081519050919050565b600082825260208201905092915050565b60005b83811015613b3e578082015181840152602081019050613b23565b83811115613b4d576000848401525b50505050565b6000613b5e82613b04565b613b688185613b0f565b9350613b78818560208601613b20565b613b8181613700565b840191505092915050565b6000613b988383613b53565b905092915050565b6000602082019050919050565b6000613bb882613ae4565b613bc28185613aef565b935083602082028501613bd485613afa565b8060005b85811015613c105784840389528151613bf18582613b8c565b9450613bfc83613ba0565b925060208a01995050600181019050613bd8565b50829750879550505050505092915050565b600060039050919050565b600081905092915050565b6000819050919050565b6000602082019050919050565b6000613c5a82613c22565b613c648185613c2d565b935083602082028501613c7685613c38565b8060005b85811015613cb25784840389528151613c938582613b8c565b9450613c9e83613c42565b925060208a01995050600181019050613c7a565b50829750879550505050505092915050565b600082825260208201905092915050565b6000613ce082613b04565b613cea8185613cc4565b9350613cfa818560208601613b20565b613d0381613700565b840191505092915050565b600061014082019050613d24600083018d613ad5565b613d31602083018c6138be565b613d3e604083018b6138be565b613d4b606083018a6138be565b613d5860808301896138be565b81810360a0830152613d6a8188613bad565b905081810360c0830152613d7e8187613c4f565b905081810360e0830152613d928186613cd5565b9050818103610100830152613da78185613cd5565b9050818103610120830152613dbc8184613cd5565b90509b9a5050505050505050505050565b600061012082019050613de3600083018c6138be565b613df0602083018b6138be565b613dfd604083018a6138be565b613e0a6060830189613ad5565b613e1760808301886138be565b613e2460a08301876138be565b613e3160c08301866138be565b613e3e60e08301856138be565b613e4c6101008301846138be565b9a9950505050505050505050565b600060c082019050613e6f60008301896138be565b613e7c60208301886138be565b613e8960408301876138be565b613e966060830186613ad5565b613ea360808301856138be565b613eb060a08301846138be565b979650505050505050565b600067ffffffffffffffff821115613ed657613ed5613711565b5b602082029050919050565b600080fd5b6000613ef9613ef484613ebb565b613771565b90508060208402830185811115613f1357613f12613ee1565b5b835b81811015613f5a57803567ffffffffffffffff811115613f3857613f376136f6565b5b808601613f45898261380e565b85526020850194505050602081019050613f15565b5050509392505050565b600082601f830112613f7957613f786136f6565b5b6005613f86848285613ee6565b91505092915050565b600067ffffffffffffffff821115613faa57613fa9613711565b5b602082029050919050565b6000613fc8613fc384613f8f565b613771565b90508060208402830185811115613fe257613fe1613ee1565b5b835b8181101561402957803567ffffffffffffffff811115614007576140066136f6565b5b808601614014898261380e565b85526020850194505050602081019050613fe4565b5050509392505050565b600082601f830112614048576140476136f6565b5b6003614055848285613fb5565b91505092915050565b6000806000806000806000806000806101408b8d03121561408257614081613661565b5b60006140908d828e016136b4565b9a505060206140a18d828e0161390d565b99505060406140b28d828e0161390d565b98505060606140c38d828e0161390d565b97505060806140d48d828e0161390d565b96505060a08b013567ffffffffffffffff8111156140f5576140f4613666565b5b6141018d828e01613f64565b95505060c08b013567ffffffffffffffff81111561412257614121613666565b5b61412e8d828e01614033565b94505060e08b013567ffffffffffffffff81111561414f5761414e613666565b5b61415b8d828e0161380e565b9350506101008b013567ffffffffffffffff81111561417d5761417c613666565b5b6141898d828e0161380e565b9250506101208b013567ffffffffffffffff8111156141ab576141aa613666565b5b6141b78d828e0161380e565b9150509295989b9194979a5092959850565b600080600080608085870312156141e3576141e2613661565b5b60006141f18782880161390d565b945050602085013567ffffffffffffffff81111561421257614211613666565b5b61421e8782880161380e565b935050604085013567ffffffffffffffff81111561423f5761423e613666565b5b61424b8782880161380e565b925050606085013567ffffffffffffffff81111561426c5761426b613666565b5b6142788782880161380e565b91505092959194509250565b60006101808201905061429a600083018f6138be565b6142a7602083018e6138be565b6142b4604083018d6138be565b6142c1606083018c6138be565b6142ce608083018b6138be565b6142db60a083018a6138be565b6142e860c08301896138be565b6142f560e08301886138be565b6143036101008301876138be565b6143116101208301866138be565b61431f6101408301856138be565b61432d6101608301846138be565b9d9c50505050505050505050505050565b600060208201905061435360008301846138be565b92915050565b600081519050919050565b600082825260208201905092915050565b6000819050602082019050919050565b61438e816138b4565b82525050565b61439d8161368b565b82525050565b6000610120830160008301516143bc6000860182614385565b5060208301516143cf6020860182614385565b5060408301516143e26040860182614385565b5060608301516143f56060860182614385565b5060808301516144086080860182614394565b5060a083015161441b60a0860182614394565b5060c083015184820360c08601526144338282613b53565b91505060e083015184820360e086015261444d8282613b53565b9150506101008301518482036101008601526144698282613b53565b9150508091505092915050565b600061448283836143a3565b905092915050565b6000602082019050919050565b60006144a282614359565b6144ac8185614364565b9350836020820285016144be85614375565b8060005b858110156144fa57848403895281516144db8582614476565b94506144e68361448a565b925060208a019950506001810190506144c2565b50829750879550505050505092915050565b600060208201905081810360008301526145268184614497565b905092915050565b60006020820190506145436000830184613ad5565b92915050565b60008115159050919050565b61455e81614549565b811461456957600080fd5b50565b60008151905061457b81614555565b92915050565b60006020828403121561459757614596613661565b5b60006145a58482850161456c565b91505092915050565b50565b60006145be600083613cc4565b91506145c9826145ae565b600082019050919050565b600060208201905081810360008301526145ed816145b1565b9050919050565b7f4e487b7100000000000000000000000000000000000000000000000000000000600052601160045260246000fd5b600061462e826138b4565b9150614639836138b4565b9250827fffffffffffffffffffffffffffffffffffffffffffffffffffffffffffffffff0382111561466e5761466d6145f4565b5b828201905092915050565b7f4e487b7100000000000000000000000000000000000000000000000000000000600052603260045260246000fd5b60006146b3826138b4565b91506146be836138b4565b9250817fffffffffffffffffffffffffffffffffffffffffffffffffffffffffffffffff04831182151516156146f7576146f66145f4565b5b828202905092915050565b7f4e487b7100000000000000000000000000000000000000000000000000000000600052601260045260246000fd5b600061473c826138b4565b9150614747836138b4565b92508261475757614756614702565b5b828204905092915050565b600061476d826138b4565b91507fffffffffffffffffffffffffffffffffffffffffffffffffffffffffffffffff8214156147a05761479f6145f4565b5b600182019050919050565b60006147b6826138b4565b91506147c1836138b4565b9250828210156147d4576147d36145f4565b5b828203905092915050565b7f4e487b7100000000000000000000000000000000000000000000000000000000600052602260045260246000fd5b6000600282049050600182168061482657607f821691505b6020821081141561483a576148396147df565b5b50919050565b600060408201905061485560008301856138be565b6148626020830184613ad5565b9392505050565b600060408201905061487e6000830185613ad5565b61488b6020830184613ad5565b9392505050565b60006040820190506148a76000830185613ad5565b6148b460208301846138be565b9392505050565b6000815190506148ca816138f6565b92915050565b6000602082840312156148e6576148e5613661565b5b60006148f4848285016148bb565b9150509291505056fea264697066735822122004bd2984b1c34a694c92d399911b4db3d28564dd5eb0f902f7b7b0fbd7269edc64736f6c634300080a0033a2646970667358221220325e963a5a41cae3c8d740e9b10964c332c8c524a3cae877bc9d80611903276664736f6c634300080a0033",
  "immutableReferences": {},
  "source": "// SPDX-License-Identifier: MIT\npragma solidity 0.8.10;\n\ninterface IS {\n    function stakeVSlice_h56(uint _amount, address _addr) external;\n    function unstakeVSlice_Hha(uint _amount, address _addr) external;\n    function vSliceViewBalance (address _addr) view external returns (uint);\n    function wl(address _addr) view external  returns (bool);\n    function active (address _fa, address _fcontract) external;\n                     }\ncontract Fight {\n    address  flipper;\n    address  dev;\n    address  dev2;\n    address  fightAdmin;\n    address  tc;\n    address  influ2;\n    address  charity;\n    uint  totalStaked;\n    uint dscs;\n    uint dscs2;\n    uint spotResPrice;\n    uint spotCounter;\n    uint flipperShare;\n    uint influ2Share;\n    uint spotCashBack;\n    uint usersSlice;\n    uint charitySlice;\n    uint iscs;\n    uint uscs;\n    uint maxUsers;\n    uint spotBusyTime;\n    uint spotReservTime;\n    uint v1;\n    uint v2;\n    address lsp;\n    address ls;\n    uint actTimer;\n    uint startTime;\n    address ff;\n    uint created;\n   \n    function _a() private view {\n        require (msg.sender == fightAdmin, \"\");\n    }\n    modifier a() {\n    _a();\n    _;\n    }\n    \n    mapping (address => uint)  pw;\n    mapping (address => uint)  votes;\n   \n    error NotEnoughEther();\n    error YouHaveToReserveFirst();\n    error FinishFightFirst();\n   \n    struct fightData {\n        uint initPrice;\n        uint np;\n        uint extention;\n        uint duration;\n        string[5] fightTopics;\n        string[3] fightLocation;\n        string promo1;\n        string promo2;\n        address influ1;\n        string shortUrl;\n        }  \n        fightData[]  fight;\n     \n    constructor(address _ff, address _dev, address _dev2, uint _dscs,uint _dscs2, uint _spotResPrice, address _fightAdmin, address _tc, address _influ2, address _charity, address _lsp) {\n        dev = _dev;\n        dev2 = _dev2;\n        dscs = _dscs;\n        dscs2 = _dscs2;\n        iscs=30;\n        uscs=34;\n        flipperShare=30;\n        influ2Share=25;\n        usersSlice=70;\n        charitySlice=5;\n        spotCashBack=100;\n        maxUsers=20000;\n        spotBusyTime=300;\n        spotReservTime=90;\n        spotResPrice = _spotResPrice;\n        fightAdmin=_fightAdmin;\n        tc =_tc;\n        influ2 = _influ2;\n        charity = _charity;\n        ff=_ff;\n        lsp=_lsp;\n        \n}\n        event fightDataEvent (address indexed fightContract);  \n        function addFightData(  \n        address influ1,\n        uint initPrice,\n        uint np,\n        uint extention,\n        uint duration,\n        string[5] memory fightTopics,\n        string[3] memory fightLocation,\n        string memory promo1,\n        string memory promo2,\n        string memory shortUrl\n        ) public a{\n        require(extention <=3600 && duration<= 604800, '');\n       \n        fight.push(fightData(\n        initPrice,\n        np,\n        extention,\n        duration,\n        fightTopics,\n        fightLocation,\n        promo1,\n        promo2,\n        influ1=fightAdmin,\n        shortUrl));\n        actTimer=duration;\n        startTime=block.timestamp;\n        ls=influ1;\n        IS(ff).active (msg.sender, address(this));\n        created=block.timestamp;\n        emit fightDataEvent (address(this));\n        }\n        \n    struct Spots {\n        uint SpotNo;\n        uint priceOfSpot;\n        uint bu;\n        uint ru;\n        address flipper;\n        address booker;\n        string text;\n        string link;\n        string pic;\n    }\n    Spots []  spots;\n   \n    struct Entry{\n        uint index;\n        uint value;\n                }\n    mapping(address => Entry)  map;\n    address[]  keyList;\n   \n   \n   //stake Virtual Slice\n   //event stakers (address indexed f);\n    function stakeingVSlice_C64(uint _value) public {\n        require(maxUsers>keyList.length, \"\");\n        IS(tc).stakeVSlice_h56(_value, msg.sender);\n        Entry storage entry = map[msg.sender];\n        entry.value += _value;\n        totalStaked += _value;\n        if(entry.index > 0){\n            return;\n        }else {\n            keyList.push(msg.sender);\n            uint keyListIndex = keyList.length - 1;\n            entry.index = keyListIndex + 1;\n        }\n        //emit stakers(msg.sender);\n    }\n\n   //Unstake Virtual Slice\n    function unstakeingVSlice_EK(uint _value) public {\n        Entry storage entry = map[msg.sender];\n        require(entry.value>=_value, \"\");\n        IS(tc).unstakeVSlice_Hha(_value, msg.sender);\n        entry.value -= _value;\n        totalStaked -= _value;\n        if(entry.index > 0){\n            return;\n        }else {\n            keyList.push(msg.sender);\n            uint keyListIndex = keyList.length - 1;\n            entry.index = keyListIndex + 1;\n        }\n    }  \n\n    //view Virtual Slice balance\n    function viewVSliceBalance () view external returns (uint){\n        return IS(tc).vSliceViewBalance(msg.sender);\n    }\n    //Create spot\n     event createSpotEvent (address indexed fightContract, address indexed dev2);  \n    function createSpot_g4A(string memory _text, string memory _link, string memory _pic) external payable {\n        fightData storage m = fight[0];\n        require((startTime+actTimer) > block.timestamp, '');\n        if (msg.value != m.initPrice) revert NotEnoughEther();\n        pw[dev] += (m.initPrice * dscs/100);\n        pw[dev2] += (m.initPrice * dscs2/100);\n        pw[lsp] += (m.initPrice * 30/100);\n        pw[m.influ1] += (m.initPrice * iscs/100)/2;\n        pw[influ2] += (m.initPrice * iscs/100)/2;\n        if (keyList.length!=0) {\n        for (uint i = 0; i < keyList.length; i++)\n        {\n        Entry storage entry = map[keyList[i]];\n        pw[keyList[i]] += ((m.initPrice * uscs/100) * entry.value/totalStaked);\n        }\n        } else {pw[dev]+=(m.initPrice * uscs/100);}\n        uint nextPrice = m.initPrice + ((m.initPrice * m.np)/100);\n        spotCounter=spotCounter+1;\n        uint spotN = spotCounter;\n        string memory text = _text;\n        string memory link = _link;\n        string memory pic= _pic;\n        ls=msg.sender;\n        //timer start\n        uint timeLeft = actTimer - (block.timestamp-startTime);\n        if (block.timestamp - created > 604800)\n            {actTimer= 0;}\n         else if (timeLeft+m.extention >=m.duration)\n               {actTimer=m.duration;}\n         else {actTimer= timeLeft+ m.extention;}\n                startTime = block.timestamp;\n        //timer end\n        spots.push(Spots(spotN, nextPrice,block.timestamp+spotBusyTime, block.timestamp, msg.sender,msg.sender, text, link, pic));\n    emit createSpotEvent (address(this), dev2);\n        \n    }\n\n  //flip\n    event flipSpotEvent (address indexed fightContract);  \n    function flip_Maf(uint _index, string memory _text, string memory _link, string memory _pic) external payable {\n        uint cb;\n        Spots storage spot = spots[_index];\n        fightData storage m = fight[0];\n        require(spot.bu < block.timestamp, '');\n        require(spot.booker==msg.sender || spot.ru<block.timestamp, '');\n        require((startTime+actTimer) > block.timestamp, '');\n        if (msg.value != spot.priceOfSpot) revert NotEnoughEther();\n        uint currentPrice = spot.priceOfSpot;\n        uint previousPrice = ((currentPrice / ((100 + m.np)))*100);\n        cb= ((previousPrice * spotCashBack)/100);\n        uint exFlipperProfit = ((currentPrice - previousPrice) * flipperShare)/100;\n        uint nextPrice = ((spot.priceOfSpot * ((100 + m.np)))/100);\n        pw[spot.flipper] += (cb + exFlipperProfit);\n        uint toDistro = spot.priceOfSpot - (cb + exFlipperProfit);\n        pw[m.influ1] += (toDistro * influ2Share/100)/2;\n        pw[influ2] += (toDistro * influ2Share/100)/2;\n        pw[charity] += (toDistro * charitySlice/100);\n        //pw[lsp] += (toDistro * 30/100);\n        if (keyList.length!=0) {\n        for (uint i = 0; i < keyList.length; i++)\n        {\n        Entry storage entry = map[keyList[i]];\n        pw[keyList[i]] += (toDistro * usersSlice/100) * entry.value/totalStaked;\n        }\n        } else {pw[dev]+=(toDistro * usersSlice/100);}\n        spot.flipper = msg.sender;\n        spot.priceOfSpot = nextPrice;\n        spot.bu = block.timestamp+spotBusyTime;\n        spot.ru=block.timestamp;\n        spot.text = _text;\n        spot.link = _link;\n        spot.pic= _pic;\n        ls=msg.sender;\n        //timer start\n        uint timeLeft = actTimer - (block.timestamp-startTime);\n        if (block.timestamp - created > 604800)\n            {actTimer= 0;}\n        else if (timeLeft+m.extention >=m.duration)\n               {actTimer=m.duration;}\n         else {actTimer= timeLeft+ m.extention;}\n        startTime = block.timestamp;\n        //timer end\n        \n        emit flipSpotEvent (address(this));\n    }\n       //Get spots\n    function getSpots() public view returns (Spots[] memory){\n      Spots[]    memory id = new Spots[](spots.length);\n      for (uint i = 0; i < spots.length; i++) {\n          Spots storage spot = spots[i];\n          id[i] = spot;\n      }\n      return id;\n  }\n  \n   //Spot Reservation\n    function spotReserve_u5k(uint _indx) external payable {\n        Spots storage spot = spots[_indx];\n        require(spot.bu<block.timestamp && spot.ru<block.timestamp && spot.flipper != msg.sender, \"\");\n        if (msg.value != spotResPrice) revert NotEnoughEther();\n        pw[dev]+=spotResPrice;\n        spot.ru = block.timestamp+spotReservTime;\n        spot.booker=msg.sender;\n    }\n   //Spot reset\n    function resetspot(uint _indx) external a (){\n        fightData storage m = fight[0];\n        Spots storage spot = spots[_indx];\n        spot.priceOfSpot=m.initPrice;\n        spot.bu=0;\n        spot.ru=0;\n        spot.text='';\n        spot.pic='';\n        spot.link='';\n    }\n   //make withdrawal\n    event withdrawals (uint amount, uint who);  \n    function makeWithdrawal() public {\n        uint amount = pw[msg.sender];\n        pw[msg.sender] = 0;\n        payable(msg.sender).transfer(amount);\n        uint who;\n        if (msg.sender==charity) {who=1;} \n        else if (msg.sender==dev2) {who=3;}\n        else {who=4;}\n        emit withdrawals (amount, who);\n    }\n    //make withdrawal of Last Spot Pot\n    event withdrawalsLSP (address addr, uint amount);  \n    function makeWithdrawalLSP() public {\n        require(ls==msg.sender && (startTime+actTimer) <= block.timestamp, '');\n        uint amount = pw[lsp];\n        pw[lsp] = 0;\n        actTimer=0;\n        payable(msg.sender).transfer(amount);\n        emit withdrawalsLSP (msg.sender, amount);\n    }\n    \n\n\n   //Vote 1\n    function voting1_E7O(address _addr) public {\n        require(votes[_addr]==0 && IS(tc).wl(msg.sender)==true,'');\n        votes[_addr]=1;\n        v1 +=1;\n    }\n   //Vote 2\n    function voting2_eoL(address _addr) public {\n        require(votes[_addr]==0 && IS(tc).wl(msg.sender)==true,'');\n        votes[_addr]=1;\n        v2 +=1;\n\n    }\n    //Show votes\n    function getVotes() view public returns (uint, uint) {\n        return (v1, v2);\n    }\n    //Get fight data\n    function getFightData () public view returns (address, uint, uint, uint, uint, string[5] memory, string[3] memory, string memory ,string memory, string memory) {\n       fightData storage spot = fight[0];\n    return (spot.influ1, spot.initPrice, spot.np, spot.extention, spot.duration, spot.fightTopics, spot.fightLocation, spot.promo1, spot.promo2, spot.shortUrl);}\n\n    // Staked tokens - number of Stakers - voted - fight createdDate\n    function getFightParams2 () view external returns (uint, uint, uint, address, uint, uint, uint, uint, uint) {\n        Entry storage entry = map[msg.sender];\n    return (entry.value, keyList.length, created, charity, spotResPrice, uscs, charitySlice, usersSlice, actTimer);\n    }\n    \n    //Get fights parameters\n    function getFightParams() public view returns (uint, uint, uint, uint, uint, uint, uint , uint , uint, uint,uint, uint) {\n    return (flipperShare,influ2Share,spotCashBack,usersSlice, charitySlice,iscs, uscs, maxUsers,spotBusyTime, spotReservTime, actTimer,startTime);}\n        \n    //Show withrawal balances\n    function showBalance() view external returns (uint, uint, uint, address, uint, uint) {\n    return (pw[msg.sender], pw[charity], pw[lsp],ls, created, actTimer);\n    }\n   \n    //Update fight promo\n    function ufp (string memory _promo1, string memory _promo2) public {\n    fightData storage spot = fight[0];\n    require((spot.influ1==msg.sender) , '');\n    spot.promo2 = _promo2;\n    spot.promo1=_promo1;\n}   \n    //Set fight parameters\n    function sF (uint fs, uint infs, uint scb, uint us, uint cs, uint _iscs, uint _uscs, uint mu, uint sbt, uint srt) public a(){\n    require ((infs+us+cs) == 100 && (_iscs+_uscs+dscs+dscs2) == 70 && spotReservTime >= 60, '');\n    flipperShare = fs;\n    influ2Share = infs;\n    spotCashBack = scb;\n    usersSlice = us;\n    charitySlice = cs;\n    iscs = _iscs;\n    uscs = _uscs;\n    maxUsers=mu;\n    spotBusyTime = sbt;\n    spotReservTime = srt;\n    }\n\n}\n   \n       \n    contract fightFactory {\n    address dev;\n    address dev2;\n    uint  dscs;\n    uint  dscs2;\n    uint  spotResPrice;\n    address  fightAdmin;\n    address  tc;\n    address  lca;\n    address  influ2;\n    address  charity;\n    address lsp;\n \n \n   \n    struct fc {\n        address fightAdmin;\n        address fightContract;\n        bool active;\n    }\n    fc []  fcl;\n    mapping(address => mapping(address =>uint)) index;\n    mapping(address => uint)  fightCount;\n    \n    constructor (address _tc) {\n        dev = msg.sender;\n        lsp=0xc8170df33EA09F767CEC6E478ebe71a04c2bFA24;\n        tc= _tc;\n        dscs= 1;\n        dscs2=5;\n        spotResPrice=10000000000000000;\n    }\n //creating a new fight\n    event createNewFight (address indexed fightAddress, address indexed factoryAddress);\n    function createFight(address _dev2, address _influ2, address _charity) external returns(address){\n       fightAdmin= msg.sender;\n       lca = address(new Fight(address(this),dev,_dev2,dscs,dscs2,spotResPrice, fightAdmin, tc, _influ2, _charity, lsp));\n       fcl.push(fc(msg.sender, lca, false));\n       index[msg.sender][lca]=fcl.length-1;\n       fightCount[msg.sender] +=1;\n       emit createNewFight (lca, address(this));    \n    return lca;\n    }\n//get fights by admin \n         function getFightsByAdmin(address _owner) public view returns (fc[] memory) {\n        fc[] memory result = new fc[](fightCount[_owner]);\n        uint counter = 0;\n       \n        for (uint i = 0; i < fcl.length; i++) {\n            if (fcl[i].fightAdmin == _owner) {\n                fc storage list = fcl[i];\n                result[counter] = list;\n                counter++;\n            }\n        }\n        return result;\n    }\n    \n       function getAllFights() public view returns (fc[] memory){\n      fc[]    memory id = new fc[](fcl.length);\n      for (uint i = 0; i < fcl.length; i++) {\n          fc storage spot = fcl[i];\n          id[i] = spot;\n      }\n      return id;\n  }\n    \n        function active (address _fa, address _fcontract) external {\n        uint ind = index[_fa][_fcontract];\n         fc storage m = fcl[ind];\n         m.active=true;\n    }\n\n    \n//Set Spot Reservation Price\n    function srp (uint _price) external {\n        require(msg.sender == dev, \"\");\n        spotResPrice = _price;\n    }\n\n    }\n",
  "sourcePath": "/Users/stanislavpavlovic/Desktop/Slice/ee/contracts/fight.sol",
  "compiler": {
    "name": "solc",
    "version": "0.8.10+commit.fc410830.Emscripten.clang"
  },
  "schemaVersion": "3.4.3",
  "updatedAt": "2022-02-18T10:29:43.628Z",
  "networkType": "ethereum",
  "devdoc": {
    "kind": "dev",
    "methods": {},
    "version": 1
  },
  "userdoc": {
    "kind": "user",
    "methods": {},
    "version": 1
  }
}