{
  "contractName": "Fight",
  "abi": [
    {
      "inputs": [
        {
          "internalType": "address",
          "name": "_ff",
          "type": "address"
        },
        {
          "internalType": "address",
          "name": "_dev",
          "type": "address"
        },
        {
          "internalType": "address",
          "name": "_dev2",
          "type": "address"
        },
        {
          "internalType": "uint256",
          "name": "_dscs",
          "type": "uint256"
        },
        {
          "internalType": "uint256",
          "name": "_dscs2",
          "type": "uint256"
        },
        {
          "internalType": "uint256",
          "name": "_spotResPrice",
          "type": "uint256"
        },
        {
          "internalType": "address",
          "name": "_fightAdmin",
          "type": "address"
        },
        {
          "internalType": "address",
          "name": "_tc",
          "type": "address"
        },
        {
          "internalType": "address",
          "name": "_influ2",
          "type": "address"
        },
        {
          "internalType": "address",
          "name": "_charity",
          "type": "address"
        },
        {
          "internalType": "address",
          "name": "_lsp",
          "type": "address"
        }
      ],
      "stateMutability": "nonpayable",
      "type": "constructor"
    },
    {
      "inputs": [],
      "name": "FinishFightFirst",
      "type": "error"
    },
    {
      "inputs": [],
      "name": "NotEnoughEther",
      "type": "error"
    },
    {
      "inputs": [],
      "name": "YouHaveToReserveFirst",
      "type": "error"
    },
    {
      "anonymous": false,
      "inputs": [
        {
          "indexed": true,
          "internalType": "address",
          "name": "fightContract",
          "type": "address"
        },
        {
          "indexed": true,
          "internalType": "address",
          "name": "dev2",
          "type": "address"
        }
      ],
      "name": "createSpotEvent",
      "type": "event"
    },
    {
      "anonymous": false,
      "inputs": [
        {
          "indexed": true,
          "internalType": "address",
          "name": "fightContract",
          "type": "address"
        }
      ],
      "name": "fightDataEvent",
      "type": "event"
    },
    {
      "anonymous": false,
      "inputs": [
        {
          "indexed": true,
          "internalType": "address",
          "name": "fightContract",
          "type": "address"
        }
      ],
      "name": "flipSpotEvent",
      "type": "event"
    },
    {
      "anonymous": false,
      "inputs": [
        {
          "indexed": true,
          "internalType": "address",
          "name": "fightContract",
          "type": "address"
        }
      ],
      "name": "spotR",
      "type": "event"
    },
    {
      "anonymous": false,
      "inputs": [
        {
          "indexed": false,
          "internalType": "uint256",
          "name": "amount",
          "type": "uint256"
        },
        {
          "indexed": false,
          "internalType": "uint256",
          "name": "who",
          "type": "uint256"
        }
      ],
      "name": "withdrawals",
      "type": "event"
    },
    {
      "anonymous": false,
      "inputs": [
        {
          "indexed": false,
          "internalType": "uint256",
          "name": "amount",
          "type": "uint256"
        }
      ],
      "name": "withdrawalsLSP",
      "type": "event"
    },
    {
      "inputs": [
        {
          "internalType": "address",
          "name": "influ1",
          "type": "address"
        },
        {
          "internalType": "uint256",
          "name": "initPrice",
          "type": "uint256"
        },
        {
          "internalType": "uint256",
          "name": "np",
          "type": "uint256"
        },
        {
          "internalType": "uint256",
          "name": "extention",
          "type": "uint256"
        },
        {
          "internalType": "uint256",
          "name": "duration",
          "type": "uint256"
        },
        {
          "internalType": "string[5]",
          "name": "fightTopics",
          "type": "string[5]"
        },
        {
          "internalType": "string[3]",
          "name": "fightLocation",
          "type": "string[3]"
        },
        {
          "internalType": "string",
          "name": "promo1",
          "type": "string"
        },
        {
          "internalType": "string",
          "name": "promo2",
          "type": "string"
        },
        {
          "internalType": "string",
          "name": "shortUrl",
          "type": "string"
        }
      ],
      "name": "addFightData",
      "outputs": [],
      "stateMutability": "nonpayable",
      "type": "function"
    },
    {
      "inputs": [
        {
          "internalType": "uint256",
          "name": "_value",
          "type": "uint256"
        }
      ],
      "name": "stakeingVSlice_C64",
      "outputs": [],
      "stateMutability": "nonpayable",
      "type": "function"
    },
    {
      "inputs": [
        {
          "internalType": "uint256",
          "name": "_value",
          "type": "uint256"
        }
      ],
      "name": "unstakeingVSlice_EK",
      "outputs": [],
      "stateMutability": "nonpayable",
      "type": "function"
    },
    {
      "inputs": [],
      "name": "viewVSliceBalance",
      "outputs": [
        {
          "internalType": "uint256",
          "name": "",
          "type": "uint256"
        }
      ],
      "stateMutability": "view",
      "type": "function"
    },
    {
      "inputs": [
        {
          "internalType": "string",
          "name": "_text",
          "type": "string"
        },
        {
          "internalType": "string",
          "name": "_link",
          "type": "string"
        },
        {
          "internalType": "string",
          "name": "_pic",
          "type": "string"
        }
      ],
      "name": "createSpot_g4A",
      "outputs": [],
      "stateMutability": "payable",
      "type": "function"
    },
    {
      "inputs": [
        {
          "internalType": "uint256",
          "name": "_index",
          "type": "uint256"
        },
        {
          "internalType": "string",
          "name": "_text",
          "type": "string"
        },
        {
          "internalType": "string",
          "name": "_link",
          "type": "string"
        },
        {
          "internalType": "string",
          "name": "_pic",
          "type": "string"
        }
      ],
      "name": "flip_Maf",
      "outputs": [],
      "stateMutability": "payable",
      "type": "function"
    },
    {
      "inputs": [],
      "name": "getSpots",
      "outputs": [
        {
          "components": [
            {
              "internalType": "uint256",
              "name": "SpotNo",
              "type": "uint256"
            },
            {
              "internalType": "uint256",
              "name": "priceOfSpot",
              "type": "uint256"
            },
            {
              "internalType": "uint256",
              "name": "bu",
              "type": "uint256"
            },
            {
              "internalType": "uint256",
              "name": "ru",
              "type": "uint256"
            },
            {
              "internalType": "address",
              "name": "flipper",
              "type": "address"
            },
            {
              "internalType": "address",
              "name": "booker",
              "type": "address"
            },
            {
              "internalType": "string",
              "name": "text",
              "type": "string"
            },
            {
              "internalType": "string",
              "name": "link",
              "type": "string"
            },
            {
              "internalType": "string",
              "name": "pic",
              "type": "string"
            }
          ],
          "internalType": "struct Fight.Spots[]",
          "name": "",
          "type": "tuple[]"
        }
      ],
      "stateMutability": "view",
      "type": "function"
    },
    {
      "inputs": [
        {
          "internalType": "uint256",
          "name": "_indx",
          "type": "uint256"
        }
      ],
      "name": "spotReserve_u5k",
      "outputs": [],
      "stateMutability": "payable",
      "type": "function"
    },
    {
      "inputs": [
        {
          "internalType": "uint256",
          "name": "_indx",
          "type": "uint256"
        }
      ],
      "name": "resetspot",
      "outputs": [],
      "stateMutability": "nonpayable",
      "type": "function"
    },
    {
      "inputs": [],
      "name": "makeWithdrawal",
      "outputs": [],
      "stateMutability": "nonpayable",
      "type": "function"
    },
    {
      "inputs": [],
      "name": "makeWithdrawalLSP",
      "outputs": [],
      "stateMutability": "nonpayable",
      "type": "function"
    },
    {
      "inputs": [],
      "name": "showBalance",
      "outputs": [
        {
          "internalType": "uint256",
          "name": "",
          "type": "uint256"
        },
        {
          "internalType": "uint256",
          "name": "",
          "type": "uint256"
        }
      ],
      "stateMutability": "view",
      "type": "function"
    },
    {
      "inputs": [],
      "name": "showLastSpotPot",
      "outputs": [
        {
          "internalType": "uint256",
          "name": "",
          "type": "uint256"
        },
        {
          "internalType": "address",
          "name": "",
          "type": "address"
        }
      ],
      "stateMutability": "view",
      "type": "function"
    },
    {
      "inputs": [
        {
          "internalType": "address",
          "name": "_addr",
          "type": "address"
        }
      ],
      "name": "voting1_E7O",
      "outputs": [],
      "stateMutability": "nonpayable",
      "type": "function"
    },
    {
      "inputs": [
        {
          "internalType": "address",
          "name": "_addr",
          "type": "address"
        }
      ],
      "name": "voting2_eoL",
      "outputs": [],
      "stateMutability": "nonpayable",
      "type": "function"
    },
    {
      "inputs": [],
      "name": "getVotes",
      "outputs": [
        {
          "internalType": "uint256",
          "name": "",
          "type": "uint256"
        },
        {
          "internalType": "uint256",
          "name": "",
          "type": "uint256"
        }
      ],
      "stateMutability": "view",
      "type": "function"
    },
    {
      "inputs": [],
      "name": "getFightData",
      "outputs": [
        {
          "internalType": "address",
          "name": "",
          "type": "address"
        },
        {
          "internalType": "uint256",
          "name": "",
          "type": "uint256"
        },
        {
          "internalType": "uint256",
          "name": "",
          "type": "uint256"
        },
        {
          "internalType": "uint256",
          "name": "",
          "type": "uint256"
        },
        {
          "internalType": "uint256",
          "name": "",
          "type": "uint256"
        },
        {
          "internalType": "string[5]",
          "name": "",
          "type": "string[5]"
        },
        {
          "internalType": "string[3]",
          "name": "",
          "type": "string[3]"
        },
        {
          "internalType": "string",
          "name": "",
          "type": "string"
        },
        {
          "internalType": "string",
          "name": "",
          "type": "string"
        },
        {
          "internalType": "string",
          "name": "",
          "type": "string"
        }
      ],
      "stateMutability": "view",
      "type": "function"
    },
    {
      "inputs": [],
      "name": "getFightParams2",
      "outputs": [
        {
          "internalType": "uint256",
          "name": "",
          "type": "uint256"
        },
        {
          "internalType": "uint256",
          "name": "",
          "type": "uint256"
        },
        {
          "internalType": "uint256",
          "name": "",
          "type": "uint256"
        },
        {
          "internalType": "address",
          "name": "",
          "type": "address"
        },
        {
          "internalType": "uint256",
          "name": "",
          "type": "uint256"
        }
      ],
      "stateMutability": "view",
      "type": "function"
    },
    {
      "inputs": [],
      "name": "getFightParams",
      "outputs": [
        {
          "internalType": "uint256",
          "name": "",
          "type": "uint256"
        },
        {
          "internalType": "uint256",
          "name": "",
          "type": "uint256"
        },
        {
          "internalType": "uint256",
          "name": "",
          "type": "uint256"
        },
        {
          "internalType": "uint256",
          "name": "",
          "type": "uint256"
        },
        {
          "internalType": "uint256",
          "name": "",
          "type": "uint256"
        },
        {
          "internalType": "uint256",
          "name": "",
          "type": "uint256"
        },
        {
          "internalType": "uint256",
          "name": "",
          "type": "uint256"
        },
        {
          "internalType": "uint256",
          "name": "",
          "type": "uint256"
        },
        {
          "internalType": "uint256",
          "name": "",
          "type": "uint256"
        },
        {
          "internalType": "uint256",
          "name": "",
          "type": "uint256"
        },
        {
          "internalType": "uint256",
          "name": "",
          "type": "uint256"
        },
        {
          "internalType": "uint256",
          "name": "",
          "type": "uint256"
        }
      ],
      "stateMutability": "view",
      "type": "function"
    },
    {
      "inputs": [
        {
          "internalType": "string",
          "name": "_promo1",
          "type": "string"
        },
        {
          "internalType": "string",
          "name": "_promo2",
          "type": "string"
        }
      ],
      "name": "ufp",
      "outputs": [],
      "stateMutability": "nonpayable",
      "type": "function"
    },
    {
      "inputs": [
        {
          "internalType": "uint256",
          "name": "fs",
          "type": "uint256"
        },
        {
          "internalType": "uint256",
          "name": "infs",
          "type": "uint256"
        },
        {
          "internalType": "uint256",
          "name": "scb",
          "type": "uint256"
        },
        {
          "internalType": "uint256",
          "name": "us",
          "type": "uint256"
        },
        {
          "internalType": "uint256",
          "name": "cs",
          "type": "uint256"
        },
        {
          "internalType": "uint256",
          "name": "_iscs",
          "type": "uint256"
        },
        {
          "internalType": "uint256",
          "name": "_uscs",
          "type": "uint256"
        },
        {
          "internalType": "uint256",
          "name": "mu",
          "type": "uint256"
        },
        {
          "internalType": "uint256",
          "name": "sbt",
          "type": "uint256"
        },
        {
          "internalType": "uint256",
          "name": "srt",
          "type": "uint256"
        }
      ],
      "name": "sF",
      "outputs": [],
      "stateMutability": "nonpayable",
      "type": "function"
    }
  ],
  "bytecode": "0x60806040523480156200001157600080fd5b5060405162004e3f38038062004e3f83398181016040528101906200003791906200035b565b89600160006101000a81548173ffffffffffffffffffffffffffffffffffffffff021916908373ffffffffffffffffffffffffffffffffffffffff16021790555088600260006101000a81548173ffffffffffffffffffffffffffffffffffffffff021916908373ffffffffffffffffffffffffffffffffffffffff1602179055508760088190555086600981905550601e6011819055506022601281905550601e600c819055506019600d819055506028600f8190555060056010819055506064600e81905550614e206013819055506078601481905550603c60158190555085600a8190555084600360006101000a81548173ffffffffffffffffffffffffffffffffffffffff021916908373ffffffffffffffffffffffffffffffffffffffff16021790555083600460006101000a81548173ffffffffffffffffffffffffffffffffffffffff021916908373ffffffffffffffffffffffffffffffffffffffff16021790555082600560006101000a81548173ffffffffffffffffffffffffffffffffffffffff021916908373ffffffffffffffffffffffffffffffffffffffff16021790555081600660006101000a81548173ffffffffffffffffffffffffffffffffffffffff021916908373ffffffffffffffffffffffffffffffffffffffff1602179055508a601c60006101000a81548173ffffffffffffffffffffffffffffffffffffffff021916908373ffffffffffffffffffffffffffffffffffffffff16021790555080601860006101000a81548173ffffffffffffffffffffffffffffffffffffffff021916908373ffffffffffffffffffffffffffffffffffffffff160217905550505050505050505050505062000468565b600080fd5b600073ffffffffffffffffffffffffffffffffffffffff82169050919050565b6000620002e882620002bb565b9050919050565b620002fa81620002db565b81146200030657600080fd5b50565b6000815190506200031a81620002ef565b92915050565b6000819050919050565b620003358162000320565b81146200034157600080fd5b50565b60008151905062000355816200032a565b92915050565b60008060008060008060008060008060006101608c8e031215620003845762000383620002b6565b5b6000620003948e828f0162000309565b9b50506020620003a78e828f0162000309565b9a50506040620003ba8e828f0162000309565b9950506060620003cd8e828f0162000344565b9850506080620003e08e828f0162000344565b97505060a0620003f38e828f0162000344565b96505060c0620004068e828f0162000309565b95505060e0620004198e828f0162000309565b9450506101006200042d8e828f0162000309565b935050610120620004418e828f0162000309565b925050610140620004558e828f0162000309565b9150509295989b509295989b9093969950565b6149c780620004786000396000f3fe6080604052600436106101265760003560e01c80636e4f43e6116100ab578063cb375a801161006f578063cb375a801461037b578063e51c484e14610397578063e7ac9ab4146103c0578063e8c90e88146103dc578063f952112914610412578063fa9375711461043d57610126565b80636e4f43e6146102ba5780637c0ce7ad146102e657806381b2d07b1461030f578063a0ff26bb1461033b578063a5d7c82f1461036457610126565b806344d16475116100f257806344d16475146101e957806347f9ba5e146102125780634e3975af1461023b578063503cfdb7146102575780635eebe2581461028b57610126565b8061825e1461012b578061ecc8146101545780630126fe5e1461017d5780630dc96015146101a65780633951b4c9146101d2575b600080fd5b34801561013757600080fd5b50610152600480360381019061014d9190613821565b610468565b005b34801561016057600080fd5b5061017b60048036038101906101769190613821565b6105f7565b005b34801561018957600080fd5b506101a4600480360381019061019f9190613994565b610786565b005b3480156101b257600080fd5b506101bb610876565b6040516101c9929190613a25565b60405180910390f35b3480156101de57600080fd5b506101e7610887565b005b3480156101f557600080fd5b50610210600480360381019061020b9190613a7a565b610adc565b005b34801561021e57600080fd5b5061023960048036038101906102349190613b59565b610bce565b005b61025560048036038101906102509190613b86565b610cc1565b005b34801561026357600080fd5b5061026c6115fb565b6040516102829a99989796959493929190613e66565b60405180910390f35b34801561029757600080fd5b506102a06119d3565b6040516102b1959493929190613f25565b60405180910390f35b3480156102c657600080fd5b506102cf611a63565b6040516102dd929190613f78565b60405180910390f35b3480156102f257600080fd5b5061030d60048036038101906103089190613b59565b611af3565b005b34801561031b57600080fd5b50610324611ce9565b604051610332929190613a25565b60405180910390f35b34801561034757600080fd5b50610362600480360381019061035d9190614144565b611d96565b005b34801561037057600080fd5b506103796120cc565b005b610395600480360381019061039091906142af565b6122cd565b005b3480156103a357600080fd5b506103be60048036038101906103b99190613b59565b612c25565b005b6103da60048036038101906103d59190613b59565b612e19565b005b3480156103e857600080fd5b506103f1613045565b6040516104099c9b9a9998979695949392919061436a565b60405180910390f35b34801561041e57600080fd5b506104276130a1565b6040516104349190614424565b60405180910390f35b34801561044957600080fd5b50610452613144565b60405161045f91906145f2565b60405180910390f35b6000601f60008373ffffffffffffffffffffffffffffffffffffffff1673ffffffffffffffffffffffffffffffffffffffff16815260200190815260200160002054148015610556575060011515600460009054906101000a900473ffffffffffffffffffffffffffffffffffffffff1673ffffffffffffffffffffffffffffffffffffffff16632fee9e7e336040518263ffffffff1660e01b81526004016105119190614614565b602060405180830381865afa15801561052e573d6000803e3d6000fd5b505050506040513d601f19601f820116820180604052508101906105529190614667565b1515145b610595576040517f08c379a000000000000000000000000000000000000000000000000000000000815260040161058c906146ba565b60405180910390fd5b6001601f60008373ffffffffffffffffffffffffffffffffffffffff1673ffffffffffffffffffffffffffffffffffffffff168152602001908152602001600020819055506001601660008282546105ed9190614709565b9250508190555050565b6000601f60008373ffffffffffffffffffffffffffffffffffffffff1673ffffffffffffffffffffffffffffffffffffffff168152602001908152602001600020541480156106e5575060011515600460009054906101000a900473ffffffffffffffffffffffffffffffffffffffff1673ffffffffffffffffffffffffffffffffffffffff16632fee9e7e336040518263ffffffff1660e01b81526004016106a09190614614565b602060405180830381865afa1580156106bd573d6000803e3d6000fd5b505050506040513d601f19601f820116820180604052508101906106e19190614667565b1515145b610724576040517f08c379a000000000000000000000000000000000000000000000000000000000815260040161071b906146ba565b60405180910390fd5b6001601f60008373ffffffffffffffffffffffffffffffffffffffff1673ffffffffffffffffffffffffffffffffffffffff1681526020019081526020016000208190555060016017600082825461077c9190614709565b9250508190555050565b6000602060008154811061079d5761079c61475f565b5b906000526020600020906010020190503373ffffffffffffffffffffffffffffffffffffffff1681600e0160009054906101000a900473ffffffffffffffffffffffffffffffffffffffff1673ffffffffffffffffffffffffffffffffffffffff161461083f576040517f08c379a0000000000000000000000000000000000000000000000000000000008152600401610836906146ba565b60405180910390fd5b8181600d01908051906020019061085792919061353c565b508281600c01908051906020019061087092919061353c565b50505050565b600080601654601754915091509091565b6000602060008154811061089e5761089d61475f565b5b906000526020600020906010020190506000601e60003373ffffffffffffffffffffffffffffffffffffffff1673ffffffffffffffffffffffffffffffffffffffff1681526020019081526020016000205490506000601e60003373ffffffffffffffffffffffffffffffffffffffff1673ffffffffffffffffffffffffffffffffffffffff168152602001908152602001600020819055503373ffffffffffffffffffffffffffffffffffffffff166108fc829081150290604051600060405180830381858888f1935050505015801561097d573d6000803e3d6000fd5b506000600660009054906101000a900473ffffffffffffffffffffffffffffffffffffffff1673ffffffffffffffffffffffffffffffffffffffff163373ffffffffffffffffffffffffffffffffffffffff1614156109df5760019050610a9e565b82600e0160009054906101000a900473ffffffffffffffffffffffffffffffffffffffff1673ffffffffffffffffffffffffffffffffffffffff163373ffffffffffffffffffffffffffffffffffffffff161480610a8a5750600560009054906101000a900473ffffffffffffffffffffffffffffffffffffffff1673ffffffffffffffffffffffffffffffffffffffff163373ffffffffffffffffffffffffffffffffffffffff16145b15610a985760029050610a9d565b600490505b5b7f7c1d4e62152e35c067e67c3cdcdc0949bbab739d7f67d5a13586d7e04da8020a8282604051610acf929190613a25565b60405180910390a1505050565b610ae46134aa565b604686888b610af39190614709565b610afd9190614709565b148015610b2f575060466009546008548688610b199190614709565b610b239190614709565b610b2d9190614709565b145b8015610b3d5750605a601554115b610b7c576040517f08c379a0000000000000000000000000000000000000000000000000000000008152600401610b73906146ba565b60405180910390fd5b89600c8190555088600d8190555087600e8190555086600f8190555085601081905550846011819055508360128190555082601381905550816014819055508060158190555050505050505050505050565b610bd66134aa565b60006020600081548110610bed57610bec61475f565b5b90600052602060002090601002019050600060218381548110610c1357610c1261475f565b5b9060005260206000209060090201905081600001548160010181905550600081600201819055506000816003018190555060405180602001604052806000815250816006019080519060200190610c6b92919061353c565b5060405180602001604052806000815250816008019080519060200190610c9392919061353c565b5060405180602001604052806000815250816007019080519060200190610cbb92919061353c565b50505050565b60006020600081548110610cd857610cd761475f565b5b9060005260206000209060100201905042601a54601b54610cf99190614709565b11610d39576040517f08c379a0000000000000000000000000000000000000000000000000000000008152600401610d30906146ba565b60405180910390fd5b80600001543414610d76576040517f8a0d377900000000000000000000000000000000000000000000000000000000815260040160405180910390fd5b60646008548260000154610d8a919061478e565b610d949190614817565b601e6000600160009054906101000a900473ffffffffffffffffffffffffffffffffffffffff1673ffffffffffffffffffffffffffffffffffffffff1673ffffffffffffffffffffffffffffffffffffffff1681526020019081526020016000206000828254610e049190614709565b9250508190555060646009548260000154610e1f919061478e565b610e299190614817565b601e6000600260009054906101000a900473ffffffffffffffffffffffffffffffffffffffff1673ffffffffffffffffffffffffffffffffffffffff1673ffffffffffffffffffffffffffffffffffffffff1681526020019081526020016000206000828254610e999190614709565b925050819055506064601e8260000154610eb3919061478e565b610ebd9190614817565b601e6000601860009054906101000a900473ffffffffffffffffffffffffffffffffffffffff1673ffffffffffffffffffffffffffffffffffffffff1673ffffffffffffffffffffffffffffffffffffffff1681526020019081526020016000206000828254610f2d9190614709565b92505081905550600260646011548360000154610f4a919061478e565b610f549190614817565b610f5e9190614817565b601e600083600e0160009054906101000a900473ffffffffffffffffffffffffffffffffffffffff1673ffffffffffffffffffffffffffffffffffffffff1673ffffffffffffffffffffffffffffffffffffffff1681526020019081526020016000206000828254610fd09190614709565b92505081905550600260646011548360000154610fed919061478e565b610ff79190614817565b6110019190614817565b601e6000600560009054906101000a900473ffffffffffffffffffffffffffffffffffffffff1673ffffffffffffffffffffffffffffffffffffffff1673ffffffffffffffffffffffffffffffffffffffff16815260200190815260200160002060008282546110719190614709565b925050819055506000602380549050146111fd5760005b6023805490508110156111f757600060226000602384815481106110af576110ae61475f565b5b9060005260206000200160009054906101000a900473ffffffffffffffffffffffffffffffffffffffff1673ffffffffffffffffffffffffffffffffffffffff1673ffffffffffffffffffffffffffffffffffffffff1681526020019081526020016000209050600754816001015460646012548660000154611132919061478e565b61113c9190614817565b611146919061478e565b6111509190614817565b601e6000602385815481106111685761116761475f565b5b9060005260206000200160009054906101000a900473ffffffffffffffffffffffffffffffffffffffff1673ffffffffffffffffffffffffffffffffffffffff1673ffffffffffffffffffffffffffffffffffffffff16815260200190815260200160002060008282546111dc9190614709565b925050819055505080806111ef90614848565b915050611088565b50611293565b60646012548260000154611211919061478e565b61121b9190614817565b601e6000600160009054906101000a900473ffffffffffffffffffffffffffffffffffffffff1673ffffffffffffffffffffffffffffffffffffffff1673ffffffffffffffffffffffffffffffffffffffff168152602001908152602001600020600082825461128b9190614709565b925050819055505b60006064826001015483600001546112ab919061478e565b6112b59190614817565b82600001546112c49190614709565b90506001600b546112d59190614709565b600b819055506000600b54905060008690506000869050600086905033601960006101000a81548173ffffffffffffffffffffffffffffffffffffffff021916908373ffffffffffffffffffffffffffffffffffffffff1602179055506000601b54426113429190614891565b601a5461134f9190614891565b905062093a80601d54426113639190614891565b1115611376576000601a819055506113b8565b866003015487600201548261138b9190614709565b106113a0578660030154601a819055506113b7565b8660020154816113b09190614709565b601a819055505b5b42601b819055506021604051806101200160405280878152602001888152602001601454426113e79190614709565b81526020014281526020013373ffffffffffffffffffffffffffffffffffffffff1681526020013373ffffffffffffffffffffffffffffffffffffffff1681526020018681526020018581526020018481525090806001815401808255809150506001900390600052602060002090600902016000909190919091506000820151816000015560208201518160010155604082015181600201556060820151816003015560808201518160040160006101000a81548173ffffffffffffffffffffffffffffffffffffffff021916908373ffffffffffffffffffffffffffffffffffffffff16021790555060a08201518160050160006101000a81548173ffffffffffffffffffffffffffffffffffffffff021916908373ffffffffffffffffffffffffffffffffffffffff16021790555060c082015181600601908051906020019061153592919061353c565b5060e082015181600701908051906020019061155292919061353c565b5061010082015181600801908051906020019061157092919061353c565b505050600260009054906101000a900473ffffffffffffffffffffffffffffffffffffffff1673ffffffffffffffffffffffffffffffffffffffff163073ffffffffffffffffffffffffffffffffffffffff167f3bb25606af27fc0d095bee57e38dcccfee45c874307338d4b4cf85d992ce478560405160405180910390a350505050505050505050565b600080600080600061160b6135c2565b6116136135e9565b60608060606000602060008154811061162f5761162e61475f565b5b9060005260206000209060100201905080600e0160009054906101000a900473ffffffffffffffffffffffffffffffffffffffff168160000154826001015483600201548460030154856004018660090187600c0188600d0189600f0184600580602002604051908101604052809291906000905b828210156117475783820180546116ba906148f4565b80601f01602080910402602001604051908101604052809291908181526020018280546116e6906148f4565b80156117335780601f1061170857610100808354040283529160200191611733565b820191906000526020600020905b81548152906001019060200180831161171657829003601f168201915b5050505050815260200190600101906116a4565b50505050945083600380602002604051908101604052809291906000905b8282101561180857838201805461177b906148f4565b80601f01602080910402602001604051908101604052809291908181526020018280546117a7906148f4565b80156117f45780601f106117c9576101008083540402835291602001916117f4565b820191906000526020600020905b8154815290600101906020018083116117d757829003601f168201915b505050505081526020019060010190611765565b50505050935082805461181a906148f4565b80601f0160208091040260200160405190810160405280929190818152602001828054611846906148f4565b80156118935780601f1061186857610100808354040283529160200191611893565b820191906000526020600020905b81548152906001019060200180831161187657829003601f168201915b505050505092508180546118a6906148f4565b80601f01602080910402602001604051908101604052809291908181526020018280546118d2906148f4565b801561191f5780601f106118f45761010080835404028352916020019161191f565b820191906000526020600020905b81548152906001019060200180831161190257829003601f168201915b50505050509150808054611932906148f4565b80601f016020809104026020016040519081016040528092919081815260200182805461195e906148f4565b80156119ab5780601f10611980576101008083540402835291602001916119ab565b820191906000526020600020905b81548152906001019060200180831161198e57829003601f168201915b505050505090509a509a509a509a509a509a509a509a509a509a505090919293949596979899565b600080600080600080602260003373ffffffffffffffffffffffffffffffffffffffff1673ffffffffffffffffffffffffffffffffffffffff16815260200190815260200160002090508060010154602380549050601d54600660009054906101000a900473ffffffffffffffffffffffffffffffffffffffff16600a5495509550955095509550509091929394565b600080601e6000601860009054906101000a900473ffffffffffffffffffffffffffffffffffffffff1673ffffffffffffffffffffffffffffffffffffffff1673ffffffffffffffffffffffffffffffffffffffff16815260200190815260200160002054601960009054906101000a900473ffffffffffffffffffffffffffffffffffffffff16915091509091565b60238054905060135411611b3c576040517f08c379a0000000000000000000000000000000000000000000000000000000008152600401611b33906146ba565b60405180910390fd5b600460009054906101000a900473ffffffffffffffffffffffffffffffffffffffff1673ffffffffffffffffffffffffffffffffffffffff1663d4f4648f82336040518363ffffffff1660e01b8152600401611b99929190613f78565b600060405180830381600087803b158015611bb357600080fd5b505af1158015611bc7573d6000803e3d6000fd5b505050506000602260003373ffffffffffffffffffffffffffffffffffffffff1673ffffffffffffffffffffffffffffffffffffffff168152602001908152602001600020905081816001016000828254611c229190614709565b925050819055508160076000828254611c3b9190614709565b92505081905550600081600001541115611c555750611ce6565b6023339080600181540180825580915050600190039060005260206000200160009091909190916101000a81548173ffffffffffffffffffffffffffffffffffffffff021916908373ffffffffffffffffffffffffffffffffffffffff16021790555060006001602380549050611ccc9190614891565b9050600181611cdb9190614709565b826000018190555050505b50565b600080601e60003373ffffffffffffffffffffffffffffffffffffffff1673ffffffffffffffffffffffffffffffffffffffff16815260200190815260200160002054601e6000600660009054906101000a900473ffffffffffffffffffffffffffffffffffffffff1673ffffffffffffffffffffffffffffffffffffffff1673ffffffffffffffffffffffffffffffffffffffff16815260200190815260200160002054915091509091565b611d9e6134aa565b610e108711158015611db3575062093a808611155b611df2576040517f08c379a0000000000000000000000000000000000000000000000000000000008152600401611de9906146ba565b60405180910390fd5b60206040518061014001604052808b81526020018a8152602001898152602001888152602001878152602001868152602001858152602001848152602001600360009054906101000a900473ffffffffffffffffffffffffffffffffffffffff169c508c73ffffffffffffffffffffffffffffffffffffffff16815260200183815250908060018154018082558091505060019003906000526020600020906010020160009091909190915060008201518160000155602082015181600101556040820151816002015560608201518160030155608082015181600401906005611edd929190613610565b5060a082015181600901906003611ef5929190613663565b5060c082015181600c019080519060200190611f1292919061353c565b5060e082015181600d019080519060200190611f2f92919061353c565b5061010082015181600e0160006101000a81548173ffffffffffffffffffffffffffffffffffffffff021916908373ffffffffffffffffffffffffffffffffffffffff16021790555061012082015181600f019080519060200190611f9592919061353c565b50505085601a8190555042601b8190555089601960006101000a81548173ffffffffffffffffffffffffffffffffffffffff021916908373ffffffffffffffffffffffffffffffffffffffff160217905550601c60009054906101000a900473ffffffffffffffffffffffffffffffffffffffff1673ffffffffffffffffffffffffffffffffffffffff16635e4505c733306040518363ffffffff1660e01b8152600401612044929190614926565b600060405180830381600087803b15801561205e57600080fd5b505af1158015612072573d6000803e3d6000fd5b5050505042601d819055503073ffffffffffffffffffffffffffffffffffffffff167ff289b4a41b5728329fc76c351ab52bfe794cfabf7d0e99fb0f618e0b6cf8973260405160405180910390a250505050505050505050565b3373ffffffffffffffffffffffffffffffffffffffff16601960009054906101000a900473ffffffffffffffffffffffffffffffffffffffff1673ffffffffffffffffffffffffffffffffffffffff16148015612138575042601a54601b546121359190614709565b11155b612177576040517f08c379a000000000000000000000000000000000000000000000000000000000815260040161216e906146ba565b60405180910390fd5b6000601e6000601860009054906101000a900473ffffffffffffffffffffffffffffffffffffffff1673ffffffffffffffffffffffffffffffffffffffff1673ffffffffffffffffffffffffffffffffffffffff1681526020019081526020016000205490506000601e6000601860009054906101000a900473ffffffffffffffffffffffffffffffffffffffff1673ffffffffffffffffffffffffffffffffffffffff1673ffffffffffffffffffffffffffffffffffffffff168152602001908152602001600020819055506000601a819055503373ffffffffffffffffffffffffffffffffffffffff166108fc829081150290604051600060405180830381858888f19350505050158015612292573d6000803e3d6000fd5b507fa6e06c51167339b9e7407a701ac790f56c8c9599ba13994ccc80bca4f2a8523e816040516122c29190614424565b60405180910390a150565b600080602186815481106122e4576122e361475f565b5b906000526020600020906009020190506000602060008154811061230b5761230a61475f565b5b9060005260206000209060100201905042826002015410612361576040517f08c379a0000000000000000000000000000000000000000000000000000000008152600401612358906146ba565b60405180910390fd5b3373ffffffffffffffffffffffffffffffffffffffff168260050160009054906101000a900473ffffffffffffffffffffffffffffffffffffffff1673ffffffffffffffffffffffffffffffffffffffff1614806123c25750428260030154105b612401576040517f08c379a00000000000000000000000000000000000000000000000000000000081526004016123f8906146ba565b60405180910390fd5b428160030154601b546124149190614709565b11612454576040517f08c379a000000000000000000000000000000000000000000000000000000000815260040161244b906146ba565b60405180910390fd5b81600101543414612491576040517f8a0d377900000000000000000000000000000000000000000000000000000000815260040160405180910390fd5b60008260010154905060006064836001015460646124af9190614709565b836124ba9190614817565b6124c4919061478e565b90506064600e54826124d6919061478e565b6124e09190614817565b945060006064600c5483856124f59190614891565b6124ff919061478e565b6125099190614817565b905060006064856001015460646125209190614709565b876001015461252f919061478e565b6125399190614817565b905081876125479190614709565b601e60008860040160009054906101000a900473ffffffffffffffffffffffffffffffffffffffff1673ffffffffffffffffffffffffffffffffffffffff1673ffffffffffffffffffffffffffffffffffffffff16815260200190815260200160002060008282546125b99190614709565b92505081905550600082886125ce9190614709565b87600101546125dd9190614891565b905060026064600d54836125f1919061478e565b6125fb9190614817565b6126059190614817565b601e600088600e0160009054906101000a900473ffffffffffffffffffffffffffffffffffffffff1673ffffffffffffffffffffffffffffffffffffffff1673ffffffffffffffffffffffffffffffffffffffff16815260200190815260200160002060008282546126779190614709565b9250508190555060026064600d5483612690919061478e565b61269a9190614817565b6126a49190614817565b601e6000600560009054906101000a900473ffffffffffffffffffffffffffffffffffffffff1673ffffffffffffffffffffffffffffffffffffffff1673ffffffffffffffffffffffffffffffffffffffff16815260200190815260200160002060008282546127149190614709565b9250508190555060646010548261272b919061478e565b6127359190614817565b601e6000600660009054906101000a900473ffffffffffffffffffffffffffffffffffffffff1673ffffffffffffffffffffffffffffffffffffffff1673ffffffffffffffffffffffffffffffffffffffff16815260200190815260200160002060008282546127a59190614709565b925050819055506064601e826127bb919061478e565b6127c59190614817565b601e6000601860009054906101000a900473ffffffffffffffffffffffffffffffffffffffff1673ffffffffffffffffffffffffffffffffffffffff1673ffffffffffffffffffffffffffffffffffffffff16815260200190815260200160002060008282546128359190614709565b925050819055506000602380549050146129bd5760005b6023805490508110156129b757600060226000602384815481106128735761287261475f565b5b9060005260206000200160009054906101000a900473ffffffffffffffffffffffffffffffffffffffff1673ffffffffffffffffffffffffffffffffffffffff1673ffffffffffffffffffffffffffffffffffffffff168152602001908152602001600020905060075481600101546064600f54866128f2919061478e565b6128fc9190614817565b612906919061478e565b6129109190614817565b601e6000602385815481106129285761292761475f565b5b9060005260206000200160009054906101000a900473ffffffffffffffffffffffffffffffffffffffff1673ffffffffffffffffffffffffffffffffffffffff1673ffffffffffffffffffffffffffffffffffffffff168152602001908152602001600020600082825461299c9190614709565b925050819055505080806129af90614848565b91505061284c565b50612a4f565b6064600f54826129cd919061478e565b6129d79190614817565b601e6000600160009054906101000a900473ffffffffffffffffffffffffffffffffffffffff1673ffffffffffffffffffffffffffffffffffffffff1673ffffffffffffffffffffffffffffffffffffffff1681526020019081526020016000206000828254612a479190614709565b925050819055505b338760040160006101000a81548173ffffffffffffffffffffffffffffffffffffffff021916908373ffffffffffffffffffffffffffffffffffffffff16021790555081876001018190555060145442612aa99190614709565b87600201819055504287600301819055508a876006019080519060200190612ad292919061353c565b5089876007019080519060200190612aeb92919061353c565b5088876008019080519060200190612b0492919061353c565b5033601960006101000a81548173ffffffffffffffffffffffffffffffffffffffff021916908373ffffffffffffffffffffffffffffffffffffffff1602179055506000601b5442612b569190614891565b601a54612b639190614891565b905062093a80601d5442612b779190614891565b1115612b8a576000601a81905550612bcc565b8660030154876002015482612b9f9190614709565b10612bb4578660030154601a81905550612bcb565b866002015481612bc49190614709565b601a819055505b5b42601b819055503073ffffffffffffffffffffffffffffffffffffffff167fcf3438e5e5a168f4995d2cc612749d18b627ab2eb58f320f981cfff9bf5dd3f960405160405180910390a250505050505050505050505050565b6000602260003373ffffffffffffffffffffffffffffffffffffffff1673ffffffffffffffffffffffffffffffffffffffff16815260200190815260200160002090508181600101541015612caf576040517f08c379a0000000000000000000000000000000000000000000000000000000008152600401612ca6906146ba565b60405180910390fd5b600460009054906101000a900473ffffffffffffffffffffffffffffffffffffffff1673ffffffffffffffffffffffffffffffffffffffff166361d42f6b83336040518363ffffffff1660e01b8152600401612d0c929190613f78565b600060405180830381600087803b158015612d2657600080fd5b505af1158015612d3a573d6000803e3d6000fd5b5050505081816001016000828254612d529190614891565b925050819055508160076000828254612d6b9190614891565b92505081905550600081600001541115612d855750612e16565b6023339080600181540180825580915050600190039060005260206000200160009091909190916101000a81548173ffffffffffffffffffffffffffffffffffffffff021916908373ffffffffffffffffffffffffffffffffffffffff16021790555060006001602380549050612dfc9190614891565b9050600181612e0b9190614709565b826000018190555050505b50565b600060218281548110612e2f57612e2e61475f565b5b90600052602060002090600902019050428160020154108015612e555750428160030154105b8015612eb157503373ffffffffffffffffffffffffffffffffffffffff168160040160009054906101000a900473ffffffffffffffffffffffffffffffffffffffff1673ffffffffffffffffffffffffffffffffffffffff1614155b612ef0576040517f08c379a0000000000000000000000000000000000000000000000000000000008152600401612ee7906146ba565b60405180910390fd5b600a543414612f2b576040517f8a0d377900000000000000000000000000000000000000000000000000000000815260040160405180910390fd5b600a54601e6000600160009054906101000a900473ffffffffffffffffffffffffffffffffffffffff1673ffffffffffffffffffffffffffffffffffffffff1673ffffffffffffffffffffffffffffffffffffffff1681526020019081526020016000206000828254612f9e9190614709565b9250508190555060155442612fb39190614709565b8160030181905550338160050160006101000a81548173ffffffffffffffffffffffffffffffffffffffff021916908373ffffffffffffffffffffffffffffffffffffffff1602179055503073ffffffffffffffffffffffffffffffffffffffff167fe70fd5f4c6fe540496d50db6590910c3d15ab59dcf70213b05d73c34fbf4020560405160405180910390a25050565b600080600080600080600080600080600080600c54600d54600e54600f54601054601154601254601354601454601554601a54601b549b509b509b509b509b509b509b509b509b509b509b509b50909192939495969798999a9b565b6000600460009054906101000a900473ffffffffffffffffffffffffffffffffffffffff1673ffffffffffffffffffffffffffffffffffffffff166335703a3a336040518263ffffffff1660e01b81526004016130fe9190614614565b602060405180830381865afa15801561311b573d6000803e3d6000fd5b505050506040513d601f19601f8201168201806040525081019061313f9190614964565b905090565b6060600060218054905067ffffffffffffffff81111561316757613166613869565b5b6040519080825280602002602001820160405280156131a057816020015b61318d6136b6565b8152602001906001900390816131855790505b50905060005b6021805490508110156134a2576000602182815481106131c9576131c861475f565b5b906000526020600020906009020190508060405180610120016040529081600082015481526020016001820154815260200160028201548152602001600382015481526020016004820160009054906101000a900473ffffffffffffffffffffffffffffffffffffffff1673ffffffffffffffffffffffffffffffffffffffff1673ffffffffffffffffffffffffffffffffffffffff1681526020016005820160009054906101000a900473ffffffffffffffffffffffffffffffffffffffff1673ffffffffffffffffffffffffffffffffffffffff1673ffffffffffffffffffffffffffffffffffffffff1681526020016006820180546132ca906148f4565b80601f01602080910402602001604051908101604052809291908181526020018280546132f6906148f4565b80156133435780601f1061331857610100808354040283529160200191613343565b820191906000526020600020905b81548152906001019060200180831161332657829003601f168201915b5050505050815260200160078201805461335c906148f4565b80601f0160208091040260200160405190810160405280929190818152602001828054613388906148f4565b80156133d55780601f106133aa576101008083540402835291602001916133d5565b820191906000526020600020905b8154815290600101906020018083116133b857829003601f168201915b505050505081526020016008820180546133ee906148f4565b80601f016020809104026020016040519081016040528092919081815260200182805461341a906148f4565b80156134675780601f1061343c57610100808354040283529160200191613467565b820191906000526020600020905b81548152906001019060200180831161344a57829003601f168201915b5050505050815250508383815181106134835761348261475f565b5b602002602001018190525050808061349a90614848565b9150506131a6565b508091505090565b600360009054906101000a900473ffffffffffffffffffffffffffffffffffffffff1673ffffffffffffffffffffffffffffffffffffffff163373ffffffffffffffffffffffffffffffffffffffff161461353a576040517f08c379a0000000000000000000000000000000000000000000000000000000008152600401613531906146ba565b60405180910390fd5b565b828054613548906148f4565b90600052602060002090601f01602090048101928261356a57600085556135b1565b82601f1061358357805160ff19168380011785556135b1565b828001600101855582156135b1579182015b828111156135b0578251825591602001919060010190613595565b5b5090506135be919061372e565b5090565b6040518060a001604052806005905b60608152602001906001900390816135d15790505090565b60405180606001604052806003905b60608152602001906001900390816135f85790505090565b8260058101928215613652579160200282015b8281111561365157825182908051906020019061364192919061353c565b5091602001919060010190613623565b5b50905061365f919061374b565b5090565b82600381019282156136a5579160200282015b828111156136a457825182908051906020019061369492919061353c565b5091602001919060010190613676565b5b5090506136b2919061374b565b5090565b60405180610120016040528060008152602001600081526020016000815260200160008152602001600073ffffffffffffffffffffffffffffffffffffffff168152602001600073ffffffffffffffffffffffffffffffffffffffff1681526020016060815260200160608152602001606081525090565b5b8082111561374757600081600090555060010161372f565b5090565b5b8082111561376b5760008181613762919061376f565b5060010161374c565b5090565b50805461377b906148f4565b6000825580601f1061378d57506137ac565b601f0160209004906000526020600020908101906137ab919061372e565b5b50565b6000604051905090565b600080fd5b600080fd5b600073ffffffffffffffffffffffffffffffffffffffff82169050919050565b60006137ee826137c3565b9050919050565b6137fe816137e3565b811461380957600080fd5b50565b60008135905061381b816137f5565b92915050565b600060208284031215613837576138366137b9565b5b60006138458482850161380c565b91505092915050565b600080fd5b600080fd5b6000601f19601f8301169050919050565b7f4e487b7100000000000000000000000000000000000000000000000000000000600052604160045260246000fd5b6138a182613858565b810181811067ffffffffffffffff821117156138c0576138bf613869565b5b80604052505050565b60006138d36137af565b90506138df8282613898565b919050565b600067ffffffffffffffff8211156138ff576138fe613869565b5b61390882613858565b9050602081019050919050565b82818337600083830152505050565b6000613937613932846138e4565b6138c9565b90508281526020810184848401111561395357613952613853565b5b61395e848285613915565b509392505050565b600082601f83011261397b5761397a61384e565b5b813561398b848260208601613924565b91505092915050565b600080604083850312156139ab576139aa6137b9565b5b600083013567ffffffffffffffff8111156139c9576139c86137be565b5b6139d585828601613966565b925050602083013567ffffffffffffffff8111156139f6576139f56137be565b5b613a0285828601613966565b9150509250929050565b6000819050919050565b613a1f81613a0c565b82525050565b6000604082019050613a3a6000830185613a16565b613a476020830184613a16565b9392505050565b613a5781613a0c565b8114613a6257600080fd5b50565b600081359050613a7481613a4e565b92915050565b6000806000806000806000806000806101408b8d031215613a9e57613a9d6137b9565b5b6000613aac8d828e01613a65565b9a50506020613abd8d828e01613a65565b9950506040613ace8d828e01613a65565b9850506060613adf8d828e01613a65565b9750506080613af08d828e01613a65565b96505060a0613b018d828e01613a65565b95505060c0613b128d828e01613a65565b94505060e0613b238d828e01613a65565b935050610100613b358d828e01613a65565b925050610120613b478d828e01613a65565b9150509295989b9194979a5092959850565b600060208284031215613b6f57613b6e6137b9565b5b6000613b7d84828501613a65565b91505092915050565b600080600060608486031215613b9f57613b9e6137b9565b5b600084013567ffffffffffffffff811115613bbd57613bbc6137be565b5b613bc986828701613966565b935050602084013567ffffffffffffffff811115613bea57613be96137be565b5b613bf686828701613966565b925050604084013567ffffffffffffffff811115613c1757613c166137be565b5b613c2386828701613966565b9150509250925092565b613c36816137e3565b82525050565b600060059050919050565b600081905092915050565b6000819050919050565b600081519050919050565b600082825260208201905092915050565b60005b83811015613c96578082015181840152602081019050613c7b565b83811115613ca5576000848401525b50505050565b6000613cb682613c5c565b613cc08185613c67565b9350613cd0818560208601613c78565b613cd981613858565b840191505092915050565b6000613cf08383613cab565b905092915050565b6000602082019050919050565b6000613d1082613c3c565b613d1a8185613c47565b935083602082028501613d2c85613c52565b8060005b85811015613d685784840389528151613d498582613ce4565b9450613d5483613cf8565b925060208a01995050600181019050613d30565b50829750879550505050505092915050565b600060039050919050565b600081905092915050565b6000819050919050565b6000602082019050919050565b6000613db282613d7a565b613dbc8185613d85565b935083602082028501613dce85613d90565b8060005b85811015613e0a5784840389528151613deb8582613ce4565b9450613df683613d9a565b925060208a01995050600181019050613dd2565b50829750879550505050505092915050565b600082825260208201905092915050565b6000613e3882613c5c565b613e428185613e1c565b9350613e52818560208601613c78565b613e5b81613858565b840191505092915050565b600061014082019050613e7c600083018d613c2d565b613e89602083018c613a16565b613e96604083018b613a16565b613ea3606083018a613a16565b613eb06080830189613a16565b81810360a0830152613ec28188613d05565b905081810360c0830152613ed68187613da7565b905081810360e0830152613eea8186613e2d565b9050818103610100830152613eff8185613e2d565b9050818103610120830152613f148184613e2d565b90509b9a5050505050505050505050565b600060a082019050613f3a6000830188613a16565b613f476020830187613a16565b613f546040830186613a16565b613f616060830185613c2d565b613f6e6080830184613a16565b9695505050505050565b6000604082019050613f8d6000830185613a16565b613f9a6020830184613c2d565b9392505050565b600067ffffffffffffffff821115613fbc57613fbb613869565b5b602082029050919050565b600080fd5b6000613fdf613fda84613fa1565b6138c9565b90508060208402830185811115613ff957613ff8613fc7565b5b835b8181101561404057803567ffffffffffffffff81111561401e5761401d61384e565b5b80860161402b8982613966565b85526020850194505050602081019050613ffb565b5050509392505050565b600082601f83011261405f5761405e61384e565b5b600561406c848285613fcc565b91505092915050565b600067ffffffffffffffff8211156140905761408f613869565b5b602082029050919050565b60006140ae6140a984614075565b6138c9565b905080602084028301858111156140c8576140c7613fc7565b5b835b8181101561410f57803567ffffffffffffffff8111156140ed576140ec61384e565b5b8086016140fa8982613966565b855260208501945050506020810190506140ca565b5050509392505050565b600082601f83011261412e5761412d61384e565b5b600361413b84828561409b565b91505092915050565b6000806000806000806000806000806101408b8d031215614168576141676137b9565b5b60006141768d828e0161380c565b9a505060206141878d828e01613a65565b99505060406141988d828e01613a65565b98505060606141a98d828e01613a65565b97505060806141ba8d828e01613a65565b96505060a08b013567ffffffffffffffff8111156141db576141da6137be565b5b6141e78d828e0161404a565b95505060c08b013567ffffffffffffffff811115614208576142076137be565b5b6142148d828e01614119565b94505060e08b013567ffffffffffffffff811115614235576142346137be565b5b6142418d828e01613966565b9350506101008b013567ffffffffffffffff811115614263576142626137be565b5b61426f8d828e01613966565b9250506101208b013567ffffffffffffffff811115614291576142906137be565b5b61429d8d828e01613966565b9150509295989b9194979a5092959850565b600080600080608085870312156142c9576142c86137b9565b5b60006142d787828801613a65565b945050602085013567ffffffffffffffff8111156142f8576142f76137be565b5b61430487828801613966565b935050604085013567ffffffffffffffff811115614325576143246137be565b5b61433187828801613966565b925050606085013567ffffffffffffffff811115614352576143516137be565b5b61435e87828801613966565b91505092959194509250565b600061018082019050614380600083018f613a16565b61438d602083018e613a16565b61439a604083018d613a16565b6143a7606083018c613a16565b6143b4608083018b613a16565b6143c160a083018a613a16565b6143ce60c0830189613a16565b6143db60e0830188613a16565b6143e9610100830187613a16565b6143f7610120830186613a16565b614405610140830185613a16565b614413610160830184613a16565b9d9c50505050505050505050505050565b60006020820190506144396000830184613a16565b92915050565b600081519050919050565b600082825260208201905092915050565b6000819050602082019050919050565b61447481613a0c565b82525050565b614483816137e3565b82525050565b6000610120830160008301516144a2600086018261446b565b5060208301516144b5602086018261446b565b5060408301516144c8604086018261446b565b5060608301516144db606086018261446b565b5060808301516144ee608086018261447a565b5060a083015161450160a086018261447a565b5060c083015184820360c08601526145198282613cab565b91505060e083015184820360e08601526145338282613cab565b91505061010083015184820361010086015261454f8282613cab565b9150508091505092915050565b60006145688383614489565b905092915050565b6000602082019050919050565b60006145888261443f565b614592818561444a565b9350836020820285016145a48561445b565b8060005b858110156145e057848403895281516145c1858261455c565b94506145cc83614570565b925060208a019950506001810190506145a8565b50829750879550505050505092915050565b6000602082019050818103600083015261460c818461457d565b905092915050565b60006020820190506146296000830184613c2d565b92915050565b60008115159050919050565b6146448161462f565b811461464f57600080fd5b50565b6000815190506146618161463b565b92915050565b60006020828403121561467d5761467c6137b9565b5b600061468b84828501614652565b91505092915050565b50565b60006146a4600083613e1c565b91506146af82614694565b600082019050919050565b600060208201905081810360008301526146d381614697565b9050919050565b7f4e487b7100000000000000000000000000000000000000000000000000000000600052601160045260246000fd5b600061471482613a0c565b915061471f83613a0c565b9250827fffffffffffffffffffffffffffffffffffffffffffffffffffffffffffffffff03821115614754576147536146da565b5b828201905092915050565b7f4e487b7100000000000000000000000000000000000000000000000000000000600052603260045260246000fd5b600061479982613a0c565b91506147a483613a0c565b9250817fffffffffffffffffffffffffffffffffffffffffffffffffffffffffffffffff04831182151516156147dd576147dc6146da565b5b828202905092915050565b7f4e487b7100000000000000000000000000000000000000000000000000000000600052601260045260246000fd5b600061482282613a0c565b915061482d83613a0c565b92508261483d5761483c6147e8565b5b828204905092915050565b600061485382613a0c565b91507fffffffffffffffffffffffffffffffffffffffffffffffffffffffffffffffff821415614886576148856146da565b5b600182019050919050565b600061489c82613a0c565b91506148a783613a0c565b9250828210156148ba576148b96146da565b5b828203905092915050565b7f4e487b7100000000000000000000000000000000000000000000000000000000600052602260045260246000fd5b6000600282049050600182168061490c57607f821691505b602082108114156149205761491f6148c5565b5b50919050565b600060408201905061493b6000830185613c2d565b6149486020830184613c2d565b9392505050565b60008151905061495e81613a4e565b92915050565b60006020828403121561497a576149796137b9565b5b60006149888482850161494f565b9150509291505056fea26469706673582212207f6d185053685cd9be14700db87f24bb9ed6b139f22004fbe9ce2e543075026b64736f6c634300080a0033",
  "immutableReferences": {},
  "source": "// SPDX-License-Identifier: MIT\npragma solidity 0.8.10;\n\ninterface IS {\n    function stakeVSlice_h56(uint _amount, address _addr) external;\n    function unstakeVSlice_Hha(uint _amount, address _addr) external;\n    function vSliceViewBalance (address _addr) view external returns (uint);\n    function wl(address _addr) view external  returns (bool);\n    function active (address _fa, address _fcontract) external;\n                     }\ncontract Fight {\n    address  flipper;\n    address  dev;\n    address  dev2;\n    address  fightAdmin;\n    address  tc;\n    address  influ2;\n    address  charity;\n    uint  totalStaked;\n    uint dscs;\n    uint dscs2;\n    uint spotResPrice;\n    uint spotCounter;\n    uint flipperShare;\n    uint influ2Share;\n    uint spotCashBack;\n    uint usersSlice;\n    uint charitySlice;\n    uint iscs;\n    uint uscs;\n    uint maxUsers;\n    uint spotBusyTime;\n    uint spotReservTime;\n    uint v1;\n    uint v2;\n    address lsp;\n    address ls;\n    uint actTimer;\n    uint startTime;\n    address ff;\n    uint created;\n   \n    function _a() private view {\n        require (msg.sender == fightAdmin, \"\");\n    }\n    modifier a() {\n    _a();\n    _;\n    }\n    \n    mapping (address => uint)  pw;\n    mapping (address => uint)  votes;\n   \n    error NotEnoughEther();\n    error YouHaveToReserveFirst();\n    error FinishFightFirst();\n   \n    struct fightData {\n        uint initPrice;\n        uint np;\n        uint extention;\n        uint duration;\n        string[5] fightTopics;\n        string[3] fightLocation;\n        string promo1;\n        string promo2;\n        address influ1;\n        string shortUrl;\n        }  \n        fightData[]  fight;\n     \n    constructor(address _ff, address _dev, address _dev2, uint _dscs,uint _dscs2, uint _spotResPrice, address _fightAdmin, address _tc, address _influ2, address _charity, address _lsp) {\n        dev = _dev;\n        dev2 = _dev2;\n        dscs = _dscs;\n        dscs2 = _dscs2;\n        iscs=30;\n        uscs=34;\n        flipperShare=30;\n        influ2Share=25;\n        usersSlice=40;\n        charitySlice=5;\n        spotCashBack=100;\n        maxUsers=20000;\n        spotBusyTime=120;\n        spotReservTime=60;\n        spotResPrice = _spotResPrice;\n        fightAdmin=_fightAdmin;\n        tc =_tc;\n        influ2 = _influ2;\n        charity = _charity;\n        ff=_ff;\n        lsp=_lsp;\n        \n}\n        event fightDataEvent (address indexed fightContract);  \n        function addFightData(  \n        address influ1,\n        uint initPrice,\n        uint np,\n        uint extention,\n        uint duration,\n        string[5] memory fightTopics,\n        string[3] memory fightLocation,\n        string memory promo1,\n        string memory promo2,\n        string memory shortUrl\n        ) public a{\n        require(extention <=3600 && duration<= 604800, '');\n       \n        fight.push(fightData(\n        initPrice,\n        np,\n        extention,\n        duration,\n        fightTopics,\n        fightLocation,\n        promo1,\n        promo2,\n        influ1=fightAdmin,\n        shortUrl));\n        actTimer=duration;\n        startTime=block.timestamp;\n        ls=influ1;\n        IS(ff).active (msg.sender, address(this));\n        created=block.timestamp;\n        emit fightDataEvent (address(this));\n        }\n        \n    struct Spots {\n        uint SpotNo;\n        uint priceOfSpot;\n        uint bu;\n        uint ru;\n        address flipper;\n        address booker;\n        string text;\n        string link;\n        string pic;\n    }\n    Spots []  spots;\n   \n    struct Entry{\n        uint index;\n        uint value;\n                }\n    mapping(address => Entry)  map;\n    address[]  keyList;\n   \n   \n   //stake Virtual Slice\n   //event stakers (address indexed f);\n    function stakeingVSlice_C64(uint _value) public {\n        require(maxUsers>keyList.length, \"\");\n        IS(tc).stakeVSlice_h56(_value, msg.sender);\n        Entry storage entry = map[msg.sender];\n        entry.value += _value;\n        totalStaked += _value;\n        if(entry.index > 0){\n            return;\n        }else {\n            keyList.push(msg.sender);\n            uint keyListIndex = keyList.length - 1;\n            entry.index = keyListIndex + 1;\n        }\n        //emit stakers(msg.sender);\n    }\n\n   //Unstake Virtual Slice\n    function unstakeingVSlice_EK(uint _value) public {\n        Entry storage entry = map[msg.sender];\n        require(entry.value>=_value, \"\");\n        IS(tc).unstakeVSlice_Hha(_value, msg.sender);\n        entry.value -= _value;\n        totalStaked -= _value;\n        if(entry.index > 0){\n            return;\n        }else {\n            keyList.push(msg.sender);\n            uint keyListIndex = keyList.length - 1;\n            entry.index = keyListIndex + 1;\n        }\n    }  \n\n    //view Virtual Slice balance\n    function viewVSliceBalance () view external returns (uint){\n        return IS(tc).vSliceViewBalance(msg.sender);\n    }\n    //Create spot\n     event createSpotEvent (address indexed fightContract, address indexed dev2);  \n    function createSpot_g4A(string memory _text, string memory _link, string memory _pic) external payable {\n        fightData storage m = fight[0];\n        require((startTime+actTimer) > block.timestamp, '');\n        if (msg.value != m.initPrice) revert NotEnoughEther();\n        pw[dev] += (m.initPrice * dscs/100);\n        pw[dev2] += (m.initPrice * dscs2/100);\n        pw[lsp] += (m.initPrice * 30/100);\n        pw[m.influ1] += (m.initPrice * iscs/100)/2;\n        pw[influ2] += (m.initPrice * iscs/100)/2;\n        if (keyList.length!=0) {\n        for (uint i = 0; i < keyList.length; i++)\n        {\n        Entry storage entry = map[keyList[i]];\n        pw[keyList[i]] += ((m.initPrice * uscs/100) * entry.value/totalStaked);\n        }\n        } else {pw[dev]+=(m.initPrice * uscs/100);}\n        uint nextPrice = m.initPrice + ((m.initPrice * m.np)/100);\n        spotCounter=spotCounter+1;\n        uint spotN = spotCounter;\n        string memory text = _text;\n        string memory link = _link;\n        string memory pic= _pic;\n        ls=msg.sender;\n        //timer start\n        uint timeLeft = actTimer - (block.timestamp-startTime);\n        if (block.timestamp - created >604800)\n            {actTimer= 0;}\n         else if (timeLeft+m.extention >=m.duration)\n               {actTimer=m.duration;}\n         else {actTimer= timeLeft+ m.extention;}\n                startTime = block.timestamp;\n        //timer end\n        spots.push(Spots(spotN, nextPrice,block.timestamp+spotBusyTime, block.timestamp, msg.sender,msg.sender, text, link, pic));\n    emit createSpotEvent (address(this), dev2);\n        \n    }\n\n  //flip\n    event flipSpotEvent (address indexed fightContract);  \n    function flip_Maf(uint _index, string memory _text, string memory _link, string memory _pic) external payable {\n        uint cb;\n        Spots storage spot = spots[_index];\n        fightData storage m = fight[0];\n        require(spot.bu < block.timestamp, '');\n        require(spot.booker==msg.sender || spot.ru<block.timestamp, '');\n        require((startTime+m.duration) > block.timestamp, '');\n        if (msg.value != spot.priceOfSpot) revert NotEnoughEther();\n        uint currentPrice = spot.priceOfSpot;\n        uint previousPrice = ((currentPrice / ((100 + m.np)))*100);\n        cb= ((previousPrice * spotCashBack)/100);\n        uint exFlipperProfit = ((currentPrice - previousPrice) * flipperShare)/100;\n        uint nextPrice = ((spot.priceOfSpot * ((100 + m.np)))/100);\n        pw[spot.flipper] += (cb + exFlipperProfit);\n        uint toDistro = spot.priceOfSpot - (cb + exFlipperProfit);\n        pw[m.influ1] += (toDistro * influ2Share/100)/2;\n        pw[influ2] += (toDistro * influ2Share/100)/2;\n        pw[charity] += (toDistro * charitySlice/100);\n        pw[lsp] += (toDistro * 30/100);\n        if (keyList.length!=0) {\n        for (uint i = 0; i < keyList.length; i++)\n        {\n        Entry storage entry = map[keyList[i]];\n        pw[keyList[i]] += (toDistro * usersSlice/100) * entry.value/totalStaked;\n        }\n        } else {pw[dev]+=(toDistro * usersSlice/100);}\n        spot.flipper = msg.sender;\n        spot.priceOfSpot = nextPrice;\n        spot.bu = block.timestamp+spotBusyTime;\n        spot.ru=block.timestamp;\n        spot.text = _text;\n        spot.link = _link;\n        spot.pic= _pic;\n        ls=msg.sender;\n        //timer start\n        uint timeLeft = actTimer - (block.timestamp-startTime);\n        if (block.timestamp - created >604800)\n            {actTimer= 0;}\n        else if (timeLeft+m.extention >=m.duration)\n               {actTimer=m.duration;}\n         else {actTimer= timeLeft+ m.extention;}\n        startTime = block.timestamp;\n        //timer end\n        \n        emit flipSpotEvent (address(this));\n    }\n       //Get spots\n    function getSpots() public view returns (Spots[] memory){\n      Spots[]    memory id = new Spots[](spots.length);\n      for (uint i = 0; i < spots.length; i++) {\n          Spots storage spot = spots[i];\n          id[i] = spot;\n      }\n      return id;\n  }\n  \n   //Spot Reservation\n    event spotR (address indexed fightContract); \n    function spotReserve_u5k(uint _indx) external payable {\n        Spots storage spot = spots[_indx];\n        require(spot.bu<block.timestamp && spot.ru<block.timestamp && spot.flipper != msg.sender, \"\");\n        if (msg.value != spotResPrice) revert NotEnoughEther();\n        pw[dev]+=spotResPrice;\n        spot.ru = block.timestamp+spotReservTime;\n        spot.booker=msg.sender;\n        emit spotR (address(this));\n    }\n   //Spot reset\n   //event reset (address indexed fightContract);\n    function resetspot(uint _indx) external a (){\n        fightData storage m = fight[0];\n        Spots storage spot = spots[_indx];\n        spot.priceOfSpot=m.initPrice;\n        spot.bu=0;\n        spot.ru=0;\n        spot.text='';\n        spot.pic='';\n        spot.link='';\n        //emit reset (address(this));\n    }\n   //make withdrawal\n    event withdrawals (uint amount, uint who);  \n    function makeWithdrawal() public {\n        fightData storage m = fight[0];\n        uint amount = pw[msg.sender];\n        pw[msg.sender] = 0;\n        payable(msg.sender).transfer(amount);\n        uint who;\n        if (msg.sender==charity) {who=1;} \n        else if (msg.sender==m.influ1 || msg.sender ==influ2) {who=2;} \n        //else if (msg.sender==dev2) {who=3;}\n        else {who=4;}\n        emit withdrawals (amount, who);\n    }\n    //make withdrawal of Last Spot Pot\n    event withdrawalsLSP (uint amount);  \n    function makeWithdrawalLSP() public {\n        require(ls==msg.sender && (startTime+actTimer) <= block.timestamp, '');\n        uint amount = pw[lsp];\n        pw[lsp] = 0;\n        actTimer=0;\n        payable(msg.sender).transfer(amount);\n        emit withdrawalsLSP (amount);\n    }\n    \n    //Show withrawal balance of stakers and charity\n    function showBalance () view external returns (uint, uint) {\n    return (pw[msg.sender], pw[charity]);\n    }\n    //Show lsp and lsp balance\n     function showLastSpotPot () view external returns (uint, address) {\n    return (pw[lsp],ls);\n    }\n\n   //Vote 1\n    function voting1_E7O(address _addr) public {\n        require(votes[_addr]==0 && IS(tc).wl(msg.sender)==true,'');\n        votes[_addr]=1;\n        v1 +=1;\n    }\n   //Vote 2\n    function voting2_eoL(address _addr) public {\n        require(votes[_addr]==0 && IS(tc).wl(msg.sender)==true,'');\n        votes[_addr]=1;\n        v2 +=1;\n\n    }\n    //Show votes\n    function getVotes() view public returns (uint, uint) {\n        return (v1, v2);\n    }\n    //Get fight data\n    function getFightData () public view returns (address, uint, uint, uint, uint, string[5] memory, string[3] memory, string memory ,string memory, string memory) {\n       fightData storage spot = fight[0];\n    return (spot.influ1, spot.initPrice, spot.np, spot.extention, spot.duration, spot.fightTopics, spot.fightLocation, spot.promo1, spot.promo2, spot.shortUrl);}\n\n    // Staked tokens - number of Stakers - voted - fight createdDate\n    function getFightParams2 () view external returns (uint, uint, uint, address, uint) {\n        Entry storage entry = map[msg.sender];\n    return (entry.value, keyList.length, created, charity, spotResPrice);\n    }\n    \n    //Get fights parameters\n    function getFightParams() public view returns (uint, uint, uint, uint, uint, uint, uint , uint , uint, uint,uint, uint) {\n    return (flipperShare,influ2Share,spotCashBack,usersSlice, charitySlice,iscs, uscs, maxUsers,spotBusyTime, spotReservTime, actTimer,startTime);}\n    \n\n   \n//Update fight promo\n    function ufp (string memory _promo1, string memory _promo2) public {\n    fightData storage spot = fight[0];\n    require((spot.influ1==msg.sender) , '');\n    spot.promo2 = _promo2;\n    spot.promo1=_promo1;\n}   \n//Set fight parameters\n    function sF (uint fs, uint infs, uint scb, uint us, uint cs, uint _iscs, uint _uscs, uint mu, uint sbt, uint srt) public a(){\n    require ((infs+us+cs) == 70 && (_iscs+_uscs+dscs+dscs2) == 70 && spotReservTime > 90, '');\n    flipperShare = fs;\n    influ2Share = infs;\n    spotCashBack = scb;\n    usersSlice = us;\n    charitySlice = cs;\n    iscs = _iscs;\n    uscs = _uscs;\n    maxUsers=mu;\n    spotBusyTime = sbt;\n    spotReservTime = srt;\n    }\n\n}\n   \n       \n    contract fightFactory {\n    address dev;\n    address dev2;\n    uint  dscs;\n    uint  dscs2;\n    uint  spotResPrice;\n    address  fightAdmin;\n    address  tc;\n    address  lca;\n    address  influ2;\n    address  charity;\n    address lsp;\n \n \n   \n    struct fc {\n        address fightAdmin;\n        address fightContract;\n        bool active;\n    }\n    fc []  fcl;\n    mapping(address => mapping(address =>uint)) index;\n    mapping(address => uint)  fightCount;\n    \n    constructor (address _tc) {\n        dev = msg.sender;\n        lsp=0xc8170df33EA09F767CEC6E478ebe71a04c2bFA24;\n        tc= _tc;\n        dscs= 1;\n        dscs2=5;\n        spotResPrice=1000000000000000000;\n    }\n //creating a new fight\n    event createNewFight (address indexed fightAddress, address indexed factoryAddress);\n    function createFight(address _dev2, address _influ2, address _charity) external returns(address){\n       fightAdmin= msg.sender;\n       lca = address(new Fight(address(this),dev,_dev2,dscs,dscs2,spotResPrice, fightAdmin, tc, _influ2, _charity, lsp));\n       fcl.push(fc(msg.sender, lca, false));\n       index[msg.sender][lca]=fcl.length-1;\n       fightCount[msg.sender] +=1;\n       emit createNewFight (lca, address(this));    \n    return lca;\n    }\n//get fights by admin \n         function getFightsByAdmin(address _owner) public view returns (fc[] memory) {\n        fc[] memory result = new fc[](fightCount[_owner]);\n        uint counter = 0;\n       \n        for (uint i = 0; i < fcl.length; i++) {\n            if (fcl[i].fightAdmin == _owner) {\n                fc storage list = fcl[i];\n                result[counter] = list;\n                counter++;\n            }\n        }\n        return result;\n    }\n    \n       function getAllFights() public view returns (fc[] memory){\n      fc[]    memory id = new fc[](fcl.length);\n      for (uint i = 0; i < fcl.length; i++) {\n          fc storage spot = fcl[i];\n          id[i] = spot;\n      }\n      return id;\n  }\n    \n        function active (address _fa, address _fcontract) external {\n        uint ind = index[_fa][_fcontract];\n         fc storage m = fcl[ind];\n         m.active=true;\n    }\n\n    \n//Set Spot Reservation Price\n    function srp (uint _price) external {\n        require(msg.sender == dev, \"\");\n        spotResPrice = _price;\n    }\n\n    }\n",
  "sourcePath": "/Users/stanislavpavlovic/Desktop/Slice/ee/contracts/fight.sol",
  "compiler": {
    "name": "solc",
    "version": "0.8.10+commit.fc410830.Emscripten.clang"
  },
  "schemaVersion": "3.4.3",
  "updatedAt": "2022-02-06T15:38:58.038Z",
  "devdoc": {
    "kind": "dev",
    "methods": {},
    "version": 1
  },
  "userdoc": {
    "kind": "user",
    "methods": {},
    "version": 1
  }
}