{
  "contractName": "Fight",
  "abi": [
    {
      "inputs": [
        {
          "internalType": "address",
          "name": "_ff",
          "type": "address"
        },
        {
          "internalType": "address",
          "name": "_dev",
          "type": "address"
        },
        {
          "internalType": "address",
          "name": "_dev2",
          "type": "address"
        },
        {
          "internalType": "uint256",
          "name": "_dscs",
          "type": "uint256"
        },
        {
          "internalType": "uint256",
          "name": "_dscs2",
          "type": "uint256"
        },
        {
          "internalType": "uint256",
          "name": "_spotResPrice",
          "type": "uint256"
        },
        {
          "internalType": "address",
          "name": "_fightAdmin",
          "type": "address"
        },
        {
          "internalType": "address",
          "name": "_tc",
          "type": "address"
        },
        {
          "internalType": "address",
          "name": "_influ2",
          "type": "address"
        },
        {
          "internalType": "address",
          "name": "_charity",
          "type": "address"
        },
        {
          "internalType": "address",
          "name": "_lsp",
          "type": "address"
        }
      ],
      "stateMutability": "nonpayable",
      "type": "constructor"
    },
    {
      "inputs": [],
      "name": "FinishFightFirst",
      "type": "error"
    },
    {
      "inputs": [],
      "name": "NotEnoughEther",
      "type": "error"
    },
    {
      "inputs": [],
      "name": "YouHaveToReserveFirst",
      "type": "error"
    },
    {
      "anonymous": false,
      "inputs": [
        {
          "indexed": true,
          "internalType": "address",
          "name": "fightContract",
          "type": "address"
        },
        {
          "indexed": true,
          "internalType": "address",
          "name": "dev2",
          "type": "address"
        }
      ],
      "name": "createSpotEvent",
      "type": "event"
    },
    {
      "anonymous": false,
      "inputs": [
        {
          "indexed": true,
          "internalType": "address",
          "name": "fightContract",
          "type": "address"
        }
      ],
      "name": "flipSpotEvent",
      "type": "event"
    },
    {
      "anonymous": false,
      "inputs": [
        {
          "indexed": false,
          "internalType": "address",
          "name": "fightContract",
          "type": "address"
        }
      ],
      "name": "reservation",
      "type": "event"
    },
    {
      "anonymous": false,
      "inputs": [
        {
          "indexed": false,
          "internalType": "address",
          "name": "addr",
          "type": "address"
        },
        {
          "indexed": false,
          "internalType": "uint256",
          "name": "amount",
          "type": "uint256"
        }
      ],
      "name": "withdrawalsLSP",
      "type": "event"
    },
    {
      "inputs": [
        {
          "internalType": "address",
          "name": "influ1",
          "type": "address"
        },
        {
          "internalType": "uint256",
          "name": "initPrice",
          "type": "uint256"
        },
        {
          "internalType": "uint256",
          "name": "np",
          "type": "uint256"
        },
        {
          "internalType": "uint256",
          "name": "extention",
          "type": "uint256"
        },
        {
          "internalType": "uint256",
          "name": "duration",
          "type": "uint256"
        },
        {
          "internalType": "string[5]",
          "name": "fightTopics",
          "type": "string[5]"
        },
        {
          "internalType": "string",
          "name": "promo1",
          "type": "string"
        },
        {
          "internalType": "string",
          "name": "promo2",
          "type": "string"
        },
        {
          "internalType": "string",
          "name": "shortUrl",
          "type": "string"
        }
      ],
      "name": "addFightData",
      "outputs": [],
      "stateMutability": "nonpayable",
      "type": "function"
    },
    {
      "inputs": [
        {
          "internalType": "uint256",
          "name": "_value",
          "type": "uint256"
        }
      ],
      "name": "stakeingVSlice_C64",
      "outputs": [],
      "stateMutability": "nonpayable",
      "type": "function"
    },
    {
      "inputs": [
        {
          "internalType": "uint256",
          "name": "_value",
          "type": "uint256"
        }
      ],
      "name": "unstakeingVSlice_EK",
      "outputs": [],
      "stateMutability": "nonpayable",
      "type": "function"
    },
    {
      "inputs": [],
      "name": "viewVSliceBalance",
      "outputs": [
        {
          "internalType": "uint256",
          "name": "",
          "type": "uint256"
        }
      ],
      "stateMutability": "view",
      "type": "function"
    },
    {
      "inputs": [
        {
          "internalType": "string",
          "name": "_text",
          "type": "string"
        },
        {
          "internalType": "string",
          "name": "_link",
          "type": "string"
        },
        {
          "internalType": "string",
          "name": "_pic",
          "type": "string"
        },
        {
          "internalType": "string",
          "name": "_mediaType",
          "type": "string"
        }
      ],
      "name": "createSpot_g4A",
      "outputs": [],
      "stateMutability": "payable",
      "type": "function"
    },
    {
      "inputs": [
        {
          "internalType": "uint256",
          "name": "_index",
          "type": "uint256"
        },
        {
          "internalType": "string",
          "name": "_text",
          "type": "string"
        },
        {
          "internalType": "string",
          "name": "_link",
          "type": "string"
        },
        {
          "internalType": "string",
          "name": "_pic",
          "type": "string"
        },
        {
          "internalType": "string",
          "name": "_mediaType",
          "type": "string"
        }
      ],
      "name": "flip_Maf",
      "outputs": [],
      "stateMutability": "payable",
      "type": "function"
    },
    {
      "inputs": [],
      "name": "getSpots",
      "outputs": [
        {
          "components": [
            {
              "internalType": "uint256",
              "name": "SpotNo",
              "type": "uint256"
            },
            {
              "internalType": "uint256",
              "name": "priceOfSpot",
              "type": "uint256"
            },
            {
              "internalType": "uint256",
              "name": "bu",
              "type": "uint256"
            },
            {
              "internalType": "uint256",
              "name": "ru",
              "type": "uint256"
            },
            {
              "internalType": "address",
              "name": "flipper",
              "type": "address"
            },
            {
              "internalType": "address",
              "name": "booker",
              "type": "address"
            },
            {
              "internalType": "string",
              "name": "text",
              "type": "string"
            },
            {
              "internalType": "string",
              "name": "link",
              "type": "string"
            },
            {
              "internalType": "string",
              "name": "pic",
              "type": "string"
            },
            {
              "internalType": "string",
              "name": "mediaType",
              "type": "string"
            }
          ],
          "internalType": "struct Fight.Spots[]",
          "name": "",
          "type": "tuple[]"
        }
      ],
      "stateMutability": "view",
      "type": "function"
    },
    {
      "inputs": [
        {
          "internalType": "uint256",
          "name": "_indx",
          "type": "uint256"
        }
      ],
      "name": "spotReserve_u5k",
      "outputs": [],
      "stateMutability": "payable",
      "type": "function"
    },
    {
      "inputs": [
        {
          "internalType": "uint256",
          "name": "_indx",
          "type": "uint256"
        }
      ],
      "name": "resetspot",
      "outputs": [],
      "stateMutability": "nonpayable",
      "type": "function"
    },
    {
      "inputs": [],
      "name": "makeWithdrawal",
      "outputs": [],
      "stateMutability": "nonpayable",
      "type": "function"
    },
    {
      "inputs": [],
      "name": "makeWithdrawalLSP",
      "outputs": [],
      "stateMutability": "nonpayable",
      "type": "function"
    },
    {
      "inputs": [
        {
          "internalType": "address",
          "name": "_addr",
          "type": "address"
        }
      ],
      "name": "voting1_E7O",
      "outputs": [],
      "stateMutability": "nonpayable",
      "type": "function"
    },
    {
      "inputs": [
        {
          "internalType": "address",
          "name": "_addr",
          "type": "address"
        }
      ],
      "name": "voting2_eoL",
      "outputs": [],
      "stateMutability": "nonpayable",
      "type": "function"
    },
    {
      "inputs": [],
      "name": "getVotes",
      "outputs": [
        {
          "internalType": "uint256",
          "name": "",
          "type": "uint256"
        },
        {
          "internalType": "uint256",
          "name": "",
          "type": "uint256"
        },
        {
          "internalType": "uint256",
          "name": "",
          "type": "uint256"
        }
      ],
      "stateMutability": "view",
      "type": "function"
    },
    {
      "inputs": [],
      "name": "getFightData",
      "outputs": [
        {
          "internalType": "address",
          "name": "",
          "type": "address"
        },
        {
          "internalType": "uint256",
          "name": "",
          "type": "uint256"
        },
        {
          "internalType": "uint256",
          "name": "",
          "type": "uint256"
        },
        {
          "internalType": "uint256",
          "name": "",
          "type": "uint256"
        },
        {
          "internalType": "uint256",
          "name": "",
          "type": "uint256"
        },
        {
          "internalType": "string[5]",
          "name": "",
          "type": "string[5]"
        },
        {
          "internalType": "string",
          "name": "",
          "type": "string"
        },
        {
          "internalType": "string",
          "name": "",
          "type": "string"
        },
        {
          "internalType": "string",
          "name": "",
          "type": "string"
        }
      ],
      "stateMutability": "view",
      "type": "function"
    },
    {
      "inputs": [],
      "name": "getFightParams2",
      "outputs": [
        {
          "internalType": "uint256",
          "name": "",
          "type": "uint256"
        },
        {
          "internalType": "uint256",
          "name": "",
          "type": "uint256"
        },
        {
          "internalType": "uint256",
          "name": "",
          "type": "uint256"
        },
        {
          "internalType": "address",
          "name": "",
          "type": "address"
        },
        {
          "internalType": "uint256",
          "name": "",
          "type": "uint256"
        },
        {
          "internalType": "uint256",
          "name": "",
          "type": "uint256"
        },
        {
          "internalType": "uint256",
          "name": "",
          "type": "uint256"
        },
        {
          "internalType": "uint256",
          "name": "",
          "type": "uint256"
        },
        {
          "internalType": "uint256",
          "name": "",
          "type": "uint256"
        }
      ],
      "stateMutability": "view",
      "type": "function"
    },
    {
      "inputs": [],
      "name": "getFightParams",
      "outputs": [
        {
          "internalType": "uint256",
          "name": "",
          "type": "uint256"
        },
        {
          "internalType": "uint256",
          "name": "",
          "type": "uint256"
        },
        {
          "internalType": "uint256",
          "name": "",
          "type": "uint256"
        },
        {
          "internalType": "uint256",
          "name": "",
          "type": "uint256"
        },
        {
          "internalType": "uint256",
          "name": "",
          "type": "uint256"
        },
        {
          "internalType": "uint256",
          "name": "",
          "type": "uint256"
        },
        {
          "internalType": "uint256",
          "name": "",
          "type": "uint256"
        },
        {
          "internalType": "uint256",
          "name": "",
          "type": "uint256"
        },
        {
          "internalType": "uint256",
          "name": "",
          "type": "uint256"
        },
        {
          "internalType": "uint256",
          "name": "",
          "type": "uint256"
        },
        {
          "internalType": "uint256",
          "name": "",
          "type": "uint256"
        },
        {
          "internalType": "uint256",
          "name": "",
          "type": "uint256"
        }
      ],
      "stateMutability": "view",
      "type": "function"
    },
    {
      "inputs": [],
      "name": "showBalance",
      "outputs": [
        {
          "internalType": "uint256",
          "name": "",
          "type": "uint256"
        },
        {
          "internalType": "uint256",
          "name": "",
          "type": "uint256"
        },
        {
          "internalType": "uint256",
          "name": "",
          "type": "uint256"
        },
        {
          "internalType": "address",
          "name": "",
          "type": "address"
        },
        {
          "internalType": "uint256",
          "name": "",
          "type": "uint256"
        },
        {
          "internalType": "uint256",
          "name": "",
          "type": "uint256"
        }
      ],
      "stateMutability": "view",
      "type": "function"
    },
    {
      "inputs": [
        {
          "internalType": "string",
          "name": "_promo1",
          "type": "string"
        },
        {
          "internalType": "string",
          "name": "_promo2",
          "type": "string"
        }
      ],
      "name": "ufp",
      "outputs": [],
      "stateMutability": "nonpayable",
      "type": "function"
    },
    {
      "inputs": [
        {
          "internalType": "uint256",
          "name": "fs",
          "type": "uint256"
        },
        {
          "internalType": "uint256",
          "name": "infs",
          "type": "uint256"
        },
        {
          "internalType": "uint256",
          "name": "scb",
          "type": "uint256"
        },
        {
          "internalType": "uint256",
          "name": "us",
          "type": "uint256"
        },
        {
          "internalType": "uint256",
          "name": "cs",
          "type": "uint256"
        },
        {
          "internalType": "uint256",
          "name": "_iscs",
          "type": "uint256"
        },
        {
          "internalType": "uint256",
          "name": "_uscs",
          "type": "uint256"
        },
        {
          "internalType": "uint256",
          "name": "mu",
          "type": "uint256"
        },
        {
          "internalType": "uint256",
          "name": "sbt",
          "type": "uint256"
        },
        {
          "internalType": "uint256",
          "name": "srt",
          "type": "uint256"
        }
      ],
      "name": "sF",
      "outputs": [],
      "stateMutability": "nonpayable",
      "type": "function"
    }
  ],
  "bytecode": "0x60806040523480156200001157600080fd5b5060405162004e2438038062004e2483398181016040528101906200003791906200035c565b89600160006101000a81548173ffffffffffffffffffffffffffffffffffffffff021916908373ffffffffffffffffffffffffffffffffffffffff16021790555088600260006101000a81548173ffffffffffffffffffffffffffffffffffffffff021916908373ffffffffffffffffffffffffffffffffffffffff1602179055508760088190555086600981905550601e6011819055506022601281905550601e600c819055506019600d819055506046600f8190555060056010819055506064600e81905550614e2060138190555061012c601481905550605a60158190555085600a8190555084600360006101000a81548173ffffffffffffffffffffffffffffffffffffffff021916908373ffffffffffffffffffffffffffffffffffffffff16021790555083600460006101000a81548173ffffffffffffffffffffffffffffffffffffffff021916908373ffffffffffffffffffffffffffffffffffffffff16021790555082600560006101000a81548173ffffffffffffffffffffffffffffffffffffffff021916908373ffffffffffffffffffffffffffffffffffffffff16021790555081600660006101000a81548173ffffffffffffffffffffffffffffffffffffffff021916908373ffffffffffffffffffffffffffffffffffffffff1602179055508a601c60006101000a81548173ffffffffffffffffffffffffffffffffffffffff021916908373ffffffffffffffffffffffffffffffffffffffff16021790555080601860006101000a81548173ffffffffffffffffffffffffffffffffffffffff021916908373ffffffffffffffffffffffffffffffffffffffff160217905550505050505050505050505062000469565b600080fd5b600073ffffffffffffffffffffffffffffffffffffffff82169050919050565b6000620002e982620002bc565b9050919050565b620002fb81620002dc565b81146200030757600080fd5b50565b6000815190506200031b81620002f0565b92915050565b6000819050919050565b620003368162000321565b81146200034257600080fd5b50565b60008151905062000356816200032b565b92915050565b60008060008060008060008060008060006101608c8e031215620003855762000384620002b7565b5b6000620003958e828f016200030a565b9b50506020620003a88e828f016200030a565b9a50506040620003bb8e828f016200030a565b9950506060620003ce8e828f0162000345565b9850506080620003e18e828f0162000345565b97505060a0620003f48e828f0162000345565b96505060c0620004078e828f016200030a565b95505060e06200041a8e828f016200030a565b9450506101006200042e8e828f016200030a565b935050610120620004428e828f016200030a565b925050610140620004568e828f016200030a565b9150509295989b509295989b9093969950565b6149ab80620004796000396000f3fe60806040526004361061011b5760003560e01c80637c0ce7ad116100a0578063e7ac9ab411610064578063e7ac9ab414610368578063e8c90e8814610384578063f706cccc146103ba578063f9521129146103e3578063fa9375711461040e5761011b565b80637c0ce7ad146102b357806381b2d07b146102dc578063a5d7c82f1461030c578063b9bbba1814610323578063e51c484e1461033f5761011b565b80633951b4c9116100e75780633951b4c9146101e457806344d16475146101fb57806347f9ba5e14610224578063503cfdb71461024d5780635eebe258146102805761011b565b8061825e14610120578061ecc8146101495780630126fe5e146101725780630dc960151461019b5780632a6eff14146101c8575b600080fd5b34801561012c57600080fd5b506101476004803603810190610142919061386f565b610439565b005b34801561015557600080fd5b50610170600480360381019061016b919061386f565b6105c8565b005b34801561017e57600080fd5b50610199600480360381019061019491906139e2565b610757565b005b3480156101a757600080fd5b506101b0610847565b6040516101bf93929190613a73565b60405180910390f35b6101e260048036038101906101dd9190613ad6565b610860565b005b3480156101f057600080fd5b506101f96112d9565b005b34801561020757600080fd5b50610222600480360381019061021d9190613bc1565b6113ac565b005b34801561023057600080fd5b5061024b60048036038101906102469190613ca0565b61149f565b005b34801561025957600080fd5b50610262611592565b60405161027799989796959493929190613e64565b60405180910390f35b34801561028c57600080fd5b5061029561189a565b6040516102aa99989796959493929190613f0d565b60405180910390f35b3480156102bf57600080fd5b506102da60048036038101906102d59190613ca0565b611948565b005b3480156102e857600080fd5b506102f1611b3e565b60405161030396959493929190613f9a565b60405180910390f35b34801561031857600080fd5b50610321611c88565b005b61033d60048036038101906103389190613ffb565b611e8b565b005b34801561034b57600080fd5b5061036660048036038101906103619190613ca0565b61298d565b005b610382600480360381019061037d9190613ca0565b612b81565b005b34801561039057600080fd5b50610399612da1565b6040516103b19c9b9a999897969594939291906140d2565b60405180910390f35b3480156103c657600080fd5b506103e160048036038101906103dc9190614260565b612dfd565b005b3480156103ef57600080fd5b506103f86130d0565b604051610405919061439a565b60405180910390f35b34801561041a57600080fd5b50610423613173565b6040516104309190614584565b60405180910390f35b6000601f60008373ffffffffffffffffffffffffffffffffffffffff1673ffffffffffffffffffffffffffffffffffffffff16815260200190815260200160002054148015610527575060011515600460009054906101000a900473ffffffffffffffffffffffffffffffffffffffff1673ffffffffffffffffffffffffffffffffffffffff16632fee9e7e336040518263ffffffff1660e01b81526004016104e291906145a6565b602060405180830381865afa1580156104ff573d6000803e3d6000fd5b505050506040513d601f19601f8201168201806040525081019061052391906145f9565b1515145b610566576040517f08c379a000000000000000000000000000000000000000000000000000000000815260040161055d9061464c565b60405180910390fd5b6001601f60008373ffffffffffffffffffffffffffffffffffffffff1673ffffffffffffffffffffffffffffffffffffffff168152602001908152602001600020819055506001601660008282546105be919061469b565b9250508190555050565b6000601f60008373ffffffffffffffffffffffffffffffffffffffff1673ffffffffffffffffffffffffffffffffffffffff168152602001908152602001600020541480156106b6575060011515600460009054906101000a900473ffffffffffffffffffffffffffffffffffffffff1673ffffffffffffffffffffffffffffffffffffffff16632fee9e7e336040518263ffffffff1660e01b815260040161067191906145a6565b602060405180830381865afa15801561068e573d6000803e3d6000fd5b505050506040513d601f19601f820116820180604052508101906106b291906145f9565b1515145b6106f5576040517f08c379a00000000000000000000000000000000000000000000000000000000081526004016106ec9061464c565b60405180910390fd5b6001601f60008373ffffffffffffffffffffffffffffffffffffffff1673ffffffffffffffffffffffffffffffffffffffff1681526020019081526020016000208190555060016017600082825461074d919061469b565b9250508190555050565b6000602060008154811061076e5761076d6146f1565b5b90600052602060002090600d020190503373ffffffffffffffffffffffffffffffffffffffff1681600b0160009054906101000a900473ffffffffffffffffffffffffffffffffffffffff1673ffffffffffffffffffffffffffffffffffffffff1614610810576040517f08c379a00000000000000000000000000000000000000000000000000000000081526004016108079061464c565b60405180910390fd5b8181600a0190805190602001906108289291906135fd565b50828160090190805190602001906108419291906135fd565b50505050565b6000806000601654601754600754925092509250909192565b60008060218781548110610877576108766146f1565b5b90600052602060002090600a020190506000602060008154811061089e5761089d6146f1565b5b90600052602060002090600d02019050428260020154106108f4576040517f08c379a00000000000000000000000000000000000000000000000000000000081526004016108eb9061464c565b60405180910390fd5b3373ffffffffffffffffffffffffffffffffffffffff168260050160009054906101000a900473ffffffffffffffffffffffffffffffffffffffff1673ffffffffffffffffffffffffffffffffffffffff1614806109555750428260030154105b610994576040517f08c379a000000000000000000000000000000000000000000000000000000000815260040161098b9061464c565b60405180910390fd5b42601a54601b546109a5919061469b565b116109e5576040517f08c379a00000000000000000000000000000000000000000000000000000000081526004016109dc9061464c565b60405180910390fd5b81600101543414610a22576040517f8a0d377900000000000000000000000000000000000000000000000000000000815260040160405180910390fd5b6000826001015490506000606483600101546064610a40919061469b565b83610a4b919061474f565b610a559190614780565b90506064600e5482610a679190614780565b610a71919061474f565b945060006064600c548385610a8691906147da565b610a909190614780565b610a9a919061474f565b90506000606485600101546064610ab1919061469b565b8760010154610ac09190614780565b610aca919061474f565b90508187610ad8919061469b565b601e60008860040160009054906101000a900473ffffffffffffffffffffffffffffffffffffffff1673ffffffffffffffffffffffffffffffffffffffff1673ffffffffffffffffffffffffffffffffffffffff1681526020019081526020016000206000828254610b4a919061469b565b9250508190555060008288610b5f919061469b565b8760010154610b6e91906147da565b905060026064600d5483610b829190614780565b610b8c919061474f565b610b96919061474f565b601e600088600b0160009054906101000a900473ffffffffffffffffffffffffffffffffffffffff1673ffffffffffffffffffffffffffffffffffffffff1673ffffffffffffffffffffffffffffffffffffffff1681526020019081526020016000206000828254610c08919061469b565b9250508190555060026064600d5483610c219190614780565b610c2b919061474f565b610c35919061474f565b601e6000600560009054906101000a900473ffffffffffffffffffffffffffffffffffffffff1673ffffffffffffffffffffffffffffffffffffffff1673ffffffffffffffffffffffffffffffffffffffff1681526020019081526020016000206000828254610ca5919061469b565b92505081905550606460105482610cbc9190614780565b610cc6919061474f565b601e6000600660009054906101000a900473ffffffffffffffffffffffffffffffffffffffff1673ffffffffffffffffffffffffffffffffffffffff1673ffffffffffffffffffffffffffffffffffffffff1681526020019081526020016000206000828254610d36919061469b565b925050819055506000602380549050146110575760005b6023805490508110156110515760006022600060238481548110610d7457610d736146f1565b5b9060005260206000200160009054906101000a900473ffffffffffffffffffffffffffffffffffffffff1673ffffffffffffffffffffffffffffffffffffffff1673ffffffffffffffffffffffffffffffffffffffff168152602001908152602001600020905060011515600460009054906101000a900473ffffffffffffffffffffffffffffffffffffffff1673ffffffffffffffffffffffffffffffffffffffff16632fee9e7e60238581548110610e3157610e306146f1565b5b9060005260206000200160009054906101000a900473ffffffffffffffffffffffffffffffffffffffff166040518263ffffffff1660e01b8152600401610e7891906145a6565b602060405180830381865afa158015610e95573d6000803e3d6000fd5b505050506040513d601f19601f82011682018060405250810190610eb991906145f9565b15151415610f8f5760075481600101546064600f5486610ed99190614780565b610ee3919061474f565b610eed9190614780565b610ef7919061474f565b601e600060238581548110610f0f57610f0e6146f1565b5b9060005260206000200160009054906101000a900473ffffffffffffffffffffffffffffffffffffffff1673ffffffffffffffffffffffffffffffffffffffff1673ffffffffffffffffffffffffffffffffffffffff1681526020019081526020016000206000828254610f83919061469b565b9250508190555061103d565b60075481600101546064600f5486610fa79190614780565b610fb1919061474f565b610fbb9190614780565b610fc5919061474f565b601e6000600660009054906101000a900473ffffffffffffffffffffffffffffffffffffffff1673ffffffffffffffffffffffffffffffffffffffff1673ffffffffffffffffffffffffffffffffffffffff1681526020019081526020016000206000828254611035919061469b565b925050819055505b5080806110499061480e565b915050610d4d565b506110e9565b6064600f54826110679190614780565b611071919061474f565b601e6000600660009054906101000a900473ffffffffffffffffffffffffffffffffffffffff1673ffffffffffffffffffffffffffffffffffffffff1673ffffffffffffffffffffffffffffffffffffffff16815260200190815260200160002060008282546110e1919061469b565b925050819055505b338760040160006101000a81548173ffffffffffffffffffffffffffffffffffffffff021916908373ffffffffffffffffffffffffffffffffffffffff16021790555081876001018190555060145442611143919061469b565b87600201819055504287600301819055508b87600601908051906020019061116c9291906135fd565b508a8760070190805190602001906111859291906135fd565b508987600801908051906020019061119e9291906135fd565b50888760090190805190602001906111b79291906135fd565b5033601960006101000a81548173ffffffffffffffffffffffffffffffffffffffff021916908373ffffffffffffffffffffffffffffffffffffffff1602179055506000601b544261120991906147da565b601a5461121691906147da565b905062093a80601d544261122a91906147da565b111561123d576000601a8190555061127f565b8660030154876002015482611252919061469b565b10611267578660030154601a8190555061127e565b866002015481611277919061469b565b601a819055505b5b42601b819055503073ffffffffffffffffffffffffffffffffffffffff167fcf3438e5e5a168f4995d2cc612749d18b627ab2eb58f320f981cfff9bf5dd3f960405160405180910390a25050505050505050505050505050565b6000601e60003373ffffffffffffffffffffffffffffffffffffffff1673ffffffffffffffffffffffffffffffffffffffff1681526020019081526020016000205490506000601e60003373ffffffffffffffffffffffffffffffffffffffff1673ffffffffffffffffffffffffffffffffffffffff168152602001908152602001600020819055503373ffffffffffffffffffffffffffffffffffffffff166108fc829081150290604051600060405180830381858888f193505050501580156113a8573d6000803e3d6000fd5b5050565b6113b461356b565b606486888b6113c3919061469b565b6113cd919061469b565b1480156113ff5750604660095460085486886113e9919061469b565b6113f3919061469b565b6113fd919061469b565b145b801561140e5750603c60155410155b61144d576040517f08c379a00000000000000000000000000000000000000000000000000000000081526004016114449061464c565b60405180910390fd5b89600c8190555088600d8190555087600e8190555086600f8190555085601081905550846011819055508360128190555082601381905550816014819055508060158190555050505050505050505050565b6114a761356b565b600060206000815481106114be576114bd6146f1565b5b90600052602060002090600d020190506000602183815481106114e4576114e36146f1565b5b90600052602060002090600a020190508160000154816001018190555060008160020181905550600081600301819055506040518060200160405280600081525081600601908051906020019061153c9291906135fd565b50604051806020016040528060008152508160080190805190602001906115649291906135fd565b506040518060200160405280600081525081600701908051906020019061158c9291906135fd565b50505050565b60008060008060006115a2613683565b6060806060600060206000815481106115be576115bd6146f1565b5b90600052602060002090600d0201905080600b0160009054906101000a900473ffffffffffffffffffffffffffffffffffffffff168160000154826001015483600201548460030154856004018660090187600a0188600c0183600580602002604051908101604052809291906000905b828210156116d257838201805461164590614886565b80601f016020809104026020016040519081016040528092919081815260200182805461167190614886565b80156116be5780601f10611693576101008083540402835291602001916116be565b820191906000526020600020905b8154815290600101906020018083116116a157829003601f168201915b50505050508152602001906001019061162f565b5050505093508280546116e490614886565b80601f016020809104026020016040519081016040528092919081815260200182805461171090614886565b801561175d5780601f106117325761010080835404028352916020019161175d565b820191906000526020600020905b81548152906001019060200180831161174057829003601f168201915b5050505050925081805461177090614886565b80601f016020809104026020016040519081016040528092919081815260200182805461179c90614886565b80156117e95780601f106117be576101008083540402835291602001916117e9565b820191906000526020600020905b8154815290600101906020018083116117cc57829003601f168201915b505050505091508080546117fc90614886565b80601f016020809104026020016040519081016040528092919081815260200182805461182890614886565b80156118755780601f1061184a57610100808354040283529160200191611875565b820191906000526020600020905b81548152906001019060200180831161185857829003601f168201915b5050505050905099509950995099509950995099509950995050909192939495969798565b600080600080600080600080600080602260003373ffffffffffffffffffffffffffffffffffffffff1673ffffffffffffffffffffffffffffffffffffffff16815260200190815260200160002090508060010154602380549050601d54600660009054906101000a900473ffffffffffffffffffffffffffffffffffffffff16600a54601254601054600f54601a5499509950995099509950995099509950995050909192939495969798565b60238054905060135411611991576040517f08c379a00000000000000000000000000000000000000000000000000000000081526004016119889061464c565b60405180910390fd5b600460009054906101000a900473ffffffffffffffffffffffffffffffffffffffff1673ffffffffffffffffffffffffffffffffffffffff1663d4f4648f82336040518363ffffffff1660e01b81526004016119ee9291906148b8565b600060405180830381600087803b158015611a0857600080fd5b505af1158015611a1c573d6000803e3d6000fd5b505050506000602260003373ffffffffffffffffffffffffffffffffffffffff1673ffffffffffffffffffffffffffffffffffffffff168152602001908152602001600020905081816001016000828254611a77919061469b565b925050819055508160076000828254611a90919061469b565b92505081905550600081600001541115611aaa5750611b3b565b6023339080600181540180825580915050600190039060005260206000200160009091909190916101000a81548173ffffffffffffffffffffffffffffffffffffffff021916908373ffffffffffffffffffffffffffffffffffffffff16021790555060006001602380549050611b2191906147da565b9050600181611b30919061469b565b826000018190555050505b50565b600080600080600080601e60003373ffffffffffffffffffffffffffffffffffffffff1673ffffffffffffffffffffffffffffffffffffffff16815260200190815260200160002054601e6000600660009054906101000a900473ffffffffffffffffffffffffffffffffffffffff1673ffffffffffffffffffffffffffffffffffffffff1673ffffffffffffffffffffffffffffffffffffffff16815260200190815260200160002054601e6000601860009054906101000a900473ffffffffffffffffffffffffffffffffffffffff1673ffffffffffffffffffffffffffffffffffffffff1673ffffffffffffffffffffffffffffffffffffffff16815260200190815260200160002054601960009054906101000a900473ffffffffffffffffffffffffffffffffffffffff16601d54601a54955095509550955095509550909192939495565b3373ffffffffffffffffffffffffffffffffffffffff16601960009054906101000a900473ffffffffffffffffffffffffffffffffffffffff1673ffffffffffffffffffffffffffffffffffffffff16148015611cf4575042601a54601b54611cf1919061469b565b11155b611d33576040517f08c379a0000000000000000000000000000000000000000000000000000000008152600401611d2a9061464c565b60405180910390fd5b6000601e6000601860009054906101000a900473ffffffffffffffffffffffffffffffffffffffff1673ffffffffffffffffffffffffffffffffffffffff1673ffffffffffffffffffffffffffffffffffffffff1681526020019081526020016000205490506000601e6000601860009054906101000a900473ffffffffffffffffffffffffffffffffffffffff1673ffffffffffffffffffffffffffffffffffffffff1673ffffffffffffffffffffffffffffffffffffffff168152602001908152602001600020819055506000601a819055503373ffffffffffffffffffffffffffffffffffffffff166108fc829081150290604051600060405180830381858888f19350505050158015611e4e573d6000803e3d6000fd5b507f0689651a0bb260f3df1719ec8787eb33bfc21862be592ec196997adccc9dc76d3382604051611e809291906148e1565b60405180910390a150565b60006020600081548110611ea257611ea16146f1565b5b90600052602060002090600d0201905042601a54601b54611ec3919061469b565b11611f03576040517f08c379a0000000000000000000000000000000000000000000000000000000008152600401611efa9061464c565b60405180910390fd5b80600001543414611f40576040517f8a0d377900000000000000000000000000000000000000000000000000000000815260040160405180910390fd5b60646008548260000154611f549190614780565b611f5e919061474f565b601e6000600160009054906101000a900473ffffffffffffffffffffffffffffffffffffffff1673ffffffffffffffffffffffffffffffffffffffff1673ffffffffffffffffffffffffffffffffffffffff1681526020019081526020016000206000828254611fce919061469b565b9250508190555060646009548260000154611fe99190614780565b611ff3919061474f565b601e6000600260009054906101000a900473ffffffffffffffffffffffffffffffffffffffff1673ffffffffffffffffffffffffffffffffffffffff1673ffffffffffffffffffffffffffffffffffffffff1681526020019081526020016000206000828254612063919061469b565b925050819055506064601e826000015461207d9190614780565b612087919061474f565b601e6000601860009054906101000a900473ffffffffffffffffffffffffffffffffffffffff1673ffffffffffffffffffffffffffffffffffffffff1673ffffffffffffffffffffffffffffffffffffffff16815260200190815260200160002060008282546120f7919061469b565b925050819055506002606460115483600001546121149190614780565b61211e919061474f565b612128919061474f565b601e600083600b0160009054906101000a900473ffffffffffffffffffffffffffffffffffffffff1673ffffffffffffffffffffffffffffffffffffffff1673ffffffffffffffffffffffffffffffffffffffff168152602001908152602001600020600082825461219a919061469b565b925050819055506002606460115483600001546121b79190614780565b6121c1919061474f565b6121cb919061474f565b601e6000600560009054906101000a900473ffffffffffffffffffffffffffffffffffffffff1673ffffffffffffffffffffffffffffffffffffffff1673ffffffffffffffffffffffffffffffffffffffff168152602001908152602001600020600082825461223b919061469b565b925050819055506000602380549050146125645760005b60238054905081101561255e5760006022600060238481548110612279576122786146f1565b5b9060005260206000200160009054906101000a900473ffffffffffffffffffffffffffffffffffffffff1673ffffffffffffffffffffffffffffffffffffffff1673ffffffffffffffffffffffffffffffffffffffff168152602001908152602001600020905060011515600460009054906101000a900473ffffffffffffffffffffffffffffffffffffffff1673ffffffffffffffffffffffffffffffffffffffff16632fee9e7e60238581548110612336576123356146f1565b5b9060005260206000200160009054906101000a900473ffffffffffffffffffffffffffffffffffffffff166040518263ffffffff1660e01b815260040161237d91906145a6565b602060405180830381865afa15801561239a573d6000803e3d6000fd5b505050506040513d601f19601f820116820180604052508101906123be91906145f9565b15151415612498576007548160010154606460125486600001546123e29190614780565b6123ec919061474f565b6123f69190614780565b612400919061474f565b601e600060238581548110612418576124176146f1565b5b9060005260206000200160009054906101000a900473ffffffffffffffffffffffffffffffffffffffff1673ffffffffffffffffffffffffffffffffffffffff1673ffffffffffffffffffffffffffffffffffffffff168152602001908152602001600020600082825461248c919061469b565b9250508190555061254a565b6007548160010154606460125486600001546124b49190614780565b6124be919061474f565b6124c89190614780565b6124d2919061474f565b601e6000600660009054906101000a900473ffffffffffffffffffffffffffffffffffffffff1673ffffffffffffffffffffffffffffffffffffffff1673ffffffffffffffffffffffffffffffffffffffff1681526020019081526020016000206000828254612542919061469b565b925050819055505b5080806125569061480e565b915050612252565b506125fa565b606460125482600001546125789190614780565b612582919061474f565b601e6000600660009054906101000a900473ffffffffffffffffffffffffffffffffffffffff1673ffffffffffffffffffffffffffffffffffffffff1673ffffffffffffffffffffffffffffffffffffffff16815260200190815260200160002060008282546125f2919061469b565b925050819055505b60006064826001015483600001546126129190614780565b61261c919061474f565b826000015461262b919061469b565b90506001600b5461263c919061469b565b600b819055506000600b549050600087905060008790506000879050600087905033601960006101000a81548173ffffffffffffffffffffffffffffffffffffffff021916908373ffffffffffffffffffffffffffffffffffffffff1602179055506000601b54426126ae91906147da565b601a546126bb91906147da565b905062093a80601d54426126cf91906147da565b11156126e2576000601a81905550612724565b87600301548860020154826126f7919061469b565b1061270c578760030154601a81905550612723565b87600201548161271c919061469b565b601a819055505b5b42601b81905550602160405180610140016040528088815260200189815260200160145442612753919061469b565b81526020014281526020013373ffffffffffffffffffffffffffffffffffffffff1681526020013373ffffffffffffffffffffffffffffffffffffffff1681526020018781526020018681526020018581526020018481525090806001815401808255809150506001900390600052602060002090600a02016000909190919091506000820151816000015560208201518160010155604082015181600201556060820151816003015560808201518160040160006101000a81548173ffffffffffffffffffffffffffffffffffffffff021916908373ffffffffffffffffffffffffffffffffffffffff16021790555060a08201518160050160006101000a81548173ffffffffffffffffffffffffffffffffffffffff021916908373ffffffffffffffffffffffffffffffffffffffff16021790555060c08201518160060190805190602001906128a79291906135fd565b5060e08201518160070190805190602001906128c49291906135fd565b506101008201518160080190805190602001906128e29291906135fd565b506101208201518160090190805190602001906129009291906135fd565b505050600260009054906101000a900473ffffffffffffffffffffffffffffffffffffffff1673ffffffffffffffffffffffffffffffffffffffff163073ffffffffffffffffffffffffffffffffffffffff167f3bb25606af27fc0d095bee57e38dcccfee45c874307338d4b4cf85d992ce478560405160405180910390a3505050505050505050505050565b6000602260003373ffffffffffffffffffffffffffffffffffffffff1673ffffffffffffffffffffffffffffffffffffffff16815260200190815260200160002090508181600101541015612a17576040517f08c379a0000000000000000000000000000000000000000000000000000000008152600401612a0e9061464c565b60405180910390fd5b600460009054906101000a900473ffffffffffffffffffffffffffffffffffffffff1673ffffffffffffffffffffffffffffffffffffffff166361d42f6b83336040518363ffffffff1660e01b8152600401612a749291906148b8565b600060405180830381600087803b158015612a8e57600080fd5b505af1158015612aa2573d6000803e3d6000fd5b5050505081816001016000828254612aba91906147da565b925050819055508160076000828254612ad391906147da565b92505081905550600081600001541115612aed5750612b7e565b6023339080600181540180825580915050600190039060005260206000200160009091909190916101000a81548173ffffffffffffffffffffffffffffffffffffffff021916908373ffffffffffffffffffffffffffffffffffffffff16021790555060006001602380549050612b6491906147da565b9050600181612b73919061469b565b826000018190555050505b50565b600060218281548110612b9757612b966146f1565b5b90600052602060002090600a02019050428160020154108015612bbd5750428160030154105b8015612c1957503373ffffffffffffffffffffffffffffffffffffffff168160040160009054906101000a900473ffffffffffffffffffffffffffffffffffffffff1673ffffffffffffffffffffffffffffffffffffffff1614155b612c58576040517f08c379a0000000000000000000000000000000000000000000000000000000008152600401612c4f9061464c565b60405180910390fd5b600a543414612c93576040517f8a0d377900000000000000000000000000000000000000000000000000000000815260040160405180910390fd5b600a54601e6000600160009054906101000a900473ffffffffffffffffffffffffffffffffffffffff1673ffffffffffffffffffffffffffffffffffffffff1673ffffffffffffffffffffffffffffffffffffffff1681526020019081526020016000206000828254612d06919061469b565b9250508190555060155442612d1b919061469b565b8160030181905550338160050160006101000a81548173ffffffffffffffffffffffffffffffffffffffff021916908373ffffffffffffffffffffffffffffffffffffffff1602179055507fef964f3b612028ef1c533b1bcb531ea1677191b3ae235167b4f184c9833f4bf330604051612d9591906145a6565b60405180910390a15050565b600080600080600080600080600080600080600c54600d54600e54600f54601054601154601254601354601454601554601a54601b549b509b509b509b509b509b509b509b509b509b509b509b50909192939495969798999a9b565b612e0561356b565b610e108611158015612e1a575062093a808511155b612e59576040517f08c379a0000000000000000000000000000000000000000000000000000000008152600401612e509061464c565b60405180910390fd5b60206040518061012001604052808a8152602001898152602001888152602001878152602001868152602001858152602001848152602001600360009054906101000a900473ffffffffffffffffffffffffffffffffffffffff169b508b73ffffffffffffffffffffffffffffffffffffffff1681526020018381525090806001815401808255809150506001900390600052602060002090600d020160009091909190915060008201518160000155602082015181600101556040820151816002015560608201518160030155608082015181600401906005612f3e9291906136aa565b5060a0820151816009019080519060200190612f5b9291906135fd565b5060c082015181600a019080519060200190612f789291906135fd565b5060e082015181600b0160006101000a81548173ffffffffffffffffffffffffffffffffffffffff021916908373ffffffffffffffffffffffffffffffffffffffff16021790555061010082015181600c019080519060200190612fdd9291906135fd565b50505084601a8190555042601b8190555088601960006101000a81548173ffffffffffffffffffffffffffffffffffffffff021916908373ffffffffffffffffffffffffffffffffffffffff160217905550601c60009054906101000a900473ffffffffffffffffffffffffffffffffffffffff1673ffffffffffffffffffffffffffffffffffffffff16635e4505c733306040518363ffffffff1660e01b815260040161308c92919061490a565b600060405180830381600087803b1580156130a657600080fd5b505af11580156130ba573d6000803e3d6000fd5b5050505042601d81905550505050505050505050565b6000600460009054906101000a900473ffffffffffffffffffffffffffffffffffffffff1673ffffffffffffffffffffffffffffffffffffffff166335703a3a336040518263ffffffff1660e01b815260040161312d91906145a6565b602060405180830381865afa15801561314a573d6000803e3d6000fd5b505050506040513d601f19601f8201168201806040525081019061316e9190614948565b905090565b6060600060218054905067ffffffffffffffff811115613196576131956138b7565b5b6040519080825280602002602001820160405280156131cf57816020015b6131bc6136fd565b8152602001906001900390816131b45790505b50905060005b602180549050811015613563576000602182815481106131f8576131f76146f1565b5b90600052602060002090600a020190508060405180610140016040529081600082015481526020016001820154815260200160028201548152602001600382015481526020016004820160009054906101000a900473ffffffffffffffffffffffffffffffffffffffff1673ffffffffffffffffffffffffffffffffffffffff1673ffffffffffffffffffffffffffffffffffffffff1681526020016005820160009054906101000a900473ffffffffffffffffffffffffffffffffffffffff1673ffffffffffffffffffffffffffffffffffffffff1673ffffffffffffffffffffffffffffffffffffffff1681526020016006820180546132f990614886565b80601f016020809104026020016040519081016040528092919081815260200182805461332590614886565b80156133725780601f1061334757610100808354040283529160200191613372565b820191906000526020600020905b81548152906001019060200180831161335557829003601f168201915b5050505050815260200160078201805461338b90614886565b80601f01602080910402602001604051908101604052809291908181526020018280546133b790614886565b80156134045780601f106133d957610100808354040283529160200191613404565b820191906000526020600020905b8154815290600101906020018083116133e757829003601f168201915b5050505050815260200160088201805461341d90614886565b80601f016020809104026020016040519081016040528092919081815260200182805461344990614886565b80156134965780601f1061346b57610100808354040283529160200191613496565b820191906000526020600020905b81548152906001019060200180831161347957829003601f168201915b505050505081526020016009820180546134af90614886565b80601f01602080910402602001604051908101604052809291908181526020018280546134db90614886565b80156135285780601f106134fd57610100808354040283529160200191613528565b820191906000526020600020905b81548152906001019060200180831161350b57829003601f168201915b505050505081525050838381518110613544576135436146f1565b5b602002602001018190525050808061355b9061480e565b9150506131d5565b508091505090565b600360009054906101000a900473ffffffffffffffffffffffffffffffffffffffff1673ffffffffffffffffffffffffffffffffffffffff163373ffffffffffffffffffffffffffffffffffffffff16146135fb576040517f08c379a00000000000000000000000000000000000000000000000000000000081526004016135f29061464c565b60405180910390fd5b565b82805461360990614886565b90600052602060002090601f01602090048101928261362b5760008555613672565b82601f1061364457805160ff1916838001178555613672565b82800160010185558215613672579182015b82811115613671578251825591602001919060010190613656565b5b50905061367f919061377c565b5090565b6040518060a001604052806005905b60608152602001906001900390816136925790505090565b82600581019282156136ec579160200282015b828111156136eb5782518290805190602001906136db9291906135fd565b50916020019190600101906136bd565b5b5090506136f99190613799565b5090565b60405180610140016040528060008152602001600081526020016000815260200160008152602001600073ffffffffffffffffffffffffffffffffffffffff168152602001600073ffffffffffffffffffffffffffffffffffffffff168152602001606081526020016060815260200160608152602001606081525090565b5b8082111561379557600081600090555060010161377d565b5090565b5b808211156137b957600081816137b091906137bd565b5060010161379a565b5090565b5080546137c990614886565b6000825580601f106137db57506137fa565b601f0160209004906000526020600020908101906137f9919061377c565b5b50565b6000604051905090565b600080fd5b600080fd5b600073ffffffffffffffffffffffffffffffffffffffff82169050919050565b600061383c82613811565b9050919050565b61384c81613831565b811461385757600080fd5b50565b60008135905061386981613843565b92915050565b60006020828403121561388557613884613807565b5b60006138938482850161385a565b91505092915050565b600080fd5b600080fd5b6000601f19601f8301169050919050565b7f4e487b7100000000000000000000000000000000000000000000000000000000600052604160045260246000fd5b6138ef826138a6565b810181811067ffffffffffffffff8211171561390e5761390d6138b7565b5b80604052505050565b60006139216137fd565b905061392d82826138e6565b919050565b600067ffffffffffffffff82111561394d5761394c6138b7565b5b613956826138a6565b9050602081019050919050565b82818337600083830152505050565b600061398561398084613932565b613917565b9050828152602081018484840111156139a1576139a06138a1565b5b6139ac848285613963565b509392505050565b600082601f8301126139c9576139c861389c565b5b81356139d9848260208601613972565b91505092915050565b600080604083850312156139f9576139f8613807565b5b600083013567ffffffffffffffff811115613a1757613a1661380c565b5b613a23858286016139b4565b925050602083013567ffffffffffffffff811115613a4457613a4361380c565b5b613a50858286016139b4565b9150509250929050565b6000819050919050565b613a6d81613a5a565b82525050565b6000606082019050613a886000830186613a64565b613a956020830185613a64565b613aa26040830184613a64565b949350505050565b613ab381613a5a565b8114613abe57600080fd5b50565b600081359050613ad081613aaa565b92915050565b600080600080600060a08688031215613af257613af1613807565b5b6000613b0088828901613ac1565b955050602086013567ffffffffffffffff811115613b2157613b2061380c565b5b613b2d888289016139b4565b945050604086013567ffffffffffffffff811115613b4e57613b4d61380c565b5b613b5a888289016139b4565b935050606086013567ffffffffffffffff811115613b7b57613b7a61380c565b5b613b87888289016139b4565b925050608086013567ffffffffffffffff811115613ba857613ba761380c565b5b613bb4888289016139b4565b9150509295509295909350565b6000806000806000806000806000806101408b8d031215613be557613be4613807565b5b6000613bf38d828e01613ac1565b9a50506020613c048d828e01613ac1565b9950506040613c158d828e01613ac1565b9850506060613c268d828e01613ac1565b9750506080613c378d828e01613ac1565b96505060a0613c488d828e01613ac1565b95505060c0613c598d828e01613ac1565b94505060e0613c6a8d828e01613ac1565b935050610100613c7c8d828e01613ac1565b925050610120613c8e8d828e01613ac1565b9150509295989b9194979a5092959850565b600060208284031215613cb657613cb5613807565b5b6000613cc484828501613ac1565b91505092915050565b613cd681613831565b82525050565b600060059050919050565b600081905092915050565b6000819050919050565b600081519050919050565b600082825260208201905092915050565b60005b83811015613d36578082015181840152602081019050613d1b565b83811115613d45576000848401525b50505050565b6000613d5682613cfc565b613d608185613d07565b9350613d70818560208601613d18565b613d79816138a6565b840191505092915050565b6000613d908383613d4b565b905092915050565b6000602082019050919050565b6000613db082613cdc565b613dba8185613ce7565b935083602082028501613dcc85613cf2565b8060005b85811015613e085784840389528151613de98582613d84565b9450613df483613d98565b925060208a01995050600181019050613dd0565b50829750879550505050505092915050565b600082825260208201905092915050565b6000613e3682613cfc565b613e408185613e1a565b9350613e50818560208601613d18565b613e59816138a6565b840191505092915050565b600061012082019050613e7a600083018c613ccd565b613e87602083018b613a64565b613e94604083018a613a64565b613ea16060830189613a64565b613eae6080830188613a64565b81810360a0830152613ec08187613da5565b905081810360c0830152613ed48186613e2b565b905081810360e0830152613ee88185613e2b565b9050818103610100830152613efd8184613e2b565b90509a9950505050505050505050565b600061012082019050613f23600083018c613a64565b613f30602083018b613a64565b613f3d604083018a613a64565b613f4a6060830189613ccd565b613f576080830188613a64565b613f6460a0830187613a64565b613f7160c0830186613a64565b613f7e60e0830185613a64565b613f8c610100830184613a64565b9a9950505050505050505050565b600060c082019050613faf6000830189613a64565b613fbc6020830188613a64565b613fc96040830187613a64565b613fd66060830186613ccd565b613fe36080830185613a64565b613ff060a0830184613a64565b979650505050505050565b6000806000806080858703121561401557614014613807565b5b600085013567ffffffffffffffff8111156140335761403261380c565b5b61403f878288016139b4565b945050602085013567ffffffffffffffff8111156140605761405f61380c565b5b61406c878288016139b4565b935050604085013567ffffffffffffffff81111561408d5761408c61380c565b5b614099878288016139b4565b925050606085013567ffffffffffffffff8111156140ba576140b961380c565b5b6140c6878288016139b4565b91505092959194509250565b6000610180820190506140e8600083018f613a64565b6140f5602083018e613a64565b614102604083018d613a64565b61410f606083018c613a64565b61411c608083018b613a64565b61412960a083018a613a64565b61413660c0830189613a64565b61414360e0830188613a64565b614151610100830187613a64565b61415f610120830186613a64565b61416d610140830185613a64565b61417b610160830184613a64565b9d9c50505050505050505050505050565b600067ffffffffffffffff8211156141a7576141a66138b7565b5b602082029050919050565b600080fd5b60006141ca6141c58461418c565b613917565b905080602084028301858111156141e4576141e36141b2565b5b835b8181101561422b57803567ffffffffffffffff8111156142095761420861389c565b5b80860161421689826139b4565b855260208501945050506020810190506141e6565b5050509392505050565b600082601f83011261424a5761424961389c565b5b60056142578482856141b7565b91505092915050565b60008060008060008060008060006101208a8c03121561428357614282613807565b5b60006142918c828d0161385a565b99505060206142a28c828d01613ac1565b98505060406142b38c828d01613ac1565b97505060606142c48c828d01613ac1565b96505060806142d58c828d01613ac1565b95505060a08a013567ffffffffffffffff8111156142f6576142f561380c565b5b6143028c828d01614235565b94505060c08a013567ffffffffffffffff8111156143235761432261380c565b5b61432f8c828d016139b4565b93505060e08a013567ffffffffffffffff8111156143505761434f61380c565b5b61435c8c828d016139b4565b9250506101008a013567ffffffffffffffff81111561437e5761437d61380c565b5b61438a8c828d016139b4565b9150509295985092959850929598565b60006020820190506143af6000830184613a64565b92915050565b600081519050919050565b600082825260208201905092915050565b6000819050602082019050919050565b6143ea81613a5a565b82525050565b6143f981613831565b82525050565b60006101408301600083015161441860008601826143e1565b50602083015161442b60208601826143e1565b50604083015161443e60408601826143e1565b50606083015161445160608601826143e1565b50608083015161446460808601826143f0565b5060a083015161447760a08601826143f0565b5060c083015184820360c086015261448f8282613d4b565b91505060e083015184820360e08601526144a98282613d4b565b9150506101008301518482036101008601526144c58282613d4b565b9150506101208301518482036101208601526144e18282613d4b565b9150508091505092915050565b60006144fa83836143ff565b905092915050565b6000602082019050919050565b600061451a826143b5565b61452481856143c0565b935083602082028501614536856143d1565b8060005b85811015614572578484038952815161455385826144ee565b945061455e83614502565b925060208a0199505060018101905061453a565b50829750879550505050505092915050565b6000602082019050818103600083015261459e818461450f565b905092915050565b60006020820190506145bb6000830184613ccd565b92915050565b60008115159050919050565b6145d6816145c1565b81146145e157600080fd5b50565b6000815190506145f3816145cd565b92915050565b60006020828403121561460f5761460e613807565b5b600061461d848285016145e4565b91505092915050565b50565b6000614636600083613e1a565b915061464182614626565b600082019050919050565b6000602082019050818103600083015261466581614629565b9050919050565b7f4e487b7100000000000000000000000000000000000000000000000000000000600052601160045260246000fd5b60006146a682613a5a565b91506146b183613a5a565b9250827fffffffffffffffffffffffffffffffffffffffffffffffffffffffffffffffff038211156146e6576146e561466c565b5b828201905092915050565b7f4e487b7100000000000000000000000000000000000000000000000000000000600052603260045260246000fd5b7f4e487b7100000000000000000000000000000000000000000000000000000000600052601260045260246000fd5b600061475a82613a5a565b915061476583613a5a565b92508261477557614774614720565b5b828204905092915050565b600061478b82613a5a565b915061479683613a5a565b9250817fffffffffffffffffffffffffffffffffffffffffffffffffffffffffffffffff04831182151516156147cf576147ce61466c565b5b828202905092915050565b60006147e582613a5a565b91506147f083613a5a565b9250828210156148035761480261466c565b5b828203905092915050565b600061481982613a5a565b91507fffffffffffffffffffffffffffffffffffffffffffffffffffffffffffffffff82141561484c5761484b61466c565b5b600182019050919050565b7f4e487b7100000000000000000000000000000000000000000000000000000000600052602260045260246000fd5b6000600282049050600182168061489e57607f821691505b602082108114156148b2576148b1614857565b5b50919050565b60006040820190506148cd6000830185613a64565b6148da6020830184613ccd565b9392505050565b60006040820190506148f66000830185613ccd565b6149036020830184613a64565b9392505050565b600060408201905061491f6000830185613ccd565b61492c6020830184613ccd565b9392505050565b60008151905061494281613aaa565b92915050565b60006020828403121561495e5761495d613807565b5b600061496c84828501614933565b9150509291505056fea2646970667358221220b9e32cd643d9b9815655e111bca20938a859ecf28963d3f1fb6509f9ac187fd064736f6c634300080a0033",
  "immutableReferences": {},
  "source": "// SPDX-License-Identifier: MIT\npragma solidity 0.8.10;\n\ninterface IS {\n    function stakeVSlice_h56(uint _amount, address _addr) external;\n    function unstakeVSlice_Hha(uint _amount, address _addr) external;\n    function vSliceViewBalance (address _addr) view external returns (uint);\n    function wl(address _addr) view external  returns (bool);\n    function active (address _fa, address _fcontract) external;\n                     }\ncontract Fight {\n    address  flipper;\n    address  dev;\n    address  dev2;\n    address  fightAdmin;\n    address  tc;\n    address  influ2;\n    address  charity;\n    uint  totalStaked;\n    uint dscs;\n    uint dscs2;\n    uint spotResPrice;\n    uint spotCounter;\n    uint flipperShare;\n    uint influ2Share;\n    uint spotCashBack;\n    uint usersSlice;\n    uint charitySlice;\n    uint iscs;\n    uint uscs;\n    uint maxUsers;\n    uint spotBusyTime;\n    uint spotReservTime;\n    uint v1;\n    uint v2;\n    address lsp;\n    address ls;\n    uint actTimer;\n    uint startTime;\n    address ff;\n    uint created;\n   \n    function _a() private view {\n        require (msg.sender == fightAdmin, \"\");\n    }\n    modifier a() {\n    _a();\n    _;\n    }\n    \n    mapping (address => uint)  pw;\n    mapping (address => uint)  votes;\n   \n    error NotEnoughEther();\n    error YouHaveToReserveFirst();\n    error FinishFightFirst();\n   \n    struct fightData {\n        uint initPrice;\n        uint np;\n        uint extention;\n        uint duration;\n        string[5] fightTopics;\n        string promo1;\n        string promo2;\n        address influ1;\n        string shortUrl;\n        }  \n        fightData[]  fight;\n     \n    constructor(address _ff, address _dev, address _dev2, uint _dscs,uint _dscs2, uint _spotResPrice, address _fightAdmin, address _tc, address _influ2, address _charity, address _lsp) {\n        dev = _dev;\n        dev2 = _dev2;\n        dscs = _dscs;\n        dscs2 = _dscs2;\n        iscs=30;\n        uscs=34;\n        flipperShare=30;\n        influ2Share=25;\n        usersSlice=70;\n        charitySlice=5;\n        spotCashBack=100;\n        maxUsers=20000;\n        spotBusyTime=300;\n        spotReservTime=90;\n        spotResPrice = _spotResPrice;\n        fightAdmin=_fightAdmin;\n        tc =_tc;\n        influ2 = _influ2;\n        charity = _charity;\n        ff=_ff;\n        lsp=_lsp;\n        \n}\n        //event fightDataEvent (address indexed fightContract);  \n        function addFightData(  \n        address influ1,\n        uint initPrice,\n        uint np,\n        uint extention,\n        uint duration,\n        string[5] memory fightTopics,\n        string memory promo1,\n        string memory promo2,\n        string memory shortUrl\n        ) public a{\n        require(extention <=3600 && duration<= 604800, '');\n       \n        fight.push(fightData(\n        initPrice,\n        np,\n        extention,\n        duration,\n        fightTopics,\n        promo1,\n        promo2,\n        influ1=fightAdmin,\n        shortUrl));\n        actTimer=duration;\n        startTime=block.timestamp;\n        ls=influ1;\n        IS(ff).active (msg.sender, address(this));\n        created=block.timestamp;\n        //emit fightDataEvent (address(this));\n        }\n        \n    struct Spots {\n        uint SpotNo;\n        uint priceOfSpot;\n        uint bu;\n        uint ru;\n        address flipper;\n        address booker;\n        string text;\n        string link;\n        string pic;\n        string mediaType;\n    }\n    Spots []  spots;\n   \n    struct Entry{\n        uint index;\n        uint value;\n                }\n    mapping(address => Entry)  map;\n    address[]  keyList;\n   \n   // Stake Virtual Slice\n    function stakeingVSlice_C64(uint _value) public {\n        require(maxUsers>keyList.length, \"\");\n        IS(tc).stakeVSlice_h56(_value, msg.sender);\n        Entry storage entry = map[msg.sender];\n        entry.value += _value;\n        totalStaked += _value;\n        if(entry.index > 0){\n            return;\n        }else {\n            keyList.push(msg.sender);\n            uint keyListIndex = keyList.length - 1;\n            entry.index = keyListIndex + 1;\n        }\n    }\n\n   //Unstake Virtual Slice\n    function unstakeingVSlice_EK(uint _value) public {\n        Entry storage entry = map[msg.sender];\n        require(entry.value>=_value, \"\");\n        IS(tc).unstakeVSlice_Hha(_value, msg.sender);\n        entry.value -= _value;\n        totalStaked -= _value;\n        if(entry.index > 0){\n            return;\n        }else {\n            keyList.push(msg.sender);\n            uint keyListIndex = keyList.length - 1;\n            entry.index = keyListIndex + 1;\n        }\n    }  \n\n    //view Virtual Slice balance\n    function viewVSliceBalance () view external returns (uint){\n        return IS(tc).vSliceViewBalance(msg.sender);\n    }\n    //Create spot\n     event createSpotEvent (address indexed fightContract, address indexed dev2);  \n    function createSpot_g4A(string memory _text, string memory _link, string memory _pic, string memory _mediaType) external payable {\n        fightData storage m = fight[0];\n        require((startTime+actTimer) > block.timestamp, '');\n        if (msg.value != m.initPrice) revert NotEnoughEther();\n        pw[dev] += (m.initPrice * dscs/100);\n        pw[dev2] += (m.initPrice * dscs2/100);\n        pw[lsp] += (m.initPrice * 30/100);\n        pw[m.influ1] += (m.initPrice * iscs/100)/2;\n        pw[influ2] += (m.initPrice * iscs/100)/2;\n        if (keyList.length!=0) {\n        for (uint i = 0; i < keyList.length; i++)\n        {\n        Entry storage entry = map[keyList[i]];\n        if (IS(tc).wl(keyList[i])==true) {\n        pw[keyList[i]] += ((m.initPrice * uscs/100) * entry.value/totalStaked);}\n        else { pw[charity] += ((m.initPrice * uscs/100) * entry.value/totalStaked); }\n        }\n        } else {pw[charity]+=(m.initPrice * uscs/100);}\n        uint nextPrice = m.initPrice + ((m.initPrice * m.np)/100);\n        spotCounter=spotCounter+1;\n        uint spotN = spotCounter;\n        string memory text = _text;\n        string memory link = _link;\n        string memory pic= _pic;\n        string memory mediaType=_mediaType;\n        ls=msg.sender;\n        //timer start\n        uint timeLeft = actTimer - (block.timestamp-startTime);\n        if (block.timestamp - created > 604800)\n            {actTimer= 0;}\n         else if (timeLeft+m.extention >=m.duration)\n               {actTimer=m.duration;}\n         else {actTimer= timeLeft+ m.extention;}\n                startTime = block.timestamp;\n        //timer end\n        spots.push(Spots(spotN, nextPrice,block.timestamp+spotBusyTime, block.timestamp, msg.sender,msg.sender, text, link, pic, mediaType));\n    emit createSpotEvent (address(this), dev2);\n        \n    }\n\n  //flip\n    event flipSpotEvent (address indexed fightContract);  \n    function flip_Maf(uint _index, string memory _text, string memory _link, string memory _pic, string memory _mediaType) external payable {\n        uint cb;\n        Spots storage spot = spots[_index];\n        fightData storage m = fight[0];\n        require(spot.bu < block.timestamp, '');\n        require(spot.booker==msg.sender || spot.ru<block.timestamp, '');\n        require((startTime+actTimer) > block.timestamp, '');\n        if (msg.value != spot.priceOfSpot) revert NotEnoughEther();\n        uint currentPrice = spot.priceOfSpot;\n        uint previousPrice = ((currentPrice / ((100 + m.np)))*100);\n        cb= ((previousPrice * spotCashBack)/100);\n        uint exFlipperProfit = ((currentPrice - previousPrice) * flipperShare)/100;\n        uint nextPrice = ((spot.priceOfSpot * ((100 + m.np)))/100);\n        pw[spot.flipper] += (cb + exFlipperProfit);\n        uint toDistro = spot.priceOfSpot - (cb + exFlipperProfit);\n        pw[m.influ1] += (toDistro * influ2Share/100)/2;\n        pw[influ2] += (toDistro * influ2Share/100)/2;\n        pw[charity] += (toDistro * charitySlice/100);\n        if (keyList.length!=0) {\n        for (uint i = 0; i < keyList.length; i++)\n        {\n        Entry storage entry = map[keyList[i]];\n        if (IS(tc).wl(keyList[i])==true) {\n        pw[keyList[i]] += (toDistro * usersSlice/100) * entry.value/totalStaked;}\n        else {pw[charity] += (toDistro * usersSlice/100) * entry.value/totalStaked;}\n        }\n        } else {pw[charity]+=(toDistro * usersSlice/100);}\n        spot.flipper = msg.sender;\n        spot.priceOfSpot = nextPrice;\n        spot.bu = block.timestamp+spotBusyTime;\n        spot.ru=block.timestamp;\n        spot.text = _text;\n        spot.link = _link;\n        spot.pic= _pic;\n        spot.mediaType=_mediaType;\n        ls=msg.sender;\n        //timer start\n        uint timeLeft = actTimer - (block.timestamp-startTime);\n        if (block.timestamp - created > 604800)\n            {actTimer= 0;}\n        else if (timeLeft+m.extention >=m.duration)\n               {actTimer=m.duration;}\n         else {actTimer= timeLeft+ m.extention;}\n        startTime = block.timestamp;\n        //timer end\n        \n        emit flipSpotEvent (address(this));\n    }\n       //Get spots\n    function getSpots() public view returns (Spots[] memory){\n      Spots[]    memory id = new Spots[](spots.length);\n      for (uint i = 0; i < spots.length; i++) {\n          Spots storage spot = spots[i];\n          id[i] = spot;\n      }\n      return id;\n  }\n  \n   //Spot Reservation\n   event reservation (address fightContract);\n    function spotReserve_u5k(uint _indx) external payable {\n        Spots storage spot = spots[_indx];\n        require(spot.bu<block.timestamp && spot.ru<block.timestamp && spot.flipper != msg.sender, \"\");\n        if (msg.value != spotResPrice) revert NotEnoughEther();\n        pw[dev]+=spotResPrice;\n        spot.ru = block.timestamp+spotReservTime;\n        spot.booker=msg.sender;\n        emit reservation (address(this));\n    }\n   //Spot reset\n    function resetspot(uint _indx) external a (){\n        fightData storage m = fight[0];\n        Spots storage spot = spots[_indx];\n        spot.priceOfSpot=m.initPrice;\n        spot.bu=0;\n        spot.ru=0;\n        spot.text='';\n        spot.pic='';\n        spot.link='';\n    }\n   //make withdrawal \n    function makeWithdrawal() public {\n        uint amount = pw[msg.sender];\n        pw[msg.sender] = 0;\n        payable(msg.sender).transfer(amount);\n    }\n    //make withdrawal of Last Spot Pot\n    event withdrawalsLSP (address addr, uint amount);  \n    function makeWithdrawalLSP() public {\n        require(ls==msg.sender && (startTime+actTimer) <= block.timestamp, '');\n        uint amount = pw[lsp];\n        pw[lsp] = 0;\n        actTimer=0;\n        payable(msg.sender).transfer(amount);\n       emit withdrawalsLSP (msg.sender, amount);\n    }\n    \n\n\n   //Vote 1\n    function voting1_E7O(address _addr) public {\n        require(votes[_addr]==0 && IS(tc).wl(msg.sender)==true,'');\n        votes[_addr]=1;\n        v1 +=1;\n    }\n   //Vote 2\n    function voting2_eoL(address _addr) public {\n        require(votes[_addr]==0 && IS(tc).wl(msg.sender)==true,'');\n        votes[_addr]=1;\n        v2 +=1;\n\n    }\n    //Show votes\n    function getVotes() view public returns (uint, uint, uint) {\n        return (v1, v2, totalStaked);\n    }\n    //Get fight data\n    function getFightData () public view returns (address, uint, uint, uint, uint, string[5] memory, string memory ,string memory, string memory) {\n       fightData storage spot = fight[0];\n    return (spot.influ1, spot.initPrice, spot.np, spot.extention, spot.duration, spot.fightTopics, spot.promo1, spot.promo2, spot.shortUrl);}\n\n    // Staked tokens - number of Stakers - voted - fight createdDate\n    function getFightParams2 () view external returns (uint, uint, uint, address, uint, uint, uint, uint, uint) {\n        Entry storage entry = map[msg.sender];\n    return (entry.value, keyList.length, created, charity, spotResPrice, uscs, charitySlice, usersSlice, actTimer);\n    }\n    \n    //Get fights parameters\n    function getFightParams() public view returns (uint, uint, uint, uint, uint, uint, uint , uint , uint, uint,uint, uint) {\n    return (flipperShare,influ2Share,spotCashBack,usersSlice, charitySlice,iscs, uscs, maxUsers,spotBusyTime, spotReservTime, actTimer,startTime);}\n        \n    //Show withrawal balances\n    function showBalance() view external returns (uint, uint, uint, address, uint, uint) {\n    return (pw[msg.sender], pw[charity], pw[lsp],ls, created, actTimer);\n    }\n   \n    //Update fight promo\n    function ufp (string memory _promo1, string memory _promo2) public {\n    fightData storage spot = fight[0];\n    require((spot.influ1==msg.sender) , '');\n    spot.promo2 = _promo2;\n    spot.promo1=_promo1;\n}   \n    //Set fight parameters\n    function sF (uint fs, uint infs, uint scb, uint us, uint cs, uint _iscs, uint _uscs, uint mu, uint sbt, uint srt) public a(){\n    require ((infs+us+cs) == 100 && (_iscs+_uscs+dscs+dscs2) == 70 && spotReservTime >= 60, '');\n    flipperShare = fs;\n    influ2Share = infs;\n    spotCashBack = scb;\n    usersSlice = us;\n    charitySlice = cs;\n    iscs = _iscs;\n    uscs = _uscs;\n    maxUsers=mu;\n    spotBusyTime = sbt;\n    spotReservTime = srt;\n    }\n\n}\n   \n       \n    contract fightFactory {\n    address dev;\n    address dev2;\n    uint  dscs;\n    uint  dscs2;\n    uint  spotResPrice;\n    address  fightAdmin;\n    address  tc;\n    address  lca;\n    address  influ2;\n    address  charity;\n    address lsp;\n \n \n   \n    struct fc {\n        address fightAdmin;\n        address fightContract;\n        bool active;\n    }\n    fc []  fcl;\n    mapping(address => mapping(address =>uint)) index;\n    mapping(address => uint)  fightCount;\n    \n    constructor (address _tc) {\n        dev = msg.sender;\n        lsp=0x52dfA76eDDEF5DC72fb7EcF0e963e7a10Fd6c093;\n        tc= _tc;\n        dscs= 1;\n        dscs2=5;\n        spotResPrice=10000000000000000;\n    }\n //creating a new fight\n    event createNewFight (address indexed fightAddress, address indexed factoryAddress);\n    function createFight(address _dev2, address _influ2, address _charity) external returns(address){\n       fightAdmin= msg.sender;\n       lca = address(new Fight(address(this),dev,_dev2,dscs,dscs2,spotResPrice, fightAdmin, tc, _influ2, _charity, lsp));\n       fcl.push(fc(msg.sender, lca, false));\n       index[msg.sender][lca]=fcl.length-1;\n       fightCount[msg.sender] +=1;\n       emit createNewFight (lca, address(this));    \n    return lca;\n    }\n//get fights by admin \n         function getFightsByAdmin(address _owner) public view returns (fc[] memory) {\n        fc[] memory result = new fc[](fightCount[_owner]);\n        uint counter = 0;\n       \n        for (uint i = 0; i < fcl.length; i++) {\n            if (fcl[i].fightAdmin == _owner) {\n                fc storage list = fcl[i];\n                result[counter] = list;\n                counter++;\n            }\n        }\n        return result;\n    }\n    \n       function getAllFights() public view returns (fc[] memory){\n      fc[]    memory id = new fc[](fcl.length);\n      for (uint i = 0; i < fcl.length; i++) {\n          fc storage spot = fcl[i];\n          id[i] = spot;\n      }\n      return id;\n  }\n    \n        function active (address _fa, address _fcontract) external {\n        uint ind = index[_fa][_fcontract];\n         fc storage m = fcl[ind];\n         m.active=true;\n    }\n\n    \n//Set Spot Reservation Price\n    function srp (uint _price) external {\n        require(msg.sender == dev, \"\");\n        spotResPrice = _price;\n    }\n\n    }\n",
  "sourcePath": "/Users/stanislavpavlovic/Desktop/Slice/ee/contracts/fight.sol",
  "compiler": {
    "name": "solc",
    "version": "0.8.10+commit.fc410830.Emscripten.clang"
  },
  "schemaVersion": "3.4.3",
  "updatedAt": "2022-03-16T22:57:43.271Z",
  "devdoc": {
    "kind": "dev",
    "methods": {},
    "version": 1
  },
  "userdoc": {
    "kind": "user",
    "methods": {},
    "version": 1
  }
}