{
  "contractName": "slice",
  "abi": [
    {
      "inputs": [
        {
          "internalType": "string",
          "name": "name",
          "type": "string"
        },
        {
          "internalType": "string",
          "name": "symbol",
          "type": "string"
        }
      ],
      "stateMutability": "nonpayable",
      "type": "constructor"
    },
    {
      "inputs": [],
      "name": "NotEnoughEther",
      "type": "error"
    },
    {
      "anonymous": false,
      "inputs": [
        {
          "indexed": true,
          "internalType": "address",
          "name": "owner",
          "type": "address"
        },
        {
          "indexed": true,
          "internalType": "address",
          "name": "spender",
          "type": "address"
        },
        {
          "indexed": false,
          "internalType": "uint256",
          "name": "value",
          "type": "uint256"
        }
      ],
      "name": "Approval",
      "type": "event"
    },
    {
      "anonymous": false,
      "inputs": [
        {
          "indexed": false,
          "internalType": "uint256",
          "name": "date",
          "type": "uint256"
        },
        {
          "indexed": true,
          "internalType": "address",
          "name": "reporter",
          "type": "address"
        },
        {
          "indexed": true,
          "internalType": "address",
          "name": "reported",
          "type": "address"
        }
      ],
      "name": "BadActors",
      "type": "event"
    },
    {
      "anonymous": false,
      "inputs": [
        {
          "indexed": false,
          "internalType": "uint256",
          "name": "date",
          "type": "uint256"
        },
        {
          "indexed": true,
          "internalType": "address",
          "name": "reporter",
          "type": "address"
        },
        {
          "indexed": true,
          "internalType": "address",
          "name": "reported",
          "type": "address"
        }
      ],
      "name": "GoodActors",
      "type": "event"
    },
    {
      "anonymous": false,
      "inputs": [
        {
          "indexed": true,
          "internalType": "address",
          "name": "from",
          "type": "address"
        },
        {
          "indexed": true,
          "internalType": "address",
          "name": "to",
          "type": "address"
        },
        {
          "indexed": false,
          "internalType": "uint256",
          "name": "value",
          "type": "uint256"
        }
      ],
      "name": "Transfer",
      "type": "event"
    },
    {
      "anonymous": false,
      "inputs": [
        {
          "indexed": true,
          "internalType": "address",
          "name": "minter",
          "type": "address"
        },
        {
          "indexed": false,
          "internalType": "string",
          "name": "Lat",
          "type": "string"
        },
        {
          "indexed": false,
          "internalType": "string",
          "name": "Lon",
          "type": "string"
        },
        {
          "indexed": false,
          "internalType": "string",
          "name": "Nick",
          "type": "string"
        }
      ],
      "name": "mintersFree",
      "type": "event"
    },
    {
      "anonymous": false,
      "inputs": [
        {
          "indexed": false,
          "internalType": "uint256",
          "name": "date",
          "type": "uint256"
        },
        {
          "indexed": true,
          "internalType": "address",
          "name": "minter",
          "type": "address"
        },
        {
          "indexed": false,
          "internalType": "string",
          "name": "Lat",
          "type": "string"
        },
        {
          "indexed": false,
          "internalType": "string",
          "name": "Lon",
          "type": "string"
        },
        {
          "indexed": false,
          "internalType": "string",
          "name": "Nick",
          "type": "string"
        }
      ],
      "name": "newMinter",
      "type": "event"
    },
    {
      "inputs": [
        {
          "internalType": "address",
          "name": "owner",
          "type": "address"
        },
        {
          "internalType": "address",
          "name": "spender",
          "type": "address"
        }
      ],
      "name": "allowance",
      "outputs": [
        {
          "internalType": "uint256",
          "name": "",
          "type": "uint256"
        }
      ],
      "stateMutability": "view",
      "type": "function",
      "constant": true
    },
    {
      "inputs": [
        {
          "internalType": "address",
          "name": "spender",
          "type": "address"
        },
        {
          "internalType": "uint256",
          "name": "amount",
          "type": "uint256"
        }
      ],
      "name": "approve",
      "outputs": [
        {
          "internalType": "bool",
          "name": "",
          "type": "bool"
        }
      ],
      "stateMutability": "nonpayable",
      "type": "function"
    },
    {
      "inputs": [
        {
          "internalType": "address",
          "name": "account",
          "type": "address"
        }
      ],
      "name": "balanceOf",
      "outputs": [
        {
          "internalType": "uint256",
          "name": "",
          "type": "uint256"
        }
      ],
      "stateMutability": "view",
      "type": "function",
      "constant": true
    },
    {
      "inputs": [],
      "name": "decimals",
      "outputs": [
        {
          "internalType": "uint8",
          "name": "",
          "type": "uint8"
        }
      ],
      "stateMutability": "view",
      "type": "function",
      "constant": true
    },
    {
      "inputs": [
        {
          "internalType": "address",
          "name": "spender",
          "type": "address"
        },
        {
          "internalType": "uint256",
          "name": "subtractedValue",
          "type": "uint256"
        }
      ],
      "name": "decreaseAllowance",
      "outputs": [
        {
          "internalType": "bool",
          "name": "",
          "type": "bool"
        }
      ],
      "stateMutability": "nonpayable",
      "type": "function"
    },
    {
      "inputs": [],
      "name": "fightMintBalance",
      "outputs": [
        {
          "internalType": "uint256",
          "name": "",
          "type": "uint256"
        }
      ],
      "stateMutability": "view",
      "type": "function",
      "constant": true
    },
    {
      "inputs": [],
      "name": "fightMintSupply",
      "outputs": [
        {
          "internalType": "uint256",
          "name": "",
          "type": "uint256"
        }
      ],
      "stateMutability": "view",
      "type": "function",
      "constant": true
    },
    {
      "inputs": [
        {
          "internalType": "address",
          "name": "spender",
          "type": "address"
        },
        {
          "internalType": "uint256",
          "name": "addedValue",
          "type": "uint256"
        }
      ],
      "name": "increaseAllowance",
      "outputs": [
        {
          "internalType": "bool",
          "name": "",
          "type": "bool"
        }
      ],
      "stateMutability": "nonpayable",
      "type": "function"
    },
    {
      "inputs": [],
      "name": "marketing1",
      "outputs": [
        {
          "internalType": "address",
          "name": "",
          "type": "address"
        }
      ],
      "stateMutability": "view",
      "type": "function",
      "constant": true
    },
    {
      "inputs": [],
      "name": "name",
      "outputs": [
        {
          "internalType": "string",
          "name": "",
          "type": "string"
        }
      ],
      "stateMutability": "view",
      "type": "function",
      "constant": true
    },
    {
      "inputs": [],
      "name": "symbol",
      "outputs": [
        {
          "internalType": "string",
          "name": "",
          "type": "string"
        }
      ],
      "stateMutability": "view",
      "type": "function",
      "constant": true
    },
    {
      "inputs": [],
      "name": "totalSupply",
      "outputs": [
        {
          "internalType": "uint256",
          "name": "",
          "type": "uint256"
        }
      ],
      "stateMutability": "view",
      "type": "function",
      "constant": true
    },
    {
      "inputs": [
        {
          "internalType": "address",
          "name": "recipient",
          "type": "address"
        },
        {
          "internalType": "uint256",
          "name": "amount",
          "type": "uint256"
        }
      ],
      "name": "transfer",
      "outputs": [
        {
          "internalType": "bool",
          "name": "",
          "type": "bool"
        }
      ],
      "stateMutability": "nonpayable",
      "type": "function"
    },
    {
      "inputs": [
        {
          "internalType": "address",
          "name": "sender",
          "type": "address"
        },
        {
          "internalType": "address",
          "name": "recipient",
          "type": "address"
        },
        {
          "internalType": "uint256",
          "name": "amount",
          "type": "uint256"
        }
      ],
      "name": "transferFrom",
      "outputs": [
        {
          "internalType": "bool",
          "name": "",
          "type": "bool"
        }
      ],
      "stateMutability": "nonpayable",
      "type": "function"
    },
    {
      "inputs": [
        {
          "internalType": "address",
          "name": "_fa",
          "type": "address"
        }
      ],
      "name": "fightMint",
      "outputs": [],
      "stateMutability": "nonpayable",
      "type": "function"
    },
    {
      "inputs": [],
      "name": "rewards_for_fights",
      "outputs": [],
      "stateMutability": "nonpayable",
      "type": "function"
    },
    {
      "inputs": [
        {
          "internalType": "address",
          "name": "_addr",
          "type": "address"
        }
      ],
      "name": "readFightRewards",
      "outputs": [
        {
          "internalType": "uint256",
          "name": "",
          "type": "uint256"
        },
        {
          "internalType": "uint256",
          "name": "",
          "type": "uint256"
        },
        {
          "internalType": "bool",
          "name": "",
          "type": "bool"
        }
      ],
      "stateMutability": "view",
      "type": "function",
      "constant": true
    },
    {
      "inputs": [],
      "name": "marketing_reward",
      "outputs": [],
      "stateMutability": "nonpayable",
      "type": "function"
    },
    {
      "inputs": [
        {
          "internalType": "address",
          "name": "_addr1",
          "type": "address"
        }
      ],
      "name": "changeMarketing1",
      "outputs": [],
      "stateMutability": "nonpayable",
      "type": "function"
    },
    {
      "inputs": [
        {
          "internalType": "address",
          "name": "_addr",
          "type": "address"
        }
      ],
      "name": "reportBadActor",
      "outputs": [],
      "stateMutability": "nonpayable",
      "type": "function"
    },
    {
      "inputs": [
        {
          "internalType": "address",
          "name": "_addr",
          "type": "address"
        }
      ],
      "name": "reportGoodActor",
      "outputs": [],
      "stateMutability": "payable",
      "type": "function",
      "payable": true
    },
    {
      "inputs": [
        {
          "internalType": "string",
          "name": "_gpsLat",
          "type": "string"
        },
        {
          "internalType": "string",
          "name": "_gpsLon",
          "type": "string"
        },
        {
          "internalType": "string",
          "name": "_nickname",
          "type": "string"
        }
      ],
      "name": "AddToWhitelist",
      "outputs": [],
      "stateMutability": "nonpayable",
      "type": "function"
    },
    {
      "inputs": [
        {
          "internalType": "bytes",
          "name": "signature",
          "type": "bytes"
        },
        {
          "internalType": "string",
          "name": "_gpsLat",
          "type": "string"
        },
        {
          "internalType": "string",
          "name": "_gpsLon",
          "type": "string"
        },
        {
          "internalType": "string",
          "name": "_nickname",
          "type": "string"
        }
      ],
      "name": "addToWhitelist_a7I",
      "outputs": [],
      "stateMutability": "nonpayable",
      "type": "function"
    },
    {
      "inputs": [],
      "name": "SliceMinting",
      "outputs": [],
      "stateMutability": "nonpayable",
      "type": "function"
    },
    {
      "inputs": [],
      "name": "vSliceMinting_ExW",
      "outputs": [],
      "stateMutability": "nonpayable",
      "type": "function"
    },
    {
      "inputs": [
        {
          "internalType": "uint256",
          "name": "_amount",
          "type": "uint256"
        },
        {
          "internalType": "address",
          "name": "_addr",
          "type": "address"
        }
      ],
      "name": "stakeVSlice_h56",
      "outputs": [],
      "stateMutability": "nonpayable",
      "type": "function"
    },
    {
      "inputs": [
        {
          "internalType": "uint256",
          "name": "_amount",
          "type": "uint256"
        },
        {
          "internalType": "address",
          "name": "_addr",
          "type": "address"
        }
      ],
      "name": "unstakeVSlice_Hha",
      "outputs": [],
      "stateMutability": "nonpayable",
      "type": "function"
    },
    {
      "inputs": [
        {
          "internalType": "address",
          "name": "_owner",
          "type": "address"
        }
      ],
      "name": "getStakedByStaker",
      "outputs": [
        {
          "components": [
            {
              "internalType": "address",
              "name": "staker",
              "type": "address"
            },
            {
              "internalType": "address",
              "name": "fightContract",
              "type": "address"
            }
          ],
          "internalType": "struct slice.StakedContracts[]",
          "name": "",
          "type": "tuple[]"
        }
      ],
      "stateMutability": "view",
      "type": "function",
      "constant": true
    },
    {
      "inputs": [
        {
          "internalType": "address",
          "name": "_fight",
          "type": "address"
        }
      ],
      "name": "getStakedByFight",
      "outputs": [
        {
          "components": [
            {
              "internalType": "address",
              "name": "staker",
              "type": "address"
            },
            {
              "internalType": "address",
              "name": "fightContract",
              "type": "address"
            }
          ],
          "internalType": "struct slice.StakedContracts[]",
          "name": "",
          "type": "tuple[]"
        }
      ],
      "stateMutability": "view",
      "type": "function",
      "constant": true
    },
    {
      "inputs": [],
      "name": "getAllMinters",
      "outputs": [
        {
          "components": [
            {
              "internalType": "uint256",
              "name": "goodCount",
              "type": "uint256"
            },
            {
              "internalType": "uint256",
              "name": "reported",
              "type": "uint256"
            },
            {
              "internalType": "uint256",
              "name": "lastMinted",
              "type": "uint256"
            },
            {
              "internalType": "string",
              "name": "gpsLat",
              "type": "string"
            },
            {
              "internalType": "string",
              "name": "gpsLon",
              "type": "string"
            },
            {
              "internalType": "string",
              "name": "nickname",
              "type": "string"
            },
            {
              "internalType": "bool",
              "name": "whitelisted",
              "type": "bool"
            },
            {
              "internalType": "address",
              "name": "addr",
              "type": "address"
            }
          ],
          "internalType": "struct slice.Minters[]",
          "name": "",
          "type": "tuple[]"
        }
      ],
      "stateMutability": "view",
      "type": "function",
      "constant": true
    },
    {
      "inputs": [
        {
          "internalType": "address",
          "name": "_addr",
          "type": "address"
        }
      ],
      "name": "getMinter",
      "outputs": [
        {
          "internalType": "uint256",
          "name": "",
          "type": "uint256"
        },
        {
          "internalType": "uint256",
          "name": "",
          "type": "uint256"
        },
        {
          "internalType": "uint256",
          "name": "",
          "type": "uint256"
        },
        {
          "internalType": "string",
          "name": "",
          "type": "string"
        },
        {
          "internalType": "string",
          "name": "",
          "type": "string"
        },
        {
          "internalType": "string",
          "name": "",
          "type": "string"
        },
        {
          "internalType": "bool",
          "name": "",
          "type": "bool"
        },
        {
          "internalType": "address",
          "name": "",
          "type": "address"
        }
      ],
      "stateMutability": "view",
      "type": "function",
      "constant": true
    },
    {
      "inputs": [
        {
          "internalType": "address",
          "name": "_addr",
          "type": "address"
        }
      ],
      "name": "isRegistered",
      "outputs": [
        {
          "internalType": "uint256",
          "name": "",
          "type": "uint256"
        }
      ],
      "stateMutability": "view",
      "type": "function",
      "constant": true
    },
    {
      "inputs": [
        {
          "internalType": "address",
          "name": "_addr",
          "type": "address"
        }
      ],
      "name": "wl",
      "outputs": [
        {
          "internalType": "bool",
          "name": "",
          "type": "bool"
        }
      ],
      "stateMutability": "view",
      "type": "function",
      "constant": true
    },
    {
      "inputs": [],
      "name": "getMintingSpeed",
      "outputs": [
        {
          "internalType": "uint256",
          "name": "",
          "type": "uint256"
        }
      ],
      "stateMutability": "view",
      "type": "function",
      "constant": true
    },
    {
      "inputs": [
        {
          "internalType": "address",
          "name": "newAdmin",
          "type": "address"
        }
      ],
      "name": "updateAdmin",
      "outputs": [],
      "stateMutability": "nonpayable",
      "type": "function"
    },
    {
      "inputs": [
        {
          "internalType": "address",
          "name": "_newSigner",
          "type": "address"
        }
      ],
      "name": "updateSigner",
      "outputs": [],
      "stateMutability": "nonpayable",
      "type": "function"
    },
    {
      "inputs": [
        {
          "internalType": "address",
          "name": "_addr",
          "type": "address"
        }
      ],
      "name": "vSliceViewBalance",
      "outputs": [
        {
          "internalType": "uint256",
          "name": "",
          "type": "uint256"
        }
      ],
      "stateMutability": "view",
      "type": "function",
      "constant": true
    },
    {
      "inputs": [],
      "name": "getStakedBalance",
      "outputs": [
        {
          "internalType": "uint256",
          "name": "",
          "type": "uint256"
        }
      ],
      "stateMutability": "view",
      "type": "function",
      "constant": true
    },
    {
      "inputs": [],
      "name": "getStart",
      "outputs": [
        {
          "internalType": "uint256",
          "name": "",
          "type": "uint256"
        }
      ],
      "stateMutability": "view",
      "type": "function",
      "constant": true
    },
    {
      "inputs": [
        {
          "internalType": "uint256",
          "name": "_p",
          "type": "uint256"
        }
      ],
      "name": "setGoodP",
      "outputs": [],
      "stateMutability": "nonpayable",
      "type": "function"
    },
    {
      "inputs": [],
      "name": "getGoodP",
      "outputs": [
        {
          "internalType": "uint256",
          "name": "",
          "type": "uint256"
        }
      ],
      "stateMutability": "view",
      "type": "function",
      "constant": true
    },
    {
      "inputs": [
        {
          "internalType": "uint256",
          "name": "_count",
          "type": "uint256"
        }
      ],
      "name": "updateWenBlock",
      "outputs": [],
      "stateMutability": "nonpayable",
      "type": "function"
    },
    {
      "inputs": [],
      "name": "countMinters",
      "outputs": [
        {
          "internalType": "uint256",
          "name": "",
          "type": "uint256"
        }
      ],
      "stateMutability": "view",
      "type": "function",
      "constant": true
    },
    {
      "inputs": [
        {
          "internalType": "uint256",
          "name": "_count",
          "type": "uint256"
        }
      ],
      "name": "updateMaxGoodCount",
      "outputs": [],
      "stateMutability": "nonpayable",
      "type": "function"
    },
    {
      "inputs": [],
      "name": "sliceParams",
      "outputs": [
        {
          "internalType": "uint256",
          "name": "",
          "type": "uint256"
        },
        {
          "internalType": "uint256",
          "name": "",
          "type": "uint256"
        },
        {
          "internalType": "uint256",
          "name": "",
          "type": "uint256"
        },
        {
          "internalType": "uint256",
          "name": "",
          "type": "uint256"
        },
        {
          "internalType": "uint256",
          "name": "",
          "type": "uint256"
        },
        {
          "internalType": "uint256",
          "name": "",
          "type": "uint256"
        },
        {
          "internalType": "address",
          "name": "",
          "type": "address"
        },
        {
          "internalType": "uint256",
          "name": "",
          "type": "uint256"
        },
        {
          "internalType": "uint256",
          "name": "",
          "type": "uint256"
        }
      ],
      "stateMutability": "view",
      "type": "function",
      "constant": true
    },
    {
      "inputs": [],
      "name": "reputation",
      "outputs": [],
      "stateMutability": "nonpayable",
      "type": "function"
    }
  ],
  "bytecode": "0x60806040523480156200001157600080fd5b506040516200675e3803806200675e833981810160405281019062000037919062000468565b81818160039080519060200190620000519291906200021b565b5080600490805190602001906200006a9291906200021b565b50505042600581905550620000846200021260201b60201c565b60ff16600a6200009591906200067a565b6064620000a39190620006cb565b600681905550620000b96200021260201b60201c565b60ff16600a620000ca91906200067a565b6014620000d89190620006cb565b60108190555033600860006101000a81548173ffffffffffffffffffffffffffffffffffffffff021916908373ffffffffffffffffffffffffffffffffffffffff16021790555073d6af7959290caee9e8564ec80a33b92335d6232c600960006101000a81548173ffffffffffffffffffffffffffffffffffffffff021916908373ffffffffffffffffffffffffffffffffffffffff16021790555073a16392cb56e13367578795db9f6459485571d2fa600e60006101000a81548173ffffffffffffffffffffffffffffffffffffffff021916908373ffffffffffffffffffffffffffffffffffffffff1602179055506002600a819055506001600b81905550603c600c81905550662386f26fc10000600d819055506000600e60146101000a81548160ff021916908315150217905550505062000791565b60006012905090565b82805462000229906200075b565b90600052602060002090601f0160209004810192826200024d576000855562000299565b82601f106200026857805160ff191683800117855562000299565b8280016001018555821562000299579182015b82811115620002985782518255916020019190600101906200027b565b5b509050620002a89190620002ac565b5090565b5b80821115620002c7576000816000905550600101620002ad565b5090565b6000604051905090565b600080fd5b600080fd5b600080fd5b600080fd5b6000601f19601f8301169050919050565b7f4e487b7100000000000000000000000000000000000000000000000000000000600052604160045260246000fd5b6200033482620002e9565b810181811067ffffffffffffffff82111715620003565762000355620002fa565b5b80604052505050565b60006200036b620002cb565b905062000379828262000329565b919050565b600067ffffffffffffffff8211156200039c576200039b620002fa565b5b620003a782620002e9565b9050602081019050919050565b60005b83811015620003d4578082015181840152602081019050620003b7565b83811115620003e4576000848401525b50505050565b600062000401620003fb846200037e565b6200035f565b90508281526020810184848401111562000420576200041f620002e4565b5b6200042d848285620003b4565b509392505050565b600082601f8301126200044d576200044c620002df565b5b81516200045f848260208601620003ea565b91505092915050565b60008060408385031215620004825762000481620002d5565b5b600083015167ffffffffffffffff811115620004a357620004a2620002da565b5b620004b18582860162000435565b925050602083015167ffffffffffffffff811115620004d557620004d4620002da565b5b620004e38582860162000435565b9150509250929050565b7f4e487b7100000000000000000000000000000000000000000000000000000000600052601160045260246000fd5b60008160011c9050919050565b6000808291508390505b60018511156200057b57808604811115620005535762000552620004ed565b5b6001851615620005635780820291505b808102905062000573856200051c565b945062000533565b94509492505050565b60008262000596576001905062000669565b81620005a6576000905062000669565b8160018114620005bf5760028114620005ca5762000600565b600191505062000669565b60ff841115620005df57620005de620004ed565b5b8360020a915084821115620005f957620005f8620004ed565b5b5062000669565b5060208310610133831016604e8410600b84101617156200063a5782820a905083811115620006345762000633620004ed565b5b62000669565b62000649848484600162000529565b92509050818404811115620006635762000662620004ed565b5b81810290505b9392505050565b6000819050919050565b6000620006878262000670565b9150620006948362000670565b9250620006c37fffffffffffffffffffffffffffffffffffffffffffffffffffffffffffffffff848462000584565b905092915050565b6000620006d88262000670565b9150620006e58362000670565b9250817fffffffffffffffffffffffffffffffffffffffffffffffffffffffffffffffff0483118215151615620007215762000720620004ed565b5b828202905092915050565b7f4e487b7100000000000000000000000000000000000000000000000000000000600052602260045260246000fd5b600060028204905060018216806200077457607f821691505b602082108114156200078b576200078a6200072c565b5b50919050565b615fbd80620007a16000396000f3fe60806040526004361061027b5760003560e01c8063a457c2d71161014f578063c5292c67116100c1578063ddc14afe1161007a578063ddc14afe146109c0578063de094701146109eb578063e2f273bd14610a02578063e3917cfc14610a2b578063ec22be7a14610a68578063f10249b314610a935761027b565b8063c5292c67146108b2578063ca6ad40c146108dd578063d4f4648f14610908578063d517c93114610931578063d5c0f1fb1461095a578063dd62ed3e146109835761027b565b8063b14cc0e011610113578063b14cc0e0146107b1578063bc73b641146107c8578063c1354b5a1461080c578063c27bd3ee14610835578063c3c5a5471461085e578063c52164c61461089b5761027b565b8063a457c2d7146106db578063a7ecd37e14610718578063a9059cbb14610741578063b06f0ce21461077e578063b1098137146107955761027b565b80634b6d0088116101f357806382d6a17a116101ac57806382d6a17a146105cd5780638891b29e146105f65780638bf279a51461063357806395d89b411461065c578063a045442c14610687578063a412a69e146106b25761027b565b80634b6d00881461049f578063569a7a2c146104de5780635fbb70931461050957806361d42f6b1461053c57806370a082311461056557806376965867146105a25761027b565b806326c95e0a1161024557806326c95e0a146103675780632fee9e7e14610392578063313ce567146103cf57806335703a3a146103fa5780633950935114610437578063427ac82c146104745761027b565b8061d5981461028057806306fdde0314610297578063095ea7b3146102c257806318160ddd146102ff57806323b872dd1461032a575b600080fd5b34801561028c57600080fd5b50610295610abc565b005b3480156102a357600080fd5b506102ac610d1c565b6040516102b991906145e4565b60405180910390f35b3480156102ce57600080fd5b506102e960048036038101906102e491906146ae565b610dae565b6040516102f69190614709565b60405180910390f35b34801561030b57600080fd5b50610314610dcc565b6040516103219190614733565b60405180910390f35b34801561033657600080fd5b50610351600480360381019061034c919061474e565b610dd6565b60405161035e9190614709565b60405180910390f35b34801561037357600080fd5b5061037c610ece565b6040516103899190614733565b60405180910390f35b34801561039e57600080fd5b506103b960048036038101906103b491906147a1565b610ed8565b6040516103c69190614709565b60405180910390f35b3480156103db57600080fd5b506103e4610f2e565b6040516103f191906147ea565b60405180910390f35b34801561040657600080fd5b50610421600480360381019061041c91906147a1565b610f37565b60405161042e9190614733565b60405180910390f35b34801561044357600080fd5b5061045e600480360381019061045991906146ae565b610f80565b60405161046b9190614709565b60405180910390f35b34801561048057600080fd5b5061048961102c565b6040516104969190614814565b60405180910390f35b3480156104ab57600080fd5b506104c660048036038101906104c191906147a1565b611052565b6040516104d59392919061482f565b60405180910390f35b3480156104ea57600080fd5b506104f36110c3565b6040516105009190614733565b60405180910390f35b34801561051557600080fd5b5061051e6110c9565b60405161053399989796959493929190614866565b60405180910390f35b34801561054857600080fd5b50610563600480360381019061055e91906148f3565b61118e565b005b34801561057157600080fd5b5061058c600480360381019061058791906147a1565b61134e565b6040516105999190614733565b60405180910390f35b3480156105ae57600080fd5b506105b7611396565b6040516105c49190614733565b60405180910390f35b3480156105d957600080fd5b506105f460048036038101906105ef91906147a1565b6113dd565b005b34801561060257600080fd5b5061061d600480360381019061061891906147a1565b6114b1565b60405161062a9190614a20565b60405180910390f35b34801561063f57600080fd5b5061065a600480360381019061065591906147a1565b6116fe565b005b34801561066857600080fd5b50610671611876565b60405161067e91906145e4565b60405180910390f35b34801561069357600080fd5b5061069c611908565b6040516106a99190614c2a565b60405180910390f35b3480156106be57600080fd5b506106d960048036038101906106d49190614de1565b611c29565b005b3480156106e757600080fd5b5061070260048036038101906106fd91906146ae565b611fec565b60405161070f9190614709565b60405180910390f35b34801561072457600080fd5b5061073f600480360381019061073a91906147a1565b6120d7565b005b34801561074d57600080fd5b50610768600480360381019061076391906146ae565b612123565b6040516107759190614709565b60405180910390f35b34801561078a57600080fd5b50610793612141565b005b6107af60048036038101906107aa91906147a1565b612249565b005b3480156107bd57600080fd5b506107c6612791565b005b3480156107d457600080fd5b506107ef60048036038101906107ea91906147a1565b612876565b604051610803989796959493929190614ebd565b60405180910390f35b34801561081857600080fd5b50610833600480360381019061082e9190614f50565b612b00565b005b34801561084157600080fd5b5061085c60048036038101906108579190614ff7565b612e2c565b005b34801561086a57600080fd5b50610885600480360381019061088091906147a1565b612e3e565b6040516108929190614733565b60405180910390f35b3480156108a757600080fd5b506108b0612e87565b005b3480156108be57600080fd5b506108c7612fa6565b6040516108d49190614733565b60405180910390f35b3480156108e957600080fd5b506108f2612fb0565b6040516108ff9190614733565b60405180910390f35b34801561091457600080fd5b5061092f600480360381019061092a91906148f3565b612fbd565b005b34801561093d57600080fd5b5061095860048036038101906109539190614ff7565b61345f565b005b34801561096657600080fd5b50610981600480360381019061097c91906147a1565b613471565b005b34801561098f57600080fd5b506109aa60048036038101906109a59190615024565b61380d565b6040516109b79190614733565b60405180910390f35b3480156109cc57600080fd5b506109d5613894565b6040516109e29190614733565b60405180910390f35b3480156109f757600080fd5b50610a0061389e565b005b348015610a0e57600080fd5b50610a296004803603810190610a2491906147a1565b613987565b005b348015610a3757600080fd5b50610a526004803603810190610a4d91906147a1565b6139d3565b604051610a5f9190614a20565b60405180910390f35b348015610a7457600080fd5b50610a7d613c20565b604051610a8a9190614733565b60405180910390f35b348015610a9f57600080fd5b50610aba6004803603810190610ab59190614ff7565b613c26565b005b610ac4613c38565b6006546007541115610b0b576040517f08c379a0000000000000000000000000000000000000000000000000000000008152600401610b02906150b0565b60405180910390fd5b6000601460003373ffffffffffffffffffffffffffffffffffffffff1673ffffffffffffffffffffffffffffffffffffffff168152602001908152602001600020549050600060118281548110610b6557610b646150d0565b5b90600052602060002090600702019050600080600083600201541415610c4d57610b8d610f2e565b60ff16600a610b9c9190615261565b60055442610baa91906152ac565b610bb491906152e0565b9150600c5482610bc49190615369565b601760003373ffffffffffffffffffffffffffffffffffffffff1673ffffffffffffffffffffffffffffffffffffffff1681526020019081526020016000206000828254610c12919061539a565b92505081905550428360020181905550600c5482610c309190615369565b60076000828254610c41919061539a565b92505081905550610d16565b826002015442610c5d91906152ac565b9050610c67610f2e565b60ff16600a610c769190615261565b81610c8191906152e0565b9150600c5482610c919190615369565b601760003373ffffffffffffffffffffffffffffffffffffffff1673ffffffffffffffffffffffffffffffffffffffff1681526020019081526020016000206000828254610cdf919061539a565b92505081905550428360020181905550600c5482610cfd9190615369565b60076000828254610d0e919061539a565b925050819055505b50505050565b606060038054610d2b9061541f565b80601f0160208091040260200160405190810160405280929190818152602001828054610d579061541f565b8015610da45780601f10610d7957610100808354040283529160200191610da4565b820191906000526020600020905b815481529060010190602001808311610d8757829003601f168201915b5050505050905090565b6000610dc2610dbb613ccd565b8484613cd5565b6001905092915050565b6000600254905090565b6000610de3848484613ea0565b6000600160008673ffffffffffffffffffffffffffffffffffffffff1673ffffffffffffffffffffffffffffffffffffffff1681526020019081526020016000206000610e2e613ccd565b73ffffffffffffffffffffffffffffffffffffffff1673ffffffffffffffffffffffffffffffffffffffff16815260200190815260200160002054905082811015610eae576040517f08c379a0000000000000000000000000000000000000000000000000000000008152600401610ea5906154c3565b60405180910390fd5b610ec285610eba613ccd565b858403613cd5565b60019150509392505050565b6000600d54905090565b6000601960008373ffffffffffffffffffffffffffffffffffffffff1673ffffffffffffffffffffffffffffffffffffffff16815260200190815260200160002060009054906101000a900460ff169050919050565b60006012905090565b6000601760008373ffffffffffffffffffffffffffffffffffffffff1673ffffffffffffffffffffffffffffffffffffffff168152602001908152602001600020549050919050565b6000611022610f8d613ccd565b848460016000610f9b613ccd565b73ffffffffffffffffffffffffffffffffffffffff1673ffffffffffffffffffffffffffffffffffffffff16815260200190815260200160002060008873ffffffffffffffffffffffffffffffffffffffff1673ffffffffffffffffffffffffffffffffffffffff1681526020019081526020016000205461101d919061539a565b613cd5565b6001905092915050565b600e60009054906101000a900473ffffffffffffffffffffffffffffffffffffffff1681565b600080600080601d60008673ffffffffffffffffffffffffffffffffffffffff1673ffffffffffffffffffffffffffffffffffffffff1681526020019081526020016000209050806000015481600101548260020160009054906101000a900460ff16935093509350509193909250565b60105481565b6000806000806000806000806000600754600654600a54600b54600c54600d54600960009054906101000a900473ffffffffffffffffffffffffffffffffffffffff16601c6000600860009054906101000a900473ffffffffffffffffffffffffffffffffffffffff1673ffffffffffffffffffffffffffffffffffffffff1673ffffffffffffffffffffffffffffffffffffffff16815260200190815260200160002054601054985098509850985098509850985098509850909192939495969798565b6000601460008373ffffffffffffffffffffffffffffffffffffffff1673ffffffffffffffffffffffffffffffffffffffff1681526020019081526020016000205490506000601182815481106111e8576111e76150d0565b5b9060005260206000209060070201905083601860008573ffffffffffffffffffffffffffffffffffffffff1673ffffffffffffffffffffffffffffffffffffffff168152602001908152602001600020541015801561125d5750600015158160060160009054906101000a900460ff16151514155b61129c576040517f08c379a00000000000000000000000000000000000000000000000000000000081526004016112939061552f565b60405180910390fd5b83601860008573ffffffffffffffffffffffffffffffffffffffff1673ffffffffffffffffffffffffffffffffffffffff16815260200190815260200160002060008282546112eb91906152ac565b9250508190555083601760008573ffffffffffffffffffffffffffffffffffffffff1673ffffffffffffffffffffffffffffffffffffffff1681526020019081526020016000206000828254611341919061539a565b9250508190555050505050565b60008060008373ffffffffffffffffffffffffffffffffffffffff1673ffffffffffffffffffffffffffffffffffffffff168152602001908152602001600020549050919050565b6000601860003373ffffffffffffffffffffffffffffffffffffffff1673ffffffffffffffffffffffffffffffffffffffff16815260200190815260200160002054905090565b600e60009054906101000a900473ffffffffffffffffffffffffffffffffffffffff1673ffffffffffffffffffffffffffffffffffffffff163373ffffffffffffffffffffffffffffffffffffffff161461146d576040517f08c379a00000000000000000000000000000000000000000000000000000000081526004016114649061559b565b60405180910390fd5b80600e60006101000a81548173ffffffffffffffffffffffffffffffffffffffff021916908373ffffffffffffffffffffffffffffffffffffffff16021790555050565b60606000601660008473ffffffffffffffffffffffffffffffffffffffff1673ffffffffffffffffffffffffffffffffffffffff1681526020019081526020016000205467ffffffffffffffff81111561150e5761150d614cb6565b5b60405190808252806020026020018201604052801561154757816020015b611534614405565b81526020019060019003908161152c5790505b5090506000805b6012805490508110156116f3578473ffffffffffffffffffffffffffffffffffffffff1660128281548110611586576115856150d0565b5b906000526020600020906002020160010160009054906101000a900473ffffffffffffffffffffffffffffffffffffffff1673ffffffffffffffffffffffffffffffffffffffff1614156116e0576000601282815481106115ea576115e96150d0565b5b90600052602060002090600202019050806040518060400160405290816000820160009054906101000a900473ffffffffffffffffffffffffffffffffffffffff1673ffffffffffffffffffffffffffffffffffffffff1673ffffffffffffffffffffffffffffffffffffffff1681526020016001820160009054906101000a900473ffffffffffffffffffffffffffffffffffffffff1673ffffffffffffffffffffffffffffffffffffffff1673ffffffffffffffffffffffffffffffffffffffff16815250508484815181106116c5576116c46150d0565b5b602002602001018190525082806116db906155bb565b935050505b80806116eb906155bb565b91505061154e565b508192505050919050565b601054600f54101561186d576000601d60008373ffffffffffffffffffffffffffffffffffffffff1673ffffffffffffffffffffffffffffffffffffffff1681526020019081526020016000209050611755610f2e565b60ff16600a6117649190615261565b600161177091906152e0565b816001016000828254611783919061539a565b92505081905550611792610f2e565b60ff16600a6117a19190615261565b60016117ad91906152e0565b600f60008282546117be919061539a565b925050819055506000816000015411156117d85750611873565b601e829080600181540180825580915050600190039060005260206000200160009091909190916101000a81548173ffffffffffffffffffffffffffffffffffffffff021916908373ffffffffffffffffffffffffffffffffffffffff16021790555060006001601e8054905061184f91906152ac565b905060018161185e919061539a565b82600001819055505050611872565b611873565b5b50565b6060600480546118859061541f565b80601f01602080910402602001604051908101604052809291908181526020018280546118b19061541f565b80156118fe5780601f106118d3576101008083540402835291602001916118fe565b820191906000526020600020905b8154815290600101906020018083116118e157829003601f168201915b5050505050905090565b6060600060118054905067ffffffffffffffff81111561192b5761192a614cb6565b5b60405190808252806020026020018201604052801561196457816020015b61195161444b565b8152602001906001900390816119495790505b50905060005b601180549050811015611c215760006011828154811061198d5761198c6150d0565b5b9060005260206000209060070201905080604051806101000160405290816000820154815260200160018201548152602001600282015481526020016003820180546119d89061541f565b80601f0160208091040260200160405190810160405280929190818152602001828054611a049061541f565b8015611a515780601f10611a2657610100808354040283529160200191611a51565b820191906000526020600020905b815481529060010190602001808311611a3457829003601f168201915b50505050508152602001600482018054611a6a9061541f565b80601f0160208091040260200160405190810160405280929190818152602001828054611a969061541f565b8015611ae35780601f10611ab857610100808354040283529160200191611ae3565b820191906000526020600020905b815481529060010190602001808311611ac657829003601f168201915b50505050508152602001600582018054611afc9061541f565b80601f0160208091040260200160405190810160405280929190818152602001828054611b289061541f565b8015611b755780601f10611b4a57610100808354040283529160200191611b75565b820191906000526020600020905b815481529060010190602001808311611b5857829003601f168201915b505050505081526020016006820160009054906101000a900460ff161515151581526020016006820160019054906101000a900473ffffffffffffffffffffffffffffffffffffffff1673ffffffffffffffffffffffffffffffffffffffff1673ffffffffffffffffffffffffffffffffffffffff1681525050838381518110611c0257611c016150d0565b5b6020026020010181905250508080611c19906155bb565b91505061196a565b508091505090565b6000611c5a33604051602001611c3f919061564c565b60405160208183030381529060405280519060200120614121565b9050600960009054906101000a900473ffffffffffffffffffffffffffffffffffffffff1673ffffffffffffffffffffffffffffffffffffffff16611ce38288888080601f016020809104026020016040519081016040528093929190818152602001838380828437600081840152601f19601f82011690508083019250505050505050614151565b73ffffffffffffffffffffffffffffffffffffffff16148015611d4557506000601460003373ffffffffffffffffffffffffffffffffffffffff1673ffffffffffffffffffffffffffffffffffffffff16815260200190815260200160002054145b611d84576040517f08c379a0000000000000000000000000000000000000000000000000000000008152600401611d7b906156b3565b60405180910390fd5b60116040518061010001604052806000815260200160008152602001600081526020018681526020018581526020018481526020016001151581526020013373ffffffffffffffffffffffffffffffffffffffff1681525090806001815401808255809150506001900390600052602060002090600702016000909190919091506000820151816000015560208201518160010155604082015181600201556060820151816003019080519060200190611e3f9291906144a8565b506080820151816004019080519060200190611e5c9291906144a8565b5060a0820151816005019080519060200190611e799291906144a8565b5060c08201518160060160006101000a81548160ff02191690831515021790555060e08201518160060160016101000a81548173ffffffffffffffffffffffffffffffffffffffff021916908373ffffffffffffffffffffffffffffffffffffffff16021790555050506001601180549050611ef591906152ac565b601460003373ffffffffffffffffffffffffffffffffffffffff1673ffffffffffffffffffffffffffffffffffffffff168152602001908152602001600020819055506001601960003373ffffffffffffffffffffffffffffffffffffffff1673ffffffffffffffffffffffffffffffffffffffff16815260200190815260200160002060006101000a81548160ff0219169083151502179055503373ffffffffffffffffffffffffffffffffffffffff167f529fc32b54e6dd32e4b333dc98403668fe1355a18f3fe4f2468a2144f19e892f42868686604051611fdc94939291906156d3565b60405180910390a2505050505050565b60008060016000611ffb613ccd565b73ffffffffffffffffffffffffffffffffffffffff1673ffffffffffffffffffffffffffffffffffffffff16815260200190815260200160002060008573ffffffffffffffffffffffffffffffffffffffff1673ffffffffffffffffffffffffffffffffffffffff168152602001908152602001600020549050828110156120b8576040517f08c379a00000000000000000000000000000000000000000000000000000000081526004016120af9061579f565b60405180910390fd5b6120cc6120c3613ccd565b85858403613cd5565b600191505092915050565b6120df6141c6565b80600960006101000a81548173ffffffffffffffffffffffffffffffffffffffff021916908373ffffffffffffffffffffffffffffffffffffffff16021790555050565b6000612137612130613ccd565b8484613ea0565b6001905092915050565b600654600754101580156121a25750600e60009054906101000a900473ffffffffffffffffffffffffffffffffffffffff1673ffffffffffffffffffffffffffffffffffffffff163373ffffffffffffffffffffffffffffffffffffffff16145b80156121c1575060001515600e60149054906101000a900460ff161515145b612200576040517f08c379a00000000000000000000000000000000000000000000000000000000081526004016121f79061559b565b60405180910390fd5b6001600e60146101000a81548160ff02191690831515021790555061224733612227610f2e565b60ff16600a6122369190615261565b601461224291906152e0565b614258565b565b612251613c38565b6000601460008373ffffffffffffffffffffffffffffffffffffffff1673ffffffffffffffffffffffffffffffffffffffff1681526020019081526020016000205490506000601182815481106122ab576122aa6150d0565b5b906000526020600020906007020190508273ffffffffffffffffffffffffffffffffffffffff163373ffffffffffffffffffffffffffffffffffffffff16141561232a576040517f08c379a00000000000000000000000000000000000000000000000000000000081526004016123219061580b565b60405180910390fd5b8273ffffffffffffffffffffffffffffffffffffffff16601a60003373ffffffffffffffffffffffffffffffffffffffff1673ffffffffffffffffffffffffffffffffffffffff16815260200190815260200160002060008573ffffffffffffffffffffffffffffffffffffffff1673ffffffffffffffffffffffffffffffffffffffff16815260200190815260200160002060009054906101000a900473ffffffffffffffffffffffffffffffffffffffff1673ffffffffffffffffffffffffffffffffffffffff161415612435576040517f08c379a000000000000000000000000000000000000000000000000000000000815260040161242c90615877565b60405180910390fd5b600b5481600001541061247d576040517f08c379a0000000000000000000000000000000000000000000000000000000008152600401612474906158e3565b60405180910390fd5b60008160010154116124c4576040517f08c379a00000000000000000000000000000000000000000000000000000000081526004016124bb9061594f565b60405180910390fd5b600d5434146124ff576040517f8a0d377900000000000000000000000000000000000000000000000000000000815260040160405180910390fd5b600d54601c6000600860009054906101000a900473ffffffffffffffffffffffffffffffffffffffff1673ffffffffffffffffffffffffffffffffffffffff1673ffffffffffffffffffffffffffffffffffffffff1681526020019081526020016000206000828254612572919061539a565b9250508190555082601a60003373ffffffffffffffffffffffffffffffffffffffff1673ffffffffffffffffffffffffffffffffffffffff16815260200190815260200160002060008573ffffffffffffffffffffffffffffffffffffffff1673ffffffffffffffffffffffffffffffffffffffff16815260200190815260200160002060006101000a81548173ffffffffffffffffffffffffffffffffffffffff021916908373ffffffffffffffffffffffffffffffffffffffff160217905550600181600101600082825461264991906152ac565b925050819055506001816000016000828254612665919061539a565b92505081905550600a548160010154106126b15760008160060160009054906101000a900460ff169050808260060160006101000a81548160ff02191690831515021790555050612727565b60018160060160006101000a81548160ff0219169083151502179055506001601960008573ffffffffffffffffffffffffffffffffffffffff1673ffffffffffffffffffffffffffffffffffffffff16815260200190815260200160002060006101000a81548160ff0219169083151502179055505b8273ffffffffffffffffffffffffffffffffffffffff163373ffffffffffffffffffffffffffffffffffffffff167f11c9a04d40e079b6a6add720dd7c0a8ae1776acefdca6f37f4046c709a4dffcf426040516127849190614733565b60405180910390a3505050565b612799613c38565b60065460075410156127e0576040517f08c379a00000000000000000000000000000000000000000000000000000000081526004016127d7906159bb565b60405180910390fd5b6000601760003373ffffffffffffffffffffffffffffffffffffffff1673ffffffffffffffffffffffffffffffffffffffff1681526020019081526020016000205490506000601760003373ffffffffffffffffffffffffffffffffffffffff1673ffffffffffffffffffffffffffffffffffffffff168152602001908152602001600020819055506128733382614258565b50565b600080600060608060606000806000601460008b73ffffffffffffffffffffffffffffffffffffffff1673ffffffffffffffffffffffffffffffffffffffff1681526020019081526020016000205490506000601182815481106128dd576128dc6150d0565b5b906000526020600020906007020190508060000154816001015482600201548360030184600401856005018660060160009054906101000a900460ff168760060160019054906101000a900473ffffffffffffffffffffffffffffffffffffffff1684805461294b9061541f565b80601f01602080910402602001604051908101604052809291908181526020018280546129779061541f565b80156129c45780601f10612999576101008083540402835291602001916129c4565b820191906000526020600020905b8154815290600101906020018083116129a757829003601f168201915b505050505094508380546129d79061541f565b80601f0160208091040260200160405190810160405280929190818152602001828054612a039061541f565b8015612a505780601f10612a2557610100808354040283529160200191612a50565b820191906000526020600020905b815481529060010190602001808311612a3357829003601f168201915b50505050509350828054612a639061541f565b80601f0160208091040260200160405190810160405280929190818152602001828054612a8f9061541f565b8015612adc5780601f10612ab157610100808354040283529160200191612adc565b820191906000526020600020905b815481529060010190602001808311612abf57829003601f168201915b50505050509250995099509950995099509950995099505050919395975091939597565b6006546007541015612b47576040517f08c379a0000000000000000000000000000000000000000000000000000000008152600401612b3e90615a01565b60405180910390fd5b6000601460003373ffffffffffffffffffffffffffffffffffffffff1673ffffffffffffffffffffffffffffffffffffffff1681526020019081526020016000205414612bc9576040517f08c379a0000000000000000000000000000000000000000000000000000000008152600401612bc090615a01565b60405180910390fd5b60116040518061010001604052806000815260200160008152602001600081526020018581526020018481526020018381526020016001151581526020013373ffffffffffffffffffffffffffffffffffffffff1681525090806001815401808255809150506001900390600052602060002090600702016000909190919091506000820151816000015560208201518160010155604082015181600201556060820151816003019080519060200190612c849291906144a8565b506080820151816004019080519060200190612ca19291906144a8565b5060a0820151816005019080519060200190612cbe9291906144a8565b5060c08201518160060160006101000a81548160ff02191690831515021790555060e08201518160060160016101000a81548173ffffffffffffffffffffffffffffffffffffffff021916908373ffffffffffffffffffffffffffffffffffffffff16021790555050506001601180549050612d3a91906152ac565b601460003373ffffffffffffffffffffffffffffffffffffffff1673ffffffffffffffffffffffffffffffffffffffff168152602001908152602001600020819055506001601960003373ffffffffffffffffffffffffffffffffffffffff1673ffffffffffffffffffffffffffffffffffffffff16815260200190815260200160002060006101000a81548160ff0219169083151502179055503373ffffffffffffffffffffffffffffffffffffffff167f07acefbc52945a41d46c17d9c5b0bdba3b6d33f6a99fe6d079ba42587b7d3423848484604051612e1f93929190615a21565b60405180910390a2505050565b612e346141c6565b80600b8190555050565b6000601460008373ffffffffffffffffffffffffffffffffffffffff1673ffffffffffffffffffffffffffffffffffffffff168152602001908152602001600020549050919050565b612e8f6141c6565b6000601c6000600860009054906101000a900473ffffffffffffffffffffffffffffffffffffffff1673ffffffffffffffffffffffffffffffffffffffff1673ffffffffffffffffffffffffffffffffffffffff1681526020019081526020016000205490506000601c6000600860009054906101000a900473ffffffffffffffffffffffffffffffffffffffff1673ffffffffffffffffffffffffffffffffffffffff1673ffffffffffffffffffffffffffffffffffffffff168152602001908152602001600020819055503373ffffffffffffffffffffffffffffffffffffffff166108fc829081150290604051600060405180830381858888f19350505050158015612fa2573d6000803e3d6000fd5b5050565b6000600554905090565b6000601180549050905090565b6000601460008373ffffffffffffffffffffffffffffffffffffffff1673ffffffffffffffffffffffffffffffffffffffff168152602001908152602001600020549050600060118281548110613017576130166150d0565b5b9060005260206000209060070201905083601760008573ffffffffffffffffffffffffffffffffffffffff1673ffffffffffffffffffffffffffffffffffffffff168152602001908152602001600020541015801561308c5750600015158160060160009054906101000a900460ff16151514155b6130cb576040517f08c379a00000000000000000000000000000000000000000000000000000000081526004016130c29061552f565b60405180910390fd5b83601860008573ffffffffffffffffffffffffffffffffffffffff1673ffffffffffffffffffffffffffffffffffffffff168152602001908152602001600020600082825461311a919061539a565b9250508190555083601760008573ffffffffffffffffffffffffffffffffffffffff1673ffffffffffffffffffffffffffffffffffffffff168152602001908152602001600020600082825461317091906152ac565b9250508190555060001515601b60008573ffffffffffffffffffffffffffffffffffffffff1673ffffffffffffffffffffffffffffffffffffffff16815260200190815260200160002060003373ffffffffffffffffffffffffffffffffffffffff1673ffffffffffffffffffffffffffffffffffffffff16815260200190815260200160002060009054906101000a900460ff161515141561345157601260405180604001604052808573ffffffffffffffffffffffffffffffffffffffff1681526020013373ffffffffffffffffffffffffffffffffffffffff16815250908060018154018082558091505060019003906000526020600020906002020160009091909190915060008201518160000160006101000a81548173ffffffffffffffffffffffffffffffffffffffff021916908373ffffffffffffffffffffffffffffffffffffffff16021790555060208201518160010160006101000a81548173ffffffffffffffffffffffffffffffffffffffff021916908373ffffffffffffffffffffffffffffffffffffffff16021790555050506001601b60008573ffffffffffffffffffffffffffffffffffffffff1673ffffffffffffffffffffffffffffffffffffffff16815260200190815260200160002060003373ffffffffffffffffffffffffffffffffffffffff1673ffffffffffffffffffffffffffffffffffffffff16815260200190815260200160002060006101000a81548160ff0219169083151502179055506001601560008573ffffffffffffffffffffffffffffffffffffffff1673ffffffffffffffffffffffffffffffffffffffff16815260200190815260200160002060008282546133ee919061539a565b925050819055506001601660003373ffffffffffffffffffffffffffffffffffffffff1673ffffffffffffffffffffffffffffffffffffffff1681526020019081526020016000206000828254613445919061539a565b92505081905550613458565b505061345b565b50505b5050565b6134676141c6565b80600a8190555050565b613479613c38565b6000601460008373ffffffffffffffffffffffffffffffffffffffff1673ffffffffffffffffffffffffffffffffffffffff1681526020019081526020016000205490506000601182815481106134d3576134d26150d0565b5b906000526020600020906007020190508273ffffffffffffffffffffffffffffffffffffffff16601a60003373ffffffffffffffffffffffffffffffffffffffff1673ffffffffffffffffffffffffffffffffffffffff16815260200190815260200160002060008573ffffffffffffffffffffffffffffffffffffffff1673ffffffffffffffffffffffffffffffffffffffff16815260200190815260200160002060009054906101000a900473ffffffffffffffffffffffffffffffffffffffff1673ffffffffffffffffffffffffffffffffffffffff16141580156135d15750600015158160060160009054906101000a900460ff16151514155b613610576040517f08c379a000000000000000000000000000000000000000000000000000000000815260040161360790615877565b60405180910390fd5b82601a60003373ffffffffffffffffffffffffffffffffffffffff1673ffffffffffffffffffffffffffffffffffffffff16815260200190815260200160002060008573ffffffffffffffffffffffffffffffffffffffff1673ffffffffffffffffffffffffffffffffffffffff16815260200190815260200160002060006101000a81548173ffffffffffffffffffffffffffffffffffffffff021916908373ffffffffffffffffffffffffffffffffffffffff16021790555060018160010160008282546136e0919061539a565b92505081905550600a548160010154101561372d5760008160060160009054906101000a900460ff169050808260060160006101000a81548160ff021916908315150217905550506137a3565b60008160060160006101000a81548160ff0219169083151502179055506000601960008573ffffffffffffffffffffffffffffffffffffffff1673ffffffffffffffffffffffffffffffffffffffff16815260200190815260200160002060006101000a81548160ff0219169083151502179055505b8273ffffffffffffffffffffffffffffffffffffffff163373ffffffffffffffffffffffffffffffffffffffff167f6ceca1a3cd7cb44311239fc385b20e17433d6483d6abe63fb5c51567edd4aa4a426040516138009190614733565b60405180910390a3505050565b6000600160008473ffffffffffffffffffffffffffffffffffffffff1673ffffffffffffffffffffffffffffffffffffffff16815260200190815260200160002060008373ffffffffffffffffffffffffffffffffffffffff1673ffffffffffffffffffffffffffffffffffffffff16815260200190815260200160002054905092915050565b6000600c54905090565b6000601d60003373ffffffffffffffffffffffffffffffffffffffff1673ffffffffffffffffffffffffffffffffffffffff16815260200190815260200160002090506006546007541015801561390a5750600015158160020160009054906101000a900460ff161515145b613949576040517f08c379a00000000000000000000000000000000000000000000000000000000081526004016139409061559b565b60405180910390fd5b6000816001015490506000826001018190555060018260020160006101000a81548160ff0219169083151502179055506139833382614258565b5050565b61398f6141c6565b80600860006101000a81548173ffffffffffffffffffffffffffffffffffffffff021916908373ffffffffffffffffffffffffffffffffffffffff16021790555050565b60606000601560008473ffffffffffffffffffffffffffffffffffffffff1673ffffffffffffffffffffffffffffffffffffffff1681526020019081526020016000205467ffffffffffffffff811115613a3057613a2f614cb6565b5b604051908082528060200260200182016040528015613a6957816020015b613a56614405565b815260200190600190039081613a4e5790505b5090506000805b601280549050811015613c15578473ffffffffffffffffffffffffffffffffffffffff1660128281548110613aa857613aa76150d0565b5b906000526020600020906002020160000160009054906101000a900473ffffffffffffffffffffffffffffffffffffffff1673ffffffffffffffffffffffffffffffffffffffff161415613c0257600060128281548110613b0c57613b0b6150d0565b5b90600052602060002090600202019050806040518060400160405290816000820160009054906101000a900473ffffffffffffffffffffffffffffffffffffffff1673ffffffffffffffffffffffffffffffffffffffff1673ffffffffffffffffffffffffffffffffffffffff1681526020016001820160009054906101000a900473ffffffffffffffffffffffffffffffffffffffff1673ffffffffffffffffffffffffffffffffffffffff1673ffffffffffffffffffffffffffffffffffffffff1681525050848481518110613be757613be66150d0565b5b60200260200101819052508280613bfd906155bb565b935050505b8080613c0d906155bb565b915050613a70565b508192505050919050565b600f5481565b613c2e6141c6565b80600d8190555050565b60011515601960003373ffffffffffffffffffffffffffffffffffffffff1673ffffffffffffffffffffffffffffffffffffffff16815260200190815260200160002060009054906101000a900460ff16151514613ccb576040517f08c379a0000000000000000000000000000000000000000000000000000000008152600401613cc290615ab9565b60405180910390fd5b565b600033905090565b600073ffffffffffffffffffffffffffffffffffffffff168373ffffffffffffffffffffffffffffffffffffffff161415613d45576040517f08c379a0000000000000000000000000000000000000000000000000000000008152600401613d3c90615b4b565b60405180910390fd5b600073ffffffffffffffffffffffffffffffffffffffff168273ffffffffffffffffffffffffffffffffffffffff161415613db5576040517f08c379a0000000000000000000000000000000000000000000000000000000008152600401613dac90615bdd565b60405180910390fd5b80600160008573ffffffffffffffffffffffffffffffffffffffff1673ffffffffffffffffffffffffffffffffffffffff16815260200190815260200160002060008473ffffffffffffffffffffffffffffffffffffffff1673ffffffffffffffffffffffffffffffffffffffff168152602001908152602001600020819055508173ffffffffffffffffffffffffffffffffffffffff168373ffffffffffffffffffffffffffffffffffffffff167f8c5be1e5ebec7d5bd14f71427d1e84f3dd0314c0f7b2291e5b200ac8c7c3b92583604051613e939190614733565b60405180910390a3505050565b600073ffffffffffffffffffffffffffffffffffffffff168373ffffffffffffffffffffffffffffffffffffffff161415613f10576040517f08c379a0000000000000000000000000000000000000000000000000000000008152600401613f0790615c6f565b60405180910390fd5b600073ffffffffffffffffffffffffffffffffffffffff168273ffffffffffffffffffffffffffffffffffffffff161415613f80576040517f08c379a0000000000000000000000000000000000000000000000000000000008152600401613f7790615d01565b60405180910390fd5b613f8b8383836143b8565b60008060008573ffffffffffffffffffffffffffffffffffffffff1673ffffffffffffffffffffffffffffffffffffffff16815260200190815260200160002054905081811015614011576040517f08c379a000000000000000000000000000000000000000000000000000000000815260040161400890615d93565b60405180910390fd5b8181036000808673ffffffffffffffffffffffffffffffffffffffff1673ffffffffffffffffffffffffffffffffffffffff16815260200190815260200160002081905550816000808573ffffffffffffffffffffffffffffffffffffffff1673ffffffffffffffffffffffffffffffffffffffff16815260200190815260200160002060008282546140a4919061539a565b925050819055508273ffffffffffffffffffffffffffffffffffffffff168473ffffffffffffffffffffffffffffffffffffffff167fddf252ad1be2c89b69c2b068fc378daa952ba7f163c4a11628f55a4df523b3ef846040516141089190614733565b60405180910390a361411b8484846143bd565b50505050565b6000816040516020016141349190615e35565b604051602081830303815290604052805190602001209050919050565b600080600080614160856143c2565b8093508194508295505050506001868484846040516000815260200160405260405161418f9493929190615e6a565b6020604051602081039080840390855afa1580156141b1573d6000803e3d6000fd5b50505060206040510351935050505092915050565b600860009054906101000a900473ffffffffffffffffffffffffffffffffffffffff1673ffffffffffffffffffffffffffffffffffffffff163373ffffffffffffffffffffffffffffffffffffffff1614614256576040517f08c379a000000000000000000000000000000000000000000000000000000000815260040161424d90615efb565b60405180910390fd5b565b600073ffffffffffffffffffffffffffffffffffffffff168273ffffffffffffffffffffffffffffffffffffffff1614156142c8576040517f08c379a00000000000000000000000000000000000000000000000000000000081526004016142bf90615f67565b60405180910390fd5b6142d4600083836143b8565b80600260008282546142e6919061539a565b92505081905550806000808473ffffffffffffffffffffffffffffffffffffffff1673ffffffffffffffffffffffffffffffffffffffff168152602001908152602001600020600082825461433b919061539a565b925050819055508173ffffffffffffffffffffffffffffffffffffffff16600073ffffffffffffffffffffffffffffffffffffffff167fddf252ad1be2c89b69c2b068fc378daa952ba7f163c4a11628f55a4df523b3ef836040516143a09190614733565b60405180910390a36143b4600083836143bd565b5050565b505050565b505050565b600080600060418451146143d557600080fd5b60008060006020870151925060408701519150606087015160001a90508083839550955095505050509193909250565b6040518060400160405280600073ffffffffffffffffffffffffffffffffffffffff168152602001600073ffffffffffffffffffffffffffffffffffffffff1681525090565b604051806101000160405280600081526020016000815260200160008152602001606081526020016060815260200160608152602001600015158152602001600073ffffffffffffffffffffffffffffffffffffffff1681525090565b8280546144b49061541f565b90600052602060002090601f0160209004810192826144d6576000855561451d565b82601f106144ef57805160ff191683800117855561451d565b8280016001018555821561451d579182015b8281111561451c578251825591602001919060010190614501565b5b50905061452a919061452e565b5090565b5b8082111561454757600081600090555060010161452f565b5090565b600081519050919050565b600082825260208201905092915050565b60005b8381101561458557808201518184015260208101905061456a565b83811115614594576000848401525b50505050565b6000601f19601f8301169050919050565b60006145b68261454b565b6145c08185614556565b93506145d0818560208601614567565b6145d98161459a565b840191505092915050565b600060208201905081810360008301526145fe81846145ab565b905092915050565b6000604051905090565b600080fd5b600080fd5b600073ffffffffffffffffffffffffffffffffffffffff82169050919050565b60006146458261461a565b9050919050565b6146558161463a565b811461466057600080fd5b50565b6000813590506146728161464c565b92915050565b6000819050919050565b61468b81614678565b811461469657600080fd5b50565b6000813590506146a881614682565b92915050565b600080604083850312156146c5576146c4614610565b5b60006146d385828601614663565b92505060206146e485828601614699565b9150509250929050565b60008115159050919050565b614703816146ee565b82525050565b600060208201905061471e60008301846146fa565b92915050565b61472d81614678565b82525050565b60006020820190506147486000830184614724565b92915050565b60008060006060848603121561476757614766614610565b5b600061477586828701614663565b935050602061478686828701614663565b925050604061479786828701614699565b9150509250925092565b6000602082840312156147b7576147b6614610565b5b60006147c584828501614663565b91505092915050565b600060ff82169050919050565b6147e4816147ce565b82525050565b60006020820190506147ff60008301846147db565b92915050565b61480e8161463a565b82525050565b60006020820190506148296000830184614805565b92915050565b60006060820190506148446000830186614724565b6148516020830185614724565b61485e60408301846146fa565b949350505050565b60006101208201905061487c600083018c614724565b614889602083018b614724565b614896604083018a614724565b6148a36060830189614724565b6148b06080830188614724565b6148bd60a0830187614724565b6148ca60c0830186614805565b6148d760e0830185614724565b6148e5610100830184614724565b9a9950505050505050505050565b6000806040838503121561490a57614909614610565b5b600061491885828601614699565b925050602061492985828601614663565b9150509250929050565b600081519050919050565b600082825260208201905092915050565b6000819050602082019050919050565b6149688161463a565b82525050565b604082016000820151614984600085018261495f565b506020820151614997602085018261495f565b50505050565b60006149a9838361496e565b60408301905092915050565b6000602082019050919050565b60006149cd82614933565b6149d7818561493e565b93506149e28361494f565b8060005b83811015614a135781516149fa888261499d565b9750614a05836149b5565b9250506001810190506149e6565b5085935050505092915050565b60006020820190508181036000830152614a3a81846149c2565b905092915050565b600081519050919050565b600082825260208201905092915050565b6000819050602082019050919050565b614a7781614678565b82525050565b600082825260208201905092915050565b6000614a998261454b565b614aa38185614a7d565b9350614ab3818560208601614567565b614abc8161459a565b840191505092915050565b614ad0816146ee565b82525050565b600061010083016000830151614aef6000860182614a6e565b506020830151614b026020860182614a6e565b506040830151614b156040860182614a6e565b5060608301518482036060860152614b2d8282614a8e565b91505060808301518482036080860152614b478282614a8e565b91505060a083015184820360a0860152614b618282614a8e565b91505060c0830151614b7660c0860182614ac7565b5060e0830151614b8960e086018261495f565b508091505092915050565b6000614ba08383614ad6565b905092915050565b6000602082019050919050565b6000614bc082614a42565b614bca8185614a4d565b935083602082028501614bdc85614a5e565b8060005b85811015614c185784840389528151614bf98582614b94565b9450614c0483614ba8565b925060208a01995050600181019050614be0565b50829750879550505050505092915050565b60006020820190508181036000830152614c448184614bb5565b905092915050565b600080fd5b600080fd5b600080fd5b60008083601f840112614c7157614c70614c4c565b5b8235905067ffffffffffffffff811115614c8e57614c8d614c51565b5b602083019150836001820283011115614caa57614ca9614c56565b5b9250929050565b600080fd5b7f4e487b7100000000000000000000000000000000000000000000000000000000600052604160045260246000fd5b614cee8261459a565b810181811067ffffffffffffffff82111715614d0d57614d0c614cb6565b5b80604052505050565b6000614d20614606565b9050614d2c8282614ce5565b919050565b600067ffffffffffffffff821115614d4c57614d4b614cb6565b5b614d558261459a565b9050602081019050919050565b82818337600083830152505050565b6000614d84614d7f84614d31565b614d16565b905082815260208101848484011115614da057614d9f614cb1565b5b614dab848285614d62565b509392505050565b600082601f830112614dc857614dc7614c4c565b5b8135614dd8848260208601614d71565b91505092915050565b600080600080600060808688031215614dfd57614dfc614610565b5b600086013567ffffffffffffffff811115614e1b57614e1a614615565b5b614e2788828901614c5b565b9550955050602086013567ffffffffffffffff811115614e4a57614e49614615565b5b614e5688828901614db3565b935050604086013567ffffffffffffffff811115614e7757614e76614615565b5b614e8388828901614db3565b925050606086013567ffffffffffffffff811115614ea457614ea3614615565b5b614eb088828901614db3565b9150509295509295909350565b600061010082019050614ed3600083018b614724565b614ee0602083018a614724565b614eed6040830189614724565b8181036060830152614eff81886145ab565b90508181036080830152614f1381876145ab565b905081810360a0830152614f2781866145ab565b9050614f3660c08301856146fa565b614f4360e0830184614805565b9998505050505050505050565b600080600060608486031215614f6957614f68614610565b5b600084013567ffffffffffffffff811115614f8757614f86614615565b5b614f9386828701614db3565b935050602084013567ffffffffffffffff811115614fb457614fb3614615565b5b614fc086828701614db3565b925050604084013567ffffffffffffffff811115614fe157614fe0614615565b5b614fed86828701614db3565b9150509250925092565b60006020828403121561500d5761500c614610565b5b600061501b84828501614699565b91505092915050565b6000806040838503121561503b5761503a614610565b5b600061504985828601614663565b925050602061505a85828601614663565b9150509250929050565b7f616c7265616479206d696e746564000000000000000000000000000000000000600082015250565b600061509a600e83614556565b91506150a582615064565b602082019050919050565b600060208201905081810360008301526150c98161508d565b9050919050565b7f4e487b7100000000000000000000000000000000000000000000000000000000600052603260045260246000fd5b7f4e487b7100000000000000000000000000000000000000000000000000000000600052601160045260246000fd5b60008160011c9050919050565b6000808291508390505b600185111561518557808604811115615161576151606150ff565b5b60018516156151705780820291505b808102905061517e8561512e565b9450615145565b94509492505050565b60008261519e576001905061525a565b816151ac576000905061525a565b81600181146151c257600281146151cc576151fb565b600191505061525a565b60ff8411156151de576151dd6150ff565b5b8360020a9150848211156151f5576151f46150ff565b5b5061525a565b5060208310610133831016604e8410600b84101617156152305782820a90508381111561522b5761522a6150ff565b5b61525a565b61523d848484600161513b565b92509050818404811115615254576152536150ff565b5b81810290505b9392505050565b600061526c82614678565b915061527783614678565b92506152a47fffffffffffffffffffffffffffffffffffffffffffffffffffffffffffffffff848461518e565b905092915050565b60006152b782614678565b91506152c283614678565b9250828210156152d5576152d46150ff565b5b828203905092915050565b60006152eb82614678565b91506152f683614678565b9250817fffffffffffffffffffffffffffffffffffffffffffffffffffffffffffffffff048311821515161561532f5761532e6150ff565b5b828202905092915050565b7f4e487b7100000000000000000000000000000000000000000000000000000000600052601260045260246000fd5b600061537482614678565b915061537f83614678565b92508261538f5761538e61533a565b5b828204905092915050565b60006153a582614678565b91506153b083614678565b9250827fffffffffffffffffffffffffffffffffffffffffffffffffffffffffffffffff038211156153e5576153e46150ff565b5b828201905092915050565b7f4e487b7100000000000000000000000000000000000000000000000000000000600052602260045260246000fd5b6000600282049050600182168061543757607f821691505b6020821081141561544b5761544a6153f0565b5b50919050565b7f45524332303a207472616e7366657220616d6f756e742065786365656473206160008201527f6c6c6f77616e6365000000000000000000000000000000000000000000000000602082015250565b60006154ad602883614556565b91506154b882615451565b604082019050919050565b600060208201905081810360008301526154dc816154a0565b9050919050565b7f326d756368000000000000000000000000000000000000000000000000000000600082015250565b6000615519600583614556565b9150615524826154e3565b602082019050919050565b600060208201905081810360008301526155488161550c565b9050919050565b7f6e61000000000000000000000000000000000000000000000000000000000000600082015250565b6000615585600283614556565b91506155908261554f565b602082019050919050565b600060208201905081810360008301526155b481615578565b9050919050565b60006155c682614678565b91507fffffffffffffffffffffffffffffffffffffffffffffffffffffffffffffffff8214156155f9576155f86150ff565b5b600182019050919050565b60008160601b9050919050565b600061561c82615604565b9050919050565b600061562e82615611565b9050919050565b6156466156418261463a565b615623565b82525050565b60006156588284615635565b60148201915081905092915050565b7f696e76616c69645369674f72416c526567000000000000000000000000000000600082015250565b600061569d601183614556565b91506156a882615667565b602082019050919050565b600060208201905081810360008301526156cc81615690565b9050919050565b60006080820190506156e86000830187614724565b81810360208301526156fa81866145ab565b9050818103604083015261570e81856145ab565b9050818103606083015261572281846145ab565b905095945050505050565b7f45524332303a2064656372656173656420616c6c6f77616e63652062656c6f7760008201527f207a65726f000000000000000000000000000000000000000000000000000000602082015250565b6000615789602583614556565b91506157948261572d565b604082019050919050565b600060208201905081810360008301526157b88161577c565b9050919050565b7f4e6f7420416c6c6f776564000000000000000000000000000000000000000000600082015250565b60006157f5600b83614556565b9150615800826157bf565b602082019050919050565b60006020820190508181036000830152615824816157e8565b9050919050565b7f416c722072657000000000000000000000000000000000000000000000000000600082015250565b6000615861600783614556565b915061586c8261582b565b602082019050919050565b6000602082019050818103600083015261589081615854565b9050919050565b7f6d6178476f6f64436f756e740000000000000000000000000000000000000000600082015250565b60006158cd600c83614556565b91506158d882615897565b602082019050919050565b600060208201905081810360008301526158fc816158c0565b9050919050565b7f4e6f744e65656465640000000000000000000000000000000000000000000000600082015250565b6000615939600983614556565b915061594482615903565b602082019050919050565b600060208201905081810360008301526159688161592c565b9050919050565b7f6e6f745965744d696e7465640000000000000000000000000000000000000000600082015250565b60006159a5600c83614556565b91506159b08261596f565b602082019050919050565b600060208201905081810360008301526159d481615998565b9050919050565b50565b60006159eb600083614556565b91506159f6826159db565b600082019050919050565b60006020820190508181036000830152615a1a816159de565b9050919050565b60006060820190508181036000830152615a3b81866145ab565b90508181036020830152615a4f81856145ab565b90508181036040830152615a6381846145ab565b9050949350505050565b7f626c000000000000000000000000000000000000000000000000000000000000600082015250565b6000615aa3600283614556565b9150615aae82615a6d565b602082019050919050565b60006020820190508181036000830152615ad281615a96565b9050919050565b7f45524332303a20617070726f76652066726f6d20746865207a65726f2061646460008201527f7265737300000000000000000000000000000000000000000000000000000000602082015250565b6000615b35602483614556565b9150615b4082615ad9565b604082019050919050565b60006020820190508181036000830152615b6481615b28565b9050919050565b7f45524332303a20617070726f766520746f20746865207a65726f20616464726560008201527f7373000000000000000000000000000000000000000000000000000000000000602082015250565b6000615bc7602283614556565b9150615bd282615b6b565b604082019050919050565b60006020820190508181036000830152615bf681615bba565b9050919050565b7f45524332303a207472616e736665722066726f6d20746865207a65726f20616460008201527f6472657373000000000000000000000000000000000000000000000000000000602082015250565b6000615c59602583614556565b9150615c6482615bfd565b604082019050919050565b60006020820190508181036000830152615c8881615c4c565b9050919050565b7f45524332303a207472616e7366657220746f20746865207a65726f206164647260008201527f6573730000000000000000000000000000000000000000000000000000000000602082015250565b6000615ceb602383614556565b9150615cf682615c8f565b604082019050919050565b60006020820190508181036000830152615d1a81615cde565b9050919050565b7f45524332303a207472616e7366657220616d6f756e742065786365656473206260008201527f616c616e63650000000000000000000000000000000000000000000000000000602082015250565b6000615d7d602683614556565b9150615d8882615d21565b604082019050919050565b60006020820190508181036000830152615dac81615d70565b9050919050565b600081905092915050565b7f19457468657265756d205369676e6564204d6573736167653a0a333200000000600082015250565b6000615df4601c83615db3565b9150615dff82615dbe565b601c82019050919050565b6000819050919050565b6000819050919050565b615e2f615e2a82615e0a565b615e14565b82525050565b6000615e4082615de7565b9150615e4c8284615e1e565b60208201915081905092915050565b615e6481615e0a565b82525050565b6000608082019050615e7f6000830187615e5b565b615e8c60208301866147db565b615e996040830185615e5b565b615ea66060830184615e5b565b95945050505050565b7f6f61000000000000000000000000000000000000000000000000000000000000600082015250565b6000615ee5600283614556565b9150615ef082615eaf565b602082019050919050565b60006020820190508181036000830152615f1481615ed8565b9050919050565b7f45524332303a206d696e7420746f20746865207a65726f206164647265737300600082015250565b6000615f51601f83614556565b9150615f5c82615f1b565b602082019050919050565b60006020820190508181036000830152615f8081615f44565b905091905056fea26469706673582212200efe271b7a51b1c51f5e09f63ce1aa07638258725768d47004b33176f32bbd7964736f6c634300080a0033",
  "immutableReferences": {},
  "source": "  // SPDX-License-Identifier: MIT\n  pragma solidity 0.8.10;\n\n  import \"@openzeppelin/contracts/token/ERC20/ERC20.sol\";\n\n  contract slice is ERC20 {\n      \n      uint start;\n      uint vTotalSupply;\n      uint vSupply;\n      address listAdmin;\n      address signer; \n      uint wenBlock;\n      uint maxGoodCount;\n      uint mintingSpeed;\n      uint goodPrice;\n      address public marketing1;\n      bool longTermReward1;\n      uint public fightMintBalance;\n      uint public fightMintSupply;\n\n          function _a() private view {\n            require ((whitelist[msg.sender]==true), \"bl\");\n          }\n          modifier onlyWhitelisted() {\n            _a();\n            _;\n          }\n          \n\n          function _admin() private view {\n            require(msg.sender == listAdmin, 'oa');\n          }\n          modifier onlyAdmin() {\n            _admin();\n            _;\n          }\n\n\n      constructor (string memory name, string memory symbol) ERC20(name, symbol) {\n        start = block.timestamp;\n        vTotalSupply = 100 * 10 ** uint(decimals());\n        fightMintSupply = 20 * 10 ** uint(decimals());\n        listAdmin = msg.sender;\n        signer = 0xD6AF7959290caeE9E8564EC80a33b92335d6232C;\n        marketing1= 0xa16392cB56E13367578795db9f6459485571d2fA;\n        wenBlock=2;\n        maxGoodCount=1;\n        mintingSpeed=60;\n        goodPrice=10000000000000000;\n        longTermReward1=false;\n      }\n\n      struct Minters {\n          uint goodCount;\n          uint reported;\n          uint lastMinted;\n          string gpsLat;\n          string gpsLon;\n          string nickname;\n          bool whitelisted;\n          address addr;\n      }\n      Minters[] mintersDB;\n      \n      struct StakedContracts {\n          address staker;\n          address fightContract;\n      }\n      StakedContracts []  stakersList;\n\n      mapping(address => Minters) minters;\n      mapping(address => uint) index;\n      mapping (address=>uint )  stakedContractsCounter;\n      mapping (address=>uint )  stakedFightCounter;\n      mapping (address => uint) vSliceBalances;\n      mapping (address => uint) stakedVSlices;\n      mapping (address => bool) whitelist;\n      mapping (address => mapping(address=> address))  challengers;\n      mapping (address => mapping(address=> bool))  stakers;\n      mapping (address => uint) pw;\n      error NotEnoughEther();\n      \n      struct Entry{\n        uint index;\n        uint value;\n        bool minted;\n                }\n      mapping(address => Entry)  map;\n      address[]  keyList;\n   \n   // Fight mint\n    function fightMint(address _fa) external {\n      if (fightMintBalance < fightMintSupply) {\n        Entry storage entry = map[_fa];\n        entry.value += 1 * 10 ** uint(decimals());\n        fightMintBalance += 1 * 10 ** uint(decimals());\n        if(entry.index > 0){\n            return;\n        }else {\n            keyList.push(_fa);\n            uint keyListIndex = keyList.length - 1;\n            entry.index = keyListIndex + 1;\n        }\n      }\n      else return;\n    }\n\n    function rewards_for_fights() public {\n    Entry storage entry = map[msg.sender];\n    require(vSupply>=vTotalSupply && entry.minted==false, \"na\");\n    uint mint_amount = entry.value;\n    entry.value=0;\n    entry.minted = true;\n    _mint(msg.sender, mint_amount);\n     } \n\n    function readFightRewards (address _addr)  public view returns (uint, uint, bool) {\n     Entry storage m = map[_addr];\n    return (m.index, m.value, m.minted);\n      }\n\n    function marketing_reward() public {\n    require(vSupply>=vTotalSupply && msg.sender==marketing1 && longTermReward1==false, \"na\");\n    longTermReward1 = true;\n    _mint(msg.sender, (20 * 10 ** uint(decimals())));\n      }\n    function changeMarketing1(address _addr1) public {\n    require(msg.sender==marketing1, 'na');\n    marketing1=_addr1;\n      }\n\n      event BadActors(uint date, address indexed reporter, address indexed reported);\n      function reportBadActor(address _addr) external onlyWhitelisted {\n      uint indx = index[_addr];\n      Minters storage m = mintersDB[indx];\n      require (challengers[msg.sender][_addr] != _addr && m.whitelisted!=false, \"Alr rep\");\n      challengers[msg.sender][_addr] = _addr;\n      m.reported += 1;\n      if (m.reported <wenBlock) \n          {bool existingStatus=m.whitelisted;\n            m.whitelisted=existingStatus;\n      }else {\n          m.whitelisted=false;\n          whitelist[_addr] = false;\n      }\n      emit BadActors (block.timestamp, msg.sender, _addr);\n      }\n      \n      event GoodActors(uint date, address indexed reporter, address indexed reported);\n      function reportGoodActor(address _addr) external payable onlyWhitelisted {\n      uint indx = index[_addr];\n      Minters storage m = mintersDB[indx];\n      require (msg.sender != _addr, \"Not Allowed\");\n      require (challengers[msg.sender][_addr] != _addr, \"Alr rep\");\n      require (m.goodCount<maxGoodCount, \"maxGoodCount\");\n      require (m.reported>0, \"NotNeeded\");\n      if (msg.value != goodPrice) revert NotEnoughEther();\n      pw[listAdmin]+= goodPrice;\n      challengers[msg.sender][_addr] = _addr;\n      m.reported -= 1;\n      m.goodCount+=1;\n      if (m.reported >=wenBlock)  \n          {bool existingStatus=m.whitelisted;\n            m.whitelisted=existingStatus;\n      }else {\n          m.whitelisted=true;\n          whitelist[_addr] = true;\n      } \n      emit GoodActors (block.timestamp, msg.sender, _addr);\n      }\n      \n      \n      function AddToWhitelist (string memory  _gpsLat,string memory  _gpsLon, string memory _nickname) external {\n      require(vSupply>= vTotalSupply, \"\");\n      require(index[msg.sender]==0, \"\");\n      mintersDB.push(Minters(0, 0, 0, _gpsLat, _gpsLon, _nickname, true, msg.sender));\n      index[msg.sender] = mintersDB.length-1;\n      whitelist[msg.sender] = true;\n      emit mintersFree(msg.sender,_gpsLat, _gpsLon, _nickname);\n    }\n          \n      event mintersFree(address indexed minter, string Lat, string Lon, string Nick);    \n      event newMinter(uint date, address indexed minter, string Lat, string Lon, string Nick);\n      function addToWhitelist_a7I(bytes calldata signature, string memory _gpsLat,string memory _gpsLon, string memory _nickname) external {\n      bytes32 message = prefixed(keccak256(abi.encodePacked(\n        msg.sender\n      )));\n      require(recoverSigner(message, signature) == signer && index[msg.sender]==0 , \"invalidSigOrAlReg\");\n      mintersDB.push(Minters(0, 0, 0, _gpsLat, _gpsLon, _nickname, true, msg.sender));\n      index[msg.sender] = mintersDB.length-1;\n      whitelist[msg.sender] = true;\n      emit newMinter(block.timestamp, msg.sender,_gpsLat, _gpsLon, _nickname);\n    }\n\n    function prefixed(bytes32 hash) internal pure returns (bytes32) {\n      return keccak256(abi.encodePacked(\n        '\\x19Ethereum Signed Message:\\n32', \n        hash\n      ));\n    }\n\n    function recoverSigner(bytes32 message, bytes memory sig)\n      internal\n      pure\n      returns (address)\n    {\n      uint8 v;\n      bytes32 r;\n      bytes32 s;\n    \n      (v, r, s) = splitSignature(sig);\n    \n      return ecrecover(message, v, r, s);\n    }\n\n    function splitSignature(bytes memory sig)\n      internal\n      pure\n      returns (uint8, bytes32, bytes32)\n    {\n      require(sig.length == 65);\n    \n      bytes32 r;\n      bytes32 s;\n      uint8 v;\n    \n      assembly {\n          // first 32 bytes, after the length prefix\n          r := mload(add(sig, 32))\n          // second 32 bytes\n          s := mload(add(sig, 64))\n          // final byte (first byte of the next 32 bytes)\n          v := byte(0, mload(add(sig, 96)))\n      }\n    \n      return (v, r, s);\n    }\n\n      function SliceMinting() external onlyWhitelisted {\n          require(vSupply>=vTotalSupply, \"notYetMinted\");\n          uint amount = vSliceBalances[msg.sender];\n          vSliceBalances[msg.sender]=0;\n          _mint(msg.sender, amount);\n\n      }\n\n      function vSliceMinting_ExW() external onlyWhitelisted {\n              require(vSupply<= vTotalSupply, \"already minted\");\n              uint indx = index[msg.sender];\n              Minters storage m = mintersDB[indx];\n              uint mint;\n              uint diff;\n          if (m.lastMinted == 0) {\n              mint = (block.timestamp-start)* 10 ** uint(decimals());\n              vSliceBalances[msg.sender]+= mint/mintingSpeed;\n              m.lastMinted = block.timestamp;\n              vSupply+= mint/mintingSpeed;}\n          else {\n              diff = block.timestamp - m.lastMinted;\n              mint = diff* 10 ** uint(decimals());\n              vSliceBalances[msg.sender]+= mint/mintingSpeed;\n              m.lastMinted = block.timestamp;\n              vSupply+= mint/mintingSpeed;}\n\n      }\n      \n      \n      function stakeVSlice_h56(uint _amount, address _addr) external {\n          uint indx = index[_addr];\n          Minters storage m = mintersDB[indx];\n          require (vSliceBalances[_addr] >= _amount && m.whitelisted!=false, \"2much\");\n          stakedVSlices[_addr] += _amount;\n          vSliceBalances[_addr] -= _amount;\n          if (stakers[_addr][msg.sender] == false) {\n              stakersList.push(StakedContracts(_addr, msg.sender));\n              stakers[_addr][msg.sender] = true;\n              stakedContractsCounter[_addr] += 1;\n              stakedFightCounter[msg.sender] +=1;\n          } else {return;}\n          \n      }\n      \n      function unstakeVSlice_Hha(uint _amount, address _addr) external  {\n          uint indx = index[_addr];\n          Minters storage m = mintersDB[indx];\n          require(stakedVSlices[_addr]>=_amount && m.whitelisted!=false, \"2much\");\n          stakedVSlices[_addr] -= _amount;\n          vSliceBalances[_addr] += _amount;\n          \n      }\n\n      function getStakedByStaker(address _owner) view external returns (StakedContracts[] memory){\n        StakedContracts[]    memory id = new StakedContracts[](stakedContractsCounter[_owner]);\n            uint counter = 0;\n            \n        for (uint i = 0; i < stakersList.length; i++) {\n            if (stakersList[i].staker == _owner) {\n          StakedContracts storage list = stakersList[i];\n            id[counter] = list;\n            counter++;\n        }\n      }\n        return id;\n    }\n      function getStakedByFight(address _fight) view external returns (StakedContracts[] memory){\n        StakedContracts[]    memory id = new StakedContracts[](stakedFightCounter[_fight]);\n            uint counter = 0;\n            \n        for (uint i = 0; i < stakersList.length; i++) {\n            if (stakersList[i].fightContract== _fight) {\n          StakedContracts storage list = stakersList[i];\n            id[counter] = list;\n            counter++;\n        }\n      }\n        return id;\n    }\n      function getAllMinters() public view returns (Minters[] memory){\n        Minters[]    memory id = new Minters[](mintersDB.length);\n        for (uint i = 0; i < mintersDB.length; i++) {\n            Minters storage mint = mintersDB[i];\n            id[i] = mint;\n        }\n        return id;\n    }\n      function getMinter(address _addr)  view external returns (uint, uint, uint, string memory, string memory,string memory, bool, address) {\n          uint indx = index[_addr];\n          Minters storage m = mintersDB[indx];\n          return (m.goodCount, m.reported,m.lastMinted, m.gpsLat, m.gpsLon, m.nickname, m.whitelisted, m.addr);\n      }\n\n      function isRegistered (address _addr) view external returns(uint) {\n           return index[_addr];\n      }\n      function  wl(address _addr) view external  returns (bool) {\n          return whitelist[_addr] ;\n      }\n\n      function getMintingSpeed() public view returns (uint) {\n          return mintingSpeed;\n      }\n      function updateAdmin(address newAdmin) external onlyAdmin{\n      listAdmin = newAdmin;\n    }\n      function updateSigner(address _newSigner) external onlyAdmin{\n      signer = _newSigner;\n    }\n\n      function vSliceViewBalance (address _addr) view external returns (uint) {\n      return vSliceBalances[_addr];\n      }\n      function getStakedBalance () view external returns (uint) {\n      return stakedVSlices[msg.sender];\n      }\n      function getStart () view external returns (uint) {\n      return start;\n      }\n      function setGoodP (uint _p) external onlyAdmin{\n      goodPrice = _p;\n    }\n      function getGoodP () view external returns (uint) {\n      return goodPrice;\n        }\n      function updateWenBlock(uint _count) external onlyAdmin {\n      wenBlock = _count;\n    }\n      function countMinters() view external returns(uint) {\n      return mintersDB.length;\n      }\n      function updateMaxGoodCount(uint _count) external onlyAdmin{\n      maxGoodCount = _count;\n    }\n      function sliceParams () view external returns (uint, uint, uint, uint, uint, uint, address, uint, uint) {\n      return (vSupply, vTotalSupply, wenBlock, maxGoodCount, mintingSpeed, goodPrice, signer, pw[listAdmin],fightMintSupply);\n      }\n      //make withdrawal of Reputation fee\n      function reputation() public onlyAdmin{\n      uint amount = pw[listAdmin];\n      pw[listAdmin] = 0;\n      payable(msg.sender).transfer(amount);\n      }\n  }",
  "sourcePath": "/Users/stanislavpavlovic/Desktop/Slice/ee/contracts/slice.sol",
  "compiler": {
    "name": "solc",
    "version": "0.8.10+commit.fc410830.Emscripten.clang"
  },
  "schemaVersion": "3.4.3",
  "updatedAt": "2022-04-06T19:55:12.825Z",
  "networkType": "ethereum",
  "devdoc": {
    "kind": "dev",
    "methods": {
      "allowance(address,address)": {
        "details": "See {IERC20-allowance}."
      },
      "approve(address,uint256)": {
        "details": "See {IERC20-approve}. Requirements: - `spender` cannot be the zero address."
      },
      "balanceOf(address)": {
        "details": "See {IERC20-balanceOf}."
      },
      "decimals()": {
        "details": "Returns the number of decimals used to get its user representation. For example, if `decimals` equals `2`, a balance of `505` tokens should be displayed to a user as `5.05` (`505 / 10 ** 2`). Tokens usually opt for a value of 18, imitating the relationship between Ether and Wei. This is the value {ERC20} uses, unless this function is overridden; NOTE: This information is only used for _display_ purposes: it in no way affects any of the arithmetic of the contract, including {IERC20-balanceOf} and {IERC20-transfer}."
      },
      "decreaseAllowance(address,uint256)": {
        "details": "Atomically decreases the allowance granted to `spender` by the caller. This is an alternative to {approve} that can be used as a mitigation for problems described in {IERC20-approve}. Emits an {Approval} event indicating the updated allowance. Requirements: - `spender` cannot be the zero address. - `spender` must have allowance for the caller of at least `subtractedValue`."
      },
      "increaseAllowance(address,uint256)": {
        "details": "Atomically increases the allowance granted to `spender` by the caller. This is an alternative to {approve} that can be used as a mitigation for problems described in {IERC20-approve}. Emits an {Approval} event indicating the updated allowance. Requirements: - `spender` cannot be the zero address."
      },
      "name()": {
        "details": "Returns the name of the token."
      },
      "symbol()": {
        "details": "Returns the symbol of the token, usually a shorter version of the name."
      },
      "totalSupply()": {
        "details": "See {IERC20-totalSupply}."
      },
      "transfer(address,uint256)": {
        "details": "See {IERC20-transfer}. Requirements: - `recipient` cannot be the zero address. - the caller must have a balance of at least `amount`."
      },
      "transferFrom(address,address,uint256)": {
        "details": "See {IERC20-transferFrom}. Emits an {Approval} event indicating the updated allowance. This is not required by the EIP. See the note at the beginning of {ERC20}. Requirements: - `sender` and `recipient` cannot be the zero address. - `sender` must have a balance of at least `amount`. - the caller must have allowance for ``sender``'s tokens of at least `amount`."
      }
    },
    "version": 1
  },
  "userdoc": {
    "kind": "user",
    "methods": {},
    "version": 1
  }
}