{
  "contractName": "slice",
  "abi": [
    {
      "inputs": [
        {
          "internalType": "string",
          "name": "name",
          "type": "string"
        },
        {
          "internalType": "string",
          "name": "symbol",
          "type": "string"
        }
      ],
      "stateMutability": "nonpayable",
      "type": "constructor"
    },
    {
      "inputs": [],
      "name": "NotEnoughEther",
      "type": "error"
    },
    {
      "anonymous": false,
      "inputs": [
        {
          "indexed": true,
          "internalType": "address",
          "name": "owner",
          "type": "address"
        },
        {
          "indexed": true,
          "internalType": "address",
          "name": "spender",
          "type": "address"
        },
        {
          "indexed": false,
          "internalType": "uint256",
          "name": "value",
          "type": "uint256"
        }
      ],
      "name": "Approval",
      "type": "event"
    },
    {
      "anonymous": false,
      "inputs": [
        {
          "indexed": false,
          "internalType": "uint256",
          "name": "date",
          "type": "uint256"
        },
        {
          "indexed": true,
          "internalType": "address",
          "name": "reporter",
          "type": "address"
        },
        {
          "indexed": true,
          "internalType": "address",
          "name": "reported",
          "type": "address"
        }
      ],
      "name": "BadActors",
      "type": "event"
    },
    {
      "anonymous": false,
      "inputs": [
        {
          "indexed": true,
          "internalType": "address",
          "name": "_from",
          "type": "address"
        },
        {
          "indexed": true,
          "internalType": "address",
          "name": "_to",
          "type": "address"
        },
        {
          "indexed": false,
          "internalType": "string",
          "name": "message",
          "type": "string"
        }
      ],
      "name": "Chat",
      "type": "event"
    },
    {
      "anonymous": false,
      "inputs": [
        {
          "indexed": false,
          "internalType": "uint256",
          "name": "date",
          "type": "uint256"
        },
        {
          "indexed": true,
          "internalType": "address",
          "name": "reporter",
          "type": "address"
        },
        {
          "indexed": true,
          "internalType": "address",
          "name": "reported",
          "type": "address"
        }
      ],
      "name": "GoodActors",
      "type": "event"
    },
    {
      "anonymous": false,
      "inputs": [
        {
          "indexed": true,
          "internalType": "address",
          "name": "from",
          "type": "address"
        },
        {
          "indexed": true,
          "internalType": "address",
          "name": "to",
          "type": "address"
        },
        {
          "indexed": false,
          "internalType": "uint256",
          "name": "value",
          "type": "uint256"
        }
      ],
      "name": "Transfer",
      "type": "event"
    },
    {
      "anonymous": false,
      "inputs": [
        {
          "indexed": true,
          "internalType": "address",
          "name": "minter",
          "type": "address"
        },
        {
          "indexed": false,
          "internalType": "string",
          "name": "Lat",
          "type": "string"
        },
        {
          "indexed": false,
          "internalType": "string",
          "name": "Lon",
          "type": "string"
        },
        {
          "indexed": false,
          "internalType": "string",
          "name": "Nick",
          "type": "string"
        }
      ],
      "name": "mintersFree",
      "type": "event"
    },
    {
      "anonymous": false,
      "inputs": [
        {
          "indexed": false,
          "internalType": "uint256",
          "name": "date",
          "type": "uint256"
        },
        {
          "indexed": true,
          "internalType": "address",
          "name": "minter",
          "type": "address"
        },
        {
          "indexed": false,
          "internalType": "string",
          "name": "Lat",
          "type": "string"
        },
        {
          "indexed": false,
          "internalType": "string",
          "name": "Lon",
          "type": "string"
        },
        {
          "indexed": false,
          "internalType": "string",
          "name": "Nick",
          "type": "string"
        }
      ],
      "name": "newMinter",
      "type": "event"
    },
    {
      "inputs": [
        {
          "internalType": "address",
          "name": "owner",
          "type": "address"
        },
        {
          "internalType": "address",
          "name": "spender",
          "type": "address"
        }
      ],
      "name": "allowance",
      "outputs": [
        {
          "internalType": "uint256",
          "name": "",
          "type": "uint256"
        }
      ],
      "stateMutability": "view",
      "type": "function",
      "constant": true
    },
    {
      "inputs": [
        {
          "internalType": "address",
          "name": "spender",
          "type": "address"
        },
        {
          "internalType": "uint256",
          "name": "amount",
          "type": "uint256"
        }
      ],
      "name": "approve",
      "outputs": [
        {
          "internalType": "bool",
          "name": "",
          "type": "bool"
        }
      ],
      "stateMutability": "nonpayable",
      "type": "function"
    },
    {
      "inputs": [
        {
          "internalType": "address",
          "name": "account",
          "type": "address"
        }
      ],
      "name": "balanceOf",
      "outputs": [
        {
          "internalType": "uint256",
          "name": "",
          "type": "uint256"
        }
      ],
      "stateMutability": "view",
      "type": "function",
      "constant": true
    },
    {
      "inputs": [],
      "name": "decimals",
      "outputs": [
        {
          "internalType": "uint8",
          "name": "",
          "type": "uint8"
        }
      ],
      "stateMutability": "view",
      "type": "function",
      "constant": true
    },
    {
      "inputs": [
        {
          "internalType": "address",
          "name": "spender",
          "type": "address"
        },
        {
          "internalType": "uint256",
          "name": "subtractedValue",
          "type": "uint256"
        }
      ],
      "name": "decreaseAllowance",
      "outputs": [
        {
          "internalType": "bool",
          "name": "",
          "type": "bool"
        }
      ],
      "stateMutability": "nonpayable",
      "type": "function"
    },
    {
      "inputs": [
        {
          "internalType": "address",
          "name": "spender",
          "type": "address"
        },
        {
          "internalType": "uint256",
          "name": "addedValue",
          "type": "uint256"
        }
      ],
      "name": "increaseAllowance",
      "outputs": [
        {
          "internalType": "bool",
          "name": "",
          "type": "bool"
        }
      ],
      "stateMutability": "nonpayable",
      "type": "function"
    },
    {
      "inputs": [],
      "name": "name",
      "outputs": [
        {
          "internalType": "string",
          "name": "",
          "type": "string"
        }
      ],
      "stateMutability": "view",
      "type": "function",
      "constant": true
    },
    {
      "inputs": [],
      "name": "symbol",
      "outputs": [
        {
          "internalType": "string",
          "name": "",
          "type": "string"
        }
      ],
      "stateMutability": "view",
      "type": "function",
      "constant": true
    },
    {
      "inputs": [],
      "name": "totalSupply",
      "outputs": [
        {
          "internalType": "uint256",
          "name": "",
          "type": "uint256"
        }
      ],
      "stateMutability": "view",
      "type": "function",
      "constant": true
    },
    {
      "inputs": [
        {
          "internalType": "address",
          "name": "recipient",
          "type": "address"
        },
        {
          "internalType": "uint256",
          "name": "amount",
          "type": "uint256"
        }
      ],
      "name": "transfer",
      "outputs": [
        {
          "internalType": "bool",
          "name": "",
          "type": "bool"
        }
      ],
      "stateMutability": "nonpayable",
      "type": "function"
    },
    {
      "inputs": [
        {
          "internalType": "address",
          "name": "sender",
          "type": "address"
        },
        {
          "internalType": "address",
          "name": "recipient",
          "type": "address"
        },
        {
          "internalType": "uint256",
          "name": "amount",
          "type": "uint256"
        }
      ],
      "name": "transferFrom",
      "outputs": [
        {
          "internalType": "bool",
          "name": "",
          "type": "bool"
        }
      ],
      "stateMutability": "nonpayable",
      "type": "function"
    },
    {
      "inputs": [
        {
          "internalType": "address",
          "name": "_addr",
          "type": "address"
        }
      ],
      "name": "reportBadActor",
      "outputs": [],
      "stateMutability": "nonpayable",
      "type": "function"
    },
    {
      "inputs": [
        {
          "internalType": "address",
          "name": "_addr",
          "type": "address"
        }
      ],
      "name": "reportGoodActor",
      "outputs": [],
      "stateMutability": "payable",
      "type": "function",
      "payable": true
    },
    {
      "inputs": [
        {
          "internalType": "string",
          "name": "_gpsLat",
          "type": "string"
        },
        {
          "internalType": "string",
          "name": "_gpsLon",
          "type": "string"
        },
        {
          "internalType": "string",
          "name": "_nickname",
          "type": "string"
        }
      ],
      "name": "AddToWhitelist",
      "outputs": [],
      "stateMutability": "nonpayable",
      "type": "function"
    },
    {
      "inputs": [
        {
          "internalType": "bytes",
          "name": "signature",
          "type": "bytes"
        },
        {
          "internalType": "string",
          "name": "_gpsLat",
          "type": "string"
        },
        {
          "internalType": "string",
          "name": "_gpsLon",
          "type": "string"
        },
        {
          "internalType": "string",
          "name": "_nickname",
          "type": "string"
        }
      ],
      "name": "addToWhitelist_a7I",
      "outputs": [],
      "stateMutability": "nonpayable",
      "type": "function"
    },
    {
      "inputs": [],
      "name": "SliceMinting",
      "outputs": [],
      "stateMutability": "nonpayable",
      "type": "function"
    },
    {
      "inputs": [],
      "name": "vSliceMinting_ExW",
      "outputs": [],
      "stateMutability": "nonpayable",
      "type": "function"
    },
    {
      "inputs": [
        {
          "internalType": "uint256",
          "name": "_amount",
          "type": "uint256"
        },
        {
          "internalType": "address",
          "name": "_addr",
          "type": "address"
        }
      ],
      "name": "stakeVSlice_h56",
      "outputs": [],
      "stateMutability": "nonpayable",
      "type": "function"
    },
    {
      "inputs": [
        {
          "internalType": "uint256",
          "name": "_amount",
          "type": "uint256"
        },
        {
          "internalType": "address",
          "name": "_addr",
          "type": "address"
        }
      ],
      "name": "unstakeVSlice_Hha",
      "outputs": [],
      "stateMutability": "nonpayable",
      "type": "function"
    },
    {
      "inputs": [
        {
          "internalType": "address",
          "name": "_owner",
          "type": "address"
        }
      ],
      "name": "getStakedByStaker",
      "outputs": [
        {
          "components": [
            {
              "internalType": "address",
              "name": "staker",
              "type": "address"
            },
            {
              "internalType": "address",
              "name": "fightContract",
              "type": "address"
            }
          ],
          "internalType": "struct slice.StakedContracts[]",
          "name": "",
          "type": "tuple[]"
        }
      ],
      "stateMutability": "view",
      "type": "function",
      "constant": true
    },
    {
      "inputs": [
        {
          "internalType": "address",
          "name": "_fight",
          "type": "address"
        }
      ],
      "name": "getStakedByFight",
      "outputs": [
        {
          "components": [
            {
              "internalType": "address",
              "name": "staker",
              "type": "address"
            },
            {
              "internalType": "address",
              "name": "fightContract",
              "type": "address"
            }
          ],
          "internalType": "struct slice.StakedContracts[]",
          "name": "",
          "type": "tuple[]"
        }
      ],
      "stateMutability": "view",
      "type": "function",
      "constant": true
    },
    {
      "inputs": [],
      "name": "getAllMinters",
      "outputs": [
        {
          "components": [
            {
              "internalType": "uint256",
              "name": "goodCount",
              "type": "uint256"
            },
            {
              "internalType": "uint256",
              "name": "reported",
              "type": "uint256"
            },
            {
              "internalType": "uint256",
              "name": "lastMinted",
              "type": "uint256"
            },
            {
              "internalType": "string",
              "name": "gpsLat",
              "type": "string"
            },
            {
              "internalType": "string",
              "name": "gpsLon",
              "type": "string"
            },
            {
              "internalType": "string",
              "name": "nickname",
              "type": "string"
            },
            {
              "internalType": "bool",
              "name": "whitelisted",
              "type": "bool"
            },
            {
              "internalType": "address",
              "name": "addr",
              "type": "address"
            }
          ],
          "internalType": "struct slice.Minters[]",
          "name": "",
          "type": "tuple[]"
        }
      ],
      "stateMutability": "view",
      "type": "function",
      "constant": true
    },
    {
      "inputs": [
        {
          "internalType": "address",
          "name": "_addr",
          "type": "address"
        }
      ],
      "name": "getMinter",
      "outputs": [
        {
          "internalType": "uint256",
          "name": "",
          "type": "uint256"
        },
        {
          "internalType": "uint256",
          "name": "",
          "type": "uint256"
        },
        {
          "internalType": "uint256",
          "name": "",
          "type": "uint256"
        },
        {
          "internalType": "string",
          "name": "",
          "type": "string"
        },
        {
          "internalType": "string",
          "name": "",
          "type": "string"
        },
        {
          "internalType": "string",
          "name": "",
          "type": "string"
        },
        {
          "internalType": "bool",
          "name": "",
          "type": "bool"
        },
        {
          "internalType": "address",
          "name": "",
          "type": "address"
        }
      ],
      "stateMutability": "view",
      "type": "function",
      "constant": true
    },
    {
      "inputs": [
        {
          "internalType": "address",
          "name": "_addr",
          "type": "address"
        }
      ],
      "name": "isRegistered",
      "outputs": [
        {
          "internalType": "uint256",
          "name": "",
          "type": "uint256"
        }
      ],
      "stateMutability": "view",
      "type": "function",
      "constant": true
    },
    {
      "inputs": [
        {
          "internalType": "address",
          "name": "_addr",
          "type": "address"
        }
      ],
      "name": "wl",
      "outputs": [
        {
          "internalType": "bool",
          "name": "",
          "type": "bool"
        }
      ],
      "stateMutability": "view",
      "type": "function",
      "constant": true
    },
    {
      "inputs": [],
      "name": "getMintingSpeed",
      "outputs": [
        {
          "internalType": "uint256",
          "name": "",
          "type": "uint256"
        }
      ],
      "stateMutability": "view",
      "type": "function",
      "constant": true
    },
    {
      "inputs": [
        {
          "internalType": "address",
          "name": "newAdmin",
          "type": "address"
        }
      ],
      "name": "updateAdmin",
      "outputs": [],
      "stateMutability": "nonpayable",
      "type": "function"
    },
    {
      "inputs": [
        {
          "internalType": "address",
          "name": "_newSigner",
          "type": "address"
        }
      ],
      "name": "updateSigner",
      "outputs": [],
      "stateMutability": "nonpayable",
      "type": "function"
    },
    {
      "inputs": [
        {
          "internalType": "address",
          "name": "_addr",
          "type": "address"
        }
      ],
      "name": "vSliceViewBalance",
      "outputs": [
        {
          "internalType": "uint256",
          "name": "",
          "type": "uint256"
        }
      ],
      "stateMutability": "view",
      "type": "function",
      "constant": true
    },
    {
      "inputs": [],
      "name": "getStakedBalance",
      "outputs": [
        {
          "internalType": "uint256",
          "name": "",
          "type": "uint256"
        }
      ],
      "stateMutability": "view",
      "type": "function",
      "constant": true
    },
    {
      "inputs": [],
      "name": "getStart",
      "outputs": [
        {
          "internalType": "uint256",
          "name": "",
          "type": "uint256"
        }
      ],
      "stateMutability": "view",
      "type": "function",
      "constant": true
    },
    {
      "inputs": [
        {
          "internalType": "uint256",
          "name": "_p",
          "type": "uint256"
        }
      ],
      "name": "setGoodP",
      "outputs": [],
      "stateMutability": "nonpayable",
      "type": "function"
    },
    {
      "inputs": [],
      "name": "getGoodP",
      "outputs": [
        {
          "internalType": "uint256",
          "name": "",
          "type": "uint256"
        }
      ],
      "stateMutability": "view",
      "type": "function",
      "constant": true
    },
    {
      "inputs": [
        {
          "internalType": "uint256",
          "name": "_count",
          "type": "uint256"
        }
      ],
      "name": "updateWenBlock",
      "outputs": [],
      "stateMutability": "nonpayable",
      "type": "function"
    },
    {
      "inputs": [],
      "name": "countMinters",
      "outputs": [
        {
          "internalType": "uint256",
          "name": "",
          "type": "uint256"
        }
      ],
      "stateMutability": "view",
      "type": "function",
      "constant": true
    },
    {
      "inputs": [
        {
          "internalType": "uint256",
          "name": "_count",
          "type": "uint256"
        }
      ],
      "name": "updateMaxGoodCount",
      "outputs": [],
      "stateMutability": "nonpayable",
      "type": "function"
    },
    {
      "inputs": [],
      "name": "sliceParams",
      "outputs": [
        {
          "internalType": "uint256",
          "name": "",
          "type": "uint256"
        },
        {
          "internalType": "uint256",
          "name": "",
          "type": "uint256"
        },
        {
          "internalType": "uint256",
          "name": "",
          "type": "uint256"
        },
        {
          "internalType": "uint256",
          "name": "",
          "type": "uint256"
        },
        {
          "internalType": "uint256",
          "name": "",
          "type": "uint256"
        },
        {
          "internalType": "uint256",
          "name": "",
          "type": "uint256"
        },
        {
          "internalType": "address",
          "name": "",
          "type": "address"
        },
        {
          "internalType": "uint256",
          "name": "",
          "type": "uint256"
        }
      ],
      "stateMutability": "view",
      "type": "function",
      "constant": true
    },
    {
      "inputs": [
        {
          "internalType": "address",
          "name": "_to",
          "type": "address"
        },
        {
          "internalType": "string",
          "name": "message",
          "type": "string"
        }
      ],
      "name": "sendMessage",
      "outputs": [],
      "stateMutability": "nonpayable",
      "type": "function"
    },
    {
      "inputs": [],
      "name": "reputation",
      "outputs": [],
      "stateMutability": "nonpayable",
      "type": "function"
    }
  ],
  "bytecode": "0x60806040523480156200001157600080fd5b5060405162006117380380620061178339818101604052810190620000379190620003c8565b81818160039080519060200190620000519291906200017b565b5080600490805190602001906200006a9291906200017b565b50505042600581905550620000846200017260201b60201c565b60ff16600a620000959190620005da565b6465fad59c00620000a791906200062b565b60068190555033600860006101000a81548173ffffffffffffffffffffffffffffffffffffffff021916908373ffffffffffffffffffffffffffffffffffffffff16021790555073d6af7959290caee9e8564ec80a33b92335d6232c600960006101000a81548173ffffffffffffffffffffffffffffffffffffffff021916908373ffffffffffffffffffffffffffffffffffffffff1602179055506002600a819055506001600b81905550610e10600c81905550662386f26fc10000600d819055505050620006f1565b60006012905090565b8280546200018990620006bb565b90600052602060002090601f016020900481019282620001ad5760008555620001f9565b82601f10620001c857805160ff1916838001178555620001f9565b82800160010185558215620001f9579182015b82811115620001f8578251825591602001919060010190620001db565b5b5090506200020891906200020c565b5090565b5b80821115620002275760008160009055506001016200020d565b5090565b6000604051905090565b600080fd5b600080fd5b600080fd5b600080fd5b6000601f19601f8301169050919050565b7f4e487b7100000000000000000000000000000000000000000000000000000000600052604160045260246000fd5b620002948262000249565b810181811067ffffffffffffffff82111715620002b657620002b56200025a565b5b80604052505050565b6000620002cb6200022b565b9050620002d9828262000289565b919050565b600067ffffffffffffffff821115620002fc57620002fb6200025a565b5b620003078262000249565b9050602081019050919050565b60005b838110156200033457808201518184015260208101905062000317565b8381111562000344576000848401525b50505050565b6000620003616200035b84620002de565b620002bf565b90508281526020810184848401111562000380576200037f62000244565b5b6200038d84828562000314565b509392505050565b600082601f830112620003ad57620003ac6200023f565b5b8151620003bf8482602086016200034a565b91505092915050565b60008060408385031215620003e257620003e162000235565b5b600083015167ffffffffffffffff8111156200040357620004026200023a565b5b620004118582860162000395565b925050602083015167ffffffffffffffff8111156200043557620004346200023a565b5b620004438582860162000395565b9150509250929050565b7f4e487b7100000000000000000000000000000000000000000000000000000000600052601160045260246000fd5b60008160011c9050919050565b6000808291508390505b6001851115620004db57808604811115620004b357620004b26200044d565b5b6001851615620004c35780820291505b8081029050620004d3856200047c565b945062000493565b94509492505050565b600082620004f65760019050620005c9565b81620005065760009050620005c9565b81600181146200051f57600281146200052a5762000560565b6001915050620005c9565b60ff8411156200053f576200053e6200044d565b5b8360020a9150848211156200055957620005586200044d565b5b50620005c9565b5060208310610133831016604e8410600b84101617156200059a5782820a9050838111156200059457620005936200044d565b5b620005c9565b620005a9848484600162000489565b92509050818404811115620005c357620005c26200044d565b5b81810290505b9392505050565b6000819050919050565b6000620005e782620005d0565b9150620005f483620005d0565b9250620006237fffffffffffffffffffffffffffffffffffffffffffffffffffffffffffffffff8484620004e4565b905092915050565b60006200063882620005d0565b91506200064583620005d0565b9250817fffffffffffffffffffffffffffffffffffffffffffffffffffffffffffffffff04831182151516156200068157620006806200044d565b5b828202905092915050565b7f4e487b7100000000000000000000000000000000000000000000000000000000600052602260045260246000fd5b60006002820490506001821680620006d457607f821691505b60208210811415620006eb57620006ea6200068c565b5b50919050565b615a1680620007016000396000f3fe60806040526004361061022e5760003560e01c8063a7ecd37e1161012e578063ca6ad40c116100ab578063ddc14afe1161006f578063ddc14afe14610874578063de6f24bb1461089f578063e2f273bd146108c8578063e3917cfc146108f1578063f10249b31461092e5761022e565b8063ca6ad40c14610791578063d4f4648f146107bc578063d517c931146107e5578063d5c0f1fb1461080e578063dd62ed3e146108375761022e565b8063c1354b5a116100f2578063c1354b5a146106c0578063c27bd3ee146106e9578063c3c5a54714610712578063c52164c61461074f578063c5292c67146107665761022e565b8063a7ecd37e146105e3578063a9059cbb1461060c578063b109813714610649578063b14cc0e014610665578063bc73b6411461067c5761022e565b806339509351116101bc5780638891b29e116101805780638891b29e146104ea57806395d89b4114610527578063a045442c14610552578063a412a69e1461057d578063a457c2d7146105a65761022e565b806339509351146103ea5780635fbb70931461042757806361d42f6b1461045957806370a082311461048257806376965867146104bf5761022e565b806323b872dd1161020357806323b872dd146102dd57806326c95e0a1461031a5780632fee9e7e14610345578063313ce5671461038257806335703a3a146103ad5761022e565b8061d5981461023357806306fdde031461024a578063095ea7b31461027557806318160ddd146102b2575b600080fd5b34801561023f57600080fd5b50610248610957565b005b34801561025657600080fd5b5061025f610bb7565b60405161026c9190614003565b60405180910390f35b34801561028157600080fd5b5061029c600480360381019061029791906140cd565b610c49565b6040516102a99190614128565b60405180910390f35b3480156102be57600080fd5b506102c7610c67565b6040516102d49190614152565b60405180910390f35b3480156102e957600080fd5b5061030460048036038101906102ff919061416d565b610c71565b6040516103119190614128565b60405180910390f35b34801561032657600080fd5b5061032f610d69565b60405161033c9190614152565b60405180910390f35b34801561035157600080fd5b5061036c600480360381019061036791906141c0565b610d73565b6040516103799190614128565b60405180910390f35b34801561038e57600080fd5b50610397610dc9565b6040516103a49190614209565b60405180910390f35b3480156103b957600080fd5b506103d460048036038101906103cf91906141c0565b610dd2565b6040516103e19190614152565b60405180910390f35b3480156103f657600080fd5b50610411600480360381019061040c91906140cd565b610e1b565b60405161041e9190614128565b60405180910390f35b34801561043357600080fd5b5061043c610ec7565b604051610450989796959493929190614233565b60405180910390f35b34801561046557600080fd5b50610480600480360381019061047b91906142b1565b610f84565b005b34801561048e57600080fd5b506104a960048036038101906104a491906141c0565b611144565b6040516104b69190614152565b60405180910390f35b3480156104cb57600080fd5b506104d461118c565b6040516104e19190614152565b60405180910390f35b3480156104f657600080fd5b50610511600480360381019061050c91906141c0565b6111d3565b60405161051e91906143de565b60405180910390f35b34801561053357600080fd5b5061053c611420565b6040516105499190614003565b60405180910390f35b34801561055e57600080fd5b506105676114b2565b60405161057491906145e8565b60405180910390f35b34801561058957600080fd5b506105a4600480360381019061059f919061479f565b6117d3565b005b3480156105b257600080fd5b506105cd60048036038101906105c891906140cd565b611b96565b6040516105da9190614128565b60405180910390f35b3480156105ef57600080fd5b5061060a600480360381019061060591906141c0565b611c81565b005b34801561061857600080fd5b50610633600480360381019061062e91906140cd565b611ccd565b6040516106409190614128565b60405180910390f35b610663600480360381019061065e91906141c0565b611ceb565b005b34801561067157600080fd5b5061067a612233565b005b34801561068857600080fd5b506106a3600480360381019061069e91906141c0565b612318565b6040516106b798979695949392919061487b565b60405180910390f35b3480156106cc57600080fd5b506106e760048036038101906106e2919061490e565b6125a2565b005b3480156106f557600080fd5b50610710600480360381019061070b91906149b5565b6128ce565b005b34801561071e57600080fd5b50610739600480360381019061073491906141c0565b6128e0565b6040516107469190614152565b60405180910390f35b34801561075b57600080fd5b50610764612929565b005b34801561077257600080fd5b5061077b612a48565b6040516107889190614152565b60405180910390f35b34801561079d57600080fd5b506107a6612a52565b6040516107b39190614152565b60405180910390f35b3480156107c857600080fd5b506107e360048036038101906107de91906142b1565b612a5f565b005b3480156107f157600080fd5b5061080c600480360381019061080791906149b5565b612f01565b005b34801561081a57600080fd5b50610835600480360381019061083091906141c0565b612f13565b005b34801561084357600080fd5b5061085e600480360381019061085991906149e2565b6132af565b60405161086b9190614152565b60405180910390f35b34801561088057600080fd5b50610889613336565b6040516108969190614152565b60405180910390f35b3480156108ab57600080fd5b506108c660048036038101906108c19190614a78565b613340565b005b3480156108d457600080fd5b506108ef60048036038101906108ea91906141c0565b6133ac565b005b3480156108fd57600080fd5b50610918600480360381019061091391906141c0565b6133f8565b60405161092591906143de565b60405180910390f35b34801561093a57600080fd5b50610955600480360381019061095091906149b5565b613645565b005b61095f613657565b60065460075411156109a6576040517f08c379a000000000000000000000000000000000000000000000000000000000815260040161099d90614b24565b60405180910390fd5b6000601160003373ffffffffffffffffffffffffffffffffffffffff1673ffffffffffffffffffffffffffffffffffffffff1681526020019081526020016000205490506000600e8281548110610a00576109ff614b44565b5b90600052602060002090600702019050600080600083600201541415610ae857610a28610dc9565b60ff16600a610a379190614cd5565b60055442610a459190614d20565b610a4f9190614d54565b9150600c5482610a5f9190614ddd565b601460003373ffffffffffffffffffffffffffffffffffffffff1673ffffffffffffffffffffffffffffffffffffffff1681526020019081526020016000206000828254610aad9190614e0e565b92505081905550428360020181905550600c5482610acb9190614ddd565b60076000828254610adc9190614e0e565b92505081905550610bb1565b826002015442610af89190614d20565b9050610b02610dc9565b60ff16600a610b119190614cd5565b81610b1c9190614d54565b9150600c5482610b2c9190614ddd565b601460003373ffffffffffffffffffffffffffffffffffffffff1673ffffffffffffffffffffffffffffffffffffffff1681526020019081526020016000206000828254610b7a9190614e0e565b92505081905550428360020181905550600c5482610b989190614ddd565b60076000828254610ba99190614e0e565b925050819055505b50505050565b606060038054610bc690614e93565b80601f0160208091040260200160405190810160405280929190818152602001828054610bf290614e93565b8015610c3f5780601f10610c1457610100808354040283529160200191610c3f565b820191906000526020600020905b815481529060010190602001808311610c2257829003601f168201915b5050505050905090565b6000610c5d610c566136ec565b84846136f4565b6001905092915050565b6000600254905090565b6000610c7e8484846138bf565b6000600160008673ffffffffffffffffffffffffffffffffffffffff1673ffffffffffffffffffffffffffffffffffffffff1681526020019081526020016000206000610cc96136ec565b73ffffffffffffffffffffffffffffffffffffffff1673ffffffffffffffffffffffffffffffffffffffff16815260200190815260200160002054905082811015610d49576040517f08c379a0000000000000000000000000000000000000000000000000000000008152600401610d4090614f37565b60405180910390fd5b610d5d85610d556136ec565b8584036136f4565b60019150509392505050565b6000600d54905090565b6000601660008373ffffffffffffffffffffffffffffffffffffffff1673ffffffffffffffffffffffffffffffffffffffff16815260200190815260200160002060009054906101000a900460ff169050919050565b60006012905090565b6000601460008373ffffffffffffffffffffffffffffffffffffffff1673ffffffffffffffffffffffffffffffffffffffff168152602001908152602001600020549050919050565b6000610ebd610e286136ec565b848460016000610e366136ec565b73ffffffffffffffffffffffffffffffffffffffff1673ffffffffffffffffffffffffffffffffffffffff16815260200190815260200160002060008873ffffffffffffffffffffffffffffffffffffffff1673ffffffffffffffffffffffffffffffffffffffff16815260200190815260200160002054610eb89190614e0e565b6136f4565b6001905092915050565b600080600080600080600080600754600654600a54600b54600c54600d54600960009054906101000a900473ffffffffffffffffffffffffffffffffffffffff1660196000600860009054906101000a900473ffffffffffffffffffffffffffffffffffffffff1673ffffffffffffffffffffffffffffffffffffffff1673ffffffffffffffffffffffffffffffffffffffff16815260200190815260200160002054975097509750975097509750975097509091929394959697565b6000601160008373ffffffffffffffffffffffffffffffffffffffff1673ffffffffffffffffffffffffffffffffffffffff1681526020019081526020016000205490506000600e8281548110610fde57610fdd614b44565b5b9060005260206000209060070201905083601560008573ffffffffffffffffffffffffffffffffffffffff1673ffffffffffffffffffffffffffffffffffffffff16815260200190815260200160002054101580156110535750600015158160060160009054906101000a900460ff16151514155b611092576040517f08c379a000000000000000000000000000000000000000000000000000000000815260040161108990614fa3565b60405180910390fd5b83601560008573ffffffffffffffffffffffffffffffffffffffff1673ffffffffffffffffffffffffffffffffffffffff16815260200190815260200160002060008282546110e19190614d20565b9250508190555083601460008573ffffffffffffffffffffffffffffffffffffffff1673ffffffffffffffffffffffffffffffffffffffff16815260200190815260200160002060008282546111379190614e0e565b9250508190555050505050565b60008060008373ffffffffffffffffffffffffffffffffffffffff1673ffffffffffffffffffffffffffffffffffffffff168152602001908152602001600020549050919050565b6000601560003373ffffffffffffffffffffffffffffffffffffffff1673ffffffffffffffffffffffffffffffffffffffff16815260200190815260200160002054905090565b60606000601360008473ffffffffffffffffffffffffffffffffffffffff1673ffffffffffffffffffffffffffffffffffffffff1681526020019081526020016000205467ffffffffffffffff8111156112305761122f614674565b5b60405190808252806020026020018201604052801561126957816020015b611256613e24565b81526020019060019003908161124e5790505b5090506000805b600f80549050811015611415578473ffffffffffffffffffffffffffffffffffffffff16600f82815481106112a8576112a7614b44565b5b906000526020600020906002020160010160009054906101000a900473ffffffffffffffffffffffffffffffffffffffff1673ffffffffffffffffffffffffffffffffffffffff161415611402576000600f828154811061130c5761130b614b44565b5b90600052602060002090600202019050806040518060400160405290816000820160009054906101000a900473ffffffffffffffffffffffffffffffffffffffff1673ffffffffffffffffffffffffffffffffffffffff1673ffffffffffffffffffffffffffffffffffffffff1681526020016001820160009054906101000a900473ffffffffffffffffffffffffffffffffffffffff1673ffffffffffffffffffffffffffffffffffffffff1673ffffffffffffffffffffffffffffffffffffffff16815250508484815181106113e7576113e6614b44565b5b602002602001018190525082806113fd90614fc3565b935050505b808061140d90614fc3565b915050611270565b508192505050919050565b60606004805461142f90614e93565b80601f016020809104026020016040519081016040528092919081815260200182805461145b90614e93565b80156114a85780601f1061147d576101008083540402835291602001916114a8565b820191906000526020600020905b81548152906001019060200180831161148b57829003601f168201915b5050505050905090565b60606000600e8054905067ffffffffffffffff8111156114d5576114d4614674565b5b60405190808252806020026020018201604052801561150e57816020015b6114fb613e6a565b8152602001906001900390816114f35790505b50905060005b600e805490508110156117cb576000600e828154811061153757611536614b44565b5b90600052602060002090600702019050806040518061010001604052908160008201548152602001600182015481526020016002820154815260200160038201805461158290614e93565b80601f01602080910402602001604051908101604052809291908181526020018280546115ae90614e93565b80156115fb5780601f106115d0576101008083540402835291602001916115fb565b820191906000526020600020905b8154815290600101906020018083116115de57829003601f168201915b5050505050815260200160048201805461161490614e93565b80601f016020809104026020016040519081016040528092919081815260200182805461164090614e93565b801561168d5780601f106116625761010080835404028352916020019161168d565b820191906000526020600020905b81548152906001019060200180831161167057829003601f168201915b505050505081526020016005820180546116a690614e93565b80601f01602080910402602001604051908101604052809291908181526020018280546116d290614e93565b801561171f5780601f106116f45761010080835404028352916020019161171f565b820191906000526020600020905b81548152906001019060200180831161170257829003601f168201915b505050505081526020016006820160009054906101000a900460ff161515151581526020016006820160019054906101000a900473ffffffffffffffffffffffffffffffffffffffff1673ffffffffffffffffffffffffffffffffffffffff1673ffffffffffffffffffffffffffffffffffffffff16815250508383815181106117ac576117ab614b44565b5b60200260200101819052505080806117c390614fc3565b915050611514565b508091505090565b6000611804336040516020016117e99190615054565b60405160208183030381529060405280519060200120613b40565b9050600960009054906101000a900473ffffffffffffffffffffffffffffffffffffffff1673ffffffffffffffffffffffffffffffffffffffff1661188d8288888080601f016020809104026020016040519081016040528093929190818152602001838380828437600081840152601f19601f82011690508083019250505050505050613b70565b73ffffffffffffffffffffffffffffffffffffffff161480156118ef57506000601160003373ffffffffffffffffffffffffffffffffffffffff1673ffffffffffffffffffffffffffffffffffffffff16815260200190815260200160002054145b61192e576040517f08c379a0000000000000000000000000000000000000000000000000000000008152600401611925906150bb565b60405180910390fd5b600e6040518061010001604052806000815260200160008152602001600081526020018681526020018581526020018481526020016001151581526020013373ffffffffffffffffffffffffffffffffffffffff16815250908060018154018082558091505060019003906000526020600020906007020160009091909190915060008201518160000155602082015181600101556040820151816002015560608201518160030190805190602001906119e9929190613ec7565b506080820151816004019080519060200190611a06929190613ec7565b5060a0820151816005019080519060200190611a23929190613ec7565b5060c08201518160060160006101000a81548160ff02191690831515021790555060e08201518160060160016101000a81548173ffffffffffffffffffffffffffffffffffffffff021916908373ffffffffffffffffffffffffffffffffffffffff16021790555050506001600e80549050611a9f9190614d20565b601160003373ffffffffffffffffffffffffffffffffffffffff1673ffffffffffffffffffffffffffffffffffffffff168152602001908152602001600020819055506001601660003373ffffffffffffffffffffffffffffffffffffffff1673ffffffffffffffffffffffffffffffffffffffff16815260200190815260200160002060006101000a81548160ff0219169083151502179055503373ffffffffffffffffffffffffffffffffffffffff167f529fc32b54e6dd32e4b333dc98403668fe1355a18f3fe4f2468a2144f19e892f42868686604051611b8694939291906150db565b60405180910390a2505050505050565b60008060016000611ba56136ec565b73ffffffffffffffffffffffffffffffffffffffff1673ffffffffffffffffffffffffffffffffffffffff16815260200190815260200160002060008573ffffffffffffffffffffffffffffffffffffffff1673ffffffffffffffffffffffffffffffffffffffff16815260200190815260200160002054905082811015611c62576040517f08c379a0000000000000000000000000000000000000000000000000000000008152600401611c59906151a7565b60405180910390fd5b611c76611c6d6136ec565b858584036136f4565b600191505092915050565b611c89613be5565b80600960006101000a81548173ffffffffffffffffffffffffffffffffffffffff021916908373ffffffffffffffffffffffffffffffffffffffff16021790555050565b6000611ce1611cda6136ec565b84846138bf565b6001905092915050565b611cf3613657565b6000601160008373ffffffffffffffffffffffffffffffffffffffff1673ffffffffffffffffffffffffffffffffffffffff1681526020019081526020016000205490506000600e8281548110611d4d57611d4c614b44565b5b906000526020600020906007020190508273ffffffffffffffffffffffffffffffffffffffff163373ffffffffffffffffffffffffffffffffffffffff161415611dcc576040517f08c379a0000000000000000000000000000000000000000000000000000000008152600401611dc390615213565b60405180910390fd5b8273ffffffffffffffffffffffffffffffffffffffff16601760003373ffffffffffffffffffffffffffffffffffffffff1673ffffffffffffffffffffffffffffffffffffffff16815260200190815260200160002060008573ffffffffffffffffffffffffffffffffffffffff1673ffffffffffffffffffffffffffffffffffffffff16815260200190815260200160002060009054906101000a900473ffffffffffffffffffffffffffffffffffffffff1673ffffffffffffffffffffffffffffffffffffffff161415611ed7576040517f08c379a0000000000000000000000000000000000000000000000000000000008152600401611ece9061527f565b60405180910390fd5b600b54816000015410611f1f576040517f08c379a0000000000000000000000000000000000000000000000000000000008152600401611f16906152eb565b60405180910390fd5b6000816001015411611f66576040517f08c379a0000000000000000000000000000000000000000000000000000000008152600401611f5d90615357565b60405180910390fd5b600d543414611fa1576040517f8a0d377900000000000000000000000000000000000000000000000000000000815260040160405180910390fd5b600d5460196000600860009054906101000a900473ffffffffffffffffffffffffffffffffffffffff1673ffffffffffffffffffffffffffffffffffffffff1673ffffffffffffffffffffffffffffffffffffffff16815260200190815260200160002060008282546120149190614e0e565b9250508190555082601760003373ffffffffffffffffffffffffffffffffffffffff1673ffffffffffffffffffffffffffffffffffffffff16815260200190815260200160002060008573ffffffffffffffffffffffffffffffffffffffff1673ffffffffffffffffffffffffffffffffffffffff16815260200190815260200160002060006101000a81548173ffffffffffffffffffffffffffffffffffffffff021916908373ffffffffffffffffffffffffffffffffffffffff16021790555060018160010160008282546120eb9190614d20565b9250508190555060018160000160008282546121079190614e0e565b92505081905550600a548160010154106121535760008160060160009054906101000a900460ff169050808260060160006101000a81548160ff021916908315150217905550506121c9565b60018160060160006101000a81548160ff0219169083151502179055506001601660008573ffffffffffffffffffffffffffffffffffffffff1673ffffffffffffffffffffffffffffffffffffffff16815260200190815260200160002060006101000a81548160ff0219169083151502179055505b8273ffffffffffffffffffffffffffffffffffffffff163373ffffffffffffffffffffffffffffffffffffffff167f11c9a04d40e079b6a6add720dd7c0a8ae1776acefdca6f37f4046c709a4dffcf426040516122269190614152565b60405180910390a3505050565b61223b613657565b6006546007541015612282576040517f08c379a0000000000000000000000000000000000000000000000000000000008152600401612279906153c3565b60405180910390fd5b6000601460003373ffffffffffffffffffffffffffffffffffffffff1673ffffffffffffffffffffffffffffffffffffffff1681526020019081526020016000205490506000601460003373ffffffffffffffffffffffffffffffffffffffff1673ffffffffffffffffffffffffffffffffffffffff168152602001908152602001600020819055506123153382613c77565b50565b600080600060608060606000806000601160008b73ffffffffffffffffffffffffffffffffffffffff1673ffffffffffffffffffffffffffffffffffffffff1681526020019081526020016000205490506000600e828154811061237f5761237e614b44565b5b906000526020600020906007020190508060000154816001015482600201548360030184600401856005018660060160009054906101000a900460ff168760060160019054906101000a900473ffffffffffffffffffffffffffffffffffffffff168480546123ed90614e93565b80601f016020809104026020016040519081016040528092919081815260200182805461241990614e93565b80156124665780601f1061243b57610100808354040283529160200191612466565b820191906000526020600020905b81548152906001019060200180831161244957829003601f168201915b5050505050945083805461247990614e93565b80601f01602080910402602001604051908101604052809291908181526020018280546124a590614e93565b80156124f25780601f106124c7576101008083540402835291602001916124f2565b820191906000526020600020905b8154815290600101906020018083116124d557829003601f168201915b5050505050935082805461250590614e93565b80601f016020809104026020016040519081016040528092919081815260200182805461253190614e93565b801561257e5780601f106125535761010080835404028352916020019161257e565b820191906000526020600020905b81548152906001019060200180831161256157829003601f168201915b50505050509250995099509950995099509950995099505050919395975091939597565b60065460075410156125e9576040517f08c379a00000000000000000000000000000000000000000000000000000000081526004016125e090615409565b60405180910390fd5b6000601160003373ffffffffffffffffffffffffffffffffffffffff1673ffffffffffffffffffffffffffffffffffffffff168152602001908152602001600020541461266b576040517f08c379a000000000000000000000000000000000000000000000000000000000815260040161266290615409565b60405180910390fd5b600e6040518061010001604052806000815260200160008152602001600081526020018581526020018481526020018381526020016001151581526020013373ffffffffffffffffffffffffffffffffffffffff1681525090806001815401808255809150506001900390600052602060002090600702016000909190919091506000820151816000015560208201518160010155604082015181600201556060820151816003019080519060200190612726929190613ec7565b506080820151816004019080519060200190612743929190613ec7565b5060a0820151816005019080519060200190612760929190613ec7565b5060c08201518160060160006101000a81548160ff02191690831515021790555060e08201518160060160016101000a81548173ffffffffffffffffffffffffffffffffffffffff021916908373ffffffffffffffffffffffffffffffffffffffff16021790555050506001600e805490506127dc9190614d20565b601160003373ffffffffffffffffffffffffffffffffffffffff1673ffffffffffffffffffffffffffffffffffffffff168152602001908152602001600020819055506001601660003373ffffffffffffffffffffffffffffffffffffffff1673ffffffffffffffffffffffffffffffffffffffff16815260200190815260200160002060006101000a81548160ff0219169083151502179055503373ffffffffffffffffffffffffffffffffffffffff167f07acefbc52945a41d46c17d9c5b0bdba3b6d33f6a99fe6d079ba42587b7d34238484846040516128c193929190615429565b60405180910390a2505050565b6128d6613be5565b80600b8190555050565b6000601160008373ffffffffffffffffffffffffffffffffffffffff1673ffffffffffffffffffffffffffffffffffffffff168152602001908152602001600020549050919050565b612931613be5565b600060196000600860009054906101000a900473ffffffffffffffffffffffffffffffffffffffff1673ffffffffffffffffffffffffffffffffffffffff1673ffffffffffffffffffffffffffffffffffffffff168152602001908152602001600020549050600060196000600860009054906101000a900473ffffffffffffffffffffffffffffffffffffffff1673ffffffffffffffffffffffffffffffffffffffff1673ffffffffffffffffffffffffffffffffffffffff168152602001908152602001600020819055503373ffffffffffffffffffffffffffffffffffffffff166108fc829081150290604051600060405180830381858888f19350505050158015612a44573d6000803e3d6000fd5b5050565b6000600554905090565b6000600e80549050905090565b6000601160008373ffffffffffffffffffffffffffffffffffffffff1673ffffffffffffffffffffffffffffffffffffffff1681526020019081526020016000205490506000600e8281548110612ab957612ab8614b44565b5b9060005260206000209060070201905083601460008573ffffffffffffffffffffffffffffffffffffffff1673ffffffffffffffffffffffffffffffffffffffff1681526020019081526020016000205410158015612b2e5750600015158160060160009054906101000a900460ff16151514155b612b6d576040517f08c379a0000000000000000000000000000000000000000000000000000000008152600401612b6490614fa3565b60405180910390fd5b83601560008573ffffffffffffffffffffffffffffffffffffffff1673ffffffffffffffffffffffffffffffffffffffff1681526020019081526020016000206000828254612bbc9190614e0e565b9250508190555083601460008573ffffffffffffffffffffffffffffffffffffffff1673ffffffffffffffffffffffffffffffffffffffff1681526020019081526020016000206000828254612c129190614d20565b9250508190555060001515601860008573ffffffffffffffffffffffffffffffffffffffff1673ffffffffffffffffffffffffffffffffffffffff16815260200190815260200160002060003373ffffffffffffffffffffffffffffffffffffffff1673ffffffffffffffffffffffffffffffffffffffff16815260200190815260200160002060009054906101000a900460ff1615151415612ef357600f60405180604001604052808573ffffffffffffffffffffffffffffffffffffffff1681526020013373ffffffffffffffffffffffffffffffffffffffff16815250908060018154018082558091505060019003906000526020600020906002020160009091909190915060008201518160000160006101000a81548173ffffffffffffffffffffffffffffffffffffffff021916908373ffffffffffffffffffffffffffffffffffffffff16021790555060208201518160010160006101000a81548173ffffffffffffffffffffffffffffffffffffffff021916908373ffffffffffffffffffffffffffffffffffffffff16021790555050506001601860008573ffffffffffffffffffffffffffffffffffffffff1673ffffffffffffffffffffffffffffffffffffffff16815260200190815260200160002060003373ffffffffffffffffffffffffffffffffffffffff1673ffffffffffffffffffffffffffffffffffffffff16815260200190815260200160002060006101000a81548160ff0219169083151502179055506001601260008573ffffffffffffffffffffffffffffffffffffffff1673ffffffffffffffffffffffffffffffffffffffff1681526020019081526020016000206000828254612e909190614e0e565b925050819055506001601360003373ffffffffffffffffffffffffffffffffffffffff1673ffffffffffffffffffffffffffffffffffffffff1681526020019081526020016000206000828254612ee79190614e0e565b92505081905550612efa565b5050612efd565b50505b5050565b612f09613be5565b80600a8190555050565b612f1b613657565b6000601160008373ffffffffffffffffffffffffffffffffffffffff1673ffffffffffffffffffffffffffffffffffffffff1681526020019081526020016000205490506000600e8281548110612f7557612f74614b44565b5b906000526020600020906007020190508273ffffffffffffffffffffffffffffffffffffffff16601760003373ffffffffffffffffffffffffffffffffffffffff1673ffffffffffffffffffffffffffffffffffffffff16815260200190815260200160002060008573ffffffffffffffffffffffffffffffffffffffff1673ffffffffffffffffffffffffffffffffffffffff16815260200190815260200160002060009054906101000a900473ffffffffffffffffffffffffffffffffffffffff1673ffffffffffffffffffffffffffffffffffffffff16141580156130735750600015158160060160009054906101000a900460ff16151514155b6130b2576040517f08c379a00000000000000000000000000000000000000000000000000000000081526004016130a99061527f565b60405180910390fd5b82601760003373ffffffffffffffffffffffffffffffffffffffff1673ffffffffffffffffffffffffffffffffffffffff16815260200190815260200160002060008573ffffffffffffffffffffffffffffffffffffffff1673ffffffffffffffffffffffffffffffffffffffff16815260200190815260200160002060006101000a81548173ffffffffffffffffffffffffffffffffffffffff021916908373ffffffffffffffffffffffffffffffffffffffff16021790555060018160010160008282546131829190614e0e565b92505081905550600a54816001015410156131cf5760008160060160009054906101000a900460ff169050808260060160006101000a81548160ff02191690831515021790555050613245565b60008160060160006101000a81548160ff0219169083151502179055506000601660008573ffffffffffffffffffffffffffffffffffffffff1673ffffffffffffffffffffffffffffffffffffffff16815260200190815260200160002060006101000a81548160ff0219169083151502179055505b8273ffffffffffffffffffffffffffffffffffffffff163373ffffffffffffffffffffffffffffffffffffffff167f6ceca1a3cd7cb44311239fc385b20e17433d6483d6abe63fb5c51567edd4aa4a426040516132a29190614152565b60405180910390a3505050565b6000600160008473ffffffffffffffffffffffffffffffffffffffff1673ffffffffffffffffffffffffffffffffffffffff16815260200190815260200160002060008373ffffffffffffffffffffffffffffffffffffffff1673ffffffffffffffffffffffffffffffffffffffff16815260200190815260200160002054905092915050565b6000600c54905090565b8273ffffffffffffffffffffffffffffffffffffffff163373ffffffffffffffffffffffffffffffffffffffff167f30b70ac3fbb7579c74a917a29389560028fa9789f81f3540fd9da51e7f457d8b848460405161339f9291906154a2565b60405180910390a3505050565b6133b4613be5565b80600860006101000a81548173ffffffffffffffffffffffffffffffffffffffff021916908373ffffffffffffffffffffffffffffffffffffffff16021790555050565b60606000601260008473ffffffffffffffffffffffffffffffffffffffff1673ffffffffffffffffffffffffffffffffffffffff1681526020019081526020016000205467ffffffffffffffff81111561345557613454614674565b5b60405190808252806020026020018201604052801561348e57816020015b61347b613e24565b8152602001906001900390816134735790505b5090506000805b600f8054905081101561363a578473ffffffffffffffffffffffffffffffffffffffff16600f82815481106134cd576134cc614b44565b5b906000526020600020906002020160000160009054906101000a900473ffffffffffffffffffffffffffffffffffffffff1673ffffffffffffffffffffffffffffffffffffffff161415613627576000600f828154811061353157613530614b44565b5b90600052602060002090600202019050806040518060400160405290816000820160009054906101000a900473ffffffffffffffffffffffffffffffffffffffff1673ffffffffffffffffffffffffffffffffffffffff1673ffffffffffffffffffffffffffffffffffffffff1681526020016001820160009054906101000a900473ffffffffffffffffffffffffffffffffffffffff1673ffffffffffffffffffffffffffffffffffffffff1673ffffffffffffffffffffffffffffffffffffffff168152505084848151811061360c5761360b614b44565b5b6020026020010181905250828061362290614fc3565b935050505b808061363290614fc3565b915050613495565b508192505050919050565b61364d613be5565b80600d8190555050565b60011515601660003373ffffffffffffffffffffffffffffffffffffffff1673ffffffffffffffffffffffffffffffffffffffff16815260200190815260200160002060009054906101000a900460ff161515146136ea576040517f08c379a00000000000000000000000000000000000000000000000000000000081526004016136e190615512565b60405180910390fd5b565b600033905090565b600073ffffffffffffffffffffffffffffffffffffffff168373ffffffffffffffffffffffffffffffffffffffff161415613764576040517f08c379a000000000000000000000000000000000000000000000000000000000815260040161375b906155a4565b60405180910390fd5b600073ffffffffffffffffffffffffffffffffffffffff168273ffffffffffffffffffffffffffffffffffffffff1614156137d4576040517f08c379a00000000000000000000000000000000000000000000000000000000081526004016137cb90615636565b60405180910390fd5b80600160008573ffffffffffffffffffffffffffffffffffffffff1673ffffffffffffffffffffffffffffffffffffffff16815260200190815260200160002060008473ffffffffffffffffffffffffffffffffffffffff1673ffffffffffffffffffffffffffffffffffffffff168152602001908152602001600020819055508173ffffffffffffffffffffffffffffffffffffffff168373ffffffffffffffffffffffffffffffffffffffff167f8c5be1e5ebec7d5bd14f71427d1e84f3dd0314c0f7b2291e5b200ac8c7c3b925836040516138b29190614152565b60405180910390a3505050565b600073ffffffffffffffffffffffffffffffffffffffff168373ffffffffffffffffffffffffffffffffffffffff16141561392f576040517f08c379a0000000000000000000000000000000000000000000000000000000008152600401613926906156c8565b60405180910390fd5b600073ffffffffffffffffffffffffffffffffffffffff168273ffffffffffffffffffffffffffffffffffffffff16141561399f576040517f08c379a00000000000000000000000000000000000000000000000000000000081526004016139969061575a565b60405180910390fd5b6139aa838383613dd7565b60008060008573ffffffffffffffffffffffffffffffffffffffff1673ffffffffffffffffffffffffffffffffffffffff16815260200190815260200160002054905081811015613a30576040517f08c379a0000000000000000000000000000000000000000000000000000000008152600401613a27906157ec565b60405180910390fd5b8181036000808673ffffffffffffffffffffffffffffffffffffffff1673ffffffffffffffffffffffffffffffffffffffff16815260200190815260200160002081905550816000808573ffffffffffffffffffffffffffffffffffffffff1673ffffffffffffffffffffffffffffffffffffffff1681526020019081526020016000206000828254613ac39190614e0e565b925050819055508273ffffffffffffffffffffffffffffffffffffffff168473ffffffffffffffffffffffffffffffffffffffff167fddf252ad1be2c89b69c2b068fc378daa952ba7f163c4a11628f55a4df523b3ef84604051613b279190614152565b60405180910390a3613b3a848484613ddc565b50505050565b600081604051602001613b53919061588e565b604051602081830303815290604052805190602001209050919050565b600080600080613b7f85613de1565b80935081945082955050505060018684848460405160008152602001604052604051613bae94939291906158c3565b6020604051602081039080840390855afa158015613bd0573d6000803e3d6000fd5b50505060206040510351935050505092915050565b600860009054906101000a900473ffffffffffffffffffffffffffffffffffffffff1673ffffffffffffffffffffffffffffffffffffffff163373ffffffffffffffffffffffffffffffffffffffff1614613c75576040517f08c379a0000000000000000000000000000000000000000000000000000000008152600401613c6c90615954565b60405180910390fd5b565b600073ffffffffffffffffffffffffffffffffffffffff168273ffffffffffffffffffffffffffffffffffffffff161415613ce7576040517f08c379a0000000000000000000000000000000000000000000000000000000008152600401613cde906159c0565b60405180910390fd5b613cf360008383613dd7565b8060026000828254613d059190614e0e565b92505081905550806000808473ffffffffffffffffffffffffffffffffffffffff1673ffffffffffffffffffffffffffffffffffffffff1681526020019081526020016000206000828254613d5a9190614e0e565b925050819055508173ffffffffffffffffffffffffffffffffffffffff16600073ffffffffffffffffffffffffffffffffffffffff167fddf252ad1be2c89b69c2b068fc378daa952ba7f163c4a11628f55a4df523b3ef83604051613dbf9190614152565b60405180910390a3613dd360008383613ddc565b5050565b505050565b505050565b60008060006041845114613df457600080fd5b60008060006020870151925060408701519150606087015160001a90508083839550955095505050509193909250565b6040518060400160405280600073ffffffffffffffffffffffffffffffffffffffff168152602001600073ffffffffffffffffffffffffffffffffffffffff1681525090565b604051806101000160405280600081526020016000815260200160008152602001606081526020016060815260200160608152602001600015158152602001600073ffffffffffffffffffffffffffffffffffffffff1681525090565b828054613ed390614e93565b90600052602060002090601f016020900481019282613ef55760008555613f3c565b82601f10613f0e57805160ff1916838001178555613f3c565b82800160010185558215613f3c579182015b82811115613f3b578251825591602001919060010190613f20565b5b509050613f499190613f4d565b5090565b5b80821115613f66576000816000905550600101613f4e565b5090565b600081519050919050565b600082825260208201905092915050565b60005b83811015613fa4578082015181840152602081019050613f89565b83811115613fb3576000848401525b50505050565b6000601f19601f8301169050919050565b6000613fd582613f6a565b613fdf8185613f75565b9350613fef818560208601613f86565b613ff881613fb9565b840191505092915050565b6000602082019050818103600083015261401d8184613fca565b905092915050565b6000604051905090565b600080fd5b600080fd5b600073ffffffffffffffffffffffffffffffffffffffff82169050919050565b600061406482614039565b9050919050565b61407481614059565b811461407f57600080fd5b50565b6000813590506140918161406b565b92915050565b6000819050919050565b6140aa81614097565b81146140b557600080fd5b50565b6000813590506140c7816140a1565b92915050565b600080604083850312156140e4576140e361402f565b5b60006140f285828601614082565b9250506020614103858286016140b8565b9150509250929050565b60008115159050919050565b6141228161410d565b82525050565b600060208201905061413d6000830184614119565b92915050565b61414c81614097565b82525050565b60006020820190506141676000830184614143565b92915050565b6000806000606084860312156141865761418561402f565b5b600061419486828701614082565b93505060206141a586828701614082565b92505060406141b6868287016140b8565b9150509250925092565b6000602082840312156141d6576141d561402f565b5b60006141e484828501614082565b91505092915050565b600060ff82169050919050565b614203816141ed565b82525050565b600060208201905061421e60008301846141fa565b92915050565b61422d81614059565b82525050565b600061010082019050614249600083018b614143565b614256602083018a614143565b6142636040830189614143565b6142706060830188614143565b61427d6080830187614143565b61428a60a0830186614143565b61429760c0830185614224565b6142a460e0830184614143565b9998505050505050505050565b600080604083850312156142c8576142c761402f565b5b60006142d6858286016140b8565b92505060206142e785828601614082565b9150509250929050565b600081519050919050565b600082825260208201905092915050565b6000819050602082019050919050565b61432681614059565b82525050565b604082016000820151614342600085018261431d565b506020820151614355602085018261431d565b50505050565b6000614367838361432c565b60408301905092915050565b6000602082019050919050565b600061438b826142f1565b61439581856142fc565b93506143a08361430d565b8060005b838110156143d15781516143b8888261435b565b97506143c383614373565b9250506001810190506143a4565b5085935050505092915050565b600060208201905081810360008301526143f88184614380565b905092915050565b600081519050919050565b600082825260208201905092915050565b6000819050602082019050919050565b61443581614097565b82525050565b600082825260208201905092915050565b600061445782613f6a565b614461818561443b565b9350614471818560208601613f86565b61447a81613fb9565b840191505092915050565b61448e8161410d565b82525050565b6000610100830160008301516144ad600086018261442c565b5060208301516144c0602086018261442c565b5060408301516144d3604086018261442c565b50606083015184820360608601526144eb828261444c565b91505060808301518482036080860152614505828261444c565b91505060a083015184820360a086015261451f828261444c565b91505060c083015161453460c0860182614485565b5060e083015161454760e086018261431d565b508091505092915050565b600061455e8383614494565b905092915050565b6000602082019050919050565b600061457e82614400565b614588818561440b565b93508360208202850161459a8561441c565b8060005b858110156145d657848403895281516145b78582614552565b94506145c283614566565b925060208a0199505060018101905061459e565b50829750879550505050505092915050565b600060208201905081810360008301526146028184614573565b905092915050565b600080fd5b600080fd5b600080fd5b60008083601f84011261462f5761462e61460a565b5b8235905067ffffffffffffffff81111561464c5761464b61460f565b5b60208301915083600182028301111561466857614667614614565b5b9250929050565b600080fd5b7f4e487b7100000000000000000000000000000000000000000000000000000000600052604160045260246000fd5b6146ac82613fb9565b810181811067ffffffffffffffff821117156146cb576146ca614674565b5b80604052505050565b60006146de614025565b90506146ea82826146a3565b919050565b600067ffffffffffffffff82111561470a57614709614674565b5b61471382613fb9565b9050602081019050919050565b82818337600083830152505050565b600061474261473d846146ef565b6146d4565b90508281526020810184848401111561475e5761475d61466f565b5b614769848285614720565b509392505050565b600082601f8301126147865761478561460a565b5b813561479684826020860161472f565b91505092915050565b6000806000806000608086880312156147bb576147ba61402f565b5b600086013567ffffffffffffffff8111156147d9576147d8614034565b5b6147e588828901614619565b9550955050602086013567ffffffffffffffff81111561480857614807614034565b5b61481488828901614771565b935050604086013567ffffffffffffffff81111561483557614834614034565b5b61484188828901614771565b925050606086013567ffffffffffffffff81111561486257614861614034565b5b61486e88828901614771565b9150509295509295909350565b600061010082019050614891600083018b614143565b61489e602083018a614143565b6148ab6040830189614143565b81810360608301526148bd8188613fca565b905081810360808301526148d18187613fca565b905081810360a08301526148e58186613fca565b90506148f460c0830185614119565b61490160e0830184614224565b9998505050505050505050565b6000806000606084860312156149275761492661402f565b5b600084013567ffffffffffffffff81111561494557614944614034565b5b61495186828701614771565b935050602084013567ffffffffffffffff81111561497257614971614034565b5b61497e86828701614771565b925050604084013567ffffffffffffffff81111561499f5761499e614034565b5b6149ab86828701614771565b9150509250925092565b6000602082840312156149cb576149ca61402f565b5b60006149d9848285016140b8565b91505092915050565b600080604083850312156149f9576149f861402f565b5b6000614a0785828601614082565b9250506020614a1885828601614082565b9150509250929050565b60008083601f840112614a3857614a3761460a565b5b8235905067ffffffffffffffff811115614a5557614a5461460f565b5b602083019150836001820283011115614a7157614a70614614565b5b9250929050565b600080600060408486031215614a9157614a9061402f565b5b6000614a9f86828701614082565b935050602084013567ffffffffffffffff811115614ac057614abf614034565b5b614acc86828701614a22565b92509250509250925092565b7f616c7265616479206d696e746564000000000000000000000000000000000000600082015250565b6000614b0e600e83613f75565b9150614b1982614ad8565b602082019050919050565b60006020820190508181036000830152614b3d81614b01565b9050919050565b7f4e487b7100000000000000000000000000000000000000000000000000000000600052603260045260246000fd5b7f4e487b7100000000000000000000000000000000000000000000000000000000600052601160045260246000fd5b60008160011c9050919050565b6000808291508390505b6001851115614bf957808604811115614bd557614bd4614b73565b5b6001851615614be45780820291505b8081029050614bf285614ba2565b9450614bb9565b94509492505050565b600082614c125760019050614cce565b81614c205760009050614cce565b8160018114614c365760028114614c4057614c6f565b6001915050614cce565b60ff841115614c5257614c51614b73565b5b8360020a915084821115614c6957614c68614b73565b5b50614cce565b5060208310610133831016604e8410600b8410161715614ca45782820a905083811115614c9f57614c9e614b73565b5b614cce565b614cb18484846001614baf565b92509050818404811115614cc857614cc7614b73565b5b81810290505b9392505050565b6000614ce082614097565b9150614ceb83614097565b9250614d187fffffffffffffffffffffffffffffffffffffffffffffffffffffffffffffffff8484614c02565b905092915050565b6000614d2b82614097565b9150614d3683614097565b925082821015614d4957614d48614b73565b5b828203905092915050565b6000614d5f82614097565b9150614d6a83614097565b9250817fffffffffffffffffffffffffffffffffffffffffffffffffffffffffffffffff0483118215151615614da357614da2614b73565b5b828202905092915050565b7f4e487b7100000000000000000000000000000000000000000000000000000000600052601260045260246000fd5b6000614de882614097565b9150614df383614097565b925082614e0357614e02614dae565b5b828204905092915050565b6000614e1982614097565b9150614e2483614097565b9250827fffffffffffffffffffffffffffffffffffffffffffffffffffffffffffffffff03821115614e5957614e58614b73565b5b828201905092915050565b7f4e487b7100000000000000000000000000000000000000000000000000000000600052602260045260246000fd5b60006002820490506001821680614eab57607f821691505b60208210811415614ebf57614ebe614e64565b5b50919050565b7f45524332303a207472616e7366657220616d6f756e742065786365656473206160008201527f6c6c6f77616e6365000000000000000000000000000000000000000000000000602082015250565b6000614f21602883613f75565b9150614f2c82614ec5565b604082019050919050565b60006020820190508181036000830152614f5081614f14565b9050919050565b7f326d756368000000000000000000000000000000000000000000000000000000600082015250565b6000614f8d600583613f75565b9150614f9882614f57565b602082019050919050565b60006020820190508181036000830152614fbc81614f80565b9050919050565b6000614fce82614097565b91507fffffffffffffffffffffffffffffffffffffffffffffffffffffffffffffffff82141561500157615000614b73565b5b600182019050919050565b60008160601b9050919050565b60006150248261500c565b9050919050565b600061503682615019565b9050919050565b61504e61504982614059565b61502b565b82525050565b6000615060828461503d565b60148201915081905092915050565b7f696e76616c69645369674f72416c526567000000000000000000000000000000600082015250565b60006150a5601183613f75565b91506150b08261506f565b602082019050919050565b600060208201905081810360008301526150d481615098565b9050919050565b60006080820190506150f06000830187614143565b81810360208301526151028186613fca565b905081810360408301526151168185613fca565b9050818103606083015261512a8184613fca565b905095945050505050565b7f45524332303a2064656372656173656420616c6c6f77616e63652062656c6f7760008201527f207a65726f000000000000000000000000000000000000000000000000000000602082015250565b6000615191602583613f75565b915061519c82615135565b604082019050919050565b600060208201905081810360008301526151c081615184565b9050919050565b7f4e6f74416c6c6f77656400000000000000000000000000000000000000000000600082015250565b60006151fd600a83613f75565b9150615208826151c7565b602082019050919050565b6000602082019050818103600083015261522c816151f0565b9050919050565b7f416c722072657000000000000000000000000000000000000000000000000000600082015250565b6000615269600783613f75565b915061527482615233565b602082019050919050565b600060208201905081810360008301526152988161525c565b9050919050565b7f6d6178476f6f64436f756e740000000000000000000000000000000000000000600082015250565b60006152d5600c83613f75565b91506152e08261529f565b602082019050919050565b60006020820190508181036000830152615304816152c8565b9050919050565b7f4e6f744e65656465640000000000000000000000000000000000000000000000600082015250565b6000615341600983613f75565b915061534c8261530b565b602082019050919050565b6000602082019050818103600083015261537081615334565b9050919050565b7f6e6f747965746d696e7465640000000000000000000000000000000000000000600082015250565b60006153ad600c83613f75565b91506153b882615377565b602082019050919050565b600060208201905081810360008301526153dc816153a0565b9050919050565b50565b60006153f3600083613f75565b91506153fe826153e3565b600082019050919050565b60006020820190508181036000830152615422816153e6565b9050919050565b600060608201905081810360008301526154438186613fca565b905081810360208301526154578185613fca565b9050818103604083015261546b8184613fca565b9050949350505050565b60006154818385613f75565b935061548e838584614720565b61549783613fb9565b840190509392505050565b600060208201905081810360008301526154bd818486615475565b90509392505050565b7f626c000000000000000000000000000000000000000000000000000000000000600082015250565b60006154fc600283613f75565b9150615507826154c6565b602082019050919050565b6000602082019050818103600083015261552b816154ef565b9050919050565b7f45524332303a20617070726f76652066726f6d20746865207a65726f2061646460008201527f7265737300000000000000000000000000000000000000000000000000000000602082015250565b600061558e602483613f75565b915061559982615532565b604082019050919050565b600060208201905081810360008301526155bd81615581565b9050919050565b7f45524332303a20617070726f766520746f20746865207a65726f20616464726560008201527f7373000000000000000000000000000000000000000000000000000000000000602082015250565b6000615620602283613f75565b915061562b826155c4565b604082019050919050565b6000602082019050818103600083015261564f81615613565b9050919050565b7f45524332303a207472616e736665722066726f6d20746865207a65726f20616460008201527f6472657373000000000000000000000000000000000000000000000000000000602082015250565b60006156b2602583613f75565b91506156bd82615656565b604082019050919050565b600060208201905081810360008301526156e1816156a5565b9050919050565b7f45524332303a207472616e7366657220746f20746865207a65726f206164647260008201527f6573730000000000000000000000000000000000000000000000000000000000602082015250565b6000615744602383613f75565b915061574f826156e8565b604082019050919050565b6000602082019050818103600083015261577381615737565b9050919050565b7f45524332303a207472616e7366657220616d6f756e742065786365656473206260008201527f616c616e63650000000000000000000000000000000000000000000000000000602082015250565b60006157d6602683613f75565b91506157e18261577a565b604082019050919050565b60006020820190508181036000830152615805816157c9565b9050919050565b600081905092915050565b7f19457468657265756d205369676e6564204d6573736167653a0a333200000000600082015250565b600061584d601c8361580c565b915061585882615817565b601c82019050919050565b6000819050919050565b6000819050919050565b61588861588382615863565b61586d565b82525050565b600061589982615840565b91506158a58284615877565b60208201915081905092915050565b6158bd81615863565b82525050565b60006080820190506158d860008301876158b4565b6158e560208301866141fa565b6158f260408301856158b4565b6158ff60608301846158b4565b95945050505050565b7f6f61000000000000000000000000000000000000000000000000000000000000600082015250565b600061593e600283613f75565b915061594982615908565b602082019050919050565b6000602082019050818103600083015261596d81615931565b9050919050565b7f45524332303a206d696e7420746f20746865207a65726f206164647265737300600082015250565b60006159aa601f83613f75565b91506159b582615974565b602082019050919050565b600060208201905081810360008301526159d98161599d565b905091905056fea2646970667358221220af3cf11c7fbf500cedf78a179db423880ef7a144bf962f11821bc07a0ab923c764736f6c634300080a0033",
  "immutableReferences": {},
  "source": "  // SPDX-License-Identifier: MIT\n  pragma solidity 0.8.10;\n\n  import \"@openzeppelin/contracts/token/ERC20/ERC20.sol\";\n\n  contract slice is ERC20 {\n      \n      uint start;\n      uint vTotalSupply;\n      uint vSupply;\n      address listAdmin;\n      address signer; \n      uint wenBlock;\n      uint maxGoodCount;\n      uint mintingSpeed;\n      uint goodPrice;\n\n\n          function _a() private view {\n            require ((whitelist[msg.sender]==true), \"bl\");\n          }\n          modifier onlyWhitelisted() {\n            _a();\n            _;\n          }\n          \n\n          function _admin() private view {\n            require(msg.sender == listAdmin, 'oa');\n          }\n          modifier onlyAdmin() {\n            _admin();\n            _;\n          }\n\n\n      constructor (string memory name, string memory symbol) ERC20(name, symbol) {\n        start = block.timestamp;\n        vTotalSupply = 438000000000 * 10 ** uint(decimals());\n        listAdmin = msg.sender;\n        signer = 0xD6AF7959290caeE9E8564EC80a33b92335d6232C;\n        wenBlock=2;\n        maxGoodCount=1;\n        mintingSpeed=3600;\n        goodPrice=10000000000000000;\n      }\n\n      struct Minters {\n          uint goodCount;\n          uint reported;\n          uint lastMinted;\n          string gpsLat;\n          string gpsLon;\n          string nickname;\n          bool whitelisted;\n          address addr;\n      }\n      Minters[] mintersDB;\n      \n      struct StakedContracts {\n          address staker;\n          address fightContract;\n      }\n      StakedContracts []  stakersList;\n\n      mapping(address => Minters) minters;\n      mapping(address => uint) index;\n      mapping (address=>uint )  stakedContractsCounter;\n      mapping (address=>uint )  stakedFightCounter;\n      mapping (address => uint) vSliceBalances;\n      mapping (address => uint) stakedVSlices;\n      mapping (address => bool) whitelist;\n      mapping (address => mapping(address=> address))  challengers;\n      mapping (address => mapping(address=> bool))  stakers;\n      mapping (address => uint) pw;\n      error NotEnoughEther();\n\n      event BadActors(uint date, address indexed reporter, address indexed reported);\n      function reportBadActor(address _addr) external onlyWhitelisted {\n      uint indx = index[_addr];\n      Minters storage m = mintersDB[indx];\n      require (challengers[msg.sender][_addr] != _addr && m.whitelisted!=false, \"Alr rep\");\n      challengers[msg.sender][_addr] = _addr;\n      m.reported += 1;\n      if (m.reported <wenBlock) \n          {bool existingStatus=m.whitelisted;\n            m.whitelisted=existingStatus;\n      }else {\n          m.whitelisted=false;\n          whitelist[_addr] = false;\n      }\n      emit BadActors (block.timestamp, msg.sender, _addr);\n      }\n      \n      event GoodActors(uint date, address indexed reporter, address indexed reported);\n      function reportGoodActor(address _addr) external payable onlyWhitelisted {\n      uint indx = index[_addr];\n      Minters storage m = mintersDB[indx];\n      require (msg.sender != _addr, \"NotAllowed\");\n      require (challengers[msg.sender][_addr] != _addr, \"Alr rep\");\n      require (m.goodCount<maxGoodCount, \"maxGoodCount\");\n      require (m.reported>0, \"NotNeeded\");\n      if (msg.value != goodPrice) revert NotEnoughEther();\n      pw[listAdmin]+= goodPrice;\n      challengers[msg.sender][_addr] = _addr;\n      m.reported -= 1;\n      m.goodCount+=1;\n      if (m.reported >=wenBlock)  \n          {bool existingStatus=m.whitelisted;\n            m.whitelisted=existingStatus;\n      }else {\n          m.whitelisted=true;\n          whitelist[_addr] = true;\n      } \n      emit GoodActors (block.timestamp, msg.sender, _addr);\n      }\n      \n      \n      function AddToWhitelist (string memory  _gpsLat,string memory  _gpsLon, string memory _nickname) external {\n      require(vSupply>= vTotalSupply, \"\");\n      require(index[msg.sender]==0, \"\");\n      mintersDB.push(Minters(0, 0, 0, _gpsLat, _gpsLon, _nickname, true, msg.sender));\n      index[msg.sender] = mintersDB.length-1;\n      whitelist[msg.sender] = true;\n      emit mintersFree(msg.sender,_gpsLat, _gpsLon, _nickname);\n    }\n          \n      event mintersFree(address indexed minter, string Lat, string Lon, string Nick);    \n      event newMinter(uint date, address indexed minter, string Lat, string Lon, string Nick);\n      function addToWhitelist_a7I(bytes calldata signature, string memory _gpsLat,string memory _gpsLon, string memory _nickname) external {\n      bytes32 message = prefixed(keccak256(abi.encodePacked(\n        msg.sender\n      )));\n      require(recoverSigner(message, signature) == signer && index[msg.sender]==0 , \"invalidSigOrAlReg\");\n      mintersDB.push(Minters(0, 0, 0, _gpsLat, _gpsLon, _nickname, true, msg.sender));\n      index[msg.sender] = mintersDB.length-1;\n      whitelist[msg.sender] = true;\n      emit newMinter(block.timestamp, msg.sender,_gpsLat, _gpsLon, _nickname);\n    }\n\n    function prefixed(bytes32 hash) internal pure returns (bytes32) {\n      return keccak256(abi.encodePacked(\n        '\\x19Ethereum Signed Message:\\n32', \n        hash\n      ));\n    }\n\n    function recoverSigner(bytes32 message, bytes memory sig)\n      internal\n      pure\n      returns (address)\n    {\n      uint8 v;\n      bytes32 r;\n      bytes32 s;\n    \n      (v, r, s) = splitSignature(sig);\n    \n      return ecrecover(message, v, r, s);\n    }\n\n    function splitSignature(bytes memory sig)\n      internal\n      pure\n      returns (uint8, bytes32, bytes32)\n    {\n      require(sig.length == 65);\n    \n      bytes32 r;\n      bytes32 s;\n      uint8 v;\n    \n      assembly {\n          // first 32 bytes, after the length prefix\n          r := mload(add(sig, 32))\n          // second 32 bytes\n          s := mload(add(sig, 64))\n          // final byte (first byte of the next 32 bytes)\n          v := byte(0, mload(add(sig, 96)))\n      }\n    \n      return (v, r, s);\n    }\n\n      function SliceMinting() external onlyWhitelisted {\n          require(vSupply>=vTotalSupply, \"notyetminted\");\n          uint amount = vSliceBalances[msg.sender];\n          vSliceBalances[msg.sender]=0;\n          _mint(msg.sender, amount);\n\n      }\n\n      function vSliceMinting_ExW() external onlyWhitelisted {\n              require(vSupply<= vTotalSupply, \"already minted\");\n              uint indx = index[msg.sender];\n              Minters storage m = mintersDB[indx];\n              uint mint;\n              uint diff;\n          if (m.lastMinted == 0) {\n              mint = (block.timestamp-start)* 10 ** uint(decimals());\n              vSliceBalances[msg.sender]+= mint/mintingSpeed;\n              m.lastMinted = block.timestamp;\n              vSupply+= mint/mintingSpeed;}\n          else {\n              diff = block.timestamp - m.lastMinted;\n              mint = diff* 10 ** uint(decimals());\n              vSliceBalances[msg.sender]+= mint/mintingSpeed;\n              m.lastMinted = block.timestamp;\n              vSupply+= mint/mintingSpeed;}\n\n      }\n      \n      \n      function stakeVSlice_h56(uint _amount, address _addr) external {\n          uint indx = index[_addr];\n          Minters storage m = mintersDB[indx];\n          require (vSliceBalances[_addr] >= _amount && m.whitelisted!=false, \"2much\");\n          stakedVSlices[_addr] += _amount;\n          vSliceBalances[_addr] -= _amount;\n          if (stakers[_addr][msg.sender] == false) {\n              stakersList.push(StakedContracts(_addr, msg.sender));\n              stakers[_addr][msg.sender] = true;\n              stakedContractsCounter[_addr] += 1;\n              stakedFightCounter[msg.sender] +=1;\n          } else {return;}\n          \n      }\n      \n      function unstakeVSlice_Hha(uint _amount, address _addr) external  {\n          uint indx = index[_addr];\n          Minters storage m = mintersDB[indx];\n          require(stakedVSlices[_addr]>=_amount && m.whitelisted!=false, \"2much\");\n          stakedVSlices[_addr] -= _amount;\n          vSliceBalances[_addr] += _amount;\n          \n      }\n\n      function getStakedByStaker(address _owner) view external returns (StakedContracts[] memory){\n        StakedContracts[]    memory id = new StakedContracts[](stakedContractsCounter[_owner]);\n            uint counter = 0;\n            \n        for (uint i = 0; i < stakersList.length; i++) {\n            if (stakersList[i].staker == _owner) {\n          StakedContracts storage list = stakersList[i];\n            id[counter] = list;\n            counter++;\n        }\n      }\n        return id;\n    }\n      function getStakedByFight(address _fight) view external returns (StakedContracts[] memory){\n        StakedContracts[]    memory id = new StakedContracts[](stakedFightCounter[_fight]);\n            uint counter = 0;\n            \n        for (uint i = 0; i < stakersList.length; i++) {\n            if (stakersList[i].fightContract== _fight) {\n          StakedContracts storage list = stakersList[i];\n            id[counter] = list;\n            counter++;\n        }\n      }\n        return id;\n    }\n      function getAllMinters() public view returns (Minters[] memory){\n        Minters[]    memory id = new Minters[](mintersDB.length);\n        for (uint i = 0; i < mintersDB.length; i++) {\n            Minters storage mint = mintersDB[i];\n            id[i] = mint;\n        }\n        return id;\n    }\n      function getMinter(address _addr)  view external returns (uint, uint, uint, string memory, string memory,string memory, bool, address) {\n          uint indx = index[_addr];\n          Minters storage m = mintersDB[indx];\n          return (m.goodCount, m.reported,m.lastMinted, m.gpsLat, m.gpsLon, m.nickname, m.whitelisted, m.addr);\n      }\n\n      function isRegistered (address _addr) view external returns(uint) {\n           return index[_addr];\n      }\n      function  wl(address _addr) view external  returns (bool) {\n          return whitelist[_addr] ;\n      }\n\n      function getMintingSpeed() public view returns (uint) {\n          return mintingSpeed;\n      }\n      function updateAdmin(address newAdmin) external onlyAdmin{\n      listAdmin = newAdmin;\n    }\n      function updateSigner(address _newSigner) external onlyAdmin{\n      signer = _newSigner;\n    }\n\n      function vSliceViewBalance (address _addr) view external returns (uint) {\n      return vSliceBalances[_addr];\n      }\n      function getStakedBalance () view external returns (uint) {\n      return stakedVSlices[msg.sender];\n      }\n      function getStart () view external returns (uint) {\n      return start;\n      }\n      function setGoodP (uint _p) external onlyAdmin{\n      goodPrice = _p;\n    }\n      function getGoodP () view external returns (uint) {\n      return goodPrice;\n        }\n      function updateWenBlock(uint _count) external onlyAdmin {\n      wenBlock = _count;\n    }\n      function countMinters() view external returns(uint) {\n      return mintersDB.length;\n      }\n      function updateMaxGoodCount(uint _count) external onlyAdmin{\n      maxGoodCount = _count;\n    }\n      function sliceParams () view external returns (uint, uint, uint, uint, uint, uint, address, uint) {\n      return (vSupply, vTotalSupply, wenBlock, maxGoodCount, mintingSpeed, goodPrice, signer, pw[listAdmin]);\n      }\n      event Chat(address indexed _from, address indexed _to, string message);\n      function sendMessage(address _to, string calldata message) external {\n        emit Chat(msg.sender, _to, message);\n      }\n      //make withdrawal of Reputation fee\n      function reputation() public onlyAdmin{\n      uint amount = pw[listAdmin];\n      pw[listAdmin] = 0;\n      payable(msg.sender).transfer(amount);\n      }\n  }",
  "sourcePath": "/Users/stanislavpavlovic/Desktop/Slice/ee/contracts/slice.sol",
  "compiler": {
    "name": "solc",
    "version": "0.8.10+commit.fc410830.Emscripten.clang"
  },
  "schemaVersion": "3.4.3",
  "updatedAt": "2022-03-27T15:46:53.082Z",
  "networkType": "ethereum",
  "devdoc": {
    "kind": "dev",
    "methods": {
      "allowance(address,address)": {
        "details": "See {IERC20-allowance}."
      },
      "approve(address,uint256)": {
        "details": "See {IERC20-approve}. Requirements: - `spender` cannot be the zero address."
      },
      "balanceOf(address)": {
        "details": "See {IERC20-balanceOf}."
      },
      "decimals()": {
        "details": "Returns the number of decimals used to get its user representation. For example, if `decimals` equals `2`, a balance of `505` tokens should be displayed to a user as `5.05` (`505 / 10 ** 2`). Tokens usually opt for a value of 18, imitating the relationship between Ether and Wei. This is the value {ERC20} uses, unless this function is overridden; NOTE: This information is only used for _display_ purposes: it in no way affects any of the arithmetic of the contract, including {IERC20-balanceOf} and {IERC20-transfer}."
      },
      "decreaseAllowance(address,uint256)": {
        "details": "Atomically decreases the allowance granted to `spender` by the caller. This is an alternative to {approve} that can be used as a mitigation for problems described in {IERC20-approve}. Emits an {Approval} event indicating the updated allowance. Requirements: - `spender` cannot be the zero address. - `spender` must have allowance for the caller of at least `subtractedValue`."
      },
      "increaseAllowance(address,uint256)": {
        "details": "Atomically increases the allowance granted to `spender` by the caller. This is an alternative to {approve} that can be used as a mitigation for problems described in {IERC20-approve}. Emits an {Approval} event indicating the updated allowance. Requirements: - `spender` cannot be the zero address."
      },
      "name()": {
        "details": "Returns the name of the token."
      },
      "symbol()": {
        "details": "Returns the symbol of the token, usually a shorter version of the name."
      },
      "totalSupply()": {
        "details": "See {IERC20-totalSupply}."
      },
      "transfer(address,uint256)": {
        "details": "See {IERC20-transfer}. Requirements: - `recipient` cannot be the zero address. - the caller must have a balance of at least `amount`."
      },
      "transferFrom(address,address,uint256)": {
        "details": "See {IERC20-transferFrom}. Emits an {Approval} event indicating the updated allowance. This is not required by the EIP. See the note at the beginning of {ERC20}. Requirements: - `sender` and `recipient` cannot be the zero address. - `sender` must have a balance of at least `amount`. - the caller must have allowance for ``sender``'s tokens of at least `amount`."
      }
    },
    "version": 1
  },
  "userdoc": {
    "kind": "user",
    "methods": {},
    "version": 1
  }
}