{
  "contractName": "slice",
  "abi": [
    {
      "inputs": [
        {
          "internalType": "string",
          "name": "name",
          "type": "string"
        },
        {
          "internalType": "string",
          "name": "symbol",
          "type": "string"
        }
      ],
      "stateMutability": "nonpayable",
      "type": "constructor"
    },
    {
      "inputs": [],
      "name": "NotEnoughEther",
      "type": "error"
    },
    {
      "anonymous": false,
      "inputs": [
        {
          "indexed": true,
          "internalType": "address",
          "name": "owner",
          "type": "address"
        },
        {
          "indexed": true,
          "internalType": "address",
          "name": "spender",
          "type": "address"
        },
        {
          "indexed": false,
          "internalType": "uint256",
          "name": "value",
          "type": "uint256"
        }
      ],
      "name": "Approval",
      "type": "event"
    },
    {
      "anonymous": false,
      "inputs": [
        {
          "indexed": false,
          "internalType": "uint256",
          "name": "date",
          "type": "uint256"
        },
        {
          "indexed": true,
          "internalType": "address",
          "name": "reporter",
          "type": "address"
        },
        {
          "indexed": true,
          "internalType": "address",
          "name": "reported",
          "type": "address"
        }
      ],
      "name": "BadActors",
      "type": "event"
    },
    {
      "anonymous": false,
      "inputs": [
        {
          "indexed": false,
          "internalType": "uint256",
          "name": "date",
          "type": "uint256"
        },
        {
          "indexed": true,
          "internalType": "address",
          "name": "reporter",
          "type": "address"
        },
        {
          "indexed": true,
          "internalType": "address",
          "name": "reported",
          "type": "address"
        }
      ],
      "name": "GoodActors",
      "type": "event"
    },
    {
      "anonymous": false,
      "inputs": [
        {
          "indexed": true,
          "internalType": "address",
          "name": "from",
          "type": "address"
        },
        {
          "indexed": true,
          "internalType": "address",
          "name": "to",
          "type": "address"
        },
        {
          "indexed": false,
          "internalType": "uint256",
          "name": "value",
          "type": "uint256"
        }
      ],
      "name": "Transfer",
      "type": "event"
    },
    {
      "anonymous": false,
      "inputs": [
        {
          "indexed": true,
          "internalType": "address",
          "name": "fa",
          "type": "address"
        }
      ],
      "name": "finishedFight",
      "type": "event"
    },
    {
      "anonymous": false,
      "inputs": [
        {
          "indexed": true,
          "internalType": "address",
          "name": "minter",
          "type": "address"
        },
        {
          "indexed": false,
          "internalType": "string",
          "name": "Lat",
          "type": "string"
        },
        {
          "indexed": false,
          "internalType": "string",
          "name": "Lon",
          "type": "string"
        },
        {
          "indexed": false,
          "internalType": "string",
          "name": "Nick",
          "type": "string"
        }
      ],
      "name": "mintersFree",
      "type": "event"
    },
    {
      "anonymous": false,
      "inputs": [
        {
          "indexed": false,
          "internalType": "uint256",
          "name": "date",
          "type": "uint256"
        },
        {
          "indexed": true,
          "internalType": "address",
          "name": "minter",
          "type": "address"
        },
        {
          "indexed": false,
          "internalType": "string",
          "name": "Lat",
          "type": "string"
        },
        {
          "indexed": false,
          "internalType": "string",
          "name": "Lon",
          "type": "string"
        },
        {
          "indexed": false,
          "internalType": "string",
          "name": "Nick",
          "type": "string"
        }
      ],
      "name": "newMinter",
      "type": "event"
    },
    {
      "inputs": [
        {
          "internalType": "address",
          "name": "owner",
          "type": "address"
        },
        {
          "internalType": "address",
          "name": "spender",
          "type": "address"
        }
      ],
      "name": "allowance",
      "outputs": [
        {
          "internalType": "uint256",
          "name": "",
          "type": "uint256"
        }
      ],
      "stateMutability": "view",
      "type": "function",
      "constant": true
    },
    {
      "inputs": [
        {
          "internalType": "address",
          "name": "spender",
          "type": "address"
        },
        {
          "internalType": "uint256",
          "name": "amount",
          "type": "uint256"
        }
      ],
      "name": "approve",
      "outputs": [
        {
          "internalType": "bool",
          "name": "",
          "type": "bool"
        }
      ],
      "stateMutability": "nonpayable",
      "type": "function"
    },
    {
      "inputs": [
        {
          "internalType": "address",
          "name": "account",
          "type": "address"
        }
      ],
      "name": "balanceOf",
      "outputs": [
        {
          "internalType": "uint256",
          "name": "",
          "type": "uint256"
        }
      ],
      "stateMutability": "view",
      "type": "function",
      "constant": true
    },
    {
      "inputs": [],
      "name": "decimals",
      "outputs": [
        {
          "internalType": "uint8",
          "name": "",
          "type": "uint8"
        }
      ],
      "stateMutability": "view",
      "type": "function",
      "constant": true
    },
    {
      "inputs": [
        {
          "internalType": "address",
          "name": "spender",
          "type": "address"
        },
        {
          "internalType": "uint256",
          "name": "subtractedValue",
          "type": "uint256"
        }
      ],
      "name": "decreaseAllowance",
      "outputs": [
        {
          "internalType": "bool",
          "name": "",
          "type": "bool"
        }
      ],
      "stateMutability": "nonpayable",
      "type": "function"
    },
    {
      "inputs": [
        {
          "internalType": "address",
          "name": "spender",
          "type": "address"
        },
        {
          "internalType": "uint256",
          "name": "addedValue",
          "type": "uint256"
        }
      ],
      "name": "increaseAllowance",
      "outputs": [
        {
          "internalType": "bool",
          "name": "",
          "type": "bool"
        }
      ],
      "stateMutability": "nonpayable",
      "type": "function"
    },
    {
      "inputs": [],
      "name": "marketing1",
      "outputs": [
        {
          "internalType": "address",
          "name": "",
          "type": "address"
        }
      ],
      "stateMutability": "view",
      "type": "function",
      "constant": true
    },
    {
      "inputs": [],
      "name": "name",
      "outputs": [
        {
          "internalType": "string",
          "name": "",
          "type": "string"
        }
      ],
      "stateMutability": "view",
      "type": "function",
      "constant": true
    },
    {
      "inputs": [],
      "name": "symbol",
      "outputs": [
        {
          "internalType": "string",
          "name": "",
          "type": "string"
        }
      ],
      "stateMutability": "view",
      "type": "function",
      "constant": true
    },
    {
      "inputs": [],
      "name": "totalSupply",
      "outputs": [
        {
          "internalType": "uint256",
          "name": "",
          "type": "uint256"
        }
      ],
      "stateMutability": "view",
      "type": "function",
      "constant": true
    },
    {
      "inputs": [
        {
          "internalType": "address",
          "name": "recipient",
          "type": "address"
        },
        {
          "internalType": "uint256",
          "name": "amount",
          "type": "uint256"
        }
      ],
      "name": "transfer",
      "outputs": [
        {
          "internalType": "bool",
          "name": "",
          "type": "bool"
        }
      ],
      "stateMutability": "nonpayable",
      "type": "function"
    },
    {
      "inputs": [
        {
          "internalType": "address",
          "name": "sender",
          "type": "address"
        },
        {
          "internalType": "address",
          "name": "recipient",
          "type": "address"
        },
        {
          "internalType": "uint256",
          "name": "amount",
          "type": "uint256"
        }
      ],
      "name": "transferFrom",
      "outputs": [
        {
          "internalType": "bool",
          "name": "",
          "type": "bool"
        }
      ],
      "stateMutability": "nonpayable",
      "type": "function"
    },
    {
      "inputs": [
        {
          "internalType": "address",
          "name": "_fcont",
          "type": "address"
        }
      ],
      "name": "addFightToWl",
      "outputs": [],
      "stateMutability": "nonpayable",
      "type": "function"
    },
    {
      "inputs": [
        {
          "internalType": "address",
          "name": "_fa",
          "type": "address"
        },
        {
          "internalType": "uint256",
          "name": "_users",
          "type": "uint256"
        },
        {
          "internalType": "address",
          "name": "_ls",
          "type": "address"
        },
        {
          "internalType": "uint256",
          "name": "_spotCounter",
          "type": "uint256"
        }
      ],
      "name": "fightMint",
      "outputs": [],
      "stateMutability": "nonpayable",
      "type": "function"
    },
    {
      "inputs": [],
      "name": "rewards_for_fights",
      "outputs": [],
      "stateMutability": "nonpayable",
      "type": "function"
    },
    {
      "inputs": [
        {
          "internalType": "address",
          "name": "_addr",
          "type": "address"
        }
      ],
      "name": "readFightRewards",
      "outputs": [
        {
          "internalType": "uint256",
          "name": "",
          "type": "uint256"
        },
        {
          "internalType": "uint256",
          "name": "",
          "type": "uint256"
        },
        {
          "internalType": "bool",
          "name": "",
          "type": "bool"
        }
      ],
      "stateMutability": "view",
      "type": "function",
      "constant": true
    },
    {
      "inputs": [],
      "name": "marketing_reward",
      "outputs": [],
      "stateMutability": "nonpayable",
      "type": "function"
    },
    {
      "inputs": [
        {
          "internalType": "address",
          "name": "_addr1",
          "type": "address"
        }
      ],
      "name": "changeMarketing1",
      "outputs": [],
      "stateMutability": "nonpayable",
      "type": "function"
    },
    {
      "inputs": [
        {
          "internalType": "address",
          "name": "_addr",
          "type": "address"
        }
      ],
      "name": "reportBadActor",
      "outputs": [],
      "stateMutability": "nonpayable",
      "type": "function"
    },
    {
      "inputs": [
        {
          "internalType": "address",
          "name": "_addr",
          "type": "address"
        }
      ],
      "name": "reportGoodActor",
      "outputs": [],
      "stateMutability": "payable",
      "type": "function",
      "payable": true
    },
    {
      "inputs": [
        {
          "internalType": "string",
          "name": "_gpsLat",
          "type": "string"
        },
        {
          "internalType": "string",
          "name": "_gpsLon",
          "type": "string"
        },
        {
          "internalType": "string",
          "name": "_nickname",
          "type": "string"
        }
      ],
      "name": "AddToWhitelist",
      "outputs": [],
      "stateMutability": "nonpayable",
      "type": "function"
    },
    {
      "inputs": [
        {
          "internalType": "bytes",
          "name": "signature",
          "type": "bytes"
        },
        {
          "internalType": "string",
          "name": "_gpsLat",
          "type": "string"
        },
        {
          "internalType": "string",
          "name": "_gpsLon",
          "type": "string"
        },
        {
          "internalType": "string",
          "name": "_nickname",
          "type": "string"
        }
      ],
      "name": "addToWhitelist_a7I",
      "outputs": [],
      "stateMutability": "nonpayable",
      "type": "function"
    },
    {
      "inputs": [],
      "name": "SliceMinting",
      "outputs": [],
      "stateMutability": "nonpayable",
      "type": "function"
    },
    {
      "inputs": [],
      "name": "vSliceMinting_ExW",
      "outputs": [],
      "stateMutability": "nonpayable",
      "type": "function"
    },
    {
      "inputs": [
        {
          "internalType": "uint256",
          "name": "_amount",
          "type": "uint256"
        },
        {
          "internalType": "address",
          "name": "_addr",
          "type": "address"
        }
      ],
      "name": "stakeVSlice_h56",
      "outputs": [],
      "stateMutability": "nonpayable",
      "type": "function"
    },
    {
      "inputs": [
        {
          "internalType": "uint256",
          "name": "_amount",
          "type": "uint256"
        },
        {
          "internalType": "address",
          "name": "_addr",
          "type": "address"
        }
      ],
      "name": "unstakeVSlice_Hha",
      "outputs": [],
      "stateMutability": "nonpayable",
      "type": "function"
    },
    {
      "inputs": [
        {
          "internalType": "address",
          "name": "_owner",
          "type": "address"
        }
      ],
      "name": "getStakedByStaker",
      "outputs": [
        {
          "components": [
            {
              "internalType": "address",
              "name": "staker",
              "type": "address"
            },
            {
              "internalType": "address",
              "name": "fightContract",
              "type": "address"
            }
          ],
          "internalType": "struct slice.StakedContracts[]",
          "name": "",
          "type": "tuple[]"
        }
      ],
      "stateMutability": "view",
      "type": "function",
      "constant": true
    },
    {
      "inputs": [
        {
          "internalType": "address",
          "name": "_fight",
          "type": "address"
        }
      ],
      "name": "getStakedByFight",
      "outputs": [
        {
          "components": [
            {
              "internalType": "address",
              "name": "staker",
              "type": "address"
            },
            {
              "internalType": "address",
              "name": "fightContract",
              "type": "address"
            }
          ],
          "internalType": "struct slice.StakedContracts[]",
          "name": "",
          "type": "tuple[]"
        }
      ],
      "stateMutability": "view",
      "type": "function",
      "constant": true
    },
    {
      "inputs": [],
      "name": "getAllMinters",
      "outputs": [
        {
          "components": [
            {
              "internalType": "uint256",
              "name": "goodCount",
              "type": "uint256"
            },
            {
              "internalType": "uint256",
              "name": "reported",
              "type": "uint256"
            },
            {
              "internalType": "uint256",
              "name": "lastMinted",
              "type": "uint256"
            },
            {
              "internalType": "string",
              "name": "gpsLat",
              "type": "string"
            },
            {
              "internalType": "string",
              "name": "gpsLon",
              "type": "string"
            },
            {
              "internalType": "string",
              "name": "nickname",
              "type": "string"
            },
            {
              "internalType": "bool",
              "name": "whitelisted",
              "type": "bool"
            },
            {
              "internalType": "address",
              "name": "addr",
              "type": "address"
            }
          ],
          "internalType": "struct slice.Minters[]",
          "name": "",
          "type": "tuple[]"
        }
      ],
      "stateMutability": "view",
      "type": "function",
      "constant": true
    },
    {
      "inputs": [
        {
          "internalType": "address",
          "name": "_addr",
          "type": "address"
        }
      ],
      "name": "getMinter",
      "outputs": [
        {
          "internalType": "uint256",
          "name": "",
          "type": "uint256"
        },
        {
          "internalType": "uint256",
          "name": "",
          "type": "uint256"
        },
        {
          "internalType": "uint256",
          "name": "",
          "type": "uint256"
        },
        {
          "internalType": "string",
          "name": "",
          "type": "string"
        },
        {
          "internalType": "string",
          "name": "",
          "type": "string"
        },
        {
          "internalType": "string",
          "name": "",
          "type": "string"
        },
        {
          "internalType": "bool",
          "name": "",
          "type": "bool"
        },
        {
          "internalType": "address",
          "name": "",
          "type": "address"
        }
      ],
      "stateMutability": "view",
      "type": "function",
      "constant": true
    },
    {
      "inputs": [
        {
          "internalType": "address",
          "name": "_addr",
          "type": "address"
        }
      ],
      "name": "wl",
      "outputs": [
        {
          "internalType": "bool",
          "name": "",
          "type": "bool"
        }
      ],
      "stateMutability": "view",
      "type": "function",
      "constant": true
    },
    {
      "inputs": [
        {
          "internalType": "address",
          "name": "_addr",
          "type": "address"
        }
      ],
      "name": "vSliceViewBalance",
      "outputs": [
        {
          "internalType": "uint256",
          "name": "",
          "type": "uint256"
        }
      ],
      "stateMutability": "view",
      "type": "function",
      "constant": true
    },
    {
      "inputs": [
        {
          "internalType": "address",
          "name": "_addr",
          "type": "address"
        }
      ],
      "name": "isRegistered",
      "outputs": [
        {
          "internalType": "uint256",
          "name": "",
          "type": "uint256"
        }
      ],
      "stateMutability": "view",
      "type": "function",
      "constant": true
    },
    {
      "inputs": [],
      "name": "getMintingSpeed",
      "outputs": [
        {
          "internalType": "uint256",
          "name": "",
          "type": "uint256"
        }
      ],
      "stateMutability": "view",
      "type": "function",
      "constant": true
    },
    {
      "inputs": [],
      "name": "getStakedBalance",
      "outputs": [
        {
          "internalType": "uint256",
          "name": "",
          "type": "uint256"
        }
      ],
      "stateMutability": "view",
      "type": "function",
      "constant": true
    },
    {
      "inputs": [],
      "name": "getStart",
      "outputs": [
        {
          "internalType": "uint256",
          "name": "",
          "type": "uint256"
        }
      ],
      "stateMutability": "view",
      "type": "function",
      "constant": true
    },
    {
      "inputs": [],
      "name": "getGoodP",
      "outputs": [
        {
          "internalType": "uint256",
          "name": "",
          "type": "uint256"
        }
      ],
      "stateMutability": "view",
      "type": "function",
      "constant": true
    },
    {
      "inputs": [],
      "name": "countMinters",
      "outputs": [
        {
          "internalType": "uint256",
          "name": "",
          "type": "uint256"
        }
      ],
      "stateMutability": "view",
      "type": "function",
      "constant": true
    },
    {
      "inputs": [],
      "name": "sliceParams",
      "outputs": [
        {
          "internalType": "uint256",
          "name": "",
          "type": "uint256"
        },
        {
          "internalType": "uint256",
          "name": "",
          "type": "uint256"
        },
        {
          "internalType": "uint256",
          "name": "",
          "type": "uint256"
        },
        {
          "internalType": "uint256",
          "name": "",
          "type": "uint256"
        },
        {
          "internalType": "uint256",
          "name": "",
          "type": "uint256"
        },
        {
          "internalType": "uint256",
          "name": "",
          "type": "uint256"
        },
        {
          "internalType": "address",
          "name": "",
          "type": "address"
        },
        {
          "internalType": "uint256",
          "name": "",
          "type": "uint256"
        },
        {
          "internalType": "uint256",
          "name": "",
          "type": "uint256"
        },
        {
          "internalType": "uint256",
          "name": "",
          "type": "uint256"
        },
        {
          "internalType": "uint256",
          "name": "",
          "type": "uint256"
        }
      ],
      "stateMutability": "view",
      "type": "function",
      "constant": true
    },
    {
      "inputs": [],
      "name": "reputation",
      "outputs": [],
      "stateMutability": "nonpayable",
      "type": "function"
    },
    {
      "inputs": [
        {
          "internalType": "address",
          "name": "_addr",
          "type": "address"
        }
      ],
      "name": "setFF",
      "outputs": [],
      "stateMutability": "nonpayable",
      "type": "function"
    },
    {
      "inputs": [
        {
          "internalType": "address",
          "name": "newAdmin",
          "type": "address"
        }
      ],
      "name": "updateAdmin",
      "outputs": [],
      "stateMutability": "nonpayable",
      "type": "function"
    },
    {
      "inputs": [
        {
          "internalType": "address",
          "name": "_newSigner",
          "type": "address"
        }
      ],
      "name": "updateSigner",
      "outputs": [],
      "stateMutability": "nonpayable",
      "type": "function"
    },
    {
      "inputs": [
        {
          "internalType": "uint256",
          "name": "_maxGoodcount",
          "type": "uint256"
        },
        {
          "internalType": "uint256",
          "name": "_wenBlockCount",
          "type": "uint256"
        },
        {
          "internalType": "uint256",
          "name": "_p",
          "type": "uint256"
        }
      ],
      "name": "adminUpdate",
      "outputs": [],
      "stateMutability": "nonpayable",
      "type": "function"
    }
  ],
  "bytecode": "0x60806040523480156200001157600080fd5b50604051620067763803806200677683398181016040528101906200003791906200046e565b818181600390805190602001906200005192919062000221565b5080600490805190602001906200006a92919062000221565b50505042600581905550620000846200021860201b60201c565b60ff16600a62000095919062000680565b63b4735000620000a69190620006d1565b600681905550620000bc6200021860201b60201c565b60ff16600a620000cd919062000680565b6321d59f00620000de9190620006d1565b60108190555033600860006101000a81548173ffffffffffffffffffffffffffffffffffffffff021916908373ffffffffffffffffffffffffffffffffffffffff16021790555073d6af7959290caee9e8564ec80a33b92335d6232c600960006101000a81548173ffffffffffffffffffffffffffffffffffffffff021916908373ffffffffffffffffffffffffffffffffffffffff16021790555073a16392cb56e13367578795db9f6459485571d2fa600e60006101000a81548173ffffffffffffffffffffffffffffffffffffffff021916908373ffffffffffffffffffffffffffffffffffffffff1602179055506002600a819055506001600b81905550601e600c81905550662386f26fc10000600d819055506000600e60146101000a81548160ff021916908315150217905550505062000797565b60006012905090565b8280546200022f9062000761565b90600052602060002090601f0160209004810192826200025357600085556200029f565b82601f106200026e57805160ff19168380011785556200029f565b828001600101855582156200029f579182015b828111156200029e57825182559160200191906001019062000281565b5b509050620002ae9190620002b2565b5090565b5b80821115620002cd576000816000905550600101620002b3565b5090565b6000604051905090565b600080fd5b600080fd5b600080fd5b600080fd5b6000601f19601f8301169050919050565b7f4e487b7100000000000000000000000000000000000000000000000000000000600052604160045260246000fd5b6200033a82620002ef565b810181811067ffffffffffffffff821117156200035c576200035b62000300565b5b80604052505050565b600062000371620002d1565b90506200037f82826200032f565b919050565b600067ffffffffffffffff821115620003a257620003a162000300565b5b620003ad82620002ef565b9050602081019050919050565b60005b83811015620003da578082015181840152602081019050620003bd565b83811115620003ea576000848401525b50505050565b600062000407620004018462000384565b62000365565b905082815260208101848484011115620004265762000425620002ea565b5b62000433848285620003ba565b509392505050565b600082601f830112620004535762000452620002e5565b5b815162000465848260208601620003f0565b91505092915050565b60008060408385031215620004885762000487620002db565b5b600083015167ffffffffffffffff811115620004a957620004a8620002e0565b5b620004b7858286016200043b565b925050602083015167ffffffffffffffff811115620004db57620004da620002e0565b5b620004e9858286016200043b565b9150509250929050565b7f4e487b7100000000000000000000000000000000000000000000000000000000600052601160045260246000fd5b60008160011c9050919050565b6000808291508390505b60018511156200058157808604811115620005595762000558620004f3565b5b6001851615620005695780820291505b8081029050620005798562000522565b945062000539565b94509492505050565b6000826200059c57600190506200066f565b81620005ac57600090506200066f565b8160018114620005c55760028114620005d05762000606565b60019150506200066f565b60ff841115620005e557620005e4620004f3565b5b8360020a915084821115620005ff57620005fe620004f3565b5b506200066f565b5060208310610133831016604e8410600b8410161715620006405782820a9050838111156200063a5762000639620004f3565b5b6200066f565b6200064f84848460016200052f565b92509050818404811115620006695762000668620004f3565b5b81810290505b9392505050565b6000819050919050565b60006200068d8262000676565b91506200069a8362000676565b9250620006c97fffffffffffffffffffffffffffffffffffffffffffffffffffffffffffffffff84846200058a565b905092915050565b6000620006de8262000676565b9150620006eb8362000676565b9250817fffffffffffffffffffffffffffffffffffffffffffffffffffffffffffffffff0483118215151615620007275762000726620004f3565b5b828202905092915050565b7f4e487b7100000000000000000000000000000000000000000000000000000000600052602260045260246000fd5b600060028204905060018216806200077a57607f821691505b6020821081141562000791576200079062000732565b5b50919050565b615fcf80620007a76000396000f3fe6080604052600436106102655760003560e01c806395d89b4111610144578063c3c5a547116100b6578063d5c0f1fb1161007a578063d5c0f1fb14610944578063dd62ed3e1461096d578063ddc14afe146109aa578063de094701146109d5578063e2f273bd146109ec578063e3917cfc14610a1557610265565b8063c3c5a54714610871578063c52164c6146108ae578063c5292c67146108c5578063ca6ad40c146108f0578063d4f4648f1461091b57610265565b8063a9059cbb11610108578063a9059cbb1461077d578063b06f0ce2146107ba578063b1098137146107d1578063b14cc0e0146107ed578063bc73b64114610804578063c1354b5a1461084857610265565b806395d89b4114610698578063a045442c146106c3578063a412a69e146106ee578063a457c2d714610717578063a7ecd37e1461075457610265565b8063427ac82c116101dd5780636cbcb4cd116101a15780636cbcb4cd1461057857806370a08231146105a157806376965867146105de57806382d6a17a146106095780638891b29e1461063257806395b8b0011461066f57610265565b8063427ac82c146104875780634b6d0088146104b25780635fbb7093146104f157806361d42f6b1461052657806369d3bdbd1461054f57610265565b806323b872dd1161022f57806323b872dd1461033d57806326c95e0a1461037a5780632fee9e7e146103a5578063313ce567146103e257806335703a3a1461040d578063395093511461044a57610265565b8061d5981461026a57806306fdde0314610281578063095ea7b3146102ac57806318160ddd146102e9578063212c34ad14610314575b600080fd5b34801561027657600080fd5b5061027f610a52565b005b34801561028d57600080fd5b50610296610cb2565b6040516102a391906147d3565b60405180910390f35b3480156102b857600080fd5b506102d360048036038101906102ce919061489d565b610d44565b6040516102e091906148f8565b60405180910390f35b3480156102f557600080fd5b506102fe610d62565b60405161030b9190614922565b60405180910390f35b34801561032057600080fd5b5061033b6004803603810190610336919061493d565b610d6c565b005b34801561034957600080fd5b50610364600480360381019061035f919061496a565b610e21565b60405161037191906148f8565b60405180910390f35b34801561038657600080fd5b5061038f610f19565b60405161039c9190614922565b60405180910390f35b3480156103b157600080fd5b506103cc60048036038101906103c7919061493d565b610f23565b6040516103d991906148f8565b60405180910390f35b3480156103ee57600080fd5b506103f7610f79565b60405161040491906149d9565b60405180910390f35b34801561041957600080fd5b50610434600480360381019061042f919061493d565b610f82565b6040516104419190614922565b60405180910390f35b34801561045657600080fd5b50610471600480360381019061046c919061489d565b610fcb565b60405161047e91906148f8565b60405180910390f35b34801561049357600080fd5b5061049c611077565b6040516104a99190614a03565b60405180910390f35b3480156104be57600080fd5b506104d960048036038101906104d4919061493d565b61109d565b6040516104e893929190614a1e565b60405180910390f35b3480156104fd57600080fd5b5061050661110e565b60405161051d9b9a99989796959493929190614a55565b60405180910390f35b34801561053257600080fd5b5061054d60048036038101906105489190614b00565b6111e2565b005b34801561055b57600080fd5b506105766004803603810190610571919061493d565b6113aa565b005b34801561058457600080fd5b5061059f600480360381019061059a9190614b40565b6113f6565b005b3480156105ad57600080fd5b506105c860048036038101906105c3919061493d565b61162f565b6040516105d59190614922565b60405180910390f35b3480156105ea57600080fd5b506105f3611677565b6040516106009190614922565b60405180910390f35b34801561061557600080fd5b50610630600480360381019061062b919061493d565b6116be565b005b34801561063e57600080fd5b506106596004803603810190610654919061493d565b611792565b6040516106669190614c94565b60405180910390f35b34801561067b57600080fd5b5061069660048036038101906106919190614cb6565b6119df565b005b3480156106a457600080fd5b506106ad611a01565b6040516106ba91906147d3565b60405180910390f35b3480156106cf57600080fd5b506106d8611a93565b6040516106e59190614ef1565b60405180910390f35b3480156106fa57600080fd5b50610715600480360381019061071091906150a8565b611db4565b005b34801561072357600080fd5b5061073e6004803603810190610739919061489d565b612177565b60405161074b91906148f8565b60405180910390f35b34801561076057600080fd5b5061077b6004803603810190610776919061493d565b612262565b005b34801561078957600080fd5b506107a4600480360381019061079f919061489d565b6122ae565b6040516107b191906148f8565b60405180910390f35b3480156107c657600080fd5b506107cf6122cc565b005b6107eb60048036038101906107e6919061493d565b6123d7565b005b3480156107f957600080fd5b5061080261291f565b005b34801561081057600080fd5b5061082b6004803603810190610826919061493d565b612a04565b60405161083f989796959493929190615184565b60405180910390f35b34801561085457600080fd5b5061086f600480360381019061086a9190615217565b612c8e565b005b34801561087d57600080fd5b506108986004803603810190610893919061493d565b612fba565b6040516108a59190614922565b60405180910390f35b3480156108ba57600080fd5b506108c3613003565b005b3480156108d157600080fd5b506108da613122565b6040516108e79190614922565b60405180910390f35b3480156108fc57600080fd5b5061090561312c565b6040516109129190614922565b60405180910390f35b34801561092757600080fd5b50610942600480360381019061093d9190614b00565b613139565b005b34801561095057600080fd5b5061096b6004803603810190610966919061493d565b6135e3565b005b34801561097957600080fd5b50610994600480360381019061098f91906152be565b61397f565b6040516109a19190614922565b60405180910390f35b3480156109b657600080fd5b506109bf613a06565b6040516109cc9190614922565b60405180910390f35b3480156109e157600080fd5b506109ea613a10565b005b3480156109f857600080fd5b50610a136004803603810190610a0e919061493d565b613af9565b005b348015610a2157600080fd5b50610a3c6004803603810190610a37919061493d565b613b45565b604051610a499190614c94565b60405180910390f35b610a5a613d92565b6006546007541115610aa1576040517f08c379a0000000000000000000000000000000000000000000000000000000008152600401610a9890615324565b60405180910390fd5b6000601560003373ffffffffffffffffffffffffffffffffffffffff1673ffffffffffffffffffffffffffffffffffffffff168152602001908152602001600020549050600060128281548110610afb57610afa615344565b5b90600052602060002090600702019050600080600083600201541415610be357610b23610f79565b60ff16600a610b3291906154d5565b60055442610b409190615520565b610b4a9190615554565b9150600c5482610b5a91906155dd565b601860003373ffffffffffffffffffffffffffffffffffffffff1673ffffffffffffffffffffffffffffffffffffffff1681526020019081526020016000206000828254610ba8919061560e565b92505081905550428360020181905550600c5482610bc691906155dd565b60076000828254610bd7919061560e565b92505081905550610cac565b826002015442610bf39190615520565b9050610bfd610f79565b60ff16600a610c0c91906154d5565b81610c179190615554565b9150600c5482610c2791906155dd565b601860003373ffffffffffffffffffffffffffffffffffffffff1673ffffffffffffffffffffffffffffffffffffffff1681526020019081526020016000206000828254610c75919061560e565b92505081905550428360020181905550600c5482610c9391906155dd565b60076000828254610ca4919061560e565b925050819055505b50505050565b606060038054610cc190615693565b80601f0160208091040260200160405190810160405280929190818152602001828054610ced90615693565b8015610d3a5780601f10610d0f57610100808354040283529160200191610d3a565b820191906000526020600020905b815481529060010190602001808311610d1d57829003601f168201915b5050505050905090565b6000610d58610d51613e27565b8484613e2f565b6001905092915050565b6000600254905090565b601160009054906101000a900473ffffffffffffffffffffffffffffffffffffffff1673ffffffffffffffffffffffffffffffffffffffff163373ffffffffffffffffffffffffffffffffffffffff1614610dc657600080fd5b6001601b60008373ffffffffffffffffffffffffffffffffffffffff1673ffffffffffffffffffffffffffffffffffffffff16815260200190815260200160002060006101000a81548160ff02191690831515021790555050565b6000610e2e848484613ffa565b6000600160008673ffffffffffffffffffffffffffffffffffffffff1673ffffffffffffffffffffffffffffffffffffffff1681526020019081526020016000206000610e79613e27565b73ffffffffffffffffffffffffffffffffffffffff1673ffffffffffffffffffffffffffffffffffffffff16815260200190815260200160002054905082811015610ef9576040517f08c379a0000000000000000000000000000000000000000000000000000000008152600401610ef090615737565b60405180910390fd5b610f0d85610f05613e27565b858403613e2f565b60019150509392505050565b6000600d54905090565b6000601a60008373ffffffffffffffffffffffffffffffffffffffff1673ffffffffffffffffffffffffffffffffffffffff16815260200190815260200160002060009054906101000a900460ff169050919050565b60006012905090565b6000601860008373ffffffffffffffffffffffffffffffffffffffff1673ffffffffffffffffffffffffffffffffffffffff168152602001908152602001600020549050919050565b600061106d610fd8613e27565b848460016000610fe6613e27565b73ffffffffffffffffffffffffffffffffffffffff1673ffffffffffffffffffffffffffffffffffffffff16815260200190815260200160002060008873ffffffffffffffffffffffffffffffffffffffff1673ffffffffffffffffffffffffffffffffffffffff16815260200190815260200160002054611068919061560e565b613e2f565b6001905092915050565b600e60009054906101000a900473ffffffffffffffffffffffffffffffffffffffff1681565b600080600080601f60008673ffffffffffffffffffffffffffffffffffffffff1673ffffffffffffffffffffffffffffffffffffffff1681526020019081526020016000209050806000015481600101548260020160009054906101000a900460ff16935093509350509193909250565b6000806000806000806000806000806000600754600654600a54600b54600c54600d54600960009054906101000a900473ffffffffffffffffffffffffffffffffffffffff16601e6000600860009054906101000a900473ffffffffffffffffffffffffffffffffffffffff1673ffffffffffffffffffffffffffffffffffffffff1673ffffffffffffffffffffffffffffffffffffffff16815260200190815260200160002054601054600f546010549a509a509a509a509a509a509a509a509a509a509a50909192939495969798999a565b6111ea61427b565b6000601560008373ffffffffffffffffffffffffffffffffffffffff1673ffffffffffffffffffffffffffffffffffffffff16815260200190815260200160002054905060006012828154811061124457611243615344565b5b9060005260206000209060070201905083601960008573ffffffffffffffffffffffffffffffffffffffff1673ffffffffffffffffffffffffffffffffffffffff16815260200190815260200160002054101580156112b95750600015158160060160009054906101000a900460ff16151514155b6112f8576040517f08c379a00000000000000000000000000000000000000000000000000000000081526004016112ef90615324565b60405180910390fd5b83601960008573ffffffffffffffffffffffffffffffffffffffff1673ffffffffffffffffffffffffffffffffffffffff16815260200190815260200160002060008282546113479190615520565b9250508190555083601860008573ffffffffffffffffffffffffffffffffffffffff1673ffffffffffffffffffffffffffffffffffffffff168152602001908152602001600020600082825461139d919061560e565b9250508190555050505050565b6113b2614310565b80601160006101000a81548173ffffffffffffffffffffffffffffffffffffffff021916908373ffffffffffffffffffffffffffffffffffffffff16021790555050565b6113fe61427b565b601054600f5410801561143d57503373ffffffffffffffffffffffffffffffffffffffff168273ffffffffffffffffffffffffffffffffffffffff1614155b801561144a575060038110155b156115e0576000601f60008673ffffffffffffffffffffffffffffffffffffffff1673ffffffffffffffffffffffffffffffffffffffff168152602001908152602001600020905061149a610f79565b60ff16600a6114a991906154d5565b6103e883866114b89190615554565b6114c29190615554565b6114cc9190615554565b8160010160008282546114df919061560e565b925050819055506114ee610f79565b60ff16600a6114fd91906154d5565b6103e8838661150c9190615554565b6115169190615554565b6115209190615554565b600f6000828254611531919061560e565b9250508190555060008160000154111561154b5750611629565b6020859080600181540180825580915050600190039060005260206000200160009091909190916101000a81548173ffffffffffffffffffffffffffffffffffffffff021916908373ffffffffffffffffffffffffffffffffffffffff160217905550600060016020805490506115c29190615520565b90506001816115d1919061560e565b826000018190555050506115e5565b611629565b8373ffffffffffffffffffffffffffffffffffffffff167f5297879affe4fdddf98df908ef959f959113632d847f4036648f34cf9b3f621760405160405180910390a25b50505050565b60008060008373ffffffffffffffffffffffffffffffffffffffff1673ffffffffffffffffffffffffffffffffffffffff168152602001908152602001600020549050919050565b6000601960003373ffffffffffffffffffffffffffffffffffffffff1673ffffffffffffffffffffffffffffffffffffffff16815260200190815260200160002054905090565b600e60009054906101000a900473ffffffffffffffffffffffffffffffffffffffff1673ffffffffffffffffffffffffffffffffffffffff163373ffffffffffffffffffffffffffffffffffffffff161461174e576040517f08c379a000000000000000000000000000000000000000000000000000000000815260040161174590615324565b60405180910390fd5b80600e60006101000a81548173ffffffffffffffffffffffffffffffffffffffff021916908373ffffffffffffffffffffffffffffffffffffffff16021790555050565b60606000601760008473ffffffffffffffffffffffffffffffffffffffff1673ffffffffffffffffffffffffffffffffffffffff1681526020019081526020016000205467ffffffffffffffff8111156117ef576117ee614f7d565b5b60405190808252806020026020018201604052801561182857816020015b6118156145f4565b81526020019060019003908161180d5790505b5090506000805b6013805490508110156119d4578473ffffffffffffffffffffffffffffffffffffffff166013828154811061186757611866615344565b5b906000526020600020906002020160010160009054906101000a900473ffffffffffffffffffffffffffffffffffffffff1673ffffffffffffffffffffffffffffffffffffffff1614156119c1576000601382815481106118cb576118ca615344565b5b90600052602060002090600202019050806040518060400160405290816000820160009054906101000a900473ffffffffffffffffffffffffffffffffffffffff1673ffffffffffffffffffffffffffffffffffffffff1673ffffffffffffffffffffffffffffffffffffffff1681526020016001820160009054906101000a900473ffffffffffffffffffffffffffffffffffffffff1673ffffffffffffffffffffffffffffffffffffffff1673ffffffffffffffffffffffffffffffffffffffff16815250508484815181106119a6576119a5615344565b5b602002602001018190525082806119bc90615757565b935050505b80806119cc90615757565b91505061182f565b508192505050919050565b6119e7614310565b82600b8190555081600a8190555080600d81905550505050565b606060048054611a1090615693565b80601f0160208091040260200160405190810160405280929190818152602001828054611a3c90615693565b8015611a895780601f10611a5e57610100808354040283529160200191611a89565b820191906000526020600020905b815481529060010190602001808311611a6c57829003601f168201915b5050505050905090565b6060600060128054905067ffffffffffffffff811115611ab657611ab5614f7d565b5b604051908082528060200260200182016040528015611aef57816020015b611adc61463a565b815260200190600190039081611ad45790505b50905060005b601280549050811015611dac57600060128281548110611b1857611b17615344565b5b906000526020600020906007020190508060405180610100016040529081600082015481526020016001820154815260200160028201548152602001600382018054611b6390615693565b80601f0160208091040260200160405190810160405280929190818152602001828054611b8f90615693565b8015611bdc5780601f10611bb157610100808354040283529160200191611bdc565b820191906000526020600020905b815481529060010190602001808311611bbf57829003601f168201915b50505050508152602001600482018054611bf590615693565b80601f0160208091040260200160405190810160405280929190818152602001828054611c2190615693565b8015611c6e5780601f10611c4357610100808354040283529160200191611c6e565b820191906000526020600020905b815481529060010190602001808311611c5157829003601f168201915b50505050508152602001600582018054611c8790615693565b80601f0160208091040260200160405190810160405280929190818152602001828054611cb390615693565b8015611d005780601f10611cd557610100808354040283529160200191611d00565b820191906000526020600020905b815481529060010190602001808311611ce357829003601f168201915b505050505081526020016006820160009054906101000a900460ff161515151581526020016006820160019054906101000a900473ffffffffffffffffffffffffffffffffffffffff1673ffffffffffffffffffffffffffffffffffffffff1673ffffffffffffffffffffffffffffffffffffffff1681525050838381518110611d8d57611d8c615344565b5b6020026020010181905250508080611da490615757565b915050611af5565b508091505090565b6000611de533604051602001611dca91906157e8565b604051602081830303815290604052805190602001206143a2565b9050600960009054906101000a900473ffffffffffffffffffffffffffffffffffffffff1673ffffffffffffffffffffffffffffffffffffffff16611e6e8288888080601f016020809104026020016040519081016040528093929190818152602001838380828437600081840152601f19601f820116905080830192505050505050506143d2565b73ffffffffffffffffffffffffffffffffffffffff16148015611ed057506000601560003373ffffffffffffffffffffffffffffffffffffffff1673ffffffffffffffffffffffffffffffffffffffff16815260200190815260200160002054145b611f0f576040517f08c379a0000000000000000000000000000000000000000000000000000000008152600401611f069061584f565b60405180910390fd5b60126040518061010001604052806000815260200160008152602001600081526020018681526020018581526020018481526020016001151581526020013373ffffffffffffffffffffffffffffffffffffffff1681525090806001815401808255809150506001900390600052602060002090600702016000909190919091506000820151816000015560208201518160010155604082015181600201556060820151816003019080519060200190611fca929190614697565b506080820151816004019080519060200190611fe7929190614697565b5060a0820151816005019080519060200190612004929190614697565b5060c08201518160060160006101000a81548160ff02191690831515021790555060e08201518160060160016101000a81548173ffffffffffffffffffffffffffffffffffffffff021916908373ffffffffffffffffffffffffffffffffffffffff160217905550505060016012805490506120809190615520565b601560003373ffffffffffffffffffffffffffffffffffffffff1673ffffffffffffffffffffffffffffffffffffffff168152602001908152602001600020819055506001601a60003373ffffffffffffffffffffffffffffffffffffffff1673ffffffffffffffffffffffffffffffffffffffff16815260200190815260200160002060006101000a81548160ff0219169083151502179055503373ffffffffffffffffffffffffffffffffffffffff167f529fc32b54e6dd32e4b333dc98403668fe1355a18f3fe4f2468a2144f19e892f42868686604051612167949392919061586f565b60405180910390a2505050505050565b60008060016000612186613e27565b73ffffffffffffffffffffffffffffffffffffffff1673ffffffffffffffffffffffffffffffffffffffff16815260200190815260200160002060008573ffffffffffffffffffffffffffffffffffffffff1673ffffffffffffffffffffffffffffffffffffffff16815260200190815260200160002054905082811015612243576040517f08c379a000000000000000000000000000000000000000000000000000000000815260040161223a9061593b565b60405180910390fd5b61225761224e613e27565b85858403613e2f565b600191505092915050565b61226a614310565b80600960006101000a81548173ffffffffffffffffffffffffffffffffffffffff021916908373ffffffffffffffffffffffffffffffffffffffff16021790555050565b60006122c26122bb613e27565b8484613ffa565b6001905092915050565b6006546007541015801561232d5750600e60009054906101000a900473ffffffffffffffffffffffffffffffffffffffff1673ffffffffffffffffffffffffffffffffffffffff163373ffffffffffffffffffffffffffffffffffffffff16145b801561234c575060001515600e60149054906101000a900460ff161515145b61238b576040517f08c379a000000000000000000000000000000000000000000000000000000000815260040161238290615324565b60405180910390fd5b6001600e60146101000a81548160ff0219169083151502179055506123d5336123b2610f79565b60ff16600a6123c191906154d5565b630b4735006123d09190615554565b614447565b565b6123df613d92565b6000601560008373ffffffffffffffffffffffffffffffffffffffff1673ffffffffffffffffffffffffffffffffffffffff16815260200190815260200160002054905060006012828154811061243957612438615344565b5b906000526020600020906007020190508273ffffffffffffffffffffffffffffffffffffffff163373ffffffffffffffffffffffffffffffffffffffff1614156124b8576040517f08c379a00000000000000000000000000000000000000000000000000000000081526004016124af90615324565b60405180910390fd5b8273ffffffffffffffffffffffffffffffffffffffff16601c60003373ffffffffffffffffffffffffffffffffffffffff1673ffffffffffffffffffffffffffffffffffffffff16815260200190815260200160002060008573ffffffffffffffffffffffffffffffffffffffff1673ffffffffffffffffffffffffffffffffffffffff16815260200190815260200160002060009054906101000a900473ffffffffffffffffffffffffffffffffffffffff1673ffffffffffffffffffffffffffffffffffffffff1614156125c3576040517f08c379a00000000000000000000000000000000000000000000000000000000081526004016125ba90615324565b60405180910390fd5b600b5481600001541061260b576040517f08c379a0000000000000000000000000000000000000000000000000000000008152600401612602906159a7565b60405180910390fd5b6000816001015411612652576040517f08c379a000000000000000000000000000000000000000000000000000000000815260040161264990615324565b60405180910390fd5b600d54341461268d576040517f8a0d377900000000000000000000000000000000000000000000000000000000815260040160405180910390fd5b600d54601e6000600860009054906101000a900473ffffffffffffffffffffffffffffffffffffffff1673ffffffffffffffffffffffffffffffffffffffff1673ffffffffffffffffffffffffffffffffffffffff1681526020019081526020016000206000828254612700919061560e565b9250508190555082601c60003373ffffffffffffffffffffffffffffffffffffffff1673ffffffffffffffffffffffffffffffffffffffff16815260200190815260200160002060008573ffffffffffffffffffffffffffffffffffffffff1673ffffffffffffffffffffffffffffffffffffffff16815260200190815260200160002060006101000a81548173ffffffffffffffffffffffffffffffffffffffff021916908373ffffffffffffffffffffffffffffffffffffffff16021790555060018160010160008282546127d79190615520565b9250508190555060018160000160008282546127f3919061560e565b92505081905550600a5481600101541061283f5760008160060160009054906101000a900460ff169050808260060160006101000a81548160ff021916908315150217905550506128b5565b60018160060160006101000a81548160ff0219169083151502179055506001601a60008573ffffffffffffffffffffffffffffffffffffffff1673ffffffffffffffffffffffffffffffffffffffff16815260200190815260200160002060006101000a81548160ff0219169083151502179055505b8273ffffffffffffffffffffffffffffffffffffffff163373ffffffffffffffffffffffffffffffffffffffff167f11c9a04d40e079b6a6add720dd7c0a8ae1776acefdca6f37f4046c709a4dffcf426040516129129190614922565b60405180910390a3505050565b612927613d92565b600654600754101561296e576040517f08c379a000000000000000000000000000000000000000000000000000000000815260040161296590615324565b60405180910390fd5b6000601860003373ffffffffffffffffffffffffffffffffffffffff1673ffffffffffffffffffffffffffffffffffffffff1681526020019081526020016000205490506000601860003373ffffffffffffffffffffffffffffffffffffffff1673ffffffffffffffffffffffffffffffffffffffff16815260200190815260200160002081905550612a013382614447565b50565b600080600060608060606000806000601560008b73ffffffffffffffffffffffffffffffffffffffff1673ffffffffffffffffffffffffffffffffffffffff168152602001908152602001600020549050600060128281548110612a6b57612a6a615344565b5b906000526020600020906007020190508060000154816001015482600201548360030184600401856005018660060160009054906101000a900460ff168760060160019054906101000a900473ffffffffffffffffffffffffffffffffffffffff16848054612ad990615693565b80601f0160208091040260200160405190810160405280929190818152602001828054612b0590615693565b8015612b525780601f10612b2757610100808354040283529160200191612b52565b820191906000526020600020905b815481529060010190602001808311612b3557829003601f168201915b50505050509450838054612b6590615693565b80601f0160208091040260200160405190810160405280929190818152602001828054612b9190615693565b8015612bde5780601f10612bb357610100808354040283529160200191612bde565b820191906000526020600020905b815481529060010190602001808311612bc157829003601f168201915b50505050509350828054612bf190615693565b80601f0160208091040260200160405190810160405280929190818152602001828054612c1d90615693565b8015612c6a5780601f10612c3f57610100808354040283529160200191612c6a565b820191906000526020600020905b815481529060010190602001808311612c4d57829003601f168201915b50505050509250995099509950995099509950995099505050919395975091939597565b6006546007541015612cd5576040517f08c379a0000000000000000000000000000000000000000000000000000000008152600401612ccc90615324565b60405180910390fd5b6000601560003373ffffffffffffffffffffffffffffffffffffffff1673ffffffffffffffffffffffffffffffffffffffff1681526020019081526020016000205414612d57576040517f08c379a0000000000000000000000000000000000000000000000000000000008152600401612d4e90615324565b60405180910390fd5b60126040518061010001604052806000815260200160008152602001600081526020018581526020018481526020018381526020016001151581526020013373ffffffffffffffffffffffffffffffffffffffff1681525090806001815401808255809150506001900390600052602060002090600702016000909190919091506000820151816000015560208201518160010155604082015181600201556060820151816003019080519060200190612e12929190614697565b506080820151816004019080519060200190612e2f929190614697565b5060a0820151816005019080519060200190612e4c929190614697565b5060c08201518160060160006101000a81548160ff02191690831515021790555060e08201518160060160016101000a81548173ffffffffffffffffffffffffffffffffffffffff021916908373ffffffffffffffffffffffffffffffffffffffff16021790555050506001601280549050612ec89190615520565b601560003373ffffffffffffffffffffffffffffffffffffffff1673ffffffffffffffffffffffffffffffffffffffff168152602001908152602001600020819055506001601a60003373ffffffffffffffffffffffffffffffffffffffff1673ffffffffffffffffffffffffffffffffffffffff16815260200190815260200160002060006101000a81548160ff0219169083151502179055503373ffffffffffffffffffffffffffffffffffffffff167f07acefbc52945a41d46c17d9c5b0bdba3b6d33f6a99fe6d079ba42587b7d3423848484604051612fad939291906159c7565b60405180910390a2505050565b6000601560008373ffffffffffffffffffffffffffffffffffffffff1673ffffffffffffffffffffffffffffffffffffffff168152602001908152602001600020549050919050565b61300b614310565b6000601e6000600860009054906101000a900473ffffffffffffffffffffffffffffffffffffffff1673ffffffffffffffffffffffffffffffffffffffff1673ffffffffffffffffffffffffffffffffffffffff1681526020019081526020016000205490506000601e6000600860009054906101000a900473ffffffffffffffffffffffffffffffffffffffff1673ffffffffffffffffffffffffffffffffffffffff1673ffffffffffffffffffffffffffffffffffffffff168152602001908152602001600020819055503373ffffffffffffffffffffffffffffffffffffffff166108fc829081150290604051600060405180830381858888f1935050505015801561311e573d6000803e3d6000fd5b5050565b6000600554905090565b6000601280549050905090565b61314161427b565b6000601560008373ffffffffffffffffffffffffffffffffffffffff1673ffffffffffffffffffffffffffffffffffffffff16815260200190815260200160002054905060006012828154811061319b5761319a615344565b5b9060005260206000209060070201905083601860008573ffffffffffffffffffffffffffffffffffffffff1673ffffffffffffffffffffffffffffffffffffffff16815260200190815260200160002054101580156132105750600015158160060160009054906101000a900460ff16151514155b61324f576040517f08c379a000000000000000000000000000000000000000000000000000000000815260040161324690615324565b60405180910390fd5b83601960008573ffffffffffffffffffffffffffffffffffffffff1673ffffffffffffffffffffffffffffffffffffffff168152602001908152602001600020600082825461329e919061560e565b9250508190555083601860008573ffffffffffffffffffffffffffffffffffffffff1673ffffffffffffffffffffffffffffffffffffffff16815260200190815260200160002060008282546132f49190615520565b9250508190555060001515601d60008573ffffffffffffffffffffffffffffffffffffffff1673ffffffffffffffffffffffffffffffffffffffff16815260200190815260200160002060003373ffffffffffffffffffffffffffffffffffffffff1673ffffffffffffffffffffffffffffffffffffffff16815260200190815260200160002060009054906101000a900460ff16151514156135d557601360405180604001604052808573ffffffffffffffffffffffffffffffffffffffff1681526020013373ffffffffffffffffffffffffffffffffffffffff16815250908060018154018082558091505060019003906000526020600020906002020160009091909190915060008201518160000160006101000a81548173ffffffffffffffffffffffffffffffffffffffff021916908373ffffffffffffffffffffffffffffffffffffffff16021790555060208201518160010160006101000a81548173ffffffffffffffffffffffffffffffffffffffff021916908373ffffffffffffffffffffffffffffffffffffffff16021790555050506001601d60008573ffffffffffffffffffffffffffffffffffffffff1673ffffffffffffffffffffffffffffffffffffffff16815260200190815260200160002060003373ffffffffffffffffffffffffffffffffffffffff1673ffffffffffffffffffffffffffffffffffffffff16815260200190815260200160002060006101000a81548160ff0219169083151502179055506001601660008573ffffffffffffffffffffffffffffffffffffffff1673ffffffffffffffffffffffffffffffffffffffff1681526020019081526020016000206000828254613572919061560e565b925050819055506001601760003373ffffffffffffffffffffffffffffffffffffffff1673ffffffffffffffffffffffffffffffffffffffff16815260200190815260200160002060008282546135c9919061560e565b925050819055506135dc565b50506135df565b50505b5050565b6135eb613d92565b6000601560008373ffffffffffffffffffffffffffffffffffffffff1673ffffffffffffffffffffffffffffffffffffffff16815260200190815260200160002054905060006012828154811061364557613644615344565b5b906000526020600020906007020190508273ffffffffffffffffffffffffffffffffffffffff16601c60003373ffffffffffffffffffffffffffffffffffffffff1673ffffffffffffffffffffffffffffffffffffffff16815260200190815260200160002060008573ffffffffffffffffffffffffffffffffffffffff1673ffffffffffffffffffffffffffffffffffffffff16815260200190815260200160002060009054906101000a900473ffffffffffffffffffffffffffffffffffffffff1673ffffffffffffffffffffffffffffffffffffffff16141580156137435750600015158160060160009054906101000a900460ff16151514155b613782576040517f08c379a000000000000000000000000000000000000000000000000000000000815260040161377990615324565b60405180910390fd5b82601c60003373ffffffffffffffffffffffffffffffffffffffff1673ffffffffffffffffffffffffffffffffffffffff16815260200190815260200160002060008573ffffffffffffffffffffffffffffffffffffffff1673ffffffffffffffffffffffffffffffffffffffff16815260200190815260200160002060006101000a81548173ffffffffffffffffffffffffffffffffffffffff021916908373ffffffffffffffffffffffffffffffffffffffff1602179055506001816001016000828254613852919061560e565b92505081905550600a548160010154101561389f5760008160060160009054906101000a900460ff169050808260060160006101000a81548160ff02191690831515021790555050613915565b60008160060160006101000a81548160ff0219169083151502179055506000601a60008573ffffffffffffffffffffffffffffffffffffffff1673ffffffffffffffffffffffffffffffffffffffff16815260200190815260200160002060006101000a81548160ff0219169083151502179055505b8273ffffffffffffffffffffffffffffffffffffffff163373ffffffffffffffffffffffffffffffffffffffff167f6ceca1a3cd7cb44311239fc385b20e17433d6483d6abe63fb5c51567edd4aa4a426040516139729190614922565b60405180910390a3505050565b6000600160008473ffffffffffffffffffffffffffffffffffffffff1673ffffffffffffffffffffffffffffffffffffffff16815260200190815260200160002060008373ffffffffffffffffffffffffffffffffffffffff1673ffffffffffffffffffffffffffffffffffffffff16815260200190815260200160002054905092915050565b6000600c54905090565b6000601f60003373ffffffffffffffffffffffffffffffffffffffff1673ffffffffffffffffffffffffffffffffffffffff168152602001908152602001600020905060065460075410158015613a7c5750600015158160020160009054906101000a900460ff161515145b613abb576040517f08c379a0000000000000000000000000000000000000000000000000000000008152600401613ab290615324565b60405180910390fd5b6000816001015490506000826001018190555060018260020160006101000a81548160ff021916908315150217905550613af53382614447565b5050565b613b01614310565b80600860006101000a81548173ffffffffffffffffffffffffffffffffffffffff021916908373ffffffffffffffffffffffffffffffffffffffff16021790555050565b60606000601660008473ffffffffffffffffffffffffffffffffffffffff1673ffffffffffffffffffffffffffffffffffffffff1681526020019081526020016000205467ffffffffffffffff811115613ba257613ba1614f7d565b5b604051908082528060200260200182016040528015613bdb57816020015b613bc86145f4565b815260200190600190039081613bc05790505b5090506000805b601380549050811015613d87578473ffffffffffffffffffffffffffffffffffffffff1660138281548110613c1a57613c19615344565b5b906000526020600020906002020160000160009054906101000a900473ffffffffffffffffffffffffffffffffffffffff1673ffffffffffffffffffffffffffffffffffffffff161415613d7457600060138281548110613c7e57613c7d615344565b5b90600052602060002090600202019050806040518060400160405290816000820160009054906101000a900473ffffffffffffffffffffffffffffffffffffffff1673ffffffffffffffffffffffffffffffffffffffff1673ffffffffffffffffffffffffffffffffffffffff1681526020016001820160009054906101000a900473ffffffffffffffffffffffffffffffffffffffff1673ffffffffffffffffffffffffffffffffffffffff1673ffffffffffffffffffffffffffffffffffffffff1681525050848481518110613d5957613d58615344565b5b60200260200101819052508280613d6f90615757565b935050505b8080613d7f90615757565b915050613be2565b508192505050919050565b60011515601a60003373ffffffffffffffffffffffffffffffffffffffff1673ffffffffffffffffffffffffffffffffffffffff16815260200190815260200160002060009054906101000a900460ff16151514613e25576040517f08c379a0000000000000000000000000000000000000000000000000000000008152600401613e1c90615a5f565b60405180910390fd5b565b600033905090565b600073ffffffffffffffffffffffffffffffffffffffff168373ffffffffffffffffffffffffffffffffffffffff161415613e9f576040517f08c379a0000000000000000000000000000000000000000000000000000000008152600401613e9690615af1565b60405180910390fd5b600073ffffffffffffffffffffffffffffffffffffffff168273ffffffffffffffffffffffffffffffffffffffff161415613f0f576040517f08c379a0000000000000000000000000000000000000000000000000000000008152600401613f0690615b83565b60405180910390fd5b80600160008573ffffffffffffffffffffffffffffffffffffffff1673ffffffffffffffffffffffffffffffffffffffff16815260200190815260200160002060008473ffffffffffffffffffffffffffffffffffffffff1673ffffffffffffffffffffffffffffffffffffffff168152602001908152602001600020819055508173ffffffffffffffffffffffffffffffffffffffff168373ffffffffffffffffffffffffffffffffffffffff167f8c5be1e5ebec7d5bd14f71427d1e84f3dd0314c0f7b2291e5b200ac8c7c3b92583604051613fed9190614922565b60405180910390a3505050565b600073ffffffffffffffffffffffffffffffffffffffff168373ffffffffffffffffffffffffffffffffffffffff16141561406a576040517f08c379a000000000000000000000000000000000000000000000000000000000815260040161406190615c15565b60405180910390fd5b600073ffffffffffffffffffffffffffffffffffffffff168273ffffffffffffffffffffffffffffffffffffffff1614156140da576040517f08c379a00000000000000000000000000000000000000000000000000000000081526004016140d190615ca7565b60405180910390fd5b6140e58383836145a7565b60008060008573ffffffffffffffffffffffffffffffffffffffff1673ffffffffffffffffffffffffffffffffffffffff1681526020019081526020016000205490508181101561416b576040517f08c379a000000000000000000000000000000000000000000000000000000000815260040161416290615d39565b60405180910390fd5b8181036000808673ffffffffffffffffffffffffffffffffffffffff1673ffffffffffffffffffffffffffffffffffffffff16815260200190815260200160002081905550816000808573ffffffffffffffffffffffffffffffffffffffff1673ffffffffffffffffffffffffffffffffffffffff16815260200190815260200160002060008282546141fe919061560e565b925050819055508273ffffffffffffffffffffffffffffffffffffffff168473ffffffffffffffffffffffffffffffffffffffff167fddf252ad1be2c89b69c2b068fc378daa952ba7f163c4a11628f55a4df523b3ef846040516142629190614922565b60405180910390a36142758484846145ac565b50505050565b60011515601b60003373ffffffffffffffffffffffffffffffffffffffff1673ffffffffffffffffffffffffffffffffffffffff16815260200190815260200160002060009054906101000a900460ff1615151461430e576040517f08c379a000000000000000000000000000000000000000000000000000000000815260040161430590615da5565b60405180910390fd5b565b600860009054906101000a900473ffffffffffffffffffffffffffffffffffffffff1673ffffffffffffffffffffffffffffffffffffffff163373ffffffffffffffffffffffffffffffffffffffff16146143a0576040517f08c379a000000000000000000000000000000000000000000000000000000000815260040161439790615e11565b60405180910390fd5b565b6000816040516020016143b59190615eb3565b604051602081830303815290604052805190602001209050919050565b6000806000806143e1856145b1565b809350819450829550505050600186848484604051600081526020016040526040516144109493929190615ee8565b6020604051602081039080840390855afa158015614432573d6000803e3d6000fd5b50505060206040510351935050505092915050565b600073ffffffffffffffffffffffffffffffffffffffff168273ffffffffffffffffffffffffffffffffffffffff1614156144b7576040517f08c379a00000000000000000000000000000000000000000000000000000000081526004016144ae90615f79565b60405180910390fd5b6144c3600083836145a7565b80600260008282546144d5919061560e565b92505081905550806000808473ffffffffffffffffffffffffffffffffffffffff1673ffffffffffffffffffffffffffffffffffffffff168152602001908152602001600020600082825461452a919061560e565b925050819055508173ffffffffffffffffffffffffffffffffffffffff16600073ffffffffffffffffffffffffffffffffffffffff167fddf252ad1be2c89b69c2b068fc378daa952ba7f163c4a11628f55a4df523b3ef8360405161458f9190614922565b60405180910390a36145a3600083836145ac565b5050565b505050565b505050565b600080600060418451146145c457600080fd5b60008060006020870151925060408701519150606087015160001a90508083839550955095505050509193909250565b6040518060400160405280600073ffffffffffffffffffffffffffffffffffffffff168152602001600073ffffffffffffffffffffffffffffffffffffffff1681525090565b604051806101000160405280600081526020016000815260200160008152602001606081526020016060815260200160608152602001600015158152602001600073ffffffffffffffffffffffffffffffffffffffff1681525090565b8280546146a390615693565b90600052602060002090601f0160209004810192826146c5576000855561470c565b82601f106146de57805160ff191683800117855561470c565b8280016001018555821561470c579182015b8281111561470b5782518255916020019190600101906146f0565b5b509050614719919061471d565b5090565b5b8082111561473657600081600090555060010161471e565b5090565b600081519050919050565b600082825260208201905092915050565b60005b83811015614774578082015181840152602081019050614759565b83811115614783576000848401525b50505050565b6000601f19601f8301169050919050565b60006147a58261473a565b6147af8185614745565b93506147bf818560208601614756565b6147c881614789565b840191505092915050565b600060208201905081810360008301526147ed818461479a565b905092915050565b6000604051905090565b600080fd5b600080fd5b600073ffffffffffffffffffffffffffffffffffffffff82169050919050565b600061483482614809565b9050919050565b61484481614829565b811461484f57600080fd5b50565b6000813590506148618161483b565b92915050565b6000819050919050565b61487a81614867565b811461488557600080fd5b50565b60008135905061489781614871565b92915050565b600080604083850312156148b4576148b36147ff565b5b60006148c285828601614852565b92505060206148d385828601614888565b9150509250929050565b60008115159050919050565b6148f2816148dd565b82525050565b600060208201905061490d60008301846148e9565b92915050565b61491c81614867565b82525050565b60006020820190506149376000830184614913565b92915050565b600060208284031215614953576149526147ff565b5b600061496184828501614852565b91505092915050565b600080600060608486031215614983576149826147ff565b5b600061499186828701614852565b93505060206149a286828701614852565b92505060406149b386828701614888565b9150509250925092565b600060ff82169050919050565b6149d3816149bd565b82525050565b60006020820190506149ee60008301846149ca565b92915050565b6149fd81614829565b82525050565b6000602082019050614a1860008301846149f4565b92915050565b6000606082019050614a336000830186614913565b614a406020830185614913565b614a4d60408301846148e9565b949350505050565b600061016082019050614a6b600083018e614913565b614a78602083018d614913565b614a85604083018c614913565b614a92606083018b614913565b614a9f608083018a614913565b614aac60a0830189614913565b614ab960c08301886149f4565b614ac660e0830187614913565b614ad4610100830186614913565b614ae2610120830185614913565b614af0610140830184614913565b9c9b505050505050505050505050565b60008060408385031215614b1757614b166147ff565b5b6000614b2585828601614888565b9250506020614b3685828601614852565b9150509250929050565b60008060008060808587031215614b5a57614b596147ff565b5b6000614b6887828801614852565b9450506020614b7987828801614888565b9350506040614b8a87828801614852565b9250506060614b9b87828801614888565b91505092959194509250565b600081519050919050565b600082825260208201905092915050565b6000819050602082019050919050565b614bdc81614829565b82525050565b604082016000820151614bf86000850182614bd3565b506020820151614c0b6020850182614bd3565b50505050565b6000614c1d8383614be2565b60408301905092915050565b6000602082019050919050565b6000614c4182614ba7565b614c4b8185614bb2565b9350614c5683614bc3565b8060005b83811015614c87578151614c6e8882614c11565b9750614c7983614c29565b925050600181019050614c5a565b5085935050505092915050565b60006020820190508181036000830152614cae8184614c36565b905092915050565b600080600060608486031215614ccf57614cce6147ff565b5b6000614cdd86828701614888565b9350506020614cee86828701614888565b9250506040614cff86828701614888565b9150509250925092565b600081519050919050565b600082825260208201905092915050565b6000819050602082019050919050565b614d3e81614867565b82525050565b600082825260208201905092915050565b6000614d608261473a565b614d6a8185614d44565b9350614d7a818560208601614756565b614d8381614789565b840191505092915050565b614d97816148dd565b82525050565b600061010083016000830151614db66000860182614d35565b506020830151614dc96020860182614d35565b506040830151614ddc6040860182614d35565b5060608301518482036060860152614df48282614d55565b91505060808301518482036080860152614e0e8282614d55565b91505060a083015184820360a0860152614e288282614d55565b91505060c0830151614e3d60c0860182614d8e565b5060e0830151614e5060e0860182614bd3565b508091505092915050565b6000614e678383614d9d565b905092915050565b6000602082019050919050565b6000614e8782614d09565b614e918185614d14565b935083602082028501614ea385614d25565b8060005b85811015614edf5784840389528151614ec08582614e5b565b9450614ecb83614e6f565b925060208a01995050600181019050614ea7565b50829750879550505050505092915050565b60006020820190508181036000830152614f0b8184614e7c565b905092915050565b600080fd5b600080fd5b600080fd5b60008083601f840112614f3857614f37614f13565b5b8235905067ffffffffffffffff811115614f5557614f54614f18565b5b602083019150836001820283011115614f7157614f70614f1d565b5b9250929050565b600080fd5b7f4e487b7100000000000000000000000000000000000000000000000000000000600052604160045260246000fd5b614fb582614789565b810181811067ffffffffffffffff82111715614fd457614fd3614f7d565b5b80604052505050565b6000614fe76147f5565b9050614ff38282614fac565b919050565b600067ffffffffffffffff82111561501357615012614f7d565b5b61501c82614789565b9050602081019050919050565b82818337600083830152505050565b600061504b61504684614ff8565b614fdd565b90508281526020810184848401111561506757615066614f78565b5b615072848285615029565b509392505050565b600082601f83011261508f5761508e614f13565b5b813561509f848260208601615038565b91505092915050565b6000806000806000608086880312156150c4576150c36147ff565b5b600086013567ffffffffffffffff8111156150e2576150e1614804565b5b6150ee88828901614f22565b9550955050602086013567ffffffffffffffff81111561511157615110614804565b5b61511d8882890161507a565b935050604086013567ffffffffffffffff81111561513e5761513d614804565b5b61514a8882890161507a565b925050606086013567ffffffffffffffff81111561516b5761516a614804565b5b6151778882890161507a565b9150509295509295909350565b60006101008201905061519a600083018b614913565b6151a7602083018a614913565b6151b46040830189614913565b81810360608301526151c6818861479a565b905081810360808301526151da818761479a565b905081810360a08301526151ee818661479a565b90506151fd60c08301856148e9565b61520a60e08301846149f4565b9998505050505050505050565b6000806000606084860312156152305761522f6147ff565b5b600084013567ffffffffffffffff81111561524e5761524d614804565b5b61525a8682870161507a565b935050602084013567ffffffffffffffff81111561527b5761527a614804565b5b6152878682870161507a565b925050604084013567ffffffffffffffff8111156152a8576152a7614804565b5b6152b48682870161507a565b9150509250925092565b600080604083850312156152d5576152d46147ff565b5b60006152e385828601614852565b92505060206152f485828601614852565b9150509250929050565b50565b600061530e600083614745565b9150615319826152fe565b600082019050919050565b6000602082019050818103600083015261533d81615301565b9050919050565b7f4e487b7100000000000000000000000000000000000000000000000000000000600052603260045260246000fd5b7f4e487b7100000000000000000000000000000000000000000000000000000000600052601160045260246000fd5b60008160011c9050919050565b6000808291508390505b60018511156153f9578086048111156153d5576153d4615373565b5b60018516156153e45780820291505b80810290506153f2856153a2565b94506153b9565b94509492505050565b60008261541257600190506154ce565b8161542057600090506154ce565b816001811461543657600281146154405761546f565b60019150506154ce565b60ff84111561545257615451615373565b5b8360020a91508482111561546957615468615373565b5b506154ce565b5060208310610133831016604e8410600b84101617156154a45782820a90508381111561549f5761549e615373565b5b6154ce565b6154b184848460016153af565b925090508184048111156154c8576154c7615373565b5b81810290505b9392505050565b60006154e082614867565b91506154eb83614867565b92506155187fffffffffffffffffffffffffffffffffffffffffffffffffffffffffffffffff8484615402565b905092915050565b600061552b82614867565b915061553683614867565b92508282101561554957615548615373565b5b828203905092915050565b600061555f82614867565b915061556a83614867565b9250817fffffffffffffffffffffffffffffffffffffffffffffffffffffffffffffffff04831182151516156155a3576155a2615373565b5b828202905092915050565b7f4e487b7100000000000000000000000000000000000000000000000000000000600052601260045260246000fd5b60006155e882614867565b91506155f383614867565b925082615603576156026155ae565b5b828204905092915050565b600061561982614867565b915061562483614867565b9250827fffffffffffffffffffffffffffffffffffffffffffffffffffffffffffffffff0382111561565957615658615373565b5b828201905092915050565b7f4e487b7100000000000000000000000000000000000000000000000000000000600052602260045260246000fd5b600060028204905060018216806156ab57607f821691505b602082108114156156bf576156be615664565b5b50919050565b7f45524332303a207472616e7366657220616d6f756e742065786365656473206160008201527f6c6c6f77616e6365000000000000000000000000000000000000000000000000602082015250565b6000615721602883614745565b915061572c826156c5565b604082019050919050565b6000602082019050818103600083015261575081615714565b9050919050565b600061576282614867565b91507fffffffffffffffffffffffffffffffffffffffffffffffffffffffffffffffff82141561579557615794615373565b5b600182019050919050565b60008160601b9050919050565b60006157b8826157a0565b9050919050565b60006157ca826157ad565b9050919050565b6157e26157dd82614829565b6157bf565b82525050565b60006157f482846157d1565b60148201915081905092915050565b7f696e76616c69645369674f72416c526567000000000000000000000000000000600082015250565b6000615839601183614745565b915061584482615803565b602082019050919050565b600060208201905081810360008301526158688161582c565b9050919050565b60006080820190506158846000830187614913565b8181036020830152615896818661479a565b905081810360408301526158aa818561479a565b905081810360608301526158be818461479a565b905095945050505050565b7f45524332303a2064656372656173656420616c6c6f77616e63652062656c6f7760008201527f207a65726f000000000000000000000000000000000000000000000000000000602082015250565b6000615925602583614745565b9150615930826158c9565b604082019050919050565b6000602082019050818103600083015261595481615918565b9050919050565b7f6d6178476f6f64436f756e740000000000000000000000000000000000000000600082015250565b6000615991600c83614745565b915061599c8261595b565b602082019050919050565b600060208201905081810360008301526159c081615984565b9050919050565b600060608201905081810360008301526159e1818661479a565b905081810360208301526159f5818561479a565b90508181036040830152615a09818461479a565b9050949350505050565b7f626c000000000000000000000000000000000000000000000000000000000000600082015250565b6000615a49600283614745565b9150615a5482615a13565b602082019050919050565b60006020820190508181036000830152615a7881615a3c565b9050919050565b7f45524332303a20617070726f76652066726f6d20746865207a65726f2061646460008201527f7265737300000000000000000000000000000000000000000000000000000000602082015250565b6000615adb602483614745565b9150615ae682615a7f565b604082019050919050565b60006020820190508181036000830152615b0a81615ace565b9050919050565b7f45524332303a20617070726f766520746f20746865207a65726f20616464726560008201527f7373000000000000000000000000000000000000000000000000000000000000602082015250565b6000615b6d602283614745565b9150615b7882615b11565b604082019050919050565b60006020820190508181036000830152615b9c81615b60565b9050919050565b7f45524332303a207472616e736665722066726f6d20746865207a65726f20616460008201527f6472657373000000000000000000000000000000000000000000000000000000602082015250565b6000615bff602583614745565b9150615c0a82615ba3565b604082019050919050565b60006020820190508181036000830152615c2e81615bf2565b9050919050565b7f45524332303a207472616e7366657220746f20746865207a65726f206164647260008201527f6573730000000000000000000000000000000000000000000000000000000000602082015250565b6000615c91602383614745565b9150615c9c82615c35565b604082019050919050565b60006020820190508181036000830152615cc081615c84565b9050919050565b7f45524332303a207472616e7366657220616d6f756e742065786365656473206260008201527f616c616e63650000000000000000000000000000000000000000000000000000602082015250565b6000615d23602683614745565b9150615d2e82615cc7565b604082019050919050565b60006020820190508181036000830152615d5281615d16565b9050919050565b7f6663000000000000000000000000000000000000000000000000000000000000600082015250565b6000615d8f600283614745565b9150615d9a82615d59565b602082019050919050565b60006020820190508181036000830152615dbe81615d82565b9050919050565b7f6f61000000000000000000000000000000000000000000000000000000000000600082015250565b6000615dfb600283614745565b9150615e0682615dc5565b602082019050919050565b60006020820190508181036000830152615e2a81615dee565b9050919050565b600081905092915050565b7f19457468657265756d205369676e6564204d6573736167653a0a333200000000600082015250565b6000615e72601c83615e31565b9150615e7d82615e3c565b601c82019050919050565b6000819050919050565b6000819050919050565b615ead615ea882615e88565b615e92565b82525050565b6000615ebe82615e65565b9150615eca8284615e9c565b60208201915081905092915050565b615ee281615e88565b82525050565b6000608082019050615efd6000830187615ed9565b615f0a60208301866149ca565b615f176040830185615ed9565b615f246060830184615ed9565b95945050505050565b7f45524332303a206d696e7420746f20746865207a65726f206164647265737300600082015250565b6000615f63601f83614745565b9150615f6e82615f2d565b602082019050919050565b60006020820190508181036000830152615f9281615f56565b905091905056fea2646970667358221220a837f4f3581fc1f9e5212753466b7762d9b066b4d32fa52ed531f2da9396e60064736f6c634300080a0033",
  "immutableReferences": {},
  "source": "  // SPDX-License-Identifier: MIT\n  pragma solidity 0.8.10;\n\n  import \"@openzeppelin/contracts/token/ERC20/ERC20.sol\";\n\n  contract slice is ERC20 {\n      \n      uint start;\n      uint vTotalSupply;\n      uint vSupply;\n      address listAdmin;\n      address signer; \n      uint wenBlock;\n      uint maxGoodCount;\n      uint mintingSpeed;\n      uint goodPrice;\n      address public marketing1;\n      bool longTermReward1;\n      uint fightMintBalance;\n      uint fightMintSupply;\n      address ff;\n\n          function _a() private view {\n            require ((whitelist[msg.sender]==true), \"bl\");\n          }\n          modifier onlyWhitelisted() {\n            _a();\n            _;\n          }\n          function _fc() private view {\n            require ((whitelistFc[msg.sender]==true), \"fc\");\n          }\n          modifier onlyWhitelistedFc() {\n            _fc();\n            _;\n          }\n          \n\n          function _admin() private view {\n            require(msg.sender == listAdmin, \"oa\");\n          }\n          modifier onlyAdmin() {\n            _admin();\n            _;\n          }\n\n      constructor (string memory name, string memory symbol) ERC20(name, symbol) {\n        start = block.timestamp;\n        vTotalSupply = 3027456000 * 10 ** uint(decimals());\n        fightMintSupply = 567648000 * 10 ** uint(decimals());\n        listAdmin = msg.sender;\n        signer = 0xD6AF7959290caeE9E8564EC80a33b92335d6232C;\n        marketing1= 0xa16392cB56E13367578795db9f6459485571d2fA;\n        wenBlock=2;\n        maxGoodCount=1;\n        mintingSpeed=30;\n        goodPrice=10000000000000000;\n        longTermReward1=false;\n      }\n\n      struct Minters {\n          uint goodCount;\n          uint reported;\n          uint lastMinted;\n          string gpsLat;\n          string gpsLon;\n          string nickname;\n          bool whitelisted;\n          address addr;\n      }\n      Minters[] mintersDB;\n      \n      struct StakedContracts {\n          address staker;\n          address fightContract;\n      }\n      StakedContracts []  stakersList;\n\n      mapping(address => Minters) minters;\n      mapping(address => uint) index;\n      mapping (address=>uint )  stakedContractsCounter;\n      mapping (address=>uint )  stakedFightCounter;\n      mapping (address => uint) vSliceBalances;\n      mapping (address => uint) stakedVSlices;\n      mapping (address => bool) whitelist;\n      mapping (address => bool) whitelistFc;\n      mapping (address => mapping(address=> address))  challengers;\n      mapping (address => mapping(address=> bool))  stakers;\n      mapping (address => uint) pw;\n      error NotEnoughEther();\n      \n      struct Entry{\n        uint index;\n        uint value;\n        bool minted;\n                }\n      mapping(address => Entry)  map;\n      address[]  keyList;\n   \n   // ff whitelist\n   function addFightToWl(address _fcont) external {\n     require(msg.sender==ff);\n     whitelistFc[_fcont] = true;\n   }\n   // Fight mint\n   event finishedFight (address indexed fa);\n    function fightMint(address _fa, uint _users, address _ls, uint _spotCounter) external onlyWhitelistedFc {\n      if ((fightMintBalance < fightMintSupply) && (_ls != msg.sender) && (_spotCounter>=3)) {\n        Entry storage entry = map[_fa];\n        entry.value += _users * _spotCounter * 1000 * 10 ** uint(decimals());\n        fightMintBalance += _users * _spotCounter * 1000 * 10 ** uint(decimals());\n        if(entry.index > 0){\n            return;\n        }else {\n            keyList.push(_fa);\n            uint keyListIndex = keyList.length - 1;\n            entry.index = keyListIndex + 1;\n        }\n      }\n      else return;\n      emit finishedFight(_fa);\n    }\n\n    function rewards_for_fights() external {\n    Entry storage entry = map[msg.sender];\n    require(vSupply>=vTotalSupply && entry.minted==false, \"\");\n    uint mint_amount = entry.value;\n    entry.value=0;\n    entry.minted = true;\n    _mint(msg.sender, mint_amount);\n     } \n\n    function readFightRewards (address _addr)  public view returns (uint, uint, bool) {\n     Entry storage m = map[_addr];\n    return (m.index, m.value, m.minted);\n      }\n\n    function marketing_reward() external {\n    require(vSupply>=vTotalSupply && msg.sender==marketing1 && longTermReward1==false, \"\");\n    longTermReward1 = true;\n    _mint(msg.sender, (189216000 * 10 ** uint(decimals())));\n      }\n    function changeMarketing1(address _addr1) public {\n    require(msg.sender==marketing1, '');\n    marketing1=_addr1;\n      }\n\n      event BadActors(uint date, address indexed reporter, address indexed reported);\n      function reportBadActor(address _addr) external onlyWhitelisted {\n      uint indx = index[_addr];\n      Minters storage m = mintersDB[indx];\n      require (challengers[msg.sender][_addr] != _addr && m.whitelisted!=false, \"\");\n      challengers[msg.sender][_addr] = _addr;\n      m.reported += 1;\n      if (m.reported <wenBlock) \n          {bool existingStatus=m.whitelisted;\n            m.whitelisted=existingStatus;\n      }else {\n          m.whitelisted=false;\n          whitelist[_addr] = false;\n      }\n      emit BadActors (block.timestamp, msg.sender, _addr);\n      }\n      \n      event GoodActors(uint date, address indexed reporter, address indexed reported);\n      function reportGoodActor(address _addr) external payable onlyWhitelisted {\n      uint indx = index[_addr];\n      Minters storage m = mintersDB[indx];\n      require (msg.sender != _addr, \"\");\n      require (challengers[msg.sender][_addr] != _addr, \"\");\n      require (m.goodCount<maxGoodCount, \"maxGoodCount\");\n      require (m.reported>0, \"\");\n      if (msg.value != goodPrice) revert NotEnoughEther();\n      pw[listAdmin]+= goodPrice;\n      challengers[msg.sender][_addr] = _addr;\n      m.reported -= 1;\n      m.goodCount+=1;\n      if (m.reported >=wenBlock)  \n          {bool existingStatus=m.whitelisted;\n            m.whitelisted=existingStatus;\n      }else {\n          m.whitelisted=true;\n          whitelist[_addr] = true;\n      } \n      emit GoodActors (block.timestamp, msg.sender, _addr);\n      }\n      \n      event mintersFree(address indexed minter, string Lat, string Lon, string Nick); \n      function AddToWhitelist (string memory  _gpsLat,string memory  _gpsLon, string memory _nickname) external {\n      require(vSupply>= vTotalSupply, \"\");\n      require(index[msg.sender]==0, \"\");\n      mintersDB.push(Minters(0, 0, 0, _gpsLat, _gpsLon, _nickname, true, msg.sender));\n      index[msg.sender] = mintersDB.length-1;\n      whitelist[msg.sender] = true;\n      emit mintersFree(msg.sender,_gpsLat, _gpsLon, _nickname);\n    }\n          \n         \n      event newMinter(uint date, address indexed minter, string Lat, string Lon, string Nick);\n      function addToWhitelist_a7I(bytes calldata signature, string memory _gpsLat,string memory _gpsLon, string memory _nickname) external {\n      bytes32 message = prefixed(keccak256(abi.encodePacked(\n        msg.sender\n      )));\n      require(recoverSigner(message, signature) == signer && index[msg.sender]==0 , \"invalidSigOrAlReg\");\n      mintersDB.push(Minters(0, 0, 0, _gpsLat, _gpsLon, _nickname, true, msg.sender));\n      index[msg.sender] = mintersDB.length-1;\n      whitelist[msg.sender] = true;\n      emit newMinter(block.timestamp, msg.sender,_gpsLat, _gpsLon, _nickname);\n    }\n\n    function prefixed(bytes32 hash) internal pure returns (bytes32) {\n      return keccak256(abi.encodePacked(\n        '\\x19Ethereum Signed Message:\\n32', \n        hash\n      ));\n    }\n\n    function recoverSigner(bytes32 message, bytes memory sig)\n      internal\n      pure\n      returns (address)\n    {\n      uint8 v;\n      bytes32 r;\n      bytes32 s;\n    \n      (v, r, s) = splitSignature(sig);\n    \n      return ecrecover(message, v, r, s);\n    }\n\n    function splitSignature(bytes memory sig)\n      internal\n      pure\n      returns (uint8, bytes32, bytes32)\n    {\n      require(sig.length == 65);\n    \n      bytes32 r;\n      bytes32 s;\n      uint8 v;\n    \n      assembly {\n          // first 32 bytes, after the length prefix\n          r := mload(add(sig, 32))\n          // second 32 bytes\n          s := mload(add(sig, 64))\n          // final byte (first byte of the next 32 bytes)\n          v := byte(0, mload(add(sig, 96)))\n      }\n    \n      return (v, r, s);\n    }\n\n      function SliceMinting() external onlyWhitelisted {\n          require(vSupply>=vTotalSupply, \"\");\n          uint amount = vSliceBalances[msg.sender];\n          vSliceBalances[msg.sender]=0;\n          _mint(msg.sender, amount);\n\n      }\n\n      function vSliceMinting_ExW() external onlyWhitelisted {\n              require(vSupply<= vTotalSupply, \"\");\n              uint indx = index[msg.sender];\n              Minters storage m = mintersDB[indx];\n              uint mint;\n              uint diff;\n          if (m.lastMinted == 0) {\n              mint = (block.timestamp-start)* 10 ** uint(decimals());\n              vSliceBalances[msg.sender]+= mint/mintingSpeed;\n              m.lastMinted = block.timestamp;\n              vSupply+= mint/mintingSpeed;}\n          else {\n              diff = block.timestamp - m.lastMinted;\n              mint = diff* 10 ** uint(decimals());\n              vSliceBalances[msg.sender]+= mint/mintingSpeed;\n              m.lastMinted = block.timestamp;\n              vSupply+= mint/mintingSpeed;}\n\n      }\n      \n      \n      function stakeVSlice_h56(uint _amount, address _addr) external onlyWhitelistedFc {\n          uint indx = index[_addr];\n          Minters storage m = mintersDB[indx];\n          require (vSliceBalances[_addr] >= _amount && m.whitelisted!=false, \"\");\n          stakedVSlices[_addr] += _amount;\n          vSliceBalances[_addr] -= _amount;\n          if (stakers[_addr][msg.sender] == false) {\n              stakersList.push(StakedContracts(_addr, msg.sender));\n              stakers[_addr][msg.sender] = true;\n              stakedContractsCounter[_addr] += 1;\n              stakedFightCounter[msg.sender] +=1;\n          } else {return;}\n          \n      }\n      \n      function unstakeVSlice_Hha(uint _amount, address _addr) external onlyWhitelistedFc {\n          uint indx = index[_addr];\n          Minters storage m = mintersDB[indx];\n          require(stakedVSlices[_addr]>=_amount && m.whitelisted!=false, \"\");\n          stakedVSlices[_addr] -= _amount;\n          vSliceBalances[_addr] += _amount;\n          \n      }\n     \n//GETTERs\n      function getStakedByStaker(address _owner) view external returns (StakedContracts[] memory){\n        StakedContracts[]    memory id = new StakedContracts[](stakedContractsCounter[_owner]);\n            uint counter = 0;\n            \n        for (uint i = 0; i < stakersList.length; i++) {\n            if (stakersList[i].staker == _owner) {\n          StakedContracts storage list = stakersList[i];\n            id[counter] = list;\n            counter++;\n        }\n      }\n        return id;\n    }\n      function getStakedByFight(address _fight) view external returns (StakedContracts[] memory){\n        StakedContracts[]    memory id = new StakedContracts[](stakedFightCounter[_fight]);\n            uint counter = 0;\n            \n        for (uint i = 0; i < stakersList.length; i++) {\n            if (stakersList[i].fightContract== _fight) {\n          StakedContracts storage list = stakersList[i];\n            id[counter] = list;\n            counter++;\n        }\n      }\n        return id;\n    }\n      function getAllMinters() public view returns (Minters[] memory){\n        Minters[]    memory id = new Minters[](mintersDB.length);\n        for (uint i = 0; i < mintersDB.length; i++) {\n            Minters storage mint = mintersDB[i];\n            id[i] = mint;\n        }\n        return id;\n    }\n      function getMinter(address _addr)  view external returns (uint, uint, uint, string memory, string memory,string memory, bool, address) {\n          uint indx = index[_addr];\n          Minters storage m = mintersDB[indx];\n          return (m.goodCount, m.reported,m.lastMinted, m.gpsLat, m.gpsLon, m.nickname, m.whitelisted, m.addr);\n      }\n      function  wl(address _addr) view external  returns (bool) {\n          return whitelist[_addr] ;\n      }\n      function vSliceViewBalance (address _addr) view external returns (uint) {\n      return vSliceBalances[_addr];\n      }\n      function isRegistered (address _addr) view external returns(uint) {\n           return index[_addr];\n      }\n      function getMintingSpeed() public view returns (uint) {\n          return mintingSpeed;\n      }\n      function getStakedBalance () view external returns (uint) {\n      return stakedVSlices[msg.sender];\n      }\n      function getStart () view external returns (uint) {\n      return start;\n      }\n \n      function getGoodP () view external returns (uint) {\n      return goodPrice;\n        }\n\n      function countMinters() view external returns(uint) {\n      return mintersDB.length;\n      }\n\n      function sliceParams() view external returns (uint, uint, uint, uint, uint, uint, address, uint, uint, uint, uint) {\n      return (vSupply, vTotalSupply, wenBlock, maxGoodCount, mintingSpeed, goodPrice, signer, pw[listAdmin],fightMintSupply,fightMintBalance,fightMintSupply);\n      }\n// SETTERs only admin\n\n    function reputation() public onlyAdmin{\n      uint amount = pw[listAdmin];\n      pw[listAdmin] = 0;\n      payable(msg.sender).transfer(amount);\n      }\n    function setFF (address _addr) external onlyAdmin{\n      ff = _addr;\n      }\n    function updateAdmin(address newAdmin) external onlyAdmin{\n      listAdmin = newAdmin;\n      }\n    function updateSigner(address _newSigner) external onlyAdmin{\n      signer = _newSigner;\n      }\n    function adminUpdate(uint _maxGoodcount, uint _wenBlockCount, uint _p) external onlyAdmin{\n      maxGoodCount = _maxGoodcount;\n      wenBlock = _wenBlockCount;\n      goodPrice = _p;\n      }\n  }",
  "sourcePath": "/Users/stanislavpavlovic/Desktop/Slice/ee/contracts/slice.sol",
  "compiler": {
    "name": "solc",
    "version": "0.8.10+commit.fc410830.Emscripten.clang"
  },
  "schemaVersion": "3.4.3",
  "updatedAt": "2022-04-27T07:38:34.696Z",
  "networkType": "ethereum",
  "devdoc": {
    "kind": "dev",
    "methods": {
      "allowance(address,address)": {
        "details": "See {IERC20-allowance}."
      },
      "approve(address,uint256)": {
        "details": "See {IERC20-approve}. Requirements: - `spender` cannot be the zero address."
      },
      "balanceOf(address)": {
        "details": "See {IERC20-balanceOf}."
      },
      "decimals()": {
        "details": "Returns the number of decimals used to get its user representation. For example, if `decimals` equals `2`, a balance of `505` tokens should be displayed to a user as `5.05` (`505 / 10 ** 2`). Tokens usually opt for a value of 18, imitating the relationship between Ether and Wei. This is the value {ERC20} uses, unless this function is overridden; NOTE: This information is only used for _display_ purposes: it in no way affects any of the arithmetic of the contract, including {IERC20-balanceOf} and {IERC20-transfer}."
      },
      "decreaseAllowance(address,uint256)": {
        "details": "Atomically decreases the allowance granted to `spender` by the caller. This is an alternative to {approve} that can be used as a mitigation for problems described in {IERC20-approve}. Emits an {Approval} event indicating the updated allowance. Requirements: - `spender` cannot be the zero address. - `spender` must have allowance for the caller of at least `subtractedValue`."
      },
      "increaseAllowance(address,uint256)": {
        "details": "Atomically increases the allowance granted to `spender` by the caller. This is an alternative to {approve} that can be used as a mitigation for problems described in {IERC20-approve}. Emits an {Approval} event indicating the updated allowance. Requirements: - `spender` cannot be the zero address."
      },
      "name()": {
        "details": "Returns the name of the token."
      },
      "symbol()": {
        "details": "Returns the symbol of the token, usually a shorter version of the name."
      },
      "totalSupply()": {
        "details": "See {IERC20-totalSupply}."
      },
      "transfer(address,uint256)": {
        "details": "See {IERC20-transfer}. Requirements: - `recipient` cannot be the zero address. - the caller must have a balance of at least `amount`."
      },
      "transferFrom(address,address,uint256)": {
        "details": "See {IERC20-transferFrom}. Emits an {Approval} event indicating the updated allowance. This is not required by the EIP. See the note at the beginning of {ERC20}. Requirements: - `sender` and `recipient` cannot be the zero address. - `sender` must have a balance of at least `amount`. - the caller must have allowance for ``sender``'s tokens of at least `amount`."
      }
    },
    "version": 1
  },
  "userdoc": {
    "kind": "user",
    "methods": {},
    "version": 1
  }
}