{
  "contractName": "slice",
  "abi": [
    {
      "inputs": [
        {
          "internalType": "string",
          "name": "name",
          "type": "string"
        },
        {
          "internalType": "string",
          "name": "symbol",
          "type": "string"
        }
      ],
      "stateMutability": "nonpayable",
      "type": "constructor"
    },
    {
      "inputs": [],
      "name": "NotEnoughEther",
      "type": "error"
    },
    {
      "anonymous": false,
      "inputs": [
        {
          "indexed": true,
          "internalType": "address",
          "name": "owner",
          "type": "address"
        },
        {
          "indexed": true,
          "internalType": "address",
          "name": "spender",
          "type": "address"
        },
        {
          "indexed": false,
          "internalType": "uint256",
          "name": "value",
          "type": "uint256"
        }
      ],
      "name": "Approval",
      "type": "event"
    },
    {
      "anonymous": false,
      "inputs": [
        {
          "indexed": false,
          "internalType": "uint256",
          "name": "date",
          "type": "uint256"
        },
        {
          "indexed": true,
          "internalType": "address",
          "name": "reporter",
          "type": "address"
        },
        {
          "indexed": true,
          "internalType": "address",
          "name": "reported",
          "type": "address"
        }
      ],
      "name": "BadActors",
      "type": "event"
    },
    {
      "anonymous": false,
      "inputs": [
        {
          "indexed": true,
          "internalType": "address",
          "name": "_from",
          "type": "address"
        },
        {
          "indexed": true,
          "internalType": "address",
          "name": "_to",
          "type": "address"
        },
        {
          "indexed": false,
          "internalType": "string",
          "name": "message",
          "type": "string"
        }
      ],
      "name": "Chat",
      "type": "event"
    },
    {
      "anonymous": false,
      "inputs": [
        {
          "indexed": false,
          "internalType": "uint256",
          "name": "date",
          "type": "uint256"
        },
        {
          "indexed": true,
          "internalType": "address",
          "name": "reporter",
          "type": "address"
        },
        {
          "indexed": true,
          "internalType": "address",
          "name": "reported",
          "type": "address"
        }
      ],
      "name": "GoodActors",
      "type": "event"
    },
    {
      "anonymous": false,
      "inputs": [
        {
          "indexed": false,
          "internalType": "uint256",
          "name": "date",
          "type": "uint256"
        },
        {
          "indexed": true,
          "internalType": "address",
          "name": "fightContract",
          "type": "address"
        }
      ],
      "name": "StakingVSlice",
      "type": "event"
    },
    {
      "anonymous": false,
      "inputs": [
        {
          "indexed": true,
          "internalType": "address",
          "name": "from",
          "type": "address"
        },
        {
          "indexed": true,
          "internalType": "address",
          "name": "to",
          "type": "address"
        },
        {
          "indexed": false,
          "internalType": "uint256",
          "name": "value",
          "type": "uint256"
        }
      ],
      "name": "Transfer",
      "type": "event"
    },
    {
      "anonymous": false,
      "inputs": [
        {
          "indexed": false,
          "internalType": "uint256",
          "name": "date",
          "type": "uint256"
        },
        {
          "indexed": true,
          "internalType": "address",
          "name": "fightContract",
          "type": "address"
        }
      ],
      "name": "UnStakingVSlice",
      "type": "event"
    },
    {
      "anonymous": false,
      "inputs": [
        {
          "indexed": false,
          "internalType": "address",
          "name": "minter",
          "type": "address"
        },
        {
          "indexed": false,
          "internalType": "string",
          "name": "Lat",
          "type": "string"
        },
        {
          "indexed": false,
          "internalType": "string",
          "name": "Lon",
          "type": "string"
        },
        {
          "indexed": false,
          "internalType": "string",
          "name": "Nick",
          "type": "string"
        }
      ],
      "name": "mintersFree",
      "type": "event"
    },
    {
      "anonymous": false,
      "inputs": [
        {
          "indexed": true,
          "internalType": "address",
          "name": "minter",
          "type": "address"
        },
        {
          "indexed": false,
          "internalType": "string",
          "name": "Lat",
          "type": "string"
        },
        {
          "indexed": false,
          "internalType": "string",
          "name": "Lon",
          "type": "string"
        },
        {
          "indexed": false,
          "internalType": "string",
          "name": "Nick",
          "type": "string"
        }
      ],
      "name": "newMinter",
      "type": "event"
    },
    {
      "inputs": [
        {
          "internalType": "address",
          "name": "owner",
          "type": "address"
        },
        {
          "internalType": "address",
          "name": "spender",
          "type": "address"
        }
      ],
      "name": "allowance",
      "outputs": [
        {
          "internalType": "uint256",
          "name": "",
          "type": "uint256"
        }
      ],
      "stateMutability": "view",
      "type": "function",
      "constant": true
    },
    {
      "inputs": [
        {
          "internalType": "address",
          "name": "spender",
          "type": "address"
        },
        {
          "internalType": "uint256",
          "name": "amount",
          "type": "uint256"
        }
      ],
      "name": "approve",
      "outputs": [
        {
          "internalType": "bool",
          "name": "",
          "type": "bool"
        }
      ],
      "stateMutability": "nonpayable",
      "type": "function"
    },
    {
      "inputs": [
        {
          "internalType": "address",
          "name": "account",
          "type": "address"
        }
      ],
      "name": "balanceOf",
      "outputs": [
        {
          "internalType": "uint256",
          "name": "",
          "type": "uint256"
        }
      ],
      "stateMutability": "view",
      "type": "function",
      "constant": true
    },
    {
      "inputs": [],
      "name": "decimals",
      "outputs": [
        {
          "internalType": "uint8",
          "name": "",
          "type": "uint8"
        }
      ],
      "stateMutability": "view",
      "type": "function",
      "constant": true
    },
    {
      "inputs": [
        {
          "internalType": "address",
          "name": "spender",
          "type": "address"
        },
        {
          "internalType": "uint256",
          "name": "subtractedValue",
          "type": "uint256"
        }
      ],
      "name": "decreaseAllowance",
      "outputs": [
        {
          "internalType": "bool",
          "name": "",
          "type": "bool"
        }
      ],
      "stateMutability": "nonpayable",
      "type": "function"
    },
    {
      "inputs": [
        {
          "internalType": "address",
          "name": "spender",
          "type": "address"
        },
        {
          "internalType": "uint256",
          "name": "addedValue",
          "type": "uint256"
        }
      ],
      "name": "increaseAllowance",
      "outputs": [
        {
          "internalType": "bool",
          "name": "",
          "type": "bool"
        }
      ],
      "stateMutability": "nonpayable",
      "type": "function"
    },
    {
      "inputs": [],
      "name": "name",
      "outputs": [
        {
          "internalType": "string",
          "name": "",
          "type": "string"
        }
      ],
      "stateMutability": "view",
      "type": "function",
      "constant": true
    },
    {
      "inputs": [],
      "name": "symbol",
      "outputs": [
        {
          "internalType": "string",
          "name": "",
          "type": "string"
        }
      ],
      "stateMutability": "view",
      "type": "function",
      "constant": true
    },
    {
      "inputs": [],
      "name": "totalSupply",
      "outputs": [
        {
          "internalType": "uint256",
          "name": "",
          "type": "uint256"
        }
      ],
      "stateMutability": "view",
      "type": "function",
      "constant": true
    },
    {
      "inputs": [
        {
          "internalType": "address",
          "name": "recipient",
          "type": "address"
        },
        {
          "internalType": "uint256",
          "name": "amount",
          "type": "uint256"
        }
      ],
      "name": "transfer",
      "outputs": [
        {
          "internalType": "bool",
          "name": "",
          "type": "bool"
        }
      ],
      "stateMutability": "nonpayable",
      "type": "function"
    },
    {
      "inputs": [
        {
          "internalType": "address",
          "name": "sender",
          "type": "address"
        },
        {
          "internalType": "address",
          "name": "recipient",
          "type": "address"
        },
        {
          "internalType": "uint256",
          "name": "amount",
          "type": "uint256"
        }
      ],
      "name": "transferFrom",
      "outputs": [
        {
          "internalType": "bool",
          "name": "",
          "type": "bool"
        }
      ],
      "stateMutability": "nonpayable",
      "type": "function"
    },
    {
      "inputs": [
        {
          "internalType": "address",
          "name": "_addr",
          "type": "address"
        }
      ],
      "name": "isRegistered",
      "outputs": [
        {
          "internalType": "uint256",
          "name": "",
          "type": "uint256"
        }
      ],
      "stateMutability": "view",
      "type": "function",
      "constant": true
    },
    {
      "inputs": [
        {
          "internalType": "address",
          "name": "_addr",
          "type": "address"
        }
      ],
      "name": "wl",
      "outputs": [
        {
          "internalType": "bool",
          "name": "",
          "type": "bool"
        }
      ],
      "stateMutability": "view",
      "type": "function",
      "constant": true
    },
    {
      "inputs": [
        {
          "internalType": "address",
          "name": "_addr",
          "type": "address"
        }
      ],
      "name": "reportBadActor",
      "outputs": [],
      "stateMutability": "nonpayable",
      "type": "function"
    },
    {
      "inputs": [
        {
          "internalType": "address",
          "name": "_addr",
          "type": "address"
        }
      ],
      "name": "reportGoodActor",
      "outputs": [],
      "stateMutability": "payable",
      "type": "function",
      "payable": true
    },
    {
      "inputs": [
        {
          "internalType": "string",
          "name": "_gpsLat",
          "type": "string"
        },
        {
          "internalType": "string",
          "name": "_gpsLon",
          "type": "string"
        },
        {
          "internalType": "string",
          "name": "_nickname",
          "type": "string"
        }
      ],
      "name": "AddToWhitelist",
      "outputs": [],
      "stateMutability": "nonpayable",
      "type": "function"
    },
    {
      "inputs": [
        {
          "internalType": "bytes",
          "name": "signature",
          "type": "bytes"
        },
        {
          "internalType": "string",
          "name": "_gpsLat",
          "type": "string"
        },
        {
          "internalType": "string",
          "name": "_gpsLon",
          "type": "string"
        },
        {
          "internalType": "string",
          "name": "_nickname",
          "type": "string"
        }
      ],
      "name": "addToWhitelist_a7I",
      "outputs": [],
      "stateMutability": "nonpayable",
      "type": "function"
    },
    {
      "inputs": [],
      "name": "SliceMinting",
      "outputs": [],
      "stateMutability": "nonpayable",
      "type": "function"
    },
    {
      "inputs": [],
      "name": "vSliceMinting_ExW",
      "outputs": [],
      "stateMutability": "nonpayable",
      "type": "function"
    },
    {
      "inputs": [
        {
          "internalType": "uint256",
          "name": "_amount",
          "type": "uint256"
        },
        {
          "internalType": "address",
          "name": "_addr",
          "type": "address"
        }
      ],
      "name": "stakeVSlice_h56",
      "outputs": [],
      "stateMutability": "nonpayable",
      "type": "function"
    },
    {
      "inputs": [
        {
          "internalType": "uint256",
          "name": "_amount",
          "type": "uint256"
        },
        {
          "internalType": "address",
          "name": "_addr",
          "type": "address"
        }
      ],
      "name": "unstakeVSlice_Hha",
      "outputs": [],
      "stateMutability": "nonpayable",
      "type": "function"
    },
    {
      "inputs": [
        {
          "internalType": "address",
          "name": "_owner",
          "type": "address"
        }
      ],
      "name": "getStakedByStaker",
      "outputs": [
        {
          "components": [
            {
              "internalType": "address",
              "name": "staker",
              "type": "address"
            },
            {
              "internalType": "address",
              "name": "fightContract",
              "type": "address"
            }
          ],
          "internalType": "struct slice.StakedContracts[]",
          "name": "",
          "type": "tuple[]"
        }
      ],
      "stateMutability": "view",
      "type": "function",
      "constant": true
    },
    {
      "inputs": [
        {
          "internalType": "address",
          "name": "_fight",
          "type": "address"
        }
      ],
      "name": "getStakedByFight",
      "outputs": [
        {
          "components": [
            {
              "internalType": "address",
              "name": "staker",
              "type": "address"
            },
            {
              "internalType": "address",
              "name": "fightContract",
              "type": "address"
            }
          ],
          "internalType": "struct slice.StakedContracts[]",
          "name": "",
          "type": "tuple[]"
        }
      ],
      "stateMutability": "view",
      "type": "function",
      "constant": true
    },
    {
      "inputs": [],
      "name": "getAllMinters",
      "outputs": [
        {
          "components": [
            {
              "internalType": "uint256",
              "name": "goodCount",
              "type": "uint256"
            },
            {
              "internalType": "uint256",
              "name": "reported",
              "type": "uint256"
            },
            {
              "internalType": "uint256",
              "name": "lastMinted",
              "type": "uint256"
            },
            {
              "internalType": "string",
              "name": "gpsLat",
              "type": "string"
            },
            {
              "internalType": "string",
              "name": "gpsLon",
              "type": "string"
            },
            {
              "internalType": "string",
              "name": "nickname",
              "type": "string"
            },
            {
              "internalType": "bool",
              "name": "whitelisted",
              "type": "bool"
            },
            {
              "internalType": "address",
              "name": "addr",
              "type": "address"
            }
          ],
          "internalType": "struct slice.Minters[]",
          "name": "",
          "type": "tuple[]"
        }
      ],
      "stateMutability": "view",
      "type": "function",
      "constant": true
    },
    {
      "inputs": [
        {
          "internalType": "address",
          "name": "_addr",
          "type": "address"
        }
      ],
      "name": "getUserFromBlackList",
      "outputs": [
        {
          "internalType": "bool",
          "name": "",
          "type": "bool"
        }
      ],
      "stateMutability": "view",
      "type": "function",
      "constant": true
    },
    {
      "inputs": [
        {
          "internalType": "address",
          "name": "_addr",
          "type": "address"
        }
      ],
      "name": "getMinter",
      "outputs": [
        {
          "internalType": "uint256",
          "name": "",
          "type": "uint256"
        },
        {
          "internalType": "uint256",
          "name": "",
          "type": "uint256"
        },
        {
          "internalType": "uint256",
          "name": "",
          "type": "uint256"
        },
        {
          "internalType": "string",
          "name": "",
          "type": "string"
        },
        {
          "internalType": "string",
          "name": "",
          "type": "string"
        },
        {
          "internalType": "string",
          "name": "",
          "type": "string"
        },
        {
          "internalType": "bool",
          "name": "",
          "type": "bool"
        },
        {
          "internalType": "address",
          "name": "",
          "type": "address"
        }
      ],
      "stateMutability": "view",
      "type": "function",
      "constant": true
    },
    {
      "inputs": [],
      "name": "getMintingSpeed",
      "outputs": [
        {
          "internalType": "uint256",
          "name": "",
          "type": "uint256"
        }
      ],
      "stateMutability": "view",
      "type": "function",
      "constant": true
    },
    {
      "inputs": [
        {
          "internalType": "address",
          "name": "newAdmin",
          "type": "address"
        }
      ],
      "name": "updateAdmin",
      "outputs": [],
      "stateMutability": "nonpayable",
      "type": "function"
    },
    {
      "inputs": [
        {
          "internalType": "address",
          "name": "_newSigner",
          "type": "address"
        }
      ],
      "name": "updateSigner",
      "outputs": [],
      "stateMutability": "nonpayable",
      "type": "function"
    },
    {
      "inputs": [
        {
          "internalType": "address",
          "name": "_addr",
          "type": "address"
        }
      ],
      "name": "addToBlacklist",
      "outputs": [],
      "stateMutability": "nonpayable",
      "type": "function"
    },
    {
      "inputs": [
        {
          "internalType": "address",
          "name": "_addr",
          "type": "address"
        }
      ],
      "name": "removeFromBlacklist",
      "outputs": [],
      "stateMutability": "nonpayable",
      "type": "function"
    },
    {
      "inputs": [
        {
          "internalType": "address",
          "name": "_addr",
          "type": "address"
        }
      ],
      "name": "vSliceViewBalance",
      "outputs": [
        {
          "internalType": "uint256",
          "name": "",
          "type": "uint256"
        }
      ],
      "stateMutability": "view",
      "type": "function",
      "constant": true
    },
    {
      "inputs": [],
      "name": "getStakedBalance",
      "outputs": [
        {
          "internalType": "uint256",
          "name": "",
          "type": "uint256"
        }
      ],
      "stateMutability": "view",
      "type": "function",
      "constant": true
    },
    {
      "inputs": [],
      "name": "getStart",
      "outputs": [
        {
          "internalType": "uint256",
          "name": "",
          "type": "uint256"
        }
      ],
      "stateMutability": "view",
      "type": "function",
      "constant": true
    },
    {
      "inputs": [
        {
          "internalType": "uint256",
          "name": "_speed",
          "type": "uint256"
        }
      ],
      "name": "setMintSpeed",
      "outputs": [],
      "stateMutability": "nonpayable",
      "type": "function"
    },
    {
      "inputs": [
        {
          "internalType": "uint256",
          "name": "_p",
          "type": "uint256"
        }
      ],
      "name": "setGoodP",
      "outputs": [],
      "stateMutability": "nonpayable",
      "type": "function"
    },
    {
      "inputs": [],
      "name": "getGoodP",
      "outputs": [
        {
          "internalType": "uint256",
          "name": "",
          "type": "uint256"
        }
      ],
      "stateMutability": "view",
      "type": "function",
      "constant": true
    },
    {
      "inputs": [
        {
          "internalType": "uint256",
          "name": "_count",
          "type": "uint256"
        }
      ],
      "name": "updateWenBlock",
      "outputs": [],
      "stateMutability": "nonpayable",
      "type": "function"
    },
    {
      "inputs": [],
      "name": "countMinters",
      "outputs": [
        {
          "internalType": "uint256",
          "name": "",
          "type": "uint256"
        }
      ],
      "stateMutability": "view",
      "type": "function",
      "constant": true
    },
    {
      "inputs": [
        {
          "internalType": "uint256",
          "name": "_count",
          "type": "uint256"
        }
      ],
      "name": "updateMaxGoodCount",
      "outputs": [],
      "stateMutability": "nonpayable",
      "type": "function"
    },
    {
      "inputs": [],
      "name": "sliceParams",
      "outputs": [
        {
          "internalType": "uint256",
          "name": "",
          "type": "uint256"
        },
        {
          "internalType": "uint256",
          "name": "",
          "type": "uint256"
        },
        {
          "internalType": "uint256",
          "name": "",
          "type": "uint256"
        },
        {
          "internalType": "uint256",
          "name": "",
          "type": "uint256"
        },
        {
          "internalType": "uint256",
          "name": "",
          "type": "uint256"
        },
        {
          "internalType": "uint256",
          "name": "",
          "type": "uint256"
        }
      ],
      "stateMutability": "view",
      "type": "function",
      "constant": true
    },
    {
      "inputs": [
        {
          "internalType": "address",
          "name": "_can",
          "type": "address"
        }
      ],
      "name": "canChallenge",
      "outputs": [
        {
          "internalType": "bool",
          "name": "",
          "type": "bool"
        }
      ],
      "stateMutability": "view",
      "type": "function",
      "constant": true
    },
    {
      "inputs": [
        {
          "internalType": "address",
          "name": "_to",
          "type": "address"
        },
        {
          "internalType": "string",
          "name": "message",
          "type": "string"
        }
      ],
      "name": "sendMessage",
      "outputs": [],
      "stateMutability": "nonpayable",
      "type": "function"
    }
  ],
  "bytecode": "0x60806040523480156200001157600080fd5b5060405162006626380380620066268339818101604052810190620000379190620003c4565b818181600390805190602001906200005192919062000177565b5080600490805190602001906200006a92919062000177565b50505042600581905550620000846200016e60201b60201c565b60ff16600a620000959190620005d6565b6161a8620000a4919062000627565b60068190555033600860006101000a81548173ffffffffffffffffffffffffffffffffffffffff021916908373ffffffffffffffffffffffffffffffffffffffff160217905550734558f02c565c813b58364759f84c728cd7d7f26f600960006101000a81548173ffffffffffffffffffffffffffffffffffffffff021916908373ffffffffffffffffffffffffffffffffffffffff1602179055506002600a819055506001600b81905550603c600c8190555066038d7ea4c68000600d819055505050620006ed565b60006012905090565b8280546200018590620006b7565b90600052602060002090601f016020900481019282620001a95760008555620001f5565b82601f10620001c457805160ff1916838001178555620001f5565b82800160010185558215620001f5579182015b82811115620001f4578251825591602001919060010190620001d7565b5b50905062000204919062000208565b5090565b5b808211156200022357600081600090555060010162000209565b5090565b6000604051905090565b600080fd5b600080fd5b600080fd5b600080fd5b6000601f19601f8301169050919050565b7f4e487b7100000000000000000000000000000000000000000000000000000000600052604160045260246000fd5b620002908262000245565b810181811067ffffffffffffffff82111715620002b257620002b162000256565b5b80604052505050565b6000620002c762000227565b9050620002d5828262000285565b919050565b600067ffffffffffffffff821115620002f857620002f762000256565b5b620003038262000245565b9050602081019050919050565b60005b838110156200033057808201518184015260208101905062000313565b8381111562000340576000848401525b50505050565b60006200035d6200035784620002da565b620002bb565b9050828152602081018484840111156200037c576200037b62000240565b5b6200038984828562000310565b509392505050565b600082601f830112620003a957620003a86200023b565b5b8151620003bb84826020860162000346565b91505092915050565b60008060408385031215620003de57620003dd62000231565b5b600083015167ffffffffffffffff811115620003ff57620003fe62000236565b5b6200040d8582860162000391565b925050602083015167ffffffffffffffff81111562000431576200043062000236565b5b6200043f8582860162000391565b9150509250929050565b7f4e487b7100000000000000000000000000000000000000000000000000000000600052601160045260246000fd5b60008160011c9050919050565b6000808291508390505b6001851115620004d757808604811115620004af57620004ae62000449565b5b6001851615620004bf5780820291505b8081029050620004cf8562000478565b94506200048f565b94509492505050565b600082620004f25760019050620005c5565b81620005025760009050620005c5565b81600181146200051b576002811462000526576200055c565b6001915050620005c5565b60ff8411156200053b576200053a62000449565b5b8360020a91508482111562000555576200055462000449565b5b50620005c5565b5060208310610133831016604e8410600b8410161715620005965782820a90508381111562000590576200058f62000449565b5b620005c5565b620005a5848484600162000485565b92509050818404811115620005bf57620005be62000449565b5b81810290505b9392505050565b6000819050919050565b6000620005e382620005cc565b9150620005f083620005cc565b92506200061f7fffffffffffffffffffffffffffffffffffffffffffffffffffffffffffffffff8484620004e0565b905092915050565b60006200063482620005cc565b91506200064183620005cc565b9250817fffffffffffffffffffffffffffffffffffffffffffffffffffffffffffffffff04831182151516156200067d576200067c62000449565b5b828202905092915050565b7f4e487b7100000000000000000000000000000000000000000000000000000000600052602260045260246000fd5b60006002820490506001821680620006d057607f821691505b60208210811415620006e757620006e662000688565b5b50919050565b615f2980620006fd6000396000f3fe60806040526004361061025a5760003560e01c8063a457c2d711610144578063ca6ad40c116100b6578063ddc14afe1161007a578063ddc14afe14610953578063de6f24bb1461097e578063e2f273bd146109a7578063e3917cfc146109d0578063f10249b314610a0d578063f200b1b414610a365761025a565b8063ca6ad40c14610870578063d4f4648f1461089b578063d517c931146108c4578063d5c0f1fb146108ed578063dd62ed3e146109165761025a565b8063bc73b64111610108578063bc73b64114610735578063c1354b5a14610779578063c27bd3ee146107a2578063c3c5a547146107cb578063c5292c6714610808578063c5531e0a146108335761025a565b8063a457c2d71461065f578063a7ecd37e1461069c578063a9059cbb146106c5578063b109813714610702578063b14cc0e01461071e5761025a565b806344337ea1116101dd57806372a1d464116101a157806372a1d4641461053b57806376965867146105785780638891b29e146105a357806395d89b41146105e0578063a045442c1461060b578063a412a69e146106365761025a565b806344337ea114610453578063537df3b61461047c5780635fbb7093146104a557806361d42f6b146104d557806370a08231146104fe5761025a565b806326c95e0a1161022457806326c95e0a146103465780632fee9e7e14610371578063313ce567146103ae57806335703a3a146103d957806339509351146104165761025a565b8061d5981461025f57806306fdde0314610276578063095ea7b3146102a157806318160ddd146102de57806323b872dd14610309575b600080fd5b34801561026b57600080fd5b50610274610a5f565b005b34801561028257600080fd5b5061028b610cbf565b60405161029891906144c7565b60405180910390f35b3480156102ad57600080fd5b506102c860048036038101906102c39190614591565b610d51565b6040516102d591906145ec565b60405180910390f35b3480156102ea57600080fd5b506102f3610d6f565b6040516103009190614616565b60405180910390f35b34801561031557600080fd5b50610330600480360381019061032b9190614631565b610d79565b60405161033d91906145ec565b60405180910390f35b34801561035257600080fd5b5061035b610e71565b6040516103689190614616565b60405180910390f35b34801561037d57600080fd5b5061039860048036038101906103939190614684565b610e7b565b6040516103a591906145ec565b60405180910390f35b3480156103ba57600080fd5b506103c3610ed1565b6040516103d091906146cd565b60405180910390f35b3480156103e557600080fd5b5061040060048036038101906103fb9190614684565b610eda565b60405161040d9190614616565b60405180910390f35b34801561042257600080fd5b5061043d60048036038101906104389190614591565b610f2b565b60405161044a91906145ec565b60405180910390f35b34801561045f57600080fd5b5061047a60048036038101906104759190614684565b610fd7565b005b34801561048857600080fd5b506104a3600480360381019061049e9190614684565b6110c2565b005b3480156104b157600080fd5b506104ba6111ad565b6040516104cc969594939291906146e8565b60405180910390f35b3480156104e157600080fd5b506104fc60048036038101906104f79190614749565b6111dc565b005b34801561050a57600080fd5b5061052560048036038101906105209190614684565b611364565b6040516105329190614616565b60405180910390f35b34801561054757600080fd5b50610562600480360381019061055d9190614684565b6113ac565b60405161056f91906145ec565b60405180910390f35b34801561058457600080fd5b5061058d611490565b60405161059a9190614616565b60405180910390f35b3480156105af57600080fd5b506105ca60048036038101906105c59190614684565b6114d7565b6040516105d79190614876565b60405180910390f35b3480156105ec57600080fd5b506105f56116f2565b60405161060291906144c7565b60405180910390f35b34801561061757600080fd5b50610620611784565b60405161062d9190614a80565b60405180910390f35b34801561064257600080fd5b5061065d60048036038101906106589190614c37565b611aa5565b005b34801561066b57600080fd5b5061068660048036038101906106819190614591565b611e9d565b60405161069391906145ec565b60405180910390f35b3480156106a857600080fd5b506106c360048036038101906106be9190614684565b611f88565b005b3480156106d157600080fd5b506106ec60048036038101906106e79190614591565b61205c565b6040516106f991906145ec565b60405180910390f35b61071c60048036038101906107179190614684565b61207a565b005b34801561072a57600080fd5b506107336125c3565b005b34801561074157600080fd5b5061075c60048036038101906107579190614684565b6126a8565b604051610770989796959493929190614d22565b60405180910390f35b34801561078557600080fd5b506107a0600480360381019061079b9190614db5565b612932565b005b3480156107ae57600080fd5b506107c960048036038101906107c49190614e5c565b612c49565b005b3480156107d757600080fd5b506107f260048036038101906107ed9190614684565b612ce3565b6040516107ff9190614616565b60405180910390f35b34801561081457600080fd5b5061081d612d2c565b60405161082a9190614616565b60405180910390f35b34801561083f57600080fd5b5061085a60048036038101906108559190614684565b612d36565b60405161086791906145ec565b60405180910390f35b34801561087c57600080fd5b50610885612d8c565b6040516108929190614616565b60405180910390f35b3480156108a757600080fd5b506108c260048036038101906108bd9190614749565b612d99565b005b3480156108d057600080fd5b506108eb60048036038101906108e69190614e5c565b6131aa565b005b3480156108f957600080fd5b50610914600480360381019061090f9190614684565b613244565b005b34801561092257600080fd5b5061093d60048036038101906109389190614e89565b6135be565b60405161094a9190614616565b60405180910390f35b34801561095f57600080fd5b50610968613645565b6040516109759190614616565b60405180910390f35b34801561098a57600080fd5b506109a560048036038101906109a09190614f1f565b61364f565b005b3480156109b357600080fd5b506109ce60048036038101906109c99190614684565b6136bb565b005b3480156109dc57600080fd5b506109f760048036038101906109f29190614684565b61378f565b604051610a049190614876565b60405180910390f35b348015610a1957600080fd5b50610a346004803603810190610a2f9190614e5c565b6139e4565b005b348015610a4257600080fd5b50610a5d6004803603810190610a589190614e5c565b613a7e565b005b610a67613b18565b6006546007541115610aae576040517f08c379a0000000000000000000000000000000000000000000000000000000008152600401610aa590614fa5565b60405180910390fd5b6000601060003373ffffffffffffffffffffffffffffffffffffffff1673ffffffffffffffffffffffffffffffffffffffff1681526020019081526020016000205490506000600e8281548110610b0857610b07614fc5565b5b90600052602060002090600702019050600080600083600201541415610bf057610b30610ed1565b60ff16600a610b3f9190615156565b60055442610b4d91906151a1565b610b5791906151d5565b9150600c5482610b67919061525e565b601360003373ffffffffffffffffffffffffffffffffffffffff1673ffffffffffffffffffffffffffffffffffffffff1681526020019081526020016000206000828254610bb5919061528f565b92505081905550428360020181905550600c5482610bd3919061525e565b60076000828254610be4919061528f565b92505081905550610cb9565b826002015442610c0091906151a1565b9050610c0a610ed1565b60ff16600a610c199190615156565b81610c2491906151d5565b9150600c5482610c34919061525e565b601360003373ffffffffffffffffffffffffffffffffffffffff1673ffffffffffffffffffffffffffffffffffffffff1681526020019081526020016000206000828254610c82919061528f565b92505081905550428360020181905550600c5482610ca0919061525e565b60076000828254610cb1919061528f565b925050819055505b50505050565b606060038054610cce90615314565b80601f0160208091040260200160405190810160405280929190818152602001828054610cfa90615314565b8015610d475780601f10610d1c57610100808354040283529160200191610d47565b820191906000526020600020905b815481529060010190602001808311610d2a57829003601f168201915b5050505050905090565b6000610d65610d5e613bad565b8484613bb5565b6001905092915050565b6000600254905090565b6000610d86848484613d80565b6000600160008673ffffffffffffffffffffffffffffffffffffffff1673ffffffffffffffffffffffffffffffffffffffff1681526020019081526020016000206000610dd1613bad565b73ffffffffffffffffffffffffffffffffffffffff1673ffffffffffffffffffffffffffffffffffffffff16815260200190815260200160002054905082811015610e51576040517f08c379a0000000000000000000000000000000000000000000000000000000008152600401610e48906153b8565b60405180910390fd5b610e6585610e5d613bad565b858403613bb5565b60019150509392505050565b6000600d54905090565b6000601660008373ffffffffffffffffffffffffffffffffffffffff1673ffffffffffffffffffffffffffffffffffffffff16815260200190815260200160002060009054906101000a900460ff169050919050565b60006012905090565b6000610ee4614001565b601360008373ffffffffffffffffffffffffffffffffffffffff1673ffffffffffffffffffffffffffffffffffffffff168152602001908152602001600020549050919050565b6000610fcd610f38613bad565b848460016000610f46613bad565b73ffffffffffffffffffffffffffffffffffffffff1673ffffffffffffffffffffffffffffffffffffffff16815260200190815260200160002060008873ffffffffffffffffffffffffffffffffffffffff1673ffffffffffffffffffffffffffffffffffffffff16815260200190815260200160002054610fc8919061528f565b613bb5565b6001905092915050565b600860009054906101000a900473ffffffffffffffffffffffffffffffffffffffff1673ffffffffffffffffffffffffffffffffffffffff163373ffffffffffffffffffffffffffffffffffffffff1614611067576040517f08c379a000000000000000000000000000000000000000000000000000000000815260040161105e90614fa5565b60405180910390fd5b6001601560008373ffffffffffffffffffffffffffffffffffffffff1673ffffffffffffffffffffffffffffffffffffffff16815260200190815260200160002060006101000a81548160ff02191690831515021790555050565b600860009054906101000a900473ffffffffffffffffffffffffffffffffffffffff1673ffffffffffffffffffffffffffffffffffffffff163373ffffffffffffffffffffffffffffffffffffffff1614611152576040517f08c379a000000000000000000000000000000000000000000000000000000000815260040161114990614fa5565b60405180910390fd5b6000601560008373ffffffffffffffffffffffffffffffffffffffff1673ffffffffffffffffffffffffffffffffffffffff16815260200190815260200160002060006101000a81548160ff02191690831515021790555050565b600080600080600080600754600654600a54600b54600c54600d54955095509550955095509550909192939495565b6111e4614001565b81601460008373ffffffffffffffffffffffffffffffffffffffff1673ffffffffffffffffffffffffffffffffffffffff168152602001908152602001600020541015611266576040517f08c379a000000000000000000000000000000000000000000000000000000000815260040161125d90615424565b60405180910390fd5b81601460008373ffffffffffffffffffffffffffffffffffffffff1673ffffffffffffffffffffffffffffffffffffffff16815260200190815260200160002060008282546112b591906151a1565b9250508190555081601360008373ffffffffffffffffffffffffffffffffffffffff1673ffffffffffffffffffffffffffffffffffffffff168152602001908152602001600020600082825461130b919061528f565b925050819055503373ffffffffffffffffffffffffffffffffffffffff167f0534a5e6c740a43c594af3254234c61b275d2dd2ccb9ad1e196251ee6bf2b31f426040516113589190614616565b60405180910390a25050565b60008060008373ffffffffffffffffffffffffffffffffffffffff1673ffffffffffffffffffffffffffffffffffffffff168152602001908152602001600020549050919050565b60008173ffffffffffffffffffffffffffffffffffffffff16601760003373ffffffffffffffffffffffffffffffffffffffff1673ffffffffffffffffffffffffffffffffffffffff16815260200190815260200160002060008473ffffffffffffffffffffffffffffffffffffffff1673ffffffffffffffffffffffffffffffffffffffff16815260200190815260200160002060009054906101000a900473ffffffffffffffffffffffffffffffffffffffff1673ffffffffffffffffffffffffffffffffffffffff1614611486576001905061148b565b600090505b919050565b6000601460003373ffffffffffffffffffffffffffffffffffffffff1673ffffffffffffffffffffffffffffffffffffffff16815260200190815260200160002054905090565b60606114e1614001565b600060118054905067ffffffffffffffff81111561150257611501614b0c565b5b60405190808252806020026020018201604052801561153b57816020015b6115286142e8565b8152602001906001900390816115205790505b5090506000805b6011805490508110156116e7578473ffffffffffffffffffffffffffffffffffffffff166011828154811061157a57611579614fc5565b5b906000526020600020906002020160010160009054906101000a900473ffffffffffffffffffffffffffffffffffffffff1673ffffffffffffffffffffffffffffffffffffffff1614156116d4576000601182815481106115de576115dd614fc5565b5b90600052602060002090600202019050806040518060400160405290816000820160009054906101000a900473ffffffffffffffffffffffffffffffffffffffff1673ffffffffffffffffffffffffffffffffffffffff1673ffffffffffffffffffffffffffffffffffffffff1681526020016001820160009054906101000a900473ffffffffffffffffffffffffffffffffffffffff1673ffffffffffffffffffffffffffffffffffffffff1673ffffffffffffffffffffffffffffffffffffffff16815250508484815181106116b9576116b8614fc5565b5b602002602001018190525082806116cf90615444565b935050505b80806116df90615444565b915050611542565b508192505050919050565b60606004805461170190615314565b80601f016020809104026020016040519081016040528092919081815260200182805461172d90615314565b801561177a5780601f1061174f5761010080835404028352916020019161177a565b820191906000526020600020905b81548152906001019060200180831161175d57829003601f168201915b5050505050905090565b60606000600e8054905067ffffffffffffffff8111156117a7576117a6614b0c565b5b6040519080825280602002602001820160405280156117e057816020015b6117cd61432e565b8152602001906001900390816117c55790505b50905060005b600e80549050811015611a9d576000600e828154811061180957611808614fc5565b5b90600052602060002090600702019050806040518061010001604052908160008201548152602001600182015481526020016002820154815260200160038201805461185490615314565b80601f016020809104026020016040519081016040528092919081815260200182805461188090615314565b80156118cd5780601f106118a2576101008083540402835291602001916118cd565b820191906000526020600020905b8154815290600101906020018083116118b057829003601f168201915b505050505081526020016004820180546118e690615314565b80601f016020809104026020016040519081016040528092919081815260200182805461191290615314565b801561195f5780601f106119345761010080835404028352916020019161195f565b820191906000526020600020905b81548152906001019060200180831161194257829003601f168201915b5050505050815260200160058201805461197890615314565b80601f01602080910402602001604051908101604052809291908181526020018280546119a490615314565b80156119f15780601f106119c6576101008083540402835291602001916119f1565b820191906000526020600020905b8154815290600101906020018083116119d457829003601f168201915b505050505081526020016006820160009054906101000a900460ff161515151581526020016006820160019054906101000a900473ffffffffffffffffffffffffffffffffffffffff1673ffffffffffffffffffffffffffffffffffffffff1673ffffffffffffffffffffffffffffffffffffffff1681525050838381518110611a7e57611a7d614fc5565b5b6020026020010181905250508080611a9590615444565b9150506117e6565b508091505090565b6000611ad633604051602001611abb91906154d5565b60405160208183030381529060405280519060200120614096565b9050600960009054906101000a900473ffffffffffffffffffffffffffffffffffffffff1673ffffffffffffffffffffffffffffffffffffffff16611b5f8288888080601f016020809104026020016040519081016040528093929190818152602001838380828437600081840152601f19601f820116905080830192505050505050506140c6565b73ffffffffffffffffffffffffffffffffffffffff1614611bb5576040517f08c379a0000000000000000000000000000000000000000000000000000000008152600401611bac9061553c565b60405180910390fd5b6000601060003373ffffffffffffffffffffffffffffffffffffffff1673ffffffffffffffffffffffffffffffffffffffff1681526020019081526020016000205414611c37576040517f08c379a0000000000000000000000000000000000000000000000000000000008152600401611c2e906155a8565b60405180910390fd5b600e6040518061010001604052806000815260200160008152602001600081526020018681526020018581526020018481526020016001151581526020013373ffffffffffffffffffffffffffffffffffffffff1681525090806001815401808255809150506001900390600052602060002090600702016000909190919091506000820151816000015560208201518160010155604082015181600201556060820151816003019080519060200190611cf292919061438b565b506080820151816004019080519060200190611d0f92919061438b565b5060a0820151816005019080519060200190611d2c92919061438b565b5060c08201518160060160006101000a81548160ff02191690831515021790555060e08201518160060160016101000a81548173ffffffffffffffffffffffffffffffffffffffff021916908373ffffffffffffffffffffffffffffffffffffffff16021790555050506001600e80549050611da891906151a1565b601060003373ffffffffffffffffffffffffffffffffffffffff1673ffffffffffffffffffffffffffffffffffffffff168152602001908152602001600020819055506001601660003373ffffffffffffffffffffffffffffffffffffffff1673ffffffffffffffffffffffffffffffffffffffff16815260200190815260200160002060006101000a81548160ff0219169083151502179055503373ffffffffffffffffffffffffffffffffffffffff167fed6f15fd363599aba08600b57f61fe38bf31b2a0aedb668e294263fc9970c8ed858585604051611e8d939291906155c8565b60405180910390a2505050505050565b60008060016000611eac613bad565b73ffffffffffffffffffffffffffffffffffffffff1673ffffffffffffffffffffffffffffffffffffffff16815260200190815260200160002060008573ffffffffffffffffffffffffffffffffffffffff1673ffffffffffffffffffffffffffffffffffffffff16815260200190815260200160002054905082811015611f69576040517f08c379a0000000000000000000000000000000000000000000000000000000008152600401611f6090615686565b60405180910390fd5b611f7d611f74613bad565b85858403613bb5565b600191505092915050565b600860009054906101000a900473ffffffffffffffffffffffffffffffffffffffff1673ffffffffffffffffffffffffffffffffffffffff163373ffffffffffffffffffffffffffffffffffffffff1614612018576040517f08c379a000000000000000000000000000000000000000000000000000000000815260040161200f90614fa5565b60405180910390fd5b80600960006101000a81548173ffffffffffffffffffffffffffffffffffffffff021916908373ffffffffffffffffffffffffffffffffffffffff16021790555050565b6000612070612069613bad565b8484613d80565b6001905092915050565b612082613b18565b6000601060008373ffffffffffffffffffffffffffffffffffffffff1673ffffffffffffffffffffffffffffffffffffffff1681526020019081526020016000205490506000600e82815481106120dc576120db614fc5565b5b906000526020600020906007020190508273ffffffffffffffffffffffffffffffffffffffff163373ffffffffffffffffffffffffffffffffffffffff16141561215b576040517f08c379a0000000000000000000000000000000000000000000000000000000008152600401612152906156f2565b60405180910390fd5b8273ffffffffffffffffffffffffffffffffffffffff16601760003373ffffffffffffffffffffffffffffffffffffffff1673ffffffffffffffffffffffffffffffffffffffff16815260200190815260200160002060008573ffffffffffffffffffffffffffffffffffffffff1673ffffffffffffffffffffffffffffffffffffffff16815260200190815260200160002060009054906101000a900473ffffffffffffffffffffffffffffffffffffffff1673ffffffffffffffffffffffffffffffffffffffff161415612266576040517f08c379a000000000000000000000000000000000000000000000000000000000815260040161225d9061575e565b60405180910390fd5b600b54816000015411156122af576040517f08c379a00000000000000000000000000000000000000000000000000000000081526004016122a6906157ca565b60405180910390fd5b60008160010154116122f6576040517f08c379a00000000000000000000000000000000000000000000000000000000081526004016122ed90615836565b60405180910390fd5b600d543414612331576040517f8a0d377900000000000000000000000000000000000000000000000000000000815260040160405180910390fd5b600d5460196000600860009054906101000a900473ffffffffffffffffffffffffffffffffffffffff1673ffffffffffffffffffffffffffffffffffffffff1673ffffffffffffffffffffffffffffffffffffffff16815260200190815260200160002060008282546123a4919061528f565b9250508190555082601760003373ffffffffffffffffffffffffffffffffffffffff1673ffffffffffffffffffffffffffffffffffffffff16815260200190815260200160002060008573ffffffffffffffffffffffffffffffffffffffff1673ffffffffffffffffffffffffffffffffffffffff16815260200190815260200160002060006101000a81548173ffffffffffffffffffffffffffffffffffffffff021916908373ffffffffffffffffffffffffffffffffffffffff160217905550600181600101600082825461247b91906151a1565b925050819055506001816000016000828254612497919061528f565b92505081905550600a548160010154106124e35760008160060160009054906101000a900460ff169050808260060160006101000a81548160ff02191690831515021790555050612559565b60018160060160006101000a81548160ff0219169083151502179055506001601660003373ffffffffffffffffffffffffffffffffffffffff1673ffffffffffffffffffffffffffffffffffffffff16815260200190815260200160002060006101000a81548160ff0219169083151502179055505b8273ffffffffffffffffffffffffffffffffffffffff163373ffffffffffffffffffffffffffffffffffffffff167f11c9a04d40e079b6a6add720dd7c0a8ae1776acefdca6f37f4046c709a4dffcf426040516125b69190614616565b60405180910390a3505050565b6125cb613b18565b6006546007541015612612576040517f08c379a000000000000000000000000000000000000000000000000000000000815260040161260990614fa5565b60405180910390fd5b6000601360003373ffffffffffffffffffffffffffffffffffffffff1673ffffffffffffffffffffffffffffffffffffffff1681526020019081526020016000205490506000601360003373ffffffffffffffffffffffffffffffffffffffff1673ffffffffffffffffffffffffffffffffffffffff168152602001908152602001600020819055506126a5338261413b565b50565b600080600060608060606000806000601060008b73ffffffffffffffffffffffffffffffffffffffff1673ffffffffffffffffffffffffffffffffffffffff1681526020019081526020016000205490506000600e828154811061270f5761270e614fc5565b5b906000526020600020906007020190508060000154816001015482600201548360030184600401856005018660060160009054906101000a900460ff168760060160019054906101000a900473ffffffffffffffffffffffffffffffffffffffff1684805461277d90615314565b80601f01602080910402602001604051908101604052809291908181526020018280546127a990615314565b80156127f65780601f106127cb576101008083540402835291602001916127f6565b820191906000526020600020905b8154815290600101906020018083116127d957829003601f168201915b5050505050945083805461280990615314565b80601f016020809104026020016040519081016040528092919081815260200182805461283590615314565b80156128825780601f1061285757610100808354040283529160200191612882565b820191906000526020600020905b81548152906001019060200180831161286557829003601f168201915b5050505050935082805461289590615314565b80601f01602080910402602001604051908101604052809291908181526020018280546128c190615314565b801561290e5780601f106128e35761010080835404028352916020019161290e565b820191906000526020600020905b8154815290600101906020018083116128f157829003601f168201915b50505050509250995099509950995099509950995099505050919395975091939597565b6006546007541015612979576040517f08c379a0000000000000000000000000000000000000000000000000000000008152600401612970906158a2565b60405180910390fd5b6000601060003373ffffffffffffffffffffffffffffffffffffffff1673ffffffffffffffffffffffffffffffffffffffff16815260200190815260200160002054146129fb576040517f08c379a00000000000000000000000000000000000000000000000000000000081526004016129f2906158a2565b60405180910390fd5b600e6040518061010001604052806000815260200160008152602001600081526020018581526020018481526020018381526020016001151581526020013373ffffffffffffffffffffffffffffffffffffffff1681525090806001815401808255809150506001900390600052602060002090600702016000909190919091506000820151816000015560208201518160010155604082015181600201556060820151816003019080519060200190612ab692919061438b565b506080820151816004019080519060200190612ad392919061438b565b5060a0820151816005019080519060200190612af092919061438b565b5060c08201518160060160006101000a81548160ff02191690831515021790555060e08201518160060160016101000a81548173ffffffffffffffffffffffffffffffffffffffff021916908373ffffffffffffffffffffffffffffffffffffffff16021790555050506001600e80549050612b6c91906151a1565b601060003373ffffffffffffffffffffffffffffffffffffffff1673ffffffffffffffffffffffffffffffffffffffff168152602001908152602001600020819055506001601660003373ffffffffffffffffffffffffffffffffffffffff1673ffffffffffffffffffffffffffffffffffffffff16815260200190815260200160002060006101000a81548160ff0219169083151502179055507f07acefbc52945a41d46c17d9c5b0bdba3b6d33f6a99fe6d079ba42587b7d342333848484604051612c3c94939291906158c2565b60405180910390a1505050565b600860009054906101000a900473ffffffffffffffffffffffffffffffffffffffff1673ffffffffffffffffffffffffffffffffffffffff163373ffffffffffffffffffffffffffffffffffffffff1614612cd9576040517f08c379a0000000000000000000000000000000000000000000000000000000008152600401612cd090614fa5565b60405180910390fd5b80600b8190555050565b6000601060008373ffffffffffffffffffffffffffffffffffffffff1673ffffffffffffffffffffffffffffffffffffffff168152602001908152602001600020549050919050565b6000600554905090565b6000601560008373ffffffffffffffffffffffffffffffffffffffff1673ffffffffffffffffffffffffffffffffffffffff16815260200190815260200160002060009054906101000a900460ff169050919050565b6000600e80549050905090565b612da1614001565b81601360008373ffffffffffffffffffffffffffffffffffffffff1673ffffffffffffffffffffffffffffffffffffffff168152602001908152602001600020541015612e23576040517f08c379a0000000000000000000000000000000000000000000000000000000008152600401612e1a90615424565b60405180910390fd5b81601460008373ffffffffffffffffffffffffffffffffffffffff1673ffffffffffffffffffffffffffffffffffffffff1681526020019081526020016000206000828254612e72919061528f565b9250508190555081601360008373ffffffffffffffffffffffffffffffffffffffff1673ffffffffffffffffffffffffffffffffffffffff1681526020019081526020016000206000828254612ec891906151a1565b9250508190555060001515601860008373ffffffffffffffffffffffffffffffffffffffff1673ffffffffffffffffffffffffffffffffffffffff16815260200190815260200160002060003373ffffffffffffffffffffffffffffffffffffffff1673ffffffffffffffffffffffffffffffffffffffff16815260200190815260200160002060009054906101000a900460ff161515141561315257601160405180604001604052808373ffffffffffffffffffffffffffffffffffffffff1681526020013373ffffffffffffffffffffffffffffffffffffffff16815250908060018154018082558091505060019003906000526020600020906002020160009091909190915060008201518160000160006101000a81548173ffffffffffffffffffffffffffffffffffffffff021916908373ffffffffffffffffffffffffffffffffffffffff16021790555060208201518160010160006101000a81548173ffffffffffffffffffffffffffffffffffffffff021916908373ffffffffffffffffffffffffffffffffffffffff16021790555050506001601860008373ffffffffffffffffffffffffffffffffffffffff1673ffffffffffffffffffffffffffffffffffffffff16815260200190815260200160002060003373ffffffffffffffffffffffffffffffffffffffff1673ffffffffffffffffffffffffffffffffffffffff16815260200190815260200160002060006101000a81548160ff0219169083151502179055506001601260008373ffffffffffffffffffffffffffffffffffffffff1673ffffffffffffffffffffffffffffffffffffffff1681526020019081526020016000206000828254613146919061528f565b92505081905550613157565b6131a6565b3373ffffffffffffffffffffffffffffffffffffffff167f9581f922392409326ff9004e3a6a6719b1d61bf6eb13b84a8a5f7ecfd226d6d84260405161319d9190614616565b60405180910390a25b5050565b600860009054906101000a900473ffffffffffffffffffffffffffffffffffffffff1673ffffffffffffffffffffffffffffffffffffffff163373ffffffffffffffffffffffffffffffffffffffff161461323a576040517f08c379a000000000000000000000000000000000000000000000000000000000815260040161323190614fa5565b60405180910390fd5b80600a8190555050565b61324c613b18565b8073ffffffffffffffffffffffffffffffffffffffff16601760003373ffffffffffffffffffffffffffffffffffffffff1673ffffffffffffffffffffffffffffffffffffffff16815260200190815260200160002060008373ffffffffffffffffffffffffffffffffffffffff1673ffffffffffffffffffffffffffffffffffffffff16815260200190815260200160002060009054906101000a900473ffffffffffffffffffffffffffffffffffffffff1673ffffffffffffffffffffffffffffffffffffffff161415613357576040517f08c379a000000000000000000000000000000000000000000000000000000000815260040161334e90615968565b60405180910390fd5b80601760003373ffffffffffffffffffffffffffffffffffffffff1673ffffffffffffffffffffffffffffffffffffffff16815260200190815260200160002060008373ffffffffffffffffffffffffffffffffffffffff1673ffffffffffffffffffffffffffffffffffffffff16815260200190815260200160002060006101000a81548173ffffffffffffffffffffffffffffffffffffffff021916908373ffffffffffffffffffffffffffffffffffffffff1602179055506000601060008373ffffffffffffffffffffffffffffffffffffffff1673ffffffffffffffffffffffffffffffffffffffff1681526020019081526020016000205490506000600e828154811061346c5761346b614fc5565b5b906000526020600020906007020190506001816001016000828254613491919061528f565b92505081905550600a54816001015410156134de5760008160060160009054906101000a900460ff169050808260060160006101000a81548160ff02191690831515021790555050613554565b60008160060160006101000a81548160ff0219169083151502179055506000601660003373ffffffffffffffffffffffffffffffffffffffff1673ffffffffffffffffffffffffffffffffffffffff16815260200190815260200160002060006101000a81548160ff0219169083151502179055505b8273ffffffffffffffffffffffffffffffffffffffff163373ffffffffffffffffffffffffffffffffffffffff167f6ceca1a3cd7cb44311239fc385b20e17433d6483d6abe63fb5c51567edd4aa4a426040516135b19190614616565b60405180910390a3505050565b6000600160008473ffffffffffffffffffffffffffffffffffffffff1673ffffffffffffffffffffffffffffffffffffffff16815260200190815260200160002060008373ffffffffffffffffffffffffffffffffffffffff1673ffffffffffffffffffffffffffffffffffffffff16815260200190815260200160002054905092915050565b6000600c54905090565b8273ffffffffffffffffffffffffffffffffffffffff163373ffffffffffffffffffffffffffffffffffffffff167f30b70ac3fbb7579c74a917a29389560028fa9789f81f3540fd9da51e7f457d8b84846040516136ae9291906159b5565b60405180910390a3505050565b600860009054906101000a900473ffffffffffffffffffffffffffffffffffffffff1673ffffffffffffffffffffffffffffffffffffffff163373ffffffffffffffffffffffffffffffffffffffff161461374b576040517f08c379a000000000000000000000000000000000000000000000000000000000815260040161374290614fa5565b60405180910390fd5b80600860006101000a81548173ffffffffffffffffffffffffffffffffffffffff021916908373ffffffffffffffffffffffffffffffffffffffff16021790555050565b6060613799614001565b6000601260008473ffffffffffffffffffffffffffffffffffffffff1673ffffffffffffffffffffffffffffffffffffffff1681526020019081526020016000205467ffffffffffffffff8111156137f4576137f3614b0c565b5b60405190808252806020026020018201604052801561382d57816020015b61381a6142e8565b8152602001906001900390816138125790505b5090506000805b6011805490508110156139d9578473ffffffffffffffffffffffffffffffffffffffff166011828154811061386c5761386b614fc5565b5b906000526020600020906002020160000160009054906101000a900473ffffffffffffffffffffffffffffffffffffffff1673ffffffffffffffffffffffffffffffffffffffff1614156139c6576000601182815481106138d0576138cf614fc5565b5b90600052602060002090600202019050806040518060400160405290816000820160009054906101000a900473ffffffffffffffffffffffffffffffffffffffff1673ffffffffffffffffffffffffffffffffffffffff1673ffffffffffffffffffffffffffffffffffffffff1681526020016001820160009054906101000a900473ffffffffffffffffffffffffffffffffffffffff1673ffffffffffffffffffffffffffffffffffffffff1673ffffffffffffffffffffffffffffffffffffffff16815250508484815181106139ab576139aa614fc5565b5b602002602001018190525082806139c190615444565b935050505b80806139d190615444565b915050613834565b508192505050919050565b600860009054906101000a900473ffffffffffffffffffffffffffffffffffffffff1673ffffffffffffffffffffffffffffffffffffffff163373ffffffffffffffffffffffffffffffffffffffff1614613a74576040517f08c379a0000000000000000000000000000000000000000000000000000000008152600401613a6b90614fa5565b60405180910390fd5b80600d8190555050565b600860009054906101000a900473ffffffffffffffffffffffffffffffffffffffff1673ffffffffffffffffffffffffffffffffffffffff163373ffffffffffffffffffffffffffffffffffffffff1614613b0e576040517f08c379a0000000000000000000000000000000000000000000000000000000008152600401613b0590614fa5565b60405180910390fd5b80600c8190555050565b60011515601660003373ffffffffffffffffffffffffffffffffffffffff1673ffffffffffffffffffffffffffffffffffffffff16815260200190815260200160002060009054906101000a900460ff16151514613bab576040517f08c379a0000000000000000000000000000000000000000000000000000000008152600401613ba290615a25565b60405180910390fd5b565b600033905090565b600073ffffffffffffffffffffffffffffffffffffffff168373ffffffffffffffffffffffffffffffffffffffff161415613c25576040517f08c379a0000000000000000000000000000000000000000000000000000000008152600401613c1c90615ab7565b60405180910390fd5b600073ffffffffffffffffffffffffffffffffffffffff168273ffffffffffffffffffffffffffffffffffffffff161415613c95576040517f08c379a0000000000000000000000000000000000000000000000000000000008152600401613c8c90615b49565b60405180910390fd5b80600160008573ffffffffffffffffffffffffffffffffffffffff1673ffffffffffffffffffffffffffffffffffffffff16815260200190815260200160002060008473ffffffffffffffffffffffffffffffffffffffff1673ffffffffffffffffffffffffffffffffffffffff168152602001908152602001600020819055508173ffffffffffffffffffffffffffffffffffffffff168373ffffffffffffffffffffffffffffffffffffffff167f8c5be1e5ebec7d5bd14f71427d1e84f3dd0314c0f7b2291e5b200ac8c7c3b92583604051613d739190614616565b60405180910390a3505050565b600073ffffffffffffffffffffffffffffffffffffffff168373ffffffffffffffffffffffffffffffffffffffff161415613df0576040517f08c379a0000000000000000000000000000000000000000000000000000000008152600401613de790615bdb565b60405180910390fd5b600073ffffffffffffffffffffffffffffffffffffffff168273ffffffffffffffffffffffffffffffffffffffff161415613e60576040517f08c379a0000000000000000000000000000000000000000000000000000000008152600401613e5790615c6d565b60405180910390fd5b613e6b83838361429b565b60008060008573ffffffffffffffffffffffffffffffffffffffff1673ffffffffffffffffffffffffffffffffffffffff16815260200190815260200160002054905081811015613ef1576040517f08c379a0000000000000000000000000000000000000000000000000000000008152600401613ee890615cff565b60405180910390fd5b8181036000808673ffffffffffffffffffffffffffffffffffffffff1673ffffffffffffffffffffffffffffffffffffffff16815260200190815260200160002081905550816000808573ffffffffffffffffffffffffffffffffffffffff1673ffffffffffffffffffffffffffffffffffffffff1681526020019081526020016000206000828254613f84919061528f565b925050819055508273ffffffffffffffffffffffffffffffffffffffff168473ffffffffffffffffffffffffffffffffffffffff167fddf252ad1be2c89b69c2b068fc378daa952ba7f163c4a11628f55a4df523b3ef84604051613fe89190614616565b60405180910390a3613ffb8484846142a0565b50505050565b60001515601560003373ffffffffffffffffffffffffffffffffffffffff1673ffffffffffffffffffffffffffffffffffffffff16815260200190815260200160002060009054906101000a900460ff16151514614094576040517f08c379a000000000000000000000000000000000000000000000000000000000815260040161408b90615d6b565b60405180910390fd5b565b6000816040516020016140a99190615e0d565b604051602081830303815290604052805190602001209050919050565b6000806000806140d5856142a5565b809350819450829550505050600186848484604051600081526020016040526040516141049493929190615e42565b6020604051602081039080840390855afa158015614126573d6000803e3d6000fd5b50505060206040510351935050505092915050565b600073ffffffffffffffffffffffffffffffffffffffff168273ffffffffffffffffffffffffffffffffffffffff1614156141ab576040517f08c379a00000000000000000000000000000000000000000000000000000000081526004016141a290615ed3565b60405180910390fd5b6141b76000838361429b565b80600260008282546141c9919061528f565b92505081905550806000808473ffffffffffffffffffffffffffffffffffffffff1673ffffffffffffffffffffffffffffffffffffffff168152602001908152602001600020600082825461421e919061528f565b925050819055508173ffffffffffffffffffffffffffffffffffffffff16600073ffffffffffffffffffffffffffffffffffffffff167fddf252ad1be2c89b69c2b068fc378daa952ba7f163c4a11628f55a4df523b3ef836040516142839190614616565b60405180910390a3614297600083836142a0565b5050565b505050565b505050565b600080600060418451146142b857600080fd5b60008060006020870151925060408701519150606087015160001a90508083839550955095505050509193909250565b6040518060400160405280600073ffffffffffffffffffffffffffffffffffffffff168152602001600073ffffffffffffffffffffffffffffffffffffffff1681525090565b604051806101000160405280600081526020016000815260200160008152602001606081526020016060815260200160608152602001600015158152602001600073ffffffffffffffffffffffffffffffffffffffff1681525090565b82805461439790615314565b90600052602060002090601f0160209004810192826143b95760008555614400565b82601f106143d257805160ff1916838001178555614400565b82800160010185558215614400579182015b828111156143ff5782518255916020019190600101906143e4565b5b50905061440d9190614411565b5090565b5b8082111561442a576000816000905550600101614412565b5090565b600081519050919050565b600082825260208201905092915050565b60005b8381101561446857808201518184015260208101905061444d565b83811115614477576000848401525b50505050565b6000601f19601f8301169050919050565b60006144998261442e565b6144a38185614439565b93506144b381856020860161444a565b6144bc8161447d565b840191505092915050565b600060208201905081810360008301526144e1818461448e565b905092915050565b6000604051905090565b600080fd5b600080fd5b600073ffffffffffffffffffffffffffffffffffffffff82169050919050565b6000614528826144fd565b9050919050565b6145388161451d565b811461454357600080fd5b50565b6000813590506145558161452f565b92915050565b6000819050919050565b61456e8161455b565b811461457957600080fd5b50565b60008135905061458b81614565565b92915050565b600080604083850312156145a8576145a76144f3565b5b60006145b685828601614546565b92505060206145c78582860161457c565b9150509250929050565b60008115159050919050565b6145e6816145d1565b82525050565b600060208201905061460160008301846145dd565b92915050565b6146108161455b565b82525050565b600060208201905061462b6000830184614607565b92915050565b60008060006060848603121561464a576146496144f3565b5b600061465886828701614546565b935050602061466986828701614546565b925050604061467a8682870161457c565b9150509250925092565b60006020828403121561469a576146996144f3565b5b60006146a884828501614546565b91505092915050565b600060ff82169050919050565b6146c7816146b1565b82525050565b60006020820190506146e260008301846146be565b92915050565b600060c0820190506146fd6000830189614607565b61470a6020830188614607565b6147176040830187614607565b6147246060830186614607565b6147316080830185614607565b61473e60a0830184614607565b979650505050505050565b600080604083850312156147605761475f6144f3565b5b600061476e8582860161457c565b925050602061477f85828601614546565b9150509250929050565b600081519050919050565b600082825260208201905092915050565b6000819050602082019050919050565b6147be8161451d565b82525050565b6040820160008201516147da60008501826147b5565b5060208201516147ed60208501826147b5565b50505050565b60006147ff83836147c4565b60408301905092915050565b6000602082019050919050565b600061482382614789565b61482d8185614794565b9350614838836147a5565b8060005b8381101561486957815161485088826147f3565b975061485b8361480b565b92505060018101905061483c565b5085935050505092915050565b600060208201905081810360008301526148908184614818565b905092915050565b600081519050919050565b600082825260208201905092915050565b6000819050602082019050919050565b6148cd8161455b565b82525050565b600082825260208201905092915050565b60006148ef8261442e565b6148f981856148d3565b935061490981856020860161444a565b6149128161447d565b840191505092915050565b614926816145d1565b82525050565b60006101008301600083015161494560008601826148c4565b50602083015161495860208601826148c4565b50604083015161496b60408601826148c4565b506060830151848203606086015261498382826148e4565b9150506080830151848203608086015261499d82826148e4565b91505060a083015184820360a08601526149b782826148e4565b91505060c08301516149cc60c086018261491d565b5060e08301516149df60e08601826147b5565b508091505092915050565b60006149f6838361492c565b905092915050565b6000602082019050919050565b6000614a1682614898565b614a2081856148a3565b935083602082028501614a32856148b4565b8060005b85811015614a6e5784840389528151614a4f85826149ea565b9450614a5a836149fe565b925060208a01995050600181019050614a36565b50829750879550505050505092915050565b60006020820190508181036000830152614a9a8184614a0b565b905092915050565b600080fd5b600080fd5b600080fd5b60008083601f840112614ac757614ac6614aa2565b5b8235905067ffffffffffffffff811115614ae457614ae3614aa7565b5b602083019150836001820283011115614b0057614aff614aac565b5b9250929050565b600080fd5b7f4e487b7100000000000000000000000000000000000000000000000000000000600052604160045260246000fd5b614b448261447d565b810181811067ffffffffffffffff82111715614b6357614b62614b0c565b5b80604052505050565b6000614b766144e9565b9050614b828282614b3b565b919050565b600067ffffffffffffffff821115614ba257614ba1614b0c565b5b614bab8261447d565b9050602081019050919050565b82818337600083830152505050565b6000614bda614bd584614b87565b614b6c565b905082815260208101848484011115614bf657614bf5614b07565b5b614c01848285614bb8565b509392505050565b600082601f830112614c1e57614c1d614aa2565b5b8135614c2e848260208601614bc7565b91505092915050565b600080600080600060808688031215614c5357614c526144f3565b5b600086013567ffffffffffffffff811115614c7157614c706144f8565b5b614c7d88828901614ab1565b9550955050602086013567ffffffffffffffff811115614ca057614c9f6144f8565b5b614cac88828901614c09565b935050604086013567ffffffffffffffff811115614ccd57614ccc6144f8565b5b614cd988828901614c09565b925050606086013567ffffffffffffffff811115614cfa57614cf96144f8565b5b614d0688828901614c09565b9150509295509295909350565b614d1c8161451d565b82525050565b600061010082019050614d38600083018b614607565b614d45602083018a614607565b614d526040830189614607565b8181036060830152614d64818861448e565b90508181036080830152614d78818761448e565b905081810360a0830152614d8c818661448e565b9050614d9b60c08301856145dd565b614da860e0830184614d13565b9998505050505050505050565b600080600060608486031215614dce57614dcd6144f3565b5b600084013567ffffffffffffffff811115614dec57614deb6144f8565b5b614df886828701614c09565b935050602084013567ffffffffffffffff811115614e1957614e186144f8565b5b614e2586828701614c09565b925050604084013567ffffffffffffffff811115614e4657614e456144f8565b5b614e5286828701614c09565b9150509250925092565b600060208284031215614e7257614e716144f3565b5b6000614e808482850161457c565b91505092915050565b60008060408385031215614ea057614e9f6144f3565b5b6000614eae85828601614546565b9250506020614ebf85828601614546565b9150509250929050565b60008083601f840112614edf57614ede614aa2565b5b8235905067ffffffffffffffff811115614efc57614efb614aa7565b5b602083019150836001820283011115614f1857614f17614aac565b5b9250929050565b600080600060408486031215614f3857614f376144f3565b5b6000614f4686828701614546565b935050602084013567ffffffffffffffff811115614f6757614f666144f8565b5b614f7386828701614ec9565b92509250509250925092565b50565b6000614f8f600083614439565b9150614f9a82614f7f565b600082019050919050565b60006020820190508181036000830152614fbe81614f82565b9050919050565b7f4e487b7100000000000000000000000000000000000000000000000000000000600052603260045260246000fd5b7f4e487b7100000000000000000000000000000000000000000000000000000000600052601160045260246000fd5b60008160011c9050919050565b6000808291508390505b600185111561507a5780860481111561505657615055614ff4565b5b60018516156150655780820291505b808102905061507385615023565b945061503a565b94509492505050565b600082615093576001905061514f565b816150a1576000905061514f565b81600181146150b757600281146150c1576150f0565b600191505061514f565b60ff8411156150d3576150d2614ff4565b5b8360020a9150848211156150ea576150e9614ff4565b5b5061514f565b5060208310610133831016604e8410600b84101617156151255782820a9050838111156151205761511f614ff4565b5b61514f565b6151328484846001615030565b9250905081840481111561514957615148614ff4565b5b81810290505b9392505050565b60006151618261455b565b915061516c8361455b565b92506151997fffffffffffffffffffffffffffffffffffffffffffffffffffffffffffffffff8484615083565b905092915050565b60006151ac8261455b565b91506151b78361455b565b9250828210156151ca576151c9614ff4565b5b828203905092915050565b60006151e08261455b565b91506151eb8361455b565b9250817fffffffffffffffffffffffffffffffffffffffffffffffffffffffffffffffff048311821515161561522457615223614ff4565b5b828202905092915050565b7f4e487b7100000000000000000000000000000000000000000000000000000000600052601260045260246000fd5b60006152698261455b565b91506152748361455b565b9250826152845761528361522f565b5b828204905092915050565b600061529a8261455b565b91506152a58361455b565b9250827fffffffffffffffffffffffffffffffffffffffffffffffffffffffffffffffff038211156152da576152d9614ff4565b5b828201905092915050565b7f4e487b7100000000000000000000000000000000000000000000000000000000600052602260045260246000fd5b6000600282049050600182168061532c57607f821691505b602082108114156153405761533f6152e5565b5b50919050565b7f45524332303a207472616e7366657220616d6f756e742065786365656473206160008201527f6c6c6f77616e6365000000000000000000000000000000000000000000000000602082015250565b60006153a2602883614439565b91506153ad82615346565b604082019050919050565b600060208201905081810360008301526153d181615395565b9050919050565b7f326d756368000000000000000000000000000000000000000000000000000000600082015250565b600061540e600583614439565b9150615419826153d8565b602082019050919050565b6000602082019050818103600083015261543d81615401565b9050919050565b600061544f8261455b565b91507fffffffffffffffffffffffffffffffffffffffffffffffffffffffffffffffff82141561548257615481614ff4565b5b600182019050919050565b60008160601b9050919050565b60006154a58261548d565b9050919050565b60006154b78261549a565b9050919050565b6154cf6154ca8261451d565b6154ac565b82525050565b60006154e182846154be565b60148201915081905092915050565b7f4675636b206f666620726f626f74000000000000000000000000000000000000600082015250565b6000615526600e83614439565b9150615531826154f0565b602082019050919050565b6000602082019050818103600083015261555581615519565b9050919050565b7f416c726561647920657869737473000000000000000000000000000000000000600082015250565b6000615592600e83614439565b915061559d8261555c565b602082019050919050565b600060208201905081810360008301526155c181615585565b9050919050565b600060608201905081810360008301526155e2818661448e565b905081810360208301526155f6818561448e565b9050818103604083015261560a818461448e565b9050949350505050565b7f45524332303a2064656372656173656420616c6c6f77616e63652062656c6f7760008201527f207a65726f000000000000000000000000000000000000000000000000000000602082015250565b6000615670602583614439565b915061567b82615614565b604082019050919050565b6000602082019050818103600083015261569f81615663565b9050919050565b7f4e6f7420416c6c6f776564000000000000000000000000000000000000000000600082015250565b60006156dc600b83614439565b91506156e7826156a6565b602082019050919050565b6000602082019050818103600083015261570b816156cf565b9050919050565b7f416c726561647920646f6e650000000000000000000000000000000000000000600082015250565b6000615748600c83614439565b915061575382615712565b602082019050919050565b600060208201905081810360008301526157778161573b565b9050919050565b7f476f6f64436f756e742072656163686564206c696d6974000000000000000000600082015250565b60006157b4601783614439565b91506157bf8261577e565b602082019050919050565b600060208201905081810360008301526157e3816157a7565b9050919050565b7f4e6f74206e656564656400000000000000000000000000000000000000000000600082015250565b6000615820600a83614439565b915061582b826157ea565b602082019050919050565b6000602082019050818103600083015261584f81615813565b9050919050565b7f6e00000000000000000000000000000000000000000000000000000000000000600082015250565b600061588c600183614439565b915061589782615856565b602082019050919050565b600060208201905081810360008301526158bb8161587f565b9050919050565b60006080820190506158d76000830187614d13565b81810360208301526158e9818661448e565b905081810360408301526158fd818561448e565b90508181036060830152615911818461448e565b905095945050505050565b7f416c7265616479207265706f7274656400000000000000000000000000000000600082015250565b6000615952601083614439565b915061595d8261591c565b602082019050919050565b6000602082019050818103600083015261598181615945565b9050919050565b60006159948385614439565b93506159a1838584614bb8565b6159aa8361447d565b840190509392505050565b600060208201905081810360008301526159d0818486615988565b90509392505050565b7f626c000000000000000000000000000000000000000000000000000000000000600082015250565b6000615a0f600283614439565b9150615a1a826159d9565b602082019050919050565b60006020820190508181036000830152615a3e81615a02565b9050919050565b7f45524332303a20617070726f76652066726f6d20746865207a65726f2061646460008201527f7265737300000000000000000000000000000000000000000000000000000000602082015250565b6000615aa1602483614439565b9150615aac82615a45565b604082019050919050565b60006020820190508181036000830152615ad081615a94565b9050919050565b7f45524332303a20617070726f766520746f20746865207a65726f20616464726560008201527f7373000000000000000000000000000000000000000000000000000000000000602082015250565b6000615b33602283614439565b9150615b3e82615ad7565b604082019050919050565b60006020820190508181036000830152615b6281615b26565b9050919050565b7f45524332303a207472616e736665722066726f6d20746865207a65726f20616460008201527f6472657373000000000000000000000000000000000000000000000000000000602082015250565b6000615bc5602583614439565b9150615bd082615b69565b604082019050919050565b60006020820190508181036000830152615bf481615bb8565b9050919050565b7f45524332303a207472616e7366657220746f20746865207a65726f206164647260008201527f6573730000000000000000000000000000000000000000000000000000000000602082015250565b6000615c57602383614439565b9150615c6282615bfb565b604082019050919050565b60006020820190508181036000830152615c8681615c4a565b9050919050565b7f45524332303a207472616e7366657220616d6f756e742065786365656473206260008201527f616c616e63650000000000000000000000000000000000000000000000000000602082015250565b6000615ce9602683614439565b9150615cf482615c8d565b604082019050919050565b60006020820190508181036000830152615d1881615cdc565b9050919050565b7f6e6f74416c6c6f77656400000000000000000000000000000000000000000000600082015250565b6000615d55600a83614439565b9150615d6082615d1f565b602082019050919050565b60006020820190508181036000830152615d8481615d48565b9050919050565b600081905092915050565b7f19457468657265756d205369676e6564204d6573736167653a0a333200000000600082015250565b6000615dcc601c83615d8b565b9150615dd782615d96565b601c82019050919050565b6000819050919050565b6000819050919050565b615e07615e0282615de2565b615dec565b82525050565b6000615e1882615dbf565b9150615e248284615df6565b60208201915081905092915050565b615e3c81615de2565b82525050565b6000608082019050615e576000830187615e33565b615e6460208301866146be565b615e716040830185615e33565b615e7e6060830184615e33565b95945050505050565b7f45524332303a206d696e7420746f20746865207a65726f206164647265737300600082015250565b6000615ebd601f83614439565b9150615ec882615e87565b602082019050919050565b60006020820190508181036000830152615eec81615eb0565b905091905056fea26469706673582212202920194f464b06a267631d415c5cc3f16050c185b9c44e8b92ecada962aed9dd64736f6c634300080a0033",
  "immutableReferences": {},
  "source": "// SPDX-License-Identifier: MIT\npragma solidity 0.8.10;\n\nimport \"@openzeppelin/contracts/token/ERC20/ERC20.sol\";\n\ncontract slice is ERC20 {\n    \n    uint start;\n    uint vTotalSupply;\n    uint vSupply;\n    address listAdmin;\n    address signer;\n    uint wenBlock;\n    uint maxGoodCount;\n    uint mintingSpeed;\n    uint goodPrice;\n\n\n        function _a() private view {\n          require ((whitelist[msg.sender]==true), \"bl\");\n        }\n        modifier onlyWhitelisted() {\n          _a();\n          _;\n        }\n        function _b() private view {\n          require (\n            blacklist[msg.sender]==false,\n            \"notAllowed\"\n        );\n        }\n        modifier onlyNotBlacklisted() { \n          _b();\n          _;\n        }\n\n    constructor (string memory name, string memory symbol) ERC20(name, symbol) {\n       start = block.timestamp;\n       vTotalSupply = 25000 * 10 ** uint(decimals());\n       listAdmin = msg.sender;\n       signer = 0x4558f02c565C813b58364759F84C728cd7d7F26F;\n       wenBlock=2;\n       maxGoodCount=1;\n       mintingSpeed=60;\n       goodPrice=1000000000000000;\n    }\n\n    struct Minters {\n        uint goodCount;\n        uint reported;\n        uint lastMinted;\n        string gpsLat;\n        string gpsLon;\n        string nickname;\n        bool whitelisted;\n        address addr;\n    }\n    Minters[] mintersDB;\n    mapping(address => Minters) minters;\n    mapping(address => uint) index;\n    \n    struct StakedContracts {\n        address staker;\n        address fightContract;\n    }\n    StakedContracts []  stakersList;\n    \n    mapping (address=>uint )  stakedContractsCounter;\n    mapping (address => uint) vSliceBalances;\n    mapping (address => uint) stakedVSlices;\n    mapping (address => bool) blacklist;\n    mapping (address => bool) whitelist;\n    mapping (address => mapping(address=> address))  challengers;\n    mapping (address => mapping(address=> bool))  stakers;\n    mapping (address => uint) pw;\n    error NotEnoughEther();\n\n    function isRegistered (address _addr) view external returns(uint) {\n     return index[_addr];\n    }\n    function  wl(address _addr) view external  returns (bool) {\n     return whitelist[_addr] ;\n    }\n\n    event BadActors(uint date, address indexed reporter, address indexed reported);\n    function reportBadActor(address _addr) external onlyWhitelisted {\n    require (challengers[msg.sender][_addr] != _addr, \"Already reported\");\n    challengers[msg.sender][_addr] = _addr;\n    uint indx = index[_addr];\n    Minters storage m = mintersDB[indx];\n    m.reported += 1;\n    if (m.reported <wenBlock) \n         {bool existingStatus=m.whitelisted;\n          m.whitelisted=existingStatus;\n    }else {\n        m.whitelisted=false;\n        whitelist[msg.sender] = false;\n    }\n    emit BadActors (block.timestamp, msg.sender, _addr);\n    }\n    \n    event GoodActors(uint date, address indexed reporter, address indexed reported);\n    function reportGoodActor(address _addr) external payable onlyWhitelisted {\n    uint indx = index[_addr];\n    Minters storage m = mintersDB[indx];\n    require (msg.sender != _addr, \"Not Allowed\");\n    require (challengers[msg.sender][_addr] != _addr, \"Already done\");\n    require (m.goodCount<=maxGoodCount, 'GoodCount reached limit');\n    require (m.reported>0, \"Not needed\");\n    if (msg.value != goodPrice) revert NotEnoughEther();\n    pw[listAdmin]+= goodPrice;\n    challengers[msg.sender][_addr] = _addr;\n    m.reported -= 1;\n    m.goodCount+=1;\n    if (m.reported >=wenBlock)  \n         {bool existingStatus=m.whitelisted;\n          m.whitelisted=existingStatus;\n    }else {\n        m.whitelisted=true;\n        whitelist[msg.sender] = true;\n    } \n    emit GoodActors (block.timestamp, msg.sender, _addr);\n    }\n    \n    event mintersFree(address minter, string Lat, string Lon, string Nick);\n    function AddToWhitelist (string memory  _gpsLat,string memory  _gpsLon, string memory _nickname) external {\n    require(vSupply>= vTotalSupply, \"n\");\n    require(index[msg.sender]==0, \"n\");\n    mintersDB.push(Minters(0, 0, 0, _gpsLat, _gpsLon, _nickname, true, msg.sender));\n    index[msg.sender] = mintersDB.length-1;\n    whitelist[msg.sender] = true;\n    emit mintersFree(msg.sender,_gpsLat, _gpsLon, _nickname);\n  }\n         \n        \n    event newMinter(address indexed minter, string Lat, string Lon, string Nick);\n    function addToWhitelist_a7I(bytes calldata signature, string memory _gpsLat,string memory _gpsLon, string memory _nickname) external {\n    bytes32 message = prefixed(keccak256(abi.encodePacked(\n      msg.sender\n    )));\n    require(recoverSigner(message, signature) == signer , \"Fuck off robot\");\n    require(index[msg.sender]==0, \"Already exists\");\n    mintersDB.push(Minters(0, 0, 0, _gpsLat, _gpsLon, _nickname, true, msg.sender));\n    index[msg.sender] = mintersDB.length-1;\n    whitelist[msg.sender] = true;\n    emit newMinter(msg.sender,_gpsLat, _gpsLon, _nickname);\n  }\n\n  function prefixed(bytes32 hash) internal pure returns (bytes32) {\n    return keccak256(abi.encodePacked(\n      '\\x19Ethereum Signed Message:\\n32', \n      hash\n    ));\n  }\n\n  function recoverSigner(bytes32 message, bytes memory sig)\n    internal\n    pure\n    returns (address)\n  {\n    uint8 v;\n    bytes32 r;\n    bytes32 s;\n  \n    (v, r, s) = splitSignature(sig);\n  \n    return ecrecover(message, v, r, s);\n  }\n\n  function splitSignature(bytes memory sig)\n    internal\n    pure\n    returns (uint8, bytes32, bytes32)\n  {\n    require(sig.length == 65);\n  \n    bytes32 r;\n    bytes32 s;\n    uint8 v;\n  \n    assembly {\n        // first 32 bytes, after the length prefix\n        r := mload(add(sig, 32))\n        // second 32 bytes\n        s := mload(add(sig, 64))\n        // final byte (first byte of the next 32 bytes)\n        v := byte(0, mload(add(sig, 96)))\n    }\n  \n    return (v, r, s);\n  }\n\n    function SliceMinting() external onlyWhitelisted {\n        require(vSupply>=vTotalSupply, \"\");\n        uint amount = vSliceBalances[msg.sender];\n        vSliceBalances[msg.sender]=0;\n        _mint(msg.sender, amount);\n\n    }\n    \n\n    function vSliceMinting_ExW() external onlyWhitelisted {\n            require(vSupply<= vTotalSupply, \"\");\n            uint indx = index[msg.sender];\n            Minters storage m = mintersDB[indx];\n            uint mint;\n            uint diff;\n         if (m.lastMinted == 0) {\n            mint = (block.timestamp-start)* 10 ** uint(decimals());\n            vSliceBalances[msg.sender]+= mint/mintingSpeed;\n            m.lastMinted = block.timestamp;\n            vSupply+= mint/mintingSpeed;}\n         else {\n            diff = block.timestamp - m.lastMinted;\n            mint = diff* 10 ** uint(decimals());\n            vSliceBalances[msg.sender]+= mint/mintingSpeed;\n            m.lastMinted = block.timestamp;\n            vSupply+= mint/mintingSpeed;}\n\n    }\n    \n    event StakingVSlice (uint date, address indexed fightContract);\n    function stakeVSlice_h56(uint _amount, address _addr) external onlyNotBlacklisted{\n        require (vSliceBalances[_addr] >= _amount, \"2much\");\n        stakedVSlices[_addr] += _amount;\n        vSliceBalances[_addr] -= _amount;\n        if (stakers[_addr][msg.sender] == false) {\n            stakersList.push(StakedContracts(_addr, msg.sender));\n            stakers[_addr][msg.sender] = true;\n            stakedContractsCounter[_addr] += 1;\n        } else {return;}\n         emit StakingVSlice (block.timestamp, msg.sender);\n    }\n    event UnStakingVSlice (uint date, address indexed fightContract);\n    function unstakeVSlice_Hha(uint _amount, address _addr) external onlyNotBlacklisted {\n        require(stakedVSlices[_addr]>=_amount, \"2much\");\n        stakedVSlices[_addr] -= _amount;\n        vSliceBalances[_addr] += _amount;\n         emit UnStakingVSlice (block.timestamp, msg.sender);\n    }\n\n    function getStakedByStaker(address _owner) view external onlyNotBlacklisted returns (StakedContracts[] memory){\n      StakedContracts[]    memory id = new StakedContracts[](stakedContractsCounter[_owner]);\n          uint counter = 0;\n          \n      for (uint i = 0; i < stakersList.length; i++) {\n           if (stakersList[i].staker == _owner) {\n        StakedContracts storage list = stakersList[i];\n          id[counter] = list;\n          counter++;\n      }\n     }\n      return id;\n  }\n    function getStakedByFight(address _fight) view external onlyNotBlacklisted returns (StakedContracts[] memory){\n      StakedContracts[]    memory id = new StakedContracts[](stakersList.length);\n          uint counter = 0;\n          \n      for (uint i = 0; i < stakersList.length; i++) {\n           if (stakersList[i].fightContract== _fight) {\n        StakedContracts storage list = stakersList[i];\n          id[counter] = list;\n          counter++;\n      }\n     }\n      return id;\n  }\n    function getAllMinters() public view returns (Minters[] memory){\n      Minters[]    memory id = new Minters[](mintersDB.length);\n      for (uint i = 0; i < mintersDB.length; i++) {\n          Minters storage mint = mintersDB[i];\n          id[i] = mint;\n      }\n      return id;\n  }\n  \n    function getUserFromBlackList(address _addr) public view returns (bool) {\n    return blacklist[_addr];\n    }\n    function getMinter(address _addr)  view external returns (uint, uint, uint, string memory, string memory,string memory, bool, address) {\n        uint indx = index[_addr];\n        Minters storage m = mintersDB[indx];\n    return (m.goodCount, m.reported,m.lastMinted, m.gpsLat, m.gpsLon, m.nickname, m.whitelisted, m.addr);\n    }\n    function getMintingSpeed() public view returns (uint) {\n    return mintingSpeed;\n    }\n    function updateAdmin(address newAdmin) external {\n    require(msg.sender == listAdmin, '');\n    listAdmin = newAdmin;\n  }\n    function updateSigner(address _newSigner) external {\n    require(msg.sender == listAdmin, '');\n    signer = _newSigner;\n  }\n    function addToBlacklist(address _addr) external {\n    require(msg.sender == listAdmin, '');\n    blacklist[_addr] = true;\n  }\n    function removeFromBlacklist(address _addr) external {\n    require(msg.sender == listAdmin, '');\n    blacklist[_addr] = false;\n  }\n    function vSliceViewBalance (address _addr) view external onlyNotBlacklisted returns (uint) {\n    return vSliceBalances[_addr];\n    }\n    function getStakedBalance () view external returns (uint) {\n    return stakedVSlices[msg.sender];\n    }\n    function getStart () view external returns (uint) {\n    return start;\n    }\n    function setMintSpeed(uint _speed) external {\n    require(msg.sender == listAdmin, '');\n    mintingSpeed = _speed;\n  }\n    function setGoodP (uint _p) external {\n    require(msg.sender == listAdmin, '');\n    goodPrice = _p;\n  }\n    function getGoodP () view external returns (uint) {\n    return goodPrice;\n      }\n    function updateWenBlock(uint _count) external {\n    require(msg.sender == listAdmin, '');\n    wenBlock = _count;\n  }\n    function countMinters() view external returns(uint) {\n    return mintersDB.length;\n    }\n    function updateMaxGoodCount(uint _count) external {\n    require(msg.sender == listAdmin, '');\n    maxGoodCount = _count;\n  }\n    function sliceParams () view external returns (uint, uint, uint, uint, uint, uint) {\n    return (vSupply, vTotalSupply, wenBlock, maxGoodCount, mintingSpeed, goodPrice);\n    }\n    function canChallenge (address _can) view external returns (bool) {\n    if (challengers[msg.sender][_can] != _can) return true; else return false;\n    }\n    event Chat(address indexed _from, address indexed _to, string message);\n    function sendMessage(address _to, string calldata message) external {\n      emit Chat(msg.sender, _to, message);\n    }\n    \n}",
  "sourcePath": "/Users/stanislavpavlovic/Desktop/Slice/ee/contracts/slice.sol",
  "compiler": {
    "name": "solc",
    "version": "0.8.10+commit.fc410830.Emscripten.clang"
  },
  "schemaVersion": "3.4.3",
  "updatedAt": "2022-02-06T15:39:00.324Z",
  "networkType": "ethereum",
  "devdoc": {
    "kind": "dev",
    "methods": {
      "allowance(address,address)": {
        "details": "See {IERC20-allowance}."
      },
      "approve(address,uint256)": {
        "details": "See {IERC20-approve}. Requirements: - `spender` cannot be the zero address."
      },
      "balanceOf(address)": {
        "details": "See {IERC20-balanceOf}."
      },
      "decimals()": {
        "details": "Returns the number of decimals used to get its user representation. For example, if `decimals` equals `2`, a balance of `505` tokens should be displayed to a user as `5.05` (`505 / 10 ** 2`). Tokens usually opt for a value of 18, imitating the relationship between Ether and Wei. This is the value {ERC20} uses, unless this function is overridden; NOTE: This information is only used for _display_ purposes: it in no way affects any of the arithmetic of the contract, including {IERC20-balanceOf} and {IERC20-transfer}."
      },
      "decreaseAllowance(address,uint256)": {
        "details": "Atomically decreases the allowance granted to `spender` by the caller. This is an alternative to {approve} that can be used as a mitigation for problems described in {IERC20-approve}. Emits an {Approval} event indicating the updated allowance. Requirements: - `spender` cannot be the zero address. - `spender` must have allowance for the caller of at least `subtractedValue`."
      },
      "increaseAllowance(address,uint256)": {
        "details": "Atomically increases the allowance granted to `spender` by the caller. This is an alternative to {approve} that can be used as a mitigation for problems described in {IERC20-approve}. Emits an {Approval} event indicating the updated allowance. Requirements: - `spender` cannot be the zero address."
      },
      "name()": {
        "details": "Returns the name of the token."
      },
      "symbol()": {
        "details": "Returns the symbol of the token, usually a shorter version of the name."
      },
      "totalSupply()": {
        "details": "See {IERC20-totalSupply}."
      },
      "transfer(address,uint256)": {
        "details": "See {IERC20-transfer}. Requirements: - `recipient` cannot be the zero address. - the caller must have a balance of at least `amount`."
      },
      "transferFrom(address,address,uint256)": {
        "details": "See {IERC20-transferFrom}. Emits an {Approval} event indicating the updated allowance. This is not required by the EIP. See the note at the beginning of {ERC20}. Requirements: - `sender` and `recipient` cannot be the zero address. - `sender` must have a balance of at least `amount`. - the caller must have allowance for ``sender``'s tokens of at least `amount`."
      }
    },
    "version": 1
  },
  "userdoc": {
    "kind": "user",
    "methods": {},
    "version": 1
  }
}