{
  "contractName": "slice",
  "abi": [
    {
      "inputs": [
        {
          "internalType": "string",
          "name": "name",
          "type": "string"
        },
        {
          "internalType": "string",
          "name": "symbol",
          "type": "string"
        }
      ],
      "stateMutability": "nonpayable",
      "type": "constructor"
    },
    {
      "inputs": [],
      "name": "NotEnoughEther",
      "type": "error"
    },
    {
      "anonymous": false,
      "inputs": [
        {
          "indexed": true,
          "internalType": "address",
          "name": "owner",
          "type": "address"
        },
        {
          "indexed": true,
          "internalType": "address",
          "name": "spender",
          "type": "address"
        },
        {
          "indexed": false,
          "internalType": "uint256",
          "name": "value",
          "type": "uint256"
        }
      ],
      "name": "Approval",
      "type": "event"
    },
    {
      "anonymous": false,
      "inputs": [
        {
          "indexed": false,
          "internalType": "uint256",
          "name": "date",
          "type": "uint256"
        },
        {
          "indexed": true,
          "internalType": "address",
          "name": "reporter",
          "type": "address"
        },
        {
          "indexed": true,
          "internalType": "address",
          "name": "reported",
          "type": "address"
        }
      ],
      "name": "BadActors",
      "type": "event"
    },
    {
      "anonymous": false,
      "inputs": [
        {
          "indexed": false,
          "internalType": "uint256",
          "name": "date",
          "type": "uint256"
        },
        {
          "indexed": true,
          "internalType": "address",
          "name": "reporter",
          "type": "address"
        },
        {
          "indexed": true,
          "internalType": "address",
          "name": "reported",
          "type": "address"
        }
      ],
      "name": "GoodActors",
      "type": "event"
    },
    {
      "anonymous": false,
      "inputs": [
        {
          "indexed": true,
          "internalType": "address",
          "name": "from",
          "type": "address"
        },
        {
          "indexed": true,
          "internalType": "address",
          "name": "to",
          "type": "address"
        },
        {
          "indexed": false,
          "internalType": "uint256",
          "name": "value",
          "type": "uint256"
        }
      ],
      "name": "Transfer",
      "type": "event"
    },
    {
      "anonymous": false,
      "inputs": [
        {
          "indexed": true,
          "internalType": "address",
          "name": "fa",
          "type": "address"
        }
      ],
      "name": "finishedFight",
      "type": "event"
    },
    {
      "anonymous": false,
      "inputs": [
        {
          "indexed": true,
          "internalType": "address",
          "name": "minter",
          "type": "address"
        },
        {
          "indexed": false,
          "internalType": "string",
          "name": "Lat",
          "type": "string"
        },
        {
          "indexed": false,
          "internalType": "string",
          "name": "Lon",
          "type": "string"
        },
        {
          "indexed": false,
          "internalType": "string",
          "name": "Nick",
          "type": "string"
        }
      ],
      "name": "mintersFree",
      "type": "event"
    },
    {
      "anonymous": false,
      "inputs": [
        {
          "indexed": false,
          "internalType": "uint256",
          "name": "date",
          "type": "uint256"
        },
        {
          "indexed": true,
          "internalType": "address",
          "name": "minter",
          "type": "address"
        },
        {
          "indexed": false,
          "internalType": "string",
          "name": "Lat",
          "type": "string"
        },
        {
          "indexed": false,
          "internalType": "string",
          "name": "Lon",
          "type": "string"
        },
        {
          "indexed": false,
          "internalType": "string",
          "name": "Nick",
          "type": "string"
        }
      ],
      "name": "newMinter",
      "type": "event"
    },
    {
      "inputs": [
        {
          "internalType": "address",
          "name": "owner",
          "type": "address"
        },
        {
          "internalType": "address",
          "name": "spender",
          "type": "address"
        }
      ],
      "name": "allowance",
      "outputs": [
        {
          "internalType": "uint256",
          "name": "",
          "type": "uint256"
        }
      ],
      "stateMutability": "view",
      "type": "function",
      "constant": true
    },
    {
      "inputs": [
        {
          "internalType": "address",
          "name": "spender",
          "type": "address"
        },
        {
          "internalType": "uint256",
          "name": "amount",
          "type": "uint256"
        }
      ],
      "name": "approve",
      "outputs": [
        {
          "internalType": "bool",
          "name": "",
          "type": "bool"
        }
      ],
      "stateMutability": "nonpayable",
      "type": "function"
    },
    {
      "inputs": [
        {
          "internalType": "address",
          "name": "account",
          "type": "address"
        }
      ],
      "name": "balanceOf",
      "outputs": [
        {
          "internalType": "uint256",
          "name": "",
          "type": "uint256"
        }
      ],
      "stateMutability": "view",
      "type": "function",
      "constant": true
    },
    {
      "inputs": [],
      "name": "decimals",
      "outputs": [
        {
          "internalType": "uint8",
          "name": "",
          "type": "uint8"
        }
      ],
      "stateMutability": "view",
      "type": "function",
      "constant": true
    },
    {
      "inputs": [
        {
          "internalType": "address",
          "name": "spender",
          "type": "address"
        },
        {
          "internalType": "uint256",
          "name": "subtractedValue",
          "type": "uint256"
        }
      ],
      "name": "decreaseAllowance",
      "outputs": [
        {
          "internalType": "bool",
          "name": "",
          "type": "bool"
        }
      ],
      "stateMutability": "nonpayable",
      "type": "function"
    },
    {
      "inputs": [
        {
          "internalType": "address",
          "name": "spender",
          "type": "address"
        },
        {
          "internalType": "uint256",
          "name": "addedValue",
          "type": "uint256"
        }
      ],
      "name": "increaseAllowance",
      "outputs": [
        {
          "internalType": "bool",
          "name": "",
          "type": "bool"
        }
      ],
      "stateMutability": "nonpayable",
      "type": "function"
    },
    {
      "inputs": [],
      "name": "marketing1",
      "outputs": [
        {
          "internalType": "address",
          "name": "",
          "type": "address"
        }
      ],
      "stateMutability": "view",
      "type": "function",
      "constant": true
    },
    {
      "inputs": [],
      "name": "name",
      "outputs": [
        {
          "internalType": "string",
          "name": "",
          "type": "string"
        }
      ],
      "stateMutability": "view",
      "type": "function",
      "constant": true
    },
    {
      "inputs": [],
      "name": "symbol",
      "outputs": [
        {
          "internalType": "string",
          "name": "",
          "type": "string"
        }
      ],
      "stateMutability": "view",
      "type": "function",
      "constant": true
    },
    {
      "inputs": [],
      "name": "totalSupply",
      "outputs": [
        {
          "internalType": "uint256",
          "name": "",
          "type": "uint256"
        }
      ],
      "stateMutability": "view",
      "type": "function",
      "constant": true
    },
    {
      "inputs": [
        {
          "internalType": "address",
          "name": "recipient",
          "type": "address"
        },
        {
          "internalType": "uint256",
          "name": "amount",
          "type": "uint256"
        }
      ],
      "name": "transfer",
      "outputs": [
        {
          "internalType": "bool",
          "name": "",
          "type": "bool"
        }
      ],
      "stateMutability": "nonpayable",
      "type": "function"
    },
    {
      "inputs": [
        {
          "internalType": "address",
          "name": "sender",
          "type": "address"
        },
        {
          "internalType": "address",
          "name": "recipient",
          "type": "address"
        },
        {
          "internalType": "uint256",
          "name": "amount",
          "type": "uint256"
        }
      ],
      "name": "transferFrom",
      "outputs": [
        {
          "internalType": "bool",
          "name": "",
          "type": "bool"
        }
      ],
      "stateMutability": "nonpayable",
      "type": "function"
    },
    {
      "inputs": [
        {
          "internalType": "address",
          "name": "_fcont",
          "type": "address"
        }
      ],
      "name": "addFightToWl",
      "outputs": [],
      "stateMutability": "nonpayable",
      "type": "function"
    },
    {
      "inputs": [
        {
          "internalType": "address",
          "name": "_fa",
          "type": "address"
        },
        {
          "internalType": "uint256",
          "name": "_users",
          "type": "uint256"
        },
        {
          "internalType": "address",
          "name": "_ls",
          "type": "address"
        },
        {
          "internalType": "uint256",
          "name": "_spotCounter",
          "type": "uint256"
        }
      ],
      "name": "fightMint",
      "outputs": [],
      "stateMutability": "nonpayable",
      "type": "function"
    },
    {
      "inputs": [],
      "name": "rewards_for_fights",
      "outputs": [],
      "stateMutability": "nonpayable",
      "type": "function"
    },
    {
      "inputs": [
        {
          "internalType": "address",
          "name": "_addr",
          "type": "address"
        }
      ],
      "name": "readFightRewards",
      "outputs": [
        {
          "internalType": "uint256",
          "name": "",
          "type": "uint256"
        },
        {
          "internalType": "uint256",
          "name": "",
          "type": "uint256"
        },
        {
          "internalType": "bool",
          "name": "",
          "type": "bool"
        }
      ],
      "stateMutability": "view",
      "type": "function",
      "constant": true
    },
    {
      "inputs": [],
      "name": "marketing_reward",
      "outputs": [],
      "stateMutability": "nonpayable",
      "type": "function"
    },
    {
      "inputs": [
        {
          "internalType": "address",
          "name": "_addr1",
          "type": "address"
        }
      ],
      "name": "changeMarketing1",
      "outputs": [],
      "stateMutability": "nonpayable",
      "type": "function"
    },
    {
      "inputs": [
        {
          "internalType": "address",
          "name": "_addr",
          "type": "address"
        }
      ],
      "name": "reportBadActor",
      "outputs": [],
      "stateMutability": "nonpayable",
      "type": "function"
    },
    {
      "inputs": [
        {
          "internalType": "address",
          "name": "_addr",
          "type": "address"
        }
      ],
      "name": "reportGoodActor",
      "outputs": [],
      "stateMutability": "payable",
      "type": "function",
      "payable": true
    },
    {
      "inputs": [
        {
          "internalType": "string",
          "name": "_gpsLat",
          "type": "string"
        },
        {
          "internalType": "string",
          "name": "_gpsLon",
          "type": "string"
        },
        {
          "internalType": "string",
          "name": "_nickname",
          "type": "string"
        }
      ],
      "name": "AddToWhitelist",
      "outputs": [],
      "stateMutability": "nonpayable",
      "type": "function"
    },
    {
      "inputs": [
        {
          "internalType": "bytes",
          "name": "signature",
          "type": "bytes"
        },
        {
          "internalType": "string",
          "name": "_gpsLat",
          "type": "string"
        },
        {
          "internalType": "string",
          "name": "_gpsLon",
          "type": "string"
        },
        {
          "internalType": "string",
          "name": "_nickname",
          "type": "string"
        }
      ],
      "name": "addToWhitelist_a7I",
      "outputs": [],
      "stateMutability": "nonpayable",
      "type": "function"
    },
    {
      "inputs": [],
      "name": "SliceMinting",
      "outputs": [],
      "stateMutability": "nonpayable",
      "type": "function"
    },
    {
      "inputs": [],
      "name": "vSliceMinting_ExW",
      "outputs": [],
      "stateMutability": "nonpayable",
      "type": "function"
    },
    {
      "inputs": [
        {
          "internalType": "uint256",
          "name": "_amount",
          "type": "uint256"
        },
        {
          "internalType": "address",
          "name": "_addr",
          "type": "address"
        }
      ],
      "name": "stakeVSlice_h56",
      "outputs": [],
      "stateMutability": "nonpayable",
      "type": "function"
    },
    {
      "inputs": [
        {
          "internalType": "uint256",
          "name": "_amount",
          "type": "uint256"
        },
        {
          "internalType": "address",
          "name": "_addr",
          "type": "address"
        }
      ],
      "name": "unstakeVSlice_Hha",
      "outputs": [],
      "stateMutability": "nonpayable",
      "type": "function"
    },
    {
      "inputs": [
        {
          "internalType": "address",
          "name": "_owner",
          "type": "address"
        }
      ],
      "name": "getStakedByStaker",
      "outputs": [
        {
          "components": [
            {
              "internalType": "address",
              "name": "staker",
              "type": "address"
            },
            {
              "internalType": "address",
              "name": "fightContract",
              "type": "address"
            }
          ],
          "internalType": "struct slice.StakedContracts[]",
          "name": "",
          "type": "tuple[]"
        }
      ],
      "stateMutability": "view",
      "type": "function",
      "constant": true
    },
    {
      "inputs": [
        {
          "internalType": "address",
          "name": "_fight",
          "type": "address"
        }
      ],
      "name": "getStakedByFight",
      "outputs": [
        {
          "components": [
            {
              "internalType": "address",
              "name": "staker",
              "type": "address"
            },
            {
              "internalType": "address",
              "name": "fightContract",
              "type": "address"
            }
          ],
          "internalType": "struct slice.StakedContracts[]",
          "name": "",
          "type": "tuple[]"
        }
      ],
      "stateMutability": "view",
      "type": "function",
      "constant": true
    },
    {
      "inputs": [],
      "name": "getAllMinters",
      "outputs": [
        {
          "components": [
            {
              "internalType": "uint256",
              "name": "goodCount",
              "type": "uint256"
            },
            {
              "internalType": "uint256",
              "name": "reported",
              "type": "uint256"
            },
            {
              "internalType": "uint256",
              "name": "lastMinted",
              "type": "uint256"
            },
            {
              "internalType": "string",
              "name": "gpsLat",
              "type": "string"
            },
            {
              "internalType": "string",
              "name": "gpsLon",
              "type": "string"
            },
            {
              "internalType": "string",
              "name": "nickname",
              "type": "string"
            },
            {
              "internalType": "bool",
              "name": "whitelisted",
              "type": "bool"
            },
            {
              "internalType": "address",
              "name": "addr",
              "type": "address"
            }
          ],
          "internalType": "struct slice.Minters[]",
          "name": "",
          "type": "tuple[]"
        }
      ],
      "stateMutability": "view",
      "type": "function",
      "constant": true
    },
    {
      "inputs": [
        {
          "internalType": "address",
          "name": "_addr",
          "type": "address"
        }
      ],
      "name": "getMinter",
      "outputs": [
        {
          "internalType": "uint256",
          "name": "",
          "type": "uint256"
        },
        {
          "internalType": "uint256",
          "name": "",
          "type": "uint256"
        },
        {
          "internalType": "uint256",
          "name": "",
          "type": "uint256"
        },
        {
          "internalType": "string",
          "name": "",
          "type": "string"
        },
        {
          "internalType": "string",
          "name": "",
          "type": "string"
        },
        {
          "internalType": "string",
          "name": "",
          "type": "string"
        },
        {
          "internalType": "bool",
          "name": "",
          "type": "bool"
        },
        {
          "internalType": "address",
          "name": "",
          "type": "address"
        }
      ],
      "stateMutability": "view",
      "type": "function",
      "constant": true
    },
    {
      "inputs": [
        {
          "internalType": "address",
          "name": "_addr",
          "type": "address"
        }
      ],
      "name": "wl",
      "outputs": [
        {
          "internalType": "bool",
          "name": "",
          "type": "bool"
        }
      ],
      "stateMutability": "view",
      "type": "function",
      "constant": true
    },
    {
      "inputs": [
        {
          "internalType": "address",
          "name": "_addr",
          "type": "address"
        }
      ],
      "name": "vSliceViewBalance",
      "outputs": [
        {
          "internalType": "uint256",
          "name": "",
          "type": "uint256"
        }
      ],
      "stateMutability": "view",
      "type": "function",
      "constant": true
    },
    {
      "inputs": [
        {
          "internalType": "address",
          "name": "_addr",
          "type": "address"
        }
      ],
      "name": "isRegistered",
      "outputs": [
        {
          "internalType": "uint256",
          "name": "",
          "type": "uint256"
        }
      ],
      "stateMutability": "view",
      "type": "function",
      "constant": true
    },
    {
      "inputs": [],
      "name": "getMintingSpeed",
      "outputs": [
        {
          "internalType": "uint256",
          "name": "",
          "type": "uint256"
        }
      ],
      "stateMutability": "view",
      "type": "function",
      "constant": true
    },
    {
      "inputs": [],
      "name": "getStakedBalance",
      "outputs": [
        {
          "internalType": "uint256",
          "name": "",
          "type": "uint256"
        }
      ],
      "stateMutability": "view",
      "type": "function",
      "constant": true
    },
    {
      "inputs": [],
      "name": "getStart",
      "outputs": [
        {
          "internalType": "uint256",
          "name": "",
          "type": "uint256"
        }
      ],
      "stateMutability": "view",
      "type": "function",
      "constant": true
    },
    {
      "inputs": [],
      "name": "getGoodP",
      "outputs": [
        {
          "internalType": "uint256",
          "name": "",
          "type": "uint256"
        }
      ],
      "stateMutability": "view",
      "type": "function",
      "constant": true
    },
    {
      "inputs": [],
      "name": "countMinters",
      "outputs": [
        {
          "internalType": "uint256",
          "name": "",
          "type": "uint256"
        }
      ],
      "stateMutability": "view",
      "type": "function",
      "constant": true
    },
    {
      "inputs": [],
      "name": "sliceParams",
      "outputs": [
        {
          "internalType": "uint256",
          "name": "",
          "type": "uint256"
        },
        {
          "internalType": "uint256",
          "name": "",
          "type": "uint256"
        },
        {
          "internalType": "uint256",
          "name": "",
          "type": "uint256"
        },
        {
          "internalType": "uint256",
          "name": "",
          "type": "uint256"
        },
        {
          "internalType": "uint256",
          "name": "",
          "type": "uint256"
        },
        {
          "internalType": "uint256",
          "name": "",
          "type": "uint256"
        },
        {
          "internalType": "address",
          "name": "",
          "type": "address"
        },
        {
          "internalType": "uint256",
          "name": "",
          "type": "uint256"
        },
        {
          "internalType": "uint256",
          "name": "",
          "type": "uint256"
        },
        {
          "internalType": "uint256",
          "name": "",
          "type": "uint256"
        },
        {
          "internalType": "uint256",
          "name": "",
          "type": "uint256"
        }
      ],
      "stateMutability": "view",
      "type": "function",
      "constant": true
    },
    {
      "inputs": [],
      "name": "reputation",
      "outputs": [],
      "stateMutability": "nonpayable",
      "type": "function"
    },
    {
      "inputs": [
        {
          "internalType": "address",
          "name": "_addr",
          "type": "address"
        }
      ],
      "name": "setFF",
      "outputs": [],
      "stateMutability": "nonpayable",
      "type": "function"
    },
    {
      "inputs": [
        {
          "internalType": "address",
          "name": "newAdmin",
          "type": "address"
        }
      ],
      "name": "updateAdmin",
      "outputs": [],
      "stateMutability": "nonpayable",
      "type": "function"
    },
    {
      "inputs": [
        {
          "internalType": "address",
          "name": "_newSigner",
          "type": "address"
        }
      ],
      "name": "updateSigner",
      "outputs": [],
      "stateMutability": "nonpayable",
      "type": "function"
    },
    {
      "inputs": [
        {
          "internalType": "uint256",
          "name": "_maxGoodcount",
          "type": "uint256"
        },
        {
          "internalType": "uint256",
          "name": "_wenBlockCount",
          "type": "uint256"
        },
        {
          "internalType": "uint256",
          "name": "_p",
          "type": "uint256"
        }
      ],
      "name": "adminUpdate",
      "outputs": [],
      "stateMutability": "nonpayable",
      "type": "function"
    }
  ],
  "bytecode": "0x60806040523480156200001157600080fd5b50604051620067413803806200674183398181016040528101906200003791906200046f565b818181600390805190602001906200005192919062000222565b5080600490805190602001906200006a92919062000222565b50505042600581905550620000846200021960201b60201c565b60ff16600a62000095919062000681565b63b4735000620000a69190620006d2565b600681905550620000bc6200021960201b60201c565b60ff16600a620000cd919062000681565b6321d59f00620000de9190620006d2565b60108190555033600860006101000a81548173ffffffffffffffffffffffffffffffffffffffff021916908373ffffffffffffffffffffffffffffffffffffffff16021790555073d6af7959290caee9e8564ec80a33b92335d6232c600960006101000a81548173ffffffffffffffffffffffffffffffffffffffff021916908373ffffffffffffffffffffffffffffffffffffffff16021790555073a16392cb56e13367578795db9f6459485571d2fa600e60006101000a81548173ffffffffffffffffffffffffffffffffffffffff021916908373ffffffffffffffffffffffffffffffffffffffff1602179055506002600a819055506001600b81905550610e10600c81905550662386f26fc10000600d819055506000600e60146101000a81548160ff021916908315150217905550505062000798565b60006012905090565b828054620002309062000762565b90600052602060002090601f016020900481019282620002545760008555620002a0565b82601f106200026f57805160ff1916838001178555620002a0565b82800160010185558215620002a0579182015b828111156200029f57825182559160200191906001019062000282565b5b509050620002af9190620002b3565b5090565b5b80821115620002ce576000816000905550600101620002b4565b5090565b6000604051905090565b600080fd5b600080fd5b600080fd5b600080fd5b6000601f19601f8301169050919050565b7f4e487b7100000000000000000000000000000000000000000000000000000000600052604160045260246000fd5b6200033b82620002f0565b810181811067ffffffffffffffff821117156200035d576200035c62000301565b5b80604052505050565b600062000372620002d2565b905062000380828262000330565b919050565b600067ffffffffffffffff821115620003a357620003a262000301565b5b620003ae82620002f0565b9050602081019050919050565b60005b83811015620003db578082015181840152602081019050620003be565b83811115620003eb576000848401525b50505050565b600062000408620004028462000385565b62000366565b905082815260208101848484011115620004275762000426620002eb565b5b62000434848285620003bb565b509392505050565b600082601f830112620004545762000453620002e6565b5b815162000466848260208601620003f1565b91505092915050565b60008060408385031215620004895762000488620002dc565b5b600083015167ffffffffffffffff811115620004aa57620004a9620002e1565b5b620004b8858286016200043c565b925050602083015167ffffffffffffffff811115620004dc57620004db620002e1565b5b620004ea858286016200043c565b9150509250929050565b7f4e487b7100000000000000000000000000000000000000000000000000000000600052601160045260246000fd5b60008160011c9050919050565b6000808291508390505b600185111562000582578086048111156200055a5762000559620004f4565b5b60018516156200056a5780820291505b80810290506200057a8562000523565b94506200053a565b94509492505050565b6000826200059d576001905062000670565b81620005ad576000905062000670565b8160018114620005c65760028114620005d15762000607565b600191505062000670565b60ff841115620005e657620005e5620004f4565b5b8360020a9150848211156200060057620005ff620004f4565b5b5062000670565b5060208310610133831016604e8410600b8410161715620006415782820a9050838111156200063b576200063a620004f4565b5b62000670565b62000650848484600162000530565b925090508184048111156200066a5762000669620004f4565b5b81810290505b9392505050565b6000819050919050565b60006200068e8262000677565b91506200069b8362000677565b9250620006ca7fffffffffffffffffffffffffffffffffffffffffffffffffffffffffffffffff84846200058b565b905092915050565b6000620006df8262000677565b9150620006ec8362000677565b9250817fffffffffffffffffffffffffffffffffffffffffffffffffffffffffffffffff0483118215151615620007285762000727620004f4565b5b828202905092915050565b7f4e487b7100000000000000000000000000000000000000000000000000000000600052602260045260246000fd5b600060028204905060018216806200077b57607f821691505b6020821081141562000792576200079162000733565b5b50919050565b615f9980620007a86000396000f3fe6080604052600436106102655760003560e01c806395d89b4111610144578063c3c5a547116100b6578063d5c0f1fb1161007a578063d5c0f1fb14610944578063dd62ed3e1461096d578063ddc14afe146109aa578063de094701146109d5578063e2f273bd146109ec578063e3917cfc14610a1557610265565b8063c3c5a54714610871578063c52164c6146108ae578063c5292c67146108c5578063ca6ad40c146108f0578063d4f4648f1461091b57610265565b8063a9059cbb11610108578063a9059cbb1461077d578063b06f0ce2146107ba578063b1098137146107d1578063b14cc0e0146107ed578063bc73b64114610804578063c1354b5a1461084857610265565b806395d89b4114610698578063a045442c146106c3578063a412a69e146106ee578063a457c2d714610717578063a7ecd37e1461075457610265565b8063427ac82c116101dd5780636cbcb4cd116101a15780636cbcb4cd1461057857806370a08231146105a157806376965867146105de57806382d6a17a146106095780638891b29e1461063257806395b8b0011461066f57610265565b8063427ac82c146104875780634b6d0088146104b25780635fbb7093146104f157806361d42f6b1461052657806369d3bdbd1461054f57610265565b806323b872dd1161022f57806323b872dd1461033d57806326c95e0a1461037a5780632fee9e7e146103a5578063313ce567146103e257806335703a3a1461040d578063395093511461044a57610265565b8061d5981461026a57806306fdde0314610281578063095ea7b3146102ac57806318160ddd146102e9578063212c34ad14610314575b600080fd5b34801561027657600080fd5b5061027f610a52565b005b34801561028d57600080fd5b50610296610cb2565b6040516102a39190614809565b60405180910390f35b3480156102b857600080fd5b506102d360048036038101906102ce91906148d3565b610d44565b6040516102e0919061492e565b60405180910390f35b3480156102f557600080fd5b506102fe610d62565b60405161030b9190614958565b60405180910390f35b34801561032057600080fd5b5061033b60048036038101906103369190614973565b610d6c565b005b34801561034957600080fd5b50610364600480360381019061035f91906149a0565b610e57565b604051610371919061492e565b60405180910390f35b34801561038657600080fd5b5061038f610f4f565b60405161039c9190614958565b60405180910390f35b3480156103b157600080fd5b506103cc60048036038101906103c79190614973565b610f59565b6040516103d9919061492e565b60405180910390f35b3480156103ee57600080fd5b506103f7610faf565b6040516104049190614a0f565b60405180910390f35b34801561041957600080fd5b50610434600480360381019061042f9190614973565b610fb8565b6040516104419190614958565b60405180910390f35b34801561045657600080fd5b50610471600480360381019061046c91906148d3565b611001565b60405161047e919061492e565b60405180910390f35b34801561049357600080fd5b5061049c6110ad565b6040516104a99190614a39565b60405180910390f35b3480156104be57600080fd5b506104d960048036038101906104d49190614973565b6110d3565b6040516104e893929190614a54565b60405180910390f35b3480156104fd57600080fd5b50610506611144565b60405161051d9b9a99989796959493929190614a8b565b60405180910390f35b34801561053257600080fd5b5061054d60048036038101906105489190614b36565b611218565b005b34801561055b57600080fd5b5061057660048036038101906105719190614973565b6113e0565b005b34801561058457600080fd5b5061059f600480360381019061059a9190614b76565b61142c565b005b3480156105ad57600080fd5b506105c860048036038101906105c39190614973565b611665565b6040516105d59190614958565b60405180910390f35b3480156105ea57600080fd5b506105f36116ad565b6040516106009190614958565b60405180910390f35b34801561061557600080fd5b50610630600480360381019061062b9190614973565b6116f4565b005b34801561063e57600080fd5b5061065960048036038101906106549190614973565b6117c8565b6040516106669190614cca565b60405180910390f35b34801561067b57600080fd5b5061069660048036038101906106919190614cec565b611a15565b005b3480156106a457600080fd5b506106ad611a37565b6040516106ba9190614809565b60405180910390f35b3480156106cf57600080fd5b506106d8611ac9565b6040516106e59190614f27565b60405180910390f35b3480156106fa57600080fd5b50610715600480360381019061071091906150de565b611dea565b005b34801561072357600080fd5b5061073e600480360381019061073991906148d3565b6121ad565b60405161074b919061492e565b60405180910390f35b34801561076057600080fd5b5061077b60048036038101906107769190614973565b612298565b005b34801561078957600080fd5b506107a4600480360381019061079f91906148d3565b6122e4565b6040516107b1919061492e565b60405180910390f35b3480156107c657600080fd5b506107cf612302565b005b6107eb60048036038101906107e69190614973565b61240d565b005b3480156107f957600080fd5b50610802612955565b005b34801561081057600080fd5b5061082b60048036038101906108269190614973565b612a3a565b60405161083f9897969594939291906151ba565b60405180910390f35b34801561085457600080fd5b5061086f600480360381019061086a919061524d565b612cc4565b005b34801561087d57600080fd5b5061089860048036038101906108939190614973565b612ff0565b6040516108a59190614958565b60405180910390f35b3480156108ba57600080fd5b506108c3613039565b005b3480156108d157600080fd5b506108da613158565b6040516108e79190614958565b60405180910390f35b3480156108fc57600080fd5b50610905613162565b6040516109129190614958565b60405180910390f35b34801561092757600080fd5b50610942600480360381019061093d9190614b36565b61316f565b005b34801561095057600080fd5b5061096b60048036038101906109669190614973565b613619565b005b34801561097957600080fd5b50610994600480360381019061098f91906152f4565b6139b5565b6040516109a19190614958565b60405180910390f35b3480156109b657600080fd5b506109bf613a3c565b6040516109cc9190614958565b60405180910390f35b3480156109e157600080fd5b506109ea613a46565b005b3480156109f857600080fd5b50610a136004803603810190610a0e9190614973565b613b2f565b005b348015610a2157600080fd5b50610a3c6004803603810190610a379190614973565b613b7b565b604051610a499190614cca565b60405180910390f35b610a5a613dc8565b6006546007541115610aa1576040517f08c379a0000000000000000000000000000000000000000000000000000000008152600401610a989061535a565b60405180910390fd5b6000601560003373ffffffffffffffffffffffffffffffffffffffff1673ffffffffffffffffffffffffffffffffffffffff168152602001908152602001600020549050600060128281548110610afb57610afa61537a565b5b90600052602060002090600702019050600080600083600201541415610be357610b23610faf565b60ff16600a610b32919061550b565b60055442610b409190615556565b610b4a919061558a565b9150600c5482610b5a9190615613565b601860003373ffffffffffffffffffffffffffffffffffffffff1673ffffffffffffffffffffffffffffffffffffffff1681526020019081526020016000206000828254610ba89190615644565b92505081905550428360020181905550600c5482610bc69190615613565b60076000828254610bd79190615644565b92505081905550610cac565b826002015442610bf39190615556565b9050610bfd610faf565b60ff16600a610c0c919061550b565b81610c17919061558a565b9150600c5482610c279190615613565b601860003373ffffffffffffffffffffffffffffffffffffffff1673ffffffffffffffffffffffffffffffffffffffff1681526020019081526020016000206000828254610c759190615644565b92505081905550428360020181905550600c5482610c939190615613565b60076000828254610ca49190615644565b925050819055505b50505050565b606060038054610cc1906156c9565b80601f0160208091040260200160405190810160405280929190818152602001828054610ced906156c9565b8015610d3a5780601f10610d0f57610100808354040283529160200191610d3a565b820191906000526020600020905b815481529060010190602001808311610d1d57829003601f168201915b5050505050905090565b6000610d58610d51613e5d565b8484613e65565b6001905092915050565b6000600254905090565b601160009054906101000a900473ffffffffffffffffffffffffffffffffffffffff1673ffffffffffffffffffffffffffffffffffffffff163373ffffffffffffffffffffffffffffffffffffffff1614610dfc576040517f08c379a0000000000000000000000000000000000000000000000000000000008152600401610df39061535a565b60405180910390fd5b6001601b60008373ffffffffffffffffffffffffffffffffffffffff1673ffffffffffffffffffffffffffffffffffffffff16815260200190815260200160002060006101000a81548160ff02191690831515021790555050565b6000610e64848484614030565b6000600160008673ffffffffffffffffffffffffffffffffffffffff1673ffffffffffffffffffffffffffffffffffffffff1681526020019081526020016000206000610eaf613e5d565b73ffffffffffffffffffffffffffffffffffffffff1673ffffffffffffffffffffffffffffffffffffffff16815260200190815260200160002054905082811015610f2f576040517f08c379a0000000000000000000000000000000000000000000000000000000008152600401610f269061576d565b60405180910390fd5b610f4385610f3b613e5d565b858403613e65565b60019150509392505050565b6000600d54905090565b6000601a60008373ffffffffffffffffffffffffffffffffffffffff1673ffffffffffffffffffffffffffffffffffffffff16815260200190815260200160002060009054906101000a900460ff169050919050565b60006012905090565b6000601860008373ffffffffffffffffffffffffffffffffffffffff1673ffffffffffffffffffffffffffffffffffffffff168152602001908152602001600020549050919050565b60006110a361100e613e5d565b84846001600061101c613e5d565b73ffffffffffffffffffffffffffffffffffffffff1673ffffffffffffffffffffffffffffffffffffffff16815260200190815260200160002060008873ffffffffffffffffffffffffffffffffffffffff1673ffffffffffffffffffffffffffffffffffffffff1681526020019081526020016000205461109e9190615644565b613e65565b6001905092915050565b600e60009054906101000a900473ffffffffffffffffffffffffffffffffffffffff1681565b600080600080601f60008673ffffffffffffffffffffffffffffffffffffffff1673ffffffffffffffffffffffffffffffffffffffff1681526020019081526020016000209050806000015481600101548260020160009054906101000a900460ff16935093509350509193909250565b6000806000806000806000806000806000600754600654600a54600b54600c54600d54600960009054906101000a900473ffffffffffffffffffffffffffffffffffffffff16601e6000600860009054906101000a900473ffffffffffffffffffffffffffffffffffffffff1673ffffffffffffffffffffffffffffffffffffffff1673ffffffffffffffffffffffffffffffffffffffff16815260200190815260200160002054601054600f546010549a509a509a509a509a509a509a509a509a509a509a50909192939495969798999a565b6112206142b1565b6000601560008373ffffffffffffffffffffffffffffffffffffffff1673ffffffffffffffffffffffffffffffffffffffff16815260200190815260200160002054905060006012828154811061127a5761127961537a565b5b9060005260206000209060070201905083601960008573ffffffffffffffffffffffffffffffffffffffff1673ffffffffffffffffffffffffffffffffffffffff16815260200190815260200160002054101580156112ef5750600015158160060160009054906101000a900460ff16151514155b61132e576040517f08c379a00000000000000000000000000000000000000000000000000000000081526004016113259061535a565b60405180910390fd5b83601960008573ffffffffffffffffffffffffffffffffffffffff1673ffffffffffffffffffffffffffffffffffffffff168152602001908152602001600020600082825461137d9190615556565b9250508190555083601860008573ffffffffffffffffffffffffffffffffffffffff1673ffffffffffffffffffffffffffffffffffffffff16815260200190815260200160002060008282546113d39190615644565b9250508190555050505050565b6113e8614346565b80601160006101000a81548173ffffffffffffffffffffffffffffffffffffffff021916908373ffffffffffffffffffffffffffffffffffffffff16021790555050565b6114346142b1565b601054600f5410801561147357503373ffffffffffffffffffffffffffffffffffffffff168273ffffffffffffffffffffffffffffffffffffffff1614155b8015611480575060038110155b15611616576000601f60008673ffffffffffffffffffffffffffffffffffffffff1673ffffffffffffffffffffffffffffffffffffffff16815260200190815260200160002090506114d0610faf565b60ff16600a6114df919061550b565b6103e883866114ee919061558a565b6114f8919061558a565b611502919061558a565b8160010160008282546115159190615644565b92505081905550611524610faf565b60ff16600a611533919061550b565b6103e88386611542919061558a565b61154c919061558a565b611556919061558a565b600f60008282546115679190615644565b92505081905550600081600001541115611581575061165f565b6020859080600181540180825580915050600190039060005260206000200160009091909190916101000a81548173ffffffffffffffffffffffffffffffffffffffff021916908373ffffffffffffffffffffffffffffffffffffffff160217905550600060016020805490506115f89190615556565b90506001816116079190615644565b8260000181905550505061161b565b61165f565b8373ffffffffffffffffffffffffffffffffffffffff167f5297879affe4fdddf98df908ef959f959113632d847f4036648f34cf9b3f621760405160405180910390a25b50505050565b60008060008373ffffffffffffffffffffffffffffffffffffffff1673ffffffffffffffffffffffffffffffffffffffff168152602001908152602001600020549050919050565b6000601960003373ffffffffffffffffffffffffffffffffffffffff1673ffffffffffffffffffffffffffffffffffffffff16815260200190815260200160002054905090565b600e60009054906101000a900473ffffffffffffffffffffffffffffffffffffffff1673ffffffffffffffffffffffffffffffffffffffff163373ffffffffffffffffffffffffffffffffffffffff1614611784576040517f08c379a000000000000000000000000000000000000000000000000000000000815260040161177b9061535a565b60405180910390fd5b80600e60006101000a81548173ffffffffffffffffffffffffffffffffffffffff021916908373ffffffffffffffffffffffffffffffffffffffff16021790555050565b60606000601760008473ffffffffffffffffffffffffffffffffffffffff1673ffffffffffffffffffffffffffffffffffffffff1681526020019081526020016000205467ffffffffffffffff81111561182557611824614fb3565b5b60405190808252806020026020018201604052801561185e57816020015b61184b61462a565b8152602001906001900390816118435790505b5090506000805b601380549050811015611a0a578473ffffffffffffffffffffffffffffffffffffffff166013828154811061189d5761189c61537a565b5b906000526020600020906002020160010160009054906101000a900473ffffffffffffffffffffffffffffffffffffffff1673ffffffffffffffffffffffffffffffffffffffff1614156119f7576000601382815481106119015761190061537a565b5b90600052602060002090600202019050806040518060400160405290816000820160009054906101000a900473ffffffffffffffffffffffffffffffffffffffff1673ffffffffffffffffffffffffffffffffffffffff1673ffffffffffffffffffffffffffffffffffffffff1681526020016001820160009054906101000a900473ffffffffffffffffffffffffffffffffffffffff1673ffffffffffffffffffffffffffffffffffffffff1673ffffffffffffffffffffffffffffffffffffffff16815250508484815181106119dc576119db61537a565b5b602002602001018190525082806119f29061578d565b935050505b8080611a029061578d565b915050611865565b508192505050919050565b611a1d614346565b82600b8190555081600a8190555080600d81905550505050565b606060048054611a46906156c9565b80601f0160208091040260200160405190810160405280929190818152602001828054611a72906156c9565b8015611abf5780601f10611a9457610100808354040283529160200191611abf565b820191906000526020600020905b815481529060010190602001808311611aa257829003601f168201915b5050505050905090565b6060600060128054905067ffffffffffffffff811115611aec57611aeb614fb3565b5b604051908082528060200260200182016040528015611b2557816020015b611b12614670565b815260200190600190039081611b0a5790505b50905060005b601280549050811015611de257600060128281548110611b4e57611b4d61537a565b5b906000526020600020906007020190508060405180610100016040529081600082015481526020016001820154815260200160028201548152602001600382018054611b99906156c9565b80601f0160208091040260200160405190810160405280929190818152602001828054611bc5906156c9565b8015611c125780601f10611be757610100808354040283529160200191611c12565b820191906000526020600020905b815481529060010190602001808311611bf557829003601f168201915b50505050508152602001600482018054611c2b906156c9565b80601f0160208091040260200160405190810160405280929190818152602001828054611c57906156c9565b8015611ca45780601f10611c7957610100808354040283529160200191611ca4565b820191906000526020600020905b815481529060010190602001808311611c8757829003601f168201915b50505050508152602001600582018054611cbd906156c9565b80601f0160208091040260200160405190810160405280929190818152602001828054611ce9906156c9565b8015611d365780601f10611d0b57610100808354040283529160200191611d36565b820191906000526020600020905b815481529060010190602001808311611d1957829003601f168201915b505050505081526020016006820160009054906101000a900460ff161515151581526020016006820160019054906101000a900473ffffffffffffffffffffffffffffffffffffffff1673ffffffffffffffffffffffffffffffffffffffff1673ffffffffffffffffffffffffffffffffffffffff1681525050838381518110611dc357611dc261537a565b5b6020026020010181905250508080611dda9061578d565b915050611b2b565b508091505090565b6000611e1b33604051602001611e00919061581e565b604051602081830303815290604052805190602001206143d8565b9050600960009054906101000a900473ffffffffffffffffffffffffffffffffffffffff1673ffffffffffffffffffffffffffffffffffffffff16611ea48288888080601f016020809104026020016040519081016040528093929190818152602001838380828437600081840152601f19601f82011690508083019250505050505050614408565b73ffffffffffffffffffffffffffffffffffffffff16148015611f0657506000601560003373ffffffffffffffffffffffffffffffffffffffff1673ffffffffffffffffffffffffffffffffffffffff16815260200190815260200160002054145b611f45576040517f08c379a0000000000000000000000000000000000000000000000000000000008152600401611f3c90615885565b60405180910390fd5b60126040518061010001604052806000815260200160008152602001600081526020018681526020018581526020018481526020016001151581526020013373ffffffffffffffffffffffffffffffffffffffff16815250908060018154018082558091505060019003906000526020600020906007020160009091909190915060008201518160000155602082015181600101556040820151816002015560608201518160030190805190602001906120009291906146cd565b50608082015181600401908051906020019061201d9291906146cd565b5060a082015181600501908051906020019061203a9291906146cd565b5060c08201518160060160006101000a81548160ff02191690831515021790555060e08201518160060160016101000a81548173ffffffffffffffffffffffffffffffffffffffff021916908373ffffffffffffffffffffffffffffffffffffffff160217905550505060016012805490506120b69190615556565b601560003373ffffffffffffffffffffffffffffffffffffffff1673ffffffffffffffffffffffffffffffffffffffff168152602001908152602001600020819055506001601a60003373ffffffffffffffffffffffffffffffffffffffff1673ffffffffffffffffffffffffffffffffffffffff16815260200190815260200160002060006101000a81548160ff0219169083151502179055503373ffffffffffffffffffffffffffffffffffffffff167f529fc32b54e6dd32e4b333dc98403668fe1355a18f3fe4f2468a2144f19e892f4286868660405161219d94939291906158a5565b60405180910390a2505050505050565b600080600160006121bc613e5d565b73ffffffffffffffffffffffffffffffffffffffff1673ffffffffffffffffffffffffffffffffffffffff16815260200190815260200160002060008573ffffffffffffffffffffffffffffffffffffffff1673ffffffffffffffffffffffffffffffffffffffff16815260200190815260200160002054905082811015612279576040517f08c379a000000000000000000000000000000000000000000000000000000000815260040161227090615971565b60405180910390fd5b61228d612284613e5d565b85858403613e65565b600191505092915050565b6122a0614346565b80600960006101000a81548173ffffffffffffffffffffffffffffffffffffffff021916908373ffffffffffffffffffffffffffffffffffffffff16021790555050565b60006122f86122f1613e5d565b8484614030565b6001905092915050565b600654600754101580156123635750600e60009054906101000a900473ffffffffffffffffffffffffffffffffffffffff1673ffffffffffffffffffffffffffffffffffffffff163373ffffffffffffffffffffffffffffffffffffffff16145b8015612382575060001515600e60149054906101000a900460ff161515145b6123c1576040517f08c379a00000000000000000000000000000000000000000000000000000000081526004016123b89061535a565b60405180910390fd5b6001600e60146101000a81548160ff02191690831515021790555061240b336123e8610faf565b60ff16600a6123f7919061550b565b630b473500612406919061558a565b61447d565b565b612415613dc8565b6000601560008373ffffffffffffffffffffffffffffffffffffffff1673ffffffffffffffffffffffffffffffffffffffff16815260200190815260200160002054905060006012828154811061246f5761246e61537a565b5b906000526020600020906007020190508273ffffffffffffffffffffffffffffffffffffffff163373ffffffffffffffffffffffffffffffffffffffff1614156124ee576040517f08c379a00000000000000000000000000000000000000000000000000000000081526004016124e59061535a565b60405180910390fd5b8273ffffffffffffffffffffffffffffffffffffffff16601c60003373ffffffffffffffffffffffffffffffffffffffff1673ffffffffffffffffffffffffffffffffffffffff16815260200190815260200160002060008573ffffffffffffffffffffffffffffffffffffffff1673ffffffffffffffffffffffffffffffffffffffff16815260200190815260200160002060009054906101000a900473ffffffffffffffffffffffffffffffffffffffff1673ffffffffffffffffffffffffffffffffffffffff1614156125f9576040517f08c379a00000000000000000000000000000000000000000000000000000000081526004016125f09061535a565b60405180910390fd5b600b54816000015410612641576040517f08c379a00000000000000000000000000000000000000000000000000000000081526004016126389061535a565b60405180910390fd5b6000816001015411612688576040517f08c379a000000000000000000000000000000000000000000000000000000000815260040161267f9061535a565b60405180910390fd5b600d5434146126c3576040517f8a0d377900000000000000000000000000000000000000000000000000000000815260040160405180910390fd5b600d54601e6000600860009054906101000a900473ffffffffffffffffffffffffffffffffffffffff1673ffffffffffffffffffffffffffffffffffffffff1673ffffffffffffffffffffffffffffffffffffffff16815260200190815260200160002060008282546127369190615644565b9250508190555082601c60003373ffffffffffffffffffffffffffffffffffffffff1673ffffffffffffffffffffffffffffffffffffffff16815260200190815260200160002060008573ffffffffffffffffffffffffffffffffffffffff1673ffffffffffffffffffffffffffffffffffffffff16815260200190815260200160002060006101000a81548173ffffffffffffffffffffffffffffffffffffffff021916908373ffffffffffffffffffffffffffffffffffffffff160217905550600181600101600082825461280d9190615556565b9250508190555060018160000160008282546128299190615644565b92505081905550600a548160010154106128755760008160060160009054906101000a900460ff169050808260060160006101000a81548160ff021916908315150217905550506128eb565b60018160060160006101000a81548160ff0219169083151502179055506001601a60008573ffffffffffffffffffffffffffffffffffffffff1673ffffffffffffffffffffffffffffffffffffffff16815260200190815260200160002060006101000a81548160ff0219169083151502179055505b8273ffffffffffffffffffffffffffffffffffffffff163373ffffffffffffffffffffffffffffffffffffffff167f11c9a04d40e079b6a6add720dd7c0a8ae1776acefdca6f37f4046c709a4dffcf426040516129489190614958565b60405180910390a3505050565b61295d613dc8565b60065460075410156129a4576040517f08c379a000000000000000000000000000000000000000000000000000000000815260040161299b9061535a565b60405180910390fd5b6000601860003373ffffffffffffffffffffffffffffffffffffffff1673ffffffffffffffffffffffffffffffffffffffff1681526020019081526020016000205490506000601860003373ffffffffffffffffffffffffffffffffffffffff1673ffffffffffffffffffffffffffffffffffffffff16815260200190815260200160002081905550612a37338261447d565b50565b600080600060608060606000806000601560008b73ffffffffffffffffffffffffffffffffffffffff1673ffffffffffffffffffffffffffffffffffffffff168152602001908152602001600020549050600060128281548110612aa157612aa061537a565b5b906000526020600020906007020190508060000154816001015482600201548360030184600401856005018660060160009054906101000a900460ff168760060160019054906101000a900473ffffffffffffffffffffffffffffffffffffffff16848054612b0f906156c9565b80601f0160208091040260200160405190810160405280929190818152602001828054612b3b906156c9565b8015612b885780601f10612b5d57610100808354040283529160200191612b88565b820191906000526020600020905b815481529060010190602001808311612b6b57829003601f168201915b50505050509450838054612b9b906156c9565b80601f0160208091040260200160405190810160405280929190818152602001828054612bc7906156c9565b8015612c145780601f10612be957610100808354040283529160200191612c14565b820191906000526020600020905b815481529060010190602001808311612bf757829003601f168201915b50505050509350828054612c27906156c9565b80601f0160208091040260200160405190810160405280929190818152602001828054612c53906156c9565b8015612ca05780601f10612c7557610100808354040283529160200191612ca0565b820191906000526020600020905b815481529060010190602001808311612c8357829003601f168201915b50505050509250995099509950995099509950995099505050919395975091939597565b6006546007541015612d0b576040517f08c379a0000000000000000000000000000000000000000000000000000000008152600401612d029061535a565b60405180910390fd5b6000601560003373ffffffffffffffffffffffffffffffffffffffff1673ffffffffffffffffffffffffffffffffffffffff1681526020019081526020016000205414612d8d576040517f08c379a0000000000000000000000000000000000000000000000000000000008152600401612d849061535a565b60405180910390fd5b60126040518061010001604052806000815260200160008152602001600081526020018581526020018481526020018381526020016001151581526020013373ffffffffffffffffffffffffffffffffffffffff1681525090806001815401808255809150506001900390600052602060002090600702016000909190919091506000820151816000015560208201518160010155604082015181600201556060820151816003019080519060200190612e489291906146cd565b506080820151816004019080519060200190612e659291906146cd565b5060a0820151816005019080519060200190612e829291906146cd565b5060c08201518160060160006101000a81548160ff02191690831515021790555060e08201518160060160016101000a81548173ffffffffffffffffffffffffffffffffffffffff021916908373ffffffffffffffffffffffffffffffffffffffff16021790555050506001601280549050612efe9190615556565b601560003373ffffffffffffffffffffffffffffffffffffffff1673ffffffffffffffffffffffffffffffffffffffff168152602001908152602001600020819055506001601a60003373ffffffffffffffffffffffffffffffffffffffff1673ffffffffffffffffffffffffffffffffffffffff16815260200190815260200160002060006101000a81548160ff0219169083151502179055503373ffffffffffffffffffffffffffffffffffffffff167f07acefbc52945a41d46c17d9c5b0bdba3b6d33f6a99fe6d079ba42587b7d3423848484604051612fe393929190615991565b60405180910390a2505050565b6000601560008373ffffffffffffffffffffffffffffffffffffffff1673ffffffffffffffffffffffffffffffffffffffff168152602001908152602001600020549050919050565b613041614346565b6000601e6000600860009054906101000a900473ffffffffffffffffffffffffffffffffffffffff1673ffffffffffffffffffffffffffffffffffffffff1673ffffffffffffffffffffffffffffffffffffffff1681526020019081526020016000205490506000601e6000600860009054906101000a900473ffffffffffffffffffffffffffffffffffffffff1673ffffffffffffffffffffffffffffffffffffffff1673ffffffffffffffffffffffffffffffffffffffff168152602001908152602001600020819055503373ffffffffffffffffffffffffffffffffffffffff166108fc829081150290604051600060405180830381858888f19350505050158015613154573d6000803e3d6000fd5b5050565b6000600554905090565b6000601280549050905090565b6131776142b1565b6000601560008373ffffffffffffffffffffffffffffffffffffffff1673ffffffffffffffffffffffffffffffffffffffff1681526020019081526020016000205490506000601282815481106131d1576131d061537a565b5b9060005260206000209060070201905083601860008573ffffffffffffffffffffffffffffffffffffffff1673ffffffffffffffffffffffffffffffffffffffff16815260200190815260200160002054101580156132465750600015158160060160009054906101000a900460ff16151514155b613285576040517f08c379a000000000000000000000000000000000000000000000000000000000815260040161327c9061535a565b60405180910390fd5b83601960008573ffffffffffffffffffffffffffffffffffffffff1673ffffffffffffffffffffffffffffffffffffffff16815260200190815260200160002060008282546132d49190615644565b9250508190555083601860008573ffffffffffffffffffffffffffffffffffffffff1673ffffffffffffffffffffffffffffffffffffffff168152602001908152602001600020600082825461332a9190615556565b9250508190555060001515601d60008573ffffffffffffffffffffffffffffffffffffffff1673ffffffffffffffffffffffffffffffffffffffff16815260200190815260200160002060003373ffffffffffffffffffffffffffffffffffffffff1673ffffffffffffffffffffffffffffffffffffffff16815260200190815260200160002060009054906101000a900460ff161515141561360b57601360405180604001604052808573ffffffffffffffffffffffffffffffffffffffff1681526020013373ffffffffffffffffffffffffffffffffffffffff16815250908060018154018082558091505060019003906000526020600020906002020160009091909190915060008201518160000160006101000a81548173ffffffffffffffffffffffffffffffffffffffff021916908373ffffffffffffffffffffffffffffffffffffffff16021790555060208201518160010160006101000a81548173ffffffffffffffffffffffffffffffffffffffff021916908373ffffffffffffffffffffffffffffffffffffffff16021790555050506001601d60008573ffffffffffffffffffffffffffffffffffffffff1673ffffffffffffffffffffffffffffffffffffffff16815260200190815260200160002060003373ffffffffffffffffffffffffffffffffffffffff1673ffffffffffffffffffffffffffffffffffffffff16815260200190815260200160002060006101000a81548160ff0219169083151502179055506001601660008573ffffffffffffffffffffffffffffffffffffffff1673ffffffffffffffffffffffffffffffffffffffff16815260200190815260200160002060008282546135a89190615644565b925050819055506001601760003373ffffffffffffffffffffffffffffffffffffffff1673ffffffffffffffffffffffffffffffffffffffff16815260200190815260200160002060008282546135ff9190615644565b92505081905550613612565b5050613615565b50505b5050565b613621613dc8565b6000601560008373ffffffffffffffffffffffffffffffffffffffff1673ffffffffffffffffffffffffffffffffffffffff16815260200190815260200160002054905060006012828154811061367b5761367a61537a565b5b906000526020600020906007020190508273ffffffffffffffffffffffffffffffffffffffff16601c60003373ffffffffffffffffffffffffffffffffffffffff1673ffffffffffffffffffffffffffffffffffffffff16815260200190815260200160002060008573ffffffffffffffffffffffffffffffffffffffff1673ffffffffffffffffffffffffffffffffffffffff16815260200190815260200160002060009054906101000a900473ffffffffffffffffffffffffffffffffffffffff1673ffffffffffffffffffffffffffffffffffffffff16141580156137795750600015158160060160009054906101000a900460ff16151514155b6137b8576040517f08c379a00000000000000000000000000000000000000000000000000000000081526004016137af9061535a565b60405180910390fd5b82601c60003373ffffffffffffffffffffffffffffffffffffffff1673ffffffffffffffffffffffffffffffffffffffff16815260200190815260200160002060008573ffffffffffffffffffffffffffffffffffffffff1673ffffffffffffffffffffffffffffffffffffffff16815260200190815260200160002060006101000a81548173ffffffffffffffffffffffffffffffffffffffff021916908373ffffffffffffffffffffffffffffffffffffffff16021790555060018160010160008282546138889190615644565b92505081905550600a54816001015410156138d55760008160060160009054906101000a900460ff169050808260060160006101000a81548160ff0219169083151502179055505061394b565b60008160060160006101000a81548160ff0219169083151502179055506000601a60008573ffffffffffffffffffffffffffffffffffffffff1673ffffffffffffffffffffffffffffffffffffffff16815260200190815260200160002060006101000a81548160ff0219169083151502179055505b8273ffffffffffffffffffffffffffffffffffffffff163373ffffffffffffffffffffffffffffffffffffffff167f6ceca1a3cd7cb44311239fc385b20e17433d6483d6abe63fb5c51567edd4aa4a426040516139a89190614958565b60405180910390a3505050565b6000600160008473ffffffffffffffffffffffffffffffffffffffff1673ffffffffffffffffffffffffffffffffffffffff16815260200190815260200160002060008373ffffffffffffffffffffffffffffffffffffffff1673ffffffffffffffffffffffffffffffffffffffff16815260200190815260200160002054905092915050565b6000600c54905090565b6000601f60003373ffffffffffffffffffffffffffffffffffffffff1673ffffffffffffffffffffffffffffffffffffffff168152602001908152602001600020905060065460075410158015613ab25750600015158160020160009054906101000a900460ff161515145b613af1576040517f08c379a0000000000000000000000000000000000000000000000000000000008152600401613ae89061535a565b60405180910390fd5b6000816001015490506000826001018190555060018260020160006101000a81548160ff021916908315150217905550613b2b338261447d565b5050565b613b37614346565b80600860006101000a81548173ffffffffffffffffffffffffffffffffffffffff021916908373ffffffffffffffffffffffffffffffffffffffff16021790555050565b60606000601660008473ffffffffffffffffffffffffffffffffffffffff1673ffffffffffffffffffffffffffffffffffffffff1681526020019081526020016000205467ffffffffffffffff811115613bd857613bd7614fb3565b5b604051908082528060200260200182016040528015613c1157816020015b613bfe61462a565b815260200190600190039081613bf65790505b5090506000805b601380549050811015613dbd578473ffffffffffffffffffffffffffffffffffffffff1660138281548110613c5057613c4f61537a565b5b906000526020600020906002020160000160009054906101000a900473ffffffffffffffffffffffffffffffffffffffff1673ffffffffffffffffffffffffffffffffffffffff161415613daa57600060138281548110613cb457613cb361537a565b5b90600052602060002090600202019050806040518060400160405290816000820160009054906101000a900473ffffffffffffffffffffffffffffffffffffffff1673ffffffffffffffffffffffffffffffffffffffff1673ffffffffffffffffffffffffffffffffffffffff1681526020016001820160009054906101000a900473ffffffffffffffffffffffffffffffffffffffff1673ffffffffffffffffffffffffffffffffffffffff1673ffffffffffffffffffffffffffffffffffffffff1681525050848481518110613d8f57613d8e61537a565b5b60200260200101819052508280613da59061578d565b935050505b8080613db59061578d565b915050613c18565b508192505050919050565b60011515601a60003373ffffffffffffffffffffffffffffffffffffffff1673ffffffffffffffffffffffffffffffffffffffff16815260200190815260200160002060009054906101000a900460ff16151514613e5b576040517f08c379a0000000000000000000000000000000000000000000000000000000008152600401613e5290615a29565b60405180910390fd5b565b600033905090565b600073ffffffffffffffffffffffffffffffffffffffff168373ffffffffffffffffffffffffffffffffffffffff161415613ed5576040517f08c379a0000000000000000000000000000000000000000000000000000000008152600401613ecc90615abb565b60405180910390fd5b600073ffffffffffffffffffffffffffffffffffffffff168273ffffffffffffffffffffffffffffffffffffffff161415613f45576040517f08c379a0000000000000000000000000000000000000000000000000000000008152600401613f3c90615b4d565b60405180910390fd5b80600160008573ffffffffffffffffffffffffffffffffffffffff1673ffffffffffffffffffffffffffffffffffffffff16815260200190815260200160002060008473ffffffffffffffffffffffffffffffffffffffff1673ffffffffffffffffffffffffffffffffffffffff168152602001908152602001600020819055508173ffffffffffffffffffffffffffffffffffffffff168373ffffffffffffffffffffffffffffffffffffffff167f8c5be1e5ebec7d5bd14f71427d1e84f3dd0314c0f7b2291e5b200ac8c7c3b925836040516140239190614958565b60405180910390a3505050565b600073ffffffffffffffffffffffffffffffffffffffff168373ffffffffffffffffffffffffffffffffffffffff1614156140a0576040517f08c379a000000000000000000000000000000000000000000000000000000000815260040161409790615bdf565b60405180910390fd5b600073ffffffffffffffffffffffffffffffffffffffff168273ffffffffffffffffffffffffffffffffffffffff161415614110576040517f08c379a000000000000000000000000000000000000000000000000000000000815260040161410790615c71565b60405180910390fd5b61411b8383836145dd565b60008060008573ffffffffffffffffffffffffffffffffffffffff1673ffffffffffffffffffffffffffffffffffffffff168152602001908152602001600020549050818110156141a1576040517f08c379a000000000000000000000000000000000000000000000000000000000815260040161419890615d03565b60405180910390fd5b8181036000808673ffffffffffffffffffffffffffffffffffffffff1673ffffffffffffffffffffffffffffffffffffffff16815260200190815260200160002081905550816000808573ffffffffffffffffffffffffffffffffffffffff1673ffffffffffffffffffffffffffffffffffffffff16815260200190815260200160002060008282546142349190615644565b925050819055508273ffffffffffffffffffffffffffffffffffffffff168473ffffffffffffffffffffffffffffffffffffffff167fddf252ad1be2c89b69c2b068fc378daa952ba7f163c4a11628f55a4df523b3ef846040516142989190614958565b60405180910390a36142ab8484846145e2565b50505050565b60011515601b60003373ffffffffffffffffffffffffffffffffffffffff1673ffffffffffffffffffffffffffffffffffffffff16815260200190815260200160002060009054906101000a900460ff16151514614344576040517f08c379a000000000000000000000000000000000000000000000000000000000815260040161433b90615d6f565b60405180910390fd5b565b600860009054906101000a900473ffffffffffffffffffffffffffffffffffffffff1673ffffffffffffffffffffffffffffffffffffffff163373ffffffffffffffffffffffffffffffffffffffff16146143d6576040517f08c379a00000000000000000000000000000000000000000000000000000000081526004016143cd90615ddb565b60405180910390fd5b565b6000816040516020016143eb9190615e7d565b604051602081830303815290604052805190602001209050919050565b600080600080614417856145e7565b809350819450829550505050600186848484604051600081526020016040526040516144469493929190615eb2565b6020604051602081039080840390855afa158015614468573d6000803e3d6000fd5b50505060206040510351935050505092915050565b600073ffffffffffffffffffffffffffffffffffffffff168273ffffffffffffffffffffffffffffffffffffffff1614156144ed576040517f08c379a00000000000000000000000000000000000000000000000000000000081526004016144e490615f43565b60405180910390fd5b6144f9600083836145dd565b806002600082825461450b9190615644565b92505081905550806000808473ffffffffffffffffffffffffffffffffffffffff1673ffffffffffffffffffffffffffffffffffffffff16815260200190815260200160002060008282546145609190615644565b925050819055508173ffffffffffffffffffffffffffffffffffffffff16600073ffffffffffffffffffffffffffffffffffffffff167fddf252ad1be2c89b69c2b068fc378daa952ba7f163c4a11628f55a4df523b3ef836040516145c59190614958565b60405180910390a36145d9600083836145e2565b5050565b505050565b505050565b600080600060418451146145fa57600080fd5b60008060006020870151925060408701519150606087015160001a90508083839550955095505050509193909250565b6040518060400160405280600073ffffffffffffffffffffffffffffffffffffffff168152602001600073ffffffffffffffffffffffffffffffffffffffff1681525090565b604051806101000160405280600081526020016000815260200160008152602001606081526020016060815260200160608152602001600015158152602001600073ffffffffffffffffffffffffffffffffffffffff1681525090565b8280546146d9906156c9565b90600052602060002090601f0160209004810192826146fb5760008555614742565b82601f1061471457805160ff1916838001178555614742565b82800160010185558215614742579182015b82811115614741578251825591602001919060010190614726565b5b50905061474f9190614753565b5090565b5b8082111561476c576000816000905550600101614754565b5090565b600081519050919050565b600082825260208201905092915050565b60005b838110156147aa57808201518184015260208101905061478f565b838111156147b9576000848401525b50505050565b6000601f19601f8301169050919050565b60006147db82614770565b6147e5818561477b565b93506147f581856020860161478c565b6147fe816147bf565b840191505092915050565b6000602082019050818103600083015261482381846147d0565b905092915050565b6000604051905090565b600080fd5b600080fd5b600073ffffffffffffffffffffffffffffffffffffffff82169050919050565b600061486a8261483f565b9050919050565b61487a8161485f565b811461488557600080fd5b50565b60008135905061489781614871565b92915050565b6000819050919050565b6148b08161489d565b81146148bb57600080fd5b50565b6000813590506148cd816148a7565b92915050565b600080604083850312156148ea576148e9614835565b5b60006148f885828601614888565b9250506020614909858286016148be565b9150509250929050565b60008115159050919050565b61492881614913565b82525050565b6000602082019050614943600083018461491f565b92915050565b6149528161489d565b82525050565b600060208201905061496d6000830184614949565b92915050565b60006020828403121561498957614988614835565b5b600061499784828501614888565b91505092915050565b6000806000606084860312156149b9576149b8614835565b5b60006149c786828701614888565b93505060206149d886828701614888565b92505060406149e9868287016148be565b9150509250925092565b600060ff82169050919050565b614a09816149f3565b82525050565b6000602082019050614a246000830184614a00565b92915050565b614a338161485f565b82525050565b6000602082019050614a4e6000830184614a2a565b92915050565b6000606082019050614a696000830186614949565b614a766020830185614949565b614a83604083018461491f565b949350505050565b600061016082019050614aa1600083018e614949565b614aae602083018d614949565b614abb604083018c614949565b614ac8606083018b614949565b614ad5608083018a614949565b614ae260a0830189614949565b614aef60c0830188614a2a565b614afc60e0830187614949565b614b0a610100830186614949565b614b18610120830185614949565b614b26610140830184614949565b9c9b505050505050505050505050565b60008060408385031215614b4d57614b4c614835565b5b6000614b5b858286016148be565b9250506020614b6c85828601614888565b9150509250929050565b60008060008060808587031215614b9057614b8f614835565b5b6000614b9e87828801614888565b9450506020614baf878288016148be565b9350506040614bc087828801614888565b9250506060614bd1878288016148be565b91505092959194509250565b600081519050919050565b600082825260208201905092915050565b6000819050602082019050919050565b614c128161485f565b82525050565b604082016000820151614c2e6000850182614c09565b506020820151614c416020850182614c09565b50505050565b6000614c538383614c18565b60408301905092915050565b6000602082019050919050565b6000614c7782614bdd565b614c818185614be8565b9350614c8c83614bf9565b8060005b83811015614cbd578151614ca48882614c47565b9750614caf83614c5f565b925050600181019050614c90565b5085935050505092915050565b60006020820190508181036000830152614ce48184614c6c565b905092915050565b600080600060608486031215614d0557614d04614835565b5b6000614d13868287016148be565b9350506020614d24868287016148be565b9250506040614d35868287016148be565b9150509250925092565b600081519050919050565b600082825260208201905092915050565b6000819050602082019050919050565b614d748161489d565b82525050565b600082825260208201905092915050565b6000614d9682614770565b614da08185614d7a565b9350614db081856020860161478c565b614db9816147bf565b840191505092915050565b614dcd81614913565b82525050565b600061010083016000830151614dec6000860182614d6b565b506020830151614dff6020860182614d6b565b506040830151614e126040860182614d6b565b5060608301518482036060860152614e2a8282614d8b565b91505060808301518482036080860152614e448282614d8b565b91505060a083015184820360a0860152614e5e8282614d8b565b91505060c0830151614e7360c0860182614dc4565b5060e0830151614e8660e0860182614c09565b508091505092915050565b6000614e9d8383614dd3565b905092915050565b6000602082019050919050565b6000614ebd82614d3f565b614ec78185614d4a565b935083602082028501614ed985614d5b565b8060005b85811015614f155784840389528151614ef68582614e91565b9450614f0183614ea5565b925060208a01995050600181019050614edd565b50829750879550505050505092915050565b60006020820190508181036000830152614f418184614eb2565b905092915050565b600080fd5b600080fd5b600080fd5b60008083601f840112614f6e57614f6d614f49565b5b8235905067ffffffffffffffff811115614f8b57614f8a614f4e565b5b602083019150836001820283011115614fa757614fa6614f53565b5b9250929050565b600080fd5b7f4e487b7100000000000000000000000000000000000000000000000000000000600052604160045260246000fd5b614feb826147bf565b810181811067ffffffffffffffff8211171561500a57615009614fb3565b5b80604052505050565b600061501d61482b565b90506150298282614fe2565b919050565b600067ffffffffffffffff82111561504957615048614fb3565b5b615052826147bf565b9050602081019050919050565b82818337600083830152505050565b600061508161507c8461502e565b615013565b90508281526020810184848401111561509d5761509c614fae565b5b6150a884828561505f565b509392505050565b600082601f8301126150c5576150c4614f49565b5b81356150d584826020860161506e565b91505092915050565b6000806000806000608086880312156150fa576150f9614835565b5b600086013567ffffffffffffffff8111156151185761511761483a565b5b61512488828901614f58565b9550955050602086013567ffffffffffffffff8111156151475761514661483a565b5b615153888289016150b0565b935050604086013567ffffffffffffffff8111156151745761517361483a565b5b615180888289016150b0565b925050606086013567ffffffffffffffff8111156151a1576151a061483a565b5b6151ad888289016150b0565b9150509295509295909350565b6000610100820190506151d0600083018b614949565b6151dd602083018a614949565b6151ea6040830189614949565b81810360608301526151fc81886147d0565b9050818103608083015261521081876147d0565b905081810360a083015261522481866147d0565b905061523360c083018561491f565b61524060e0830184614a2a565b9998505050505050505050565b60008060006060848603121561526657615265614835565b5b600084013567ffffffffffffffff8111156152845761528361483a565b5b615290868287016150b0565b935050602084013567ffffffffffffffff8111156152b1576152b061483a565b5b6152bd868287016150b0565b925050604084013567ffffffffffffffff8111156152de576152dd61483a565b5b6152ea868287016150b0565b9150509250925092565b6000806040838503121561530b5761530a614835565b5b600061531985828601614888565b925050602061532a85828601614888565b9150509250929050565b50565b600061534460008361477b565b915061534f82615334565b600082019050919050565b6000602082019050818103600083015261537381615337565b9050919050565b7f4e487b7100000000000000000000000000000000000000000000000000000000600052603260045260246000fd5b7f4e487b7100000000000000000000000000000000000000000000000000000000600052601160045260246000fd5b60008160011c9050919050565b6000808291508390505b600185111561542f5780860481111561540b5761540a6153a9565b5b600185161561541a5780820291505b8081029050615428856153d8565b94506153ef565b94509492505050565b6000826154485760019050615504565b816154565760009050615504565b816001811461546c5760028114615476576154a5565b6001915050615504565b60ff841115615488576154876153a9565b5b8360020a91508482111561549f5761549e6153a9565b5b50615504565b5060208310610133831016604e8410600b84101617156154da5782820a9050838111156154d5576154d46153a9565b5b615504565b6154e784848460016153e5565b925090508184048111156154fe576154fd6153a9565b5b81810290505b9392505050565b60006155168261489d565b91506155218361489d565b925061554e7fffffffffffffffffffffffffffffffffffffffffffffffffffffffffffffffff8484615438565b905092915050565b60006155618261489d565b915061556c8361489d565b92508282101561557f5761557e6153a9565b5b828203905092915050565b60006155958261489d565b91506155a08361489d565b9250817fffffffffffffffffffffffffffffffffffffffffffffffffffffffffffffffff04831182151516156155d9576155d86153a9565b5b828202905092915050565b7f4e487b7100000000000000000000000000000000000000000000000000000000600052601260045260246000fd5b600061561e8261489d565b91506156298361489d565b925082615639576156386155e4565b5b828204905092915050565b600061564f8261489d565b915061565a8361489d565b9250827fffffffffffffffffffffffffffffffffffffffffffffffffffffffffffffffff0382111561568f5761568e6153a9565b5b828201905092915050565b7f4e487b7100000000000000000000000000000000000000000000000000000000600052602260045260246000fd5b600060028204905060018216806156e157607f821691505b602082108114156156f5576156f461569a565b5b50919050565b7f45524332303a207472616e7366657220616d6f756e742065786365656473206160008201527f6c6c6f77616e6365000000000000000000000000000000000000000000000000602082015250565b600061575760288361477b565b9150615762826156fb565b604082019050919050565b600060208201905081810360008301526157868161574a565b9050919050565b60006157988261489d565b91507fffffffffffffffffffffffffffffffffffffffffffffffffffffffffffffffff8214156157cb576157ca6153a9565b5b600182019050919050565b60008160601b9050919050565b60006157ee826157d6565b9050919050565b6000615800826157e3565b9050919050565b6158186158138261485f565b6157f5565b82525050565b600061582a8284615807565b60148201915081905092915050565b7f696e76616c69645369674f72416c526567000000000000000000000000000000600082015250565b600061586f60118361477b565b915061587a82615839565b602082019050919050565b6000602082019050818103600083015261589e81615862565b9050919050565b60006080820190506158ba6000830187614949565b81810360208301526158cc81866147d0565b905081810360408301526158e081856147d0565b905081810360608301526158f481846147d0565b905095945050505050565b7f45524332303a2064656372656173656420616c6c6f77616e63652062656c6f7760008201527f207a65726f000000000000000000000000000000000000000000000000000000602082015250565b600061595b60258361477b565b9150615966826158ff565b604082019050919050565b6000602082019050818103600083015261598a8161594e565b9050919050565b600060608201905081810360008301526159ab81866147d0565b905081810360208301526159bf81856147d0565b905081810360408301526159d381846147d0565b9050949350505050565b7f626c000000000000000000000000000000000000000000000000000000000000600082015250565b6000615a1360028361477b565b9150615a1e826159dd565b602082019050919050565b60006020820190508181036000830152615a4281615a06565b9050919050565b7f45524332303a20617070726f76652066726f6d20746865207a65726f2061646460008201527f7265737300000000000000000000000000000000000000000000000000000000602082015250565b6000615aa560248361477b565b9150615ab082615a49565b604082019050919050565b60006020820190508181036000830152615ad481615a98565b9050919050565b7f45524332303a20617070726f766520746f20746865207a65726f20616464726560008201527f7373000000000000000000000000000000000000000000000000000000000000602082015250565b6000615b3760228361477b565b9150615b4282615adb565b604082019050919050565b60006020820190508181036000830152615b6681615b2a565b9050919050565b7f45524332303a207472616e736665722066726f6d20746865207a65726f20616460008201527f6472657373000000000000000000000000000000000000000000000000000000602082015250565b6000615bc960258361477b565b9150615bd482615b6d565b604082019050919050565b60006020820190508181036000830152615bf881615bbc565b9050919050565b7f45524332303a207472616e7366657220746f20746865207a65726f206164647260008201527f6573730000000000000000000000000000000000000000000000000000000000602082015250565b6000615c5b60238361477b565b9150615c6682615bff565b604082019050919050565b60006020820190508181036000830152615c8a81615c4e565b9050919050565b7f45524332303a207472616e7366657220616d6f756e742065786365656473206260008201527f616c616e63650000000000000000000000000000000000000000000000000000602082015250565b6000615ced60268361477b565b9150615cf882615c91565b604082019050919050565b60006020820190508181036000830152615d1c81615ce0565b9050919050565b7f6663000000000000000000000000000000000000000000000000000000000000600082015250565b6000615d5960028361477b565b9150615d6482615d23565b602082019050919050565b60006020820190508181036000830152615d8881615d4c565b9050919050565b7f6f61000000000000000000000000000000000000000000000000000000000000600082015250565b6000615dc560028361477b565b9150615dd082615d8f565b602082019050919050565b60006020820190508181036000830152615df481615db8565b9050919050565b600081905092915050565b7f19457468657265756d205369676e6564204d6573736167653a0a333200000000600082015250565b6000615e3c601c83615dfb565b9150615e4782615e06565b601c82019050919050565b6000819050919050565b6000819050919050565b615e77615e7282615e52565b615e5c565b82525050565b6000615e8882615e2f565b9150615e948284615e66565b60208201915081905092915050565b615eac81615e52565b82525050565b6000608082019050615ec76000830187615ea3565b615ed46020830186614a00565b615ee16040830185615ea3565b615eee6060830184615ea3565b95945050505050565b7f45524332303a206d696e7420746f20746865207a65726f206164647265737300600082015250565b6000615f2d601f8361477b565b9150615f3882615ef7565b602082019050919050565b60006020820190508181036000830152615f5c81615f20565b905091905056fea2646970667358221220bf363a3de1d716d9194777f76685d885f9ac9f5ffe5ffc3408bb812f9761fe7b64736f6c634300080a0033",
  "immutableReferences": {},
  "source": "  // SPDX-License-Identifier: MIT\n  pragma solidity 0.8.10;\n\n  import \"@openzeppelin/contracts/token/ERC20/ERC20.sol\";\n\n  contract slice is ERC20 {\n      \n      uint start;\n      uint vTotalSupply;\n      uint vSupply;\n      address listAdmin;\n      address signer; \n      uint wenBlock;\n      uint maxGoodCount;\n      uint mintingSpeed;\n      uint goodPrice;\n      address public marketing1;\n      bool longTermReward1;\n      uint fightMintBalance;\n      uint fightMintSupply;\n      address ff;\n\n          function _a() private view {\n            require ((whitelist[msg.sender]==true), \"bl\");\n          }\n          modifier onlyWhitelisted() {\n            _a();\n            _;\n          }\n          function _fc() private view {\n            require ((whitelistFc[msg.sender]==true), \"fc\");\n          }\n          modifier onlyWhitelistedFc() {\n            _fc();\n            _;\n          }\n          \n\n          function _admin() private view {\n            require(msg.sender == listAdmin, \"oa\");\n          }\n          modifier onlyAdmin() {\n            _admin();\n            _;\n          }\n\n      constructor (string memory name, string memory symbol) ERC20(name, symbol) {\n        start = block.timestamp;\n        vTotalSupply = 3027456000 * 10 ** uint(decimals());\n        fightMintSupply = 567648000 * 10 ** uint(decimals());\n        listAdmin = msg.sender;\n        signer = 0xD6AF7959290caeE9E8564EC80a33b92335d6232C;\n        marketing1= 0xa16392cB56E13367578795db9f6459485571d2fA;\n        wenBlock=2;\n        maxGoodCount=1;\n        mintingSpeed=3600;\n        goodPrice=10000000000000000;\n        longTermReward1=false;\n      }\n\n      struct Minters {\n          uint goodCount;\n          uint reported;\n          uint lastMinted;\n          string gpsLat;\n          string gpsLon;\n          string nickname;\n          bool whitelisted;\n          address addr;\n      }\n      Minters[] mintersDB;\n      \n      struct StakedContracts {\n          address staker;\n          address fightContract;\n      }\n      StakedContracts []  stakersList;\n\n      mapping(address => Minters) minters;\n      mapping(address => uint) index;\n      mapping (address=>uint )  stakedContractsCounter;\n      mapping (address=>uint )  stakedFightCounter;\n      mapping (address => uint) vSliceBalances;\n      mapping (address => uint) stakedVSlices;\n      mapping (address => bool) whitelist;\n      mapping (address => bool) whitelistFc;\n      mapping (address => mapping(address=> address))  challengers;\n      mapping (address => mapping(address=> bool))  stakers;\n      mapping (address => uint) pw;\n      error NotEnoughEther();\n      \n      struct Entry{\n        uint index;\n        uint value;\n        bool minted;\n                }\n      mapping(address => Entry)  map;\n      address[]  keyList;\n   \n   // ff whitelist\n   function addFightToWl(address _fcont) external {\n     require(msg.sender==ff, '');\n     whitelistFc[_fcont] = true;\n   }\n   // Fight mint\n   event finishedFight (address indexed fa);\n    function fightMint(address _fa, uint _users, address _ls, uint _spotCounter) external onlyWhitelistedFc {\n      if ((fightMintBalance < fightMintSupply) && (_ls != msg.sender) && (_spotCounter>=3)) {\n        Entry storage entry = map[_fa];\n        entry.value += _users * _spotCounter * 1000 * 10 ** uint(decimals());\n        fightMintBalance += _users * _spotCounter * 1000 * 10 ** uint(decimals());\n        if(entry.index > 0){\n            return;\n        }else {\n            keyList.push(_fa);\n            uint keyListIndex = keyList.length - 1;\n            entry.index = keyListIndex + 1;\n        }\n      }\n      else return;\n      emit finishedFight(_fa);\n    }\n\n    function rewards_for_fights() external {\n    Entry storage entry = map[msg.sender];\n    require(vSupply>=vTotalSupply && entry.minted==false, \"\");\n    uint mint_amount = entry.value;\n    entry.value=0;\n    entry.minted = true;\n    _mint(msg.sender, mint_amount);\n     } \n\n    function readFightRewards (address _addr)  public view returns (uint, uint, bool) {\n     Entry storage m = map[_addr];\n    return (m.index, m.value, m.minted);\n      }\n\n    function marketing_reward() external {\n    require(vSupply>=vTotalSupply && msg.sender==marketing1 && longTermReward1==false, \"\");\n    longTermReward1 = true;\n    _mint(msg.sender, (189216000 * 10 ** uint(decimals())));\n      }\n    function changeMarketing1(address _addr1) public {\n    require(msg.sender==marketing1, '');\n    marketing1=_addr1;\n      }\n\n      event BadActors(uint date, address indexed reporter, address indexed reported);\n      function reportBadActor(address _addr) external onlyWhitelisted {\n      uint indx = index[_addr];\n      Minters storage m = mintersDB[indx];\n      require (challengers[msg.sender][_addr] != _addr && m.whitelisted!=false, \"\");\n      challengers[msg.sender][_addr] = _addr;\n      m.reported += 1;\n      if (m.reported <wenBlock) \n          {bool existingStatus=m.whitelisted;\n            m.whitelisted=existingStatus;\n      }else {\n          m.whitelisted=false;\n          whitelist[_addr] = false;\n      }\n      emit BadActors (block.timestamp, msg.sender, _addr);\n      }\n      \n      event GoodActors(uint date, address indexed reporter, address indexed reported);\n      function reportGoodActor(address _addr) external payable onlyWhitelisted {\n      uint indx = index[_addr];\n      Minters storage m = mintersDB[indx];\n      require (msg.sender != _addr, \"\");\n      require (challengers[msg.sender][_addr] != _addr, \"\");\n      require (m.goodCount<maxGoodCount, \"\");\n      require (m.reported>0, \"\");\n      if (msg.value != goodPrice) revert NotEnoughEther();\n      pw[listAdmin]+= goodPrice;\n      challengers[msg.sender][_addr] = _addr;\n      m.reported -= 1;\n      m.goodCount+=1;\n      if (m.reported >=wenBlock)  \n          {bool existingStatus=m.whitelisted;\n            m.whitelisted=existingStatus;\n      }else {\n          m.whitelisted=true;\n          whitelist[_addr] = true;\n      } \n      emit GoodActors (block.timestamp, msg.sender, _addr);\n      }\n      \n      event mintersFree(address indexed minter, string Lat, string Lon, string Nick); \n      function AddToWhitelist (string memory  _gpsLat,string memory  _gpsLon, string memory _nickname) external {\n      require(vSupply>= vTotalSupply, \"\");\n      require(index[msg.sender]==0, \"\");\n      mintersDB.push(Minters(0, 0, 0, _gpsLat, _gpsLon, _nickname, true, msg.sender));\n      index[msg.sender] = mintersDB.length-1;\n      whitelist[msg.sender] = true;\n      emit mintersFree(msg.sender,_gpsLat, _gpsLon, _nickname);\n    }\n          \n         \n      event newMinter(uint date, address indexed minter, string Lat, string Lon, string Nick);\n      function addToWhitelist_a7I(bytes calldata signature, string memory _gpsLat,string memory _gpsLon, string memory _nickname) external {\n      bytes32 message = prefixed(keccak256(abi.encodePacked(\n        msg.sender\n      )));\n      require(recoverSigner(message, signature) == signer && index[msg.sender]==0 , \"invalidSigOrAlReg\");\n      mintersDB.push(Minters(0, 0, 0, _gpsLat, _gpsLon, _nickname, true, msg.sender));\n      index[msg.sender] = mintersDB.length-1;\n      whitelist[msg.sender] = true;\n      emit newMinter(block.timestamp, msg.sender,_gpsLat, _gpsLon, _nickname);\n    }\n\n    function prefixed(bytes32 hash) internal pure returns (bytes32) {\n      return keccak256(abi.encodePacked(\n        '\\x19Ethereum Signed Message:\\n32', \n        hash\n      ));\n    }\n\n    function recoverSigner(bytes32 message, bytes memory sig)\n      internal\n      pure\n      returns (address)\n    {\n      uint8 v;\n      bytes32 r;\n      bytes32 s;\n    \n      (v, r, s) = splitSignature(sig);\n    \n      return ecrecover(message, v, r, s);\n    }\n\n    function splitSignature(bytes memory sig)\n      internal\n      pure\n      returns (uint8, bytes32, bytes32)\n    {\n      require(sig.length == 65);\n    \n      bytes32 r;\n      bytes32 s;\n      uint8 v;\n    \n      assembly {\n          // first 32 bytes, after the length prefix\n          r := mload(add(sig, 32))\n          // second 32 bytes\n          s := mload(add(sig, 64))\n          // final byte (first byte of the next 32 bytes)\n          v := byte(0, mload(add(sig, 96)))\n      }\n    \n      return (v, r, s);\n    }\n\n      function SliceMinting() external onlyWhitelisted {\n          require(vSupply>=vTotalSupply, \"\");\n          uint amount = vSliceBalances[msg.sender];\n          vSliceBalances[msg.sender]=0;\n          _mint(msg.sender, amount);\n\n      }\n\n      function vSliceMinting_ExW() external onlyWhitelisted {\n              require(vSupply<= vTotalSupply, \"\");\n              uint indx = index[msg.sender];\n              Minters storage m = mintersDB[indx];\n              uint mint;\n              uint diff;\n          if (m.lastMinted == 0) {\n              mint = (block.timestamp-start)* 10 ** uint(decimals());\n              vSliceBalances[msg.sender]+= mint/mintingSpeed;\n              m.lastMinted = block.timestamp;\n              vSupply+= mint/mintingSpeed;}\n          else {\n              diff = block.timestamp - m.lastMinted;\n              mint = diff* 10 ** uint(decimals());\n              vSliceBalances[msg.sender]+= mint/mintingSpeed;\n              m.lastMinted = block.timestamp;\n              vSupply+= mint/mintingSpeed;}\n\n      }\n      \n      \n      function stakeVSlice_h56(uint _amount, address _addr) external onlyWhitelistedFc {\n          uint indx = index[_addr];\n          Minters storage m = mintersDB[indx];\n          require (vSliceBalances[_addr] >= _amount && m.whitelisted!=false, \"\");\n          stakedVSlices[_addr] += _amount;\n          vSliceBalances[_addr] -= _amount;\n          if (stakers[_addr][msg.sender] == false) {\n              stakersList.push(StakedContracts(_addr, msg.sender));\n              stakers[_addr][msg.sender] = true;\n              stakedContractsCounter[_addr] += 1;\n              stakedFightCounter[msg.sender] +=1;\n          } else {return;}\n          \n      }\n      \n      function unstakeVSlice_Hha(uint _amount, address _addr) external onlyWhitelistedFc {\n          uint indx = index[_addr];\n          Minters storage m = mintersDB[indx];\n          require(stakedVSlices[_addr]>=_amount && m.whitelisted!=false, \"\");\n          stakedVSlices[_addr] -= _amount;\n          vSliceBalances[_addr] += _amount;\n          \n      }\n     \n//GETTERs\n      function getStakedByStaker(address _owner) view external returns (StakedContracts[] memory){\n        StakedContracts[]    memory id = new StakedContracts[](stakedContractsCounter[_owner]);\n            uint counter = 0;\n            \n        for (uint i = 0; i < stakersList.length; i++) {\n            if (stakersList[i].staker == _owner) {\n          StakedContracts storage list = stakersList[i];\n            id[counter] = list;\n            counter++;\n        }\n      }\n        return id;\n    }\n      function getStakedByFight(address _fight) view external returns (StakedContracts[] memory){\n        StakedContracts[]    memory id = new StakedContracts[](stakedFightCounter[_fight]);\n            uint counter = 0;\n            \n        for (uint i = 0; i < stakersList.length; i++) {\n            if (stakersList[i].fightContract== _fight) {\n          StakedContracts storage list = stakersList[i];\n            id[counter] = list;\n            counter++;\n        }\n      }\n        return id;\n    }\n      function getAllMinters() public view returns (Minters[] memory){\n        Minters[]    memory id = new Minters[](mintersDB.length);\n        for (uint i = 0; i < mintersDB.length; i++) {\n            Minters storage mint = mintersDB[i];\n            id[i] = mint;\n        }\n        return id;\n    }\n      function getMinter(address _addr)  view external returns (uint, uint, uint, string memory, string memory,string memory, bool, address) {\n          uint indx = index[_addr];\n          Minters storage m = mintersDB[indx];\n          return (m.goodCount, m.reported,m.lastMinted, m.gpsLat, m.gpsLon, m.nickname, m.whitelisted, m.addr);\n      }\n      function  wl(address _addr) view external  returns (bool) {\n          return whitelist[_addr] ;\n      }\n      function vSliceViewBalance (address _addr) view external returns (uint) {\n      return vSliceBalances[_addr];\n      }\n      function isRegistered (address _addr) view external returns(uint) {\n           return index[_addr];\n      }\n      function getMintingSpeed() public view returns (uint) {\n          return mintingSpeed;\n      }\n      function getStakedBalance () view external returns (uint) {\n      return stakedVSlices[msg.sender];\n      }\n      function getStart () view external returns (uint) {\n      return start;\n      }\n \n      function getGoodP () view external returns (uint) {\n      return goodPrice;\n        }\n\n      function countMinters() view external returns(uint) {\n      return mintersDB.length;\n      }\n\n      function sliceParams() view external returns (uint, uint, uint, uint, uint, uint, address, uint, uint, uint, uint) {\n      return (vSupply, vTotalSupply, wenBlock, maxGoodCount, mintingSpeed, goodPrice, signer, pw[listAdmin],fightMintSupply,fightMintBalance,fightMintSupply);\n      }\n// SETTERs only admin\n\n    function reputation() public onlyAdmin{\n      uint amount = pw[listAdmin];\n      pw[listAdmin] = 0;\n      payable(msg.sender).transfer(amount);\n      }\n    function setFF (address _addr) external onlyAdmin{\n      ff = _addr;\n      }\n    function updateAdmin(address newAdmin) external onlyAdmin{\n      listAdmin = newAdmin;\n      }\n    function updateSigner(address _newSigner) external onlyAdmin{\n      signer = _newSigner;\n      }\n    function adminUpdate(uint _maxGoodcount, uint _wenBlockCount, uint _p) external onlyAdmin{\n      maxGoodCount = _maxGoodcount;\n      wenBlock = _wenBlockCount;\n      goodPrice = _p;\n      }\n  }",
  "sourcePath": "/Users/stanislavpavlovic/Desktop/Slice/ee/contracts/slice.sol",
  "compiler": {
    "name": "solc",
    "version": "0.8.10+commit.fc410830.Emscripten.clang"
  },
  "schemaVersion": "3.4.3",
  "updatedAt": "2022-04-29T11:21:13.998Z",
  "networkType": "ethereum",
  "devdoc": {
    "kind": "dev",
    "methods": {
      "allowance(address,address)": {
        "details": "See {IERC20-allowance}."
      },
      "approve(address,uint256)": {
        "details": "See {IERC20-approve}. Requirements: - `spender` cannot be the zero address."
      },
      "balanceOf(address)": {
        "details": "See {IERC20-balanceOf}."
      },
      "decimals()": {
        "details": "Returns the number of decimals used to get its user representation. For example, if `decimals` equals `2`, a balance of `505` tokens should be displayed to a user as `5.05` (`505 / 10 ** 2`). Tokens usually opt for a value of 18, imitating the relationship between Ether and Wei. This is the value {ERC20} uses, unless this function is overridden; NOTE: This information is only used for _display_ purposes: it in no way affects any of the arithmetic of the contract, including {IERC20-balanceOf} and {IERC20-transfer}."
      },
      "decreaseAllowance(address,uint256)": {
        "details": "Atomically decreases the allowance granted to `spender` by the caller. This is an alternative to {approve} that can be used as a mitigation for problems described in {IERC20-approve}. Emits an {Approval} event indicating the updated allowance. Requirements: - `spender` cannot be the zero address. - `spender` must have allowance for the caller of at least `subtractedValue`."
      },
      "increaseAllowance(address,uint256)": {
        "details": "Atomically increases the allowance granted to `spender` by the caller. This is an alternative to {approve} that can be used as a mitigation for problems described in {IERC20-approve}. Emits an {Approval} event indicating the updated allowance. Requirements: - `spender` cannot be the zero address."
      },
      "name()": {
        "details": "Returns the name of the token."
      },
      "symbol()": {
        "details": "Returns the symbol of the token, usually a shorter version of the name."
      },
      "totalSupply()": {
        "details": "See {IERC20-totalSupply}."
      },
      "transfer(address,uint256)": {
        "details": "See {IERC20-transfer}. Requirements: - `recipient` cannot be the zero address. - the caller must have a balance of at least `amount`."
      },
      "transferFrom(address,address,uint256)": {
        "details": "See {IERC20-transferFrom}. Emits an {Approval} event indicating the updated allowance. This is not required by the EIP. See the note at the beginning of {ERC20}. Requirements: - `sender` and `recipient` cannot be the zero address. - `sender` must have a balance of at least `amount`. - the caller must have allowance for ``sender``'s tokens of at least `amount`."
      }
    },
    "version": 1
  },
  "userdoc": {
    "kind": "user",
    "methods": {},
    "version": 1
  }
}