{
  "contractName": "slice",
  "abi": [
    {
      "inputs": [
        {
          "internalType": "string",
          "name": "name",
          "type": "string"
        },
        {
          "internalType": "string",
          "name": "symbol",
          "type": "string"
        }
      ],
      "stateMutability": "nonpayable",
      "type": "constructor"
    },
    {
      "inputs": [],
      "name": "NotEnoughEther",
      "type": "error"
    },
    {
      "anonymous": false,
      "inputs": [
        {
          "indexed": true,
          "internalType": "address",
          "name": "owner",
          "type": "address"
        },
        {
          "indexed": true,
          "internalType": "address",
          "name": "spender",
          "type": "address"
        },
        {
          "indexed": false,
          "internalType": "uint256",
          "name": "value",
          "type": "uint256"
        }
      ],
      "name": "Approval",
      "type": "event"
    },
    {
      "anonymous": false,
      "inputs": [
        {
          "indexed": false,
          "internalType": "uint256",
          "name": "date",
          "type": "uint256"
        },
        {
          "indexed": true,
          "internalType": "address",
          "name": "reporter",
          "type": "address"
        },
        {
          "indexed": true,
          "internalType": "address",
          "name": "reported",
          "type": "address"
        }
      ],
      "name": "BadActors",
      "type": "event"
    },
    {
      "anonymous": false,
      "inputs": [
        {
          "indexed": true,
          "internalType": "address",
          "name": "_from",
          "type": "address"
        },
        {
          "indexed": true,
          "internalType": "address",
          "name": "_to",
          "type": "address"
        },
        {
          "indexed": false,
          "internalType": "string",
          "name": "message",
          "type": "string"
        }
      ],
      "name": "Chat",
      "type": "event"
    },
    {
      "anonymous": false,
      "inputs": [
        {
          "indexed": false,
          "internalType": "uint256",
          "name": "date",
          "type": "uint256"
        },
        {
          "indexed": true,
          "internalType": "address",
          "name": "reporter",
          "type": "address"
        },
        {
          "indexed": true,
          "internalType": "address",
          "name": "reported",
          "type": "address"
        }
      ],
      "name": "GoodActors",
      "type": "event"
    },
    {
      "anonymous": false,
      "inputs": [
        {
          "indexed": false,
          "internalType": "uint256",
          "name": "date",
          "type": "uint256"
        },
        {
          "indexed": true,
          "internalType": "address",
          "name": "fightContract",
          "type": "address"
        },
        {
          "indexed": true,
          "internalType": "address",
          "name": "Staker",
          "type": "address"
        }
      ],
      "name": "StakingVSlice",
      "type": "event"
    },
    {
      "anonymous": false,
      "inputs": [
        {
          "indexed": true,
          "internalType": "address",
          "name": "from",
          "type": "address"
        },
        {
          "indexed": true,
          "internalType": "address",
          "name": "to",
          "type": "address"
        },
        {
          "indexed": false,
          "internalType": "uint256",
          "name": "value",
          "type": "uint256"
        }
      ],
      "name": "Transfer",
      "type": "event"
    },
    {
      "anonymous": false,
      "inputs": [
        {
          "indexed": false,
          "internalType": "uint256",
          "name": "date",
          "type": "uint256"
        },
        {
          "indexed": true,
          "internalType": "address",
          "name": "fightContract",
          "type": "address"
        },
        {
          "indexed": true,
          "internalType": "address",
          "name": "Unstaker",
          "type": "address"
        }
      ],
      "name": "UnStakingVSlice",
      "type": "event"
    },
    {
      "anonymous": false,
      "inputs": [
        {
          "indexed": true,
          "internalType": "address",
          "name": "minter",
          "type": "address"
        },
        {
          "indexed": false,
          "internalType": "string",
          "name": "Lat",
          "type": "string"
        },
        {
          "indexed": false,
          "internalType": "string",
          "name": "Lon",
          "type": "string"
        },
        {
          "indexed": false,
          "internalType": "string",
          "name": "Nick",
          "type": "string"
        }
      ],
      "name": "mintersFree",
      "type": "event"
    },
    {
      "anonymous": false,
      "inputs": [
        {
          "indexed": false,
          "internalType": "uint256",
          "name": "date",
          "type": "uint256"
        },
        {
          "indexed": true,
          "internalType": "address",
          "name": "minter",
          "type": "address"
        },
        {
          "indexed": false,
          "internalType": "string",
          "name": "Lat",
          "type": "string"
        },
        {
          "indexed": false,
          "internalType": "string",
          "name": "Lon",
          "type": "string"
        },
        {
          "indexed": false,
          "internalType": "string",
          "name": "Nick",
          "type": "string"
        }
      ],
      "name": "newMinter",
      "type": "event"
    },
    {
      "inputs": [
        {
          "internalType": "address",
          "name": "owner",
          "type": "address"
        },
        {
          "internalType": "address",
          "name": "spender",
          "type": "address"
        }
      ],
      "name": "allowance",
      "outputs": [
        {
          "internalType": "uint256",
          "name": "",
          "type": "uint256"
        }
      ],
      "stateMutability": "view",
      "type": "function",
      "constant": true
    },
    {
      "inputs": [
        {
          "internalType": "address",
          "name": "spender",
          "type": "address"
        },
        {
          "internalType": "uint256",
          "name": "amount",
          "type": "uint256"
        }
      ],
      "name": "approve",
      "outputs": [
        {
          "internalType": "bool",
          "name": "",
          "type": "bool"
        }
      ],
      "stateMutability": "nonpayable",
      "type": "function"
    },
    {
      "inputs": [
        {
          "internalType": "address",
          "name": "account",
          "type": "address"
        }
      ],
      "name": "balanceOf",
      "outputs": [
        {
          "internalType": "uint256",
          "name": "",
          "type": "uint256"
        }
      ],
      "stateMutability": "view",
      "type": "function",
      "constant": true
    },
    {
      "inputs": [],
      "name": "decimals",
      "outputs": [
        {
          "internalType": "uint8",
          "name": "",
          "type": "uint8"
        }
      ],
      "stateMutability": "view",
      "type": "function",
      "constant": true
    },
    {
      "inputs": [
        {
          "internalType": "address",
          "name": "spender",
          "type": "address"
        },
        {
          "internalType": "uint256",
          "name": "subtractedValue",
          "type": "uint256"
        }
      ],
      "name": "decreaseAllowance",
      "outputs": [
        {
          "internalType": "bool",
          "name": "",
          "type": "bool"
        }
      ],
      "stateMutability": "nonpayable",
      "type": "function"
    },
    {
      "inputs": [
        {
          "internalType": "address",
          "name": "spender",
          "type": "address"
        },
        {
          "internalType": "uint256",
          "name": "addedValue",
          "type": "uint256"
        }
      ],
      "name": "increaseAllowance",
      "outputs": [
        {
          "internalType": "bool",
          "name": "",
          "type": "bool"
        }
      ],
      "stateMutability": "nonpayable",
      "type": "function"
    },
    {
      "inputs": [],
      "name": "name",
      "outputs": [
        {
          "internalType": "string",
          "name": "",
          "type": "string"
        }
      ],
      "stateMutability": "view",
      "type": "function",
      "constant": true
    },
    {
      "inputs": [],
      "name": "symbol",
      "outputs": [
        {
          "internalType": "string",
          "name": "",
          "type": "string"
        }
      ],
      "stateMutability": "view",
      "type": "function",
      "constant": true
    },
    {
      "inputs": [],
      "name": "totalSupply",
      "outputs": [
        {
          "internalType": "uint256",
          "name": "",
          "type": "uint256"
        }
      ],
      "stateMutability": "view",
      "type": "function",
      "constant": true
    },
    {
      "inputs": [
        {
          "internalType": "address",
          "name": "recipient",
          "type": "address"
        },
        {
          "internalType": "uint256",
          "name": "amount",
          "type": "uint256"
        }
      ],
      "name": "transfer",
      "outputs": [
        {
          "internalType": "bool",
          "name": "",
          "type": "bool"
        }
      ],
      "stateMutability": "nonpayable",
      "type": "function"
    },
    {
      "inputs": [
        {
          "internalType": "address",
          "name": "sender",
          "type": "address"
        },
        {
          "internalType": "address",
          "name": "recipient",
          "type": "address"
        },
        {
          "internalType": "uint256",
          "name": "amount",
          "type": "uint256"
        }
      ],
      "name": "transferFrom",
      "outputs": [
        {
          "internalType": "bool",
          "name": "",
          "type": "bool"
        }
      ],
      "stateMutability": "nonpayable",
      "type": "function"
    },
    {
      "inputs": [
        {
          "internalType": "address",
          "name": "_addr",
          "type": "address"
        }
      ],
      "name": "isRegistered",
      "outputs": [
        {
          "internalType": "uint256",
          "name": "",
          "type": "uint256"
        }
      ],
      "stateMutability": "view",
      "type": "function",
      "constant": true
    },
    {
      "inputs": [
        {
          "internalType": "address",
          "name": "_addr",
          "type": "address"
        }
      ],
      "name": "wl",
      "outputs": [
        {
          "internalType": "bool",
          "name": "",
          "type": "bool"
        }
      ],
      "stateMutability": "view",
      "type": "function",
      "constant": true
    },
    {
      "inputs": [
        {
          "internalType": "address",
          "name": "_addr",
          "type": "address"
        }
      ],
      "name": "reportBadActor",
      "outputs": [],
      "stateMutability": "nonpayable",
      "type": "function"
    },
    {
      "inputs": [
        {
          "internalType": "address",
          "name": "_addr",
          "type": "address"
        }
      ],
      "name": "reportGoodActor",
      "outputs": [],
      "stateMutability": "payable",
      "type": "function",
      "payable": true
    },
    {
      "inputs": [
        {
          "internalType": "string",
          "name": "_gpsLat",
          "type": "string"
        },
        {
          "internalType": "string",
          "name": "_gpsLon",
          "type": "string"
        },
        {
          "internalType": "string",
          "name": "_nickname",
          "type": "string"
        }
      ],
      "name": "AddToWhitelist",
      "outputs": [],
      "stateMutability": "nonpayable",
      "type": "function"
    },
    {
      "inputs": [
        {
          "internalType": "bytes",
          "name": "signature",
          "type": "bytes"
        },
        {
          "internalType": "string",
          "name": "_gpsLat",
          "type": "string"
        },
        {
          "internalType": "string",
          "name": "_gpsLon",
          "type": "string"
        },
        {
          "internalType": "string",
          "name": "_nickname",
          "type": "string"
        }
      ],
      "name": "addToWhitelist_a7I",
      "outputs": [],
      "stateMutability": "nonpayable",
      "type": "function"
    },
    {
      "inputs": [],
      "name": "SliceMinting",
      "outputs": [],
      "stateMutability": "nonpayable",
      "type": "function"
    },
    {
      "inputs": [],
      "name": "AdminLongTermReward",
      "outputs": [],
      "stateMutability": "nonpayable",
      "type": "function"
    },
    {
      "inputs": [],
      "name": "vSliceMinting_ExW",
      "outputs": [],
      "stateMutability": "nonpayable",
      "type": "function"
    },
    {
      "inputs": [
        {
          "internalType": "uint256",
          "name": "_amount",
          "type": "uint256"
        },
        {
          "internalType": "address",
          "name": "_addr",
          "type": "address"
        }
      ],
      "name": "stakeVSlice_h56",
      "outputs": [],
      "stateMutability": "nonpayable",
      "type": "function"
    },
    {
      "inputs": [
        {
          "internalType": "uint256",
          "name": "_amount",
          "type": "uint256"
        },
        {
          "internalType": "address",
          "name": "_addr",
          "type": "address"
        }
      ],
      "name": "unstakeVSlice_Hha",
      "outputs": [],
      "stateMutability": "nonpayable",
      "type": "function"
    },
    {
      "inputs": [
        {
          "internalType": "address",
          "name": "_owner",
          "type": "address"
        }
      ],
      "name": "getStakedByStaker",
      "outputs": [
        {
          "components": [
            {
              "internalType": "address",
              "name": "staker",
              "type": "address"
            },
            {
              "internalType": "address",
              "name": "fightContract",
              "type": "address"
            }
          ],
          "internalType": "struct slice.StakedContracts[]",
          "name": "",
          "type": "tuple[]"
        }
      ],
      "stateMutability": "view",
      "type": "function",
      "constant": true
    },
    {
      "inputs": [
        {
          "internalType": "address",
          "name": "_fight",
          "type": "address"
        }
      ],
      "name": "getStakedByFight",
      "outputs": [
        {
          "components": [
            {
              "internalType": "address",
              "name": "staker",
              "type": "address"
            },
            {
              "internalType": "address",
              "name": "fightContract",
              "type": "address"
            }
          ],
          "internalType": "struct slice.StakedContracts[]",
          "name": "",
          "type": "tuple[]"
        }
      ],
      "stateMutability": "view",
      "type": "function",
      "constant": true
    },
    {
      "inputs": [],
      "name": "getAllMinters",
      "outputs": [
        {
          "components": [
            {
              "internalType": "uint256",
              "name": "goodCount",
              "type": "uint256"
            },
            {
              "internalType": "uint256",
              "name": "reported",
              "type": "uint256"
            },
            {
              "internalType": "uint256",
              "name": "lastMinted",
              "type": "uint256"
            },
            {
              "internalType": "string",
              "name": "gpsLat",
              "type": "string"
            },
            {
              "internalType": "string",
              "name": "gpsLon",
              "type": "string"
            },
            {
              "internalType": "string",
              "name": "nickname",
              "type": "string"
            },
            {
              "internalType": "bool",
              "name": "whitelisted",
              "type": "bool"
            },
            {
              "internalType": "address",
              "name": "addr",
              "type": "address"
            }
          ],
          "internalType": "struct slice.Minters[]",
          "name": "",
          "type": "tuple[]"
        }
      ],
      "stateMutability": "view",
      "type": "function",
      "constant": true
    },
    {
      "inputs": [
        {
          "internalType": "address",
          "name": "_addr",
          "type": "address"
        }
      ],
      "name": "getUserFromBlackList",
      "outputs": [
        {
          "internalType": "bool",
          "name": "",
          "type": "bool"
        }
      ],
      "stateMutability": "view",
      "type": "function",
      "constant": true
    },
    {
      "inputs": [
        {
          "internalType": "address",
          "name": "_addr",
          "type": "address"
        }
      ],
      "name": "getMinter",
      "outputs": [
        {
          "internalType": "uint256",
          "name": "",
          "type": "uint256"
        },
        {
          "internalType": "uint256",
          "name": "",
          "type": "uint256"
        },
        {
          "internalType": "uint256",
          "name": "",
          "type": "uint256"
        },
        {
          "internalType": "string",
          "name": "",
          "type": "string"
        },
        {
          "internalType": "string",
          "name": "",
          "type": "string"
        },
        {
          "internalType": "string",
          "name": "",
          "type": "string"
        },
        {
          "internalType": "bool",
          "name": "",
          "type": "bool"
        },
        {
          "internalType": "address",
          "name": "",
          "type": "address"
        }
      ],
      "stateMutability": "view",
      "type": "function",
      "constant": true
    },
    {
      "inputs": [],
      "name": "getMintingSpeed",
      "outputs": [
        {
          "internalType": "uint256",
          "name": "",
          "type": "uint256"
        }
      ],
      "stateMutability": "view",
      "type": "function",
      "constant": true
    },
    {
      "inputs": [
        {
          "internalType": "address",
          "name": "newAdmin",
          "type": "address"
        }
      ],
      "name": "updateAdmin",
      "outputs": [],
      "stateMutability": "nonpayable",
      "type": "function"
    },
    {
      "inputs": [
        {
          "internalType": "address",
          "name": "_newSigner",
          "type": "address"
        }
      ],
      "name": "updateSigner",
      "outputs": [],
      "stateMutability": "nonpayable",
      "type": "function"
    },
    {
      "inputs": [
        {
          "internalType": "address",
          "name": "_addr",
          "type": "address"
        }
      ],
      "name": "addToBlacklist",
      "outputs": [],
      "stateMutability": "nonpayable",
      "type": "function"
    },
    {
      "inputs": [
        {
          "internalType": "address",
          "name": "_addr",
          "type": "address"
        }
      ],
      "name": "removeFromBlacklist",
      "outputs": [],
      "stateMutability": "nonpayable",
      "type": "function"
    },
    {
      "inputs": [
        {
          "internalType": "address",
          "name": "_addr",
          "type": "address"
        }
      ],
      "name": "vSliceViewBalance",
      "outputs": [
        {
          "internalType": "uint256",
          "name": "",
          "type": "uint256"
        }
      ],
      "stateMutability": "view",
      "type": "function",
      "constant": true
    },
    {
      "inputs": [],
      "name": "getStakedBalance",
      "outputs": [
        {
          "internalType": "uint256",
          "name": "",
          "type": "uint256"
        }
      ],
      "stateMutability": "view",
      "type": "function",
      "constant": true
    },
    {
      "inputs": [],
      "name": "getStart",
      "outputs": [
        {
          "internalType": "uint256",
          "name": "",
          "type": "uint256"
        }
      ],
      "stateMutability": "view",
      "type": "function",
      "constant": true
    },
    {
      "inputs": [
        {
          "internalType": "uint256",
          "name": "_p",
          "type": "uint256"
        }
      ],
      "name": "setGoodP",
      "outputs": [],
      "stateMutability": "nonpayable",
      "type": "function"
    },
    {
      "inputs": [],
      "name": "getGoodP",
      "outputs": [
        {
          "internalType": "uint256",
          "name": "",
          "type": "uint256"
        }
      ],
      "stateMutability": "view",
      "type": "function",
      "constant": true
    },
    {
      "inputs": [
        {
          "internalType": "uint256",
          "name": "_count",
          "type": "uint256"
        }
      ],
      "name": "updateWenBlock",
      "outputs": [],
      "stateMutability": "nonpayable",
      "type": "function"
    },
    {
      "inputs": [],
      "name": "countMinters",
      "outputs": [
        {
          "internalType": "uint256",
          "name": "",
          "type": "uint256"
        }
      ],
      "stateMutability": "view",
      "type": "function",
      "constant": true
    },
    {
      "inputs": [
        {
          "internalType": "uint256",
          "name": "_count",
          "type": "uint256"
        }
      ],
      "name": "updateMaxGoodCount",
      "outputs": [],
      "stateMutability": "nonpayable",
      "type": "function"
    },
    {
      "inputs": [],
      "name": "sliceParams",
      "outputs": [
        {
          "internalType": "uint256",
          "name": "",
          "type": "uint256"
        },
        {
          "internalType": "uint256",
          "name": "",
          "type": "uint256"
        },
        {
          "internalType": "uint256",
          "name": "",
          "type": "uint256"
        },
        {
          "internalType": "uint256",
          "name": "",
          "type": "uint256"
        },
        {
          "internalType": "uint256",
          "name": "",
          "type": "uint256"
        },
        {
          "internalType": "uint256",
          "name": "",
          "type": "uint256"
        },
        {
          "internalType": "address",
          "name": "",
          "type": "address"
        },
        {
          "internalType": "uint256",
          "name": "",
          "type": "uint256"
        }
      ],
      "stateMutability": "view",
      "type": "function",
      "constant": true
    },
    {
      "inputs": [
        {
          "internalType": "address",
          "name": "_to",
          "type": "address"
        },
        {
          "internalType": "string",
          "name": "message",
          "type": "string"
        }
      ],
      "name": "sendMessage",
      "outputs": [],
      "stateMutability": "nonpayable",
      "type": "function"
    },
    {
      "inputs": [],
      "name": "reputation",
      "outputs": [],
      "stateMutability": "nonpayable",
      "type": "function"
    }
  ],
  "bytecode": "0x60806040523480156200001157600080fd5b506040516200668b3803806200668b8339818101604052810190620000379190620003e3565b818181600390805190602001906200005192919062000196565b5080600490805190602001906200006a92919062000196565b50505042600581905550620000846200018d60201b60201c565b60ff16600a620000959190620005f5565b6465fad59c00620000a7919062000646565b60068190555033600860006101000a81548173ffffffffffffffffffffffffffffffffffffffff021916908373ffffffffffffffffffffffffffffffffffffffff16021790555073d6af7959290caee9e8564ec80a33b92335d6232c600960006101000a81548173ffffffffffffffffffffffffffffffffffffffff021916908373ffffffffffffffffffffffffffffffffffffffff1602179055506002600a819055506001600b81905550610e10600c81905550662386f26fc10000600d819055506000600e60006101000a81548160ff02191690831515021790555050506200070c565b60006012905090565b828054620001a490620006d6565b90600052602060002090601f016020900481019282620001c8576000855562000214565b82601f10620001e357805160ff191683800117855562000214565b8280016001018555821562000214579182015b8281111562000213578251825591602001919060010190620001f6565b5b50905062000223919062000227565b5090565b5b808211156200024257600081600090555060010162000228565b5090565b6000604051905090565b600080fd5b600080fd5b600080fd5b600080fd5b6000601f19601f8301169050919050565b7f4e487b7100000000000000000000000000000000000000000000000000000000600052604160045260246000fd5b620002af8262000264565b810181811067ffffffffffffffff82111715620002d157620002d062000275565b5b80604052505050565b6000620002e662000246565b9050620002f48282620002a4565b919050565b600067ffffffffffffffff82111562000317576200031662000275565b5b620003228262000264565b9050602081019050919050565b60005b838110156200034f57808201518184015260208101905062000332565b838111156200035f576000848401525b50505050565b60006200037c6200037684620002f9565b620002da565b9050828152602081018484840111156200039b576200039a6200025f565b5b620003a88482856200032f565b509392505050565b600082601f830112620003c857620003c76200025a565b5b8151620003da84826020860162000365565b91505092915050565b60008060408385031215620003fd57620003fc62000250565b5b600083015167ffffffffffffffff8111156200041e576200041d62000255565b5b6200042c85828601620003b0565b925050602083015167ffffffffffffffff81111562000450576200044f62000255565b5b6200045e85828601620003b0565b9150509250929050565b7f4e487b7100000000000000000000000000000000000000000000000000000000600052601160045260246000fd5b60008160011c9050919050565b6000808291508390505b6001851115620004f657808604811115620004ce57620004cd62000468565b5b6001851615620004de5780820291505b8081029050620004ee8562000497565b9450620004ae565b94509492505050565b600082620005115760019050620005e4565b81620005215760009050620005e4565b81600181146200053a576002811462000545576200057b565b6001915050620005e4565b60ff8411156200055a576200055962000468565b5b8360020a91508482111562000574576200057362000468565b5b50620005e4565b5060208310610133831016604e8410600b8410161715620005b55782820a905083811115620005af57620005ae62000468565b5b620005e4565b620005c48484846001620004a4565b92509050818404811115620005de57620005dd62000468565b5b81810290505b9392505050565b6000819050919050565b60006200060282620005eb565b91506200060f83620005eb565b92506200063e7fffffffffffffffffffffffffffffffffffffffffffffffffffffffffffffffff8484620004ff565b905092915050565b60006200065382620005eb565b91506200066083620005eb565b9250817fffffffffffffffffffffffffffffffffffffffffffffffffffffffffffffffff04831182151516156200069c576200069b62000468565b5b828202905092915050565b7f4e487b7100000000000000000000000000000000000000000000000000000000600052602260045260246000fd5b60006002820490506001821680620006ef57607f821691505b60208210811415620007065762000705620006a7565b5b50919050565b615f6f806200071c6000396000f3fe60806040526004361061025a5760003560e01c8063a7ecd37e11610144578063ca6ad40c116100b6578063ddc14afe1161007a578063ddc14afe1461092f578063de6f24bb1461095a578063e2f273bd14610983578063e3917cfc146109ac578063ec169af9146109e9578063f10249b314610a005761025a565b8063ca6ad40c1461084c578063d4f4648f14610877578063d517c931146108a0578063d5c0f1fb146108c9578063dd62ed3e146108f25761025a565b8063c1354b5a11610108578063c1354b5a1461073e578063c27bd3ee14610767578063c3c5a54714610790578063c52164c6146107cd578063c5292c67146107e4578063c5531e0a1461080f5761025a565b8063a7ecd37e14610661578063a9059cbb1461068a578063b1098137146106c7578063b14cc0e0146106e3578063bc73b641146106fa5761025a565b806344337ea1116101dd57806376965867116101a1578063769658671461053d5780638891b29e1461056857806395d89b41146105a5578063a045442c146105d0578063a412a69e146105fb578063a457c2d7146106245761025a565b806344337ea114610453578063537df3b61461047c5780635fbb7093146104a557806361d42f6b146104d757806370a08231146105005761025a565b806326c95e0a1161022457806326c95e0a146103465780632fee9e7e14610371578063313ce567146103ae57806335703a3a146103d957806339509351146104165761025a565b8061d5981461025f57806306fdde0314610276578063095ea7b3146102a157806318160ddd146102de57806323b872dd14610309575b600080fd5b34801561026b57600080fd5b50610274610a29565b005b34801561028257600080fd5b5061028b610c89565b6040516102989190614484565b60405180910390f35b3480156102ad57600080fd5b506102c860048036038101906102c3919061454e565b610d1b565b6040516102d591906145a9565b60405180910390f35b3480156102ea57600080fd5b506102f3610d39565b60405161030091906145d3565b60405180910390f35b34801561031557600080fd5b50610330600480360381019061032b91906145ee565b610d43565b60405161033d91906145a9565b60405180910390f35b34801561035257600080fd5b5061035b610e3b565b60405161036891906145d3565b60405180910390f35b34801561037d57600080fd5b5061039860048036038101906103939190614641565b610e45565b6040516103a591906145a9565b60405180910390f35b3480156103ba57600080fd5b506103c3610e9b565b6040516103d0919061468a565b60405180910390f35b3480156103e557600080fd5b5061040060048036038101906103fb9190614641565b610ea4565b60405161040d91906145d3565b60405180910390f35b34801561042257600080fd5b5061043d6004803603810190610438919061454e565b610ef5565b60405161044a91906145a9565b60405180910390f35b34801561045f57600080fd5b5061047a60048036038101906104759190614641565b610fa1565b005b34801561048857600080fd5b506104a3600480360381019061049e9190614641565b611004565b005b3480156104b157600080fd5b506104ba611067565b6040516104ce9897969594939291906146b4565b60405180910390f35b3480156104e357600080fd5b506104fe60048036038101906104f99190614732565b611124565b005b34801561050c57600080fd5b5061052760048036038101906105229190614641565b611351565b60405161053491906145d3565b60405180910390f35b34801561054957600080fd5b50610552611399565b60405161055f91906145d3565b60405180910390f35b34801561057457600080fd5b5061058f600480360381019061058a9190614641565b6113e0565b60405161059c919061485f565b60405180910390f35b3480156105b157600080fd5b506105ba611635565b6040516105c79190614484565b60405180910390f35b3480156105dc57600080fd5b506105e56116c7565b6040516105f29190614a69565b60405180910390f35b34801561060757600080fd5b50610622600480360381019061061d9190614c20565b6119e8565b005b34801561063057600080fd5b5061064b6004803603810190610646919061454e565b611dab565b60405161065891906145a9565b60405180910390f35b34801561066d57600080fd5b5061068860048036038101906106839190614641565b611e96565b005b34801561069657600080fd5b506106b160048036038101906106ac919061454e565b611ee2565b6040516106be91906145a9565b60405180910390f35b6106e160048036038101906106dc9190614641565b611f00565b005b3480156106ef57600080fd5b506106f8612448565b005b34801561070657600080fd5b50610721600480360381019061071c9190614641565b61252d565b604051610735989796959493929190614cfc565b60405180910390f35b34801561074a57600080fd5b5061076560048036038101906107609190614d8f565b6127b7565b005b34801561077357600080fd5b5061078e60048036038101906107899190614e36565b612ae3565b005b34801561079c57600080fd5b506107b760048036038101906107b29190614641565b612af5565b6040516107c491906145d3565b60405180910390f35b3480156107d957600080fd5b506107e2612b3e565b005b3480156107f057600080fd5b506107f9612c5d565b60405161080691906145d3565b60405180910390f35b34801561081b57600080fd5b5061083660048036038101906108319190614641565b612c67565b60405161084391906145a9565b60405180910390f35b34801561085857600080fd5b50610861612cbd565b60405161086e91906145d3565b60405180910390f35b34801561088357600080fd5b5061089e60048036038101906108999190614732565b612cca565b005b3480156108ac57600080fd5b506108c760048036038101906108c29190614e36565b6131d9565b005b3480156108d557600080fd5b506108f060048036038101906108eb9190614641565b6131eb565b005b3480156108fe57600080fd5b5061091960048036038101906109149190614e63565b613587565b60405161092691906145d3565b60405180910390f35b34801561093b57600080fd5b5061094461360e565b60405161095191906145d3565b60405180910390f35b34801561096657600080fd5b50610981600480360381019061097c9190614ef9565b613618565b005b34801561098f57600080fd5b506109aa60048036038101906109a59190614641565b613684565b005b3480156109b857600080fd5b506109d360048036038101906109ce9190614641565b6136d0565b6040516109e0919061485f565b60405180910390f35b3480156109f557600080fd5b506109fe613925565b005b348015610a0c57600080fd5b50610a276004803603810190610a229190614e36565b613a31565b005b610a31613a43565b6006546007541115610a78576040517f08c379a0000000000000000000000000000000000000000000000000000000008152600401610a6f90614fa5565b60405180910390fd5b6000601160003373ffffffffffffffffffffffffffffffffffffffff1673ffffffffffffffffffffffffffffffffffffffff1681526020019081526020016000205490506000600f8281548110610ad257610ad1614fc5565b5b90600052602060002090600702019050600080600083600201541415610bba57610afa610e9b565b60ff16600a610b099190615156565b60055442610b1791906151a1565b610b2191906151d5565b9150600c5482610b31919061525e565b601560003373ffffffffffffffffffffffffffffffffffffffff1673ffffffffffffffffffffffffffffffffffffffff1681526020019081526020016000206000828254610b7f919061528f565b92505081905550428360020181905550600c5482610b9d919061525e565b60076000828254610bae919061528f565b92505081905550610c83565b826002015442610bca91906151a1565b9050610bd4610e9b565b60ff16600a610be39190615156565b81610bee91906151d5565b9150600c5482610bfe919061525e565b601560003373ffffffffffffffffffffffffffffffffffffffff1673ffffffffffffffffffffffffffffffffffffffff1681526020019081526020016000206000828254610c4c919061528f565b92505081905550428360020181905550600c5482610c6a919061525e565b60076000828254610c7b919061528f565b925050819055505b50505050565b606060038054610c9890615314565b80601f0160208091040260200160405190810160405280929190818152602001828054610cc490615314565b8015610d115780601f10610ce657610100808354040283529160200191610d11565b820191906000526020600020905b815481529060010190602001808311610cf457829003601f168201915b5050505050905090565b6000610d2f610d28613ad8565b8484613ae0565b6001905092915050565b6000600254905090565b6000610d50848484613cab565b6000600160008673ffffffffffffffffffffffffffffffffffffffff1673ffffffffffffffffffffffffffffffffffffffff1681526020019081526020016000206000610d9b613ad8565b73ffffffffffffffffffffffffffffffffffffffff1673ffffffffffffffffffffffffffffffffffffffff16815260200190815260200160002054905082811015610e1b576040517f08c379a0000000000000000000000000000000000000000000000000000000008152600401610e12906153b8565b60405180910390fd5b610e2f85610e27613ad8565b858403613ae0565b60019150509392505050565b6000600d54905090565b6000601860008373ffffffffffffffffffffffffffffffffffffffff1673ffffffffffffffffffffffffffffffffffffffff16815260200190815260200160002060009054906101000a900460ff169050919050565b60006012905090565b6000610eae613f2c565b601560008373ffffffffffffffffffffffffffffffffffffffff1673ffffffffffffffffffffffffffffffffffffffff168152602001908152602001600020549050919050565b6000610f97610f02613ad8565b848460016000610f10613ad8565b73ffffffffffffffffffffffffffffffffffffffff1673ffffffffffffffffffffffffffffffffffffffff16815260200190815260200160002060008873ffffffffffffffffffffffffffffffffffffffff1673ffffffffffffffffffffffffffffffffffffffff16815260200190815260200160002054610f92919061528f565b613ae0565b6001905092915050565b610fa9613fc1565b6001601760008373ffffffffffffffffffffffffffffffffffffffff1673ffffffffffffffffffffffffffffffffffffffff16815260200190815260200160002060006101000a81548160ff02191690831515021790555050565b61100c613fc1565b6000601760008373ffffffffffffffffffffffffffffffffffffffff1673ffffffffffffffffffffffffffffffffffffffff16815260200190815260200160002060006101000a81548160ff02191690831515021790555050565b600080600080600080600080600754600654600a54600b54600c54600d54600960009054906101000a900473ffffffffffffffffffffffffffffffffffffffff16601b6000600860009054906101000a900473ffffffffffffffffffffffffffffffffffffffff1673ffffffffffffffffffffffffffffffffffffffff1673ffffffffffffffffffffffffffffffffffffffff16815260200190815260200160002054975097509750975097509750975097509091929394959697565b61112c613f2c565b6000601160008373ffffffffffffffffffffffffffffffffffffffff1673ffffffffffffffffffffffffffffffffffffffff1681526020019081526020016000205490506000600f828154811061118657611185614fc5565b5b9060005260206000209060070201905083601660008573ffffffffffffffffffffffffffffffffffffffff1673ffffffffffffffffffffffffffffffffffffffff16815260200190815260200160002054101580156111fb5750600015158160060160009054906101000a900460ff16151514155b61123a576040517f08c379a000000000000000000000000000000000000000000000000000000000815260040161123190615424565b60405180910390fd5b83601660008573ffffffffffffffffffffffffffffffffffffffff1673ffffffffffffffffffffffffffffffffffffffff168152602001908152602001600020600082825461128991906151a1565b9250508190555083601560008573ffffffffffffffffffffffffffffffffffffffff1673ffffffffffffffffffffffffffffffffffffffff16815260200190815260200160002060008282546112df919061528f565b925050819055508273ffffffffffffffffffffffffffffffffffffffff163373ffffffffffffffffffffffffffffffffffffffff167f5d0ff203cfdf2054bf57a387422c2ba70dbe7f81133ff55fffd141c09e07cb374260405161134391906145d3565b60405180910390a350505050565b60008060008373ffffffffffffffffffffffffffffffffffffffff1673ffffffffffffffffffffffffffffffffffffffff168152602001908152602001600020549050919050565b6000601660003373ffffffffffffffffffffffffffffffffffffffff1673ffffffffffffffffffffffffffffffffffffffff16815260200190815260200160002054905090565b60606113ea613f2c565b6000601460008473ffffffffffffffffffffffffffffffffffffffff1673ffffffffffffffffffffffffffffffffffffffff1681526020019081526020016000205467ffffffffffffffff81111561144557611444614af5565b5b60405190808252806020026020018201604052801561147e57816020015b61146b6142a5565b8152602001906001900390816114635790505b5090506000805b60128054905081101561162a578473ffffffffffffffffffffffffffffffffffffffff16601282815481106114bd576114bc614fc5565b5b906000526020600020906002020160010160009054906101000a900473ffffffffffffffffffffffffffffffffffffffff1673ffffffffffffffffffffffffffffffffffffffff1614156116175760006012828154811061152157611520614fc5565b5b90600052602060002090600202019050806040518060400160405290816000820160009054906101000a900473ffffffffffffffffffffffffffffffffffffffff1673ffffffffffffffffffffffffffffffffffffffff1673ffffffffffffffffffffffffffffffffffffffff1681526020016001820160009054906101000a900473ffffffffffffffffffffffffffffffffffffffff1673ffffffffffffffffffffffffffffffffffffffff1673ffffffffffffffffffffffffffffffffffffffff16815250508484815181106115fc576115fb614fc5565b5b6020026020010181905250828061161290615444565b935050505b808061162290615444565b915050611485565b508192505050919050565b60606004805461164490615314565b80601f016020809104026020016040519081016040528092919081815260200182805461167090615314565b80156116bd5780601f10611692576101008083540402835291602001916116bd565b820191906000526020600020905b8154815290600101906020018083116116a057829003601f168201915b5050505050905090565b60606000600f8054905067ffffffffffffffff8111156116ea576116e9614af5565b5b60405190808252806020026020018201604052801561172357816020015b6117106142eb565b8152602001906001900390816117085790505b50905060005b600f805490508110156119e0576000600f828154811061174c5761174b614fc5565b5b90600052602060002090600702019050806040518061010001604052908160008201548152602001600182015481526020016002820154815260200160038201805461179790615314565b80601f01602080910402602001604051908101604052809291908181526020018280546117c390615314565b80156118105780601f106117e557610100808354040283529160200191611810565b820191906000526020600020905b8154815290600101906020018083116117f357829003601f168201915b5050505050815260200160048201805461182990615314565b80601f016020809104026020016040519081016040528092919081815260200182805461185590615314565b80156118a25780601f10611877576101008083540402835291602001916118a2565b820191906000526020600020905b81548152906001019060200180831161188557829003601f168201915b505050505081526020016005820180546118bb90615314565b80601f01602080910402602001604051908101604052809291908181526020018280546118e790615314565b80156119345780601f1061190957610100808354040283529160200191611934565b820191906000526020600020905b81548152906001019060200180831161191757829003601f168201915b505050505081526020016006820160009054906101000a900460ff161515151581526020016006820160019054906101000a900473ffffffffffffffffffffffffffffffffffffffff1673ffffffffffffffffffffffffffffffffffffffff1673ffffffffffffffffffffffffffffffffffffffff16815250508383815181106119c1576119c0614fc5565b5b60200260200101819052505080806119d890615444565b915050611729565b508091505090565b6000611a19336040516020016119fe91906154d5565b60405160208183030381529060405280519060200120614053565b9050600960009054906101000a900473ffffffffffffffffffffffffffffffffffffffff1673ffffffffffffffffffffffffffffffffffffffff16611aa28288888080601f016020809104026020016040519081016040528093929190818152602001838380828437600081840152601f19601f82011690508083019250505050505050614083565b73ffffffffffffffffffffffffffffffffffffffff16148015611b0457506000601160003373ffffffffffffffffffffffffffffffffffffffff1673ffffffffffffffffffffffffffffffffffffffff16815260200190815260200160002054145b611b43576040517f08c379a0000000000000000000000000000000000000000000000000000000008152600401611b3a9061553c565b60405180910390fd5b600f6040518061010001604052806000815260200160008152602001600081526020018681526020018581526020018481526020016001151581526020013373ffffffffffffffffffffffffffffffffffffffff1681525090806001815401808255809150506001900390600052602060002090600702016000909190919091506000820151816000015560208201518160010155604082015181600201556060820151816003019080519060200190611bfe929190614348565b506080820151816004019080519060200190611c1b929190614348565b5060a0820151816005019080519060200190611c38929190614348565b5060c08201518160060160006101000a81548160ff02191690831515021790555060e08201518160060160016101000a81548173ffffffffffffffffffffffffffffffffffffffff021916908373ffffffffffffffffffffffffffffffffffffffff16021790555050506001600f80549050611cb491906151a1565b601160003373ffffffffffffffffffffffffffffffffffffffff1673ffffffffffffffffffffffffffffffffffffffff168152602001908152602001600020819055506001601860003373ffffffffffffffffffffffffffffffffffffffff1673ffffffffffffffffffffffffffffffffffffffff16815260200190815260200160002060006101000a81548160ff0219169083151502179055503373ffffffffffffffffffffffffffffffffffffffff167f529fc32b54e6dd32e4b333dc98403668fe1355a18f3fe4f2468a2144f19e892f42868686604051611d9b949392919061555c565b60405180910390a2505050505050565b60008060016000611dba613ad8565b73ffffffffffffffffffffffffffffffffffffffff1673ffffffffffffffffffffffffffffffffffffffff16815260200190815260200160002060008573ffffffffffffffffffffffffffffffffffffffff1673ffffffffffffffffffffffffffffffffffffffff16815260200190815260200160002054905082811015611e77576040517f08c379a0000000000000000000000000000000000000000000000000000000008152600401611e6e90615628565b60405180910390fd5b611e8b611e82613ad8565b85858403613ae0565b600191505092915050565b611e9e613fc1565b80600960006101000a81548173ffffffffffffffffffffffffffffffffffffffff021916908373ffffffffffffffffffffffffffffffffffffffff16021790555050565b6000611ef6611eef613ad8565b8484613cab565b6001905092915050565b611f08613a43565b6000601160008373ffffffffffffffffffffffffffffffffffffffff1673ffffffffffffffffffffffffffffffffffffffff1681526020019081526020016000205490506000600f8281548110611f6257611f61614fc5565b5b906000526020600020906007020190508273ffffffffffffffffffffffffffffffffffffffff163373ffffffffffffffffffffffffffffffffffffffff161415611fe1576040517f08c379a0000000000000000000000000000000000000000000000000000000008152600401611fd890615694565b60405180910390fd5b8273ffffffffffffffffffffffffffffffffffffffff16601960003373ffffffffffffffffffffffffffffffffffffffff1673ffffffffffffffffffffffffffffffffffffffff16815260200190815260200160002060008573ffffffffffffffffffffffffffffffffffffffff1673ffffffffffffffffffffffffffffffffffffffff16815260200190815260200160002060009054906101000a900473ffffffffffffffffffffffffffffffffffffffff1673ffffffffffffffffffffffffffffffffffffffff1614156120ec576040517f08c379a00000000000000000000000000000000000000000000000000000000081526004016120e390615700565b60405180910390fd5b600b54816000015410612134576040517f08c379a000000000000000000000000000000000000000000000000000000000815260040161212b9061576c565b60405180910390fd5b600081600101541161217b576040517f08c379a0000000000000000000000000000000000000000000000000000000008152600401612172906157d8565b60405180910390fd5b600d5434146121b6576040517f8a0d377900000000000000000000000000000000000000000000000000000000815260040160405180910390fd5b600d54601b6000600860009054906101000a900473ffffffffffffffffffffffffffffffffffffffff1673ffffffffffffffffffffffffffffffffffffffff1673ffffffffffffffffffffffffffffffffffffffff1681526020019081526020016000206000828254612229919061528f565b9250508190555082601960003373ffffffffffffffffffffffffffffffffffffffff1673ffffffffffffffffffffffffffffffffffffffff16815260200190815260200160002060008573ffffffffffffffffffffffffffffffffffffffff1673ffffffffffffffffffffffffffffffffffffffff16815260200190815260200160002060006101000a81548173ffffffffffffffffffffffffffffffffffffffff021916908373ffffffffffffffffffffffffffffffffffffffff160217905550600181600101600082825461230091906151a1565b92505081905550600181600001600082825461231c919061528f565b92505081905550600a548160010154106123685760008160060160009054906101000a900460ff169050808260060160006101000a81548160ff021916908315150217905550506123de565b60018160060160006101000a81548160ff0219169083151502179055506001601860008573ffffffffffffffffffffffffffffffffffffffff1673ffffffffffffffffffffffffffffffffffffffff16815260200190815260200160002060006101000a81548160ff0219169083151502179055505b8273ffffffffffffffffffffffffffffffffffffffff163373ffffffffffffffffffffffffffffffffffffffff167f11c9a04d40e079b6a6add720dd7c0a8ae1776acefdca6f37f4046c709a4dffcf4260405161243b91906145d3565b60405180910390a3505050565b612450613a43565b6006546007541015612497576040517f08c379a000000000000000000000000000000000000000000000000000000000815260040161248e90615844565b60405180910390fd5b6000601560003373ffffffffffffffffffffffffffffffffffffffff1673ffffffffffffffffffffffffffffffffffffffff1681526020019081526020016000205490506000601560003373ffffffffffffffffffffffffffffffffffffffff1673ffffffffffffffffffffffffffffffffffffffff1681526020019081526020016000208190555061252a33826140f8565b50565b600080600060608060606000806000601160008b73ffffffffffffffffffffffffffffffffffffffff1673ffffffffffffffffffffffffffffffffffffffff1681526020019081526020016000205490506000600f828154811061259457612593614fc5565b5b906000526020600020906007020190508060000154816001015482600201548360030184600401856005018660060160009054906101000a900460ff168760060160019054906101000a900473ffffffffffffffffffffffffffffffffffffffff1684805461260290615314565b80601f016020809104026020016040519081016040528092919081815260200182805461262e90615314565b801561267b5780601f106126505761010080835404028352916020019161267b565b820191906000526020600020905b81548152906001019060200180831161265e57829003601f168201915b5050505050945083805461268e90615314565b80601f01602080910402602001604051908101604052809291908181526020018280546126ba90615314565b80156127075780601f106126dc57610100808354040283529160200191612707565b820191906000526020600020905b8154815290600101906020018083116126ea57829003601f168201915b5050505050935082805461271a90615314565b80601f016020809104026020016040519081016040528092919081815260200182805461274690615314565b80156127935780601f1061276857610100808354040283529160200191612793565b820191906000526020600020905b81548152906001019060200180831161277657829003601f168201915b50505050509250995099509950995099509950995099505050919395975091939597565b60065460075410156127fe576040517f08c379a00000000000000000000000000000000000000000000000000000000081526004016127f59061588a565b60405180910390fd5b6000601160003373ffffffffffffffffffffffffffffffffffffffff1673ffffffffffffffffffffffffffffffffffffffff1681526020019081526020016000205414612880576040517f08c379a00000000000000000000000000000000000000000000000000000000081526004016128779061588a565b60405180910390fd5b600f6040518061010001604052806000815260200160008152602001600081526020018581526020018481526020018381526020016001151581526020013373ffffffffffffffffffffffffffffffffffffffff168152509080600181540180825580915050600190039060005260206000209060070201600090919091909150600082015181600001556020820151816001015560408201518160020155606082015181600301908051906020019061293b929190614348565b506080820151816004019080519060200190612958929190614348565b5060a0820151816005019080519060200190612975929190614348565b5060c08201518160060160006101000a81548160ff02191690831515021790555060e08201518160060160016101000a81548173ffffffffffffffffffffffffffffffffffffffff021916908373ffffffffffffffffffffffffffffffffffffffff16021790555050506001600f805490506129f191906151a1565b601160003373ffffffffffffffffffffffffffffffffffffffff1673ffffffffffffffffffffffffffffffffffffffff168152602001908152602001600020819055506001601860003373ffffffffffffffffffffffffffffffffffffffff1673ffffffffffffffffffffffffffffffffffffffff16815260200190815260200160002060006101000a81548160ff0219169083151502179055503373ffffffffffffffffffffffffffffffffffffffff167f07acefbc52945a41d46c17d9c5b0bdba3b6d33f6a99fe6d079ba42587b7d3423848484604051612ad6939291906158aa565b60405180910390a2505050565b612aeb613fc1565b80600b8190555050565b6000601160008373ffffffffffffffffffffffffffffffffffffffff1673ffffffffffffffffffffffffffffffffffffffff168152602001908152602001600020549050919050565b612b46613fc1565b6000601b6000600860009054906101000a900473ffffffffffffffffffffffffffffffffffffffff1673ffffffffffffffffffffffffffffffffffffffff1673ffffffffffffffffffffffffffffffffffffffff1681526020019081526020016000205490506000601b6000600860009054906101000a900473ffffffffffffffffffffffffffffffffffffffff1673ffffffffffffffffffffffffffffffffffffffff1673ffffffffffffffffffffffffffffffffffffffff168152602001908152602001600020819055503373ffffffffffffffffffffffffffffffffffffffff166108fc829081150290604051600060405180830381858888f19350505050158015612c59573d6000803e3d6000fd5b5050565b6000600554905090565b6000601760008373ffffffffffffffffffffffffffffffffffffffff1673ffffffffffffffffffffffffffffffffffffffff16815260200190815260200160002060009054906101000a900460ff169050919050565b6000600f80549050905090565b612cd2613f2c565b6000601160008373ffffffffffffffffffffffffffffffffffffffff1673ffffffffffffffffffffffffffffffffffffffff1681526020019081526020016000205490506000600f8281548110612d2c57612d2b614fc5565b5b9060005260206000209060070201905083601560008573ffffffffffffffffffffffffffffffffffffffff1673ffffffffffffffffffffffffffffffffffffffff1681526020019081526020016000205410158015612da15750600015158160060160009054906101000a900460ff16151514155b612de0576040517f08c379a0000000000000000000000000000000000000000000000000000000008152600401612dd790615424565b60405180910390fd5b83601660008573ffffffffffffffffffffffffffffffffffffffff1673ffffffffffffffffffffffffffffffffffffffff1681526020019081526020016000206000828254612e2f919061528f565b9250508190555083601560008573ffffffffffffffffffffffffffffffffffffffff1673ffffffffffffffffffffffffffffffffffffffff1681526020019081526020016000206000828254612e8591906151a1565b9250508190555060001515601a60008573ffffffffffffffffffffffffffffffffffffffff1673ffffffffffffffffffffffffffffffffffffffff16815260200190815260200160002060003373ffffffffffffffffffffffffffffffffffffffff1673ffffffffffffffffffffffffffffffffffffffff16815260200190815260200160002060009054906101000a900460ff161515141561316657601260405180604001604052808573ffffffffffffffffffffffffffffffffffffffff1681526020013373ffffffffffffffffffffffffffffffffffffffff16815250908060018154018082558091505060019003906000526020600020906002020160009091909190915060008201518160000160006101000a81548173ffffffffffffffffffffffffffffffffffffffff021916908373ffffffffffffffffffffffffffffffffffffffff16021790555060208201518160010160006101000a81548173ffffffffffffffffffffffffffffffffffffffff021916908373ffffffffffffffffffffffffffffffffffffffff16021790555050506001601a60008573ffffffffffffffffffffffffffffffffffffffff1673ffffffffffffffffffffffffffffffffffffffff16815260200190815260200160002060003373ffffffffffffffffffffffffffffffffffffffff1673ffffffffffffffffffffffffffffffffffffffff16815260200190815260200160002060006101000a81548160ff0219169083151502179055506001601360008573ffffffffffffffffffffffffffffffffffffffff1673ffffffffffffffffffffffffffffffffffffffff1681526020019081526020016000206000828254613103919061528f565b925050819055506001601460003373ffffffffffffffffffffffffffffffffffffffff1673ffffffffffffffffffffffffffffffffffffffff168152602001908152602001600020600082825461315a919061528f565b9250508190555061316d565b50506131d5565b8273ffffffffffffffffffffffffffffffffffffffff163373ffffffffffffffffffffffffffffffffffffffff167f7ac1d74706984e50175cdfa1110674ddeb05cf53294d08a8a0d84d770bae668a426040516131ca91906145d3565b60405180910390a350505b5050565b6131e1613fc1565b80600a8190555050565b6131f3613a43565b6000601160008373ffffffffffffffffffffffffffffffffffffffff1673ffffffffffffffffffffffffffffffffffffffff1681526020019081526020016000205490506000600f828154811061324d5761324c614fc5565b5b906000526020600020906007020190508273ffffffffffffffffffffffffffffffffffffffff16601960003373ffffffffffffffffffffffffffffffffffffffff1673ffffffffffffffffffffffffffffffffffffffff16815260200190815260200160002060008573ffffffffffffffffffffffffffffffffffffffff1673ffffffffffffffffffffffffffffffffffffffff16815260200190815260200160002060009054906101000a900473ffffffffffffffffffffffffffffffffffffffff1673ffffffffffffffffffffffffffffffffffffffff161415801561334b5750600015158160060160009054906101000a900460ff16151514155b61338a576040517f08c379a000000000000000000000000000000000000000000000000000000000815260040161338190615700565b60405180910390fd5b82601960003373ffffffffffffffffffffffffffffffffffffffff1673ffffffffffffffffffffffffffffffffffffffff16815260200190815260200160002060008573ffffffffffffffffffffffffffffffffffffffff1673ffffffffffffffffffffffffffffffffffffffff16815260200190815260200160002060006101000a81548173ffffffffffffffffffffffffffffffffffffffff021916908373ffffffffffffffffffffffffffffffffffffffff160217905550600181600101600082825461345a919061528f565b92505081905550600a54816001015410156134a75760008160060160009054906101000a900460ff169050808260060160006101000a81548160ff0219169083151502179055505061351d565b60008160060160006101000a81548160ff0219169083151502179055506000601860008573ffffffffffffffffffffffffffffffffffffffff1673ffffffffffffffffffffffffffffffffffffffff16815260200190815260200160002060006101000a81548160ff0219169083151502179055505b8273ffffffffffffffffffffffffffffffffffffffff163373ffffffffffffffffffffffffffffffffffffffff167f6ceca1a3cd7cb44311239fc385b20e17433d6483d6abe63fb5c51567edd4aa4a4260405161357a91906145d3565b60405180910390a3505050565b6000600160008473ffffffffffffffffffffffffffffffffffffffff1673ffffffffffffffffffffffffffffffffffffffff16815260200190815260200160002060008373ffffffffffffffffffffffffffffffffffffffff1673ffffffffffffffffffffffffffffffffffffffff16815260200190815260200160002054905092915050565b6000600c54905090565b8273ffffffffffffffffffffffffffffffffffffffff163373ffffffffffffffffffffffffffffffffffffffff167f30b70ac3fbb7579c74a917a29389560028fa9789f81f3540fd9da51e7f457d8b8484604051613677929190615923565b60405180910390a3505050565b61368c613fc1565b80600860006101000a81548173ffffffffffffffffffffffffffffffffffffffff021916908373ffffffffffffffffffffffffffffffffffffffff16021790555050565b60606136da613f2c565b6000601360008473ffffffffffffffffffffffffffffffffffffffff1673ffffffffffffffffffffffffffffffffffffffff1681526020019081526020016000205467ffffffffffffffff81111561373557613734614af5565b5b60405190808252806020026020018201604052801561376e57816020015b61375b6142a5565b8152602001906001900390816137535790505b5090506000805b60128054905081101561391a578473ffffffffffffffffffffffffffffffffffffffff16601282815481106137ad576137ac614fc5565b5b906000526020600020906002020160000160009054906101000a900473ffffffffffffffffffffffffffffffffffffffff1673ffffffffffffffffffffffffffffffffffffffff1614156139075760006012828154811061381157613810614fc5565b5b90600052602060002090600202019050806040518060400160405290816000820160009054906101000a900473ffffffffffffffffffffffffffffffffffffffff1673ffffffffffffffffffffffffffffffffffffffff1673ffffffffffffffffffffffffffffffffffffffff1681526020016001820160009054906101000a900473ffffffffffffffffffffffffffffffffffffffff1673ffffffffffffffffffffffffffffffffffffffff1673ffffffffffffffffffffffffffffffffffffffff16815250508484815181106138ec576138eb614fc5565b5b6020026020010181905250828061390290615444565b935050505b808061391290615444565b915050613775565b508192505050919050565b600654600754101580156139865750600860009054906101000a900473ffffffffffffffffffffffffffffffffffffffff1673ffffffffffffffffffffffffffffffffffffffff163373ffffffffffffffffffffffffffffffffffffffff16145b80156139a5575060001515600e60009054906101000a900460ff161515145b6139e4576040517f08c379a00000000000000000000000000000000000000000000000000000000081526004016139db90615993565b60405180910390fd5b6001600e60006101000a81548160ff021916908315150217905550613a2f33613a0b610e9b565b60ff16600a613a1a9190615156565b640105117f00613a2a91906151d5565b6140f8565b565b613a39613fc1565b80600d8190555050565b60011515601860003373ffffffffffffffffffffffffffffffffffffffff1673ffffffffffffffffffffffffffffffffffffffff16815260200190815260200160002060009054906101000a900460ff16151514613ad6576040517f08c379a0000000000000000000000000000000000000000000000000000000008152600401613acd906159ff565b60405180910390fd5b565b600033905090565b600073ffffffffffffffffffffffffffffffffffffffff168373ffffffffffffffffffffffffffffffffffffffff161415613b50576040517f08c379a0000000000000000000000000000000000000000000000000000000008152600401613b4790615a91565b60405180910390fd5b600073ffffffffffffffffffffffffffffffffffffffff168273ffffffffffffffffffffffffffffffffffffffff161415613bc0576040517f08c379a0000000000000000000000000000000000000000000000000000000008152600401613bb790615b23565b60405180910390fd5b80600160008573ffffffffffffffffffffffffffffffffffffffff1673ffffffffffffffffffffffffffffffffffffffff16815260200190815260200160002060008473ffffffffffffffffffffffffffffffffffffffff1673ffffffffffffffffffffffffffffffffffffffff168152602001908152602001600020819055508173ffffffffffffffffffffffffffffffffffffffff168373ffffffffffffffffffffffffffffffffffffffff167f8c5be1e5ebec7d5bd14f71427d1e84f3dd0314c0f7b2291e5b200ac8c7c3b92583604051613c9e91906145d3565b60405180910390a3505050565b600073ffffffffffffffffffffffffffffffffffffffff168373ffffffffffffffffffffffffffffffffffffffff161415613d1b576040517f08c379a0000000000000000000000000000000000000000000000000000000008152600401613d1290615bb5565b60405180910390fd5b600073ffffffffffffffffffffffffffffffffffffffff168273ffffffffffffffffffffffffffffffffffffffff161415613d8b576040517f08c379a0000000000000000000000000000000000000000000000000000000008152600401613d8290615c47565b60405180910390fd5b613d96838383614258565b60008060008573ffffffffffffffffffffffffffffffffffffffff1673ffffffffffffffffffffffffffffffffffffffff16815260200190815260200160002054905081811015613e1c576040517f08c379a0000000000000000000000000000000000000000000000000000000008152600401613e1390615cd9565b60405180910390fd5b8181036000808673ffffffffffffffffffffffffffffffffffffffff1673ffffffffffffffffffffffffffffffffffffffff16815260200190815260200160002081905550816000808573ffffffffffffffffffffffffffffffffffffffff1673ffffffffffffffffffffffffffffffffffffffff1681526020019081526020016000206000828254613eaf919061528f565b925050819055508273ffffffffffffffffffffffffffffffffffffffff168473ffffffffffffffffffffffffffffffffffffffff167fddf252ad1be2c89b69c2b068fc378daa952ba7f163c4a11628f55a4df523b3ef84604051613f1391906145d3565b60405180910390a3613f2684848461425d565b50505050565b60001515601760003373ffffffffffffffffffffffffffffffffffffffff1673ffffffffffffffffffffffffffffffffffffffff16815260200190815260200160002060009054906101000a900460ff16151514613fbf576040517f08c379a0000000000000000000000000000000000000000000000000000000008152600401613fb690615d45565b60405180910390fd5b565b600860009054906101000a900473ffffffffffffffffffffffffffffffffffffffff1673ffffffffffffffffffffffffffffffffffffffff163373ffffffffffffffffffffffffffffffffffffffff1614614051576040517f08c379a000000000000000000000000000000000000000000000000000000000815260040161404890615db1565b60405180910390fd5b565b6000816040516020016140669190615e53565b604051602081830303815290604052805190602001209050919050565b60008060008061409285614262565b809350819450829550505050600186848484604051600081526020016040526040516140c19493929190615e88565b6020604051602081039080840390855afa1580156140e3573d6000803e3d6000fd5b50505060206040510351935050505092915050565b600073ffffffffffffffffffffffffffffffffffffffff168273ffffffffffffffffffffffffffffffffffffffff161415614168576040517f08c379a000000000000000000000000000000000000000000000000000000000815260040161415f90615f19565b60405180910390fd5b61417460008383614258565b8060026000828254614186919061528f565b92505081905550806000808473ffffffffffffffffffffffffffffffffffffffff1673ffffffffffffffffffffffffffffffffffffffff16815260200190815260200160002060008282546141db919061528f565b925050819055508173ffffffffffffffffffffffffffffffffffffffff16600073ffffffffffffffffffffffffffffffffffffffff167fddf252ad1be2c89b69c2b068fc378daa952ba7f163c4a11628f55a4df523b3ef8360405161424091906145d3565b60405180910390a36142546000838361425d565b5050565b505050565b505050565b6000806000604184511461427557600080fd5b60008060006020870151925060408701519150606087015160001a90508083839550955095505050509193909250565b6040518060400160405280600073ffffffffffffffffffffffffffffffffffffffff168152602001600073ffffffffffffffffffffffffffffffffffffffff1681525090565b604051806101000160405280600081526020016000815260200160008152602001606081526020016060815260200160608152602001600015158152602001600073ffffffffffffffffffffffffffffffffffffffff1681525090565b82805461435490615314565b90600052602060002090601f01602090048101928261437657600085556143bd565b82601f1061438f57805160ff19168380011785556143bd565b828001600101855582156143bd579182015b828111156143bc5782518255916020019190600101906143a1565b5b5090506143ca91906143ce565b5090565b5b808211156143e75760008160009055506001016143cf565b5090565b600081519050919050565b600082825260208201905092915050565b60005b8381101561442557808201518184015260208101905061440a565b83811115614434576000848401525b50505050565b6000601f19601f8301169050919050565b6000614456826143eb565b61446081856143f6565b9350614470818560208601614407565b6144798161443a565b840191505092915050565b6000602082019050818103600083015261449e818461444b565b905092915050565b6000604051905090565b600080fd5b600080fd5b600073ffffffffffffffffffffffffffffffffffffffff82169050919050565b60006144e5826144ba565b9050919050565b6144f5816144da565b811461450057600080fd5b50565b600081359050614512816144ec565b92915050565b6000819050919050565b61452b81614518565b811461453657600080fd5b50565b60008135905061454881614522565b92915050565b60008060408385031215614565576145646144b0565b5b600061457385828601614503565b925050602061458485828601614539565b9150509250929050565b60008115159050919050565b6145a38161458e565b82525050565b60006020820190506145be600083018461459a565b92915050565b6145cd81614518565b82525050565b60006020820190506145e860008301846145c4565b92915050565b600080600060608486031215614607576146066144b0565b5b600061461586828701614503565b935050602061462686828701614503565b925050604061463786828701614539565b9150509250925092565b600060208284031215614657576146566144b0565b5b600061466584828501614503565b91505092915050565b600060ff82169050919050565b6146848161466e565b82525050565b600060208201905061469f600083018461467b565b92915050565b6146ae816144da565b82525050565b6000610100820190506146ca600083018b6145c4565b6146d7602083018a6145c4565b6146e460408301896145c4565b6146f160608301886145c4565b6146fe60808301876145c4565b61470b60a08301866145c4565b61471860c08301856146a5565b61472560e08301846145c4565b9998505050505050505050565b60008060408385031215614749576147486144b0565b5b600061475785828601614539565b925050602061476885828601614503565b9150509250929050565b600081519050919050565b600082825260208201905092915050565b6000819050602082019050919050565b6147a7816144da565b82525050565b6040820160008201516147c3600085018261479e565b5060208201516147d6602085018261479e565b50505050565b60006147e883836147ad565b60408301905092915050565b6000602082019050919050565b600061480c82614772565b614816818561477d565b93506148218361478e565b8060005b8381101561485257815161483988826147dc565b9750614844836147f4565b925050600181019050614825565b5085935050505092915050565b600060208201905081810360008301526148798184614801565b905092915050565b600081519050919050565b600082825260208201905092915050565b6000819050602082019050919050565b6148b681614518565b82525050565b600082825260208201905092915050565b60006148d8826143eb565b6148e281856148bc565b93506148f2818560208601614407565b6148fb8161443a565b840191505092915050565b61490f8161458e565b82525050565b60006101008301600083015161492e60008601826148ad565b50602083015161494160208601826148ad565b50604083015161495460408601826148ad565b506060830151848203606086015261496c82826148cd565b9150506080830151848203608086015261498682826148cd565b91505060a083015184820360a08601526149a082826148cd565b91505060c08301516149b560c0860182614906565b5060e08301516149c860e086018261479e565b508091505092915050565b60006149df8383614915565b905092915050565b6000602082019050919050565b60006149ff82614881565b614a09818561488c565b935083602082028501614a1b8561489d565b8060005b85811015614a575784840389528151614a3885826149d3565b9450614a43836149e7565b925060208a01995050600181019050614a1f565b50829750879550505050505092915050565b60006020820190508181036000830152614a8381846149f4565b905092915050565b600080fd5b600080fd5b600080fd5b60008083601f840112614ab057614aaf614a8b565b5b8235905067ffffffffffffffff811115614acd57614acc614a90565b5b602083019150836001820283011115614ae957614ae8614a95565b5b9250929050565b600080fd5b7f4e487b7100000000000000000000000000000000000000000000000000000000600052604160045260246000fd5b614b2d8261443a565b810181811067ffffffffffffffff82111715614b4c57614b4b614af5565b5b80604052505050565b6000614b5f6144a6565b9050614b6b8282614b24565b919050565b600067ffffffffffffffff821115614b8b57614b8a614af5565b5b614b948261443a565b9050602081019050919050565b82818337600083830152505050565b6000614bc3614bbe84614b70565b614b55565b905082815260208101848484011115614bdf57614bde614af0565b5b614bea848285614ba1565b509392505050565b600082601f830112614c0757614c06614a8b565b5b8135614c17848260208601614bb0565b91505092915050565b600080600080600060808688031215614c3c57614c3b6144b0565b5b600086013567ffffffffffffffff811115614c5a57614c596144b5565b5b614c6688828901614a9a565b9550955050602086013567ffffffffffffffff811115614c8957614c886144b5565b5b614c9588828901614bf2565b935050604086013567ffffffffffffffff811115614cb657614cb56144b5565b5b614cc288828901614bf2565b925050606086013567ffffffffffffffff811115614ce357614ce26144b5565b5b614cef88828901614bf2565b9150509295509295909350565b600061010082019050614d12600083018b6145c4565b614d1f602083018a6145c4565b614d2c60408301896145c4565b8181036060830152614d3e818861444b565b90508181036080830152614d52818761444b565b905081810360a0830152614d66818661444b565b9050614d7560c083018561459a565b614d8260e08301846146a5565b9998505050505050505050565b600080600060608486031215614da857614da76144b0565b5b600084013567ffffffffffffffff811115614dc657614dc56144b5565b5b614dd286828701614bf2565b935050602084013567ffffffffffffffff811115614df357614df26144b5565b5b614dff86828701614bf2565b925050604084013567ffffffffffffffff811115614e2057614e1f6144b5565b5b614e2c86828701614bf2565b9150509250925092565b600060208284031215614e4c57614e4b6144b0565b5b6000614e5a84828501614539565b91505092915050565b60008060408385031215614e7a57614e796144b0565b5b6000614e8885828601614503565b9250506020614e9985828601614503565b9150509250929050565b60008083601f840112614eb957614eb8614a8b565b5b8235905067ffffffffffffffff811115614ed657614ed5614a90565b5b602083019150836001820283011115614ef257614ef1614a95565b5b9250929050565b600080600060408486031215614f1257614f116144b0565b5b6000614f2086828701614503565b935050602084013567ffffffffffffffff811115614f4157614f406144b5565b5b614f4d86828701614ea3565b92509250509250925092565b7f616c7265616479206d696e746564000000000000000000000000000000000000600082015250565b6000614f8f600e836143f6565b9150614f9a82614f59565b602082019050919050565b60006020820190508181036000830152614fbe81614f82565b9050919050565b7f4e487b7100000000000000000000000000000000000000000000000000000000600052603260045260246000fd5b7f4e487b7100000000000000000000000000000000000000000000000000000000600052601160045260246000fd5b60008160011c9050919050565b6000808291508390505b600185111561507a5780860481111561505657615055614ff4565b5b60018516156150655780820291505b808102905061507385615023565b945061503a565b94509492505050565b600082615093576001905061514f565b816150a1576000905061514f565b81600181146150b757600281146150c1576150f0565b600191505061514f565b60ff8411156150d3576150d2614ff4565b5b8360020a9150848211156150ea576150e9614ff4565b5b5061514f565b5060208310610133831016604e8410600b84101617156151255782820a9050838111156151205761511f614ff4565b5b61514f565b6151328484846001615030565b9250905081840481111561514957615148614ff4565b5b81810290505b9392505050565b600061516182614518565b915061516c83614518565b92506151997fffffffffffffffffffffffffffffffffffffffffffffffffffffffffffffffff8484615083565b905092915050565b60006151ac82614518565b91506151b783614518565b9250828210156151ca576151c9614ff4565b5b828203905092915050565b60006151e082614518565b91506151eb83614518565b9250817fffffffffffffffffffffffffffffffffffffffffffffffffffffffffffffffff048311821515161561522457615223614ff4565b5b828202905092915050565b7f4e487b7100000000000000000000000000000000000000000000000000000000600052601260045260246000fd5b600061526982614518565b915061527483614518565b9250826152845761528361522f565b5b828204905092915050565b600061529a82614518565b91506152a583614518565b9250827fffffffffffffffffffffffffffffffffffffffffffffffffffffffffffffffff038211156152da576152d9614ff4565b5b828201905092915050565b7f4e487b7100000000000000000000000000000000000000000000000000000000600052602260045260246000fd5b6000600282049050600182168061532c57607f821691505b602082108114156153405761533f6152e5565b5b50919050565b7f45524332303a207472616e7366657220616d6f756e742065786365656473206160008201527f6c6c6f77616e6365000000000000000000000000000000000000000000000000602082015250565b60006153a26028836143f6565b91506153ad82615346565b604082019050919050565b600060208201905081810360008301526153d181615395565b9050919050565b7f326d756368000000000000000000000000000000000000000000000000000000600082015250565b600061540e6005836143f6565b9150615419826153d8565b602082019050919050565b6000602082019050818103600083015261543d81615401565b9050919050565b600061544f82614518565b91507fffffffffffffffffffffffffffffffffffffffffffffffffffffffffffffffff82141561548257615481614ff4565b5b600182019050919050565b60008160601b9050919050565b60006154a58261548d565b9050919050565b60006154b78261549a565b9050919050565b6154cf6154ca826144da565b6154ac565b82525050565b60006154e182846154be565b60148201915081905092915050565b7f696e76616c69645369674f72416c526567000000000000000000000000000000600082015250565b60006155266011836143f6565b9150615531826154f0565b602082019050919050565b6000602082019050818103600083015261555581615519565b9050919050565b600060808201905061557160008301876145c4565b8181036020830152615583818661444b565b90508181036040830152615597818561444b565b905081810360608301526155ab818461444b565b905095945050505050565b7f45524332303a2064656372656173656420616c6c6f77616e63652062656c6f7760008201527f207a65726f000000000000000000000000000000000000000000000000000000602082015250565b60006156126025836143f6565b915061561d826155b6565b604082019050919050565b6000602082019050818103600083015261564181615605565b9050919050565b7f4e6f74416c6c6f77656400000000000000000000000000000000000000000000600082015250565b600061567e600a836143f6565b915061568982615648565b602082019050919050565b600060208201905081810360008301526156ad81615671565b9050919050565b7f416c722072657000000000000000000000000000000000000000000000000000600082015250565b60006156ea6007836143f6565b91506156f5826156b4565b602082019050919050565b60006020820190508181036000830152615719816156dd565b9050919050565b7f6d6178476f6f64436f756e740000000000000000000000000000000000000000600082015250565b6000615756600c836143f6565b915061576182615720565b602082019050919050565b6000602082019050818103600083015261578581615749565b9050919050565b7f4e6f744e65656465640000000000000000000000000000000000000000000000600082015250565b60006157c26009836143f6565b91506157cd8261578c565b602082019050919050565b600060208201905081810360008301526157f1816157b5565b9050919050565b7f6e6f747965746d696e7465640000000000000000000000000000000000000000600082015250565b600061582e600c836143f6565b9150615839826157f8565b602082019050919050565b6000602082019050818103600083015261585d81615821565b9050919050565b50565b60006158746000836143f6565b915061587f82615864565b600082019050919050565b600060208201905081810360008301526158a381615867565b9050919050565b600060608201905081810360008301526158c4818661444b565b905081810360208301526158d8818561444b565b905081810360408301526158ec818461444b565b9050949350505050565b600061590283856143f6565b935061590f838584614ba1565b6159188361443a565b840190509392505050565b6000602082019050818103600083015261593e8184866158f6565b90509392505050565b7f6e61000000000000000000000000000000000000000000000000000000000000600082015250565b600061597d6002836143f6565b915061598882615947565b602082019050919050565b600060208201905081810360008301526159ac81615970565b9050919050565b7f626c000000000000000000000000000000000000000000000000000000000000600082015250565b60006159e96002836143f6565b91506159f4826159b3565b602082019050919050565b60006020820190508181036000830152615a18816159dc565b9050919050565b7f45524332303a20617070726f76652066726f6d20746865207a65726f2061646460008201527f7265737300000000000000000000000000000000000000000000000000000000602082015250565b6000615a7b6024836143f6565b9150615a8682615a1f565b604082019050919050565b60006020820190508181036000830152615aaa81615a6e565b9050919050565b7f45524332303a20617070726f766520746f20746865207a65726f20616464726560008201527f7373000000000000000000000000000000000000000000000000000000000000602082015250565b6000615b0d6022836143f6565b9150615b1882615ab1565b604082019050919050565b60006020820190508181036000830152615b3c81615b00565b9050919050565b7f45524332303a207472616e736665722066726f6d20746865207a65726f20616460008201527f6472657373000000000000000000000000000000000000000000000000000000602082015250565b6000615b9f6025836143f6565b9150615baa82615b43565b604082019050919050565b60006020820190508181036000830152615bce81615b92565b9050919050565b7f45524332303a207472616e7366657220746f20746865207a65726f206164647260008201527f6573730000000000000000000000000000000000000000000000000000000000602082015250565b6000615c316023836143f6565b9150615c3c82615bd5565b604082019050919050565b60006020820190508181036000830152615c6081615c24565b9050919050565b7f45524332303a207472616e7366657220616d6f756e742065786365656473206260008201527f616c616e63650000000000000000000000000000000000000000000000000000602082015250565b6000615cc36026836143f6565b9150615cce82615c67565b604082019050919050565b60006020820190508181036000830152615cf281615cb6565b9050919050565b7f6e6f74416c6c6f77656400000000000000000000000000000000000000000000600082015250565b6000615d2f600a836143f6565b9150615d3a82615cf9565b602082019050919050565b60006020820190508181036000830152615d5e81615d22565b9050919050565b7f6f61000000000000000000000000000000000000000000000000000000000000600082015250565b6000615d9b6002836143f6565b9150615da682615d65565b602082019050919050565b60006020820190508181036000830152615dca81615d8e565b9050919050565b600081905092915050565b7f19457468657265756d205369676e6564204d6573736167653a0a333200000000600082015250565b6000615e12601c83615dd1565b9150615e1d82615ddc565b601c82019050919050565b6000819050919050565b6000819050919050565b615e4d615e4882615e28565b615e32565b82525050565b6000615e5e82615e05565b9150615e6a8284615e3c565b60208201915081905092915050565b615e8281615e28565b82525050565b6000608082019050615e9d6000830187615e79565b615eaa602083018661467b565b615eb76040830185615e79565b615ec46060830184615e79565b95945050505050565b7f45524332303a206d696e7420746f20746865207a65726f206164647265737300600082015250565b6000615f03601f836143f6565b9150615f0e82615ecd565b602082019050919050565b60006020820190508181036000830152615f3281615ef6565b905091905056fea2646970667358221220b59819886b9eb54c89588b540b7e399827e261ea994e3090677537c5f3b9eaf864736f6c634300080a0033",
  "immutableReferences": {},
  "source": "  // SPDX-License-Identifier: MIT\n  pragma solidity 0.8.10;\n\n  import \"@openzeppelin/contracts/token/ERC20/ERC20.sol\";\n\n  contract slice is ERC20 {\n      \n      uint start;\n      uint vTotalSupply;\n      uint vSupply;\n      address listAdmin;\n      address signer;\n      uint wenBlock;\n      uint maxGoodCount;\n      uint mintingSpeed;\n      uint goodPrice;\n      bool longTermReward;\n\n\n          function _a() private view {\n            require ((whitelist[msg.sender]==true), \"bl\");\n          }\n          modifier onlyWhitelisted() {\n            _a();\n            _;\n          }\n          function _b() private view {\n            require (\n              blacklist[msg.sender]==false,\n              \"notAllowed\"\n          );\n          }\n          modifier onlyNotBlacklisted() { \n            _b();\n            _;\n          }\n\n          function _admin() private view {\n            require(msg.sender == listAdmin, 'oa');\n          }\n          modifier onlyAdmin() {\n            _admin();\n            _;\n          }\n\n\n      constructor (string memory name, string memory symbol) ERC20(name, symbol) {\n        start = block.timestamp;\n        vTotalSupply = 438000000000 * 10 ** uint(decimals());\n        listAdmin = msg.sender;\n        signer = 0xD6AF7959290caeE9E8564EC80a33b92335d6232C;\n        wenBlock=2;\n        maxGoodCount=1;\n        mintingSpeed=3600;\n        goodPrice=10000000000000000;\n        longTermReward=false;\n      }\n\n      struct Minters {\n          uint goodCount;\n          uint reported;\n          uint lastMinted;\n          string gpsLat;\n          string gpsLon;\n          string nickname;\n          bool whitelisted;\n          address addr;\n      }\n      Minters[] mintersDB;\n      mapping(address => Minters) minters;\n      mapping(address => uint) index;\n      \n      struct StakedContracts {\n          address staker;\n          address fightContract;\n      }\n      StakedContracts []  stakersList;\n      \n      mapping (address=>uint )  stakedContractsCounter;\n      mapping (address=>uint )  stakedFightCounter;\n      mapping (address => uint) vSliceBalances;\n      mapping (address => uint) stakedVSlices;\n      mapping (address => bool) blacklist;\n      mapping (address => bool) whitelist;\n      mapping (address => mapping(address=> address))  challengers;\n      mapping (address => mapping(address=> bool))  stakers;\n      mapping (address => uint) pw;\n      error NotEnoughEther();\n\n      function isRegistered (address _addr) view external returns(uint) {\n      return index[_addr];\n      }\n      function  wl(address _addr) view external  returns (bool) {\n      return whitelist[_addr] ;\n      }\n\n      event BadActors(uint date, address indexed reporter, address indexed reported);\n      function reportBadActor(address _addr) external onlyWhitelisted {\n      uint indx = index[_addr];\n      Minters storage m = mintersDB[indx];\n      require (challengers[msg.sender][_addr] != _addr && m.whitelisted!=false, \"Alr rep\");\n      challengers[msg.sender][_addr] = _addr;\n      m.reported += 1;\n      if (m.reported <wenBlock) \n          {bool existingStatus=m.whitelisted;\n            m.whitelisted=existingStatus;\n      }else {\n          m.whitelisted=false;\n          whitelist[_addr] = false;\n      }\n      emit BadActors (block.timestamp, msg.sender, _addr);\n      }\n      \n      event GoodActors(uint date, address indexed reporter, address indexed reported);\n      function reportGoodActor(address _addr) external payable onlyWhitelisted {\n      uint indx = index[_addr];\n      Minters storage m = mintersDB[indx];\n      require (msg.sender != _addr, \"NotAllowed\");\n      require (challengers[msg.sender][_addr] != _addr, \"Alr rep\");\n      require (m.goodCount<maxGoodCount, \"maxGoodCount\");\n      require (m.reported>0, \"NotNeeded\");\n      if (msg.value != goodPrice) revert NotEnoughEther();\n      pw[listAdmin]+= goodPrice;\n      challengers[msg.sender][_addr] = _addr;\n      m.reported -= 1;\n      m.goodCount+=1;\n      if (m.reported >=wenBlock)  \n          {bool existingStatus=m.whitelisted;\n            m.whitelisted=existingStatus;\n      }else {\n          m.whitelisted=true;\n          whitelist[_addr] = true;\n      } \n      emit GoodActors (block.timestamp, msg.sender, _addr);\n      }\n      \n      event mintersFree(address indexed minter, string Lat, string Lon, string Nick);\n      function AddToWhitelist (string memory  _gpsLat,string memory  _gpsLon, string memory _nickname) external {\n      require(vSupply>= vTotalSupply, \"\");\n      require(index[msg.sender]==0, \"\");\n      mintersDB.push(Minters(0, 0, 0, _gpsLat, _gpsLon, _nickname, true, msg.sender));\n      index[msg.sender] = mintersDB.length-1;\n      whitelist[msg.sender] = true;\n      emit mintersFree(msg.sender,_gpsLat, _gpsLon, _nickname);\n    }\n          \n          \n      event newMinter(uint date, address indexed minter, string Lat, string Lon, string Nick);\n      function addToWhitelist_a7I(bytes calldata signature, string memory _gpsLat,string memory _gpsLon, string memory _nickname) external {\n      bytes32 message = prefixed(keccak256(abi.encodePacked(\n        msg.sender\n      )));\n      require(recoverSigner(message, signature) == signer && index[msg.sender]==0 , \"invalidSigOrAlReg\");\n      mintersDB.push(Minters(0, 0, 0, _gpsLat, _gpsLon, _nickname, true, msg.sender));\n      index[msg.sender] = mintersDB.length-1;\n      whitelist[msg.sender] = true;\n      emit newMinter(block.timestamp, msg.sender,_gpsLat, _gpsLon, _nickname);\n    }\n\n    function prefixed(bytes32 hash) internal pure returns (bytes32) {\n      return keccak256(abi.encodePacked(\n        '\\x19Ethereum Signed Message:\\n32', \n        hash\n      ));\n    }\n\n    function recoverSigner(bytes32 message, bytes memory sig)\n      internal\n      pure\n      returns (address)\n    {\n      uint8 v;\n      bytes32 r;\n      bytes32 s;\n    \n      (v, r, s) = splitSignature(sig);\n    \n      return ecrecover(message, v, r, s);\n    }\n\n    function splitSignature(bytes memory sig)\n      internal\n      pure\n      returns (uint8, bytes32, bytes32)\n    {\n      require(sig.length == 65);\n    \n      bytes32 r;\n      bytes32 s;\n      uint8 v;\n    \n      assembly {\n          // first 32 bytes, after the length prefix\n          r := mload(add(sig, 32))\n          // second 32 bytes\n          s := mload(add(sig, 64))\n          // final byte (first byte of the next 32 bytes)\n          v := byte(0, mload(add(sig, 96)))\n      }\n    \n      return (v, r, s);\n    }\n\n      function SliceMinting() external onlyWhitelisted {\n          require(vSupply>=vTotalSupply, \"notyetminted\");\n          uint amount = vSliceBalances[msg.sender];\n          vSliceBalances[msg.sender]=0;\n          _mint(msg.sender, amount);\n\n      }\n      \n      function AdminLongTermReward() external {\n      require(vSupply>=vTotalSupply && msg.sender==listAdmin && longTermReward==false, \"na\");\n      longTermReward = true;\n      _mint(msg.sender, (4380000000 * 10 ** uint(decimals())));\n  }\n\n      function vSliceMinting_ExW() external onlyWhitelisted {\n              require(vSupply<= vTotalSupply, \"already minted\");\n              uint indx = index[msg.sender];\n              Minters storage m = mintersDB[indx];\n              uint mint;\n              uint diff;\n          if (m.lastMinted == 0) {\n              mint = (block.timestamp-start)* 10 ** uint(decimals());\n              vSliceBalances[msg.sender]+= mint/mintingSpeed;\n              m.lastMinted = block.timestamp;\n              vSupply+= mint/mintingSpeed;}\n          else {\n              diff = block.timestamp - m.lastMinted;\n              mint = diff* 10 ** uint(decimals());\n              vSliceBalances[msg.sender]+= mint/mintingSpeed;\n              m.lastMinted = block.timestamp;\n              vSupply+= mint/mintingSpeed;}\n\n      }\n      \n      event StakingVSlice (uint date, address indexed fightContract, address indexed Staker);\n      function stakeVSlice_h56(uint _amount, address _addr) external onlyNotBlacklisted{\n          uint indx = index[_addr];\n          Minters storage m = mintersDB[indx];\n          require (vSliceBalances[_addr] >= _amount && m.whitelisted!=false, \"2much\");\n          stakedVSlices[_addr] += _amount;\n          vSliceBalances[_addr] -= _amount;\n          if (stakers[_addr][msg.sender] == false) {\n              stakersList.push(StakedContracts(_addr, msg.sender));\n              stakers[_addr][msg.sender] = true;\n              stakedContractsCounter[_addr] += 1;\n              stakedFightCounter[msg.sender] +=1;\n          } else {return;}\n          emit StakingVSlice (block.timestamp, msg.sender, _addr);\n      }\n      event UnStakingVSlice (uint date, address indexed fightContract, address indexed Unstaker);\n      function unstakeVSlice_Hha(uint _amount, address _addr) external onlyNotBlacklisted {\n          uint indx = index[_addr];\n          Minters storage m = mintersDB[indx];\n          require(stakedVSlices[_addr]>=_amount && m.whitelisted!=false, \"2much\");\n          stakedVSlices[_addr] -= _amount;\n          vSliceBalances[_addr] += _amount;\n          emit UnStakingVSlice (block.timestamp, msg.sender, _addr);\n      }\n\n      function getStakedByStaker(address _owner) view external onlyNotBlacklisted returns (StakedContracts[] memory){\n        StakedContracts[]    memory id = new StakedContracts[](stakedContractsCounter[_owner]);\n            uint counter = 0;\n            \n        for (uint i = 0; i < stakersList.length; i++) {\n            if (stakersList[i].staker == _owner) {\n          StakedContracts storage list = stakersList[i];\n            id[counter] = list;\n            counter++;\n        }\n      }\n        return id;\n    }\n      function getStakedByFight(address _fight) view external onlyNotBlacklisted returns (StakedContracts[] memory){\n        StakedContracts[]    memory id = new StakedContracts[](stakedFightCounter[_fight]);\n            uint counter = 0;\n            \n        for (uint i = 0; i < stakersList.length; i++) {\n            if (stakersList[i].fightContract== _fight) {\n          StakedContracts storage list = stakersList[i];\n            id[counter] = list;\n            counter++;\n        }\n      }\n        return id;\n    }\n      function getAllMinters() public view returns (Minters[] memory){\n        Minters[]    memory id = new Minters[](mintersDB.length);\n        for (uint i = 0; i < mintersDB.length; i++) {\n            Minters storage mint = mintersDB[i];\n            id[i] = mint;\n        }\n        return id;\n    }\n    \n      function getUserFromBlackList(address _addr) public view returns (bool) {\n      return blacklist[_addr];\n      }\n      function getMinter(address _addr)  view external returns (uint, uint, uint, string memory, string memory,string memory, bool, address) {\n          uint indx = index[_addr];\n          Minters storage m = mintersDB[indx];\n      return (m.goodCount, m.reported,m.lastMinted, m.gpsLat, m.gpsLon, m.nickname, m.whitelisted, m.addr);\n      }\n      function getMintingSpeed() public view returns (uint) {\n      return mintingSpeed;\n      }\n      function updateAdmin(address newAdmin) external onlyAdmin{\n      listAdmin = newAdmin;\n    }\n      function updateSigner(address _newSigner) external onlyAdmin{\n      signer = _newSigner;\n    }\n      function addToBlacklist(address _addr) external onlyAdmin{\n      blacklist[_addr] = true;\n    }\n      function removeFromBlacklist(address _addr) external onlyAdmin{\n      blacklist[_addr] = false;\n    }\n      function vSliceViewBalance (address _addr) view external onlyNotBlacklisted returns (uint) {\n      return vSliceBalances[_addr];\n      }\n      function getStakedBalance () view external returns (uint) {\n      return stakedVSlices[msg.sender];\n      }\n      function getStart () view external returns (uint) {\n      return start;\n      }\n      function setGoodP (uint _p) external onlyAdmin{\n      goodPrice = _p;\n    }\n      function getGoodP () view external returns (uint) {\n      return goodPrice;\n        }\n      function updateWenBlock(uint _count) external onlyAdmin {\n      wenBlock = _count;\n    }\n      function countMinters() view external returns(uint) {\n      return mintersDB.length;\n      }\n      function updateMaxGoodCount(uint _count) external onlyAdmin{\n      maxGoodCount = _count;\n    }\n      function sliceParams () view external returns (uint, uint, uint, uint, uint, uint, address, uint) {\n      return (vSupply, vTotalSupply, wenBlock, maxGoodCount, mintingSpeed, goodPrice, signer, pw[listAdmin]);\n      }\n      event Chat(address indexed _from, address indexed _to, string message);\n      function sendMessage(address _to, string calldata message) external {\n        emit Chat(msg.sender, _to, message);\n      }\n      //make withdrawal of Reputation fee\n      function reputation() public onlyAdmin{\n      uint amount = pw[listAdmin];\n      pw[listAdmin] = 0;\n      payable(msg.sender).transfer(amount);\n      }\n  }",
  "sourcePath": "/Users/stanislavpavlovic/Desktop/Slice/ee/contracts/slice.sol",
  "compiler": {
    "name": "solc",
    "version": "0.8.10+commit.fc410830.Emscripten.clang"
  },
  "schemaVersion": "3.4.3",
  "updatedAt": "2022-03-17T19:10:36.916Z",
  "networkType": "ethereum",
  "devdoc": {
    "kind": "dev",
    "methods": {
      "allowance(address,address)": {
        "details": "See {IERC20-allowance}."
      },
      "approve(address,uint256)": {
        "details": "See {IERC20-approve}. Requirements: - `spender` cannot be the zero address."
      },
      "balanceOf(address)": {
        "details": "See {IERC20-balanceOf}."
      },
      "decimals()": {
        "details": "Returns the number of decimals used to get its user representation. For example, if `decimals` equals `2`, a balance of `505` tokens should be displayed to a user as `5.05` (`505 / 10 ** 2`). Tokens usually opt for a value of 18, imitating the relationship between Ether and Wei. This is the value {ERC20} uses, unless this function is overridden; NOTE: This information is only used for _display_ purposes: it in no way affects any of the arithmetic of the contract, including {IERC20-balanceOf} and {IERC20-transfer}."
      },
      "decreaseAllowance(address,uint256)": {
        "details": "Atomically decreases the allowance granted to `spender` by the caller. This is an alternative to {approve} that can be used as a mitigation for problems described in {IERC20-approve}. Emits an {Approval} event indicating the updated allowance. Requirements: - `spender` cannot be the zero address. - `spender` must have allowance for the caller of at least `subtractedValue`."
      },
      "increaseAllowance(address,uint256)": {
        "details": "Atomically increases the allowance granted to `spender` by the caller. This is an alternative to {approve} that can be used as a mitigation for problems described in {IERC20-approve}. Emits an {Approval} event indicating the updated allowance. Requirements: - `spender` cannot be the zero address."
      },
      "name()": {
        "details": "Returns the name of the token."
      },
      "symbol()": {
        "details": "Returns the symbol of the token, usually a shorter version of the name."
      },
      "totalSupply()": {
        "details": "See {IERC20-totalSupply}."
      },
      "transfer(address,uint256)": {
        "details": "See {IERC20-transfer}. Requirements: - `recipient` cannot be the zero address. - the caller must have a balance of at least `amount`."
      },
      "transferFrom(address,address,uint256)": {
        "details": "See {IERC20-transferFrom}. Emits an {Approval} event indicating the updated allowance. This is not required by the EIP. See the note at the beginning of {ERC20}. Requirements: - `sender` and `recipient` cannot be the zero address. - `sender` must have a balance of at least `amount`. - the caller must have allowance for ``sender``'s tokens of at least `amount`."
      }
    },
    "version": 1
  },
  "userdoc": {
    "kind": "user",
    "methods": {},
    "version": 1
  }
}