{
  "contractName": "slice",
  "abi": [
    {
      "inputs": [
        {
          "internalType": "string",
          "name": "name",
          "type": "string"
        },
        {
          "internalType": "string",
          "name": "symbol",
          "type": "string"
        }
      ],
      "stateMutability": "nonpayable",
      "type": "constructor"
    },
    {
      "inputs": [],
      "name": "NotEnoughEther",
      "type": "error"
    },
    {
      "anonymous": false,
      "inputs": [
        {
          "indexed": true,
          "internalType": "address",
          "name": "owner",
          "type": "address"
        },
        {
          "indexed": true,
          "internalType": "address",
          "name": "spender",
          "type": "address"
        },
        {
          "indexed": false,
          "internalType": "uint256",
          "name": "value",
          "type": "uint256"
        }
      ],
      "name": "Approval",
      "type": "event"
    },
    {
      "anonymous": false,
      "inputs": [
        {
          "indexed": false,
          "internalType": "uint256",
          "name": "date",
          "type": "uint256"
        },
        {
          "indexed": true,
          "internalType": "address",
          "name": "reporter",
          "type": "address"
        },
        {
          "indexed": true,
          "internalType": "address",
          "name": "reported",
          "type": "address"
        }
      ],
      "name": "BadActors",
      "type": "event"
    },
    {
      "anonymous": false,
      "inputs": [
        {
          "indexed": true,
          "internalType": "address",
          "name": "_from",
          "type": "address"
        },
        {
          "indexed": true,
          "internalType": "address",
          "name": "_to",
          "type": "address"
        },
        {
          "indexed": false,
          "internalType": "string",
          "name": "message",
          "type": "string"
        }
      ],
      "name": "Chat",
      "type": "event"
    },
    {
      "anonymous": false,
      "inputs": [
        {
          "indexed": false,
          "internalType": "uint256",
          "name": "date",
          "type": "uint256"
        },
        {
          "indexed": true,
          "internalType": "address",
          "name": "reporter",
          "type": "address"
        },
        {
          "indexed": true,
          "internalType": "address",
          "name": "reported",
          "type": "address"
        }
      ],
      "name": "GoodActors",
      "type": "event"
    },
    {
      "anonymous": false,
      "inputs": [
        {
          "indexed": false,
          "internalType": "uint256",
          "name": "date",
          "type": "uint256"
        },
        {
          "indexed": true,
          "internalType": "address",
          "name": "fightContract",
          "type": "address"
        },
        {
          "indexed": true,
          "internalType": "address",
          "name": "Staker",
          "type": "address"
        }
      ],
      "name": "StakingVSlice",
      "type": "event"
    },
    {
      "anonymous": false,
      "inputs": [
        {
          "indexed": true,
          "internalType": "address",
          "name": "from",
          "type": "address"
        },
        {
          "indexed": true,
          "internalType": "address",
          "name": "to",
          "type": "address"
        },
        {
          "indexed": false,
          "internalType": "uint256",
          "name": "value",
          "type": "uint256"
        }
      ],
      "name": "Transfer",
      "type": "event"
    },
    {
      "anonymous": false,
      "inputs": [
        {
          "indexed": false,
          "internalType": "uint256",
          "name": "date",
          "type": "uint256"
        },
        {
          "indexed": true,
          "internalType": "address",
          "name": "fightContract",
          "type": "address"
        },
        {
          "indexed": true,
          "internalType": "address",
          "name": "Unstaker",
          "type": "address"
        }
      ],
      "name": "UnStakingVSlice",
      "type": "event"
    },
    {
      "anonymous": false,
      "inputs": [
        {
          "indexed": false,
          "internalType": "address",
          "name": "minter",
          "type": "address"
        },
        {
          "indexed": false,
          "internalType": "string",
          "name": "Lat",
          "type": "string"
        },
        {
          "indexed": false,
          "internalType": "string",
          "name": "Lon",
          "type": "string"
        },
        {
          "indexed": false,
          "internalType": "string",
          "name": "Nick",
          "type": "string"
        }
      ],
      "name": "mintersFree",
      "type": "event"
    },
    {
      "anonymous": false,
      "inputs": [
        {
          "indexed": true,
          "internalType": "address",
          "name": "minter",
          "type": "address"
        },
        {
          "indexed": false,
          "internalType": "string",
          "name": "Lat",
          "type": "string"
        },
        {
          "indexed": false,
          "internalType": "string",
          "name": "Lon",
          "type": "string"
        },
        {
          "indexed": false,
          "internalType": "string",
          "name": "Nick",
          "type": "string"
        }
      ],
      "name": "newMinter",
      "type": "event"
    },
    {
      "inputs": [
        {
          "internalType": "address",
          "name": "owner",
          "type": "address"
        },
        {
          "internalType": "address",
          "name": "spender",
          "type": "address"
        }
      ],
      "name": "allowance",
      "outputs": [
        {
          "internalType": "uint256",
          "name": "",
          "type": "uint256"
        }
      ],
      "stateMutability": "view",
      "type": "function",
      "constant": true
    },
    {
      "inputs": [
        {
          "internalType": "address",
          "name": "spender",
          "type": "address"
        },
        {
          "internalType": "uint256",
          "name": "amount",
          "type": "uint256"
        }
      ],
      "name": "approve",
      "outputs": [
        {
          "internalType": "bool",
          "name": "",
          "type": "bool"
        }
      ],
      "stateMutability": "nonpayable",
      "type": "function"
    },
    {
      "inputs": [
        {
          "internalType": "address",
          "name": "account",
          "type": "address"
        }
      ],
      "name": "balanceOf",
      "outputs": [
        {
          "internalType": "uint256",
          "name": "",
          "type": "uint256"
        }
      ],
      "stateMutability": "view",
      "type": "function",
      "constant": true
    },
    {
      "inputs": [],
      "name": "decimals",
      "outputs": [
        {
          "internalType": "uint8",
          "name": "",
          "type": "uint8"
        }
      ],
      "stateMutability": "view",
      "type": "function",
      "constant": true
    },
    {
      "inputs": [
        {
          "internalType": "address",
          "name": "spender",
          "type": "address"
        },
        {
          "internalType": "uint256",
          "name": "subtractedValue",
          "type": "uint256"
        }
      ],
      "name": "decreaseAllowance",
      "outputs": [
        {
          "internalType": "bool",
          "name": "",
          "type": "bool"
        }
      ],
      "stateMutability": "nonpayable",
      "type": "function"
    },
    {
      "inputs": [
        {
          "internalType": "address",
          "name": "spender",
          "type": "address"
        },
        {
          "internalType": "uint256",
          "name": "addedValue",
          "type": "uint256"
        }
      ],
      "name": "increaseAllowance",
      "outputs": [
        {
          "internalType": "bool",
          "name": "",
          "type": "bool"
        }
      ],
      "stateMutability": "nonpayable",
      "type": "function"
    },
    {
      "inputs": [],
      "name": "name",
      "outputs": [
        {
          "internalType": "string",
          "name": "",
          "type": "string"
        }
      ],
      "stateMutability": "view",
      "type": "function",
      "constant": true
    },
    {
      "inputs": [],
      "name": "symbol",
      "outputs": [
        {
          "internalType": "string",
          "name": "",
          "type": "string"
        }
      ],
      "stateMutability": "view",
      "type": "function",
      "constant": true
    },
    {
      "inputs": [],
      "name": "totalSupply",
      "outputs": [
        {
          "internalType": "uint256",
          "name": "",
          "type": "uint256"
        }
      ],
      "stateMutability": "view",
      "type": "function",
      "constant": true
    },
    {
      "inputs": [
        {
          "internalType": "address",
          "name": "recipient",
          "type": "address"
        },
        {
          "internalType": "uint256",
          "name": "amount",
          "type": "uint256"
        }
      ],
      "name": "transfer",
      "outputs": [
        {
          "internalType": "bool",
          "name": "",
          "type": "bool"
        }
      ],
      "stateMutability": "nonpayable",
      "type": "function"
    },
    {
      "inputs": [
        {
          "internalType": "address",
          "name": "sender",
          "type": "address"
        },
        {
          "internalType": "address",
          "name": "recipient",
          "type": "address"
        },
        {
          "internalType": "uint256",
          "name": "amount",
          "type": "uint256"
        }
      ],
      "name": "transferFrom",
      "outputs": [
        {
          "internalType": "bool",
          "name": "",
          "type": "bool"
        }
      ],
      "stateMutability": "nonpayable",
      "type": "function"
    },
    {
      "inputs": [
        {
          "internalType": "address",
          "name": "_addr",
          "type": "address"
        }
      ],
      "name": "isRegistered",
      "outputs": [
        {
          "internalType": "uint256",
          "name": "",
          "type": "uint256"
        }
      ],
      "stateMutability": "view",
      "type": "function",
      "constant": true
    },
    {
      "inputs": [
        {
          "internalType": "address",
          "name": "_addr",
          "type": "address"
        }
      ],
      "name": "wl",
      "outputs": [
        {
          "internalType": "bool",
          "name": "",
          "type": "bool"
        }
      ],
      "stateMutability": "view",
      "type": "function",
      "constant": true
    },
    {
      "inputs": [
        {
          "internalType": "address",
          "name": "_addr",
          "type": "address"
        }
      ],
      "name": "reportBadActor",
      "outputs": [],
      "stateMutability": "nonpayable",
      "type": "function"
    },
    {
      "inputs": [
        {
          "internalType": "address",
          "name": "_addr",
          "type": "address"
        }
      ],
      "name": "reportGoodActor",
      "outputs": [],
      "stateMutability": "payable",
      "type": "function",
      "payable": true
    },
    {
      "inputs": [
        {
          "internalType": "string",
          "name": "_gpsLat",
          "type": "string"
        },
        {
          "internalType": "string",
          "name": "_gpsLon",
          "type": "string"
        },
        {
          "internalType": "string",
          "name": "_nickname",
          "type": "string"
        }
      ],
      "name": "AddToWhitelist",
      "outputs": [],
      "stateMutability": "nonpayable",
      "type": "function"
    },
    {
      "inputs": [
        {
          "internalType": "bytes",
          "name": "signature",
          "type": "bytes"
        },
        {
          "internalType": "string",
          "name": "_gpsLat",
          "type": "string"
        },
        {
          "internalType": "string",
          "name": "_gpsLon",
          "type": "string"
        },
        {
          "internalType": "string",
          "name": "_nickname",
          "type": "string"
        }
      ],
      "name": "addToWhitelist_a7I",
      "outputs": [],
      "stateMutability": "nonpayable",
      "type": "function"
    },
    {
      "inputs": [],
      "name": "SliceMinting",
      "outputs": [],
      "stateMutability": "nonpayable",
      "type": "function"
    },
    {
      "inputs": [],
      "name": "vSliceMinting_ExW",
      "outputs": [],
      "stateMutability": "nonpayable",
      "type": "function"
    },
    {
      "inputs": [
        {
          "internalType": "uint256",
          "name": "_amount",
          "type": "uint256"
        },
        {
          "internalType": "address",
          "name": "_addr",
          "type": "address"
        }
      ],
      "name": "stakeVSlice_h56",
      "outputs": [],
      "stateMutability": "nonpayable",
      "type": "function"
    },
    {
      "inputs": [
        {
          "internalType": "uint256",
          "name": "_amount",
          "type": "uint256"
        },
        {
          "internalType": "address",
          "name": "_addr",
          "type": "address"
        }
      ],
      "name": "unstakeVSlice_Hha",
      "outputs": [],
      "stateMutability": "nonpayable",
      "type": "function"
    },
    {
      "inputs": [
        {
          "internalType": "address",
          "name": "_owner",
          "type": "address"
        }
      ],
      "name": "getStakedByStaker",
      "outputs": [
        {
          "components": [
            {
              "internalType": "address",
              "name": "staker",
              "type": "address"
            },
            {
              "internalType": "address",
              "name": "fightContract",
              "type": "address"
            }
          ],
          "internalType": "struct slice.StakedContracts[]",
          "name": "",
          "type": "tuple[]"
        }
      ],
      "stateMutability": "view",
      "type": "function",
      "constant": true
    },
    {
      "inputs": [
        {
          "internalType": "address",
          "name": "_fight",
          "type": "address"
        }
      ],
      "name": "getStakedByFight",
      "outputs": [
        {
          "components": [
            {
              "internalType": "address",
              "name": "staker",
              "type": "address"
            },
            {
              "internalType": "address",
              "name": "fightContract",
              "type": "address"
            }
          ],
          "internalType": "struct slice.StakedContracts[]",
          "name": "",
          "type": "tuple[]"
        }
      ],
      "stateMutability": "view",
      "type": "function",
      "constant": true
    },
    {
      "inputs": [],
      "name": "getAllMinters",
      "outputs": [
        {
          "components": [
            {
              "internalType": "uint256",
              "name": "goodCount",
              "type": "uint256"
            },
            {
              "internalType": "uint256",
              "name": "reported",
              "type": "uint256"
            },
            {
              "internalType": "uint256",
              "name": "lastMinted",
              "type": "uint256"
            },
            {
              "internalType": "string",
              "name": "gpsLat",
              "type": "string"
            },
            {
              "internalType": "string",
              "name": "gpsLon",
              "type": "string"
            },
            {
              "internalType": "string",
              "name": "nickname",
              "type": "string"
            },
            {
              "internalType": "bool",
              "name": "whitelisted",
              "type": "bool"
            },
            {
              "internalType": "address",
              "name": "addr",
              "type": "address"
            }
          ],
          "internalType": "struct slice.Minters[]",
          "name": "",
          "type": "tuple[]"
        }
      ],
      "stateMutability": "view",
      "type": "function",
      "constant": true
    },
    {
      "inputs": [
        {
          "internalType": "address",
          "name": "_addr",
          "type": "address"
        }
      ],
      "name": "getUserFromBlackList",
      "outputs": [
        {
          "internalType": "bool",
          "name": "",
          "type": "bool"
        }
      ],
      "stateMutability": "view",
      "type": "function",
      "constant": true
    },
    {
      "inputs": [
        {
          "internalType": "address",
          "name": "_addr",
          "type": "address"
        }
      ],
      "name": "getMinter",
      "outputs": [
        {
          "internalType": "uint256",
          "name": "",
          "type": "uint256"
        },
        {
          "internalType": "uint256",
          "name": "",
          "type": "uint256"
        },
        {
          "internalType": "uint256",
          "name": "",
          "type": "uint256"
        },
        {
          "internalType": "string",
          "name": "",
          "type": "string"
        },
        {
          "internalType": "string",
          "name": "",
          "type": "string"
        },
        {
          "internalType": "string",
          "name": "",
          "type": "string"
        },
        {
          "internalType": "bool",
          "name": "",
          "type": "bool"
        },
        {
          "internalType": "address",
          "name": "",
          "type": "address"
        }
      ],
      "stateMutability": "view",
      "type": "function",
      "constant": true
    },
    {
      "inputs": [],
      "name": "getMintingSpeed",
      "outputs": [
        {
          "internalType": "uint256",
          "name": "",
          "type": "uint256"
        }
      ],
      "stateMutability": "view",
      "type": "function",
      "constant": true
    },
    {
      "inputs": [
        {
          "internalType": "address",
          "name": "newAdmin",
          "type": "address"
        }
      ],
      "name": "updateAdmin",
      "outputs": [],
      "stateMutability": "nonpayable",
      "type": "function"
    },
    {
      "inputs": [
        {
          "internalType": "address",
          "name": "_newSigner",
          "type": "address"
        }
      ],
      "name": "updateSigner",
      "outputs": [],
      "stateMutability": "nonpayable",
      "type": "function"
    },
    {
      "inputs": [
        {
          "internalType": "address",
          "name": "_addr",
          "type": "address"
        }
      ],
      "name": "addToBlacklist",
      "outputs": [],
      "stateMutability": "nonpayable",
      "type": "function"
    },
    {
      "inputs": [
        {
          "internalType": "address",
          "name": "_addr",
          "type": "address"
        }
      ],
      "name": "removeFromBlacklist",
      "outputs": [],
      "stateMutability": "nonpayable",
      "type": "function"
    },
    {
      "inputs": [
        {
          "internalType": "address",
          "name": "_addr",
          "type": "address"
        }
      ],
      "name": "vSliceViewBalance",
      "outputs": [
        {
          "internalType": "uint256",
          "name": "",
          "type": "uint256"
        }
      ],
      "stateMutability": "view",
      "type": "function",
      "constant": true
    },
    {
      "inputs": [],
      "name": "getStakedBalance",
      "outputs": [
        {
          "internalType": "uint256",
          "name": "",
          "type": "uint256"
        }
      ],
      "stateMutability": "view",
      "type": "function",
      "constant": true
    },
    {
      "inputs": [],
      "name": "getStart",
      "outputs": [
        {
          "internalType": "uint256",
          "name": "",
          "type": "uint256"
        }
      ],
      "stateMutability": "view",
      "type": "function",
      "constant": true
    },
    {
      "inputs": [
        {
          "internalType": "uint256",
          "name": "_speed",
          "type": "uint256"
        }
      ],
      "name": "setMintSpeed",
      "outputs": [],
      "stateMutability": "nonpayable",
      "type": "function"
    },
    {
      "inputs": [
        {
          "internalType": "uint256",
          "name": "_p",
          "type": "uint256"
        }
      ],
      "name": "setGoodP",
      "outputs": [],
      "stateMutability": "nonpayable",
      "type": "function"
    },
    {
      "inputs": [],
      "name": "getGoodP",
      "outputs": [
        {
          "internalType": "uint256",
          "name": "",
          "type": "uint256"
        }
      ],
      "stateMutability": "view",
      "type": "function",
      "constant": true
    },
    {
      "inputs": [
        {
          "internalType": "uint256",
          "name": "_count",
          "type": "uint256"
        }
      ],
      "name": "updateWenBlock",
      "outputs": [],
      "stateMutability": "nonpayable",
      "type": "function"
    },
    {
      "inputs": [],
      "name": "countMinters",
      "outputs": [
        {
          "internalType": "uint256",
          "name": "",
          "type": "uint256"
        }
      ],
      "stateMutability": "view",
      "type": "function",
      "constant": true
    },
    {
      "inputs": [
        {
          "internalType": "uint256",
          "name": "_count",
          "type": "uint256"
        }
      ],
      "name": "updateMaxGoodCount",
      "outputs": [],
      "stateMutability": "nonpayable",
      "type": "function"
    },
    {
      "inputs": [],
      "name": "sliceParams",
      "outputs": [
        {
          "internalType": "uint256",
          "name": "",
          "type": "uint256"
        },
        {
          "internalType": "uint256",
          "name": "",
          "type": "uint256"
        },
        {
          "internalType": "uint256",
          "name": "",
          "type": "uint256"
        },
        {
          "internalType": "uint256",
          "name": "",
          "type": "uint256"
        },
        {
          "internalType": "uint256",
          "name": "",
          "type": "uint256"
        },
        {
          "internalType": "uint256",
          "name": "",
          "type": "uint256"
        }
      ],
      "stateMutability": "view",
      "type": "function",
      "constant": true
    },
    {
      "inputs": [
        {
          "internalType": "address",
          "name": "_can",
          "type": "address"
        }
      ],
      "name": "canChallenge",
      "outputs": [
        {
          "internalType": "bool",
          "name": "",
          "type": "bool"
        }
      ],
      "stateMutability": "view",
      "type": "function",
      "constant": true
    },
    {
      "inputs": [
        {
          "internalType": "address",
          "name": "_to",
          "type": "address"
        },
        {
          "internalType": "string",
          "name": "message",
          "type": "string"
        }
      ],
      "name": "sendMessage",
      "outputs": [],
      "stateMutability": "nonpayable",
      "type": "function"
    }
  ],
  "bytecode": "0x60806040523480156200001157600080fd5b5060405162006654380380620066548339818101604052810190620000379190620003c4565b818181600390805190602001906200005192919062000177565b5080600490805190602001906200006a92919062000177565b50505042600581905550620000846200016e60201b60201c565b60ff16600a620000959190620005d6565b6161a8620000a4919062000627565b60068190555033600860006101000a81548173ffffffffffffffffffffffffffffffffffffffff021916908373ffffffffffffffffffffffffffffffffffffffff160217905550734558f02c565c813b58364759f84c728cd7d7f26f600960006101000a81548173ffffffffffffffffffffffffffffffffffffffff021916908373ffffffffffffffffffffffffffffffffffffffff1602179055506002600a819055506001600b81905550603c600c8190555066038d7ea4c68000600d819055505050620006ed565b60006012905090565b8280546200018590620006b7565b90600052602060002090601f016020900481019282620001a95760008555620001f5565b82601f10620001c457805160ff1916838001178555620001f5565b82800160010185558215620001f5579182015b82811115620001f4578251825591602001919060010190620001d7565b5b50905062000204919062000208565b5090565b5b808211156200022357600081600090555060010162000209565b5090565b6000604051905090565b600080fd5b600080fd5b600080fd5b600080fd5b6000601f19601f8301169050919050565b7f4e487b7100000000000000000000000000000000000000000000000000000000600052604160045260246000fd5b620002908262000245565b810181811067ffffffffffffffff82111715620002b257620002b162000256565b5b80604052505050565b6000620002c762000227565b9050620002d5828262000285565b919050565b600067ffffffffffffffff821115620002f857620002f762000256565b5b620003038262000245565b9050602081019050919050565b60005b838110156200033057808201518184015260208101905062000313565b8381111562000340576000848401525b50505050565b60006200035d6200035784620002da565b620002bb565b9050828152602081018484840111156200037c576200037b62000240565b5b6200038984828562000310565b509392505050565b600082601f830112620003a957620003a86200023b565b5b8151620003bb84826020860162000346565b91505092915050565b60008060408385031215620003de57620003dd62000231565b5b600083015167ffffffffffffffff811115620003ff57620003fe62000236565b5b6200040d8582860162000391565b925050602083015167ffffffffffffffff81111562000431576200043062000236565b5b6200043f8582860162000391565b9150509250929050565b7f4e487b7100000000000000000000000000000000000000000000000000000000600052601160045260246000fd5b60008160011c9050919050565b6000808291508390505b6001851115620004d757808604811115620004af57620004ae62000449565b5b6001851615620004bf5780820291505b8081029050620004cf8562000478565b94506200048f565b94509492505050565b600082620004f25760019050620005c5565b81620005025760009050620005c5565b81600181146200051b576002811462000526576200055c565b6001915050620005c5565b60ff8411156200053b576200053a62000449565b5b8360020a91508482111562000555576200055462000449565b5b50620005c5565b5060208310610133831016604e8410600b8410161715620005965782820a90508381111562000590576200058f62000449565b5b620005c5565b620005a5848484600162000485565b92509050818404811115620005bf57620005be62000449565b5b81810290505b9392505050565b6000819050919050565b6000620005e382620005cc565b9150620005f083620005cc565b92506200061f7fffffffffffffffffffffffffffffffffffffffffffffffffffffffffffffffff8484620004e0565b905092915050565b60006200063482620005cc565b91506200064183620005cc565b9250817fffffffffffffffffffffffffffffffffffffffffffffffffffffffffffffffff04831182151516156200067d576200067c62000449565b5b828202905092915050565b7f4e487b7100000000000000000000000000000000000000000000000000000000600052602260045260246000fd5b60006002820490506001821680620006d057607f821691505b60208210811415620006e757620006e662000688565b5b50919050565b615f5780620006fd6000396000f3fe60806040526004361061025a5760003560e01c8063a457c2d711610144578063ca6ad40c116100b6578063ddc14afe1161007a578063ddc14afe14610953578063de6f24bb1461097e578063e2f273bd146109a7578063e3917cfc146109d0578063f10249b314610a0d578063f200b1b414610a365761025a565b8063ca6ad40c14610870578063d4f4648f1461089b578063d517c931146108c4578063d5c0f1fb146108ed578063dd62ed3e146109165761025a565b8063bc73b64111610108578063bc73b64114610735578063c1354b5a14610779578063c27bd3ee146107a2578063c3c5a547146107cb578063c5292c6714610808578063c5531e0a146108335761025a565b8063a457c2d71461065f578063a7ecd37e1461069c578063a9059cbb146106c5578063b109813714610702578063b14cc0e01461071e5761025a565b806344337ea1116101dd57806372a1d464116101a157806372a1d4641461053b57806376965867146105785780638891b29e146105a357806395d89b41146105e0578063a045442c1461060b578063a412a69e146106365761025a565b806344337ea114610453578063537df3b61461047c5780635fbb7093146104a557806361d42f6b146104d557806370a08231146104fe5761025a565b806326c95e0a1161022457806326c95e0a146103465780632fee9e7e14610371578063313ce567146103ae57806335703a3a146103d957806339509351146104165761025a565b8061d5981461025f57806306fdde0314610276578063095ea7b3146102a157806318160ddd146102de57806323b872dd14610309575b600080fd5b34801561026b57600080fd5b50610274610a5f565b005b34801561028257600080fd5b5061028b610cbf565b60405161029891906144f5565b60405180910390f35b3480156102ad57600080fd5b506102c860048036038101906102c391906145bf565b610d51565b6040516102d5919061461a565b60405180910390f35b3480156102ea57600080fd5b506102f3610d6f565b6040516103009190614644565b60405180910390f35b34801561031557600080fd5b50610330600480360381019061032b919061465f565b610d79565b60405161033d919061461a565b60405180910390f35b34801561035257600080fd5b5061035b610e71565b6040516103689190614644565b60405180910390f35b34801561037d57600080fd5b50610398600480360381019061039391906146b2565b610e7b565b6040516103a5919061461a565b60405180910390f35b3480156103ba57600080fd5b506103c3610ed1565b6040516103d091906146fb565b60405180910390f35b3480156103e557600080fd5b5061040060048036038101906103fb91906146b2565b610eda565b60405161040d9190614644565b60405180910390f35b34801561042257600080fd5b5061043d600480360381019061043891906145bf565b610f2b565b60405161044a919061461a565b60405180910390f35b34801561045f57600080fd5b5061047a600480360381019061047591906146b2565b610fd7565b005b34801561048857600080fd5b506104a3600480360381019061049e91906146b2565b6110c2565b005b3480156104b157600080fd5b506104ba6111ad565b6040516104cc96959493929190614716565b60405180910390f35b3480156104e157600080fd5b506104fc60048036038101906104f79190614777565b6111dc565b005b34801561050a57600080fd5b50610525600480360381019061052091906146b2565b61137b565b6040516105329190614644565b60405180910390f35b34801561054757600080fd5b50610562600480360381019061055d91906146b2565b6113c3565b60405161056f919061461a565b60405180910390f35b34801561058457600080fd5b5061058d6114a7565b60405161059a9190614644565b60405180910390f35b3480156105af57600080fd5b506105ca60048036038101906105c591906146b2565b6114ee565b6040516105d791906148a4565b60405180910390f35b3480156105ec57600080fd5b506105f5611709565b60405161060291906144f5565b60405180910390f35b34801561061757600080fd5b5061062061179b565b60405161062d9190614aae565b60405180910390f35b34801561064257600080fd5b5061065d60048036038101906106589190614c65565b611abc565b005b34801561066b57600080fd5b50610686600480360381019061068191906145bf565b611eb4565b604051610693919061461a565b60405180910390f35b3480156106a857600080fd5b506106c360048036038101906106be91906146b2565b611f9f565b005b3480156106d157600080fd5b506106ec60048036038101906106e791906145bf565b612073565b6040516106f9919061461a565b60405180910390f35b61071c600480360381019061071791906146b2565b612091565b005b34801561072a57600080fd5b506107336125da565b005b34801561074157600080fd5b5061075c600480360381019061075791906146b2565b6126bf565b604051610770989796959493929190614d50565b60405180910390f35b34801561078557600080fd5b506107a0600480360381019061079b9190614de3565b612949565b005b3480156107ae57600080fd5b506107c960048036038101906107c49190614e8a565b612c60565b005b3480156107d757600080fd5b506107f260048036038101906107ed91906146b2565b612cfa565b6040516107ff9190614644565b60405180910390f35b34801561081457600080fd5b5061081d612d43565b60405161082a9190614644565b60405180910390f35b34801561083f57600080fd5b5061085a600480360381019061085591906146b2565b612d4d565b604051610867919061461a565b60405180910390f35b34801561087c57600080fd5b50610885612da3565b6040516108929190614644565b60405180910390f35b3480156108a757600080fd5b506108c260048036038101906108bd9190614777565b612db0565b005b3480156108d057600080fd5b506108eb60048036038101906108e69190614e8a565b6131d8565b005b3480156108f957600080fd5b50610914600480360381019061090f91906146b2565b613272565b005b34801561092257600080fd5b5061093d60048036038101906109389190614eb7565b6135ec565b60405161094a9190614644565b60405180910390f35b34801561095f57600080fd5b50610968613673565b6040516109759190614644565b60405180910390f35b34801561098a57600080fd5b506109a560048036038101906109a09190614f4d565b61367d565b005b3480156109b357600080fd5b506109ce60048036038101906109c991906146b2565b6136e9565b005b3480156109dc57600080fd5b506109f760048036038101906109f291906146b2565b6137bd565b604051610a0491906148a4565b60405180910390f35b348015610a1957600080fd5b50610a346004803603810190610a2f9190614e8a565b613a12565b005b348015610a4257600080fd5b50610a5d6004803603810190610a589190614e8a565b613aac565b005b610a67613b46565b6006546007541115610aae576040517f08c379a0000000000000000000000000000000000000000000000000000000008152600401610aa590614fd3565b60405180910390fd5b6000601060003373ffffffffffffffffffffffffffffffffffffffff1673ffffffffffffffffffffffffffffffffffffffff1681526020019081526020016000205490506000600e8281548110610b0857610b07614ff3565b5b90600052602060002090600702019050600080600083600201541415610bf057610b30610ed1565b60ff16600a610b3f9190615184565b60055442610b4d91906151cf565b610b579190615203565b9150600c5482610b67919061528c565b601360003373ffffffffffffffffffffffffffffffffffffffff1673ffffffffffffffffffffffffffffffffffffffff1681526020019081526020016000206000828254610bb591906152bd565b92505081905550428360020181905550600c5482610bd3919061528c565b60076000828254610be491906152bd565b92505081905550610cb9565b826002015442610c0091906151cf565b9050610c0a610ed1565b60ff16600a610c199190615184565b81610c249190615203565b9150600c5482610c34919061528c565b601360003373ffffffffffffffffffffffffffffffffffffffff1673ffffffffffffffffffffffffffffffffffffffff1681526020019081526020016000206000828254610c8291906152bd565b92505081905550428360020181905550600c5482610ca0919061528c565b60076000828254610cb191906152bd565b925050819055505b50505050565b606060038054610cce90615342565b80601f0160208091040260200160405190810160405280929190818152602001828054610cfa90615342565b8015610d475780601f10610d1c57610100808354040283529160200191610d47565b820191906000526020600020905b815481529060010190602001808311610d2a57829003601f168201915b5050505050905090565b6000610d65610d5e613bdb565b8484613be3565b6001905092915050565b6000600254905090565b6000610d86848484613dae565b6000600160008673ffffffffffffffffffffffffffffffffffffffff1673ffffffffffffffffffffffffffffffffffffffff1681526020019081526020016000206000610dd1613bdb565b73ffffffffffffffffffffffffffffffffffffffff1673ffffffffffffffffffffffffffffffffffffffff16815260200190815260200160002054905082811015610e51576040517f08c379a0000000000000000000000000000000000000000000000000000000008152600401610e48906153e6565b60405180910390fd5b610e6585610e5d613bdb565b858403613be3565b60019150509392505050565b6000600d54905090565b6000601660008373ffffffffffffffffffffffffffffffffffffffff1673ffffffffffffffffffffffffffffffffffffffff16815260200190815260200160002060009054906101000a900460ff169050919050565b60006012905090565b6000610ee461402f565b601360008373ffffffffffffffffffffffffffffffffffffffff1673ffffffffffffffffffffffffffffffffffffffff168152602001908152602001600020549050919050565b6000610fcd610f38613bdb565b848460016000610f46613bdb565b73ffffffffffffffffffffffffffffffffffffffff1673ffffffffffffffffffffffffffffffffffffffff16815260200190815260200160002060008873ffffffffffffffffffffffffffffffffffffffff1673ffffffffffffffffffffffffffffffffffffffff16815260200190815260200160002054610fc891906152bd565b613be3565b6001905092915050565b600860009054906101000a900473ffffffffffffffffffffffffffffffffffffffff1673ffffffffffffffffffffffffffffffffffffffff163373ffffffffffffffffffffffffffffffffffffffff1614611067576040517f08c379a000000000000000000000000000000000000000000000000000000000815260040161105e90614fd3565b60405180910390fd5b6001601560008373ffffffffffffffffffffffffffffffffffffffff1673ffffffffffffffffffffffffffffffffffffffff16815260200190815260200160002060006101000a81548160ff02191690831515021790555050565b600860009054906101000a900473ffffffffffffffffffffffffffffffffffffffff1673ffffffffffffffffffffffffffffffffffffffff163373ffffffffffffffffffffffffffffffffffffffff1614611152576040517f08c379a000000000000000000000000000000000000000000000000000000000815260040161114990614fd3565b60405180910390fd5b6000601560008373ffffffffffffffffffffffffffffffffffffffff1673ffffffffffffffffffffffffffffffffffffffff16815260200190815260200160002060006101000a81548160ff02191690831515021790555050565b600080600080600080600754600654600a54600b54600c54600d54955095509550955095509550909192939495565b6111e461402f565b81601460008373ffffffffffffffffffffffffffffffffffffffff1673ffffffffffffffffffffffffffffffffffffffff168152602001908152602001600020541015611266576040517f08c379a000000000000000000000000000000000000000000000000000000000815260040161125d90615452565b60405180910390fd5b81601460008373ffffffffffffffffffffffffffffffffffffffff1673ffffffffffffffffffffffffffffffffffffffff16815260200190815260200160002060008282546112b591906151cf565b9250508190555081601360008373ffffffffffffffffffffffffffffffffffffffff1673ffffffffffffffffffffffffffffffffffffffff168152602001908152602001600020600082825461130b91906152bd565b925050819055508073ffffffffffffffffffffffffffffffffffffffff163373ffffffffffffffffffffffffffffffffffffffff167f5d0ff203cfdf2054bf57a387422c2ba70dbe7f81133ff55fffd141c09e07cb374260405161136f9190614644565b60405180910390a35050565b60008060008373ffffffffffffffffffffffffffffffffffffffff1673ffffffffffffffffffffffffffffffffffffffff168152602001908152602001600020549050919050565b60008173ffffffffffffffffffffffffffffffffffffffff16601760003373ffffffffffffffffffffffffffffffffffffffff1673ffffffffffffffffffffffffffffffffffffffff16815260200190815260200160002060008473ffffffffffffffffffffffffffffffffffffffff1673ffffffffffffffffffffffffffffffffffffffff16815260200190815260200160002060009054906101000a900473ffffffffffffffffffffffffffffffffffffffff1673ffffffffffffffffffffffffffffffffffffffff161461149d57600190506114a2565b600090505b919050565b6000601460003373ffffffffffffffffffffffffffffffffffffffff1673ffffffffffffffffffffffffffffffffffffffff16815260200190815260200160002054905090565b60606114f861402f565b600060118054905067ffffffffffffffff81111561151957611518614b3a565b5b60405190808252806020026020018201604052801561155257816020015b61153f614316565b8152602001906001900390816115375790505b5090506000805b6011805490508110156116fe578473ffffffffffffffffffffffffffffffffffffffff166011828154811061159157611590614ff3565b5b906000526020600020906002020160010160009054906101000a900473ffffffffffffffffffffffffffffffffffffffff1673ffffffffffffffffffffffffffffffffffffffff1614156116eb576000601182815481106115f5576115f4614ff3565b5b90600052602060002090600202019050806040518060400160405290816000820160009054906101000a900473ffffffffffffffffffffffffffffffffffffffff1673ffffffffffffffffffffffffffffffffffffffff1673ffffffffffffffffffffffffffffffffffffffff1681526020016001820160009054906101000a900473ffffffffffffffffffffffffffffffffffffffff1673ffffffffffffffffffffffffffffffffffffffff1673ffffffffffffffffffffffffffffffffffffffff16815250508484815181106116d0576116cf614ff3565b5b602002602001018190525082806116e690615472565b935050505b80806116f690615472565b915050611559565b508192505050919050565b60606004805461171890615342565b80601f016020809104026020016040519081016040528092919081815260200182805461174490615342565b80156117915780601f1061176657610100808354040283529160200191611791565b820191906000526020600020905b81548152906001019060200180831161177457829003601f168201915b5050505050905090565b60606000600e8054905067ffffffffffffffff8111156117be576117bd614b3a565b5b6040519080825280602002602001820160405280156117f757816020015b6117e461435c565b8152602001906001900390816117dc5790505b50905060005b600e80549050811015611ab4576000600e82815481106118205761181f614ff3565b5b90600052602060002090600702019050806040518061010001604052908160008201548152602001600182015481526020016002820154815260200160038201805461186b90615342565b80601f016020809104026020016040519081016040528092919081815260200182805461189790615342565b80156118e45780601f106118b9576101008083540402835291602001916118e4565b820191906000526020600020905b8154815290600101906020018083116118c757829003601f168201915b505050505081526020016004820180546118fd90615342565b80601f016020809104026020016040519081016040528092919081815260200182805461192990615342565b80156119765780601f1061194b57610100808354040283529160200191611976565b820191906000526020600020905b81548152906001019060200180831161195957829003601f168201915b5050505050815260200160058201805461198f90615342565b80601f01602080910402602001604051908101604052809291908181526020018280546119bb90615342565b8015611a085780601f106119dd57610100808354040283529160200191611a08565b820191906000526020600020905b8154815290600101906020018083116119eb57829003601f168201915b505050505081526020016006820160009054906101000a900460ff161515151581526020016006820160019054906101000a900473ffffffffffffffffffffffffffffffffffffffff1673ffffffffffffffffffffffffffffffffffffffff1673ffffffffffffffffffffffffffffffffffffffff1681525050838381518110611a9557611a94614ff3565b5b6020026020010181905250508080611aac90615472565b9150506117fd565b508091505090565b6000611aed33604051602001611ad29190615503565b604051602081830303815290604052805190602001206140c4565b9050600960009054906101000a900473ffffffffffffffffffffffffffffffffffffffff1673ffffffffffffffffffffffffffffffffffffffff16611b768288888080601f016020809104026020016040519081016040528093929190818152602001838380828437600081840152601f19601f820116905080830192505050505050506140f4565b73ffffffffffffffffffffffffffffffffffffffff1614611bcc576040517f08c379a0000000000000000000000000000000000000000000000000000000008152600401611bc39061556a565b60405180910390fd5b6000601060003373ffffffffffffffffffffffffffffffffffffffff1673ffffffffffffffffffffffffffffffffffffffff1681526020019081526020016000205414611c4e576040517f08c379a0000000000000000000000000000000000000000000000000000000008152600401611c45906155d6565b60405180910390fd5b600e6040518061010001604052806000815260200160008152602001600081526020018681526020018581526020018481526020016001151581526020013373ffffffffffffffffffffffffffffffffffffffff1681525090806001815401808255809150506001900390600052602060002090600702016000909190919091506000820151816000015560208201518160010155604082015181600201556060820151816003019080519060200190611d099291906143b9565b506080820151816004019080519060200190611d269291906143b9565b5060a0820151816005019080519060200190611d439291906143b9565b5060c08201518160060160006101000a81548160ff02191690831515021790555060e08201518160060160016101000a81548173ffffffffffffffffffffffffffffffffffffffff021916908373ffffffffffffffffffffffffffffffffffffffff16021790555050506001600e80549050611dbf91906151cf565b601060003373ffffffffffffffffffffffffffffffffffffffff1673ffffffffffffffffffffffffffffffffffffffff168152602001908152602001600020819055506001601660003373ffffffffffffffffffffffffffffffffffffffff1673ffffffffffffffffffffffffffffffffffffffff16815260200190815260200160002060006101000a81548160ff0219169083151502179055503373ffffffffffffffffffffffffffffffffffffffff167fed6f15fd363599aba08600b57f61fe38bf31b2a0aedb668e294263fc9970c8ed858585604051611ea4939291906155f6565b60405180910390a2505050505050565b60008060016000611ec3613bdb565b73ffffffffffffffffffffffffffffffffffffffff1673ffffffffffffffffffffffffffffffffffffffff16815260200190815260200160002060008573ffffffffffffffffffffffffffffffffffffffff1673ffffffffffffffffffffffffffffffffffffffff16815260200190815260200160002054905082811015611f80576040517f08c379a0000000000000000000000000000000000000000000000000000000008152600401611f77906156b4565b60405180910390fd5b611f94611f8b613bdb565b85858403613be3565b600191505092915050565b600860009054906101000a900473ffffffffffffffffffffffffffffffffffffffff1673ffffffffffffffffffffffffffffffffffffffff163373ffffffffffffffffffffffffffffffffffffffff161461202f576040517f08c379a000000000000000000000000000000000000000000000000000000000815260040161202690614fd3565b60405180910390fd5b80600960006101000a81548173ffffffffffffffffffffffffffffffffffffffff021916908373ffffffffffffffffffffffffffffffffffffffff16021790555050565b6000612087612080613bdb565b8484613dae565b6001905092915050565b612099613b46565b6000601060008373ffffffffffffffffffffffffffffffffffffffff1673ffffffffffffffffffffffffffffffffffffffff1681526020019081526020016000205490506000600e82815481106120f3576120f2614ff3565b5b906000526020600020906007020190508273ffffffffffffffffffffffffffffffffffffffff163373ffffffffffffffffffffffffffffffffffffffff161415612172576040517f08c379a000000000000000000000000000000000000000000000000000000000815260040161216990615720565b60405180910390fd5b8273ffffffffffffffffffffffffffffffffffffffff16601760003373ffffffffffffffffffffffffffffffffffffffff1673ffffffffffffffffffffffffffffffffffffffff16815260200190815260200160002060008573ffffffffffffffffffffffffffffffffffffffff1673ffffffffffffffffffffffffffffffffffffffff16815260200190815260200160002060009054906101000a900473ffffffffffffffffffffffffffffffffffffffff1673ffffffffffffffffffffffffffffffffffffffff16141561227d576040517f08c379a00000000000000000000000000000000000000000000000000000000081526004016122749061578c565b60405180910390fd5b600b54816000015411156122c6576040517f08c379a00000000000000000000000000000000000000000000000000000000081526004016122bd906157f8565b60405180910390fd5b600081600101541161230d576040517f08c379a000000000000000000000000000000000000000000000000000000000815260040161230490615864565b60405180910390fd5b600d543414612348576040517f8a0d377900000000000000000000000000000000000000000000000000000000815260040160405180910390fd5b600d5460196000600860009054906101000a900473ffffffffffffffffffffffffffffffffffffffff1673ffffffffffffffffffffffffffffffffffffffff1673ffffffffffffffffffffffffffffffffffffffff16815260200190815260200160002060008282546123bb91906152bd565b9250508190555082601760003373ffffffffffffffffffffffffffffffffffffffff1673ffffffffffffffffffffffffffffffffffffffff16815260200190815260200160002060008573ffffffffffffffffffffffffffffffffffffffff1673ffffffffffffffffffffffffffffffffffffffff16815260200190815260200160002060006101000a81548173ffffffffffffffffffffffffffffffffffffffff021916908373ffffffffffffffffffffffffffffffffffffffff160217905550600181600101600082825461249291906151cf565b9250508190555060018160000160008282546124ae91906152bd565b92505081905550600a548160010154106124fa5760008160060160009054906101000a900460ff169050808260060160006101000a81548160ff02191690831515021790555050612570565b60018160060160006101000a81548160ff0219169083151502179055506001601660003373ffffffffffffffffffffffffffffffffffffffff1673ffffffffffffffffffffffffffffffffffffffff16815260200190815260200160002060006101000a81548160ff0219169083151502179055505b8273ffffffffffffffffffffffffffffffffffffffff163373ffffffffffffffffffffffffffffffffffffffff167f11c9a04d40e079b6a6add720dd7c0a8ae1776acefdca6f37f4046c709a4dffcf426040516125cd9190614644565b60405180910390a3505050565b6125e2613b46565b6006546007541015612629576040517f08c379a000000000000000000000000000000000000000000000000000000000815260040161262090614fd3565b60405180910390fd5b6000601360003373ffffffffffffffffffffffffffffffffffffffff1673ffffffffffffffffffffffffffffffffffffffff1681526020019081526020016000205490506000601360003373ffffffffffffffffffffffffffffffffffffffff1673ffffffffffffffffffffffffffffffffffffffff168152602001908152602001600020819055506126bc3382614169565b50565b600080600060608060606000806000601060008b73ffffffffffffffffffffffffffffffffffffffff1673ffffffffffffffffffffffffffffffffffffffff1681526020019081526020016000205490506000600e828154811061272657612725614ff3565b5b906000526020600020906007020190508060000154816001015482600201548360030184600401856005018660060160009054906101000a900460ff168760060160019054906101000a900473ffffffffffffffffffffffffffffffffffffffff1684805461279490615342565b80601f01602080910402602001604051908101604052809291908181526020018280546127c090615342565b801561280d5780601f106127e25761010080835404028352916020019161280d565b820191906000526020600020905b8154815290600101906020018083116127f057829003601f168201915b5050505050945083805461282090615342565b80601f016020809104026020016040519081016040528092919081815260200182805461284c90615342565b80156128995780601f1061286e57610100808354040283529160200191612899565b820191906000526020600020905b81548152906001019060200180831161287c57829003601f168201915b505050505093508280546128ac90615342565b80601f01602080910402602001604051908101604052809291908181526020018280546128d890615342565b80156129255780601f106128fa57610100808354040283529160200191612925565b820191906000526020600020905b81548152906001019060200180831161290857829003601f168201915b50505050509250995099509950995099509950995099505050919395975091939597565b6006546007541015612990576040517f08c379a0000000000000000000000000000000000000000000000000000000008152600401612987906158d0565b60405180910390fd5b6000601060003373ffffffffffffffffffffffffffffffffffffffff1673ffffffffffffffffffffffffffffffffffffffff1681526020019081526020016000205414612a12576040517f08c379a0000000000000000000000000000000000000000000000000000000008152600401612a09906158d0565b60405180910390fd5b600e6040518061010001604052806000815260200160008152602001600081526020018581526020018481526020018381526020016001151581526020013373ffffffffffffffffffffffffffffffffffffffff1681525090806001815401808255809150506001900390600052602060002090600702016000909190919091506000820151816000015560208201518160010155604082015181600201556060820151816003019080519060200190612acd9291906143b9565b506080820151816004019080519060200190612aea9291906143b9565b5060a0820151816005019080519060200190612b079291906143b9565b5060c08201518160060160006101000a81548160ff02191690831515021790555060e08201518160060160016101000a81548173ffffffffffffffffffffffffffffffffffffffff021916908373ffffffffffffffffffffffffffffffffffffffff16021790555050506001600e80549050612b8391906151cf565b601060003373ffffffffffffffffffffffffffffffffffffffff1673ffffffffffffffffffffffffffffffffffffffff168152602001908152602001600020819055506001601660003373ffffffffffffffffffffffffffffffffffffffff1673ffffffffffffffffffffffffffffffffffffffff16815260200190815260200160002060006101000a81548160ff0219169083151502179055507f07acefbc52945a41d46c17d9c5b0bdba3b6d33f6a99fe6d079ba42587b7d342333848484604051612c5394939291906158f0565b60405180910390a1505050565b600860009054906101000a900473ffffffffffffffffffffffffffffffffffffffff1673ffffffffffffffffffffffffffffffffffffffff163373ffffffffffffffffffffffffffffffffffffffff1614612cf0576040517f08c379a0000000000000000000000000000000000000000000000000000000008152600401612ce790614fd3565b60405180910390fd5b80600b8190555050565b6000601060008373ffffffffffffffffffffffffffffffffffffffff1673ffffffffffffffffffffffffffffffffffffffff168152602001908152602001600020549050919050565b6000600554905090565b6000601560008373ffffffffffffffffffffffffffffffffffffffff1673ffffffffffffffffffffffffffffffffffffffff16815260200190815260200160002060009054906101000a900460ff169050919050565b6000600e80549050905090565b612db861402f565b81601360008373ffffffffffffffffffffffffffffffffffffffff1673ffffffffffffffffffffffffffffffffffffffff168152602001908152602001600020541015612e3a576040517f08c379a0000000000000000000000000000000000000000000000000000000008152600401612e3190615452565b60405180910390fd5b81601460008373ffffffffffffffffffffffffffffffffffffffff1673ffffffffffffffffffffffffffffffffffffffff1681526020019081526020016000206000828254612e8991906152bd565b9250508190555081601360008373ffffffffffffffffffffffffffffffffffffffff1673ffffffffffffffffffffffffffffffffffffffff1681526020019081526020016000206000828254612edf91906151cf565b9250508190555060001515601860008373ffffffffffffffffffffffffffffffffffffffff1673ffffffffffffffffffffffffffffffffffffffff16815260200190815260200160002060003373ffffffffffffffffffffffffffffffffffffffff1673ffffffffffffffffffffffffffffffffffffffff16815260200190815260200160002060009054906101000a900460ff161515141561316957601160405180604001604052808373ffffffffffffffffffffffffffffffffffffffff1681526020013373ffffffffffffffffffffffffffffffffffffffff16815250908060018154018082558091505060019003906000526020600020906002020160009091909190915060008201518160000160006101000a81548173ffffffffffffffffffffffffffffffffffffffff021916908373ffffffffffffffffffffffffffffffffffffffff16021790555060208201518160010160006101000a81548173ffffffffffffffffffffffffffffffffffffffff021916908373ffffffffffffffffffffffffffffffffffffffff16021790555050506001601860008373ffffffffffffffffffffffffffffffffffffffff1673ffffffffffffffffffffffffffffffffffffffff16815260200190815260200160002060003373ffffffffffffffffffffffffffffffffffffffff1673ffffffffffffffffffffffffffffffffffffffff16815260200190815260200160002060006101000a81548160ff0219169083151502179055506001601260008373ffffffffffffffffffffffffffffffffffffffff1673ffffffffffffffffffffffffffffffffffffffff168152602001908152602001600020600082825461315d91906152bd565b9250508190555061316e565b6131d4565b8073ffffffffffffffffffffffffffffffffffffffff163373ffffffffffffffffffffffffffffffffffffffff167f7ac1d74706984e50175cdfa1110674ddeb05cf53294d08a8a0d84d770bae668a426040516131cb9190614644565b60405180910390a35b5050565b600860009054906101000a900473ffffffffffffffffffffffffffffffffffffffff1673ffffffffffffffffffffffffffffffffffffffff163373ffffffffffffffffffffffffffffffffffffffff1614613268576040517f08c379a000000000000000000000000000000000000000000000000000000000815260040161325f90614fd3565b60405180910390fd5b80600a8190555050565b61327a613b46565b8073ffffffffffffffffffffffffffffffffffffffff16601760003373ffffffffffffffffffffffffffffffffffffffff1673ffffffffffffffffffffffffffffffffffffffff16815260200190815260200160002060008373ffffffffffffffffffffffffffffffffffffffff1673ffffffffffffffffffffffffffffffffffffffff16815260200190815260200160002060009054906101000a900473ffffffffffffffffffffffffffffffffffffffff1673ffffffffffffffffffffffffffffffffffffffff161415613385576040517f08c379a000000000000000000000000000000000000000000000000000000000815260040161337c90615996565b60405180910390fd5b80601760003373ffffffffffffffffffffffffffffffffffffffff1673ffffffffffffffffffffffffffffffffffffffff16815260200190815260200160002060008373ffffffffffffffffffffffffffffffffffffffff1673ffffffffffffffffffffffffffffffffffffffff16815260200190815260200160002060006101000a81548173ffffffffffffffffffffffffffffffffffffffff021916908373ffffffffffffffffffffffffffffffffffffffff1602179055506000601060008373ffffffffffffffffffffffffffffffffffffffff1673ffffffffffffffffffffffffffffffffffffffff1681526020019081526020016000205490506000600e828154811061349a57613499614ff3565b5b9060005260206000209060070201905060018160010160008282546134bf91906152bd565b92505081905550600a548160010154101561350c5760008160060160009054906101000a900460ff169050808260060160006101000a81548160ff02191690831515021790555050613582565b60008160060160006101000a81548160ff0219169083151502179055506000601660003373ffffffffffffffffffffffffffffffffffffffff1673ffffffffffffffffffffffffffffffffffffffff16815260200190815260200160002060006101000a81548160ff0219169083151502179055505b8273ffffffffffffffffffffffffffffffffffffffff163373ffffffffffffffffffffffffffffffffffffffff167f6ceca1a3cd7cb44311239fc385b20e17433d6483d6abe63fb5c51567edd4aa4a426040516135df9190614644565b60405180910390a3505050565b6000600160008473ffffffffffffffffffffffffffffffffffffffff1673ffffffffffffffffffffffffffffffffffffffff16815260200190815260200160002060008373ffffffffffffffffffffffffffffffffffffffff1673ffffffffffffffffffffffffffffffffffffffff16815260200190815260200160002054905092915050565b6000600c54905090565b8273ffffffffffffffffffffffffffffffffffffffff163373ffffffffffffffffffffffffffffffffffffffff167f30b70ac3fbb7579c74a917a29389560028fa9789f81f3540fd9da51e7f457d8b84846040516136dc9291906159e3565b60405180910390a3505050565b600860009054906101000a900473ffffffffffffffffffffffffffffffffffffffff1673ffffffffffffffffffffffffffffffffffffffff163373ffffffffffffffffffffffffffffffffffffffff1614613779576040517f08c379a000000000000000000000000000000000000000000000000000000000815260040161377090614fd3565b60405180910390fd5b80600860006101000a81548173ffffffffffffffffffffffffffffffffffffffff021916908373ffffffffffffffffffffffffffffffffffffffff16021790555050565b60606137c761402f565b6000601260008473ffffffffffffffffffffffffffffffffffffffff1673ffffffffffffffffffffffffffffffffffffffff1681526020019081526020016000205467ffffffffffffffff81111561382257613821614b3a565b5b60405190808252806020026020018201604052801561385b57816020015b613848614316565b8152602001906001900390816138405790505b5090506000805b601180549050811015613a07578473ffffffffffffffffffffffffffffffffffffffff166011828154811061389a57613899614ff3565b5b906000526020600020906002020160000160009054906101000a900473ffffffffffffffffffffffffffffffffffffffff1673ffffffffffffffffffffffffffffffffffffffff1614156139f4576000601182815481106138fe576138fd614ff3565b5b90600052602060002090600202019050806040518060400160405290816000820160009054906101000a900473ffffffffffffffffffffffffffffffffffffffff1673ffffffffffffffffffffffffffffffffffffffff1673ffffffffffffffffffffffffffffffffffffffff1681526020016001820160009054906101000a900473ffffffffffffffffffffffffffffffffffffffff1673ffffffffffffffffffffffffffffffffffffffff1673ffffffffffffffffffffffffffffffffffffffff16815250508484815181106139d9576139d8614ff3565b5b602002602001018190525082806139ef90615472565b935050505b80806139ff90615472565b915050613862565b508192505050919050565b600860009054906101000a900473ffffffffffffffffffffffffffffffffffffffff1673ffffffffffffffffffffffffffffffffffffffff163373ffffffffffffffffffffffffffffffffffffffff1614613aa2576040517f08c379a0000000000000000000000000000000000000000000000000000000008152600401613a9990614fd3565b60405180910390fd5b80600d8190555050565b600860009054906101000a900473ffffffffffffffffffffffffffffffffffffffff1673ffffffffffffffffffffffffffffffffffffffff163373ffffffffffffffffffffffffffffffffffffffff1614613b3c576040517f08c379a0000000000000000000000000000000000000000000000000000000008152600401613b3390614fd3565b60405180910390fd5b80600c8190555050565b60011515601660003373ffffffffffffffffffffffffffffffffffffffff1673ffffffffffffffffffffffffffffffffffffffff16815260200190815260200160002060009054906101000a900460ff16151514613bd9576040517f08c379a0000000000000000000000000000000000000000000000000000000008152600401613bd090615a53565b60405180910390fd5b565b600033905090565b600073ffffffffffffffffffffffffffffffffffffffff168373ffffffffffffffffffffffffffffffffffffffff161415613c53576040517f08c379a0000000000000000000000000000000000000000000000000000000008152600401613c4a90615ae5565b60405180910390fd5b600073ffffffffffffffffffffffffffffffffffffffff168273ffffffffffffffffffffffffffffffffffffffff161415613cc3576040517f08c379a0000000000000000000000000000000000000000000000000000000008152600401613cba90615b77565b60405180910390fd5b80600160008573ffffffffffffffffffffffffffffffffffffffff1673ffffffffffffffffffffffffffffffffffffffff16815260200190815260200160002060008473ffffffffffffffffffffffffffffffffffffffff1673ffffffffffffffffffffffffffffffffffffffff168152602001908152602001600020819055508173ffffffffffffffffffffffffffffffffffffffff168373ffffffffffffffffffffffffffffffffffffffff167f8c5be1e5ebec7d5bd14f71427d1e84f3dd0314c0f7b2291e5b200ac8c7c3b92583604051613da19190614644565b60405180910390a3505050565b600073ffffffffffffffffffffffffffffffffffffffff168373ffffffffffffffffffffffffffffffffffffffff161415613e1e576040517f08c379a0000000000000000000000000000000000000000000000000000000008152600401613e1590615c09565b60405180910390fd5b600073ffffffffffffffffffffffffffffffffffffffff168273ffffffffffffffffffffffffffffffffffffffff161415613e8e576040517f08c379a0000000000000000000000000000000000000000000000000000000008152600401613e8590615c9b565b60405180910390fd5b613e998383836142c9565b60008060008573ffffffffffffffffffffffffffffffffffffffff1673ffffffffffffffffffffffffffffffffffffffff16815260200190815260200160002054905081811015613f1f576040517f08c379a0000000000000000000000000000000000000000000000000000000008152600401613f1690615d2d565b60405180910390fd5b8181036000808673ffffffffffffffffffffffffffffffffffffffff1673ffffffffffffffffffffffffffffffffffffffff16815260200190815260200160002081905550816000808573ffffffffffffffffffffffffffffffffffffffff1673ffffffffffffffffffffffffffffffffffffffff1681526020019081526020016000206000828254613fb291906152bd565b925050819055508273ffffffffffffffffffffffffffffffffffffffff168473ffffffffffffffffffffffffffffffffffffffff167fddf252ad1be2c89b69c2b068fc378daa952ba7f163c4a11628f55a4df523b3ef846040516140169190614644565b60405180910390a36140298484846142ce565b50505050565b60001515601560003373ffffffffffffffffffffffffffffffffffffffff1673ffffffffffffffffffffffffffffffffffffffff16815260200190815260200160002060009054906101000a900460ff161515146140c2576040517f08c379a00000000000000000000000000000000000000000000000000000000081526004016140b990615d99565b60405180910390fd5b565b6000816040516020016140d79190615e3b565b604051602081830303815290604052805190602001209050919050565b600080600080614103856142d3565b809350819450829550505050600186848484604051600081526020016040526040516141329493929190615e70565b6020604051602081039080840390855afa158015614154573d6000803e3d6000fd5b50505060206040510351935050505092915050565b600073ffffffffffffffffffffffffffffffffffffffff168273ffffffffffffffffffffffffffffffffffffffff1614156141d9576040517f08c379a00000000000000000000000000000000000000000000000000000000081526004016141d090615f01565b60405180910390fd5b6141e5600083836142c9565b80600260008282546141f791906152bd565b92505081905550806000808473ffffffffffffffffffffffffffffffffffffffff1673ffffffffffffffffffffffffffffffffffffffff168152602001908152602001600020600082825461424c91906152bd565b925050819055508173ffffffffffffffffffffffffffffffffffffffff16600073ffffffffffffffffffffffffffffffffffffffff167fddf252ad1be2c89b69c2b068fc378daa952ba7f163c4a11628f55a4df523b3ef836040516142b19190614644565b60405180910390a36142c5600083836142ce565b5050565b505050565b505050565b600080600060418451146142e657600080fd5b60008060006020870151925060408701519150606087015160001a90508083839550955095505050509193909250565b6040518060400160405280600073ffffffffffffffffffffffffffffffffffffffff168152602001600073ffffffffffffffffffffffffffffffffffffffff1681525090565b604051806101000160405280600081526020016000815260200160008152602001606081526020016060815260200160608152602001600015158152602001600073ffffffffffffffffffffffffffffffffffffffff1681525090565b8280546143c590615342565b90600052602060002090601f0160209004810192826143e7576000855561442e565b82601f1061440057805160ff191683800117855561442e565b8280016001018555821561442e579182015b8281111561442d578251825591602001919060010190614412565b5b50905061443b919061443f565b5090565b5b80821115614458576000816000905550600101614440565b5090565b600081519050919050565b600082825260208201905092915050565b60005b8381101561449657808201518184015260208101905061447b565b838111156144a5576000848401525b50505050565b6000601f19601f8301169050919050565b60006144c78261445c565b6144d18185614467565b93506144e1818560208601614478565b6144ea816144ab565b840191505092915050565b6000602082019050818103600083015261450f81846144bc565b905092915050565b6000604051905090565b600080fd5b600080fd5b600073ffffffffffffffffffffffffffffffffffffffff82169050919050565b60006145568261452b565b9050919050565b6145668161454b565b811461457157600080fd5b50565b6000813590506145838161455d565b92915050565b6000819050919050565b61459c81614589565b81146145a757600080fd5b50565b6000813590506145b981614593565b92915050565b600080604083850312156145d6576145d5614521565b5b60006145e485828601614574565b92505060206145f5858286016145aa565b9150509250929050565b60008115159050919050565b614614816145ff565b82525050565b600060208201905061462f600083018461460b565b92915050565b61463e81614589565b82525050565b60006020820190506146596000830184614635565b92915050565b60008060006060848603121561467857614677614521565b5b600061468686828701614574565b935050602061469786828701614574565b92505060406146a8868287016145aa565b9150509250925092565b6000602082840312156146c8576146c7614521565b5b60006146d684828501614574565b91505092915050565b600060ff82169050919050565b6146f5816146df565b82525050565b600060208201905061471060008301846146ec565b92915050565b600060c08201905061472b6000830189614635565b6147386020830188614635565b6147456040830187614635565b6147526060830186614635565b61475f6080830185614635565b61476c60a0830184614635565b979650505050505050565b6000806040838503121561478e5761478d614521565b5b600061479c858286016145aa565b92505060206147ad85828601614574565b9150509250929050565b600081519050919050565b600082825260208201905092915050565b6000819050602082019050919050565b6147ec8161454b565b82525050565b60408201600082015161480860008501826147e3565b50602082015161481b60208501826147e3565b50505050565b600061482d83836147f2565b60408301905092915050565b6000602082019050919050565b6000614851826147b7565b61485b81856147c2565b9350614866836147d3565b8060005b8381101561489757815161487e8882614821565b975061488983614839565b92505060018101905061486a565b5085935050505092915050565b600060208201905081810360008301526148be8184614846565b905092915050565b600081519050919050565b600082825260208201905092915050565b6000819050602082019050919050565b6148fb81614589565b82525050565b600082825260208201905092915050565b600061491d8261445c565b6149278185614901565b9350614937818560208601614478565b614940816144ab565b840191505092915050565b614954816145ff565b82525050565b60006101008301600083015161497360008601826148f2565b50602083015161498660208601826148f2565b50604083015161499960408601826148f2565b50606083015184820360608601526149b18282614912565b915050608083015184820360808601526149cb8282614912565b91505060a083015184820360a08601526149e58282614912565b91505060c08301516149fa60c086018261494b565b5060e0830151614a0d60e08601826147e3565b508091505092915050565b6000614a24838361495a565b905092915050565b6000602082019050919050565b6000614a44826148c6565b614a4e81856148d1565b935083602082028501614a60856148e2565b8060005b85811015614a9c5784840389528151614a7d8582614a18565b9450614a8883614a2c565b925060208a01995050600181019050614a64565b50829750879550505050505092915050565b60006020820190508181036000830152614ac88184614a39565b905092915050565b600080fd5b600080fd5b600080fd5b60008083601f840112614af557614af4614ad0565b5b8235905067ffffffffffffffff811115614b1257614b11614ad5565b5b602083019150836001820283011115614b2e57614b2d614ada565b5b9250929050565b600080fd5b7f4e487b7100000000000000000000000000000000000000000000000000000000600052604160045260246000fd5b614b72826144ab565b810181811067ffffffffffffffff82111715614b9157614b90614b3a565b5b80604052505050565b6000614ba4614517565b9050614bb08282614b69565b919050565b600067ffffffffffffffff821115614bd057614bcf614b3a565b5b614bd9826144ab565b9050602081019050919050565b82818337600083830152505050565b6000614c08614c0384614bb5565b614b9a565b905082815260208101848484011115614c2457614c23614b35565b5b614c2f848285614be6565b509392505050565b600082601f830112614c4c57614c4b614ad0565b5b8135614c5c848260208601614bf5565b91505092915050565b600080600080600060808688031215614c8157614c80614521565b5b600086013567ffffffffffffffff811115614c9f57614c9e614526565b5b614cab88828901614adf565b9550955050602086013567ffffffffffffffff811115614cce57614ccd614526565b5b614cda88828901614c37565b935050604086013567ffffffffffffffff811115614cfb57614cfa614526565b5b614d0788828901614c37565b925050606086013567ffffffffffffffff811115614d2857614d27614526565b5b614d3488828901614c37565b9150509295509295909350565b614d4a8161454b565b82525050565b600061010082019050614d66600083018b614635565b614d73602083018a614635565b614d806040830189614635565b8181036060830152614d9281886144bc565b90508181036080830152614da681876144bc565b905081810360a0830152614dba81866144bc565b9050614dc960c083018561460b565b614dd660e0830184614d41565b9998505050505050505050565b600080600060608486031215614dfc57614dfb614521565b5b600084013567ffffffffffffffff811115614e1a57614e19614526565b5b614e2686828701614c37565b935050602084013567ffffffffffffffff811115614e4757614e46614526565b5b614e5386828701614c37565b925050604084013567ffffffffffffffff811115614e7457614e73614526565b5b614e8086828701614c37565b9150509250925092565b600060208284031215614ea057614e9f614521565b5b6000614eae848285016145aa565b91505092915050565b60008060408385031215614ece57614ecd614521565b5b6000614edc85828601614574565b9250506020614eed85828601614574565b9150509250929050565b60008083601f840112614f0d57614f0c614ad0565b5b8235905067ffffffffffffffff811115614f2a57614f29614ad5565b5b602083019150836001820283011115614f4657614f45614ada565b5b9250929050565b600080600060408486031215614f6657614f65614521565b5b6000614f7486828701614574565b935050602084013567ffffffffffffffff811115614f9557614f94614526565b5b614fa186828701614ef7565b92509250509250925092565b50565b6000614fbd600083614467565b9150614fc882614fad565b600082019050919050565b60006020820190508181036000830152614fec81614fb0565b9050919050565b7f4e487b7100000000000000000000000000000000000000000000000000000000600052603260045260246000fd5b7f4e487b7100000000000000000000000000000000000000000000000000000000600052601160045260246000fd5b60008160011c9050919050565b6000808291508390505b60018511156150a85780860481111561508457615083615022565b5b60018516156150935780820291505b80810290506150a185615051565b9450615068565b94509492505050565b6000826150c1576001905061517d565b816150cf576000905061517d565b81600181146150e557600281146150ef5761511e565b600191505061517d565b60ff84111561510157615100615022565b5b8360020a91508482111561511857615117615022565b5b5061517d565b5060208310610133831016604e8410600b84101617156151535782820a90508381111561514e5761514d615022565b5b61517d565b615160848484600161505e565b9250905081840481111561517757615176615022565b5b81810290505b9392505050565b600061518f82614589565b915061519a83614589565b92506151c77fffffffffffffffffffffffffffffffffffffffffffffffffffffffffffffffff84846150b1565b905092915050565b60006151da82614589565b91506151e583614589565b9250828210156151f8576151f7615022565b5b828203905092915050565b600061520e82614589565b915061521983614589565b9250817fffffffffffffffffffffffffffffffffffffffffffffffffffffffffffffffff048311821515161561525257615251615022565b5b828202905092915050565b7f4e487b7100000000000000000000000000000000000000000000000000000000600052601260045260246000fd5b600061529782614589565b91506152a283614589565b9250826152b2576152b161525d565b5b828204905092915050565b60006152c882614589565b91506152d383614589565b9250827fffffffffffffffffffffffffffffffffffffffffffffffffffffffffffffffff0382111561530857615307615022565b5b828201905092915050565b7f4e487b7100000000000000000000000000000000000000000000000000000000600052602260045260246000fd5b6000600282049050600182168061535a57607f821691505b6020821081141561536e5761536d615313565b5b50919050565b7f45524332303a207472616e7366657220616d6f756e742065786365656473206160008201527f6c6c6f77616e6365000000000000000000000000000000000000000000000000602082015250565b60006153d0602883614467565b91506153db82615374565b604082019050919050565b600060208201905081810360008301526153ff816153c3565b9050919050565b7f326d756368000000000000000000000000000000000000000000000000000000600082015250565b600061543c600583614467565b915061544782615406565b602082019050919050565b6000602082019050818103600083015261546b8161542f565b9050919050565b600061547d82614589565b91507fffffffffffffffffffffffffffffffffffffffffffffffffffffffffffffffff8214156154b0576154af615022565b5b600182019050919050565b60008160601b9050919050565b60006154d3826154bb565b9050919050565b60006154e5826154c8565b9050919050565b6154fd6154f88261454b565b6154da565b82525050565b600061550f82846154ec565b60148201915081905092915050565b7f4675636b206f666620726f626f74000000000000000000000000000000000000600082015250565b6000615554600e83614467565b915061555f8261551e565b602082019050919050565b6000602082019050818103600083015261558381615547565b9050919050565b7f416c726561647920657869737473000000000000000000000000000000000000600082015250565b60006155c0600e83614467565b91506155cb8261558a565b602082019050919050565b600060208201905081810360008301526155ef816155b3565b9050919050565b6000606082019050818103600083015261561081866144bc565b9050818103602083015261562481856144bc565b9050818103604083015261563881846144bc565b9050949350505050565b7f45524332303a2064656372656173656420616c6c6f77616e63652062656c6f7760008201527f207a65726f000000000000000000000000000000000000000000000000000000602082015250565b600061569e602583614467565b91506156a982615642565b604082019050919050565b600060208201905081810360008301526156cd81615691565b9050919050565b7f4e6f7420416c6c6f776564000000000000000000000000000000000000000000600082015250565b600061570a600b83614467565b9150615715826156d4565b602082019050919050565b60006020820190508181036000830152615739816156fd565b9050919050565b7f416c726561647920646f6e650000000000000000000000000000000000000000600082015250565b6000615776600c83614467565b915061578182615740565b602082019050919050565b600060208201905081810360008301526157a581615769565b9050919050565b7f476f6f64436f756e742072656163686564206c696d6974000000000000000000600082015250565b60006157e2601783614467565b91506157ed826157ac565b602082019050919050565b60006020820190508181036000830152615811816157d5565b9050919050565b7f4e6f74206e656564656400000000000000000000000000000000000000000000600082015250565b600061584e600a83614467565b915061585982615818565b602082019050919050565b6000602082019050818103600083015261587d81615841565b9050919050565b7f6e00000000000000000000000000000000000000000000000000000000000000600082015250565b60006158ba600183614467565b91506158c582615884565b602082019050919050565b600060208201905081810360008301526158e9816158ad565b9050919050565b60006080820190506159056000830187614d41565b818103602083015261591781866144bc565b9050818103604083015261592b81856144bc565b9050818103606083015261593f81846144bc565b905095945050505050565b7f416c7265616479207265706f7274656400000000000000000000000000000000600082015250565b6000615980601083614467565b915061598b8261594a565b602082019050919050565b600060208201905081810360008301526159af81615973565b9050919050565b60006159c28385614467565b93506159cf838584614be6565b6159d8836144ab565b840190509392505050565b600060208201905081810360008301526159fe8184866159b6565b90509392505050565b7f626c000000000000000000000000000000000000000000000000000000000000600082015250565b6000615a3d600283614467565b9150615a4882615a07565b602082019050919050565b60006020820190508181036000830152615a6c81615a30565b9050919050565b7f45524332303a20617070726f76652066726f6d20746865207a65726f2061646460008201527f7265737300000000000000000000000000000000000000000000000000000000602082015250565b6000615acf602483614467565b9150615ada82615a73565b604082019050919050565b60006020820190508181036000830152615afe81615ac2565b9050919050565b7f45524332303a20617070726f766520746f20746865207a65726f20616464726560008201527f7373000000000000000000000000000000000000000000000000000000000000602082015250565b6000615b61602283614467565b9150615b6c82615b05565b604082019050919050565b60006020820190508181036000830152615b9081615b54565b9050919050565b7f45524332303a207472616e736665722066726f6d20746865207a65726f20616460008201527f6472657373000000000000000000000000000000000000000000000000000000602082015250565b6000615bf3602583614467565b9150615bfe82615b97565b604082019050919050565b60006020820190508181036000830152615c2281615be6565b9050919050565b7f45524332303a207472616e7366657220746f20746865207a65726f206164647260008201527f6573730000000000000000000000000000000000000000000000000000000000602082015250565b6000615c85602383614467565b9150615c9082615c29565b604082019050919050565b60006020820190508181036000830152615cb481615c78565b9050919050565b7f45524332303a207472616e7366657220616d6f756e742065786365656473206260008201527f616c616e63650000000000000000000000000000000000000000000000000000602082015250565b6000615d17602683614467565b9150615d2282615cbb565b604082019050919050565b60006020820190508181036000830152615d4681615d0a565b9050919050565b7f6e6f74416c6c6f77656400000000000000000000000000000000000000000000600082015250565b6000615d83600a83614467565b9150615d8e82615d4d565b602082019050919050565b60006020820190508181036000830152615db281615d76565b9050919050565b600081905092915050565b7f19457468657265756d205369676e6564204d6573736167653a0a333200000000600082015250565b6000615dfa601c83615db9565b9150615e0582615dc4565b601c82019050919050565b6000819050919050565b6000819050919050565b615e35615e3082615e10565b615e1a565b82525050565b6000615e4682615ded565b9150615e528284615e24565b60208201915081905092915050565b615e6a81615e10565b82525050565b6000608082019050615e856000830187615e61565b615e9260208301866146ec565b615e9f6040830185615e61565b615eac6060830184615e61565b95945050505050565b7f45524332303a206d696e7420746f20746865207a65726f206164647265737300600082015250565b6000615eeb601f83614467565b9150615ef682615eb5565b602082019050919050565b60006020820190508181036000830152615f1a81615ede565b905091905056fea26469706673582212202fdcdc573b1f6d07b4bedb663c1c5d655062880bdff569da96d1836d0554a99164736f6c634300080a0033",
  "immutableReferences": {},
  "source": "// SPDX-License-Identifier: MIT\npragma solidity 0.8.10;\n\nimport \"@openzeppelin/contracts/token/ERC20/ERC20.sol\";\n\ncontract slice is ERC20 {\n    \n    uint start;\n    uint vTotalSupply;\n    uint vSupply;\n    address listAdmin;\n    address signer;\n    uint wenBlock;\n    uint maxGoodCount;\n    uint mintingSpeed;\n    uint goodPrice;\n\n\n        function _a() private view {\n          require ((whitelist[msg.sender]==true), \"bl\");\n        }\n        modifier onlyWhitelisted() {\n          _a();\n          _;\n        }\n        function _b() private view {\n          require (\n            blacklist[msg.sender]==false,\n            \"notAllowed\"\n        );\n        }\n        modifier onlyNotBlacklisted() { \n          _b();\n          _;\n        }\n\n    constructor (string memory name, string memory symbol) ERC20(name, symbol) {\n       start = block.timestamp;\n       vTotalSupply = 25000 * 10 ** uint(decimals());\n       listAdmin = msg.sender;\n       signer = 0x4558f02c565C813b58364759F84C728cd7d7F26F;\n       wenBlock=2;\n       maxGoodCount=1;\n       mintingSpeed=60;\n       goodPrice=1000000000000000;\n    }\n\n    struct Minters {\n        uint goodCount;\n        uint reported;\n        uint lastMinted;\n        string gpsLat;\n        string gpsLon;\n        string nickname;\n        bool whitelisted;\n        address addr;\n    }\n    Minters[] mintersDB;\n    mapping(address => Minters) minters;\n    mapping(address => uint) index;\n    \n    struct StakedContracts {\n        address staker;\n        address fightContract;\n    }\n    StakedContracts []  stakersList;\n    \n    mapping (address=>uint )  stakedContractsCounter;\n    mapping (address => uint) vSliceBalances;\n    mapping (address => uint) stakedVSlices;\n    mapping (address => bool) blacklist;\n    mapping (address => bool) whitelist;\n    mapping (address => mapping(address=> address))  challengers;\n    mapping (address => mapping(address=> bool))  stakers;\n    mapping (address => uint) pw;\n    error NotEnoughEther();\n\n    function isRegistered (address _addr) view external returns(uint) {\n     return index[_addr];\n    }\n    function  wl(address _addr) view external  returns (bool) {\n     return whitelist[_addr] ;\n    }\n\n    event BadActors(uint date, address indexed reporter, address indexed reported);\n    function reportBadActor(address _addr) external onlyWhitelisted {\n    require (challengers[msg.sender][_addr] != _addr, \"Already reported\");\n    challengers[msg.sender][_addr] = _addr;\n    uint indx = index[_addr];\n    Minters storage m = mintersDB[indx];\n    m.reported += 1;\n    if (m.reported <wenBlock) \n         {bool existingStatus=m.whitelisted;\n          m.whitelisted=existingStatus;\n    }else {\n        m.whitelisted=false;\n        whitelist[msg.sender] = false;\n    }\n    emit BadActors (block.timestamp, msg.sender, _addr);\n    }\n    \n    event GoodActors(uint date, address indexed reporter, address indexed reported);\n    function reportGoodActor(address _addr) external payable onlyWhitelisted {\n    uint indx = index[_addr];\n    Minters storage m = mintersDB[indx];\n    require (msg.sender != _addr, \"Not Allowed\");\n    require (challengers[msg.sender][_addr] != _addr, \"Already done\");\n    require (m.goodCount<=maxGoodCount, 'GoodCount reached limit');\n    require (m.reported>0, \"Not needed\");\n    if (msg.value != goodPrice) revert NotEnoughEther();\n    pw[listAdmin]+= goodPrice;\n    challengers[msg.sender][_addr] = _addr;\n    m.reported -= 1;\n    m.goodCount+=1;\n    if (m.reported >=wenBlock)  \n         {bool existingStatus=m.whitelisted;\n          m.whitelisted=existingStatus;\n    }else {\n        m.whitelisted=true;\n        whitelist[msg.sender] = true;\n    } \n    emit GoodActors (block.timestamp, msg.sender, _addr);\n    }\n    \n    event mintersFree(address minter, string Lat, string Lon, string Nick);\n    function AddToWhitelist (string memory  _gpsLat,string memory  _gpsLon, string memory _nickname) external {\n    require(vSupply>= vTotalSupply, \"n\");\n    require(index[msg.sender]==0, \"n\");\n    mintersDB.push(Minters(0, 0, 0, _gpsLat, _gpsLon, _nickname, true, msg.sender));\n    index[msg.sender] = mintersDB.length-1;\n    whitelist[msg.sender] = true;\n    emit mintersFree(msg.sender,_gpsLat, _gpsLon, _nickname);\n  }\n         \n        \n    event newMinter(address indexed minter, string Lat, string Lon, string Nick);\n    function addToWhitelist_a7I(bytes calldata signature, string memory _gpsLat,string memory _gpsLon, string memory _nickname) external {\n    bytes32 message = prefixed(keccak256(abi.encodePacked(\n      msg.sender\n    )));\n    require(recoverSigner(message, signature) == signer , \"Fuck off robot\");\n    require(index[msg.sender]==0, \"Already exists\");\n    mintersDB.push(Minters(0, 0, 0, _gpsLat, _gpsLon, _nickname, true, msg.sender));\n    index[msg.sender] = mintersDB.length-1;\n    whitelist[msg.sender] = true;\n    emit newMinter(msg.sender,_gpsLat, _gpsLon, _nickname);\n  }\n\n  function prefixed(bytes32 hash) internal pure returns (bytes32) {\n    return keccak256(abi.encodePacked(\n      '\\x19Ethereum Signed Message:\\n32', \n      hash\n    ));\n  }\n\n  function recoverSigner(bytes32 message, bytes memory sig)\n    internal\n    pure\n    returns (address)\n  {\n    uint8 v;\n    bytes32 r;\n    bytes32 s;\n  \n    (v, r, s) = splitSignature(sig);\n  \n    return ecrecover(message, v, r, s);\n  }\n\n  function splitSignature(bytes memory sig)\n    internal\n    pure\n    returns (uint8, bytes32, bytes32)\n  {\n    require(sig.length == 65);\n  \n    bytes32 r;\n    bytes32 s;\n    uint8 v;\n  \n    assembly {\n        // first 32 bytes, after the length prefix\n        r := mload(add(sig, 32))\n        // second 32 bytes\n        s := mload(add(sig, 64))\n        // final byte (first byte of the next 32 bytes)\n        v := byte(0, mload(add(sig, 96)))\n    }\n  \n    return (v, r, s);\n  }\n\n    function SliceMinting() external onlyWhitelisted {\n        require(vSupply>=vTotalSupply, \"\");\n        uint amount = vSliceBalances[msg.sender];\n        vSliceBalances[msg.sender]=0;\n        _mint(msg.sender, amount);\n\n    }\n    \n\n    function vSliceMinting_ExW() external onlyWhitelisted {\n            require(vSupply<= vTotalSupply, \"\");\n            uint indx = index[msg.sender];\n            Minters storage m = mintersDB[indx];\n            uint mint;\n            uint diff;\n         if (m.lastMinted == 0) {\n            mint = (block.timestamp-start)* 10 ** uint(decimals());\n            vSliceBalances[msg.sender]+= mint/mintingSpeed;\n            m.lastMinted = block.timestamp;\n            vSupply+= mint/mintingSpeed;}\n         else {\n            diff = block.timestamp - m.lastMinted;\n            mint = diff* 10 ** uint(decimals());\n            vSliceBalances[msg.sender]+= mint/mintingSpeed;\n            m.lastMinted = block.timestamp;\n            vSupply+= mint/mintingSpeed;}\n\n    }\n    \n    event StakingVSlice (uint date, address indexed fightContract, address indexed Staker);\n    function stakeVSlice_h56(uint _amount, address _addr) external onlyNotBlacklisted{\n        require (vSliceBalances[_addr] >= _amount, \"2much\");\n        stakedVSlices[_addr] += _amount;\n        vSliceBalances[_addr] -= _amount;\n        if (stakers[_addr][msg.sender] == false) {\n            stakersList.push(StakedContracts(_addr, msg.sender));\n            stakers[_addr][msg.sender] = true;\n            stakedContractsCounter[_addr] += 1;\n        } else {return;}\n         emit StakingVSlice (block.timestamp, msg.sender, _addr);\n    }\n    event UnStakingVSlice (uint date, address indexed fightContract, address indexed Unstaker);\n    function unstakeVSlice_Hha(uint _amount, address _addr) external onlyNotBlacklisted {\n        require(stakedVSlices[_addr]>=_amount, \"2much\");\n        stakedVSlices[_addr] -= _amount;\n        vSliceBalances[_addr] += _amount;\n         emit UnStakingVSlice (block.timestamp, msg.sender, _addr);\n    }\n\n    function getStakedByStaker(address _owner) view external onlyNotBlacklisted returns (StakedContracts[] memory){\n      StakedContracts[]    memory id = new StakedContracts[](stakedContractsCounter[_owner]);\n          uint counter = 0;\n          \n      for (uint i = 0; i < stakersList.length; i++) {\n           if (stakersList[i].staker == _owner) {\n        StakedContracts storage list = stakersList[i];\n          id[counter] = list;\n          counter++;\n      }\n     }\n      return id;\n  }\n    function getStakedByFight(address _fight) view external onlyNotBlacklisted returns (StakedContracts[] memory){\n      StakedContracts[]    memory id = new StakedContracts[](stakersList.length);\n          uint counter = 0;\n          \n      for (uint i = 0; i < stakersList.length; i++) {\n           if (stakersList[i].fightContract== _fight) {\n        StakedContracts storage list = stakersList[i];\n          id[counter] = list;\n          counter++;\n      }\n     }\n      return id;\n  }\n    function getAllMinters() public view returns (Minters[] memory){\n      Minters[]    memory id = new Minters[](mintersDB.length);\n      for (uint i = 0; i < mintersDB.length; i++) {\n          Minters storage mint = mintersDB[i];\n          id[i] = mint;\n      }\n      return id;\n  }\n  \n    function getUserFromBlackList(address _addr) public view returns (bool) {\n    return blacklist[_addr];\n    }\n    function getMinter(address _addr)  view external returns (uint, uint, uint, string memory, string memory,string memory, bool, address) {\n        uint indx = index[_addr];\n        Minters storage m = mintersDB[indx];\n    return (m.goodCount, m.reported,m.lastMinted, m.gpsLat, m.gpsLon, m.nickname, m.whitelisted, m.addr);\n    }\n    function getMintingSpeed() public view returns (uint) {\n    return mintingSpeed;\n    }\n    function updateAdmin(address newAdmin) external {\n    require(msg.sender == listAdmin, '');\n    listAdmin = newAdmin;\n  }\n    function updateSigner(address _newSigner) external {\n    require(msg.sender == listAdmin, '');\n    signer = _newSigner;\n  }\n    function addToBlacklist(address _addr) external {\n    require(msg.sender == listAdmin, '');\n    blacklist[_addr] = true;\n  }\n    function removeFromBlacklist(address _addr) external {\n    require(msg.sender == listAdmin, '');\n    blacklist[_addr] = false;\n  }\n    function vSliceViewBalance (address _addr) view external onlyNotBlacklisted returns (uint) {\n    return vSliceBalances[_addr];\n    }\n    function getStakedBalance () view external returns (uint) {\n    return stakedVSlices[msg.sender];\n    }\n    function getStart () view external returns (uint) {\n    return start;\n    }\n    function setMintSpeed(uint _speed) external {\n    require(msg.sender == listAdmin, '');\n    mintingSpeed = _speed;\n  }\n    function setGoodP (uint _p) external {\n    require(msg.sender == listAdmin, '');\n    goodPrice = _p;\n  }\n    function getGoodP () view external returns (uint) {\n    return goodPrice;\n      }\n    function updateWenBlock(uint _count) external {\n    require(msg.sender == listAdmin, '');\n    wenBlock = _count;\n  }\n    function countMinters() view external returns(uint) {\n    return mintersDB.length;\n    }\n    function updateMaxGoodCount(uint _count) external {\n    require(msg.sender == listAdmin, '');\n    maxGoodCount = _count;\n  }\n    function sliceParams () view external returns (uint, uint, uint, uint, uint, uint) {\n    return (vSupply, vTotalSupply, wenBlock, maxGoodCount, mintingSpeed, goodPrice);\n    }\n    function canChallenge (address _can) view external returns (bool) {\n    if (challengers[msg.sender][_can] != _can) return true; else return false;\n    }\n    event Chat(address indexed _from, address indexed _to, string message);\n    function sendMessage(address _to, string calldata message) external {\n      emit Chat(msg.sender, _to, message);\n    }\n    \n}",
  "sourcePath": "/Users/stanislavpavlovic/Desktop/Slice/ee/contracts/slice.sol",
  "compiler": {
    "name": "solc",
    "version": "0.8.10+commit.fc410830.Emscripten.clang"
  },
  "schemaVersion": "3.4.3",
  "updatedAt": "2022-02-09T21:23:35.352Z",
  "networkType": "ethereum",
  "devdoc": {
    "kind": "dev",
    "methods": {
      "allowance(address,address)": {
        "details": "See {IERC20-allowance}."
      },
      "approve(address,uint256)": {
        "details": "See {IERC20-approve}. Requirements: - `spender` cannot be the zero address."
      },
      "balanceOf(address)": {
        "details": "See {IERC20-balanceOf}."
      },
      "decimals()": {
        "details": "Returns the number of decimals used to get its user representation. For example, if `decimals` equals `2`, a balance of `505` tokens should be displayed to a user as `5.05` (`505 / 10 ** 2`). Tokens usually opt for a value of 18, imitating the relationship between Ether and Wei. This is the value {ERC20} uses, unless this function is overridden; NOTE: This information is only used for _display_ purposes: it in no way affects any of the arithmetic of the contract, including {IERC20-balanceOf} and {IERC20-transfer}."
      },
      "decreaseAllowance(address,uint256)": {
        "details": "Atomically decreases the allowance granted to `spender` by the caller. This is an alternative to {approve} that can be used as a mitigation for problems described in {IERC20-approve}. Emits an {Approval} event indicating the updated allowance. Requirements: - `spender` cannot be the zero address. - `spender` must have allowance for the caller of at least `subtractedValue`."
      },
      "increaseAllowance(address,uint256)": {
        "details": "Atomically increases the allowance granted to `spender` by the caller. This is an alternative to {approve} that can be used as a mitigation for problems described in {IERC20-approve}. Emits an {Approval} event indicating the updated allowance. Requirements: - `spender` cannot be the zero address."
      },
      "name()": {
        "details": "Returns the name of the token."
      },
      "symbol()": {
        "details": "Returns the symbol of the token, usually a shorter version of the name."
      },
      "totalSupply()": {
        "details": "See {IERC20-totalSupply}."
      },
      "transfer(address,uint256)": {
        "details": "See {IERC20-transfer}. Requirements: - `recipient` cannot be the zero address. - the caller must have a balance of at least `amount`."
      },
      "transferFrom(address,address,uint256)": {
        "details": "See {IERC20-transferFrom}. Emits an {Approval} event indicating the updated allowance. This is not required by the EIP. See the note at the beginning of {ERC20}. Requirements: - `sender` and `recipient` cannot be the zero address. - `sender` must have a balance of at least `amount`. - the caller must have allowance for ``sender``'s tokens of at least `amount`."
      }
    },
    "version": 1
  },
  "userdoc": {
    "kind": "user",
    "methods": {},
    "version": 1
  }
}