{
  "contractName": "slice",
  "abi": [
    {
      "inputs": [
        {
          "internalType": "string",
          "name": "name",
          "type": "string"
        },
        {
          "internalType": "string",
          "name": "symbol",
          "type": "string"
        }
      ],
      "stateMutability": "nonpayable",
      "type": "constructor"
    },
    {
      "inputs": [],
      "name": "NotEnoughEther",
      "type": "error"
    },
    {
      "anonymous": false,
      "inputs": [
        {
          "indexed": true,
          "internalType": "address",
          "name": "owner",
          "type": "address"
        },
        {
          "indexed": true,
          "internalType": "address",
          "name": "spender",
          "type": "address"
        },
        {
          "indexed": false,
          "internalType": "uint256",
          "name": "value",
          "type": "uint256"
        }
      ],
      "name": "Approval",
      "type": "event"
    },
    {
      "anonymous": false,
      "inputs": [
        {
          "indexed": false,
          "internalType": "uint256",
          "name": "date",
          "type": "uint256"
        },
        {
          "indexed": true,
          "internalType": "address",
          "name": "reporter",
          "type": "address"
        },
        {
          "indexed": true,
          "internalType": "address",
          "name": "reported",
          "type": "address"
        }
      ],
      "name": "BadActors",
      "type": "event"
    },
    {
      "anonymous": false,
      "inputs": [
        {
          "indexed": true,
          "internalType": "address",
          "name": "_from",
          "type": "address"
        },
        {
          "indexed": true,
          "internalType": "address",
          "name": "_to",
          "type": "address"
        },
        {
          "indexed": false,
          "internalType": "string",
          "name": "message",
          "type": "string"
        }
      ],
      "name": "Chat",
      "type": "event"
    },
    {
      "anonymous": false,
      "inputs": [
        {
          "indexed": false,
          "internalType": "uint256",
          "name": "date",
          "type": "uint256"
        },
        {
          "indexed": true,
          "internalType": "address",
          "name": "reporter",
          "type": "address"
        },
        {
          "indexed": true,
          "internalType": "address",
          "name": "reported",
          "type": "address"
        }
      ],
      "name": "GoodActors",
      "type": "event"
    },
    {
      "anonymous": false,
      "inputs": [
        {
          "indexed": true,
          "internalType": "address",
          "name": "from",
          "type": "address"
        },
        {
          "indexed": true,
          "internalType": "address",
          "name": "to",
          "type": "address"
        },
        {
          "indexed": false,
          "internalType": "uint256",
          "name": "value",
          "type": "uint256"
        }
      ],
      "name": "Transfer",
      "type": "event"
    },
    {
      "anonymous": false,
      "inputs": [
        {
          "indexed": false,
          "internalType": "uint256",
          "name": "date",
          "type": "uint256"
        },
        {
          "indexed": true,
          "internalType": "address",
          "name": "fightContract",
          "type": "address"
        },
        {
          "indexed": true,
          "internalType": "address",
          "name": "Unstaker",
          "type": "address"
        }
      ],
      "name": "UnStakingVSlice",
      "type": "event"
    },
    {
      "anonymous": false,
      "inputs": [
        {
          "indexed": true,
          "internalType": "address",
          "name": "minter",
          "type": "address"
        },
        {
          "indexed": false,
          "internalType": "string",
          "name": "Lat",
          "type": "string"
        },
        {
          "indexed": false,
          "internalType": "string",
          "name": "Lon",
          "type": "string"
        },
        {
          "indexed": false,
          "internalType": "string",
          "name": "Nick",
          "type": "string"
        }
      ],
      "name": "mintersFree",
      "type": "event"
    },
    {
      "anonymous": false,
      "inputs": [
        {
          "indexed": false,
          "internalType": "uint256",
          "name": "date",
          "type": "uint256"
        },
        {
          "indexed": true,
          "internalType": "address",
          "name": "minter",
          "type": "address"
        },
        {
          "indexed": false,
          "internalType": "string",
          "name": "Lat",
          "type": "string"
        },
        {
          "indexed": false,
          "internalType": "string",
          "name": "Lon",
          "type": "string"
        },
        {
          "indexed": false,
          "internalType": "string",
          "name": "Nick",
          "type": "string"
        }
      ],
      "name": "newMinter",
      "type": "event"
    },
    {
      "inputs": [
        {
          "internalType": "address",
          "name": "owner",
          "type": "address"
        },
        {
          "internalType": "address",
          "name": "spender",
          "type": "address"
        }
      ],
      "name": "allowance",
      "outputs": [
        {
          "internalType": "uint256",
          "name": "",
          "type": "uint256"
        }
      ],
      "stateMutability": "view",
      "type": "function",
      "constant": true
    },
    {
      "inputs": [
        {
          "internalType": "address",
          "name": "spender",
          "type": "address"
        },
        {
          "internalType": "uint256",
          "name": "amount",
          "type": "uint256"
        }
      ],
      "name": "approve",
      "outputs": [
        {
          "internalType": "bool",
          "name": "",
          "type": "bool"
        }
      ],
      "stateMutability": "nonpayable",
      "type": "function"
    },
    {
      "inputs": [
        {
          "internalType": "address",
          "name": "account",
          "type": "address"
        }
      ],
      "name": "balanceOf",
      "outputs": [
        {
          "internalType": "uint256",
          "name": "",
          "type": "uint256"
        }
      ],
      "stateMutability": "view",
      "type": "function",
      "constant": true
    },
    {
      "inputs": [],
      "name": "decimals",
      "outputs": [
        {
          "internalType": "uint8",
          "name": "",
          "type": "uint8"
        }
      ],
      "stateMutability": "view",
      "type": "function",
      "constant": true
    },
    {
      "inputs": [
        {
          "internalType": "address",
          "name": "spender",
          "type": "address"
        },
        {
          "internalType": "uint256",
          "name": "subtractedValue",
          "type": "uint256"
        }
      ],
      "name": "decreaseAllowance",
      "outputs": [
        {
          "internalType": "bool",
          "name": "",
          "type": "bool"
        }
      ],
      "stateMutability": "nonpayable",
      "type": "function"
    },
    {
      "inputs": [
        {
          "internalType": "address",
          "name": "spender",
          "type": "address"
        },
        {
          "internalType": "uint256",
          "name": "addedValue",
          "type": "uint256"
        }
      ],
      "name": "increaseAllowance",
      "outputs": [
        {
          "internalType": "bool",
          "name": "",
          "type": "bool"
        }
      ],
      "stateMutability": "nonpayable",
      "type": "function"
    },
    {
      "inputs": [],
      "name": "name",
      "outputs": [
        {
          "internalType": "string",
          "name": "",
          "type": "string"
        }
      ],
      "stateMutability": "view",
      "type": "function",
      "constant": true
    },
    {
      "inputs": [],
      "name": "symbol",
      "outputs": [
        {
          "internalType": "string",
          "name": "",
          "type": "string"
        }
      ],
      "stateMutability": "view",
      "type": "function",
      "constant": true
    },
    {
      "inputs": [],
      "name": "totalSupply",
      "outputs": [
        {
          "internalType": "uint256",
          "name": "",
          "type": "uint256"
        }
      ],
      "stateMutability": "view",
      "type": "function",
      "constant": true
    },
    {
      "inputs": [
        {
          "internalType": "address",
          "name": "recipient",
          "type": "address"
        },
        {
          "internalType": "uint256",
          "name": "amount",
          "type": "uint256"
        }
      ],
      "name": "transfer",
      "outputs": [
        {
          "internalType": "bool",
          "name": "",
          "type": "bool"
        }
      ],
      "stateMutability": "nonpayable",
      "type": "function"
    },
    {
      "inputs": [
        {
          "internalType": "address",
          "name": "sender",
          "type": "address"
        },
        {
          "internalType": "address",
          "name": "recipient",
          "type": "address"
        },
        {
          "internalType": "uint256",
          "name": "amount",
          "type": "uint256"
        }
      ],
      "name": "transferFrom",
      "outputs": [
        {
          "internalType": "bool",
          "name": "",
          "type": "bool"
        }
      ],
      "stateMutability": "nonpayable",
      "type": "function"
    },
    {
      "inputs": [
        {
          "internalType": "address",
          "name": "_addr",
          "type": "address"
        }
      ],
      "name": "isRegistered",
      "outputs": [
        {
          "internalType": "uint256",
          "name": "",
          "type": "uint256"
        }
      ],
      "stateMutability": "view",
      "type": "function",
      "constant": true
    },
    {
      "inputs": [
        {
          "internalType": "address",
          "name": "_addr",
          "type": "address"
        }
      ],
      "name": "wl",
      "outputs": [
        {
          "internalType": "bool",
          "name": "",
          "type": "bool"
        }
      ],
      "stateMutability": "view",
      "type": "function",
      "constant": true
    },
    {
      "inputs": [
        {
          "internalType": "address",
          "name": "_addr",
          "type": "address"
        }
      ],
      "name": "reportBadActor",
      "outputs": [],
      "stateMutability": "nonpayable",
      "type": "function"
    },
    {
      "inputs": [
        {
          "internalType": "address",
          "name": "_addr",
          "type": "address"
        }
      ],
      "name": "reportGoodActor",
      "outputs": [],
      "stateMutability": "payable",
      "type": "function",
      "payable": true
    },
    {
      "inputs": [
        {
          "internalType": "string",
          "name": "_gpsLat",
          "type": "string"
        },
        {
          "internalType": "string",
          "name": "_gpsLon",
          "type": "string"
        },
        {
          "internalType": "string",
          "name": "_nickname",
          "type": "string"
        }
      ],
      "name": "AddToWhitelist",
      "outputs": [],
      "stateMutability": "nonpayable",
      "type": "function"
    },
    {
      "inputs": [
        {
          "internalType": "bytes",
          "name": "signature",
          "type": "bytes"
        },
        {
          "internalType": "string",
          "name": "_gpsLat",
          "type": "string"
        },
        {
          "internalType": "string",
          "name": "_gpsLon",
          "type": "string"
        },
        {
          "internalType": "string",
          "name": "_nickname",
          "type": "string"
        }
      ],
      "name": "addToWhitelist_a7I",
      "outputs": [],
      "stateMutability": "nonpayable",
      "type": "function"
    },
    {
      "inputs": [],
      "name": "SliceMinting",
      "outputs": [],
      "stateMutability": "nonpayable",
      "type": "function"
    },
    {
      "inputs": [],
      "name": "AdminLongTermReward",
      "outputs": [],
      "stateMutability": "nonpayable",
      "type": "function"
    },
    {
      "inputs": [],
      "name": "vSliceMinting_ExW",
      "outputs": [],
      "stateMutability": "nonpayable",
      "type": "function"
    },
    {
      "inputs": [
        {
          "internalType": "uint256",
          "name": "_amount",
          "type": "uint256"
        },
        {
          "internalType": "address",
          "name": "_addr",
          "type": "address"
        }
      ],
      "name": "stakeVSlice_h56",
      "outputs": [],
      "stateMutability": "nonpayable",
      "type": "function"
    },
    {
      "inputs": [
        {
          "internalType": "uint256",
          "name": "_amount",
          "type": "uint256"
        },
        {
          "internalType": "address",
          "name": "_addr",
          "type": "address"
        }
      ],
      "name": "unstakeVSlice_Hha",
      "outputs": [],
      "stateMutability": "nonpayable",
      "type": "function"
    },
    {
      "inputs": [
        {
          "internalType": "address",
          "name": "_owner",
          "type": "address"
        }
      ],
      "name": "getStakedByStaker",
      "outputs": [
        {
          "components": [
            {
              "internalType": "address",
              "name": "staker",
              "type": "address"
            },
            {
              "internalType": "address",
              "name": "fightContract",
              "type": "address"
            }
          ],
          "internalType": "struct slice.StakedContracts[]",
          "name": "",
          "type": "tuple[]"
        }
      ],
      "stateMutability": "view",
      "type": "function",
      "constant": true
    },
    {
      "inputs": [
        {
          "internalType": "address",
          "name": "_fight",
          "type": "address"
        }
      ],
      "name": "getStakedByFight",
      "outputs": [
        {
          "components": [
            {
              "internalType": "address",
              "name": "staker",
              "type": "address"
            },
            {
              "internalType": "address",
              "name": "fightContract",
              "type": "address"
            }
          ],
          "internalType": "struct slice.StakedContracts[]",
          "name": "",
          "type": "tuple[]"
        }
      ],
      "stateMutability": "view",
      "type": "function",
      "constant": true
    },
    {
      "inputs": [],
      "name": "getAllMinters",
      "outputs": [
        {
          "components": [
            {
              "internalType": "uint256",
              "name": "goodCount",
              "type": "uint256"
            },
            {
              "internalType": "uint256",
              "name": "reported",
              "type": "uint256"
            },
            {
              "internalType": "uint256",
              "name": "lastMinted",
              "type": "uint256"
            },
            {
              "internalType": "string",
              "name": "gpsLat",
              "type": "string"
            },
            {
              "internalType": "string",
              "name": "gpsLon",
              "type": "string"
            },
            {
              "internalType": "string",
              "name": "nickname",
              "type": "string"
            },
            {
              "internalType": "bool",
              "name": "whitelisted",
              "type": "bool"
            },
            {
              "internalType": "address",
              "name": "addr",
              "type": "address"
            }
          ],
          "internalType": "struct slice.Minters[]",
          "name": "",
          "type": "tuple[]"
        }
      ],
      "stateMutability": "view",
      "type": "function",
      "constant": true
    },
    {
      "inputs": [
        {
          "internalType": "address",
          "name": "_addr",
          "type": "address"
        }
      ],
      "name": "getUserFromBlackList",
      "outputs": [
        {
          "internalType": "bool",
          "name": "",
          "type": "bool"
        }
      ],
      "stateMutability": "view",
      "type": "function",
      "constant": true
    },
    {
      "inputs": [
        {
          "internalType": "address",
          "name": "_addr",
          "type": "address"
        }
      ],
      "name": "getMinter",
      "outputs": [
        {
          "internalType": "uint256",
          "name": "",
          "type": "uint256"
        },
        {
          "internalType": "uint256",
          "name": "",
          "type": "uint256"
        },
        {
          "internalType": "uint256",
          "name": "",
          "type": "uint256"
        },
        {
          "internalType": "string",
          "name": "",
          "type": "string"
        },
        {
          "internalType": "string",
          "name": "",
          "type": "string"
        },
        {
          "internalType": "string",
          "name": "",
          "type": "string"
        },
        {
          "internalType": "bool",
          "name": "",
          "type": "bool"
        },
        {
          "internalType": "address",
          "name": "",
          "type": "address"
        }
      ],
      "stateMutability": "view",
      "type": "function",
      "constant": true
    },
    {
      "inputs": [],
      "name": "getMintingSpeed",
      "outputs": [
        {
          "internalType": "uint256",
          "name": "",
          "type": "uint256"
        }
      ],
      "stateMutability": "view",
      "type": "function",
      "constant": true
    },
    {
      "inputs": [
        {
          "internalType": "address",
          "name": "newAdmin",
          "type": "address"
        }
      ],
      "name": "updateAdmin",
      "outputs": [],
      "stateMutability": "nonpayable",
      "type": "function"
    },
    {
      "inputs": [
        {
          "internalType": "address",
          "name": "_newSigner",
          "type": "address"
        }
      ],
      "name": "updateSigner",
      "outputs": [],
      "stateMutability": "nonpayable",
      "type": "function"
    },
    {
      "inputs": [
        {
          "internalType": "address",
          "name": "_addr",
          "type": "address"
        }
      ],
      "name": "addToBlacklist",
      "outputs": [],
      "stateMutability": "nonpayable",
      "type": "function"
    },
    {
      "inputs": [
        {
          "internalType": "address",
          "name": "_addr",
          "type": "address"
        }
      ],
      "name": "removeFromBlacklist",
      "outputs": [],
      "stateMutability": "nonpayable",
      "type": "function"
    },
    {
      "inputs": [
        {
          "internalType": "address",
          "name": "_addr",
          "type": "address"
        }
      ],
      "name": "vSliceViewBalance",
      "outputs": [
        {
          "internalType": "uint256",
          "name": "",
          "type": "uint256"
        }
      ],
      "stateMutability": "view",
      "type": "function",
      "constant": true
    },
    {
      "inputs": [],
      "name": "getStakedBalance",
      "outputs": [
        {
          "internalType": "uint256",
          "name": "",
          "type": "uint256"
        }
      ],
      "stateMutability": "view",
      "type": "function",
      "constant": true
    },
    {
      "inputs": [],
      "name": "getStart",
      "outputs": [
        {
          "internalType": "uint256",
          "name": "",
          "type": "uint256"
        }
      ],
      "stateMutability": "view",
      "type": "function",
      "constant": true
    },
    {
      "inputs": [
        {
          "internalType": "uint256",
          "name": "_p",
          "type": "uint256"
        }
      ],
      "name": "setGoodP",
      "outputs": [],
      "stateMutability": "nonpayable",
      "type": "function"
    },
    {
      "inputs": [],
      "name": "getGoodP",
      "outputs": [
        {
          "internalType": "uint256",
          "name": "",
          "type": "uint256"
        }
      ],
      "stateMutability": "view",
      "type": "function",
      "constant": true
    },
    {
      "inputs": [
        {
          "internalType": "uint256",
          "name": "_count",
          "type": "uint256"
        }
      ],
      "name": "updateWenBlock",
      "outputs": [],
      "stateMutability": "nonpayable",
      "type": "function"
    },
    {
      "inputs": [],
      "name": "countMinters",
      "outputs": [
        {
          "internalType": "uint256",
          "name": "",
          "type": "uint256"
        }
      ],
      "stateMutability": "view",
      "type": "function",
      "constant": true
    },
    {
      "inputs": [
        {
          "internalType": "uint256",
          "name": "_count",
          "type": "uint256"
        }
      ],
      "name": "updateMaxGoodCount",
      "outputs": [],
      "stateMutability": "nonpayable",
      "type": "function"
    },
    {
      "inputs": [],
      "name": "sliceParams",
      "outputs": [
        {
          "internalType": "uint256",
          "name": "",
          "type": "uint256"
        },
        {
          "internalType": "uint256",
          "name": "",
          "type": "uint256"
        },
        {
          "internalType": "uint256",
          "name": "",
          "type": "uint256"
        },
        {
          "internalType": "uint256",
          "name": "",
          "type": "uint256"
        },
        {
          "internalType": "uint256",
          "name": "",
          "type": "uint256"
        },
        {
          "internalType": "uint256",
          "name": "",
          "type": "uint256"
        },
        {
          "internalType": "address",
          "name": "",
          "type": "address"
        },
        {
          "internalType": "uint256",
          "name": "",
          "type": "uint256"
        }
      ],
      "stateMutability": "view",
      "type": "function",
      "constant": true
    },
    {
      "inputs": [
        {
          "internalType": "address",
          "name": "_to",
          "type": "address"
        },
        {
          "internalType": "string",
          "name": "message",
          "type": "string"
        }
      ],
      "name": "sendMessage",
      "outputs": [],
      "stateMutability": "nonpayable",
      "type": "function"
    },
    {
      "inputs": [],
      "name": "reputation",
      "outputs": [],
      "stateMutability": "nonpayable",
      "type": "function"
    }
  ],
  "bytecode": "0x60806040523480156200001157600080fd5b5060405162006626380380620066268339818101604052810190620000379190620003e3565b818181600390805190602001906200005192919062000196565b5080600490805190602001906200006a92919062000196565b50505042600581905550620000846200018d60201b60201c565b60ff16600a620000959190620005f5565b6465fad59c00620000a7919062000646565b60068190555033600860006101000a81548173ffffffffffffffffffffffffffffffffffffffff021916908373ffffffffffffffffffffffffffffffffffffffff16021790555073d6af7959290caee9e8564ec80a33b92335d6232c600960006101000a81548173ffffffffffffffffffffffffffffffffffffffff021916908373ffffffffffffffffffffffffffffffffffffffff1602179055506002600a819055506001600b81905550610e10600c81905550662386f26fc10000600d819055506000600e60006101000a81548160ff02191690831515021790555050506200070c565b60006012905090565b828054620001a490620006d6565b90600052602060002090601f016020900481019282620001c8576000855562000214565b82601f10620001e357805160ff191683800117855562000214565b8280016001018555821562000214579182015b8281111562000213578251825591602001919060010190620001f6565b5b50905062000223919062000227565b5090565b5b808211156200024257600081600090555060010162000228565b5090565b6000604051905090565b600080fd5b600080fd5b600080fd5b600080fd5b6000601f19601f8301169050919050565b7f4e487b7100000000000000000000000000000000000000000000000000000000600052604160045260246000fd5b620002af8262000264565b810181811067ffffffffffffffff82111715620002d157620002d062000275565b5b80604052505050565b6000620002e662000246565b9050620002f48282620002a4565b919050565b600067ffffffffffffffff82111562000317576200031662000275565b5b620003228262000264565b9050602081019050919050565b60005b838110156200034f57808201518184015260208101905062000332565b838111156200035f576000848401525b50505050565b60006200037c6200037684620002f9565b620002da565b9050828152602081018484840111156200039b576200039a6200025f565b5b620003a88482856200032f565b509392505050565b600082601f830112620003c857620003c76200025a565b5b8151620003da84826020860162000365565b91505092915050565b60008060408385031215620003fd57620003fc62000250565b5b600083015167ffffffffffffffff8111156200041e576200041d62000255565b5b6200042c85828601620003b0565b925050602083015167ffffffffffffffff81111562000450576200044f62000255565b5b6200045e85828601620003b0565b9150509250929050565b7f4e487b7100000000000000000000000000000000000000000000000000000000600052601160045260246000fd5b60008160011c9050919050565b6000808291508390505b6001851115620004f657808604811115620004ce57620004cd62000468565b5b6001851615620004de5780820291505b8081029050620004ee8562000497565b9450620004ae565b94509492505050565b600082620005115760019050620005e4565b81620005215760009050620005e4565b81600181146200053a576002811462000545576200057b565b6001915050620005e4565b60ff8411156200055a576200055962000468565b5b8360020a91508482111562000574576200057362000468565b5b50620005e4565b5060208310610133831016604e8410600b8410161715620005b55782820a905083811115620005af57620005ae62000468565b5b620005e4565b620005c48484846001620004a4565b92509050818404811115620005de57620005dd62000468565b5b81810290505b9392505050565b6000819050919050565b60006200060282620005eb565b91506200060f83620005eb565b92506200063e7fffffffffffffffffffffffffffffffffffffffffffffffffffffffffffffffff8484620004ff565b905092915050565b60006200065382620005eb565b91506200066083620005eb565b9250817fffffffffffffffffffffffffffffffffffffffffffffffffffffffffffffffff04831182151516156200069c576200069b62000468565b5b828202905092915050565b7f4e487b7100000000000000000000000000000000000000000000000000000000600052602260045260246000fd5b60006002820490506001821680620006ef57607f821691505b60208210811415620007065762000705620006a7565b5b50919050565b615f0a806200071c6000396000f3fe60806040526004361061025a5760003560e01c8063a7ecd37e11610144578063ca6ad40c116100b6578063ddc14afe1161007a578063ddc14afe1461092f578063de6f24bb1461095a578063e2f273bd14610983578063e3917cfc146109ac578063ec169af9146109e9578063f10249b314610a005761025a565b8063ca6ad40c1461084c578063d4f4648f14610877578063d517c931146108a0578063d5c0f1fb146108c9578063dd62ed3e146108f25761025a565b8063c1354b5a11610108578063c1354b5a1461073e578063c27bd3ee14610767578063c3c5a54714610790578063c52164c6146107cd578063c5292c67146107e4578063c5531e0a1461080f5761025a565b8063a7ecd37e14610661578063a9059cbb1461068a578063b1098137146106c7578063b14cc0e0146106e3578063bc73b641146106fa5761025a565b806344337ea1116101dd57806376965867116101a1578063769658671461053d5780638891b29e1461056857806395d89b41146105a5578063a045442c146105d0578063a412a69e146105fb578063a457c2d7146106245761025a565b806344337ea114610453578063537df3b61461047c5780635fbb7093146104a557806361d42f6b146104d757806370a08231146105005761025a565b806326c95e0a1161022457806326c95e0a146103465780632fee9e7e14610371578063313ce567146103ae57806335703a3a146103d957806339509351146104165761025a565b8061d5981461025f57806306fdde0314610276578063095ea7b3146102a157806318160ddd146102de57806323b872dd14610309575b600080fd5b34801561026b57600080fd5b50610274610a29565b005b34801561028257600080fd5b5061028b610c89565b604051610298919061441f565b60405180910390f35b3480156102ad57600080fd5b506102c860048036038101906102c391906144e9565b610d1b565b6040516102d59190614544565b60405180910390f35b3480156102ea57600080fd5b506102f3610d39565b604051610300919061456e565b60405180910390f35b34801561031557600080fd5b50610330600480360381019061032b9190614589565b610d43565b60405161033d9190614544565b60405180910390f35b34801561035257600080fd5b5061035b610e3b565b604051610368919061456e565b60405180910390f35b34801561037d57600080fd5b50610398600480360381019061039391906145dc565b610e45565b6040516103a59190614544565b60405180910390f35b3480156103ba57600080fd5b506103c3610e9b565b6040516103d09190614625565b60405180910390f35b3480156103e557600080fd5b5061040060048036038101906103fb91906145dc565b610ea4565b60405161040d919061456e565b60405180910390f35b34801561042257600080fd5b5061043d600480360381019061043891906144e9565b610ef5565b60405161044a9190614544565b60405180910390f35b34801561045f57600080fd5b5061047a600480360381019061047591906145dc565b610fa1565b005b34801561048857600080fd5b506104a3600480360381019061049e91906145dc565b611004565b005b3480156104b157600080fd5b506104ba611067565b6040516104ce98979695949392919061464f565b60405180910390f35b3480156104e357600080fd5b506104fe60048036038101906104f991906146cd565b611124565b005b34801561050c57600080fd5b50610527600480360381019061052291906145dc565b611351565b604051610534919061456e565b60405180910390f35b34801561054957600080fd5b50610552611399565b60405161055f919061456e565b60405180910390f35b34801561057457600080fd5b5061058f600480360381019061058a91906145dc565b6113e0565b60405161059c91906147fa565b60405180910390f35b3480156105b157600080fd5b506105ba611635565b6040516105c7919061441f565b60405180910390f35b3480156105dc57600080fd5b506105e56116c7565b6040516105f29190614a04565b60405180910390f35b34801561060757600080fd5b50610622600480360381019061061d9190614bbb565b6119e8565b005b34801561063057600080fd5b5061064b600480360381019061064691906144e9565b611dab565b6040516106589190614544565b60405180910390f35b34801561066d57600080fd5b50610688600480360381019061068391906145dc565b611e96565b005b34801561069657600080fd5b506106b160048036038101906106ac91906144e9565b611ee2565b6040516106be9190614544565b60405180910390f35b6106e160048036038101906106dc91906145dc565b611f00565b005b3480156106ef57600080fd5b506106f8612448565b005b34801561070657600080fd5b50610721600480360381019061071c91906145dc565b61252d565b604051610735989796959493929190614c97565b60405180910390f35b34801561074a57600080fd5b5061076560048036038101906107609190614d2a565b6127b7565b005b34801561077357600080fd5b5061078e60048036038101906107899190614dd1565b612ae3565b005b34801561079c57600080fd5b506107b760048036038101906107b291906145dc565b612af5565b6040516107c4919061456e565b60405180910390f35b3480156107d957600080fd5b506107e2612b3e565b005b3480156107f057600080fd5b506107f9612c5d565b604051610806919061456e565b60405180910390f35b34801561081b57600080fd5b50610836600480360381019061083191906145dc565b612c67565b6040516108439190614544565b60405180910390f35b34801561085857600080fd5b50610861612cbd565b60405161086e919061456e565b60405180910390f35b34801561088357600080fd5b5061089e600480360381019061089991906146cd565b612cca565b005b3480156108ac57600080fd5b506108c760048036038101906108c29190614dd1565b613174565b005b3480156108d557600080fd5b506108f060048036038101906108eb91906145dc565b613186565b005b3480156108fe57600080fd5b5061091960048036038101906109149190614dfe565b613522565b604051610926919061456e565b60405180910390f35b34801561093b57600080fd5b506109446135a9565b604051610951919061456e565b60405180910390f35b34801561096657600080fd5b50610981600480360381019061097c9190614e94565b6135b3565b005b34801561098f57600080fd5b506109aa60048036038101906109a591906145dc565b61361f565b005b3480156109b857600080fd5b506109d360048036038101906109ce91906145dc565b61366b565b6040516109e091906147fa565b60405180910390f35b3480156109f557600080fd5b506109fe6138c0565b005b348015610a0c57600080fd5b50610a276004803603810190610a229190614dd1565b6139cc565b005b610a316139de565b6006546007541115610a78576040517f08c379a0000000000000000000000000000000000000000000000000000000008152600401610a6f90614f40565b60405180910390fd5b6000601160003373ffffffffffffffffffffffffffffffffffffffff1673ffffffffffffffffffffffffffffffffffffffff1681526020019081526020016000205490506000600f8281548110610ad257610ad1614f60565b5b90600052602060002090600702019050600080600083600201541415610bba57610afa610e9b565b60ff16600a610b0991906150f1565b60055442610b17919061513c565b610b219190615170565b9150600c5482610b3191906151f9565b601560003373ffffffffffffffffffffffffffffffffffffffff1673ffffffffffffffffffffffffffffffffffffffff1681526020019081526020016000206000828254610b7f919061522a565b92505081905550428360020181905550600c5482610b9d91906151f9565b60076000828254610bae919061522a565b92505081905550610c83565b826002015442610bca919061513c565b9050610bd4610e9b565b60ff16600a610be391906150f1565b81610bee9190615170565b9150600c5482610bfe91906151f9565b601560003373ffffffffffffffffffffffffffffffffffffffff1673ffffffffffffffffffffffffffffffffffffffff1681526020019081526020016000206000828254610c4c919061522a565b92505081905550428360020181905550600c5482610c6a91906151f9565b60076000828254610c7b919061522a565b925050819055505b50505050565b606060038054610c98906152af565b80601f0160208091040260200160405190810160405280929190818152602001828054610cc4906152af565b8015610d115780601f10610ce657610100808354040283529160200191610d11565b820191906000526020600020905b815481529060010190602001808311610cf457829003601f168201915b5050505050905090565b6000610d2f610d28613a73565b8484613a7b565b6001905092915050565b6000600254905090565b6000610d50848484613c46565b6000600160008673ffffffffffffffffffffffffffffffffffffffff1673ffffffffffffffffffffffffffffffffffffffff1681526020019081526020016000206000610d9b613a73565b73ffffffffffffffffffffffffffffffffffffffff1673ffffffffffffffffffffffffffffffffffffffff16815260200190815260200160002054905082811015610e1b576040517f08c379a0000000000000000000000000000000000000000000000000000000008152600401610e1290615353565b60405180910390fd5b610e2f85610e27613a73565b858403613a7b565b60019150509392505050565b6000600d54905090565b6000601860008373ffffffffffffffffffffffffffffffffffffffff1673ffffffffffffffffffffffffffffffffffffffff16815260200190815260200160002060009054906101000a900460ff169050919050565b60006012905090565b6000610eae613ec7565b601560008373ffffffffffffffffffffffffffffffffffffffff1673ffffffffffffffffffffffffffffffffffffffff168152602001908152602001600020549050919050565b6000610f97610f02613a73565b848460016000610f10613a73565b73ffffffffffffffffffffffffffffffffffffffff1673ffffffffffffffffffffffffffffffffffffffff16815260200190815260200160002060008873ffffffffffffffffffffffffffffffffffffffff1673ffffffffffffffffffffffffffffffffffffffff16815260200190815260200160002054610f92919061522a565b613a7b565b6001905092915050565b610fa9613f5c565b6001601760008373ffffffffffffffffffffffffffffffffffffffff1673ffffffffffffffffffffffffffffffffffffffff16815260200190815260200160002060006101000a81548160ff02191690831515021790555050565b61100c613f5c565b6000601760008373ffffffffffffffffffffffffffffffffffffffff1673ffffffffffffffffffffffffffffffffffffffff16815260200190815260200160002060006101000a81548160ff02191690831515021790555050565b600080600080600080600080600754600654600a54600b54600c54600d54600960009054906101000a900473ffffffffffffffffffffffffffffffffffffffff16601b6000600860009054906101000a900473ffffffffffffffffffffffffffffffffffffffff1673ffffffffffffffffffffffffffffffffffffffff1673ffffffffffffffffffffffffffffffffffffffff16815260200190815260200160002054975097509750975097509750975097509091929394959697565b61112c613ec7565b6000601160008373ffffffffffffffffffffffffffffffffffffffff1673ffffffffffffffffffffffffffffffffffffffff1681526020019081526020016000205490506000600f828154811061118657611185614f60565b5b9060005260206000209060070201905083601660008573ffffffffffffffffffffffffffffffffffffffff1673ffffffffffffffffffffffffffffffffffffffff16815260200190815260200160002054101580156111fb5750600015158160060160009054906101000a900460ff16151514155b61123a576040517f08c379a0000000000000000000000000000000000000000000000000000000008152600401611231906153bf565b60405180910390fd5b83601660008573ffffffffffffffffffffffffffffffffffffffff1673ffffffffffffffffffffffffffffffffffffffff1681526020019081526020016000206000828254611289919061513c565b9250508190555083601560008573ffffffffffffffffffffffffffffffffffffffff1673ffffffffffffffffffffffffffffffffffffffff16815260200190815260200160002060008282546112df919061522a565b925050819055508273ffffffffffffffffffffffffffffffffffffffff163373ffffffffffffffffffffffffffffffffffffffff167f5d0ff203cfdf2054bf57a387422c2ba70dbe7f81133ff55fffd141c09e07cb3742604051611343919061456e565b60405180910390a350505050565b60008060008373ffffffffffffffffffffffffffffffffffffffff1673ffffffffffffffffffffffffffffffffffffffff168152602001908152602001600020549050919050565b6000601660003373ffffffffffffffffffffffffffffffffffffffff1673ffffffffffffffffffffffffffffffffffffffff16815260200190815260200160002054905090565b60606113ea613ec7565b6000601460008473ffffffffffffffffffffffffffffffffffffffff1673ffffffffffffffffffffffffffffffffffffffff1681526020019081526020016000205467ffffffffffffffff81111561144557611444614a90565b5b60405190808252806020026020018201604052801561147e57816020015b61146b614240565b8152602001906001900390816114635790505b5090506000805b60128054905081101561162a578473ffffffffffffffffffffffffffffffffffffffff16601282815481106114bd576114bc614f60565b5b906000526020600020906002020160010160009054906101000a900473ffffffffffffffffffffffffffffffffffffffff1673ffffffffffffffffffffffffffffffffffffffff1614156116175760006012828154811061152157611520614f60565b5b90600052602060002090600202019050806040518060400160405290816000820160009054906101000a900473ffffffffffffffffffffffffffffffffffffffff1673ffffffffffffffffffffffffffffffffffffffff1673ffffffffffffffffffffffffffffffffffffffff1681526020016001820160009054906101000a900473ffffffffffffffffffffffffffffffffffffffff1673ffffffffffffffffffffffffffffffffffffffff1673ffffffffffffffffffffffffffffffffffffffff16815250508484815181106115fc576115fb614f60565b5b60200260200101819052508280611612906153df565b935050505b8080611622906153df565b915050611485565b508192505050919050565b606060048054611644906152af565b80601f0160208091040260200160405190810160405280929190818152602001828054611670906152af565b80156116bd5780601f10611692576101008083540402835291602001916116bd565b820191906000526020600020905b8154815290600101906020018083116116a057829003601f168201915b5050505050905090565b60606000600f8054905067ffffffffffffffff8111156116ea576116e9614a90565b5b60405190808252806020026020018201604052801561172357816020015b611710614286565b8152602001906001900390816117085790505b50905060005b600f805490508110156119e0576000600f828154811061174c5761174b614f60565b5b906000526020600020906007020190508060405180610100016040529081600082015481526020016001820154815260200160028201548152602001600382018054611797906152af565b80601f01602080910402602001604051908101604052809291908181526020018280546117c3906152af565b80156118105780601f106117e557610100808354040283529160200191611810565b820191906000526020600020905b8154815290600101906020018083116117f357829003601f168201915b50505050508152602001600482018054611829906152af565b80601f0160208091040260200160405190810160405280929190818152602001828054611855906152af565b80156118a25780601f10611877576101008083540402835291602001916118a2565b820191906000526020600020905b81548152906001019060200180831161188557829003601f168201915b505050505081526020016005820180546118bb906152af565b80601f01602080910402602001604051908101604052809291908181526020018280546118e7906152af565b80156119345780601f1061190957610100808354040283529160200191611934565b820191906000526020600020905b81548152906001019060200180831161191757829003601f168201915b505050505081526020016006820160009054906101000a900460ff161515151581526020016006820160019054906101000a900473ffffffffffffffffffffffffffffffffffffffff1673ffffffffffffffffffffffffffffffffffffffff1673ffffffffffffffffffffffffffffffffffffffff16815250508383815181106119c1576119c0614f60565b5b60200260200101819052505080806119d8906153df565b915050611729565b508091505090565b6000611a19336040516020016119fe9190615470565b60405160208183030381529060405280519060200120613fee565b9050600960009054906101000a900473ffffffffffffffffffffffffffffffffffffffff1673ffffffffffffffffffffffffffffffffffffffff16611aa28288888080601f016020809104026020016040519081016040528093929190818152602001838380828437600081840152601f19601f8201169050808301925050505050505061401e565b73ffffffffffffffffffffffffffffffffffffffff16148015611b0457506000601160003373ffffffffffffffffffffffffffffffffffffffff1673ffffffffffffffffffffffffffffffffffffffff16815260200190815260200160002054145b611b43576040517f08c379a0000000000000000000000000000000000000000000000000000000008152600401611b3a906154d7565b60405180910390fd5b600f6040518061010001604052806000815260200160008152602001600081526020018681526020018581526020018481526020016001151581526020013373ffffffffffffffffffffffffffffffffffffffff1681525090806001815401808255809150506001900390600052602060002090600702016000909190919091506000820151816000015560208201518160010155604082015181600201556060820151816003019080519060200190611bfe9291906142e3565b506080820151816004019080519060200190611c1b9291906142e3565b5060a0820151816005019080519060200190611c389291906142e3565b5060c08201518160060160006101000a81548160ff02191690831515021790555060e08201518160060160016101000a81548173ffffffffffffffffffffffffffffffffffffffff021916908373ffffffffffffffffffffffffffffffffffffffff16021790555050506001600f80549050611cb4919061513c565b601160003373ffffffffffffffffffffffffffffffffffffffff1673ffffffffffffffffffffffffffffffffffffffff168152602001908152602001600020819055506001601860003373ffffffffffffffffffffffffffffffffffffffff1673ffffffffffffffffffffffffffffffffffffffff16815260200190815260200160002060006101000a81548160ff0219169083151502179055503373ffffffffffffffffffffffffffffffffffffffff167f529fc32b54e6dd32e4b333dc98403668fe1355a18f3fe4f2468a2144f19e892f42868686604051611d9b94939291906154f7565b60405180910390a2505050505050565b60008060016000611dba613a73565b73ffffffffffffffffffffffffffffffffffffffff1673ffffffffffffffffffffffffffffffffffffffff16815260200190815260200160002060008573ffffffffffffffffffffffffffffffffffffffff1673ffffffffffffffffffffffffffffffffffffffff16815260200190815260200160002054905082811015611e77576040517f08c379a0000000000000000000000000000000000000000000000000000000008152600401611e6e906155c3565b60405180910390fd5b611e8b611e82613a73565b85858403613a7b565b600191505092915050565b611e9e613f5c565b80600960006101000a81548173ffffffffffffffffffffffffffffffffffffffff021916908373ffffffffffffffffffffffffffffffffffffffff16021790555050565b6000611ef6611eef613a73565b8484613c46565b6001905092915050565b611f086139de565b6000601160008373ffffffffffffffffffffffffffffffffffffffff1673ffffffffffffffffffffffffffffffffffffffff1681526020019081526020016000205490506000600f8281548110611f6257611f61614f60565b5b906000526020600020906007020190508273ffffffffffffffffffffffffffffffffffffffff163373ffffffffffffffffffffffffffffffffffffffff161415611fe1576040517f08c379a0000000000000000000000000000000000000000000000000000000008152600401611fd89061562f565b60405180910390fd5b8273ffffffffffffffffffffffffffffffffffffffff16601960003373ffffffffffffffffffffffffffffffffffffffff1673ffffffffffffffffffffffffffffffffffffffff16815260200190815260200160002060008573ffffffffffffffffffffffffffffffffffffffff1673ffffffffffffffffffffffffffffffffffffffff16815260200190815260200160002060009054906101000a900473ffffffffffffffffffffffffffffffffffffffff1673ffffffffffffffffffffffffffffffffffffffff1614156120ec576040517f08c379a00000000000000000000000000000000000000000000000000000000081526004016120e39061569b565b60405180910390fd5b600b54816000015410612134576040517f08c379a000000000000000000000000000000000000000000000000000000000815260040161212b90615707565b60405180910390fd5b600081600101541161217b576040517f08c379a000000000000000000000000000000000000000000000000000000000815260040161217290615773565b60405180910390fd5b600d5434146121b6576040517f8a0d377900000000000000000000000000000000000000000000000000000000815260040160405180910390fd5b600d54601b6000600860009054906101000a900473ffffffffffffffffffffffffffffffffffffffff1673ffffffffffffffffffffffffffffffffffffffff1673ffffffffffffffffffffffffffffffffffffffff1681526020019081526020016000206000828254612229919061522a565b9250508190555082601960003373ffffffffffffffffffffffffffffffffffffffff1673ffffffffffffffffffffffffffffffffffffffff16815260200190815260200160002060008573ffffffffffffffffffffffffffffffffffffffff1673ffffffffffffffffffffffffffffffffffffffff16815260200190815260200160002060006101000a81548173ffffffffffffffffffffffffffffffffffffffff021916908373ffffffffffffffffffffffffffffffffffffffff1602179055506001816001016000828254612300919061513c565b92505081905550600181600001600082825461231c919061522a565b92505081905550600a548160010154106123685760008160060160009054906101000a900460ff169050808260060160006101000a81548160ff021916908315150217905550506123de565b60018160060160006101000a81548160ff0219169083151502179055506001601860008573ffffffffffffffffffffffffffffffffffffffff1673ffffffffffffffffffffffffffffffffffffffff16815260200190815260200160002060006101000a81548160ff0219169083151502179055505b8273ffffffffffffffffffffffffffffffffffffffff163373ffffffffffffffffffffffffffffffffffffffff167f11c9a04d40e079b6a6add720dd7c0a8ae1776acefdca6f37f4046c709a4dffcf4260405161243b919061456e565b60405180910390a3505050565b6124506139de565b6006546007541015612497576040517f08c379a000000000000000000000000000000000000000000000000000000000815260040161248e906157df565b60405180910390fd5b6000601560003373ffffffffffffffffffffffffffffffffffffffff1673ffffffffffffffffffffffffffffffffffffffff1681526020019081526020016000205490506000601560003373ffffffffffffffffffffffffffffffffffffffff1673ffffffffffffffffffffffffffffffffffffffff1681526020019081526020016000208190555061252a3382614093565b50565b600080600060608060606000806000601160008b73ffffffffffffffffffffffffffffffffffffffff1673ffffffffffffffffffffffffffffffffffffffff1681526020019081526020016000205490506000600f828154811061259457612593614f60565b5b906000526020600020906007020190508060000154816001015482600201548360030184600401856005018660060160009054906101000a900460ff168760060160019054906101000a900473ffffffffffffffffffffffffffffffffffffffff16848054612602906152af565b80601f016020809104026020016040519081016040528092919081815260200182805461262e906152af565b801561267b5780601f106126505761010080835404028352916020019161267b565b820191906000526020600020905b81548152906001019060200180831161265e57829003601f168201915b5050505050945083805461268e906152af565b80601f01602080910402602001604051908101604052809291908181526020018280546126ba906152af565b80156127075780601f106126dc57610100808354040283529160200191612707565b820191906000526020600020905b8154815290600101906020018083116126ea57829003601f168201915b5050505050935082805461271a906152af565b80601f0160208091040260200160405190810160405280929190818152602001828054612746906152af565b80156127935780601f1061276857610100808354040283529160200191612793565b820191906000526020600020905b81548152906001019060200180831161277657829003601f168201915b50505050509250995099509950995099509950995099505050919395975091939597565b60065460075410156127fe576040517f08c379a00000000000000000000000000000000000000000000000000000000081526004016127f590615825565b60405180910390fd5b6000601160003373ffffffffffffffffffffffffffffffffffffffff1673ffffffffffffffffffffffffffffffffffffffff1681526020019081526020016000205414612880576040517f08c379a000000000000000000000000000000000000000000000000000000000815260040161287790615825565b60405180910390fd5b600f6040518061010001604052806000815260200160008152602001600081526020018581526020018481526020018381526020016001151581526020013373ffffffffffffffffffffffffffffffffffffffff168152509080600181540180825580915050600190039060005260206000209060070201600090919091909150600082015181600001556020820151816001015560408201518160020155606082015181600301908051906020019061293b9291906142e3565b5060808201518160040190805190602001906129589291906142e3565b5060a08201518160050190805190602001906129759291906142e3565b5060c08201518160060160006101000a81548160ff02191690831515021790555060e08201518160060160016101000a81548173ffffffffffffffffffffffffffffffffffffffff021916908373ffffffffffffffffffffffffffffffffffffffff16021790555050506001600f805490506129f1919061513c565b601160003373ffffffffffffffffffffffffffffffffffffffff1673ffffffffffffffffffffffffffffffffffffffff168152602001908152602001600020819055506001601860003373ffffffffffffffffffffffffffffffffffffffff1673ffffffffffffffffffffffffffffffffffffffff16815260200190815260200160002060006101000a81548160ff0219169083151502179055503373ffffffffffffffffffffffffffffffffffffffff167f07acefbc52945a41d46c17d9c5b0bdba3b6d33f6a99fe6d079ba42587b7d3423848484604051612ad693929190615845565b60405180910390a2505050565b612aeb613f5c565b80600b8190555050565b6000601160008373ffffffffffffffffffffffffffffffffffffffff1673ffffffffffffffffffffffffffffffffffffffff168152602001908152602001600020549050919050565b612b46613f5c565b6000601b6000600860009054906101000a900473ffffffffffffffffffffffffffffffffffffffff1673ffffffffffffffffffffffffffffffffffffffff1673ffffffffffffffffffffffffffffffffffffffff1681526020019081526020016000205490506000601b6000600860009054906101000a900473ffffffffffffffffffffffffffffffffffffffff1673ffffffffffffffffffffffffffffffffffffffff1673ffffffffffffffffffffffffffffffffffffffff168152602001908152602001600020819055503373ffffffffffffffffffffffffffffffffffffffff166108fc829081150290604051600060405180830381858888f19350505050158015612c59573d6000803e3d6000fd5b5050565b6000600554905090565b6000601760008373ffffffffffffffffffffffffffffffffffffffff1673ffffffffffffffffffffffffffffffffffffffff16815260200190815260200160002060009054906101000a900460ff169050919050565b6000600f80549050905090565b612cd2613ec7565b6000601160008373ffffffffffffffffffffffffffffffffffffffff1673ffffffffffffffffffffffffffffffffffffffff1681526020019081526020016000205490506000600f8281548110612d2c57612d2b614f60565b5b9060005260206000209060070201905083601560008573ffffffffffffffffffffffffffffffffffffffff1673ffffffffffffffffffffffffffffffffffffffff1681526020019081526020016000205410158015612da15750600015158160060160009054906101000a900460ff16151514155b612de0576040517f08c379a0000000000000000000000000000000000000000000000000000000008152600401612dd7906153bf565b60405180910390fd5b83601660008573ffffffffffffffffffffffffffffffffffffffff1673ffffffffffffffffffffffffffffffffffffffff1681526020019081526020016000206000828254612e2f919061522a565b9250508190555083601560008573ffffffffffffffffffffffffffffffffffffffff1673ffffffffffffffffffffffffffffffffffffffff1681526020019081526020016000206000828254612e85919061513c565b9250508190555060001515601a60008573ffffffffffffffffffffffffffffffffffffffff1673ffffffffffffffffffffffffffffffffffffffff16815260200190815260200160002060003373ffffffffffffffffffffffffffffffffffffffff1673ffffffffffffffffffffffffffffffffffffffff16815260200190815260200160002060009054906101000a900460ff161515141561316657601260405180604001604052808573ffffffffffffffffffffffffffffffffffffffff1681526020013373ffffffffffffffffffffffffffffffffffffffff16815250908060018154018082558091505060019003906000526020600020906002020160009091909190915060008201518160000160006101000a81548173ffffffffffffffffffffffffffffffffffffffff021916908373ffffffffffffffffffffffffffffffffffffffff16021790555060208201518160010160006101000a81548173ffffffffffffffffffffffffffffffffffffffff021916908373ffffffffffffffffffffffffffffffffffffffff16021790555050506001601a60008573ffffffffffffffffffffffffffffffffffffffff1673ffffffffffffffffffffffffffffffffffffffff16815260200190815260200160002060003373ffffffffffffffffffffffffffffffffffffffff1673ffffffffffffffffffffffffffffffffffffffff16815260200190815260200160002060006101000a81548160ff0219169083151502179055506001601360008573ffffffffffffffffffffffffffffffffffffffff1673ffffffffffffffffffffffffffffffffffffffff1681526020019081526020016000206000828254613103919061522a565b925050819055506001601460003373ffffffffffffffffffffffffffffffffffffffff1673ffffffffffffffffffffffffffffffffffffffff168152602001908152602001600020600082825461315a919061522a565b9250508190555061316d565b5050613170565b50505b5050565b61317c613f5c565b80600a8190555050565b61318e6139de565b6000601160008373ffffffffffffffffffffffffffffffffffffffff1673ffffffffffffffffffffffffffffffffffffffff1681526020019081526020016000205490506000600f82815481106131e8576131e7614f60565b5b906000526020600020906007020190508273ffffffffffffffffffffffffffffffffffffffff16601960003373ffffffffffffffffffffffffffffffffffffffff1673ffffffffffffffffffffffffffffffffffffffff16815260200190815260200160002060008573ffffffffffffffffffffffffffffffffffffffff1673ffffffffffffffffffffffffffffffffffffffff16815260200190815260200160002060009054906101000a900473ffffffffffffffffffffffffffffffffffffffff1673ffffffffffffffffffffffffffffffffffffffff16141580156132e65750600015158160060160009054906101000a900460ff16151514155b613325576040517f08c379a000000000000000000000000000000000000000000000000000000000815260040161331c9061569b565b60405180910390fd5b82601960003373ffffffffffffffffffffffffffffffffffffffff1673ffffffffffffffffffffffffffffffffffffffff16815260200190815260200160002060008573ffffffffffffffffffffffffffffffffffffffff1673ffffffffffffffffffffffffffffffffffffffff16815260200190815260200160002060006101000a81548173ffffffffffffffffffffffffffffffffffffffff021916908373ffffffffffffffffffffffffffffffffffffffff16021790555060018160010160008282546133f5919061522a565b92505081905550600a54816001015410156134425760008160060160009054906101000a900460ff169050808260060160006101000a81548160ff021916908315150217905550506134b8565b60008160060160006101000a81548160ff0219169083151502179055506000601860008573ffffffffffffffffffffffffffffffffffffffff1673ffffffffffffffffffffffffffffffffffffffff16815260200190815260200160002060006101000a81548160ff0219169083151502179055505b8273ffffffffffffffffffffffffffffffffffffffff163373ffffffffffffffffffffffffffffffffffffffff167f6ceca1a3cd7cb44311239fc385b20e17433d6483d6abe63fb5c51567edd4aa4a42604051613515919061456e565b60405180910390a3505050565b6000600160008473ffffffffffffffffffffffffffffffffffffffff1673ffffffffffffffffffffffffffffffffffffffff16815260200190815260200160002060008373ffffffffffffffffffffffffffffffffffffffff1673ffffffffffffffffffffffffffffffffffffffff16815260200190815260200160002054905092915050565b6000600c54905090565b8273ffffffffffffffffffffffffffffffffffffffff163373ffffffffffffffffffffffffffffffffffffffff167f30b70ac3fbb7579c74a917a29389560028fa9789f81f3540fd9da51e7f457d8b84846040516136129291906158be565b60405180910390a3505050565b613627613f5c565b80600860006101000a81548173ffffffffffffffffffffffffffffffffffffffff021916908373ffffffffffffffffffffffffffffffffffffffff16021790555050565b6060613675613ec7565b6000601360008473ffffffffffffffffffffffffffffffffffffffff1673ffffffffffffffffffffffffffffffffffffffff1681526020019081526020016000205467ffffffffffffffff8111156136d0576136cf614a90565b5b60405190808252806020026020018201604052801561370957816020015b6136f6614240565b8152602001906001900390816136ee5790505b5090506000805b6012805490508110156138b5578473ffffffffffffffffffffffffffffffffffffffff166012828154811061374857613747614f60565b5b906000526020600020906002020160000160009054906101000a900473ffffffffffffffffffffffffffffffffffffffff1673ffffffffffffffffffffffffffffffffffffffff1614156138a2576000601282815481106137ac576137ab614f60565b5b90600052602060002090600202019050806040518060400160405290816000820160009054906101000a900473ffffffffffffffffffffffffffffffffffffffff1673ffffffffffffffffffffffffffffffffffffffff1673ffffffffffffffffffffffffffffffffffffffff1681526020016001820160009054906101000a900473ffffffffffffffffffffffffffffffffffffffff1673ffffffffffffffffffffffffffffffffffffffff1673ffffffffffffffffffffffffffffffffffffffff168152505084848151811061388757613886614f60565b5b6020026020010181905250828061389d906153df565b935050505b80806138ad906153df565b915050613710565b508192505050919050565b600654600754101580156139215750600860009054906101000a900473ffffffffffffffffffffffffffffffffffffffff1673ffffffffffffffffffffffffffffffffffffffff163373ffffffffffffffffffffffffffffffffffffffff16145b8015613940575060001515600e60009054906101000a900460ff161515145b61397f576040517f08c379a00000000000000000000000000000000000000000000000000000000081526004016139769061592e565b60405180910390fd5b6001600e60006101000a81548160ff0219169083151502179055506139ca336139a6610e9b565b60ff16600a6139b591906150f1565b640105117f006139c59190615170565b614093565b565b6139d4613f5c565b80600d8190555050565b60011515601860003373ffffffffffffffffffffffffffffffffffffffff1673ffffffffffffffffffffffffffffffffffffffff16815260200190815260200160002060009054906101000a900460ff16151514613a71576040517f08c379a0000000000000000000000000000000000000000000000000000000008152600401613a689061599a565b60405180910390fd5b565b600033905090565b600073ffffffffffffffffffffffffffffffffffffffff168373ffffffffffffffffffffffffffffffffffffffff161415613aeb576040517f08c379a0000000000000000000000000000000000000000000000000000000008152600401613ae290615a2c565b60405180910390fd5b600073ffffffffffffffffffffffffffffffffffffffff168273ffffffffffffffffffffffffffffffffffffffff161415613b5b576040517f08c379a0000000000000000000000000000000000000000000000000000000008152600401613b5290615abe565b60405180910390fd5b80600160008573ffffffffffffffffffffffffffffffffffffffff1673ffffffffffffffffffffffffffffffffffffffff16815260200190815260200160002060008473ffffffffffffffffffffffffffffffffffffffff1673ffffffffffffffffffffffffffffffffffffffff168152602001908152602001600020819055508173ffffffffffffffffffffffffffffffffffffffff168373ffffffffffffffffffffffffffffffffffffffff167f8c5be1e5ebec7d5bd14f71427d1e84f3dd0314c0f7b2291e5b200ac8c7c3b92583604051613c39919061456e565b60405180910390a3505050565b600073ffffffffffffffffffffffffffffffffffffffff168373ffffffffffffffffffffffffffffffffffffffff161415613cb6576040517f08c379a0000000000000000000000000000000000000000000000000000000008152600401613cad90615b50565b60405180910390fd5b600073ffffffffffffffffffffffffffffffffffffffff168273ffffffffffffffffffffffffffffffffffffffff161415613d26576040517f08c379a0000000000000000000000000000000000000000000000000000000008152600401613d1d90615be2565b60405180910390fd5b613d318383836141f3565b60008060008573ffffffffffffffffffffffffffffffffffffffff1673ffffffffffffffffffffffffffffffffffffffff16815260200190815260200160002054905081811015613db7576040517f08c379a0000000000000000000000000000000000000000000000000000000008152600401613dae90615c74565b60405180910390fd5b8181036000808673ffffffffffffffffffffffffffffffffffffffff1673ffffffffffffffffffffffffffffffffffffffff16815260200190815260200160002081905550816000808573ffffffffffffffffffffffffffffffffffffffff1673ffffffffffffffffffffffffffffffffffffffff1681526020019081526020016000206000828254613e4a919061522a565b925050819055508273ffffffffffffffffffffffffffffffffffffffff168473ffffffffffffffffffffffffffffffffffffffff167fddf252ad1be2c89b69c2b068fc378daa952ba7f163c4a11628f55a4df523b3ef84604051613eae919061456e565b60405180910390a3613ec18484846141f8565b50505050565b60001515601760003373ffffffffffffffffffffffffffffffffffffffff1673ffffffffffffffffffffffffffffffffffffffff16815260200190815260200160002060009054906101000a900460ff16151514613f5a576040517f08c379a0000000000000000000000000000000000000000000000000000000008152600401613f5190615ce0565b60405180910390fd5b565b600860009054906101000a900473ffffffffffffffffffffffffffffffffffffffff1673ffffffffffffffffffffffffffffffffffffffff163373ffffffffffffffffffffffffffffffffffffffff1614613fec576040517f08c379a0000000000000000000000000000000000000000000000000000000008152600401613fe390615d4c565b60405180910390fd5b565b6000816040516020016140019190615dee565b604051602081830303815290604052805190602001209050919050565b60008060008061402d856141fd565b8093508194508295505050506001868484846040516000815260200160405260405161405c9493929190615e23565b6020604051602081039080840390855afa15801561407e573d6000803e3d6000fd5b50505060206040510351935050505092915050565b600073ffffffffffffffffffffffffffffffffffffffff168273ffffffffffffffffffffffffffffffffffffffff161415614103576040517f08c379a00000000000000000000000000000000000000000000000000000000081526004016140fa90615eb4565b60405180910390fd5b61410f600083836141f3565b8060026000828254614121919061522a565b92505081905550806000808473ffffffffffffffffffffffffffffffffffffffff1673ffffffffffffffffffffffffffffffffffffffff1681526020019081526020016000206000828254614176919061522a565b925050819055508173ffffffffffffffffffffffffffffffffffffffff16600073ffffffffffffffffffffffffffffffffffffffff167fddf252ad1be2c89b69c2b068fc378daa952ba7f163c4a11628f55a4df523b3ef836040516141db919061456e565b60405180910390a36141ef600083836141f8565b5050565b505050565b505050565b6000806000604184511461421057600080fd5b60008060006020870151925060408701519150606087015160001a90508083839550955095505050509193909250565b6040518060400160405280600073ffffffffffffffffffffffffffffffffffffffff168152602001600073ffffffffffffffffffffffffffffffffffffffff1681525090565b604051806101000160405280600081526020016000815260200160008152602001606081526020016060815260200160608152602001600015158152602001600073ffffffffffffffffffffffffffffffffffffffff1681525090565b8280546142ef906152af565b90600052602060002090601f0160209004810192826143115760008555614358565b82601f1061432a57805160ff1916838001178555614358565b82800160010185558215614358579182015b8281111561435757825182559160200191906001019061433c565b5b5090506143659190614369565b5090565b5b8082111561438257600081600090555060010161436a565b5090565b600081519050919050565b600082825260208201905092915050565b60005b838110156143c05780820151818401526020810190506143a5565b838111156143cf576000848401525b50505050565b6000601f19601f8301169050919050565b60006143f182614386565b6143fb8185614391565b935061440b8185602086016143a2565b614414816143d5565b840191505092915050565b6000602082019050818103600083015261443981846143e6565b905092915050565b6000604051905090565b600080fd5b600080fd5b600073ffffffffffffffffffffffffffffffffffffffff82169050919050565b600061448082614455565b9050919050565b61449081614475565b811461449b57600080fd5b50565b6000813590506144ad81614487565b92915050565b6000819050919050565b6144c6816144b3565b81146144d157600080fd5b50565b6000813590506144e3816144bd565b92915050565b60008060408385031215614500576144ff61444b565b5b600061450e8582860161449e565b925050602061451f858286016144d4565b9150509250929050565b60008115159050919050565b61453e81614529565b82525050565b60006020820190506145596000830184614535565b92915050565b614568816144b3565b82525050565b6000602082019050614583600083018461455f565b92915050565b6000806000606084860312156145a2576145a161444b565b5b60006145b08682870161449e565b93505060206145c18682870161449e565b92505060406145d2868287016144d4565b9150509250925092565b6000602082840312156145f2576145f161444b565b5b60006146008482850161449e565b91505092915050565b600060ff82169050919050565b61461f81614609565b82525050565b600060208201905061463a6000830184614616565b92915050565b61464981614475565b82525050565b600061010082019050614665600083018b61455f565b614672602083018a61455f565b61467f604083018961455f565b61468c606083018861455f565b614699608083018761455f565b6146a660a083018661455f565b6146b360c0830185614640565b6146c060e083018461455f565b9998505050505050505050565b600080604083850312156146e4576146e361444b565b5b60006146f2858286016144d4565b92505060206147038582860161449e565b9150509250929050565b600081519050919050565b600082825260208201905092915050565b6000819050602082019050919050565b61474281614475565b82525050565b60408201600082015161475e6000850182614739565b5060208201516147716020850182614739565b50505050565b60006147838383614748565b60408301905092915050565b6000602082019050919050565b60006147a78261470d565b6147b18185614718565b93506147bc83614729565b8060005b838110156147ed5781516147d48882614777565b97506147df8361478f565b9250506001810190506147c0565b5085935050505092915050565b60006020820190508181036000830152614814818461479c565b905092915050565b600081519050919050565b600082825260208201905092915050565b6000819050602082019050919050565b614851816144b3565b82525050565b600082825260208201905092915050565b600061487382614386565b61487d8185614857565b935061488d8185602086016143a2565b614896816143d5565b840191505092915050565b6148aa81614529565b82525050565b6000610100830160008301516148c96000860182614848565b5060208301516148dc6020860182614848565b5060408301516148ef6040860182614848565b50606083015184820360608601526149078282614868565b915050608083015184820360808601526149218282614868565b91505060a083015184820360a086015261493b8282614868565b91505060c083015161495060c08601826148a1565b5060e083015161496360e0860182614739565b508091505092915050565b600061497a83836148b0565b905092915050565b6000602082019050919050565b600061499a8261481c565b6149a48185614827565b9350836020820285016149b685614838565b8060005b858110156149f257848403895281516149d3858261496e565b94506149de83614982565b925060208a019950506001810190506149ba565b50829750879550505050505092915050565b60006020820190508181036000830152614a1e818461498f565b905092915050565b600080fd5b600080fd5b600080fd5b60008083601f840112614a4b57614a4a614a26565b5b8235905067ffffffffffffffff811115614a6857614a67614a2b565b5b602083019150836001820283011115614a8457614a83614a30565b5b9250929050565b600080fd5b7f4e487b7100000000000000000000000000000000000000000000000000000000600052604160045260246000fd5b614ac8826143d5565b810181811067ffffffffffffffff82111715614ae757614ae6614a90565b5b80604052505050565b6000614afa614441565b9050614b068282614abf565b919050565b600067ffffffffffffffff821115614b2657614b25614a90565b5b614b2f826143d5565b9050602081019050919050565b82818337600083830152505050565b6000614b5e614b5984614b0b565b614af0565b905082815260208101848484011115614b7a57614b79614a8b565b5b614b85848285614b3c565b509392505050565b600082601f830112614ba257614ba1614a26565b5b8135614bb2848260208601614b4b565b91505092915050565b600080600080600060808688031215614bd757614bd661444b565b5b600086013567ffffffffffffffff811115614bf557614bf4614450565b5b614c0188828901614a35565b9550955050602086013567ffffffffffffffff811115614c2457614c23614450565b5b614c3088828901614b8d565b935050604086013567ffffffffffffffff811115614c5157614c50614450565b5b614c5d88828901614b8d565b925050606086013567ffffffffffffffff811115614c7e57614c7d614450565b5b614c8a88828901614b8d565b9150509295509295909350565b600061010082019050614cad600083018b61455f565b614cba602083018a61455f565b614cc7604083018961455f565b8181036060830152614cd981886143e6565b90508181036080830152614ced81876143e6565b905081810360a0830152614d0181866143e6565b9050614d1060c0830185614535565b614d1d60e0830184614640565b9998505050505050505050565b600080600060608486031215614d4357614d4261444b565b5b600084013567ffffffffffffffff811115614d6157614d60614450565b5b614d6d86828701614b8d565b935050602084013567ffffffffffffffff811115614d8e57614d8d614450565b5b614d9a86828701614b8d565b925050604084013567ffffffffffffffff811115614dbb57614dba614450565b5b614dc786828701614b8d565b9150509250925092565b600060208284031215614de757614de661444b565b5b6000614df5848285016144d4565b91505092915050565b60008060408385031215614e1557614e1461444b565b5b6000614e238582860161449e565b9250506020614e348582860161449e565b9150509250929050565b60008083601f840112614e5457614e53614a26565b5b8235905067ffffffffffffffff811115614e7157614e70614a2b565b5b602083019150836001820283011115614e8d57614e8c614a30565b5b9250929050565b600080600060408486031215614ead57614eac61444b565b5b6000614ebb8682870161449e565b935050602084013567ffffffffffffffff811115614edc57614edb614450565b5b614ee886828701614e3e565b92509250509250925092565b7f616c7265616479206d696e746564000000000000000000000000000000000000600082015250565b6000614f2a600e83614391565b9150614f3582614ef4565b602082019050919050565b60006020820190508181036000830152614f5981614f1d565b9050919050565b7f4e487b7100000000000000000000000000000000000000000000000000000000600052603260045260246000fd5b7f4e487b7100000000000000000000000000000000000000000000000000000000600052601160045260246000fd5b60008160011c9050919050565b6000808291508390505b600185111561501557808604811115614ff157614ff0614f8f565b5b60018516156150005780820291505b808102905061500e85614fbe565b9450614fd5565b94509492505050565b60008261502e57600190506150ea565b8161503c57600090506150ea565b8160018114615052576002811461505c5761508b565b60019150506150ea565b60ff84111561506e5761506d614f8f565b5b8360020a91508482111561508557615084614f8f565b5b506150ea565b5060208310610133831016604e8410600b84101617156150c05782820a9050838111156150bb576150ba614f8f565b5b6150ea565b6150cd8484846001614fcb565b925090508184048111156150e4576150e3614f8f565b5b81810290505b9392505050565b60006150fc826144b3565b9150615107836144b3565b92506151347fffffffffffffffffffffffffffffffffffffffffffffffffffffffffffffffff848461501e565b905092915050565b6000615147826144b3565b9150615152836144b3565b92508282101561516557615164614f8f565b5b828203905092915050565b600061517b826144b3565b9150615186836144b3565b9250817fffffffffffffffffffffffffffffffffffffffffffffffffffffffffffffffff04831182151516156151bf576151be614f8f565b5b828202905092915050565b7f4e487b7100000000000000000000000000000000000000000000000000000000600052601260045260246000fd5b6000615204826144b3565b915061520f836144b3565b92508261521f5761521e6151ca565b5b828204905092915050565b6000615235826144b3565b9150615240836144b3565b9250827fffffffffffffffffffffffffffffffffffffffffffffffffffffffffffffffff0382111561527557615274614f8f565b5b828201905092915050565b7f4e487b7100000000000000000000000000000000000000000000000000000000600052602260045260246000fd5b600060028204905060018216806152c757607f821691505b602082108114156152db576152da615280565b5b50919050565b7f45524332303a207472616e7366657220616d6f756e742065786365656473206160008201527f6c6c6f77616e6365000000000000000000000000000000000000000000000000602082015250565b600061533d602883614391565b9150615348826152e1565b604082019050919050565b6000602082019050818103600083015261536c81615330565b9050919050565b7f326d756368000000000000000000000000000000000000000000000000000000600082015250565b60006153a9600583614391565b91506153b482615373565b602082019050919050565b600060208201905081810360008301526153d88161539c565b9050919050565b60006153ea826144b3565b91507fffffffffffffffffffffffffffffffffffffffffffffffffffffffffffffffff82141561541d5761541c614f8f565b5b600182019050919050565b60008160601b9050919050565b600061544082615428565b9050919050565b600061545282615435565b9050919050565b61546a61546582614475565b615447565b82525050565b600061547c8284615459565b60148201915081905092915050565b7f696e76616c69645369674f72416c526567000000000000000000000000000000600082015250565b60006154c1601183614391565b91506154cc8261548b565b602082019050919050565b600060208201905081810360008301526154f0816154b4565b9050919050565b600060808201905061550c600083018761455f565b818103602083015261551e81866143e6565b9050818103604083015261553281856143e6565b9050818103606083015261554681846143e6565b905095945050505050565b7f45524332303a2064656372656173656420616c6c6f77616e63652062656c6f7760008201527f207a65726f000000000000000000000000000000000000000000000000000000602082015250565b60006155ad602583614391565b91506155b882615551565b604082019050919050565b600060208201905081810360008301526155dc816155a0565b9050919050565b7f4e6f74416c6c6f77656400000000000000000000000000000000000000000000600082015250565b6000615619600a83614391565b9150615624826155e3565b602082019050919050565b600060208201905081810360008301526156488161560c565b9050919050565b7f416c722072657000000000000000000000000000000000000000000000000000600082015250565b6000615685600783614391565b91506156908261564f565b602082019050919050565b600060208201905081810360008301526156b481615678565b9050919050565b7f6d6178476f6f64436f756e740000000000000000000000000000000000000000600082015250565b60006156f1600c83614391565b91506156fc826156bb565b602082019050919050565b60006020820190508181036000830152615720816156e4565b9050919050565b7f4e6f744e65656465640000000000000000000000000000000000000000000000600082015250565b600061575d600983614391565b915061576882615727565b602082019050919050565b6000602082019050818103600083015261578c81615750565b9050919050565b7f6e6f747965746d696e7465640000000000000000000000000000000000000000600082015250565b60006157c9600c83614391565b91506157d482615793565b602082019050919050565b600060208201905081810360008301526157f8816157bc565b9050919050565b50565b600061580f600083614391565b915061581a826157ff565b600082019050919050565b6000602082019050818103600083015261583e81615802565b9050919050565b6000606082019050818103600083015261585f81866143e6565b9050818103602083015261587381856143e6565b9050818103604083015261588781846143e6565b9050949350505050565b600061589d8385614391565b93506158aa838584614b3c565b6158b3836143d5565b840190509392505050565b600060208201905081810360008301526158d9818486615891565b90509392505050565b7f6e61000000000000000000000000000000000000000000000000000000000000600082015250565b6000615918600283614391565b9150615923826158e2565b602082019050919050565b600060208201905081810360008301526159478161590b565b9050919050565b7f626c000000000000000000000000000000000000000000000000000000000000600082015250565b6000615984600283614391565b915061598f8261594e565b602082019050919050565b600060208201905081810360008301526159b381615977565b9050919050565b7f45524332303a20617070726f76652066726f6d20746865207a65726f2061646460008201527f7265737300000000000000000000000000000000000000000000000000000000602082015250565b6000615a16602483614391565b9150615a21826159ba565b604082019050919050565b60006020820190508181036000830152615a4581615a09565b9050919050565b7f45524332303a20617070726f766520746f20746865207a65726f20616464726560008201527f7373000000000000000000000000000000000000000000000000000000000000602082015250565b6000615aa8602283614391565b9150615ab382615a4c565b604082019050919050565b60006020820190508181036000830152615ad781615a9b565b9050919050565b7f45524332303a207472616e736665722066726f6d20746865207a65726f20616460008201527f6472657373000000000000000000000000000000000000000000000000000000602082015250565b6000615b3a602583614391565b9150615b4582615ade565b604082019050919050565b60006020820190508181036000830152615b6981615b2d565b9050919050565b7f45524332303a207472616e7366657220746f20746865207a65726f206164647260008201527f6573730000000000000000000000000000000000000000000000000000000000602082015250565b6000615bcc602383614391565b9150615bd782615b70565b604082019050919050565b60006020820190508181036000830152615bfb81615bbf565b9050919050565b7f45524332303a207472616e7366657220616d6f756e742065786365656473206260008201527f616c616e63650000000000000000000000000000000000000000000000000000602082015250565b6000615c5e602683614391565b9150615c6982615c02565b604082019050919050565b60006020820190508181036000830152615c8d81615c51565b9050919050565b7f6e6f74416c6c6f77656400000000000000000000000000000000000000000000600082015250565b6000615cca600a83614391565b9150615cd582615c94565b602082019050919050565b60006020820190508181036000830152615cf981615cbd565b9050919050565b7f6f61000000000000000000000000000000000000000000000000000000000000600082015250565b6000615d36600283614391565b9150615d4182615d00565b602082019050919050565b60006020820190508181036000830152615d6581615d29565b9050919050565b600081905092915050565b7f19457468657265756d205369676e6564204d6573736167653a0a333200000000600082015250565b6000615dad601c83615d6c565b9150615db882615d77565b601c82019050919050565b6000819050919050565b6000819050919050565b615de8615de382615dc3565b615dcd565b82525050565b6000615df982615da0565b9150615e058284615dd7565b60208201915081905092915050565b615e1d81615dc3565b82525050565b6000608082019050615e386000830187615e14565b615e456020830186614616565b615e526040830185615e14565b615e5f6060830184615e14565b95945050505050565b7f45524332303a206d696e7420746f20746865207a65726f206164647265737300600082015250565b6000615e9e601f83614391565b9150615ea982615e68565b602082019050919050565b60006020820190508181036000830152615ecd81615e91565b905091905056fea264697066735822122093bedc75e8d3d8db5b53289cfe1030aa25de2a287becf785b5026ec17bdd449664736f6c634300080a0033",
  "immutableReferences": {},
  "source": "  // SPDX-License-Identifier: MIT\n  pragma solidity 0.8.10;\n\n  import \"@openzeppelin/contracts/token/ERC20/ERC20.sol\";\n\n  contract slice is ERC20 {\n      \n      uint start;\n      uint vTotalSupply;\n      uint vSupply;\n      address listAdmin;\n      address signer;\n      uint wenBlock;\n      uint maxGoodCount;\n      uint mintingSpeed;\n      uint goodPrice;\n      bool longTermReward;\n\n\n          function _a() private view {\n            require ((whitelist[msg.sender]==true), \"bl\");\n          }\n          modifier onlyWhitelisted() {\n            _a();\n            _;\n          }\n          function _b() private view {\n            require (\n              blacklist[msg.sender]==false,\n              \"notAllowed\"\n          );\n          }\n          modifier onlyNotBlacklisted() { \n            _b();\n            _;\n          }\n\n          function _admin() private view {\n            require(msg.sender == listAdmin, 'oa');\n          }\n          modifier onlyAdmin() {\n            _admin();\n            _;\n          }\n\n\n      constructor (string memory name, string memory symbol) ERC20(name, symbol) {\n        start = block.timestamp;\n        vTotalSupply = 438000000000 * 10 ** uint(decimals());\n        listAdmin = msg.sender;\n        signer = 0xD6AF7959290caeE9E8564EC80a33b92335d6232C;\n        wenBlock=2;\n        maxGoodCount=1;\n        mintingSpeed=3600;\n        goodPrice=10000000000000000;\n        longTermReward=false;\n      }\n\n      struct Minters {\n          uint goodCount;\n          uint reported;\n          uint lastMinted;\n          string gpsLat;\n          string gpsLon;\n          string nickname;\n          bool whitelisted;\n          address addr;\n      }\n      Minters[] mintersDB;\n      mapping(address => Minters) minters;\n      mapping(address => uint) index;\n      \n      struct StakedContracts {\n          address staker;\n          address fightContract;\n      }\n      StakedContracts []  stakersList;\n      \n      mapping (address=>uint )  stakedContractsCounter;\n      mapping (address=>uint )  stakedFightCounter;\n      mapping (address => uint) vSliceBalances;\n      mapping (address => uint) stakedVSlices;\n      mapping (address => bool) blacklist;\n      mapping (address => bool) whitelist;\n      mapping (address => mapping(address=> address))  challengers;\n      mapping (address => mapping(address=> bool))  stakers;\n      mapping (address => uint) pw;\n      error NotEnoughEther();\n\n      function isRegistered (address _addr) view external returns(uint) {\n      return index[_addr];\n      }\n      function  wl(address _addr) view external  returns (bool) {\n      return whitelist[_addr] ;\n      }\n\n      event BadActors(uint date, address indexed reporter, address indexed reported);\n      function reportBadActor(address _addr) external onlyWhitelisted {\n      uint indx = index[_addr];\n      Minters storage m = mintersDB[indx];\n      require (challengers[msg.sender][_addr] != _addr && m.whitelisted!=false, \"Alr rep\");\n      challengers[msg.sender][_addr] = _addr;\n      m.reported += 1;\n      if (m.reported <wenBlock) \n          {bool existingStatus=m.whitelisted;\n            m.whitelisted=existingStatus;\n      }else {\n          m.whitelisted=false;\n          whitelist[_addr] = false;\n      }\n      emit BadActors (block.timestamp, msg.sender, _addr);\n      }\n      \n      event GoodActors(uint date, address indexed reporter, address indexed reported);\n      function reportGoodActor(address _addr) external payable onlyWhitelisted {\n      uint indx = index[_addr];\n      Minters storage m = mintersDB[indx];\n      require (msg.sender != _addr, \"NotAllowed\");\n      require (challengers[msg.sender][_addr] != _addr, \"Alr rep\");\n      require (m.goodCount<maxGoodCount, \"maxGoodCount\");\n      require (m.reported>0, \"NotNeeded\");\n      if (msg.value != goodPrice) revert NotEnoughEther();\n      pw[listAdmin]+= goodPrice;\n      challengers[msg.sender][_addr] = _addr;\n      m.reported -= 1;\n      m.goodCount+=1;\n      if (m.reported >=wenBlock)  \n          {bool existingStatus=m.whitelisted;\n            m.whitelisted=existingStatus;\n      }else {\n          m.whitelisted=true;\n          whitelist[_addr] = true;\n      } \n      emit GoodActors (block.timestamp, msg.sender, _addr);\n      }\n      \n      \n      function AddToWhitelist (string memory  _gpsLat,string memory  _gpsLon, string memory _nickname) external {\n      require(vSupply>= vTotalSupply, \"\");\n      require(index[msg.sender]==0, \"\");\n      mintersDB.push(Minters(0, 0, 0, _gpsLat, _gpsLon, _nickname, true, msg.sender));\n      index[msg.sender] = mintersDB.length-1;\n      whitelist[msg.sender] = true;\n      emit mintersFree(msg.sender,_gpsLat, _gpsLon, _nickname);\n    }\n          \n      event mintersFree(address indexed minter, string Lat, string Lon, string Nick);    \n      event newMinter(uint date, address indexed minter, string Lat, string Lon, string Nick);\n      function addToWhitelist_a7I(bytes calldata signature, string memory _gpsLat,string memory _gpsLon, string memory _nickname) external {\n      bytes32 message = prefixed(keccak256(abi.encodePacked(\n        msg.sender\n      )));\n      require(recoverSigner(message, signature) == signer && index[msg.sender]==0 , \"invalidSigOrAlReg\");\n      mintersDB.push(Minters(0, 0, 0, _gpsLat, _gpsLon, _nickname, true, msg.sender));\n      index[msg.sender] = mintersDB.length-1;\n      whitelist[msg.sender] = true;\n      emit newMinter(block.timestamp, msg.sender,_gpsLat, _gpsLon, _nickname);\n    }\n\n    function prefixed(bytes32 hash) internal pure returns (bytes32) {\n      return keccak256(abi.encodePacked(\n        '\\x19Ethereum Signed Message:\\n32', \n        hash\n      ));\n    }\n\n    function recoverSigner(bytes32 message, bytes memory sig)\n      internal\n      pure\n      returns (address)\n    {\n      uint8 v;\n      bytes32 r;\n      bytes32 s;\n    \n      (v, r, s) = splitSignature(sig);\n    \n      return ecrecover(message, v, r, s);\n    }\n\n    function splitSignature(bytes memory sig)\n      internal\n      pure\n      returns (uint8, bytes32, bytes32)\n    {\n      require(sig.length == 65);\n    \n      bytes32 r;\n      bytes32 s;\n      uint8 v;\n    \n      assembly {\n          // first 32 bytes, after the length prefix\n          r := mload(add(sig, 32))\n          // second 32 bytes\n          s := mload(add(sig, 64))\n          // final byte (first byte of the next 32 bytes)\n          v := byte(0, mload(add(sig, 96)))\n      }\n    \n      return (v, r, s);\n    }\n\n      function SliceMinting() external onlyWhitelisted {\n          require(vSupply>=vTotalSupply, \"notyetminted\");\n          uint amount = vSliceBalances[msg.sender];\n          vSliceBalances[msg.sender]=0;\n          _mint(msg.sender, amount);\n\n      }\n      \n      function AdminLongTermReward() external {\n      require(vSupply>=vTotalSupply && msg.sender==listAdmin && longTermReward==false, \"na\");\n      longTermReward = true;\n      _mint(msg.sender, (4380000000 * 10 ** uint(decimals())));\n  }\n\n      function vSliceMinting_ExW() external onlyWhitelisted {\n              require(vSupply<= vTotalSupply, \"already minted\");\n              uint indx = index[msg.sender];\n              Minters storage m = mintersDB[indx];\n              uint mint;\n              uint diff;\n          if (m.lastMinted == 0) {\n              mint = (block.timestamp-start)* 10 ** uint(decimals());\n              vSliceBalances[msg.sender]+= mint/mintingSpeed;\n              m.lastMinted = block.timestamp;\n              vSupply+= mint/mintingSpeed;}\n          else {\n              diff = block.timestamp - m.lastMinted;\n              mint = diff* 10 ** uint(decimals());\n              vSliceBalances[msg.sender]+= mint/mintingSpeed;\n              m.lastMinted = block.timestamp;\n              vSupply+= mint/mintingSpeed;}\n\n      }\n      \n      \n      function stakeVSlice_h56(uint _amount, address _addr) external onlyNotBlacklisted{\n          uint indx = index[_addr];\n          Minters storage m = mintersDB[indx];\n          require (vSliceBalances[_addr] >= _amount && m.whitelisted!=false, \"2much\");\n          stakedVSlices[_addr] += _amount;\n          vSliceBalances[_addr] -= _amount;\n          if (stakers[_addr][msg.sender] == false) {\n              stakersList.push(StakedContracts(_addr, msg.sender));\n              stakers[_addr][msg.sender] = true;\n              stakedContractsCounter[_addr] += 1;\n              stakedFightCounter[msg.sender] +=1;\n          } else {return;}\n          \n      }\n      event UnStakingVSlice (uint date, address indexed fightContract, address indexed Unstaker);\n      function unstakeVSlice_Hha(uint _amount, address _addr) external onlyNotBlacklisted {\n          uint indx = index[_addr];\n          Minters storage m = mintersDB[indx];\n          require(stakedVSlices[_addr]>=_amount && m.whitelisted!=false, \"2much\");\n          stakedVSlices[_addr] -= _amount;\n          vSliceBalances[_addr] += _amount;\n          emit UnStakingVSlice (block.timestamp, msg.sender, _addr);\n      }\n\n      function getStakedByStaker(address _owner) view external onlyNotBlacklisted returns (StakedContracts[] memory){\n        StakedContracts[]    memory id = new StakedContracts[](stakedContractsCounter[_owner]);\n            uint counter = 0;\n            \n        for (uint i = 0; i < stakersList.length; i++) {\n            if (stakersList[i].staker == _owner) {\n          StakedContracts storage list = stakersList[i];\n            id[counter] = list;\n            counter++;\n        }\n      }\n        return id;\n    }\n      function getStakedByFight(address _fight) view external onlyNotBlacklisted returns (StakedContracts[] memory){\n        StakedContracts[]    memory id = new StakedContracts[](stakedFightCounter[_fight]);\n            uint counter = 0;\n            \n        for (uint i = 0; i < stakersList.length; i++) {\n            if (stakersList[i].fightContract== _fight) {\n          StakedContracts storage list = stakersList[i];\n            id[counter] = list;\n            counter++;\n        }\n      }\n        return id;\n    }\n      function getAllMinters() public view returns (Minters[] memory){\n        Minters[]    memory id = new Minters[](mintersDB.length);\n        for (uint i = 0; i < mintersDB.length; i++) {\n            Minters storage mint = mintersDB[i];\n            id[i] = mint;\n        }\n        return id;\n    }\n    \n      function getUserFromBlackList(address _addr) public view returns (bool) {\n      return blacklist[_addr];\n      }\n      function getMinter(address _addr)  view external returns (uint, uint, uint, string memory, string memory,string memory, bool, address) {\n          uint indx = index[_addr];\n          Minters storage m = mintersDB[indx];\n      return (m.goodCount, m.reported,m.lastMinted, m.gpsLat, m.gpsLon, m.nickname, m.whitelisted, m.addr);\n      }\n      function getMintingSpeed() public view returns (uint) {\n      return mintingSpeed;\n      }\n      function updateAdmin(address newAdmin) external onlyAdmin{\n      listAdmin = newAdmin;\n    }\n      function updateSigner(address _newSigner) external onlyAdmin{\n      signer = _newSigner;\n    }\n      function addToBlacklist(address _addr) external onlyAdmin{\n      blacklist[_addr] = true;\n    }\n      function removeFromBlacklist(address _addr) external onlyAdmin{\n      blacklist[_addr] = false;\n    }\n      function vSliceViewBalance (address _addr) view external onlyNotBlacklisted returns (uint) {\n      return vSliceBalances[_addr];\n      }\n      function getStakedBalance () view external returns (uint) {\n      return stakedVSlices[msg.sender];\n      }\n      function getStart () view external returns (uint) {\n      return start;\n      }\n      function setGoodP (uint _p) external onlyAdmin{\n      goodPrice = _p;\n    }\n      function getGoodP () view external returns (uint) {\n      return goodPrice;\n        }\n      function updateWenBlock(uint _count) external onlyAdmin {\n      wenBlock = _count;\n    }\n      function countMinters() view external returns(uint) {\n      return mintersDB.length;\n      }\n      function updateMaxGoodCount(uint _count) external onlyAdmin{\n      maxGoodCount = _count;\n    }\n      function sliceParams () view external returns (uint, uint, uint, uint, uint, uint, address, uint) {\n      return (vSupply, vTotalSupply, wenBlock, maxGoodCount, mintingSpeed, goodPrice, signer, pw[listAdmin]);\n      }\n      event Chat(address indexed _from, address indexed _to, string message);\n      function sendMessage(address _to, string calldata message) external {\n        emit Chat(msg.sender, _to, message);\n      }\n      //make withdrawal of Reputation fee\n      function reputation() public onlyAdmin{\n      uint amount = pw[listAdmin];\n      pw[listAdmin] = 0;\n      payable(msg.sender).transfer(amount);\n      }\n  }",
  "sourcePath": "/Users/stanislavpavlovic/Desktop/Slice/ee/contracts/slice.sol",
  "compiler": {
    "name": "solc",
    "version": "0.8.10+commit.fc410830.Emscripten.clang"
  },
  "schemaVersion": "3.4.3",
  "updatedAt": "2022-03-27T08:12:12.410Z",
  "networkType": "ethereum",
  "devdoc": {
    "kind": "dev",
    "methods": {
      "allowance(address,address)": {
        "details": "See {IERC20-allowance}."
      },
      "approve(address,uint256)": {
        "details": "See {IERC20-approve}. Requirements: - `spender` cannot be the zero address."
      },
      "balanceOf(address)": {
        "details": "See {IERC20-balanceOf}."
      },
      "decimals()": {
        "details": "Returns the number of decimals used to get its user representation. For example, if `decimals` equals `2`, a balance of `505` tokens should be displayed to a user as `5.05` (`505 / 10 ** 2`). Tokens usually opt for a value of 18, imitating the relationship between Ether and Wei. This is the value {ERC20} uses, unless this function is overridden; NOTE: This information is only used for _display_ purposes: it in no way affects any of the arithmetic of the contract, including {IERC20-balanceOf} and {IERC20-transfer}."
      },
      "decreaseAllowance(address,uint256)": {
        "details": "Atomically decreases the allowance granted to `spender` by the caller. This is an alternative to {approve} that can be used as a mitigation for problems described in {IERC20-approve}. Emits an {Approval} event indicating the updated allowance. Requirements: - `spender` cannot be the zero address. - `spender` must have allowance for the caller of at least `subtractedValue`."
      },
      "increaseAllowance(address,uint256)": {
        "details": "Atomically increases the allowance granted to `spender` by the caller. This is an alternative to {approve} that can be used as a mitigation for problems described in {IERC20-approve}. Emits an {Approval} event indicating the updated allowance. Requirements: - `spender` cannot be the zero address."
      },
      "name()": {
        "details": "Returns the name of the token."
      },
      "symbol()": {
        "details": "Returns the symbol of the token, usually a shorter version of the name."
      },
      "totalSupply()": {
        "details": "See {IERC20-totalSupply}."
      },
      "transfer(address,uint256)": {
        "details": "See {IERC20-transfer}. Requirements: - `recipient` cannot be the zero address. - the caller must have a balance of at least `amount`."
      },
      "transferFrom(address,address,uint256)": {
        "details": "See {IERC20-transferFrom}. Emits an {Approval} event indicating the updated allowance. This is not required by the EIP. See the note at the beginning of {ERC20}. Requirements: - `sender` and `recipient` cannot be the zero address. - `sender` must have a balance of at least `amount`. - the caller must have allowance for ``sender``'s tokens of at least `amount`."
      }
    },
    "version": 1
  },
  "userdoc": {
    "kind": "user",
    "methods": {},
    "version": 1
  }
}